{
  "abi": [
    {
      "constant": false,
      "inputs": [
        {
          "name": "_token",
          "type": "address"
        },
        {
          "name": "_value",
          "type": "uint256"
        }
      ],
      "name": "setLastPrice",
      "outputs": [],
      "payable": false,
      "stateMutability": "nonpayable",
      "type": "function"
    },
    {
      "constant": true,
      "inputs": [
        {
          "name": "_account",
          "type": "address"
        },
        {
          "name": "_token",
          "type": "address"
        }
      ],
      "name": "getCommitment",
      "outputs": [
        {
          "name": "",
          "type": "uint256"
        }
      ],
      "payable": false,
      "stateMutability": "view",
      "type": "function"
    },
    {
      "constant": true,
      "inputs": [
        {
          "name": "",
          "type": "uint256"
        }
      ],
      "name": "latestAgreementIds",
      "outputs": [
        {
          "name": "",
          "type": "uint256"
        }
      ],
      "payable": false,
      "stateMutability": "view",
      "type": "function"
    },
    {
      "constant": true,
      "inputs": [
        {
          "name": "_orderId",
          "type": "uint256"
        }
      ],
      "name": "getOrderPrice",
      "outputs": [
        {
          "name": "",
          "type": "uint256"
        }
      ],
      "payable": false,
      "stateMutability": "view",
      "type": "function"
    },
    {
      "constant": false,
      "inputs": [
        {
          "name": "_orderId",
          "type": "uint256"
        },
        {
          "name": "_agreementId",
          "type": "uint256"
        },
        {
          "name": "_price",
          "type": "uint256"
        }
      ],
      "name": "setAgreementPrice",
      "outputs": [],
      "payable": false,
      "stateMutability": "nonpayable",
      "type": "function"
    },
    {
      "constant": false,
      "inputs": [
        {
          "name": "_orderId",
          "type": "uint256"
        },
        {
          "name": "_agreementId",
          "type": "uint256"
        },
        {
          "name": "_amount",
          "type": "uint256"
        }
      ],
      "name": "setAgreementAmount",
      "outputs": [],
      "payable": false,
      "stateMutability": "nonpayable",
      "type": "function"
    },
    {
      "constant": false,
      "inputs": [
        {
          "name": "_orderId",
          "type": "uint256"
        },
        {
          "name": "_owner",
          "type": "address"
        },
        {
          "name": "_token",
          "type": "address"
        },
        {
          "name": "_amount",
          "type": "uint256"
        },
        {
          "name": "_price",
          "type": "uint256"
        },
        {
          "name": "_isBuy",
          "type": "bool"
        },
        {
          "name": "_agent",
          "type": "address"
        },
        {
          "name": "_canceled",
          "type": "bool"
        }
      ],
      "name": "setOrder",
      "outputs": [],
      "payable": false,
      "stateMutability": "nonpayable",
      "type": "function"
    },
    {
      "constant": true,
      "inputs": [
        {
          "name": "_orderId",
          "type": "uint256"
        },
        {
          "name": "_agreementId",
          "type": "uint256"
        }
      ],
      "name": "getAgreementAmount",
      "outputs": [
        {
          "name": "",
          "type": "uint256"
        }
      ],
      "payable": false,
      "stateMutability": "view",
      "type": "function"
    },
    {
      "constant": true,
      "inputs": [
        {
          "name": "_orderId",
          "type": "uint256"
        }
      ],
      "name": "getOrderToken",
      "outputs": [
        {
          "name": "",
          "type": "address"
        }
      ],
      "payable": false,
      "stateMutability": "view",
      "type": "function"
    },
    {
      "constant": true,
      "inputs": [
        {
          "name": "_orderId",
          "type": "uint256"
        }
      ],
      "name": "getOrderCanceled",
      "outputs": [
        {
          "name": "",
          "type": "bool"
        }
      ],
      "payable": false,
      "stateMutability": "view",
      "type": "function"
    },
    {
      "constant": true,
      "inputs": [],
      "name": "getLatestOrderId",
      "outputs": [
        {
          "name": "",
          "type": "uint256"
        }
      ],
      "payable": false,
      "stateMutability": "view",
      "type": "function"
    },
    {
      "constant": true,
      "inputs": [
        {
          "name": "_orderId",
          "type": "uint256"
        }
      ],
      "name": "getOrderAgent",
      "outputs": [
        {
          "name": "",
          "type": "address"
        }
      ],
      "payable": false,
      "stateMutability": "view",
      "type": "function"
    },
    {
      "constant": false,
      "inputs": [
        {
          "name": "_orderId",
          "type": "uint256"
        },
        {
          "name": "_owner",
          "type": "address"
        }
      ],
      "name": "setOrderOwner",
      "outputs": [],
      "payable": false,
      "stateMutability": "nonpayable",
      "type": "function"
    },
    {
      "constant": true,
      "inputs": [
        {
          "name": "_orderId",
          "type": "uint256"
        }
      ],
      "name": "getOrderIsBuy",
      "outputs": [
        {
          "name": "",
          "type": "bool"
        }
      ],
      "payable": false,
      "stateMutability": "view",
      "type": "function"
    },
    {
      "constant": false,
      "inputs": [
        {
          "name": "_orderId",
          "type": "uint256"
        },
        {
          "name": "_agreementId",
          "type": "uint256"
        },
        {
          "name": "_counterpart",
          "type": "address"
        },
        {
          "name": "_amount",
          "type": "uint256"
        },
        {
          "name": "_price",
          "type": "uint256"
        },
        {
          "name": "_canceled",
          "type": "bool"
        },
        {
          "name": "_paid",
          "type": "bool"
        },
        {
          "name": "_expiry",
          "type": "uint256"
        }
      ],
      "name": "setAgreement",
      "outputs": [],
      "payable": false,
      "stateMutability": "nonpayable",
      "type": "function"
    },
    {
      "constant": false,
      "inputs": [
        {
          "name": "_orderId",
          "type": "uint256"
        },
        {
          "name": "_amount",
          "type": "uint256"
        }
      ],
      "name": "setOrderAmount",
      "outputs": [],
      "payable": false,
      "stateMutability": "nonpayable",
      "type": "function"
    },
    {
      "constant": true,
      "inputs": [
        {
          "name": "_orderId",
          "type": "uint256"
        }
      ],
      "name": "getOrderAmount",
      "outputs": [
        {
          "name": "",
          "type": "uint256"
        }
      ],
      "payable": false,
      "stateMutability": "view",
      "type": "function"
    },
    {
      "constant": true,
      "inputs": [],
      "name": "latestOrderId",
      "outputs": [
        {
          "name": "",
          "type": "uint256"
        }
      ],
      "payable": false,
      "stateMutability": "view",
      "type": "function"
    },
    {
      "constant": false,
      "inputs": [
        {
          "name": "_orderId",
          "type": "uint256"
        },
        {
          "name": "_token",
          "type": "address"
        }
      ],
      "name": "setOrderToken",
      "outputs": [],
      "payable": false,
      "stateMutability": "nonpayable",
      "type": "function"
    },
    {
      "constant": true,
      "inputs": [
        {
          "name": "_orderId",
          "type": "uint256"
        },
        {
          "name": "_agreementId",
          "type": "uint256"
        }
      ],
      "name": "getAgreementCanceled",
      "outputs": [
        {
          "name": "",
          "type": "bool"
        }
      ],
      "payable": false,
      "stateMutability": "view",
      "type": "function"
    },
    {
      "constant": true,
      "inputs": [
        {
          "name": "_orderId",
          "type": "uint256"
        },
        {
          "name": "_agreementId",
          "type": "uint256"
        }
      ],
      "name": "getAgreementPaid",
      "outputs": [
        {
          "name": "",
          "type": "bool"
        }
      ],
      "payable": false,
      "stateMutability": "view",
      "type": "function"
    },
    {
      "constant": true,
      "inputs": [
        {
          "name": "_orderId",
          "type": "uint256"
        }
      ],
      "name": "getOrderOwner",
      "outputs": [
        {
          "name": "",
          "type": "address"
        }
      ],
      "payable": false,
      "stateMutability": "view",
      "type": "function"
    },
    {
      "constant": true,
      "inputs": [],
      "name": "owner",
      "outputs": [
        {
          "name": "",
          "type": "address"
        }
      ],
      "payable": false,
      "stateMutability": "view",
      "type": "function"
    },
    {
      "constant": false,
      "inputs": [
        {
          "name": "_orderId",
          "type": "uint256"
        },
        {
          "name": "_agreementId",
          "type": "uint256"
        },
        {
          "name": "_expiry",
          "type": "uint256"
        }
      ],
      "name": "setAgreementExpiry",
      "outputs": [],
      "payable": false,
      "stateMutability": "nonpayable",
      "type": "function"
    },
    {
      "constant": false,
      "inputs": [
        {
          "name": "_orderId",
          "type": "uint256"
        },
        {
          "name": "_agreementId",
          "type": "uint256"
        },
        {
          "name": "_counterpart",
          "type": "address"
        }
      ],
      "name": "setAgreementCounterpart",
      "outputs": [],
      "payable": false,
      "stateMutability": "nonpayable",
      "type": "function"
    },
    {
      "constant": false,
      "inputs": [
        {
          "name": "_orderId",
          "type": "uint256"
        },
        {
          "name": "_agreementId",
          "type": "uint256"
        },
        {
          "name": "_paid",
          "type": "bool"
        }
      ],
      "name": "setAgreementPaid",
      "outputs": [],
      "payable": false,
      "stateMutability": "nonpayable",
      "type": "function"
    },
    {
      "constant": false,
      "inputs": [
        {
          "name": "_orderId",
          "type": "uint256"
        },
        {
          "name": "_agreementId",
          "type": "uint256"
        },
        {
          "name": "_canceled",
          "type": "bool"
        }
      ],
      "name": "setAgreementCanceled",
      "outputs": [],
      "payable": false,
      "stateMutability": "nonpayable",
      "type": "function"
    },
    {
      "constant": true,
      "inputs": [
        {
          "name": "",
          "type": "uint256"
        }
      ],
      "name": "orderBook",
      "outputs": [
        {
          "name": "owner",
          "type": "address"
        },
        {
          "name": "token",
          "type": "address"
        },
        {
          "name": "amount",
          "type": "uint256"
        },
        {
          "name": "price",
          "type": "uint256"
        },
        {
          "name": "isBuy",
          "type": "bool"
        },
        {
          "name": "agent",
          "type": "address"
        },
        {
          "name": "canceled",
          "type": "bool"
        }
      ],
      "payable": false,
      "stateMutability": "view",
      "type": "function"
    },
    {
      "constant": true,
      "inputs": [
        {
          "name": "_orderId",
          "type": "uint256"
        },
        {
          "name": "_agreementId",
          "type": "uint256"
        }
      ],
      "name": "getAgreementCounterpart",
      "outputs": [
        {
          "name": "",
          "type": "address"
        }
      ],
      "payable": false,
      "stateMutability": "view",
      "type": "function"
    },
    {
      "constant": true,
      "inputs": [
        {
          "name": "",
          "type": "address"
        },
        {
          "name": "",
          "type": "address"
        }
      ],
      "name": "commitments",
      "outputs": [
        {
          "name": "",
          "type": "uint256"
        }
      ],
      "payable": false,
      "stateMutability": "view",
      "type": "function"
    },
    {
      "constant": false,
      "inputs": [
        {
          "name": "_orderId",
          "type": "uint256"
        },
        {
          "name": "_latestAgreementId",
          "type": "uint256"
        }
      ],
      "name": "setLatestAgreementId",
      "outputs": [],
      "payable": false,
      "stateMutability": "nonpayable",
      "type": "function"
    },
    {
      "constant": false,
      "inputs": [
        {
          "name": "_orderId",
          "type": "uint256"
        },
        {
          "name": "_agent",
          "type": "address"
        }
      ],
      "name": "setOrderAgent",
      "outputs": [],
      "payable": false,
      "stateMutability": "nonpayable",
      "type": "function"
    },
    {
      "constant": false,
      "inputs": [
        {
          "name": "_account",
          "type": "address"
        },
        {
          "name": "_token",
          "type": "address"
        },
        {
          "name": "_value",
          "type": "uint256"
        }
      ],
      "name": "setBalance",
      "outputs": [
        {
          "name": "",
          "type": "bool"
        }
      ],
      "payable": false,
      "stateMutability": "nonpayable",
      "type": "function"
    },
    {
      "constant": false,
      "inputs": [
        {
          "name": "_latestOrderId",
          "type": "uint256"
        }
      ],
      "name": "setLatestOrderId",
      "outputs": [],
      "payable": false,
      "stateMutability": "nonpayable",
      "type": "function"
    },
    {
      "constant": true,
      "inputs": [
        {
          "name": "_orderId",
          "type": "uint256"
        },
        {
          "name": "_agreementId",
          "type": "uint256"
        }
      ],
      "name": "getAgreement",
      "outputs": [
        {
          "name": "_counterpart",
          "type": "address"
        },
        {
          "name": "_amount",
          "type": "uint256"
        },
        {
          "name": "_price",
          "type": "uint256"
        },
        {
          "name": "_canceled",
          "type": "bool"
        },
        {
          "name": "_paid",
          "type": "bool"
        },
        {
          "name": "_expiry",
          "type": "uint256"
        }
      ],
      "payable": false,
      "stateMutability": "view",
      "type": "function"
    },
    {
      "constant": true,
      "inputs": [],
      "name": "latestVersion",
      "outputs": [
        {
          "name": "",
          "type": "address"
        }
      ],
      "payable": false,
      "stateMutability": "view",
      "type": "function"
    },
    {
      "constant": false,
      "inputs": [
        {
          "name": "_orderId",
          "type": "uint256"
        },
        {
          "name": "_price",
          "type": "uint256"
        }
      ],
      "name": "setOrderPrice",
      "outputs": [],
      "payable": false,
      "stateMutability": "nonpayable",
      "type": "function"
    },
    {
      "constant": true,
      "inputs": [
        {
          "name": "",
          "type": "address"
        },
        {
          "name": "",
          "type": "address"
        }
      ],
      "name": "balances",
      "outputs": [
        {
          "name": "",
          "type": "uint256"
        }
      ],
      "payable": false,
      "stateMutability": "view",
      "type": "function"
    },
    {
      "constant": true,
      "inputs": [
        {
          "name": "_token",
          "type": "address"
        }
      ],
      "name": "getLastPrice",
      "outputs": [
        {
          "name": "",
          "type": "uint256"
        }
      ],
      "payable": false,
      "stateMutability": "view",
      "type": "function"
    },
    {
      "constant": true,
      "inputs": [
        {
          "name": "_orderId",
          "type": "uint256"
        }
      ],
      "name": "getLatestAgreementId",
      "outputs": [
        {
          "name": "",
          "type": "uint256"
        }
      ],
      "payable": false,
      "stateMutability": "view",
      "type": "function"
    },
    {
      "constant": true,
      "inputs": [
        {
          "name": "_orderId",
          "type": "uint256"
        },
        {
          "name": "_agreementId",
          "type": "uint256"
        }
      ],
      "name": "getAgreementPrice",
      "outputs": [
        {
          "name": "",
          "type": "uint256"
        }
      ],
      "payable": false,
      "stateMutability": "view",
      "type": "function"
    },
    {
      "constant": false,
      "inputs": [
        {
          "name": "_account",
          "type": "address"
        },
        {
          "name": "_token",
          "type": "address"
        },
        {
          "name": "_value",
          "type": "uint256"
        }
      ],
      "name": "setCommitment",
      "outputs": [],
      "payable": false,
      "stateMutability": "nonpayable",
      "type": "function"
    },
    {
      "constant": true,
      "inputs": [
        {
          "name": "_orderId",
          "type": "uint256"
        }
      ],
      "name": "getOrder",
      "outputs": [
        {
          "name": "owner",
          "type": "address"
        },
        {
          "name": "token",
          "type": "address"
        },
        {
          "name": "amount",
          "type": "uint256"
        },
        {
          "name": "price",
          "type": "uint256"
        },
        {
          "name": "isBuy",
          "type": "bool"
        },
        {
          "name": "agent",
          "type": "address"
        },
        {
          "name": "canceled",
          "type": "bool"
        }
      ],
      "payable": false,
      "stateMutability": "view",
      "type": "function"
    },
    {
      "constant": false,
      "inputs": [
        {
          "name": "_newVersion",
          "type": "address"
        }
      ],
      "name": "upgradeVersion",
      "outputs": [],
      "payable": false,
      "stateMutability": "nonpayable",
      "type": "function"
    },
    {
      "constant": false,
      "inputs": [
        {
          "name": "_orderId",
          "type": "uint256"
        },
        {
          "name": "_canceled",
          "type": "bool"
        }
      ],
      "name": "setOrderCanceled",
      "outputs": [],
      "payable": false,
      "stateMutability": "nonpayable",
      "type": "function"
    },
    {
      "constant": true,
      "inputs": [
        {
          "name": "_account",
          "type": "address"
        },
        {
          "name": "_token",
          "type": "address"
        }
      ],
      "name": "getBalance",
      "outputs": [
        {
          "name": "",
          "type": "uint256"
        }
      ],
      "payable": false,
      "stateMutability": "view",
      "type": "function"
    },
    {
      "constant": true,
      "inputs": [
        {
          "name": "",
          "type": "uint256"
        },
        {
          "name": "",
          "type": "uint256"
        }
      ],
      "name": "agreements",
      "outputs": [
        {
          "name": "counterpart",
          "type": "address"
        },
        {
          "name": "amount",
          "type": "uint256"
        },
        {
          "name": "price",
          "type": "uint256"
        },
        {
          "name": "canceled",
          "type": "bool"
        },
        {
          "name": "paid",
          "type": "bool"
        },
        {
          "name": "expiry",
          "type": "uint256"
        }
      ],
      "payable": false,
      "stateMutability": "view",
      "type": "function"
    },
    {
      "constant": false,
      "inputs": [
        {
          "name": "newOwner",
          "type": "address"
        }
      ],
      "name": "transferOwnership",
      "outputs": [],
      "payable": false,
      "stateMutability": "nonpayable",
      "type": "function"
    },
    {
      "constant": true,
      "inputs": [
        {
          "name": "",
          "type": "address"
        }
      ],
      "name": "lastPrice",
      "outputs": [
        {
          "name": "",
          "type": "uint256"
        }
      ],
      "payable": false,
      "stateMutability": "view",
      "type": "function"
    },
    {
      "constant": false,
      "inputs": [
        {
          "name": "_orderId",
          "type": "uint256"
        },
        {
          "name": "_isBuy",
          "type": "bool"
        }
      ],
      "name": "setOrderIsBuy",
      "outputs": [],
      "payable": false,
      "stateMutability": "nonpayable",
      "type": "function"
    },
    {
      "constant": true,
      "inputs": [
        {
          "name": "_orderId",
          "type": "uint256"
        },
        {
          "name": "_agreementId",
          "type": "uint256"
        }
      ],
      "name": "getAgreementExpiry",
      "outputs": [
        {
          "name": "",
          "type": "uint256"
        }
      ],
      "payable": false,
      "stateMutability": "view",
      "type": "function"
    },
    {
      "inputs": [],
      "payable": false,
      "stateMutability": "nonpayable",
      "type": "constructor"
    },
    {
      "anonymous": false,
      "inputs": [
        {
          "indexed": true,
          "name": "previousOwner",
          "type": "address"
        },
        {
          "indexed": true,
          "name": "newOwner",
          "type": "address"
        }
      ],
      "name": "OwnershipTransferred",
      "type": "event"
    }
  ],
  "bytecode": "6080604052600060055534801561001557600080fd5b5060008054600160a060020a031916331790556113d4806100376000396000f3006080604052600436106102665763ffffffff7c010000000000000000000000000000000000000000000000000000000060003504166301e7a801811461026b578063097d9012146102915780630a786b0c146102ca5780630f251358146102e25780631abdd3ce146102fa5780632209f472146103185780632270fa5e1461033657806327f089ab146103795780632ac1011e146103945780632fb9f11a146103c85780633d7fe973146103f45780633db2befc1461040957806344a022ff1461042157806344a87e5f146104455780634f7584781461045d5780635116eb021461049757806367bb1fcf146104b25780636f3b60d6146104ca57806379e883d2146104df578063820c632614610503578063823ddf631461051e5780638cf53d97146105395780638da5cb5b14610551578063941ce21a1461056657806395a0af751461058457806397d6388d146105ab5780639ec2db9c146105cb578063a20b6e34146105eb578063a7fa7a3b1461064f578063adb6f63f1461066a578063b12c52cf14610691578063b27eeb16146106ac578063b5c9cbbe146106d0578063b9530091146106fa578063bf18e24e14610712578063c07f47d41461076c578063c0d1d3c714610781578063c23f001f1461079c578063c692fc74146107c3578063c9ee7c9a146107e4578063cd4747ac146107fc578063d04c23af14610817578063d09ef24114610841578063d28eb96314610859578063d4a0ece61461087a578063d4fac45d14610897578063e46cdff1146108be578063f2fde38b146108d9578063f5a6ba2e146108fa578063fde3eec21461091b578063fe597f9e14610938575b600080fd5b34801561027757600080fd5b5061028f600160a060020a0360043516602435610953565b005b34801561029d57600080fd5b506102b8600160a060020a0360043581169060243516610986565b60408051918252519081900360200190f35b3480156102d657600080fd5b506102b86004356109b1565b3480156102ee57600080fd5b506102b86004356109c3565b34801561030657600080fd5b5061028f6004356024356044356109d8565b34801561032457600080fd5b5061028f600435602435604435610a0e565b34801561034257600080fd5b5061028f600435600160a060020a03602435811690604435811690606435906084359060a43515159060c4351660e4351515610a44565b34801561038557600080fd5b506102b8600435602435610b0d565b3480156103a057600080fd5b506103ac600435610b2d565b60408051600160a060020a039092168252519081900360200190f35b3480156103d457600080fd5b506103e0600435610b4b565b604080519115158252519081900360200190f35b34801561040057600080fd5b506102b8610b6b565b34801561041557600080fd5b506103ac600435610b71565b34801561042d57600080fd5b5061028f600435600160a060020a0360243516610b95565b34801561045157600080fd5b506103e0600435610bda565b34801561046957600080fd5b5061028f600435602435600160a060020a036044351660643560843560a435151560c435151560e435610bf3565b3480156104a357600080fd5b5061028f600435602435610c7f565b3480156104be57600080fd5b506102b8600435610cab565b3480156104d657600080fd5b506102b8610cc0565b3480156104eb57600080fd5b5061028f600435600160a060020a0360243516610cc6565b34801561050f57600080fd5b506103e0600435602435610d0e565b34801561052a57600080fd5b506103e0600435602435610d31565b34801561054557600080fd5b506103ac600435610d59565b34801561055d57600080fd5b506103ac610d74565b34801561057257600080fd5b5061028f600435602435604435610d83565b34801561059057600080fd5b5061028f600435602435600160a060020a0360443516610db9565b3480156105b757600080fd5b5061028f6004356024356044351515610e08565b3480156105d757600080fd5b5061028f6004356024356044351515610e53565b3480156105f757600080fd5b50610603600435610e97565b60408051600160a060020a0398891681529688166020880152868101959095526060860193909352901515608085015290931660a083015291151560c082015290519081900360e00190f35b34801561065b57600080fd5b506103ac600435602435610eea565b34801561067657600080fd5b506102b8600160a060020a0360043581169060243516610f10565b34801561069d57600080fd5b5061028f600435602435610f2d565b3480156106b857600080fd5b5061028f600435600160a060020a0360243516610f56565b3480156106dc57600080fd5b506103e0600160a060020a0360043581169060243516604435610fb4565b34801561070657600080fd5b5061028f600435610ffe565b34801561071e57600080fd5b5061072d60043560243561101a565b60408051600160a060020a03909716875260208701959095528585019390935290151560608501521515608084015260a0830152519081900360c00190f35b34801561077857600080fd5b506103ac61106a565b34801561078d57600080fd5b5061028f600435602435611079565b3480156107a857600080fd5b506102b8600160a060020a03600435811690602435166110a5565b3480156107cf57600080fd5b506102b8600160a060020a03600435166110c2565b3480156107f057600080fd5b506102b86004356110dd565b34801561080857600080fd5b506102b86004356024356110ef565b34801561082357600080fd5b5061028f600160a060020a036004358116906024351660443561110f565b34801561084d57600080fd5b50610603600435611152565b34801561086557600080fd5b5061028f600160a060020a03600435166111a5565b34801561088657600080fd5b5061028f60043560243515156111de565b3480156108a357600080fd5b506102b8600160a060020a0360043581169060243516611237565b3480156108ca57600080fd5b5061072d600435602435611262565b3480156108e557600080fd5b5061028f600160a060020a03600435166112b3565b34801561090657600080fd5b506102b8600160a060020a036004351661133a565b34801561092757600080fd5b5061028f600435602435151561134c565b34801561094457600080fd5b506102b8600435602435611388565b600154600160a060020a0316331461096a57600080fd5b600160a060020a03909116600090815260086020526040902055565b600160a060020a03918216600090815260036020908152604080832093909416825291909152205490565b60076020526000908152604090205481565b60009081526004602052604090206003015490565b600154600160a060020a031633146109ef57600080fd5b6000928352600660209081526040808520938552929052912060020155565b600154600160a060020a03163314610a2557600080fd5b6000928352600660209081526040808520938552929052912060010155565b600154600160a060020a03163314610a5b57600080fd5b60009788526004602081905260409098208054600160a060020a03988916600160a060020a0319918216178255600182018054988a1698909116979097179096556002860194909455600385019290925592909401805491151560a860020a0275ff00000000000000000000000000000000000000000019959094166101000274ffffffffffffffffffffffffffffffffffffffff001993151560ff1990931692909217929092161792909216179055565b600091825260066020908152604080842092845291905290206001015490565b600090815260046020526040902060010154600160a060020a031690565b6000908152600460208190526040909120015460a860020a900460ff1690565b60055490565b600090815260046020819052604090912001546101009004600160a060020a031690565b600154600160a060020a03163314610bac57600080fd5b6000918252600460205260409091208054600160a060020a031916600160a060020a03909216919091179055565b6000908152600460208190526040909120015460ff1690565b600154600160a060020a03163314610c0a57600080fd5b6000978852600660209081526040808a20988a52979052959096208054600160a060020a031916600160a060020a03959095169490941784556001840192909255600283015560038201805460ff19169115159190911761ff0019166101009415159490940293909317909255600490910155565b600154600160a060020a03163314610c9657600080fd5b60009182526004602052604090912060020155565b60009081526004602052604090206002015490565b60055481565b600154600160a060020a03163314610cdd57600080fd5b6000918252600460205260409091206001018054600160a060020a031916600160a060020a03909216919091179055565b600091825260066020908152604080842092845291905290206003015460ff1690565b6000918252600660209081526040808420928452919052902060030154610100900460ff1690565b600090815260046020526040902054600160a060020a031690565b600054600160a060020a031681565b600154600160a060020a03163314610d9a57600080fd5b6000928352600660209081526040808520938552929052912060040155565b600154600160a060020a03163314610dd057600080fd5b600092835260066020908152604080852093855292905291208054600160a060020a031916600160a060020a03909216919091179055565b600154600160a060020a03163314610e1f57600080fd5b6000928352600660209081526040808520938552929052912060030180549115156101000261ff0019909216919091179055565b600154600160a060020a03163314610e6a57600080fd5b60009283526006602090815260408085209385529290529120600301805460ff1916911515919091179055565b600460208190526000918252604090912080546001820154600283015460038401549390940154600160a060020a039283169491831693919260ff8083169261010081049092169160a860020a90041687565b6000918252600660209081526040808420928452919052902054600160a060020a031690565b600360209081526000928352604080842090915290825290205481565b600154600160a060020a03163314610f4457600080fd5b60009182526007602052604090912055565b600154600160a060020a03163314610f6d57600080fd5b60009182526004602081905260409092209091018054600160a060020a039092166101000274ffffffffffffffffffffffffffffffffffffffff0019909216919091179055565b600154600090600160a060020a03163314610fce57600080fd5b50600160a060020a0392831660009081526002602090815260408083209490951682529290925291902055600190565b600154600160a060020a0316331461101557600080fd5b600555565b600091825260066020908152604080842092845291905290208054600182015460028301546003840154600490940154600160a060020a03909316949193909260ff808316936101009093041691565b600154600160a060020a031681565b600154600160a060020a0316331461109057600080fd5b60009182526004602052604090912060030155565b600260209081526000928352604080842090915290825290205481565b600160a060020a031660009081526008602052604090205490565b60009081526007602052604090205490565b600091825260066020908152604080842092845291905290206002015490565b600154600160a060020a0316331461112657600080fd5b600160a060020a0392831660009081526003602090815260408083209490951682529290925291902055565b600090815260046020819052604090912080546001820154600283015460038401549390940154600160a060020a039283169591831694939260ff8083169361010084049092169260a860020a90041690565b600054600160a060020a031633146111bc57600080fd5b60018054600160a060020a031916600160a060020a0392909216919091179055565b600154600160a060020a031633146111f557600080fd5b6000918252600460208190526040909220909101805491151560a860020a0275ff00000000000000000000000000000000000000000019909216919091179055565b600160a060020a03918216600090815260026020908152604080832093909416825291909152205490565b600660209081526000928352604080842090915290825290208054600182015460028301546003840154600490940154600160a060020a03909316939192909160ff80821692610100909204169086565b600054600160a060020a031633146112ca57600080fd5b600160a060020a03811615156112df57600080fd5b60008054604051600160a060020a03808516939216917f8be0079c531659141344cd1fd0a4f28419497f9722a3daafe3b4186f6b6457e091a360008054600160a060020a031916600160a060020a0392909216919091179055565b60086020526000908152604090205481565b600154600160a060020a0316331461136357600080fd5b6000918252600460208190526040909220909101805460ff1916911515919091179055565b6000918252600660209081526040808420928452919052902060040154905600a165627a7a7230582017d2c2d534a6bd3a4e3c9d7edfb60a0b51fbe008dfbc22267ab42cb8b0b4f61a0029",
  "bytecodeSha1": "93355e79eb24046dd3a3dde957e9baa0bfdc7d41",
  "compiler": {
    "evm_version": "byzantium",
    "optimizer": {
      "enabled": true,
      "runs": 200
    },
    "version": "0.4.25"
  },
  "contractName": "ExchangeStorage",
  "language": "Solidity",
  "natspec": {
    "methods": {
      "getAgreement(uint256,uint256)": {
        "notice": "約定情報の参照",
        "params": {
          "_agreementId": "約定ID",
          "_orderId": "注文ID"
        },
        "return": "counterpart 約定相手amount 約定数量price 約定単価canceled キャンセル済み状態paid 支払済状態expiry 有効期限"
      },
      "getAgreementAmount(uint256,uint256)": {
        "notice": "約定情報の参照（約定数量）",
        "params": {
          "_agreementId": "約定ID",
          "_orderId": "注文ID"
        },
        "return": "約定数量"
      },
      "getAgreementCanceled(uint256,uint256)": {
        "notice": "約定情報の参照（キャンセル済み状態）",
        "params": {
          "_agreementId": "約定ID",
          "_orderId": "注文ID"
        },
        "return": "キャンセル済み状態"
      },
      "getAgreementCounterpart(uint256,uint256)": {
        "notice": "約定情報の参照（約定相手）",
        "params": {
          "_agreementId": "約定ID",
          "_orderId": "注文ID"
        },
        "return": "約定相手"
      },
      "getAgreementExpiry(uint256,uint256)": {
        "notice": "約定情報の参照（有効期限）",
        "params": {
          "_agreementId": "約定ID",
          "_orderId": "注文ID"
        },
        "return": "expiry 有効期限"
      },
      "getAgreementPaid(uint256,uint256)": {
        "notice": "約定情報の参照（支払済状態）",
        "params": {
          "_agreementId": "約定ID",
          "_orderId": "注文ID"
        },
        "return": "支払済状態"
      },
      "getAgreementPrice(uint256,uint256)": {
        "notice": "約定情報の参照（役従尾単価）",
        "params": {
          "_agreementId": "約定ID",
          "_orderId": "注文ID"
        },
        "return": "counterpart 約定相手約定単価"
      },
      "getBalance(address,address)": {
        "notice": "残高数量の参照",
        "params": {
          "_account": "アドレス",
          "_token": "トークンアドレス"
        },
        "return": "残高数量"
      },
      "getCommitment(address,address)": {
        "notice": "拘束数量の参照",
        "params": {
          "_account": "アドレス",
          "_token": "トークンアドレス"
        },
        "return": "拘束数量"
      },
      "getLastPrice(address)": {
        "notice": "現在値の参照",
        "params": {
          "_token": "トークンアドレス"
        },
        "return": "現在値"
      },
      "getLatestAgreementId(uint256)": {
        "notice": "直近約定IDの参照",
        "params": {
          "_orderId": "注文ID"
        },
        "return": "直近約定ID"
      },
      "getLatestOrderId()": {
        "notice": "直近注文IDの参照",
        "return": "直近注文ID"
      },
      "getOrder(uint256)": {
        "notice": "注文情報の参照",
        "params": {
          "_orderId": "注文ID"
        },
        "return": "owner 注文実行者token トークンアドレスamount 注文数量price 注文単価isBuy 売買区分（買：True）agent 決済業者のアドレスcanceled キャンセル済み状態"
      },
      "getOrderAgent(uint256)": {
        "notice": "注文情報の参照（決済業者のアドレス）",
        "params": {
          "_orderId": "注文ID"
        },
        "return": "決済業者のアドレス"
      },
      "getOrderAmount(uint256)": {
        "notice": "注文情報の参照（注文数量）",
        "params": {
          "_orderId": "注文ID"
        },
        "return": "注文数量"
      },
      "getOrderCanceled(uint256)": {
        "notice": "注文情報の参照（キャンセル済み状態）",
        "params": {
          "_orderId": "注文ID"
        },
        "return": "キャンセル済み状態"
      },
      "getOrderIsBuy(uint256)": {
        "notice": "注文情報の参照（売買区分）",
        "params": {
          "_orderId": "注文ID"
        },
        "return": "売買区分（買：True）"
      },
      "getOrderOwner(uint256)": {
        "notice": "注文情報の参照（注文実行者）",
        "params": {
          "_orderId": "注文ID"
        },
        "return": "注文実行者"
      },
      "getOrderPrice(uint256)": {
        "notice": "注文情報の参照（注文単価）",
        "params": {
          "_orderId": "注文ID"
        },
        "return": "注文単価"
      },
      "getOrderToken(uint256)": {
        "notice": "注文情報の参照（トークンアドレス）",
        "params": {
          "_orderId": "注文ID"
        },
        "return": "トークンアドレス"
      },
      "setAgreement(uint256,uint256,address,uint256,uint256,bool,bool,uint256)": {
        "details": "最新バージョンのExchangeコントラクトのみ実行が可能",
        "notice": "約定情報の更新",
        "params": {
          "_agreementId": "約定ID",
          "_amount": "約定数量",
          "_canceled": "キャンセル済み状態",
          "_counterpart": "約定相手",
          "_expiry": "有効期限",
          "_orderId": "注文ID",
          "_paid": "支払済状態",
          "_price": "約定単価"
        }
      },
      "setAgreementAmount(uint256,uint256,uint256)": {
        "details": "最新バージョンのExchangeコントラクトのみ実行が可能",
        "notice": "約定情報の更新（約定数量）",
        "params": {
          "_agreementId": "約定ID",
          "_amount": "約定数量",
          "_orderId": "注文ID"
        }
      },
      "setAgreementCanceled(uint256,uint256,bool)": {
        "details": "最新バージョンのExchangeコントラクトのみ実行が可能",
        "notice": "約定情報の更新（キャンセル済み状態）",
        "params": {
          "_agreementId": "約定ID",
          "_canceled": "キャンセル済み状態",
          "_orderId": "注文ID"
        }
      },
      "setAgreementCounterpart(uint256,uint256,address)": {
        "details": "最新バージョンのExchangeコントラクトのみ実行が可能",
        "notice": "約定情報の更新（約定相手）",
        "params": {
          "_agreementId": "約定ID",
          "_counterpart": "約定相手",
          "_orderId": "注文ID"
        }
      },
      "setAgreementExpiry(uint256,uint256,uint256)": {
        "details": "最新バージョンのExchangeコントラクトのみ実行が可能",
        "notice": "約定情報の更新（有効期限）",
        "params": {
          "_agreementId": "約定ID",
          "_expiry": "有効期限",
          "_orderId": "注文ID"
        }
      },
      "setAgreementPaid(uint256,uint256,bool)": {
        "details": "最新バージョンのExchangeコントラクトのみ実行が可能",
        "notice": "約定情報の更新（支払済状態）",
        "params": {
          "_agreementId": "約定ID",
          "_orderId": "注文ID",
          "_paid": "支払済状態"
        }
      },
      "setAgreementPrice(uint256,uint256,uint256)": {
        "details": "最新バージョンのExchangeコントラクトのみ実行が可能",
        "notice": "約定情報の更新（約定単価）",
        "params": {
          "_agreementId": "約定ID",
          "_orderId": "注文ID",
          "_price": "約定単価"
        }
      },
      "setBalance(address,address,uint256)": {
        "details": "最新バージョンのExchangeコントラクトのみ実行が可能",
        "notice": "残高の更新",
        "params": {
          "_account": "アドレス",
          "_token": "トークンアドレス",
          "_value": "更新後の残高数量"
        },
        "return": "処理結果"
      },
      "setCommitment(address,address,uint256)": {
        "details": "最新バージョンのExchangeコントラクトのみ実行が可能",
        "notice": "拘束数量の更新",
        "params": {
          "_account": "アドレス",
          "_token": "トークンアドレス",
          "_value": "更新後の残高数量"
        }
      },
      "setLastPrice(address,uint256)": {
        "details": "最新バージョンのExchangeコントラクトのみ実行が可能",
        "notice": "現在値の更新",
        "params": {
          "_token": "トークンアドレス",
          "_value": "現在値"
        }
      },
      "setLatestAgreementId(uint256,uint256)": {
        "details": "最新バージョンのExchangeコントラクトのみ実行が可能",
        "notice": "直近約定IDの更新",
        "params": {
          "_latestAgreementId": "直近約定ID",
          "_orderId": "注文ID"
        }
      },
      "setLatestOrderId(uint256)": {
        "details": "最新バージョンのExchangeコントラクトのみ実行が可能",
        "notice": "直近注文IDの更新",
        "params": {
          "_latestOrderId": "直近注文ID"
        }
      },
      "setOrder(uint256,address,address,uint256,uint256,bool,address,bool)": {
        "details": "最新バージョンのExchangeコントラクトのみ実行が可能",
        "notice": "注文情報の更新",
        "params": {
          "_agent": "決済業者のアドレス",
          "_amount": "注文数量",
          "_canceled": "キャンセル済み状態",
          "_isBuy": "売買区分（買：True）",
          "_orderId": "注文ID",
          "_owner": "注文実行者",
          "_price": "注文単価",
          "_token": "トークンアドレス"
        }
      },
      "setOrderAgent(uint256,address)": {
        "details": "最新バージョンのExchangeコントラクトのみ実行が可能",
        "notice": "注文情報の更新（決済業者のアドレス）",
        "params": {
          "_agent": "決済業者のアドレス",
          "_orderId": "注文ID"
        }
      },
      "setOrderAmount(uint256,uint256)": {
        "details": "最新バージョンのExchangeコントラクトのみ実行が可能",
        "notice": "注文情報の更新（注文数量）",
        "params": {
          "_amount": "注文数量",
          "_orderId": "注文ID"
        }
      },
      "setOrderCanceled(uint256,bool)": {
        "details": "最新バージョンのExchangeコントラクトのみ実行が可能",
        "notice": "注文情報の更新（キャンセル済み状態）",
        "params": {
          "_canceled": "キャンセル済み状態",
          "_orderId": "注文ID"
        }
      },
      "setOrderIsBuy(uint256,bool)": {
        "details": "最新バージョンのExchangeコントラクトのみ実行が可能",
        "notice": "注文情報の更新（売買区分）",
        "params": {
          "_isBuy": "売買区分（買：True）",
          "_orderId": "注文ID"
        }
      },
      "setOrderOwner(uint256,address)": {
        "details": "最新バージョンのExchangeコントラクトのみ実行が可能",
        "notice": "注文情報の更新（注文実行者）",
        "params": {
          "_orderId": "注文ID",
          "_owner": "注文実行者"
        }
      },
      "setOrderPrice(uint256,uint256)": {
        "details": "最新バージョンのExchangeコントラクトのみ実行が可能",
        "notice": "注文情報の更新（注文単価）",
        "params": {
          "_orderId": "注文ID",
          "_price": "注文単価"
        }
      },
      "setOrderToken(uint256,address)": {
        "details": "最新バージョンのExchangeコントラクトのみ実行が可能",
        "notice": "注文情報の更新（トークンアドレス）",
        "params": {
          "_orderId": "注文ID",
          "_token": "トークンアドレス"
        }
      },
      "transferOwnership(address)": {
        "details": "オーナーのみ実行可能",
        "notice": "オーナー変更",
        "params": {
          "newOwner": "新しいオーナー"
        }
      },
      "upgradeVersion(address)": {
        "details": "コントラクトオーナーのみ実行が可能",
        "notice": "Exchangeコントラクトのバージョン更新",
        "params": {
          "_newVersion": "新しいExchangeコントラクトのアドレス"
        }
      }
    },
    "title": "Exchangeコントラクトの取引情報を永続化するためのEternalStorage"
  },
  "opcodes": "PUSH1 0x80 PUSH1 0x40 MSTORE PUSH1 0x4 CALLDATASIZE LT PUSH2 0x266 JUMPI PUSH4 0xFFFFFFFF PUSH29 0x100000000000000000000000000000000000000000000000000000000 PUSH1 0x0 CALLDATALOAD DIV AND PUSH4 0x1E7A801 DUP2 EQ PUSH2 0x26B JUMPI DUP1 PUSH4 0x97D9012 EQ PUSH2 0x291 JUMPI DUP1 PUSH4 0xA786B0C EQ PUSH2 0x2CA JUMPI DUP1 PUSH4 0xF251358 EQ PUSH2 0x2E2 JUMPI DUP1 PUSH4 0x1ABDD3CE EQ PUSH2 0x2FA JUMPI DUP1 PUSH4 0x2209F472 EQ PUSH2 0x318 JUMPI DUP1 PUSH4 0x2270FA5E EQ PUSH2 0x336 JUMPI DUP1 PUSH4 0x27F089AB EQ PUSH2 0x379 JUMPI DUP1 PUSH4 0x2AC1011E EQ PUSH2 0x394 JUMPI DUP1 PUSH4 0x2FB9F11A EQ PUSH2 0x3C8 JUMPI DUP1 PUSH4 0x3D7FE973 EQ PUSH2 0x3F4 JUMPI DUP1 PUSH4 0x3DB2BEFC EQ PUSH2 0x409 JUMPI DUP1 PUSH4 0x44A022FF EQ PUSH2 0x421 JUMPI DUP1 PUSH4 0x44A87E5F EQ PUSH2 0x445 JUMPI DUP1 PUSH4 0x4F758478 EQ PUSH2 0x45D JUMPI DUP1 PUSH4 0x5116EB02 EQ PUSH2 0x497 JUMPI DUP1 PUSH4 0x67BB1FCF EQ PUSH2 0x4B2 JUMPI DUP1 PUSH4 0x6F3B60D6 EQ PUSH2 0x4CA JUMPI DUP1 PUSH4 0x79E883D2 EQ PUSH2 0x4DF JUMPI DUP1 PUSH4 0x820C6326 EQ PUSH2 0x503 JUMPI DUP1 PUSH4 0x823DDF63 EQ PUSH2 0x51E JUMPI DUP1 PUSH4 0x8CF53D97 EQ PUSH2 0x539 JUMPI DUP1 PUSH4 0x8DA5CB5B EQ PUSH2 0x551 JUMPI DUP1 PUSH4 0x941CE21A EQ PUSH2 0x566 JUMPI DUP1 PUSH4 0x95A0AF75 EQ PUSH2 0x584 JUMPI DUP1 PUSH4 0x97D6388D EQ PUSH2 0x5AB JUMPI DUP1 PUSH4 0x9EC2DB9C EQ PUSH2 0x5CB JUMPI DUP1 PUSH4 0xA20B6E34 EQ PUSH2 0x5EB JUMPI DUP1 PUSH4 0xA7FA7A3B EQ PUSH2 0x64F JUMPI DUP1 PUSH4 0xADB6F63F EQ PUSH2 0x66A JUMPI DUP1 PUSH4 0xB12C52CF EQ PUSH2 0x691 JUMPI DUP1 PUSH4 0xB27EEB16 EQ PUSH2 0x6AC JUMPI DUP1 PUSH4 0xB5C9CBBE EQ PUSH2 0x6D0 JUMPI DUP1 PUSH4 0xB9530091 EQ PUSH2 0x6FA JUMPI DUP1 PUSH4 0xBF18E24E EQ PUSH2 0x712 JUMPI DUP1 PUSH4 0xC07F47D4 EQ PUSH2 0x76C JUMPI DUP1 PUSH4 0xC0D1D3C7 EQ PUSH2 0x781 JUMPI DUP1 PUSH4 0xC23F001F EQ PUSH2 0x79C JUMPI DUP1 PUSH4 0xC692FC74 EQ PUSH2 0x7C3 JUMPI DUP1 PUSH4 0xC9EE7C9A EQ PUSH2 0x7E4 JUMPI DUP1 PUSH4 0xCD4747AC EQ PUSH2 0x7FC JUMPI DUP1 PUSH4 0xD04C23AF EQ PUSH2 0x817 JUMPI DUP1 PUSH4 0xD09EF241 EQ PUSH2 0x841 JUMPI DUP1 PUSH4 0xD28EB963 EQ PUSH2 0x859 JUMPI DUP1 PUSH4 0xD4A0ECE6 EQ PUSH2 0x87A JUMPI DUP1 PUSH4 0xD4FAC45D EQ PUSH2 0x897 JUMPI DUP1 PUSH4 0xE46CDFF1 EQ PUSH2 0x8BE JUMPI DUP1 PUSH4 0xF2FDE38B EQ PUSH2 0x8D9 JUMPI DUP1 PUSH4 0xF5A6BA2E EQ PUSH2 0x8FA JUMPI DUP1 PUSH4 0xFDE3EEC2 EQ PUSH2 0x91B JUMPI DUP1 PUSH4 0xFE597F9E EQ PUSH2 0x938 JUMPI JUMPDEST PUSH1 0x0 DUP1 REVERT JUMPDEST CALLVALUE DUP1 ISZERO PUSH2 0x277 JUMPI PUSH1 0x0 DUP1 REVERT JUMPDEST POP PUSH2 0x28F PUSH1 0x1 PUSH1 0xA0 PUSH1 0x2 EXP SUB PUSH1 0x4 CALLDATALOAD AND PUSH1 0x24 CALLDATALOAD PUSH2 0x953 JUMP JUMPDEST STOP JUMPDEST CALLVALUE DUP1 ISZERO PUSH2 0x29D JUMPI PUSH1 0x0 DUP1 REVERT JUMPDEST POP PUSH2 0x2B8 PUSH1 0x1 PUSH1 0xA0 PUSH1 0x2 EXP SUB PUSH1 0x4 CALLDATALOAD DUP2 AND SWAP1 PUSH1 0x24 CALLDATALOAD AND PUSH2 0x986 JUMP JUMPDEST PUSH1 0x40 DUP1 MLOAD SWAP2 DUP3 MSTORE MLOAD SWAP1 DUP2 SWAP1 SUB PUSH1 0x20 ADD SWAP1 RETURN JUMPDEST CALLVALUE DUP1 ISZERO PUSH2 0x2D6 JUMPI PUSH1 0x0 DUP1 REVERT JUMPDEST POP PUSH2 0x2B8 PUSH1 0x4 CALLDATALOAD PUSH2 0x9B1 JUMP JUMPDEST CALLVALUE DUP1 ISZERO PUSH2 0x2EE JUMPI PUSH1 0x0 DUP1 REVERT JUMPDEST POP PUSH2 0x2B8 PUSH1 0x4 CALLDATALOAD PUSH2 0x9C3 JUMP JUMPDEST CALLVALUE DUP1 ISZERO PUSH2 0x306 JUMPI PUSH1 0x0 DUP1 REVERT JUMPDEST POP PUSH2 0x28F PUSH1 0x4 CALLDATALOAD PUSH1 0x24 CALLDATALOAD PUSH1 0x44 CALLDATALOAD PUSH2 0x9D8 JUMP JUMPDEST CALLVALUE DUP1 ISZERO PUSH2 0x324 JUMPI PUSH1 0x0 DUP1 REVERT JUMPDEST POP PUSH2 0x28F PUSH1 0x4 CALLDATALOAD PUSH1 0x24 CALLDATALOAD PUSH1 0x44 CALLDATALOAD PUSH2 0xA0E JUMP JUMPDEST CALLVALUE DUP1 ISZERO PUSH2 0x342 JUMPI PUSH1 0x0 DUP1 REVERT JUMPDEST POP PUSH2 0x28F PUSH1 0x4 CALLDATALOAD PUSH1 0x1 PUSH1 0xA0 PUSH1 0x2 EXP SUB PUSH1 0x24 CALLDATALOAD DUP2 AND SWAP1 PUSH1 0x44 CALLDATALOAD DUP2 AND SWAP1 PUSH1 0x64 CALLDATALOAD SWAP1 PUSH1 0x84 CALLDATALOAD SWAP1 PUSH1 0xA4 CALLDATALOAD ISZERO ISZERO SWAP1 PUSH1 0xC4 CALLDATALOAD AND PUSH1 0xE4 CALLDATALOAD ISZERO ISZERO PUSH2 0xA44 JUMP JUMPDEST CALLVALUE DUP1 ISZERO PUSH2 0x385 JUMPI PUSH1 0x0 DUP1 REVERT JUMPDEST POP PUSH2 0x2B8 PUSH1 0x4 CALLDATALOAD PUSH1 0x24 CALLDATALOAD PUSH2 0xB0D JUMP JUMPDEST CALLVALUE DUP1 ISZERO PUSH2 0x3A0 JUMPI PUSH1 0x0 DUP1 REVERT JUMPDEST POP PUSH2 0x3AC PUSH1 0x4 CALLDATALOAD PUSH2 0xB2D JUMP JUMPDEST PUSH1 0x40 DUP1 MLOAD PUSH1 0x1 PUSH1 0xA0 PUSH1 0x2 EXP SUB SWAP1 SWAP3 AND DUP3 MSTORE MLOAD SWAP1 DUP2 SWAP1 SUB PUSH1 0x20 ADD SWAP1 RETURN JUMPDEST CALLVALUE DUP1 ISZERO PUSH2 0x3D4 JUMPI PUSH1 0x0 DUP1 REVERT JUMPDEST POP PUSH2 0x3E0 PUSH1 0x4 CALLDATALOAD PUSH2 0xB4B JUMP JUMPDEST PUSH1 0x40 DUP1 MLOAD SWAP2 ISZERO ISZERO DUP3 MSTORE MLOAD SWAP1 DUP2 SWAP1 SUB PUSH1 0x20 ADD SWAP1 RETURN JUMPDEST CALLVALUE DUP1 ISZERO PUSH2 0x400 JUMPI PUSH1 0x0 DUP1 REVERT JUMPDEST POP PUSH2 0x2B8 PUSH2 0xB6B JUMP JUMPDEST CALLVALUE DUP1 ISZERO PUSH2 0x415 JUMPI PUSH1 0x0 DUP1 REVERT JUMPDEST POP PUSH2 0x3AC PUSH1 0x4 CALLDATALOAD PUSH2 0xB71 JUMP JUMPDEST CALLVALUE DUP1 ISZERO PUSH2 0x42D JUMPI PUSH1 0x0 DUP1 REVERT JUMPDEST POP PUSH2 0x28F PUSH1 0x4 CALLDATALOAD PUSH1 0x1 PUSH1 0xA0 PUSH1 0x2 EXP SUB PUSH1 0x24 CALLDATALOAD AND PUSH2 0xB95 JUMP JUMPDEST CALLVALUE DUP1 ISZERO PUSH2 0x451 JUMPI PUSH1 0x0 DUP1 REVERT JUMPDEST POP PUSH2 0x3E0 PUSH1 0x4 CALLDATALOAD PUSH2 0xBDA JUMP JUMPDEST CALLVALUE DUP1 ISZERO PUSH2 0x469 JUMPI PUSH1 0x0 DUP1 REVERT JUMPDEST POP PUSH2 0x28F PUSH1 0x4 CALLDATALOAD PUSH1 0x24 CALLDATALOAD PUSH1 0x1 PUSH1 0xA0 PUSH1 0x2 EXP SUB PUSH1 0x44 CALLDATALOAD AND PUSH1 0x64 CALLDATALOAD PUSH1 0x84 CALLDATALOAD PUSH1 0xA4 CALLDATALOAD ISZERO ISZERO PUSH1 0xC4 CALLDATALOAD ISZERO ISZERO PUSH1 0xE4 CALLDATALOAD PUSH2 0xBF3 JUMP JUMPDEST CALLVALUE DUP1 ISZERO PUSH2 0x4A3 JUMPI PUSH1 0x0 DUP1 REVERT JUMPDEST POP PUSH2 0x28F PUSH1 0x4 CALLDATALOAD PUSH1 0x24 CALLDATALOAD PUSH2 0xC7F JUMP JUMPDEST CALLVALUE DUP1 ISZERO PUSH2 0x4BE JUMPI PUSH1 0x0 DUP1 REVERT JUMPDEST POP PUSH2 0x2B8 PUSH1 0x4 CALLDATALOAD PUSH2 0xCAB JUMP JUMPDEST CALLVALUE DUP1 ISZERO PUSH2 0x4D6 JUMPI PUSH1 0x0 DUP1 REVERT JUMPDEST POP PUSH2 0x2B8 PUSH2 0xCC0 JUMP JUMPDEST CALLVALUE DUP1 ISZERO PUSH2 0x4EB JUMPI PUSH1 0x0 DUP1 REVERT JUMPDEST POP PUSH2 0x28F PUSH1 0x4 CALLDATALOAD PUSH1 0x1 PUSH1 0xA0 PUSH1 0x2 EXP SUB PUSH1 0x24 CALLDATALOAD AND PUSH2 0xCC6 JUMP JUMPDEST CALLVALUE DUP1 ISZERO PUSH2 0x50F JUMPI PUSH1 0x0 DUP1 REVERT JUMPDEST POP PUSH2 0x3E0 PUSH1 0x4 CALLDATALOAD PUSH1 0x24 CALLDATALOAD PUSH2 0xD0E JUMP JUMPDEST CALLVALUE DUP1 ISZERO PUSH2 0x52A JUMPI PUSH1 0x0 DUP1 REVERT JUMPDEST POP PUSH2 0x3E0 PUSH1 0x4 CALLDATALOAD PUSH1 0x24 CALLDATALOAD PUSH2 0xD31 JUMP JUMPDEST CALLVALUE DUP1 ISZERO PUSH2 0x545 JUMPI PUSH1 0x0 DUP1 REVERT JUMPDEST POP PUSH2 0x3AC PUSH1 0x4 CALLDATALOAD PUSH2 0xD59 JUMP JUMPDEST CALLVALUE DUP1 ISZERO PUSH2 0x55D JUMPI PUSH1 0x0 DUP1 REVERT JUMPDEST POP PUSH2 0x3AC PUSH2 0xD74 JUMP JUMPDEST CALLVALUE DUP1 ISZERO PUSH2 0x572 JUMPI PUSH1 0x0 DUP1 REVERT JUMPDEST POP PUSH2 0x28F PUSH1 0x4 CALLDATALOAD PUSH1 0x24 CALLDATALOAD PUSH1 0x44 CALLDATALOAD PUSH2 0xD83 JUMP JUMPDEST CALLVALUE DUP1 ISZERO PUSH2 0x590 JUMPI PUSH1 0x0 DUP1 REVERT JUMPDEST POP PUSH2 0x28F PUSH1 0x4 CALLDATALOAD PUSH1 0x24 CALLDATALOAD PUSH1 0x1 PUSH1 0xA0 PUSH1 0x2 EXP SUB PUSH1 0x44 CALLDATALOAD AND PUSH2 0xDB9 JUMP JUMPDEST CALLVALUE DUP1 ISZERO PUSH2 0x5B7 JUMPI PUSH1 0x0 DUP1 REVERT JUMPDEST POP PUSH2 0x28F PUSH1 0x4 CALLDATALOAD PUSH1 0x24 CALLDATALOAD PUSH1 0x44 CALLDATALOAD ISZERO ISZERO PUSH2 0xE08 JUMP JUMPDEST CALLVALUE DUP1 ISZERO PUSH2 0x5D7 JUMPI PUSH1 0x0 DUP1 REVERT JUMPDEST POP PUSH2 0x28F PUSH1 0x4 CALLDATALOAD PUSH1 0x24 CALLDATALOAD PUSH1 0x44 CALLDATALOAD ISZERO ISZERO PUSH2 0xE53 JUMP JUMPDEST CALLVALUE DUP1 ISZERO PUSH2 0x5F7 JUMPI PUSH1 0x0 DUP1 REVERT JUMPDEST POP PUSH2 0x603 PUSH1 0x4 CALLDATALOAD PUSH2 0xE97 JUMP JUMPDEST PUSH1 0x40 DUP1 MLOAD PUSH1 0x1 PUSH1 0xA0 PUSH1 0x2 EXP SUB SWAP9 DUP10 AND DUP2 MSTORE SWAP7 DUP9 AND PUSH1 0x20 DUP9 ADD MSTORE DUP7 DUP2 ADD SWAP6 SWAP1 SWAP6 MSTORE PUSH1 0x60 DUP7 ADD SWAP4 SWAP1 SWAP4 MSTORE SWAP1 ISZERO ISZERO PUSH1 0x80 DUP6 ADD MSTORE SWAP1 SWAP4 AND PUSH1 0xA0 DUP4 ADD MSTORE SWAP2 ISZERO ISZERO PUSH1 0xC0 DUP3 ADD MSTORE SWAP1 MLOAD SWAP1 DUP2 SWAP1 SUB PUSH1 0xE0 ADD SWAP1 RETURN JUMPDEST CALLVALUE DUP1 ISZERO PUSH2 0x65B JUMPI PUSH1 0x0 DUP1 REVERT JUMPDEST POP PUSH2 0x3AC PUSH1 0x4 CALLDATALOAD PUSH1 0x24 CALLDATALOAD PUSH2 0xEEA JUMP JUMPDEST CALLVALUE DUP1 ISZERO PUSH2 0x676 JUMPI PUSH1 0x0 DUP1 REVERT JUMPDEST POP PUSH2 0x2B8 PUSH1 0x1 PUSH1 0xA0 PUSH1 0x2 EXP SUB PUSH1 0x4 CALLDATALOAD DUP2 AND SWAP1 PUSH1 0x24 CALLDATALOAD AND PUSH2 0xF10 JUMP JUMPDEST CALLVALUE DUP1 ISZERO PUSH2 0x69D JUMPI PUSH1 0x0 DUP1 REVERT JUMPDEST POP PUSH2 0x28F PUSH1 0x4 CALLDATALOAD PUSH1 0x24 CALLDATALOAD PUSH2 0xF2D JUMP JUMPDEST CALLVALUE DUP1 ISZERO PUSH2 0x6B8 JUMPI PUSH1 0x0 DUP1 REVERT JUMPDEST POP PUSH2 0x28F PUSH1 0x4 CALLDATALOAD PUSH1 0x1 PUSH1 0xA0 PUSH1 0x2 EXP SUB PUSH1 0x24 CALLDATALOAD AND PUSH2 0xF56 JUMP JUMPDEST CALLVALUE DUP1 ISZERO PUSH2 0x6DC JUMPI PUSH1 0x0 DUP1 REVERT JUMPDEST POP PUSH2 0x3E0 PUSH1 0x1 PUSH1 0xA0 PUSH1 0x2 EXP SUB PUSH1 0x4 CALLDATALOAD DUP2 AND SWAP1 PUSH1 0x24 CALLDATALOAD AND PUSH1 0x44 CALLDATALOAD PUSH2 0xFB4 JUMP JUMPDEST CALLVALUE DUP1 ISZERO PUSH2 0x706 JUMPI PUSH1 0x0 DUP1 REVERT JUMPDEST POP PUSH2 0x28F PUSH1 0x4 CALLDATALOAD PUSH2 0xFFE JUMP JUMPDEST CALLVALUE DUP1 ISZERO PUSH2 0x71E JUMPI PUSH1 0x0 DUP1 REVERT JUMPDEST POP PUSH2 0x72D PUSH1 0x4 CALLDATALOAD PUSH1 0x24 CALLDATALOAD PUSH2 0x101A JUMP JUMPDEST PUSH1 0x40 DUP1 MLOAD PUSH1 0x1 PUSH1 0xA0 PUSH1 0x2 EXP SUB SWAP1 SWAP8 AND DUP8 MSTORE PUSH1 0x20 DUP8 ADD SWAP6 SWAP1 SWAP6 MSTORE DUP6 DUP6 ADD SWAP4 SWAP1 SWAP4 MSTORE SWAP1 ISZERO ISZERO PUSH1 0x60 DUP6 ADD MSTORE ISZERO ISZERO PUSH1 0x80 DUP5 ADD MSTORE PUSH1 0xA0 DUP4 ADD MSTORE MLOAD SWAP1 DUP2 SWAP1 SUB PUSH1 0xC0 ADD SWAP1 RETURN JUMPDEST CALLVALUE DUP1 ISZERO PUSH2 0x778 JUMPI PUSH1 0x0 DUP1 REVERT JUMPDEST POP PUSH2 0x3AC PUSH2 0x106A JUMP JUMPDEST CALLVALUE DUP1 ISZERO PUSH2 0x78D JUMPI PUSH1 0x0 DUP1 REVERT JUMPDEST POP PUSH2 0x28F PUSH1 0x4 CALLDATALOAD PUSH1 0x24 CALLDATALOAD PUSH2 0x1079 JUMP JUMPDEST CALLVALUE DUP1 ISZERO PUSH2 0x7A8 JUMPI PUSH1 0x0 DUP1 REVERT JUMPDEST POP PUSH2 0x2B8 PUSH1 0x1 PUSH1 0xA0 PUSH1 0x2 EXP SUB PUSH1 0x4 CALLDATALOAD DUP2 AND SWAP1 PUSH1 0x24 CALLDATALOAD AND PUSH2 0x10A5 JUMP JUMPDEST CALLVALUE DUP1 ISZERO PUSH2 0x7CF JUMPI PUSH1 0x0 DUP1 REVERT JUMPDEST POP PUSH2 0x2B8 PUSH1 0x1 PUSH1 0xA0 PUSH1 0x2 EXP SUB PUSH1 0x4 CALLDATALOAD AND PUSH2 0x10C2 JUMP JUMPDEST CALLVALUE DUP1 ISZERO PUSH2 0x7F0 JUMPI PUSH1 0x0 DUP1 REVERT JUMPDEST POP PUSH2 0x2B8 PUSH1 0x4 CALLDATALOAD PUSH2 0x10DD JUMP JUMPDEST CALLVALUE DUP1 ISZERO PUSH2 0x808 JUMPI PUSH1 0x0 DUP1 REVERT JUMPDEST POP PUSH2 0x2B8 PUSH1 0x4 CALLDATALOAD PUSH1 0x24 CALLDATALOAD PUSH2 0x10EF JUMP JUMPDEST CALLVALUE DUP1 ISZERO PUSH2 0x823 JUMPI PUSH1 0x0 DUP1 REVERT JUMPDEST POP PUSH2 0x28F PUSH1 0x1 PUSH1 0xA0 PUSH1 0x2 EXP SUB PUSH1 0x4 CALLDATALOAD DUP2 AND SWAP1 PUSH1 0x24 CALLDATALOAD AND PUSH1 0x44 CALLDATALOAD PUSH2 0x110F JUMP JUMPDEST CALLVALUE DUP1 ISZERO PUSH2 0x84D JUMPI PUSH1 0x0 DUP1 REVERT JUMPDEST POP PUSH2 0x603 PUSH1 0x4 CALLDATALOAD PUSH2 0x1152 JUMP JUMPDEST CALLVALUE DUP1 ISZERO PUSH2 0x865 JUMPI PUSH1 0x0 DUP1 REVERT JUMPDEST POP PUSH2 0x28F PUSH1 0x1 PUSH1 0xA0 PUSH1 0x2 EXP SUB PUSH1 0x4 CALLDATALOAD AND PUSH2 0x11A5 JUMP JUMPDEST CALLVALUE DUP1 ISZERO PUSH2 0x886 JUMPI PUSH1 0x0 DUP1 REVERT JUMPDEST POP PUSH2 0x28F PUSH1 0x4 CALLDATALOAD PUSH1 0x24 CALLDATALOAD ISZERO ISZERO PUSH2 0x11DE JUMP JUMPDEST CALLVALUE DUP1 ISZERO PUSH2 0x8A3 JUMPI PUSH1 0x0 DUP1 REVERT JUMPDEST POP PUSH2 0x2B8 PUSH1 0x1 PUSH1 0xA0 PUSH1 0x2 EXP SUB PUSH1 0x4 CALLDATALOAD DUP2 AND SWAP1 PUSH1 0x24 CALLDATALOAD AND PUSH2 0x1237 JUMP JUMPDEST CALLVALUE DUP1 ISZERO PUSH2 0x8CA JUMPI PUSH1 0x0 DUP1 REVERT JUMPDEST POP PUSH2 0x72D PUSH1 0x4 CALLDATALOAD PUSH1 0x24 CALLDATALOAD PUSH2 0x1262 JUMP JUMPDEST CALLVALUE DUP1 ISZERO PUSH2 0x8E5 JUMPI PUSH1 0x0 DUP1 REVERT JUMPDEST POP PUSH2 0x28F PUSH1 0x1 PUSH1 0xA0 PUSH1 0x2 EXP SUB PUSH1 0x4 CALLDATALOAD AND PUSH2 0x12B3 JUMP JUMPDEST CALLVALUE DUP1 ISZERO PUSH2 0x906 JUMPI PUSH1 0x0 DUP1 REVERT JUMPDEST POP PUSH2 0x2B8 PUSH1 0x1 PUSH1 0xA0 PUSH1 0x2 EXP SUB PUSH1 0x4 CALLDATALOAD AND PUSH2 0x133A JUMP JUMPDEST CALLVALUE DUP1 ISZERO PUSH2 0x927 JUMPI PUSH1 0x0 DUP1 REVERT JUMPDEST POP PUSH2 0x28F PUSH1 0x4 CALLDATALOAD PUSH1 0x24 CALLDATALOAD ISZERO ISZERO PUSH2 0x134C JUMP JUMPDEST CALLVALUE DUP1 ISZERO PUSH2 0x944 JUMPI PUSH1 0x0 DUP1 REVERT JUMPDEST POP PUSH2 0x2B8 PUSH1 0x4 CALLDATALOAD PUSH1 0x24 CALLDATALOAD PUSH2 0x1388 JUMP JUMPDEST PUSH1 0x1 SLOAD PUSH1 0x1 PUSH1 0xA0 PUSH1 0x2 EXP SUB AND CALLER EQ PUSH2 0x96A JUMPI PUSH1 0x0 DUP1 REVERT JUMPDEST PUSH1 0x1 PUSH1 0xA0 PUSH1 0x2 EXP SUB SWAP1 SWAP2 AND PUSH1 0x0 SWAP1 DUP2 MSTORE PUSH1 0x8 PUSH1 0x20 MSTORE PUSH1 0x40 SWAP1 KECCAK256 SSTORE JUMP JUMPDEST PUSH1 0x1 PUSH1 0xA0 PUSH1 0x2 EXP SUB SWAP2 DUP3 AND PUSH1 0x0 SWAP1 DUP2 MSTORE PUSH1 0x3 PUSH1 0x20 SWAP1 DUP2 MSTORE PUSH1 0x40 DUP1 DUP4 KECCAK256 SWAP4 SWAP1 SWAP5 AND DUP3 MSTORE SWAP2 SWAP1 SWAP2 MSTORE KECCAK256 SLOAD SWAP1 JUMP JUMPDEST PUSH1 0x7 PUSH1 0x20 MSTORE PUSH1 0x0 SWAP1 DUP2 MSTORE PUSH1 0x40 SWAP1 KECCAK256 SLOAD DUP2 JUMP JUMPDEST PUSH1 0x0 SWAP1 DUP2 MSTORE PUSH1 0x4 PUSH1 0x20 MSTORE PUSH1 0x40 SWAP1 KECCAK256 PUSH1 0x3 ADD SLOAD SWAP1 JUMP JUMPDEST PUSH1 0x1 SLOAD PUSH1 0x1 PUSH1 0xA0 PUSH1 0x2 EXP SUB AND CALLER EQ PUSH2 0x9EF JUMPI PUSH1 0x0 DUP1 REVERT JUMPDEST PUSH1 0x0 SWAP3 DUP4 MSTORE PUSH1 0x6 PUSH1 0x20 SWAP1 DUP2 MSTORE PUSH1 0x40 DUP1 DUP6 KECCAK256 SWAP4 DUP6 MSTORE SWAP3 SWAP1 MSTORE SWAP2 KECCAK256 PUSH1 0x2 ADD SSTORE JUMP JUMPDEST PUSH1 0x1 SLOAD PUSH1 0x1 PUSH1 0xA0 PUSH1 0x2 EXP SUB AND CALLER EQ PUSH2 0xA25 JUMPI PUSH1 0x0 DUP1 REVERT JUMPDEST PUSH1 0x0 SWAP3 DUP4 MSTORE PUSH1 0x6 PUSH1 0x20 SWAP1 DUP2 MSTORE PUSH1 0x40 DUP1 DUP6 KECCAK256 SWAP4 DUP6 MSTORE SWAP3 SWAP1 MSTORE SWAP2 KECCAK256 PUSH1 0x1 ADD SSTORE JUMP JUMPDEST PUSH1 0x1 SLOAD PUSH1 0x1 PUSH1 0xA0 PUSH1 0x2 EXP SUB AND CALLER EQ PUSH2 0xA5B JUMPI PUSH1 0x0 DUP1 REVERT JUMPDEST PUSH1 0x0 SWAP8 DUP9 MSTORE PUSH1 0x4 PUSH1 0x20 DUP2 SWAP1 MSTORE PUSH1 0x40 SWAP1 SWAP9 KECCAK256 DUP1 SLOAD PUSH1 0x1 PUSH1 0xA0 PUSH1 0x2 EXP SUB SWAP9 DUP10 AND PUSH1 0x1 PUSH1 0xA0 PUSH1 0x2 EXP SUB NOT SWAP2 DUP3 AND OR DUP3 SSTORE PUSH1 0x1 DUP3 ADD DUP1 SLOAD SWAP9 DUP11 AND SWAP9 SWAP1 SWAP2 AND SWAP8 SWAP1 SWAP8 OR SWAP1 SWAP7 SSTORE PUSH1 0x2 DUP7 ADD SWAP5 SWAP1 SWAP5 SSTORE PUSH1 0x3 DUP6 ADD SWAP3 SWAP1 SWAP3 SSTORE SWAP3 SWAP1 SWAP5 ADD DUP1 SLOAD SWAP2 ISZERO ISZERO PUSH1 0xA8 PUSH1 0x2 EXP MUL PUSH22 0xFF000000000000000000000000000000000000000000 NOT SWAP6 SWAP1 SWAP5 AND PUSH2 0x100 MUL PUSH21 0xFFFFFFFFFFFFFFFFFFFFFFFFFFFFFFFFFFFFFFFF00 NOT SWAP4 ISZERO ISZERO PUSH1 0xFF NOT SWAP1 SWAP4 AND SWAP3 SWAP1 SWAP3 OR SWAP3 SWAP1 SWAP3 AND OR SWAP3 SWAP1 SWAP3 AND OR SWAP1 SSTORE JUMP JUMPDEST PUSH1 0x0 SWAP2 DUP3 MSTORE PUSH1 0x6 PUSH1 0x20 SWAP1 DUP2 MSTORE PUSH1 0x40 DUP1 DUP5 KECCAK256 SWAP3 DUP5 MSTORE SWAP2 SWAP1 MSTORE SWAP1 KECCAK256 PUSH1 0x1 ADD SLOAD SWAP1 JUMP JUMPDEST PUSH1 0x0 SWAP1 DUP2 MSTORE PUSH1 0x4 PUSH1 0x20 MSTORE PUSH1 0x40 SWAP1 KECCAK256 PUSH1 0x1 ADD SLOAD PUSH1 0x1 PUSH1 0xA0 PUSH1 0x2 EXP SUB AND SWAP1 JUMP JUMPDEST PUSH1 0x0 SWAP1 DUP2 MSTORE PUSH1 0x4 PUSH1 0x20 DUP2 SWAP1 MSTORE PUSH1 0x40 SWAP1 SWAP2 KECCAK256 ADD SLOAD PUSH1 0xA8 PUSH1 0x2 EXP SWAP1 DIV PUSH1 0xFF AND SWAP1 JUMP JUMPDEST PUSH1 0x5 SLOAD SWAP1 JUMP JUMPDEST PUSH1 0x0 SWAP1 DUP2 MSTORE PUSH1 0x4 PUSH1 0x20 DUP2 SWAP1 MSTORE PUSH1 0x40 SWAP1 SWAP2 KECCAK256 ADD SLOAD PUSH2 0x100 SWAP1 DIV PUSH1 0x1 PUSH1 0xA0 PUSH1 0x2 EXP SUB AND SWAP1 JUMP JUMPDEST PUSH1 0x1 SLOAD PUSH1 0x1 PUSH1 0xA0 PUSH1 0x2 EXP SUB AND CALLER EQ PUSH2 0xBAC JUMPI PUSH1 0x0 DUP1 REVERT JUMPDEST PUSH1 0x0 SWAP2 DUP3 MSTORE PUSH1 0x4 PUSH1 0x20 MSTORE PUSH1 0x40 SWAP1 SWAP2 KECCAK256 DUP1 SLOAD PUSH1 0x1 PUSH1 0xA0 PUSH1 0x2 EXP SUB NOT AND PUSH1 0x1 PUSH1 0xA0 PUSH1 0x2 EXP SUB SWAP1 SWAP3 AND SWAP2 SWAP1 SWAP2 OR SWAP1 SSTORE JUMP JUMPDEST PUSH1 0x0 SWAP1 DUP2 MSTORE PUSH1 0x4 PUSH1 0x20 DUP2 SWAP1 MSTORE PUSH1 0x40 SWAP1 SWAP2 KECCAK256 ADD SLOAD PUSH1 0xFF AND SWAP1 JUMP JUMPDEST PUSH1 0x1 SLOAD PUSH1 0x1 PUSH1 0xA0 PUSH1 0x2 EXP SUB AND CALLER EQ PUSH2 0xC0A JUMPI PUSH1 0x0 DUP1 REVERT JUMPDEST PUSH1 0x0 SWAP8 DUP9 MSTORE PUSH1 0x6 PUSH1 0x20 SWAP1 DUP2 MSTORE PUSH1 0x40 DUP1 DUP11 KECCAK256 SWAP9 DUP11 MSTORE SWAP8 SWAP1 MSTORE SWAP6 SWAP1 SWAP7 KECCAK256 DUP1 SLOAD PUSH1 0x1 PUSH1 0xA0 PUSH1 0x2 EXP SUB NOT AND PUSH1 0x1 PUSH1 0xA0 PUSH1 0x2 EXP SUB SWAP6 SWAP1 SWAP6 AND SWAP5 SWAP1 SWAP5 OR DUP5 SSTORE PUSH1 0x1 DUP5 ADD SWAP3 SWAP1 SWAP3 SSTORE PUSH1 0x2 DUP4 ADD SSTORE PUSH1 0x3 DUP3 ADD DUP1 SLOAD PUSH1 0xFF NOT AND SWAP2 ISZERO ISZERO SWAP2 SWAP1 SWAP2 OR PUSH2 0xFF00 NOT AND PUSH2 0x100 SWAP5 ISZERO ISZERO SWAP5 SWAP1 SWAP5 MUL SWAP4 SWAP1 SWAP4 OR SWAP1 SWAP3 SSTORE PUSH1 0x4 SWAP1 SWAP2 ADD SSTORE JUMP JUMPDEST PUSH1 0x1 SLOAD PUSH1 0x1 PUSH1 0xA0 PUSH1 0x2 EXP SUB AND CALLER EQ PUSH2 0xC96 JUMPI PUSH1 0x0 DUP1 REVERT JUMPDEST PUSH1 0x0 SWAP2 DUP3 MSTORE PUSH1 0x4 PUSH1 0x20 MSTORE PUSH1 0x40 SWAP1 SWAP2 KECCAK256 PUSH1 0x2 ADD SSTORE JUMP JUMPDEST PUSH1 0x0 SWAP1 DUP2 MSTORE PUSH1 0x4 PUSH1 0x20 MSTORE PUSH1 0x40 SWAP1 KECCAK256 PUSH1 0x2 ADD SLOAD SWAP1 JUMP JUMPDEST PUSH1 0x5 SLOAD DUP2 JUMP JUMPDEST PUSH1 0x1 SLOAD PUSH1 0x1 PUSH1 0xA0 PUSH1 0x2 EXP SUB AND CALLER EQ PUSH2 0xCDD JUMPI PUSH1 0x0 DUP1 REVERT JUMPDEST PUSH1 0x0 SWAP2 DUP3 MSTORE PUSH1 0x4 PUSH1 0x20 MSTORE PUSH1 0x40 SWAP1 SWAP2 KECCAK256 PUSH1 0x1 ADD DUP1 SLOAD PUSH1 0x1 PUSH1 0xA0 PUSH1 0x2 EXP SUB NOT AND PUSH1 0x1 PUSH1 0xA0 PUSH1 0x2 EXP SUB SWAP1 SWAP3 AND SWAP2 SWAP1 SWAP2 OR SWAP1 SSTORE JUMP JUMPDEST PUSH1 0x0 SWAP2 DUP3 MSTORE PUSH1 0x6 PUSH1 0x20 SWAP1 DUP2 MSTORE PUSH1 0x40 DUP1 DUP5 KECCAK256 SWAP3 DUP5 MSTORE SWAP2 SWAP1 MSTORE SWAP1 KECCAK256 PUSH1 0x3 ADD SLOAD PUSH1 0xFF AND SWAP1 JUMP JUMPDEST PUSH1 0x0 SWAP2 DUP3 MSTORE PUSH1 0x6 PUSH1 0x20 SWAP1 DUP2 MSTORE PUSH1 0x40 DUP1 DUP5 KECCAK256 SWAP3 DUP5 MSTORE SWAP2 SWAP1 MSTORE SWAP1 KECCAK256 PUSH1 0x3 ADD SLOAD PUSH2 0x100 SWAP1 DIV PUSH1 0xFF AND SWAP1 JUMP JUMPDEST PUSH1 0x0 SWAP1 DUP2 MSTORE PUSH1 0x4 PUSH1 0x20 MSTORE PUSH1 0x40 SWAP1 KECCAK256 SLOAD PUSH1 0x1 PUSH1 0xA0 PUSH1 0x2 EXP SUB AND SWAP1 JUMP JUMPDEST PUSH1 0x0 SLOAD PUSH1 0x1 PUSH1 0xA0 PUSH1 0x2 EXP SUB AND DUP2 JUMP JUMPDEST PUSH1 0x1 SLOAD PUSH1 0x1 PUSH1 0xA0 PUSH1 0x2 EXP SUB AND CALLER EQ PUSH2 0xD9A JUMPI PUSH1 0x0 DUP1 REVERT JUMPDEST PUSH1 0x0 SWAP3 DUP4 MSTORE PUSH1 0x6 PUSH1 0x20 SWAP1 DUP2 MSTORE PUSH1 0x40 DUP1 DUP6 KECCAK256 SWAP4 DUP6 MSTORE SWAP3 SWAP1 MSTORE SWAP2 KECCAK256 PUSH1 0x4 ADD SSTORE JUMP JUMPDEST PUSH1 0x1 SLOAD PUSH1 0x1 PUSH1 0xA0 PUSH1 0x2 EXP SUB AND CALLER EQ PUSH2 0xDD0 JUMPI PUSH1 0x0 DUP1 REVERT JUMPDEST PUSH1 0x0 SWAP3 DUP4 MSTORE PUSH1 0x6 PUSH1 0x20 SWAP1 DUP2 MSTORE PUSH1 0x40 DUP1 DUP6 KECCAK256 SWAP4 DUP6 MSTORE SWAP3 SWAP1 MSTORE SWAP2 KECCAK256 DUP1 SLOAD PUSH1 0x1 PUSH1 0xA0 PUSH1 0x2 EXP SUB NOT AND PUSH1 0x1 PUSH1 0xA0 PUSH1 0x2 EXP SUB SWAP1 SWAP3 AND SWAP2 SWAP1 SWAP2 OR SWAP1 SSTORE JUMP JUMPDEST PUSH1 0x1 SLOAD PUSH1 0x1 PUSH1 0xA0 PUSH1 0x2 EXP SUB AND CALLER EQ PUSH2 0xE1F JUMPI PUSH1 0x0 DUP1 REVERT JUMPDEST PUSH1 0x0 SWAP3 DUP4 MSTORE PUSH1 0x6 PUSH1 0x20 SWAP1 DUP2 MSTORE PUSH1 0x40 DUP1 DUP6 KECCAK256 SWAP4 DUP6 MSTORE SWAP3 SWAP1 MSTORE SWAP2 KECCAK256 PUSH1 0x3 ADD DUP1 SLOAD SWAP2 ISZERO ISZERO PUSH2 0x100 MUL PUSH2 0xFF00 NOT SWAP1 SWAP3 AND SWAP2 SWAP1 SWAP2 OR SWAP1 SSTORE JUMP JUMPDEST PUSH1 0x1 SLOAD PUSH1 0x1 PUSH1 0xA0 PUSH1 0x2 EXP SUB AND CALLER EQ PUSH2 0xE6A JUMPI PUSH1 0x0 DUP1 REVERT JUMPDEST PUSH1 0x0 SWAP3 DUP4 MSTORE PUSH1 0x6 PUSH1 0x20 SWAP1 DUP2 MSTORE PUSH1 0x40 DUP1 DUP6 KECCAK256 SWAP4 DUP6 MSTORE SWAP3 SWAP1 MSTORE SWAP2 KECCAK256 PUSH1 0x3 ADD DUP1 SLOAD PUSH1 0xFF NOT AND SWAP2 ISZERO ISZERO SWAP2 SWAP1 SWAP2 OR SWAP1 SSTORE JUMP JUMPDEST PUSH1 0x4 PUSH1 0x20 DUP2 SWAP1 MSTORE PUSH1 0x0 SWAP2 DUP3 MSTORE PUSH1 0x40 SWAP1 SWAP2 KECCAK256 DUP1 SLOAD PUSH1 0x1 DUP3 ADD SLOAD PUSH1 0x2 DUP4 ADD SLOAD PUSH1 0x3 DUP5 ADD SLOAD SWAP4 SWAP1 SWAP5 ADD SLOAD PUSH1 0x1 PUSH1 0xA0 PUSH1 0x2 EXP SUB SWAP3 DUP4 AND SWAP5 SWAP2 DUP4 AND SWAP4 SWAP2 SWAP3 PUSH1 0xFF DUP1 DUP4 AND SWAP3 PUSH2 0x100 DUP2 DIV SWAP1 SWAP3 AND SWAP2 PUSH1 0xA8 PUSH1 0x2 EXP SWAP1 DIV AND DUP8 JUMP JUMPDEST PUSH1 0x0 SWAP2 DUP3 MSTORE PUSH1 0x6 PUSH1 0x20 SWAP1 DUP2 MSTORE PUSH1 0x40 DUP1 DUP5 KECCAK256 SWAP3 DUP5 MSTORE SWAP2 SWAP1 MSTORE SWAP1 KECCAK256 SLOAD PUSH1 0x1 PUSH1 0xA0 PUSH1 0x2 EXP SUB AND SWAP1 JUMP JUMPDEST PUSH1 0x3 PUSH1 0x20 SWAP1 DUP2 MSTORE PUSH1 0x0 SWAP3 DUP4 MSTORE PUSH1 0x40 DUP1 DUP5 KECCAK256 SWAP1 SWAP2 MSTORE SWAP1 DUP3 MSTORE SWAP1 KECCAK256 SLOAD DUP2 JUMP JUMPDEST PUSH1 0x1 SLOAD PUSH1 0x1 PUSH1 0xA0 PUSH1 0x2 EXP SUB AND CALLER EQ PUSH2 0xF44 JUMPI PUSH1 0x0 DUP1 REVERT JUMPDEST PUSH1 0x0 SWAP2 DUP3 MSTORE PUSH1 0x7 PUSH1 0x20 MSTORE PUSH1 0x40 SWAP1 SWAP2 KECCAK256 SSTORE JUMP JUMPDEST PUSH1 0x1 SLOAD PUSH1 0x1 PUSH1 0xA0 PUSH1 0x2 EXP SUB AND CALLER EQ PUSH2 0xF6D JUMPI PUSH1 0x0 DUP1 REVERT JUMPDEST PUSH1 0x0 SWAP2 DUP3 MSTORE PUSH1 0x4 PUSH1 0x20 DUP2 SWAP1 MSTORE PUSH1 0x40 SWAP1 SWAP3 KECCAK256 SWAP1 SWAP2 ADD DUP1 SLOAD PUSH1 0x1 PUSH1 0xA0 PUSH1 0x2 EXP SUB SWAP1 SWAP3 AND PUSH2 0x100 MUL PUSH21 0xFFFFFFFFFFFFFFFFFFFFFFFFFFFFFFFFFFFFFFFF00 NOT SWAP1 SWAP3 AND SWAP2 SWAP1 SWAP2 OR SWAP1 SSTORE JUMP JUMPDEST PUSH1 0x1 SLOAD PUSH1 0x0 SWAP1 PUSH1 0x1 PUSH1 0xA0 PUSH1 0x2 EXP SUB AND CALLER EQ PUSH2 0xFCE JUMPI PUSH1 0x0 DUP1 REVERT JUMPDEST POP PUSH1 0x1 PUSH1 0xA0 PUSH1 0x2 EXP SUB SWAP3 DUP4 AND PUSH1 0x0 SWAP1 DUP2 MSTORE PUSH1 0x2 PUSH1 0x20 SWAP1 DUP2 MSTORE PUSH1 0x40 DUP1 DUP4 KECCAK256 SWAP5 SWAP1 SWAP6 AND DUP3 MSTORE SWAP3 SWAP1 SWAP3 MSTORE SWAP2 SWAP1 KECCAK256 SSTORE PUSH1 0x1 SWAP1 JUMP JUMPDEST PUSH1 0x1 SLOAD PUSH1 0x1 PUSH1 0xA0 PUSH1 0x2 EXP SUB AND CALLER EQ PUSH2 0x1015 JUMPI PUSH1 0x0 DUP1 REVERT JUMPDEST PUSH1 0x5 SSTORE JUMP JUMPDEST PUSH1 0x0 SWAP2 DUP3 MSTORE PUSH1 0x6 PUSH1 0x20 SWAP1 DUP2 MSTORE PUSH1 0x40 DUP1 DUP5 KECCAK256 SWAP3 DUP5 MSTORE SWAP2 SWAP1 MSTORE SWAP1 KECCAK256 DUP1 SLOAD PUSH1 0x1 DUP3 ADD SLOAD PUSH1 0x2 DUP4 ADD SLOAD PUSH1 0x3 DUP5 ADD SLOAD PUSH1 0x4 SWAP1 SWAP5 ADD SLOAD PUSH1 0x1 PUSH1 0xA0 PUSH1 0x2 EXP SUB SWAP1 SWAP4 AND SWAP5 SWAP2 SWAP4 SWAP1 SWAP3 PUSH1 0xFF DUP1 DUP4 AND SWAP4 PUSH2 0x100 SWAP1 SWAP4 DIV AND SWAP2 JUMP JUMPDEST PUSH1 0x1 SLOAD PUSH1 0x1 PUSH1 0xA0 PUSH1 0x2 EXP SUB AND DUP2 JUMP JUMPDEST PUSH1 0x1 SLOAD PUSH1 0x1 PUSH1 0xA0 PUSH1 0x2 EXP SUB AND CALLER EQ PUSH2 0x1090 JUMPI PUSH1 0x0 DUP1 REVERT JUMPDEST PUSH1 0x0 SWAP2 DUP3 MSTORE PUSH1 0x4 PUSH1 0x20 MSTORE PUSH1 0x40 SWAP1 SWAP2 KECCAK256 PUSH1 0x3 ADD SSTORE JUMP JUMPDEST PUSH1 0x2 PUSH1 0x20 SWAP1 DUP2 MSTORE PUSH1 0x0 SWAP3 DUP4 MSTORE PUSH1 0x40 DUP1 DUP5 KECCAK256 SWAP1 SWAP2 MSTORE SWAP1 DUP3 MSTORE SWAP1 KECCAK256 SLOAD DUP2 JUMP JUMPDEST PUSH1 0x1 PUSH1 0xA0 PUSH1 0x2 EXP SUB AND PUSH1 0x0 SWAP1 DUP2 MSTORE PUSH1 0x8 PUSH1 0x20 MSTORE PUSH1 0x40 SWAP1 KECCAK256 SLOAD SWAP1 JUMP JUMPDEST PUSH1 0x0 SWAP1 DUP2 MSTORE PUSH1 0x7 PUSH1 0x20 MSTORE PUSH1 0x40 SWAP1 KECCAK256 SLOAD SWAP1 JUMP JUMPDEST PUSH1 0x0 SWAP2 DUP3 MSTORE PUSH1 0x6 PUSH1 0x20 SWAP1 DUP2 MSTORE PUSH1 0x40 DUP1 DUP5 KECCAK256 SWAP3 DUP5 MSTORE SWAP2 SWAP1 MSTORE SWAP1 KECCAK256 PUSH1 0x2 ADD SLOAD SWAP1 JUMP JUMPDEST PUSH1 0x1 SLOAD PUSH1 0x1 PUSH1 0xA0 PUSH1 0x2 EXP SUB AND CALLER EQ PUSH2 0x1126 JUMPI PUSH1 0x0 DUP1 REVERT JUMPDEST PUSH1 0x1 PUSH1 0xA0 PUSH1 0x2 EXP SUB SWAP3 DUP4 AND PUSH1 0x0 SWAP1 DUP2 MSTORE PUSH1 0x3 PUSH1 0x20 SWAP1 DUP2 MSTORE PUSH1 0x40 DUP1 DUP4 KECCAK256 SWAP5 SWAP1 SWAP6 AND DUP3 MSTORE SWAP3 SWAP1 SWAP3 MSTORE SWAP2 SWAP1 KECCAK256 SSTORE JUMP JUMPDEST PUSH1 0x0 SWAP1 DUP2 MSTORE PUSH1 0x4 PUSH1 0x20 DUP2 SWAP1 MSTORE PUSH1 0x40 SWAP1 SWAP2 KECCAK256 DUP1 SLOAD PUSH1 0x1 DUP3 ADD SLOAD PUSH1 0x2 DUP4 ADD SLOAD PUSH1 0x3 DUP5 ADD SLOAD SWAP4 SWAP1 SWAP5 ADD SLOAD PUSH1 0x1 PUSH1 0xA0 PUSH1 0x2 EXP SUB SWAP3 DUP4 AND SWAP6 SWAP2 DUP4 AND SWAP5 SWAP4 SWAP3 PUSH1 0xFF DUP1 DUP4 AND SWAP4 PUSH2 0x100 DUP5 DIV SWAP1 SWAP3 AND SWAP3 PUSH1 0xA8 PUSH1 0x2 EXP SWAP1 DIV AND SWAP1 JUMP JUMPDEST PUSH1 0x0 SLOAD PUSH1 0x1 PUSH1 0xA0 PUSH1 0x2 EXP SUB AND CALLER EQ PUSH2 0x11BC JUMPI PUSH1 0x0 DUP1 REVERT JUMPDEST PUSH1 0x1 DUP1 SLOAD PUSH1 0x1 PUSH1 0xA0 PUSH1 0x2 EXP SUB NOT AND PUSH1 0x1 PUSH1 0xA0 PUSH1 0x2 EXP SUB SWAP3 SWAP1 SWAP3 AND SWAP2 SWAP1 SWAP2 OR SWAP1 SSTORE JUMP JUMPDEST PUSH1 0x1 SLOAD PUSH1 0x1 PUSH1 0xA0 PUSH1 0x2 EXP SUB AND CALLER EQ PUSH2 0x11F5 JUMPI PUSH1 0x0 DUP1 REVERT JUMPDEST PUSH1 0x0 SWAP2 DUP3 MSTORE PUSH1 0x4 PUSH1 0x20 DUP2 SWAP1 MSTORE PUSH1 0x40 SWAP1 SWAP3 KECCAK256 SWAP1 SWAP2 ADD DUP1 SLOAD SWAP2 ISZERO ISZERO PUSH1 0xA8 PUSH1 0x2 EXP MUL PUSH22 0xFF000000000000000000000000000000000000000000 NOT SWAP1 SWAP3 AND SWAP2 SWAP1 SWAP2 OR SWAP1 SSTORE JUMP JUMPDEST PUSH1 0x1 PUSH1 0xA0 PUSH1 0x2 EXP SUB SWAP2 DUP3 AND PUSH1 0x0 SWAP1 DUP2 MSTORE PUSH1 0x2 PUSH1 0x20 SWAP1 DUP2 MSTORE PUSH1 0x40 DUP1 DUP4 KECCAK256 SWAP4 SWAP1 SWAP5 AND DUP3 MSTORE SWAP2 SWAP1 SWAP2 MSTORE KECCAK256 SLOAD SWAP1 JUMP JUMPDEST PUSH1 0x6 PUSH1 0x20 SWAP1 DUP2 MSTORE PUSH1 0x0 SWAP3 DUP4 MSTORE PUSH1 0x40 DUP1 DUP5 KECCAK256 SWAP1 SWAP2 MSTORE SWAP1 DUP3 MSTORE SWAP1 KECCAK256 DUP1 SLOAD PUSH1 0x1 DUP3 ADD SLOAD PUSH1 0x2 DUP4 ADD SLOAD PUSH1 0x3 DUP5 ADD SLOAD PUSH1 0x4 SWAP1 SWAP5 ADD SLOAD PUSH1 0x1 PUSH1 0xA0 PUSH1 0x2 EXP SUB SWAP1 SWAP4 AND SWAP4 SWAP2 SWAP3 SWAP1 SWAP2 PUSH1 0xFF DUP1 DUP3 AND SWAP3 PUSH2 0x100 SWAP1 SWAP3 DIV AND SWAP1 DUP7 JUMP JUMPDEST PUSH1 0x0 SLOAD PUSH1 0x1 PUSH1 0xA0 PUSH1 0x2 EXP SUB AND CALLER EQ PUSH2 0x12CA JUMPI PUSH1 0x0 DUP1 REVERT JUMPDEST PUSH1 0x1 PUSH1 0xA0 PUSH1 0x2 EXP SUB DUP2 AND ISZERO ISZERO PUSH2 0x12DF JUMPI PUSH1 0x0 DUP1 REVERT JUMPDEST PUSH1 0x0 DUP1 SLOAD PUSH1 0x40 MLOAD PUSH1 0x1 PUSH1 0xA0 PUSH1 0x2 EXP SUB DUP1 DUP6 AND SWAP4 SWAP3 AND SWAP2 PUSH32 0x8BE0079C531659141344CD1FD0A4F28419497F9722A3DAAFE3B4186F6B6457E0 SWAP2 LOG3 PUSH1 0x0 DUP1 SLOAD PUSH1 0x1 PUSH1 0xA0 PUSH1 0x2 EXP SUB NOT AND PUSH1 0x1 PUSH1 0xA0 PUSH1 0x2 EXP SUB SWAP3 SWAP1 SWAP3 AND SWAP2 SWAP1 SWAP2 OR SWAP1 SSTORE JUMP JUMPDEST PUSH1 0x8 PUSH1 0x20 MSTORE PUSH1 0x0 SWAP1 DUP2 MSTORE PUSH1 0x40 SWAP1 KECCAK256 SLOAD DUP2 JUMP JUMPDEST PUSH1 0x1 SLOAD PUSH1 0x1 PUSH1 0xA0 PUSH1 0x2 EXP SUB AND CALLER EQ PUSH2 0x1363 JUMPI PUSH1 0x0 DUP1 REVERT JUMPDEST PUSH1 0x0 SWAP2 DUP3 MSTORE PUSH1 0x4 PUSH1 0x20 DUP2 SWAP1 MSTORE PUSH1 0x40 SWAP1 SWAP3 KECCAK256 SWAP1 SWAP2 ADD DUP1 SLOAD PUSH1 0xFF NOT AND SWAP2 ISZERO ISZERO SWAP2 SWAP1 SWAP2 OR SWAP1 SSTORE JUMP JUMPDEST PUSH1 0x0 SWAP2 DUP3 MSTORE PUSH1 0x6 PUSH1 0x20 SWAP1 DUP2 MSTORE PUSH1 0x40 DUP1 DUP5 KECCAK256 SWAP3 DUP5 MSTORE SWAP2 SWAP1 MSTORE SWAP1 KECCAK256 PUSH1 0x4 ADD SLOAD SWAP1 JUMP STOP LOG1 PUSH6 0x627A7A723058 KECCAK256 OR 0xd2 0xc2 0xd5 CALLVALUE 0xa6 0xbd GASPRICE 0x4e EXTCODECOPY SWAP14 PUSH31 0xDFB60A0B51FBE008DFBC22267AB42CB8B0B4F61A0029000000000000000000 ",
  "sha1": "f7e7247cb0569de0cc89bcd76b0752568ae868af",
  "source": "pragma solidity ^0.4.24;\n\nimport \"./Ownable.sol\";\n\n\n/// @title Exchangeコントラクトの取引情報を永続化するためのEternalStorage\n/// @dev Storageのアクセスは認可したExchangeコントラクト限定\ncontract ExchangeStorage is Ownable {\n\n    constructor() public {}\n\n    /// -------------------------------------------------------------------\n    /// 最新バージョンのExchangeコントラクトアドレス\n    /// -------------------------------------------------------------------\n\n    /// 最新バージョンのExchangeコントラクトアドレス\n    address public latestVersion;\n\n    /// @notice Exchangeコントラクトのバージョン更新\n    /// @dev コントラクトオーナーのみ実行が可能\n    /// @param _newVersion 新しいExchangeコントラクトのアドレス\n    function upgradeVersion(address _newVersion)\n        public\n        onlyOwner()\n    {\n        latestVersion = _newVersion;\n    }\n\n    /// @dev 実行者が最新バージョンのExchangeアドレスであることをチェック\n    modifier onlyLatestVersion() {\n       require(msg.sender == latestVersion);\n        _;\n    }\n\n    /// -------------------------------------------------------------------\n    /// 残高数量\n    /// -------------------------------------------------------------------\n\n    /// 残高情報\n    /// account => token => balance\n    mapping(address => mapping(address => uint256)) public balances;\n\n    /// @notice 残高の更新\n    /// @dev 最新バージョンのExchangeコントラクトのみ実行が可能\n    /// @param _account アドレス\n    /// @param _token トークンアドレス\n    /// @param _value 更新後の残高数量\n    /// @return 処理結果\n    function setBalance(address _account, address _token, uint256 _value)\n        public\n        onlyLatestVersion()\n        returns (bool)\n    {\n        balances[_account][_token] = _value;\n        return true;\n    }\n\n    /// @notice 残高数量の参照\n    /// @param _account アドレス\n    /// @param _token トークンアドレス\n    /// @return 残高数量\n    function getBalance(address _account, address _token)\n        public\n        view\n        returns (uint256)\n    {\n        return balances[_account][_token];\n    }\n\n    /// -------------------------------------------------------------------\n    /// 拘束数量\n    /// -------------------------------------------------------------------\n\n    /// 拘束数量\n    /// account => token => order commitment\n    mapping(address => mapping(address => uint256)) public commitments;\n\n    /// @notice 拘束数量の更新\n    /// @dev 最新バージョンのExchangeコントラクトのみ実行が可能\n    /// @param _account アドレス\n    /// @param _token トークンアドレス\n    /// @param _value 更新後の残高数量\n    function setCommitment(address _account, address _token, uint256 _value)\n        public\n        onlyLatestVersion()\n    {\n        commitments[_account][_token] = _value;\n    }\n\n    /// @notice 拘束数量の参照\n    /// @param _account アドレス\n    /// @param _token トークンアドレス\n    /// @return 拘束数量\n    function getCommitment(address _account, address _token)\n        public\n        view\n        returns (uint256)\n    {\n        return commitments[_account][_token];\n    }\n\n    /// -------------------------------------------------------------------\n    /// 注文情報\n    /// -------------------------------------------------------------------\n    struct Order {\n        address owner; // 注文実行者\n        address token; // トークンアドレス\n        uint256 amount; // 注文数量\n        uint256 price; // 注文単価\n        bool isBuy; // 売買区分（買：True）\n        address agent; // 決済業者のアドレス\n        bool canceled; // キャンセル済み状態\n    }\n\n    /// 注文情報\n    /// orderId => order\n    mapping(uint256 => Order) public orderBook;\n\n    /// @notice 注文情報の更新\n    /// @dev 最新バージョンのExchangeコントラクトのみ実行が可能\n    /// @param _orderId 注文ID\n    /// @param _owner 注文実行者\n    /// @param _token トークンアドレス\n    /// @param _amount 注文数量\n    /// @param _price 注文単価\n    /// @param _isBuy 売買区分（買：True）\n    /// @param _agent 決済業者のアドレス\n    /// @param _canceled キャンセル済み状態\n    function setOrder(\n        uint256 _orderId, address _owner, address _token,\n        uint256 _amount, uint256 _price, bool _isBuy,\n        address _agent, bool _canceled\n    )\n        public\n        onlyLatestVersion()\n    {\n        orderBook[_orderId].owner = _owner;\n        orderBook[_orderId].token = _token;\n        orderBook[_orderId].amount = _amount;\n        orderBook[_orderId].price = _price;\n        orderBook[_orderId].isBuy = _isBuy;\n        orderBook[_orderId].agent = _agent;\n        orderBook[_orderId].canceled = _canceled;\n    }\n\n    /// @notice 注文情報の更新（注文実行者）\n    /// @dev 最新バージョンのExchangeコントラクトのみ実行が可能\n    /// @param _orderId 注文ID\n    /// @param _owner 注文実行者\n    function setOrderOwner(uint256 _orderId, address _owner)\n        public\n        onlyLatestVersion()\n    {\n        orderBook[_orderId].owner = _owner;\n    }\n\n    /// @notice 注文情報の更新（トークンアドレス）\n    /// @dev 最新バージョンのExchangeコントラクトのみ実行が可能\n    /// @param _orderId 注文ID\n    /// @param _token トークンアドレス\n    function setOrderToken(uint256 _orderId, address _token)\n        public\n        onlyLatestVersion()\n    {\n        orderBook[_orderId].token = _token;\n    }\n\n    /// @notice 注文情報の更新（注文数量）\n    /// @dev 最新バージョンのExchangeコントラクトのみ実行が可能\n    /// @param _orderId 注文ID\n    /// @param _amount 注文数量\n    function setOrderAmount(uint256 _orderId, uint256 _amount)\n        public\n        onlyLatestVersion()\n    {\n        orderBook[_orderId].amount = _amount;\n    }\n\n    /// @notice 注文情報の更新（注文単価）\n    /// @dev 最新バージョンのExchangeコントラクトのみ実行が可能\n    /// @param _orderId 注文ID\n    /// @param _price 注文単価\n    function setOrderPrice(uint256 _orderId, uint256 _price)\n        public\n        onlyLatestVersion()\n    {\n        orderBook[_orderId].price = _price;\n    }\n\n    /// @notice 注文情報の更新（売買区分）\n    /// @dev 最新バージョンのExchangeコントラクトのみ実行が可能\n    /// @param _orderId 注文ID\n    /// @param _isBuy 売買区分（買：True）\n    function setOrderIsBuy(uint256 _orderId, bool _isBuy)\n        public\n        onlyLatestVersion()\n    {\n        orderBook[_orderId].isBuy = _isBuy;\n    }\n\n    /// @notice 注文情報の更新（決済業者のアドレス）\n    /// @dev 最新バージョンのExchangeコントラクトのみ実行が可能\n    /// @param _orderId 注文ID\n    /// @param _agent 決済業者のアドレス\n    function setOrderAgent(uint256 _orderId, address _agent)\n        public\n        onlyLatestVersion()\n    {\n        orderBook[_orderId].agent = _agent;\n    }\n\n    /// @notice 注文情報の更新（キャンセル済み状態）\n    /// @dev 最新バージョンのExchangeコントラクトのみ実行が可能\n    /// @param _orderId 注文ID\n    /// @param _canceled キャンセル済み状態\n    function setOrderCanceled(uint256 _orderId, bool _canceled)\n        public\n        onlyLatestVersion()\n    {\n        orderBook[_orderId].canceled = _canceled;\n    }\n\n    /// @notice 注文情報の参照\n    /// @param _orderId 注文ID\n    /// @return owner 注文実行者\n    /// @return token トークンアドレス\n    /// @return amount 注文数量\n    /// @return price 注文単価\n    /// @return isBuy 売買区分（買：True）\n    /// @return agent 決済業者のアドレス\n    /// @return canceled キャンセル済み状態\n    function getOrder(uint256 _orderId)\n        public\n        view\n        returns(\n            address owner, address token, uint256 amount, uint256 price,\n            bool isBuy, address agent, bool canceled\n        )\n    {\n        return (\n            orderBook[_orderId].owner,\n            orderBook[_orderId].token,\n            orderBook[_orderId].amount,\n            orderBook[_orderId].price,\n            orderBook[_orderId].isBuy,\n            orderBook[_orderId].agent,\n            orderBook[_orderId].canceled\n        );\n    }\n\n    /// @notice 注文情報の参照（注文実行者）\n    /// @param _orderId 注文ID\n    /// @return 注文実行者\n    function getOrderOwner(uint256 _orderId)\n        public\n        view\n        returns(address)\n    {\n        return orderBook[_orderId].owner;\n    }\n\n    /// @notice 注文情報の参照（トークンアドレス）\n    /// @param _orderId 注文ID\n    /// @return トークンアドレス\n    function getOrderToken(uint256 _orderId)\n        public\n        view\n        returns(address)\n    {\n        return orderBook[_orderId].token;\n    }\n\n    /// @notice 注文情報の参照（注文数量）\n    /// @param _orderId 注文ID\n    /// @return 注文数量\n    function getOrderAmount(uint256 _orderId)\n        public\n        view\n        returns(uint256)\n    {\n        return orderBook[_orderId].amount;\n    }\n\n    /// @notice 注文情報の参照（注文単価）\n    /// @param _orderId 注文ID\n    /// @return 注文単価\n    function getOrderPrice(uint256 _orderId)\n        public\n        view\n        returns(uint256)\n    {\n        return orderBook[_orderId].price;\n    }\n\n    /// @notice 注文情報の参照（売買区分）\n    /// @param _orderId 注文ID\n    /// @return 売買区分（買：True）\n    function getOrderIsBuy(uint256 _orderId)\n        public\n        view\n        returns(bool)\n    {\n        return orderBook[_orderId].isBuy;\n    }\n\n    /// @notice 注文情報の参照（決済業者のアドレス）\n    /// @param _orderId 注文ID\n    /// @return 決済業者のアドレス\n    function getOrderAgent(uint256 _orderId)\n        public\n        view\n        returns(address)\n    {\n        return orderBook[_orderId].agent;\n    }\n\n    /// @notice 注文情報の参照（キャンセル済み状態）\n    /// @param _orderId 注文ID\n    /// @return キャンセル済み状態\n    function getOrderCanceled(uint256 _orderId)\n        public\n        view\n        returns(bool)\n    {\n        return orderBook[_orderId].canceled;\n    }\n\n    /// -------------------------------------------------------------------\n    /// 直近注文ID\n    /// -------------------------------------------------------------------\n\n    /// 直近注文ID\n    uint256 public latestOrderId = 0;\n\n    /// @notice 直近注文IDの更新\n    /// @dev 最新バージョンのExchangeコントラクトのみ実行が可能\n    /// @param _latestOrderId 直近注文ID\n    function setLatestOrderId(uint256 _latestOrderId)\n        public\n        onlyLatestVersion()\n    {\n        latestOrderId = _latestOrderId;\n    }\n\n    /// @notice 直近注文IDの参照\n    /// @return 直近注文ID\n    function getLatestOrderId()\n        public\n        view\n        returns(uint256)\n    {\n        return latestOrderId;\n    }\n\n    /// -------------------------------------------------------------------\n    /// 約定情報\n    /// -------------------------------------------------------------------\n    struct Agreement {\n        address counterpart; // 約定相手\n        uint256 amount; // 約定数量\n        uint256 price; // 約定単価\n        bool canceled; // キャンセル済み状態\n        bool paid; // 支払い済み状態\n        uint256 expiry; // 有効期限（約定から１４日）\n    }\n\n    /// 約定情報\n    /// orderId => agreementId => Agreement\n    mapping(uint256 => mapping(uint256 => Agreement)) public agreements;\n\n    /// @notice 約定情報の更新\n    /// @dev 最新バージョンのExchangeコントラクトのみ実行が可能\n    /// @param _orderId 注文ID\n    /// @param _agreementId 約定ID\n    /// @param _counterpart 約定相手\n    /// @param _amount 約定数量\n    /// @param _price 約定単価\n    /// @param _canceled キャンセル済み状態\n    /// @param _paid 支払済状態\n    /// @param _expiry 有効期限\n    function setAgreement(\n        uint256 _orderId, uint256 _agreementId,\n        address _counterpart, uint256 _amount, uint256 _price,\n        bool _canceled, bool _paid, uint256 _expiry\n    )\n        public\n        onlyLatestVersion()\n    {\n        agreements[_orderId][_agreementId].counterpart = _counterpart;\n        agreements[_orderId][_agreementId].amount = _amount;\n        agreements[_orderId][_agreementId].price = _price;\n        agreements[_orderId][_agreementId].canceled = _canceled;\n        agreements[_orderId][_agreementId].paid = _paid;\n        agreements[_orderId][_agreementId].expiry = _expiry;\n    }\n\n    /// @notice 約定情報の更新（約定相手）\n    /// @dev 最新バージョンのExchangeコントラクトのみ実行が可能\n    /// @param _orderId 注文ID\n    /// @param _agreementId 約定ID\n    /// @param _counterpart 約定相手\n    function setAgreementCounterpart(uint256 _orderId, uint256 _agreementId, address _counterpart)\n        public\n        onlyLatestVersion()\n    {\n        agreements[_orderId][_agreementId].counterpart = _counterpart;\n    }\n\n    /// @notice 約定情報の更新（約定数量）\n    /// @dev 最新バージョンのExchangeコントラクトのみ実行が可能\n    /// @param _orderId 注文ID\n    /// @param _agreementId 約定ID\n    /// @param _amount 約定数量\n    function setAgreementAmount(uint256 _orderId, uint256 _agreementId, uint256 _amount)\n        public\n        onlyLatestVersion()\n    {\n        agreements[_orderId][_agreementId].amount = _amount;\n    }\n\n    /// @notice 約定情報の更新（約定単価）\n    /// @dev 最新バージョンのExchangeコントラクトのみ実行が可能\n    /// @param _orderId 注文ID\n    /// @param _agreementId 約定ID\n    /// @param _price 約定単価\n    function setAgreementPrice(uint256 _orderId, uint256 _agreementId, uint256 _price)\n        public\n        onlyLatestVersion()\n    {\n        agreements[_orderId][_agreementId].price = _price;\n    }\n\n    /// @notice 約定情報の更新（キャンセル済み状態）\n    /// @dev 最新バージョンのExchangeコントラクトのみ実行が可能\n    /// @param _orderId 注文ID\n    /// @param _agreementId 約定ID\n    /// @param _canceled キャンセル済み状態\n    function setAgreementCanceled(uint256 _orderId, uint256 _agreementId, bool _canceled)\n        public\n        onlyLatestVersion()\n    {\n        agreements[_orderId][_agreementId].canceled = _canceled;\n    }\n\n    /// @notice 約定情報の更新（支払済状態）\n    /// @dev 最新バージョンのExchangeコントラクトのみ実行が可能\n    /// @param _orderId 注文ID\n    /// @param _agreementId 約定ID\n    /// @param _paid 支払済状態\n    function setAgreementPaid(uint256 _orderId, uint256 _agreementId, bool _paid)\n        public\n        onlyLatestVersion()\n    {\n        agreements[_orderId][_agreementId].paid = _paid;\n    }\n\n    /// @notice 約定情報の更新（有効期限）\n    /// @dev 最新バージョンのExchangeコントラクトのみ実行が可能\n    /// @param _orderId 注文ID\n    /// @param _agreementId 約定ID\n    /// @param _expiry 有効期限\n    function setAgreementExpiry(uint256 _orderId, uint256 _agreementId, uint256 _expiry)\n        public\n        onlyLatestVersion()\n    {\n        agreements[_orderId][_agreementId].expiry = _expiry;\n    }\n\n    /// @notice 約定情報の参照\n    /// @param _orderId 注文ID\n    /// @param _agreementId 約定ID\n    /// @return counterpart 約定相手\n    /// @return amount 約定数量\n    /// @return price 約定単価\n    /// @return canceled キャンセル済み状態\n    /// @return paid 支払済状態\n    /// @return expiry 有効期限\n    function getAgreement(uint256 _orderId, uint256 _agreementId)\n        public\n        view\n        returns (address _counterpart, uint256 _amount, uint256 _price,\n        bool _canceled, bool _paid, uint256 _expiry)\n    {\n        return (\n            agreements[_orderId][_agreementId].counterpart,\n            agreements[_orderId][_agreementId].amount,\n            agreements[_orderId][_agreementId].price,\n            agreements[_orderId][_agreementId].canceled,\n            agreements[_orderId][_agreementId].paid,\n            agreements[_orderId][_agreementId].expiry\n        );\n    }\n\n    /// @notice 約定情報の参照（約定相手）\n    /// @param _orderId 注文ID\n    /// @param _agreementId 約定ID\n    /// @return 約定相手\n    function getAgreementCounterpart(uint256 _orderId, uint256 _agreementId)\n        public\n        view\n        returns(address)\n    {\n        return agreements[_orderId][_agreementId].counterpart;\n    }\n\n    /// @notice 約定情報の参照（約定数量）\n    /// @param _orderId 注文ID\n    /// @param _agreementId 約定ID\n    /// @return 約定数量\n    function getAgreementAmount(uint256 _orderId, uint256 _agreementId)\n        public\n        view\n        returns(uint256)\n    {\n        return agreements[_orderId][_agreementId].amount;\n    }\n\n    /// @notice 約定情報の参照（役従尾単価）\n    /// @param _orderId 注文ID\n    /// @param _agreementId 約定ID\n    /// @return counterpart 約定相手\n    /// @return 約定単価\n    function getAgreementPrice(uint256 _orderId, uint256 _agreementId)\n        public\n        view\n        returns(uint256)\n    {\n        return agreements[_orderId][_agreementId].price;\n    }\n\n    /// @notice 約定情報の参照（キャンセル済み状態）\n    /// @param _orderId 注文ID\n    /// @param _agreementId 約定ID\n    /// @return キャンセル済み状態\n    function getAgreementCanceled(uint256 _orderId, uint256 _agreementId)\n        public\n        view\n        returns(bool)\n    {\n        return agreements[_orderId][_agreementId].canceled;\n    }\n\n    /// @notice 約定情報の参照（支払済状態）\n    /// @param _orderId 注文ID\n    /// @param _agreementId 約定ID\n    /// @return 支払済状態\n    function getAgreementPaid(uint256 _orderId, uint256 _agreementId)\n        public\n        view\n        returns(bool)\n    {\n        return agreements[_orderId][_agreementId].paid;\n    }\n\n    /// @notice 約定情報の参照（有効期限）\n    /// @param _orderId 注文ID\n    /// @param _agreementId 約定ID\n    /// @return expiry 有効期限\n    function getAgreementExpiry(uint256 _orderId, uint256 _agreementId)\n        public\n        view\n        returns(uint256)\n    {\n        return agreements[_orderId][_agreementId].expiry;\n    }\n\n    /// -------------------------------------------------------------------\n    /// 直近約定ID\n    /// -------------------------------------------------------------------\n\n    /// 直近約定ID\n    /// orderId => latestAgreementId\n    mapping(uint256 => uint256) public latestAgreementIds;\n\n    /// @notice 直近約定IDの更新\n    /// @dev 最新バージョンのExchangeコントラクトのみ実行が可能\n    /// @param _orderId 注文ID\n    /// @param _latestAgreementId 直近約定ID\n    function setLatestAgreementId(uint256 _orderId, uint256 _latestAgreementId)\n        public\n        onlyLatestVersion()\n    {\n        latestAgreementIds[_orderId] = _latestAgreementId;\n    }\n\n    /// @notice 直近約定IDの参照\n    /// @param _orderId 注文ID\n    /// @return 直近約定ID\n    function getLatestAgreementId(uint256 _orderId)\n        public\n        view\n        returns(uint256)\n    {\n        return latestAgreementIds[_orderId];\n    }\n\n    /// -------------------------------------------------------------------\n    /// 現在値\n    /// -------------------------------------------------------------------\n\n    /// 現在値\n    /// token => latest_price\n    mapping(address => uint256) public lastPrice;\n\n    /// @notice 現在値の更新\n    /// @dev 最新バージョンのExchangeコントラクトのみ実行が可能\n    /// @param _token トークンアドレス\n    /// @param _value 現在値\n    function setLastPrice(address _token, uint256 _value)\n        public\n        onlyLatestVersion()\n    {\n        lastPrice[_token] = _value;\n    }\n\n    /// @notice 現在値の参照\n    /// @param _token トークンアドレス\n    /// @return 現在値\n    function getLastPrice(address _token)\n        public\n        view\n        returns(uint256)\n    {\n        return lastPrice[_token];\n    }\n\n}\n",
  "sourcePath": "contracts/ExchangeStorage.sol",
  "type": "contract"
}