{
  "abi": [
    {
      "constant": true,
      "inputs": [
        {
          "name": "_participant",
          "type": "address"
        }
      ],
      "name": "getWhitelist",
      "outputs": [
        {
          "name": "participant",
          "type": "address"
        },
        {
          "name": "locked",
          "type": "bool"
        }
      ],
      "payable": false,
      "stateMutability": "view",
      "type": "function"
    },
    {
      "constant": true,
      "inputs": [],
      "name": "owner",
      "outputs": [
        {
          "name": "",
          "type": "address"
        }
      ],
      "payable": false,
      "stateMutability": "view",
      "type": "function"
    },
    {
      "constant": false,
      "inputs": [
        {
          "name": "_participant",
          "type": "address"
        },
        {
          "name": "_locked",
          "type": "bool"
        }
      ],
      "name": "register",
      "outputs": [],
      "payable": false,
      "stateMutability": "nonpayable",
      "type": "function"
    },
    {
      "constant": true,
      "inputs": [
        {
          "name": "_participant",
          "type": "address"
        }
      ],
      "name": "check",
      "outputs": [
        {
          "name": "",
          "type": "uint8"
        }
      ],
      "payable": false,
      "stateMutability": "view",
      "type": "function"
    },
    {
      "constant": false,
      "inputs": [
        {
          "name": "newOwner",
          "type": "address"
        }
      ],
      "name": "transferOwnership",
      "outputs": [],
      "payable": false,
      "stateMutability": "nonpayable",
      "type": "function"
    },
    {
      "anonymous": false,
      "inputs": [
        {
          "indexed": true,
          "name": "participant",
          "type": "address"
        },
        {
          "indexed": false,
          "name": "locked",
          "type": "bool"
        }
      ],
      "name": "Register",
      "type": "event"
    },
    {
      "anonymous": false,
      "inputs": [
        {
          "indexed": true,
          "name": "previousOwner",
          "type": "address"
        },
        {
          "indexed": true,
          "name": "newOwner",
          "type": "address"
        }
      ],
      "name": "OwnershipTransferred",
      "type": "event"
    }
  ],
  "bytecode": "608060405260008054600160a060020a031916331790556103c0806100256000396000f30060806040526004361061006c5763ffffffff7c010000000000000000000000000000000000000000000000000000000060003504166330edc0f581146100715780638da5cb5b146100b5578063ab01b469146100e6578063c23697a81461010e578063f2fde38b14610145575b600080fd5b34801561007d57600080fd5b50610092600160a060020a0360043516610166565b60408051600160a060020a03909316835290151560208301528051918290030190f35b3480156100c157600080fd5b506100ca6101a3565b60408051600160a060020a039092168252519081900360200190f35b3480156100f257600080fd5b5061010c600160a060020a036004351660243515156101b2565b005b34801561011a57600080fd5b5061012f600160a060020a0360043516610285565b6040805160ff9092168252519081900360200190f35b34801561015157600080fd5b5061010c600160a060020a03600435166102f8565b600160a060020a03908116600090815260016020526040902054908116917401000000000000000000000000000000000000000090910460ff1690565b600054600160a060020a031681565b600054600160a060020a031633146101c957600080fd5b816101d38161038c565b156101dd57600080fd5b600160a060020a038316600081815260016020908152604091829020805473ffffffffffffffffffffffffffffffffffffffff1916841774ff000000000000000000000000000000000000000019167401000000000000000000000000000000000000000087151590810291909117909155825190815291517fe5893cbe0f29b1ed4010af79004fcf5b6bdf713a7ccdc0b9e475e64ce2283df69281900390910190a2505050565b600160a060020a03811660009081526001602052604081205474010000000000000000000000000000000000000000900460ff16156102c6575060016102f3565b600160a060020a038281166000908152600160205260409020541615156102ef575060026102f3565b5060005b919050565b600054600160a060020a0316331461030f57600080fd5b600160a060020a038116151561032457600080fd5b60008054604051600160a060020a03808516939216917f8be0079c531659141344cd1fd0a4f28419497f9722a3daafe3b4186f6b6457e091a36000805473ffffffffffffffffffffffffffffffffffffffff1916600160a060020a0392909216919091179055565b6000903b11905600a165627a7a72305820967d69edcef11ef3355047f14b6760dc8fef5e1668ad5d16188f808eace12e8f0029",
  "bytecodeSha1": "91a5cdd49a71715fc13c9c126fab582467dc7f0a",
  "compiler": {
    "evm_version": "byzantium",
    "optimizer": {
      "enabled": true,
      "runs": 200
    },
    "version": "0.4.25"
  },
  "contractName": "ExchangeRegulatorService",
  "language": "Solidity",
  "natspec": {
    "methods": {
      "check(address)": {
        "notice": "取引可否チェック",
        "params": {
          "_participant": "取引参加者のアドレス（EOA）"
        },
        "return": "チェック結果"
      },
      "getWhitelist(address)": {
        "notice": "取引参加者参照",
        "params": {
          "_participant": "取引参加者のEOAアドレス"
        },
        "return": "participant 取引参加者のEOAアドレスロック状態"
      },
      "register(address,bool)": {
        "details": "コントラクトオーナーのみ実行可能",
        "notice": "取引参加者登録",
        "params": {
          "_locked": "ロック状態",
          "_participant": "取引参加者のEOAアドレス"
        }
      },
      "transferOwnership(address)": {
        "details": "オーナーのみ実行可能",
        "notice": "オーナー変更",
        "params": {
          "newOwner": "新しいオーナー"
        }
      }
    },
    "title": "Exchangeの取引参加者制限サービス"
  },
  "opcodes": "PUSH1 0x80 PUSH1 0x40 MSTORE PUSH1 0x4 CALLDATASIZE LT PUSH2 0x6C JUMPI PUSH4 0xFFFFFFFF PUSH29 0x100000000000000000000000000000000000000000000000000000000 PUSH1 0x0 CALLDATALOAD DIV AND PUSH4 0x30EDC0F5 DUP2 EQ PUSH2 0x71 JUMPI DUP1 PUSH4 0x8DA5CB5B EQ PUSH2 0xB5 JUMPI DUP1 PUSH4 0xAB01B469 EQ PUSH2 0xE6 JUMPI DUP1 PUSH4 0xC23697A8 EQ PUSH2 0x10E JUMPI DUP1 PUSH4 0xF2FDE38B EQ PUSH2 0x145 JUMPI JUMPDEST PUSH1 0x0 DUP1 REVERT JUMPDEST CALLVALUE DUP1 ISZERO PUSH2 0x7D JUMPI PUSH1 0x0 DUP1 REVERT JUMPDEST POP PUSH2 0x92 PUSH1 0x1 PUSH1 0xA0 PUSH1 0x2 EXP SUB PUSH1 0x4 CALLDATALOAD AND PUSH2 0x166 JUMP JUMPDEST PUSH1 0x40 DUP1 MLOAD PUSH1 0x1 PUSH1 0xA0 PUSH1 0x2 EXP SUB SWAP1 SWAP4 AND DUP4 MSTORE SWAP1 ISZERO ISZERO PUSH1 0x20 DUP4 ADD MSTORE DUP1 MLOAD SWAP2 DUP3 SWAP1 SUB ADD SWAP1 RETURN JUMPDEST CALLVALUE DUP1 ISZERO PUSH2 0xC1 JUMPI PUSH1 0x0 DUP1 REVERT JUMPDEST POP PUSH2 0xCA PUSH2 0x1A3 JUMP JUMPDEST PUSH1 0x40 DUP1 MLOAD PUSH1 0x1 PUSH1 0xA0 PUSH1 0x2 EXP SUB SWAP1 SWAP3 AND DUP3 MSTORE MLOAD SWAP1 DUP2 SWAP1 SUB PUSH1 0x20 ADD SWAP1 RETURN JUMPDEST CALLVALUE DUP1 ISZERO PUSH2 0xF2 JUMPI PUSH1 0x0 DUP1 REVERT JUMPDEST POP PUSH2 0x10C PUSH1 0x1 PUSH1 0xA0 PUSH1 0x2 EXP SUB PUSH1 0x4 CALLDATALOAD AND PUSH1 0x24 CALLDATALOAD ISZERO ISZERO PUSH2 0x1B2 JUMP JUMPDEST STOP JUMPDEST CALLVALUE DUP1 ISZERO PUSH2 0x11A JUMPI PUSH1 0x0 DUP1 REVERT JUMPDEST POP PUSH2 0x12F PUSH1 0x1 PUSH1 0xA0 PUSH1 0x2 EXP SUB PUSH1 0x4 CALLDATALOAD AND PUSH2 0x285 JUMP JUMPDEST PUSH1 0x40 DUP1 MLOAD PUSH1 0xFF SWAP1 SWAP3 AND DUP3 MSTORE MLOAD SWAP1 DUP2 SWAP1 SUB PUSH1 0x20 ADD SWAP1 RETURN JUMPDEST CALLVALUE DUP1 ISZERO PUSH2 0x151 JUMPI PUSH1 0x0 DUP1 REVERT JUMPDEST POP PUSH2 0x10C PUSH1 0x1 PUSH1 0xA0 PUSH1 0x2 EXP SUB PUSH1 0x4 CALLDATALOAD AND PUSH2 0x2F8 JUMP JUMPDEST PUSH1 0x1 PUSH1 0xA0 PUSH1 0x2 EXP SUB SWAP1 DUP2 AND PUSH1 0x0 SWAP1 DUP2 MSTORE PUSH1 0x1 PUSH1 0x20 MSTORE PUSH1 0x40 SWAP1 KECCAK256 SLOAD SWAP1 DUP2 AND SWAP2 PUSH21 0x10000000000000000000000000000000000000000 SWAP1 SWAP2 DIV PUSH1 0xFF AND SWAP1 JUMP JUMPDEST PUSH1 0x0 SLOAD PUSH1 0x1 PUSH1 0xA0 PUSH1 0x2 EXP SUB AND DUP2 JUMP JUMPDEST PUSH1 0x0 SLOAD PUSH1 0x1 PUSH1 0xA0 PUSH1 0x2 EXP SUB AND CALLER EQ PUSH2 0x1C9 JUMPI PUSH1 0x0 DUP1 REVERT JUMPDEST DUP2 PUSH2 0x1D3 DUP2 PUSH2 0x38C JUMP JUMPDEST ISZERO PUSH2 0x1DD JUMPI PUSH1 0x0 DUP1 REVERT JUMPDEST PUSH1 0x1 PUSH1 0xA0 PUSH1 0x2 EXP SUB DUP4 AND PUSH1 0x0 DUP2 DUP2 MSTORE PUSH1 0x1 PUSH1 0x20 SWAP1 DUP2 MSTORE PUSH1 0x40 SWAP2 DUP3 SWAP1 KECCAK256 DUP1 SLOAD PUSH20 0xFFFFFFFFFFFFFFFFFFFFFFFFFFFFFFFFFFFFFFFF NOT AND DUP5 OR PUSH21 0xFF0000000000000000000000000000000000000000 NOT AND PUSH21 0x10000000000000000000000000000000000000000 DUP8 ISZERO ISZERO SWAP1 DUP2 MUL SWAP2 SWAP1 SWAP2 OR SWAP1 SWAP2 SSTORE DUP3 MLOAD SWAP1 DUP2 MSTORE SWAP2 MLOAD PUSH32 0xE5893CBE0F29B1ED4010AF79004FCF5B6BDF713A7CCDC0B9E475E64CE2283DF6 SWAP3 DUP2 SWAP1 SUB SWAP1 SWAP2 ADD SWAP1 LOG2 POP POP POP JUMP JUMPDEST PUSH1 0x1 PUSH1 0xA0 PUSH1 0x2 EXP SUB DUP2 AND PUSH1 0x0 SWAP1 DUP2 MSTORE PUSH1 0x1 PUSH1 0x20 MSTORE PUSH1 0x40 DUP2 KECCAK256 SLOAD PUSH21 0x10000000000000000000000000000000000000000 SWAP1 DIV PUSH1 0xFF AND ISZERO PUSH2 0x2C6 JUMPI POP PUSH1 0x1 PUSH2 0x2F3 JUMP JUMPDEST PUSH1 0x1 PUSH1 0xA0 PUSH1 0x2 EXP SUB DUP3 DUP2 AND PUSH1 0x0 SWAP1 DUP2 MSTORE PUSH1 0x1 PUSH1 0x20 MSTORE PUSH1 0x40 SWAP1 KECCAK256 SLOAD AND ISZERO ISZERO PUSH2 0x2EF JUMPI POP PUSH1 0x2 PUSH2 0x2F3 JUMP JUMPDEST POP PUSH1 0x0 JUMPDEST SWAP2 SWAP1 POP JUMP JUMPDEST PUSH1 0x0 SLOAD PUSH1 0x1 PUSH1 0xA0 PUSH1 0x2 EXP SUB AND CALLER EQ PUSH2 0x30F JUMPI PUSH1 0x0 DUP1 REVERT JUMPDEST PUSH1 0x1 PUSH1 0xA0 PUSH1 0x2 EXP SUB DUP2 AND ISZERO ISZERO PUSH2 0x324 JUMPI PUSH1 0x0 DUP1 REVERT JUMPDEST PUSH1 0x0 DUP1 SLOAD PUSH1 0x40 MLOAD PUSH1 0x1 PUSH1 0xA0 PUSH1 0x2 EXP SUB DUP1 DUP6 AND SWAP4 SWAP3 AND SWAP2 PUSH32 0x8BE0079C531659141344CD1FD0A4F28419497F9722A3DAAFE3B4186F6B6457E0 SWAP2 LOG3 PUSH1 0x0 DUP1 SLOAD PUSH20 0xFFFFFFFFFFFFFFFFFFFFFFFFFFFFFFFFFFFFFFFF NOT AND PUSH1 0x1 PUSH1 0xA0 PUSH1 0x2 EXP SUB SWAP3 SWAP1 SWAP3 AND SWAP2 SWAP1 SWAP2 OR SWAP1 SSTORE JUMP JUMPDEST PUSH1 0x0 SWAP1 EXTCODESIZE GT SWAP1 JUMP STOP LOG1 PUSH6 0x627A7A723058 KECCAK256 SWAP7 PUSH30 0x69EDCEF11EF3355047F14B6760DC8FEF5E1668AD5D16188F808EACE12E8F STOP 0x29 ",
  "sha1": "951b36e5a2f3a9eead0b2142995c2afd84f7ccdb",
  "source": "pragma solidity ^0.4.24;\n\nimport \"./Ownable.sol\";\nimport \"./RegulatorService.sol\";\n\n\n/// @title Exchangeの取引参加者制限サービス\n/// @dev Exchangeの取引参加者制限\ncontract ExchangeRegulatorService is RegulatorService, Ownable {\n\n    /// 取引参加者の登録情報\n    struct Participant {\n        address participant; // 取引参加者EOAアドレス\n        bool locked; // ロック状態\n    }\n\n    /// Check success code\n    uint8 constant private CHECK_SUCCESS = 0;\n\n    /// Check error reason : アカウントロック\n    uint8 constant private CHECK_LOCKED = 1;\n\n    /// Check error reason : アカウント未登録\n    uint8 constant private CHECK_NOT_REGISTERD = 2;\n\n    /// 購入可能者情報\n    /// whitelist[participantAddress]\n    mapping(address => Participant) whitelist;\n\n    /// 参加者登録時イベント\n    event Register(address indexed participant, bool locked);\n\n    /// @dev コントラクトアドレス判定\n    /// @param _address アドレス\n    /// @return 判定結果\n    function isContract(address _address)\n        private\n        view\n        returns (bool)\n    {\n        uint length;\n        assembly {\n            length := extcodesize(_address)\n        }\n        return (length>0);\n    }\n\n    /// @dev EOAアドレスチェック\n    /// @param _address チェック対象のアドレス\n    modifier onlyEOA(address _address) {\n        if (isContract(_address)) revert();\n        _;\n    }\n\n    /// @notice 取引参加者登録\n    /// @dev コントラクトオーナーのみ実行可能\n    /// @param _participant 取引参加者のEOAアドレス\n    /// @param _locked ロック状態\n    function register(address _participant, bool _locked)\n        public\n        onlyOwner()\n        onlyEOA(_participant)\n    {\n        whitelist[_participant].participant = _participant;\n        whitelist[_participant].locked = _locked;\n        emit Register(_participant, _locked);\n    }\n\n    /// @notice 取引参加者参照\n    /// @param _participant 取引参加者のEOAアドレス\n    /// @return participant 取引参加者のEOAアドレス\n    /// @return ロック状態\n    function getWhitelist(address _participant)\n        public\n        view\n        returns (address participant, bool locked)\n    {\n        participant = whitelist[_participant].participant;\n        locked = whitelist[_participant].locked;\n    }\n\n    /// @notice 取引可否チェック\n    /// @param _participant 取引参加者のアドレス（EOA）\n    /// @return チェック結果\n    function check(address _participant)\n        public\n        view\n        returns (uint8)\n    {\n        if (whitelist[_participant].locked) {\n            return CHECK_LOCKED;\n        }\n\n        if (whitelist[_participant].participant == address(0)) {\n            return CHECK_NOT_REGISTERD;\n        }\n\n        return CHECK_SUCCESS;\n    }\n\n}\n",
  "sourcePath": "contracts/ExchangeRegulatorService.sol",
  "type": "contract"
}