{
  "abi": [
    {
      "constant": false,
      "inputs": [
        {
          "name": "_orderId",
          "type": "uint256"
        },
        {
          "name": "_agreementId",
          "type": "uint256"
        }
      ],
      "name": "cancelAgreement",
      "outputs": [
        {
          "name": "",
          "type": "bool"
        }
      ],
      "payable": false,
      "stateMutability": "nonpayable",
      "type": "function"
    },
    {
      "constant": false,
      "inputs": [
        {
          "name": "_token",
          "type": "address"
        },
        {
          "name": "_amount",
          "type": "uint256"
        },
        {
          "name": "_price",
          "type": "uint256"
        },
        {
          "name": "_isBuy",
          "type": "bool"
        },
        {
          "name": "_agent",
          "type": "address"
        }
      ],
      "name": "createOrder",
      "outputs": [
        {
          "name": "",
          "type": "bool"
        }
      ],
      "payable": false,
      "stateMutability": "nonpayable",
      "type": "function"
    },
    {
      "constant": false,
      "inputs": [
        {
          "name": "_orderId",
          "type": "uint256"
        }
      ],
      "name": "cancelOrder",
      "outputs": [
        {
          "name": "",
          "type": "bool"
        }
      ],
      "payable": false,
      "stateMutability": "nonpayable",
      "type": "function"
    },
    {
      "constant": true,
      "inputs": [],
      "name": "paymentGatewayAddress",
      "outputs": [
        {
          "name": "",
          "type": "address"
        }
      ],
      "payable": false,
      "stateMutability": "view",
      "type": "function"
    },
    {
      "constant": true,
      "inputs": [],
      "name": "latestOrderId",
      "outputs": [
        {
          "name": "",
          "type": "uint256"
        }
      ],
      "payable": false,
      "stateMutability": "view",
      "type": "function"
    },
    {
      "constant": false,
      "inputs": [
        {
          "name": "_orderId",
          "type": "uint256"
        },
        {
          "name": "_amount",
          "type": "uint256"
        },
        {
          "name": "_isBuy",
          "type": "bool"
        }
      ],
      "name": "executeOrder",
      "outputs": [
        {
          "name": "",
          "type": "bool"
        }
      ],
      "payable": false,
      "stateMutability": "nonpayable",
      "type": "function"
    },
    {
      "constant": true,
      "inputs": [],
      "name": "storageAddress",
      "outputs": [
        {
          "name": "",
          "type": "address"
        }
      ],
      "payable": false,
      "stateMutability": "view",
      "type": "function"
    },
    {
      "constant": true,
      "inputs": [],
      "name": "owner",
      "outputs": [
        {
          "name": "",
          "type": "address"
        }
      ],
      "payable": false,
      "stateMutability": "view",
      "type": "function"
    },
    {
      "constant": true,
      "inputs": [
        {
          "name": "_account",
          "type": "address"
        },
        {
          "name": "_token",
          "type": "address"
        }
      ],
      "name": "commitmentOf",
      "outputs": [
        {
          "name": "",
          "type": "uint256"
        }
      ],
      "payable": false,
      "stateMutability": "view",
      "type": "function"
    },
    {
      "constant": true,
      "inputs": [
        {
          "name": "_orderId",
          "type": "uint256"
        },
        {
          "name": "_agreementId",
          "type": "uint256"
        }
      ],
      "name": "getAgreement",
      "outputs": [
        {
          "name": "_counterpart",
          "type": "address"
        },
        {
          "name": "_amount",
          "type": "uint256"
        },
        {
          "name": "_price",
          "type": "uint256"
        },
        {
          "name": "_canceled",
          "type": "bool"
        },
        {
          "name": "_paid",
          "type": "bool"
        },
        {
          "name": "_expiry",
          "type": "uint256"
        }
      ],
      "payable": false,
      "stateMutability": "view",
      "type": "function"
    },
    {
      "constant": false,
      "inputs": [
        {
          "name": "_from",
          "type": "address"
        },
        {
          "name": "_value",
          "type": "uint256"
        },
        {
          "name": "",
          "type": "bytes"
        }
      ],
      "name": "tokenFallback",
      "outputs": [],
      "payable": false,
      "stateMutability": "nonpayable",
      "type": "function"
    },
    {
      "constant": true,
      "inputs": [
        {
          "name": "_orderId",
          "type": "uint256"
        }
      ],
      "name": "getOrder",
      "outputs": [
        {
          "name": "owner",
          "type": "address"
        },
        {
          "name": "token",
          "type": "address"
        },
        {
          "name": "amount",
          "type": "uint256"
        },
        {
          "name": "price",
          "type": "uint256"
        },
        {
          "name": "isBuy",
          "type": "bool"
        },
        {
          "name": "agent",
          "type": "address"
        },
        {
          "name": "canceled",
          "type": "bool"
        }
      ],
      "payable": false,
      "stateMutability": "view",
      "type": "function"
    },
    {
      "constant": false,
      "inputs": [
        {
          "name": "_orderId",
          "type": "uint256"
        },
        {
          "name": "_agreementId",
          "type": "uint256"
        }
      ],
      "name": "confirmAgreement",
      "outputs": [
        {
          "name": "",
          "type": "bool"
        }
      ],
      "payable": false,
      "stateMutability": "nonpayable",
      "type": "function"
    },
    {
      "constant": true,
      "inputs": [
        {
          "name": "_orderId",
          "type": "uint256"
        }
      ],
      "name": "latestAgreementId",
      "outputs": [
        {
          "name": "",
          "type": "uint256"
        }
      ],
      "payable": false,
      "stateMutability": "view",
      "type": "function"
    },
    {
      "constant": false,
      "inputs": [
        {
          "name": "newOwner",
          "type": "address"
        }
      ],
      "name": "transferOwnership",
      "outputs": [],
      "payable": false,
      "stateMutability": "nonpayable",
      "type": "function"
    },
    {
      "constant": true,
      "inputs": [
        {
          "name": "_token",
          "type": "address"
        }
      ],
      "name": "lastPrice",
      "outputs": [
        {
          "name": "",
          "type": "uint256"
        }
      ],
      "payable": false,
      "stateMutability": "view",
      "type": "function"
    },
    {
      "constant": true,
      "inputs": [
        {
          "name": "_account",
          "type": "address"
        },
        {
          "name": "_token",
          "type": "address"
        }
      ],
      "name": "balanceOf",
      "outputs": [
        {
          "name": "",
          "type": "uint256"
        }
      ],
      "payable": false,
      "stateMutability": "view",
      "type": "function"
    },
    {
      "constant": false,
      "inputs": [
        {
          "name": "_token",
          "type": "address"
        }
      ],
      "name": "withdrawAll",
      "outputs": [
        {
          "name": "",
          "type": "bool"
        }
      ],
      "payable": false,
      "stateMutability": "nonpayable",
      "type": "function"
    },
    {
      "inputs": [
        {
          "name": "_paymentGatewayAddress",
          "type": "address"
        },
        {
          "name": "_storageAddress",
          "type": "address"
        }
      ],
      "payable": false,
      "stateMutability": "nonpayable",
      "type": "constructor"
    },
    {
      "anonymous": false,
      "inputs": [
        {
          "indexed": true,
          "name": "tokenAddress",
          "type": "address"
        },
        {
          "indexed": false,
          "name": "orderId",
          "type": "uint256"
        },
        {
          "indexed": true,
          "name": "accountAddress",
          "type": "address"
        },
        {
          "indexed": true,
          "name": "isBuy",
          "type": "bool"
        },
        {
          "indexed": false,
          "name": "price",
          "type": "uint256"
        },
        {
          "indexed": false,
          "name": "amount",
          "type": "uint256"
        },
        {
          "indexed": false,
          "name": "agentAddress",
          "type": "address"
        }
      ],
      "name": "NewOrder",
      "type": "event"
    },
    {
      "anonymous": false,
      "inputs": [
        {
          "indexed": true,
          "name": "tokenAddress",
          "type": "address"
        },
        {
          "indexed": false,
          "name": "orderId",
          "type": "uint256"
        },
        {
          "indexed": true,
          "name": "accountAddress",
          "type": "address"
        },
        {
          "indexed": true,
          "name": "isBuy",
          "type": "bool"
        },
        {
          "indexed": false,
          "name": "price",
          "type": "uint256"
        },
        {
          "indexed": false,
          "name": "amount",
          "type": "uint256"
        },
        {
          "indexed": false,
          "name": "agentAddress",
          "type": "address"
        }
      ],
      "name": "CancelOrder",
      "type": "event"
    },
    {
      "anonymous": false,
      "inputs": [
        {
          "indexed": true,
          "name": "tokenAddress",
          "type": "address"
        },
        {
          "indexed": false,
          "name": "orderId",
          "type": "uint256"
        },
        {
          "indexed": false,
          "name": "agreementId",
          "type": "uint256"
        },
        {
          "indexed": true,
          "name": "buyAddress",
          "type": "address"
        },
        {
          "indexed": true,
          "name": "sellAddress",
          "type": "address"
        },
        {
          "indexed": false,
          "name": "price",
          "type": "uint256"
        },
        {
          "indexed": false,
          "name": "amount",
          "type": "uint256"
        },
        {
          "indexed": false,
          "name": "agentAddress",
          "type": "address"
        }
      ],
      "name": "Agree",
      "type": "event"
    },
    {
      "anonymous": false,
      "inputs": [
        {
          "indexed": true,
          "name": "tokenAddress",
          "type": "address"
        },
        {
          "indexed": false,
          "name": "orderId",
          "type": "uint256"
        },
        {
          "indexed": false,
          "name": "agreementId",
          "type": "uint256"
        },
        {
          "indexed": true,
          "name": "buyAddress",
          "type": "address"
        },
        {
          "indexed": true,
          "name": "sellAddress",
          "type": "address"
        },
        {
          "indexed": false,
          "name": "price",
          "type": "uint256"
        },
        {
          "indexed": false,
          "name": "amount",
          "type": "uint256"
        },
        {
          "indexed": false,
          "name": "agentAddress",
          "type": "address"
        }
      ],
      "name": "SettlementOK",
      "type": "event"
    },
    {
      "anonymous": false,
      "inputs": [
        {
          "indexed": true,
          "name": "tokenAddress",
          "type": "address"
        },
        {
          "indexed": false,
          "name": "orderId",
          "type": "uint256"
        },
        {
          "indexed": false,
          "name": "agreementId",
          "type": "uint256"
        },
        {
          "indexed": true,
          "name": "buyAddress",
          "type": "address"
        },
        {
          "indexed": true,
          "name": "sellAddress",
          "type": "address"
        },
        {
          "indexed": false,
          "name": "price",
          "type": "uint256"
        },
        {
          "indexed": false,
          "name": "amount",
          "type": "uint256"
        },
        {
          "indexed": false,
          "name": "agentAddress",
          "type": "address"
        }
      ],
      "name": "SettlementNG",
      "type": "event"
    },
    {
      "anonymous": false,
      "inputs": [
        {
          "indexed": true,
          "name": "tokenAddress",
          "type": "address"
        },
        {
          "indexed": true,
          "name": "accountAddress",
          "type": "address"
        }
      ],
      "name": "Withdrawal",
      "type": "event"
    },
    {
      "anonymous": false,
      "inputs": [
        {
          "indexed": true,
          "name": "previousOwner",
          "type": "address"
        },
        {
          "indexed": true,
          "name": "newOwner",
          "type": "address"
        }
      ],
      "name": "OwnershipTransferred",
      "type": "event"
    }
  ],
  "bytecode": "60806040526212750060015534801561001757600080fd5b5060405160408061218783398101604052805160209091015160008054600160a060020a0319908116331790915560028054600160a060020a039485169083161790556003805493909216921691909117905561210e806100796000396000f3006080604052600436106100e25763ffffffff60e060020a600035041663307f636b81146100e757806338a6e85514610116578063514fcac71461014b5780635edada77146101635780636f3b60d6146101945780637e6d36e2146101bb57806385aa92a7146101db5780638da5cb5b146101f0578063a2ee704314610205578063bf18e24e1461022c578063c0ee0b8a14610286578063d09ef241146102f1578063d1a397e514610355578063dc01f10b14610370578063f2fde38b14610388578063f5a6ba2e146103a9578063f7888aec146103ca578063fa09e630146103f1575b600080fd5b3480156100f357600080fd5b50610102600435602435610412565b604080519115158252519081900360200190f35b34801561012257600080fd5b50610102600160a060020a03600435811690602435906044359060643515159060843516610826565b34801561015757600080fd5b50610102600435610afe565b34801561016f57600080fd5b50610178610d04565b60408051600160a060020a039092168252519081900360200190f35b3480156101a057600080fd5b506101a9610d13565b60408051918252519081900360200190f35b3480156101c757600080fd5b506101026004356024356044351515610da3565b3480156101e757600080fd5b5061017861128c565b3480156101fc57600080fd5b5061017861129b565b34801561021157600080fd5b506101a9600160a060020a03600435811690602435166112aa565b34801561023857600080fd5b50610247600435602435611350565b60408051600160a060020a03909716875260208701959095528585019390935290151560608501521515608084015260a0830152519081900360c00190f35b34801561029257600080fd5b50604080516020600460443581810135601f81018490048402850184019095528484526102ef948235600160a060020a031694602480359536959460649492019190819084018382808284375094975061141b9650505050505050565b005b3480156102fd57600080fd5b50610309600435611434565b60408051600160a060020a0398891681529688166020880152868101959095526060860193909352901515608085015290931660a083015291151560c082015290519081900360e00190f35b34801561036157600080fd5b506101026004356024356114ff565b34801561037c57600080fd5b506101a960043561189d565b34801561039457600080fd5b506102ef600160a060020a0360043516611935565b3480156103b557600080fd5b506101a9600160a060020a03600435166119c9565b3480156103d657600080fd5b506101a9600160a060020a0360043581169060243516611a34565b3480156103fd57600080fd5b50610102600160a060020a0360043516611aa7565b600061041c612051565b61042461208d565b61042c610d13565b85111561043857600080fd5b6104418561189d565b84111561044d57600080fd5b61045685611434565b151560c0890152600160a060020a0390811660a0890152901515608088015260608701919091526040860191909152908116602085015216825261049a8585611350565b60a087018190529015156080870152901515606086015260408501919091526020840191909152600160a060020a0390911682524210610540578060800151806104e5575080606001515b8061053157508160a00151600160a060020a031633600160a060020a03161415801561051b57508151600160a060020a03163314155b801561053157508051600160a060020a03163314155b1561053b57600080fd5b61057c565b806080015180610551575080606001515b8061057257508160a00151600160a060020a031633600160a060020a031614155b1561057c57600080fd5b6105a18585836000015184602001518560400151600187608001518860a00151611b91565b508160800151156106ee578051602080840151908301516105dd9291906105d8906105cc84846112aa565b9063ffffffff611c5616565b611c68565b50602080830151825183830151604080516000805160206120c38339815191528152600160a060020a039384166004820152602481019290925251919092169263a9059cbb92604480820193918290030181600087803b15801561064057600080fd5b505af1158015610654573d6000803e3d6000fd5b505050506040513d602081101561066a57600080fd5b5050805182516020808501516060808701518387015160a0808a0151604080518f81529788018e90528781019490945293860191909152600160a060020a0392831660808601529051958216959482169491909216927fc7065461c527949bffa69924a2264fb3a12540677585393b0f3c3d96dde0675192908290030190a461081b565b81516020808401519083015161070e9291906105d8906105cc84846112aa565b50602080830151835183830151604080516000805160206120c38339815191528152600160a060020a039384166004820152602481019290925251919092169263a9059cbb92604480820193918290030181600087803b15801561077157600080fd5b505af1158015610785573d6000803e3d6000fd5b505050506040513d602081101561079b57600080fd5b5050815181516020808501516060808701518387015160a0808a0151604080518f81529788018e90528781019490945293860191909152600160a060020a0392831660808601529051958216959482169491909216927fc7065461c527949bffa69924a2264fb3a12540677585393b0f3c3d96dde0675192908290030190a45b506001949350505050565b600080600184151514156108d8578515806108a8575086600160a060020a031663200d2ed26040518163ffffffff1660e060020a028152600401602060405180830381600087803b15801561087a57600080fd5b505af115801561088e573d6000803e3d6000fd5b505050506040513d60208110156108a457600080fd5b5051155b806108bd57506108b733611d03565b15156001145b806108ce57506108cc83611d0b565b155b156108d857600080fd5b831515610a2b578515806108f45750856108f23389611a34565b105b80610966575086600160a060020a031663200d2ed26040518163ffffffff1660e060020a028152600401602060405180830381600087803b15801561093857600080fd5b505af115801561094c573d6000803e3d6000fd5b505050506040513d602081101561096257600080fd5b5051155b80610977575061097583611d0b565b155b15610a2b5786600160a060020a031663a9059cbb33610996338b611a34565b6040518363ffffffff1660e060020a0281526004018083600160a060020a0316600160a060020a0316815260200182815260200192505050602060405180830381600087803b1580156109e857600080fd5b505af11580156109fc573d6000803e3d6000fd5b505050506040513d6020811015610a1257600080fd5b50610a21905033886000611d76565b5060009150610af4565b610a33610d13565b6001019050610a4181611e24565b50610a53813389898989896000611e9d565b50831515610a9557610a733388610a6e896105cc338d611a34565b611d76565b50610a9333886105d889610a87338d6112aa565b9063ffffffff611f3d16565b505b6040805182815260208101879052808201889052600160a060020a0385811660608301529151861515923392908b16917f62266baceb3938a36f642a6b6857911fda416ba3f0b192a5a5a8e27d51ad15f99181900360800190a4600191505b5095945050505050565b6000610b08612051565b610b10610d13565b831115610b1c57600080fd5b610b2583611434565b151560c0880152600160a060020a0390811660a088015290151560808701526060860191909152604085018290529182166020850152911682521580610b71575060c081015115156001145b80610b8657508051600160a060020a03163314155b15610b9057600080fd5b80608001511515610c4557610bba3382602001516105d884604001516105cc3387602001516112aa565b5060208082015160408084015181516000805160206120c3833981519152815233600482015260248101919091529051600160a060020a039092169263a9059cbb926044808401938290030181600087803b158015610c1857600080fd5b505af1158015610c2c573d6000803e3d6000fd5b505050506040513d6020811015610c4257600080fd5b50505b610c6e83826000015183602001518460400151856060015186608001518760a001516001611e9d565b508060800151151533600160a060020a03168260200151600160a060020a03167facd757911d369d6b15d47ada91171b7b67295b3f90b8499f6d52348f009c944586856060015186604001518760a001516040518085815260200184815260200183815260200182600160a060020a0316600160a060020a0316815260200194505050505060405180910390a450600192915050565b600254600160a060020a031681565b600354604080517f3d7fe9730000000000000000000000000000000000000000000000000000000081529051600092600160a060020a031691633d7fe97391600480830192602092919082900301818787803b158015610d7257600080fd5b505af1158015610d86573d6000803e3d6000fd5b505050506040513d6020811015610d9c57600080fd5b5051905090565b6000610dad612051565b600080610db8610d13565b871115610dc457600080fd5b610dcd87611434565b151560c08a0152600160a060020a0390811660a08a01529015156080890152606088019190915260408701919091529081166020860152168084521515610e1357600080fd5b60018515151415610efa57851580610e32575084151583608001511515145b80610e4657508251600160a060020a031633145b80610e5b5750610e5533611d03565b15156001145b80610e6c575060c083015115156001145b80610ee257508260200151600160a060020a031663200d2ed26040518163ffffffff1660e060020a028152600401602060405180830381600087803b158015610eb457600080fd5b505af1158015610ec8573d6000803e3d6000fd5b505050506040513d6020811015610ede57600080fd5b5051155b80610ef05750858360400151105b15610efa57600080fd5b84151561109657851580610f15575084151583608001511515145b80610f2957508251600160a060020a031633145b80610f3a575060c083015115156001145b80610fb057508260200151600160a060020a031663200d2ed26040518163ffffffff1660e060020a028152600401602060405180830381600087803b158015610f8257600080fd5b505af1158015610f96573d6000803e3d6000fd5b505050506040513d6020811015610fac57600080fd5b5051155b80610fc7575085610fc5338560200151611a34565b105b80610fd55750858360400151105b15611096578260200151600160a060020a031663a9059cbb33610ffc338760200151611a34565b6040518363ffffffff1660e060020a0281526004018083600160a060020a0316600160a060020a0316815260200182815260200192505050602060405180830381600087803b15801561104e57600080fd5b505af1158015611062573d6000803e3d6000fd5b505050506040513d602081101561107857600080fd5b5050602083015161108c9033906000611d76565b5060009350611282565b61109f8761189d565b60010191506110ae8783611f53565b50600154420190506110cb87833389876060015160008088611b91565b5061110a87846000015185602001516110f18a8860400151611c5690919063ffffffff16565b876060015188608001518960a001518a60c00151611e9d565b508260800151156111e557602083015161112e903390610a6e896105cc8484611a34565b5060208301516111489033906105d889610a8784846112aa565b5033600160a060020a03168360000151600160a060020a03168460200151600160a060020a03167f8572520837758ee6d544b77e467aa6bb30ea06c0e78c287b0d2a7d106f25d1668a8688606001518c8a60a001516040518086815260200185815260200184815260200183815260200182600160a060020a0316600160a060020a031681526020019550505050505060405180910390a461127d565b8260000151600160a060020a031633600160a060020a03168460200151600160a060020a03167f8572520837758ee6d544b77e467aa6bb30ea06c0e78c287b0d2a7d106f25d1668a8688606001518c8a60a001516040518086815260200185815260200184815260200183815260200182600160a060020a0316600160a060020a031681526020019550505050505060405180910390a45b600193505b5050509392505050565b600354600160a060020a031681565b600054600160a060020a031681565b600354604080517f097d9012000000000000000000000000000000000000000000000000000000008152600160a060020a03858116600483015284811660248301529151600093929092169163097d90129160448082019260209290919082900301818787803b15801561131d57600080fd5b505af1158015611331573d6000803e3d6000fd5b505050506040513d602081101561134757600080fd5b50519392505050565b600080600080600080600360009054906101000a9004600160a060020a0316600160a060020a031663bf18e24e89896040518363ffffffff1660e060020a028152600401808381526020018281526020019250505060c060405180830381600087803b1580156113bf57600080fd5b505af11580156113d3573d6000803e3d6000fd5b505050506040513d60c08110156113e957600080fd5b508051602082015160408301516060840151608085015160a090950151939d929c50909a509850919650945092505050565b61142e8333610a6e85610a878833611a34565b50505050565b6000806000806000806000600360009054906101000a9004600160a060020a0316600160a060020a031663d09ef241896040518263ffffffff1660e060020a0281526004018082815260200191505060e060405180830381600087803b15801561149d57600080fd5b505af11580156114b1573d6000803e3d6000fd5b505050506040513d60e08110156114c757600080fd5b508051602082015160408301516060840151608085015160a086015160c090960151949e939d50919b50995097509195509350915050565b6000611509612051565b61151161208d565b611519610d13565b85111561152557600080fd5b61152e8561189d565b84111561153a57600080fd5b61154385611434565b151560c0890152600160a060020a0390811660a089015290151560808801526060870191909152604086019190915290811660208501521682526115878585611350565b60a0870152151560808601819052901515606086015260408501919091526020840191909152600160a060020a039091168252806115c6575080606001515b806115e757508160a00151600160a060020a031633600160a060020a031614155b156115f157600080fd5b6116168585836000015184602001518560400151866060015160018860a00151611b91565b50816080015115611752578051602080840151908301516116419291906105d8906105cc84846112aa565b50602080830151835183830151604080516000805160206120c38339815191528152600160a060020a039384166004820152602481019290925251919092169263a9059cbb92604480820193918290030181600087803b1580156116a457600080fd5b505af11580156116b8573d6000803e3d6000fd5b505050506040513d60208110156116ce57600080fd5b5050805182516020808501516060808701518387015160a0808a0151604080518f81529788018e90528781019490945293860191909152600160a060020a0392831660808601529051958216959482169491909216927f1f33fcbce82033cd7b26ae868ba28784c1e405a5a631cb7063527b4aceb0b5cc92908290030190a461187f565b8151602080840151908301516117729291906105d8906105cc84846112aa565b50602080830151825183830151604080516000805160206120c38339815191528152600160a060020a039384166004820152602481019290925251919092169263a9059cbb92604480820193918290030181600087803b1580156117d557600080fd5b505af11580156117e9573d6000803e3d6000fd5b505050506040513d60208110156117ff57600080fd5b5050815181516020808501516060808701518387015160a0808a0151604080518f81529788018e90528781019490945293860191909152600160a060020a0392831660808601529051958216959482169491909216927f1f33fcbce82033cd7b26ae868ba28784c1e405a5a631cb7063527b4aceb0b5cc92908290030190a45b61189182602001518360600151611fe0565b50600195945050505050565b600354604080517fc9ee7c9a000000000000000000000000000000000000000000000000000000008152600481018490529051600092600160a060020a03169163c9ee7c9a91602480830192602092919082900301818787803b15801561190357600080fd5b505af1158015611917573d6000803e3d6000fd5b505050506040513d602081101561192d57600080fd5b505192915050565b600054600160a060020a0316331461194c57600080fd5b600160a060020a038116151561196157600080fd5b60008054604051600160a060020a03808516939216917f8be0079c531659141344cd1fd0a4f28419497f9722a3daafe3b4186f6b6457e091a36000805473ffffffffffffffffffffffffffffffffffffffff1916600160a060020a0392909216919091179055565b600354604080517fc692fc74000000000000000000000000000000000000000000000000000000008152600160a060020a0384811660048301529151600093929092169163c692fc749160248082019260209290919082900301818787803b15801561190357600080fd5b600354604080517fd4fac45d000000000000000000000000000000000000000000000000000000008152600160a060020a03858116600483015284811660248301529151600093929092169163d4fac45d9160448082019260209290919082900301818787803b15801561131d57600080fd5b600080611ab43384611a34565b9050801515611ac257600080fd5b604080516000805160206120c38339815191528152336004820152602481018390529051600160a060020a0385169163a9059cbb9160448083019260209291908290030181600087803b158015611b1857600080fd5b505af1158015611b2c573d6000803e3d6000fd5b505050506040513d6020811015611b4257600080fd5b50611b51905033846000611d76565b506040513390600160a060020a038516907ffee4bd730c5342548069b84e6a6b38c19507a6fe4bbbc4ab6f648b1ed2ad5fc890600090a350600192915050565b600354604080517f4f758478000000000000000000000000000000000000000000000000000000008152600481018b9052602481018a9052600160a060020a038981166044830152606482018990526084820188905286151560a483015285151560c483015260e4820185905291516000939290921691634f7584789161010480820192869290919082900301818387803b158015611c2f57600080fd5b505af1158015611c43573d6000803e3d6000fd5b5060019c9b505050505050505050505050565b600082821115611c6257fe5b50900390565b600354604080517fd04c23af000000000000000000000000000000000000000000000000000000008152600160a060020a0386811660048301528581166024830152604482018590529151600093929092169163d04c23af91606480820192869290919082900301818387803b158015611ce157600080fd5b505af1158015611cf5573d6000803e3d6000fd5b506001979650505050505050565b6000903b1190565b600254604080517ffb3551ff000000000000000000000000000000000000000000000000000000008152600160a060020a0384811660048301529151600093929092169163fb3551ff9160248082019260209290919082900301818787803b15801561190357600080fd5b600354604080517fb5c9cbbe000000000000000000000000000000000000000000000000000000008152600160a060020a0386811660048301528581166024830152604482018590529151600093929092169163b5c9cbbe9160648082019260209290919082900301818787803b158015611df057600080fd5b505af1158015611e04573d6000803e3d6000fd5b505050506040513d6020811015611e1a57600080fd5b5051949350505050565b600354604080517fb9530091000000000000000000000000000000000000000000000000000000008152600481018490529051600092600160a060020a03169163b9530091916024808301928692919082900301818387803b158015611e8957600080fd5b505af1158015611891573d6000803e3d6000fd5b600354604080517f2270fa5e000000000000000000000000000000000000000000000000000000008152600481018b9052600160a060020a038a811660248301528981166044830152606482018990526084820188905286151560a483015285811660c483015284151560e483015291516000939290921691632270fa5e9161010480820192869290919082900301818387803b158015611c2f57600080fd5b600082820183811015611f4c57fe5b9392505050565b600354604080517fb12c52cf00000000000000000000000000000000000000000000000000000000815260048101859052602481018490529051600092600160a060020a03169163b12c52cf916044808301928692919082900301818387803b158015611fbf57600080fd5b505af1158015611fd3573d6000803e3d6000fd5b5060019695505050505050565b600354604080517f01e7a801000000000000000000000000000000000000000000000000000000008152600160a060020a03858116600483015260248201859052915160009392909216916301e7a80191604480820192869290919082900301818387803b158015611fbf57600080fd5b6040805160e081018252600080825260208201819052918101829052606081018290526080810182905260a0810182905260c081019190915290565b6040805160c081018252600080825260208201819052918101829052606081018290526080810182905260a0810191909152905600a9059cbb00000000000000000000000000000000000000000000000000000000a165627a7a723058206c7b62e078a7097b817380c0362bb7387371135793a5caabfceea09f5197b1690029",
  "bytecodeSha1": "1e8fac51fbe6bc051fd2c8a8095d9b022bcbbbb7",
  "compiler": {
    "evm_version": "byzantium",
    "optimizer": {
      "enabled": true,
      "runs": 200
    },
    "version": "0.4.25"
  },
  "contractName": "IbetMembershipExchange",
  "language": "Solidity",
  "natspec": {
    "methods": {
      "balanceOf(address,address)": {
        "notice": "残高参照",
        "params": {
          "_account": "アカウントアドレス",
          "_token": "トークンアドレス"
        },
        "return": "残高数量"
      },
      "cancelAgreement(uint256,uint256)": {
        "details": "注文時に指定された決済業者から実行が可能、有効期限後はMake注文者も実行が可能",
        "notice": "決済非承認",
        "params": {
          "_agreementId": "約定ID",
          "_orderId": "注文ID"
        },
        "return": "処理結果"
      },
      "cancelOrder(uint256)": {
        "notice": "注文キャンセル",
        "params": {
          "_orderId": "注文ID"
        },
        "return": "処理結果"
      },
      "commitmentOf(address,address)": {
        "notice": "拘束数量参照",
        "params": {
          "_account": "アカウントアドレス",
          "_token": "トークンアドレス"
        },
        "return": "拘束数量"
      },
      "confirmAgreement(uint256,uint256)": {
        "details": "注文時に指定された決済業者のみ実行が可能",
        "notice": "決済承認",
        "params": {
          "_agreementId": "約定ID",
          "_orderId": "注文ID"
        },
        "return": "処理結果"
      },
      "createOrder(address,uint256,uint256,bool,address)": {
        "notice": "--------------------------------------------------------------- Function: Logic ---------------------------------------------------------------Make注文",
        "params": {
          "_agent": "収納代行業者のアドレス",
          "_amount": "注文数量",
          "_isBuy": "売買区分",
          "_price": "注文単価",
          "_token": "トークンアドレス"
        },
        "return": "処理結果"
      },
      "executeOrder(uint256,uint256,bool)": {
        "notice": "Take注文",
        "params": {
          "_amount": "注文数量",
          "_isBuy": "売買区分",
          "_orderId": "注文ID"
        },
        "return": "処理結果"
      },
      "getAgreement(uint256,uint256)": {
        "notice": "約定情報取得",
        "params": {
          "_agreementId": "約定ID",
          "_orderId": "注文ID"
        },
        "return": "_counterpart 約定相手_amount 約定数量_price 約定単価_canceled キャンセル済み状態_paid 支払済状態_expiry 有効期限"
      },
      "getOrder(uint256)": {
        "notice": "注文情報取得",
        "params": {
          "_orderId": "注文ID"
        },
        "return": "owner 注文実行者token トークンアドレスamount 注文数量price 注文単価isBuy 売買区分agent 決済業者のアドレスcanceled キャンセル済み状態"
      },
      "lastPrice(address)": {
        "notice": "現在値参照",
        "params": {
          "_token": "トークンアドレス"
        },
        "return": "現在値"
      },
      "latestAgreementId(uint256)": {
        "notice": "直近約定ID取得",
        "params": {
          "_orderId": "注文ID"
        },
        "return": "直近約定ID"
      },
      "latestOrderId()": {
        "notice": "直近注文ID取得",
        "return": "直近注文ID"
      },
      "tokenFallback(address,uint256,bytes)": {
        "notice": "Deposit Handler：デポジット処理",
        "params": {
          "_from": "アカウントアドレス：残高を保有するアドレス",
          "_value": "デポジット数量"
        }
      },
      "transferOwnership(address)": {
        "details": "オーナーのみ実行可能",
        "notice": "オーナー変更",
        "params": {
          "newOwner": "新しいオーナー"
        }
      },
      "withdrawAll(address)": {
        "details": "未売却の預かりに対してのみ引き出しをおこなう。約定済、注文中の預かり（commitments）の引き出しはおこなわない。",
        "notice": "全ての残高を引き出しする",
        "params": {
          "_token": "トークンアドレス"
        },
        "return": "処理結果"
      }
    },
    "title": "ibet Membership DEX"
  },
  "opcodes": "PUSH1 0x80 PUSH1 0x40 MSTORE PUSH1 0x4 CALLDATASIZE LT PUSH2 0xE2 JUMPI PUSH4 0xFFFFFFFF PUSH1 0xE0 PUSH1 0x2 EXP PUSH1 0x0 CALLDATALOAD DIV AND PUSH4 0x307F636B DUP2 EQ PUSH2 0xE7 JUMPI DUP1 PUSH4 0x38A6E855 EQ PUSH2 0x116 JUMPI DUP1 PUSH4 0x514FCAC7 EQ PUSH2 0x14B JUMPI DUP1 PUSH4 0x5EDADA77 EQ PUSH2 0x163 JUMPI DUP1 PUSH4 0x6F3B60D6 EQ PUSH2 0x194 JUMPI DUP1 PUSH4 0x7E6D36E2 EQ PUSH2 0x1BB JUMPI DUP1 PUSH4 0x85AA92A7 EQ PUSH2 0x1DB JUMPI DUP1 PUSH4 0x8DA5CB5B EQ PUSH2 0x1F0 JUMPI DUP1 PUSH4 0xA2EE7043 EQ PUSH2 0x205 JUMPI DUP1 PUSH4 0xBF18E24E EQ PUSH2 0x22C JUMPI DUP1 PUSH4 0xC0EE0B8A EQ PUSH2 0x286 JUMPI DUP1 PUSH4 0xD09EF241 EQ PUSH2 0x2F1 JUMPI DUP1 PUSH4 0xD1A397E5 EQ PUSH2 0x355 JUMPI DUP1 PUSH4 0xDC01F10B EQ PUSH2 0x370 JUMPI DUP1 PUSH4 0xF2FDE38B EQ PUSH2 0x388 JUMPI DUP1 PUSH4 0xF5A6BA2E EQ PUSH2 0x3A9 JUMPI DUP1 PUSH4 0xF7888AEC EQ PUSH2 0x3CA JUMPI DUP1 PUSH4 0xFA09E630 EQ PUSH2 0x3F1 JUMPI JUMPDEST PUSH1 0x0 DUP1 REVERT JUMPDEST CALLVALUE DUP1 ISZERO PUSH2 0xF3 JUMPI PUSH1 0x0 DUP1 REVERT JUMPDEST POP PUSH2 0x102 PUSH1 0x4 CALLDATALOAD PUSH1 0x24 CALLDATALOAD PUSH2 0x412 JUMP JUMPDEST PUSH1 0x40 DUP1 MLOAD SWAP2 ISZERO ISZERO DUP3 MSTORE MLOAD SWAP1 DUP2 SWAP1 SUB PUSH1 0x20 ADD SWAP1 RETURN JUMPDEST CALLVALUE DUP1 ISZERO PUSH2 0x122 JUMPI PUSH1 0x0 DUP1 REVERT JUMPDEST POP PUSH2 0x102 PUSH1 0x1 PUSH1 0xA0 PUSH1 0x2 EXP SUB PUSH1 0x4 CALLDATALOAD DUP2 AND SWAP1 PUSH1 0x24 CALLDATALOAD SWAP1 PUSH1 0x44 CALLDATALOAD SWAP1 PUSH1 0x64 CALLDATALOAD ISZERO ISZERO SWAP1 PUSH1 0x84 CALLDATALOAD AND PUSH2 0x826 JUMP JUMPDEST CALLVALUE DUP1 ISZERO PUSH2 0x157 JUMPI PUSH1 0x0 DUP1 REVERT JUMPDEST POP PUSH2 0x102 PUSH1 0x4 CALLDATALOAD PUSH2 0xAFE JUMP JUMPDEST CALLVALUE DUP1 ISZERO PUSH2 0x16F JUMPI PUSH1 0x0 DUP1 REVERT JUMPDEST POP PUSH2 0x178 PUSH2 0xD04 JUMP JUMPDEST PUSH1 0x40 DUP1 MLOAD PUSH1 0x1 PUSH1 0xA0 PUSH1 0x2 EXP SUB SWAP1 SWAP3 AND DUP3 MSTORE MLOAD SWAP1 DUP2 SWAP1 SUB PUSH1 0x20 ADD SWAP1 RETURN JUMPDEST CALLVALUE DUP1 ISZERO PUSH2 0x1A0 JUMPI PUSH1 0x0 DUP1 REVERT JUMPDEST POP PUSH2 0x1A9 PUSH2 0xD13 JUMP JUMPDEST PUSH1 0x40 DUP1 MLOAD SWAP2 DUP3 MSTORE MLOAD SWAP1 DUP2 SWAP1 SUB PUSH1 0x20 ADD SWAP1 RETURN JUMPDEST CALLVALUE DUP1 ISZERO PUSH2 0x1C7 JUMPI PUSH1 0x0 DUP1 REVERT JUMPDEST POP PUSH2 0x102 PUSH1 0x4 CALLDATALOAD PUSH1 0x24 CALLDATALOAD PUSH1 0x44 CALLDATALOAD ISZERO ISZERO PUSH2 0xDA3 JUMP JUMPDEST CALLVALUE DUP1 ISZERO PUSH2 0x1E7 JUMPI PUSH1 0x0 DUP1 REVERT JUMPDEST POP PUSH2 0x178 PUSH2 0x128C JUMP JUMPDEST CALLVALUE DUP1 ISZERO PUSH2 0x1FC JUMPI PUSH1 0x0 DUP1 REVERT JUMPDEST POP PUSH2 0x178 PUSH2 0x129B JUMP JUMPDEST CALLVALUE DUP1 ISZERO PUSH2 0x211 JUMPI PUSH1 0x0 DUP1 REVERT JUMPDEST POP PUSH2 0x1A9 PUSH1 0x1 PUSH1 0xA0 PUSH1 0x2 EXP SUB PUSH1 0x4 CALLDATALOAD DUP2 AND SWAP1 PUSH1 0x24 CALLDATALOAD AND PUSH2 0x12AA JUMP JUMPDEST CALLVALUE DUP1 ISZERO PUSH2 0x238 JUMPI PUSH1 0x0 DUP1 REVERT JUMPDEST POP PUSH2 0x247 PUSH1 0x4 CALLDATALOAD PUSH1 0x24 CALLDATALOAD PUSH2 0x1350 JUMP JUMPDEST PUSH1 0x40 DUP1 MLOAD PUSH1 0x1 PUSH1 0xA0 PUSH1 0x2 EXP SUB SWAP1 SWAP8 AND DUP8 MSTORE PUSH1 0x20 DUP8 ADD SWAP6 SWAP1 SWAP6 MSTORE DUP6 DUP6 ADD SWAP4 SWAP1 SWAP4 MSTORE SWAP1 ISZERO ISZERO PUSH1 0x60 DUP6 ADD MSTORE ISZERO ISZERO PUSH1 0x80 DUP5 ADD MSTORE PUSH1 0xA0 DUP4 ADD MSTORE MLOAD SWAP1 DUP2 SWAP1 SUB PUSH1 0xC0 ADD SWAP1 RETURN JUMPDEST CALLVALUE DUP1 ISZERO PUSH2 0x292 JUMPI PUSH1 0x0 DUP1 REVERT JUMPDEST POP PUSH1 0x40 DUP1 MLOAD PUSH1 0x20 PUSH1 0x4 PUSH1 0x44 CALLDATALOAD DUP2 DUP2 ADD CALLDATALOAD PUSH1 0x1F DUP2 ADD DUP5 SWAP1 DIV DUP5 MUL DUP6 ADD DUP5 ADD SWAP1 SWAP6 MSTORE DUP5 DUP5 MSTORE PUSH2 0x2EF SWAP5 DUP3 CALLDATALOAD PUSH1 0x1 PUSH1 0xA0 PUSH1 0x2 EXP SUB AND SWAP5 PUSH1 0x24 DUP1 CALLDATALOAD SWAP6 CALLDATASIZE SWAP6 SWAP5 PUSH1 0x64 SWAP5 SWAP3 ADD SWAP2 SWAP1 DUP2 SWAP1 DUP5 ADD DUP4 DUP3 DUP1 DUP3 DUP5 CALLDATACOPY POP SWAP5 SWAP8 POP PUSH2 0x141B SWAP7 POP POP POP POP POP POP POP JUMP JUMPDEST STOP JUMPDEST CALLVALUE DUP1 ISZERO PUSH2 0x2FD JUMPI PUSH1 0x0 DUP1 REVERT JUMPDEST POP PUSH2 0x309 PUSH1 0x4 CALLDATALOAD PUSH2 0x1434 JUMP JUMPDEST PUSH1 0x40 DUP1 MLOAD PUSH1 0x1 PUSH1 0xA0 PUSH1 0x2 EXP SUB SWAP9 DUP10 AND DUP2 MSTORE SWAP7 DUP9 AND PUSH1 0x20 DUP9 ADD MSTORE DUP7 DUP2 ADD SWAP6 SWAP1 SWAP6 MSTORE PUSH1 0x60 DUP7 ADD SWAP4 SWAP1 SWAP4 MSTORE SWAP1 ISZERO ISZERO PUSH1 0x80 DUP6 ADD MSTORE SWAP1 SWAP4 AND PUSH1 0xA0 DUP4 ADD MSTORE SWAP2 ISZERO ISZERO PUSH1 0xC0 DUP3 ADD MSTORE SWAP1 MLOAD SWAP1 DUP2 SWAP1 SUB PUSH1 0xE0 ADD SWAP1 RETURN JUMPDEST CALLVALUE DUP1 ISZERO PUSH2 0x361 JUMPI PUSH1 0x0 DUP1 REVERT JUMPDEST POP PUSH2 0x102 PUSH1 0x4 CALLDATALOAD PUSH1 0x24 CALLDATALOAD PUSH2 0x14FF JUMP JUMPDEST CALLVALUE DUP1 ISZERO PUSH2 0x37C JUMPI PUSH1 0x0 DUP1 REVERT JUMPDEST POP PUSH2 0x1A9 PUSH1 0x4 CALLDATALOAD PUSH2 0x189D JUMP JUMPDEST CALLVALUE DUP1 ISZERO PUSH2 0x394 JUMPI PUSH1 0x0 DUP1 REVERT JUMPDEST POP PUSH2 0x2EF PUSH1 0x1 PUSH1 0xA0 PUSH1 0x2 EXP SUB PUSH1 0x4 CALLDATALOAD AND PUSH2 0x1935 JUMP JUMPDEST CALLVALUE DUP1 ISZERO PUSH2 0x3B5 JUMPI PUSH1 0x0 DUP1 REVERT JUMPDEST POP PUSH2 0x1A9 PUSH1 0x1 PUSH1 0xA0 PUSH1 0x2 EXP SUB PUSH1 0x4 CALLDATALOAD AND PUSH2 0x19C9 JUMP JUMPDEST CALLVALUE DUP1 ISZERO PUSH2 0x3D6 JUMPI PUSH1 0x0 DUP1 REVERT JUMPDEST POP PUSH2 0x1A9 PUSH1 0x1 PUSH1 0xA0 PUSH1 0x2 EXP SUB PUSH1 0x4 CALLDATALOAD DUP2 AND SWAP1 PUSH1 0x24 CALLDATALOAD AND PUSH2 0x1A34 JUMP JUMPDEST CALLVALUE DUP1 ISZERO PUSH2 0x3FD JUMPI PUSH1 0x0 DUP1 REVERT JUMPDEST POP PUSH2 0x102 PUSH1 0x1 PUSH1 0xA0 PUSH1 0x2 EXP SUB PUSH1 0x4 CALLDATALOAD AND PUSH2 0x1AA7 JUMP JUMPDEST PUSH1 0x0 PUSH2 0x41C PUSH2 0x2051 JUMP JUMPDEST PUSH2 0x424 PUSH2 0x208D JUMP JUMPDEST PUSH2 0x42C PUSH2 0xD13 JUMP JUMPDEST DUP6 GT ISZERO PUSH2 0x438 JUMPI PUSH1 0x0 DUP1 REVERT JUMPDEST PUSH2 0x441 DUP6 PUSH2 0x189D JUMP JUMPDEST DUP5 GT ISZERO PUSH2 0x44D JUMPI PUSH1 0x0 DUP1 REVERT JUMPDEST PUSH2 0x456 DUP6 PUSH2 0x1434 JUMP JUMPDEST ISZERO ISZERO PUSH1 0xC0 DUP10 ADD MSTORE PUSH1 0x1 PUSH1 0xA0 PUSH1 0x2 EXP SUB SWAP1 DUP2 AND PUSH1 0xA0 DUP10 ADD MSTORE SWAP1 ISZERO ISZERO PUSH1 0x80 DUP9 ADD MSTORE PUSH1 0x60 DUP8 ADD SWAP2 SWAP1 SWAP2 MSTORE PUSH1 0x40 DUP7 ADD SWAP2 SWAP1 SWAP2 MSTORE SWAP1 DUP2 AND PUSH1 0x20 DUP6 ADD MSTORE AND DUP3 MSTORE PUSH2 0x49A DUP6 DUP6 PUSH2 0x1350 JUMP JUMPDEST PUSH1 0xA0 DUP8 ADD DUP2 SWAP1 MSTORE SWAP1 ISZERO ISZERO PUSH1 0x80 DUP8 ADD MSTORE SWAP1 ISZERO ISZERO PUSH1 0x60 DUP7 ADD MSTORE PUSH1 0x40 DUP6 ADD SWAP2 SWAP1 SWAP2 MSTORE PUSH1 0x20 DUP5 ADD SWAP2 SWAP1 SWAP2 MSTORE PUSH1 0x1 PUSH1 0xA0 PUSH1 0x2 EXP SUB SWAP1 SWAP2 AND DUP3 MSTORE TIMESTAMP LT PUSH2 0x540 JUMPI DUP1 PUSH1 0x80 ADD MLOAD DUP1 PUSH2 0x4E5 JUMPI POP DUP1 PUSH1 0x60 ADD MLOAD JUMPDEST DUP1 PUSH2 0x531 JUMPI POP DUP2 PUSH1 0xA0 ADD MLOAD PUSH1 0x1 PUSH1 0xA0 PUSH1 0x2 EXP SUB AND CALLER PUSH1 0x1 PUSH1 0xA0 PUSH1 0x2 EXP SUB AND EQ ISZERO DUP1 ISZERO PUSH2 0x51B JUMPI POP DUP2 MLOAD PUSH1 0x1 PUSH1 0xA0 PUSH1 0x2 EXP SUB AND CALLER EQ ISZERO JUMPDEST DUP1 ISZERO PUSH2 0x531 JUMPI POP DUP1 MLOAD PUSH1 0x1 PUSH1 0xA0 PUSH1 0x2 EXP SUB AND CALLER EQ ISZERO JUMPDEST ISZERO PUSH2 0x53B JUMPI PUSH1 0x0 DUP1 REVERT JUMPDEST PUSH2 0x57C JUMP JUMPDEST DUP1 PUSH1 0x80 ADD MLOAD DUP1 PUSH2 0x551 JUMPI POP DUP1 PUSH1 0x60 ADD MLOAD JUMPDEST DUP1 PUSH2 0x572 JUMPI POP DUP2 PUSH1 0xA0 ADD MLOAD PUSH1 0x1 PUSH1 0xA0 PUSH1 0x2 EXP SUB AND CALLER PUSH1 0x1 PUSH1 0xA0 PUSH1 0x2 EXP SUB AND EQ ISZERO JUMPDEST ISZERO PUSH2 0x57C JUMPI PUSH1 0x0 DUP1 REVERT JUMPDEST PUSH2 0x5A1 DUP6 DUP6 DUP4 PUSH1 0x0 ADD MLOAD DUP5 PUSH1 0x20 ADD MLOAD DUP6 PUSH1 0x40 ADD MLOAD PUSH1 0x1 DUP8 PUSH1 0x80 ADD MLOAD DUP9 PUSH1 0xA0 ADD MLOAD PUSH2 0x1B91 JUMP JUMPDEST POP DUP2 PUSH1 0x80 ADD MLOAD ISZERO PUSH2 0x6EE JUMPI DUP1 MLOAD PUSH1 0x20 DUP1 DUP5 ADD MLOAD SWAP1 DUP4 ADD MLOAD PUSH2 0x5DD SWAP3 SWAP2 SWAP1 PUSH2 0x5D8 SWAP1 PUSH2 0x5CC DUP5 DUP5 PUSH2 0x12AA JUMP JUMPDEST SWAP1 PUSH4 0xFFFFFFFF PUSH2 0x1C56 AND JUMP JUMPDEST PUSH2 0x1C68 JUMP JUMPDEST POP PUSH1 0x20 DUP1 DUP4 ADD MLOAD DUP3 MLOAD DUP4 DUP4 ADD MLOAD PUSH1 0x40 DUP1 MLOAD PUSH1 0x0 DUP1 MLOAD PUSH1 0x20 PUSH2 0x20C3 DUP4 CODECOPY DUP2 MLOAD SWAP2 MSTORE DUP2 MSTORE PUSH1 0x1 PUSH1 0xA0 PUSH1 0x2 EXP SUB SWAP4 DUP5 AND PUSH1 0x4 DUP3 ADD MSTORE PUSH1 0x24 DUP2 ADD SWAP3 SWAP1 SWAP3 MSTORE MLOAD SWAP2 SWAP1 SWAP3 AND SWAP3 PUSH4 0xA9059CBB SWAP3 PUSH1 0x44 DUP1 DUP3 ADD SWAP4 SWAP2 DUP3 SWAP1 SUB ADD DUP2 PUSH1 0x0 DUP8 DUP1 EXTCODESIZE ISZERO DUP1 ISZERO PUSH2 0x640 JUMPI PUSH1 0x0 DUP1 REVERT JUMPDEST POP GAS CALL ISZERO DUP1 ISZERO PUSH2 0x654 JUMPI RETURNDATASIZE PUSH1 0x0 DUP1 RETURNDATACOPY RETURNDATASIZE PUSH1 0x0 REVERT JUMPDEST POP POP POP POP PUSH1 0x40 MLOAD RETURNDATASIZE PUSH1 0x20 DUP2 LT ISZERO PUSH2 0x66A JUMPI PUSH1 0x0 DUP1 REVERT JUMPDEST POP POP DUP1 MLOAD DUP3 MLOAD PUSH1 0x20 DUP1 DUP6 ADD MLOAD PUSH1 0x60 DUP1 DUP8 ADD MLOAD DUP4 DUP8 ADD MLOAD PUSH1 0xA0 DUP1 DUP11 ADD MLOAD PUSH1 0x40 DUP1 MLOAD DUP16 DUP2 MSTORE SWAP8 DUP9 ADD DUP15 SWAP1 MSTORE DUP8 DUP2 ADD SWAP5 SWAP1 SWAP5 MSTORE SWAP4 DUP7 ADD SWAP2 SWAP1 SWAP2 MSTORE PUSH1 0x1 PUSH1 0xA0 PUSH1 0x2 EXP SUB SWAP3 DUP4 AND PUSH1 0x80 DUP7 ADD MSTORE SWAP1 MLOAD SWAP6 DUP3 AND SWAP6 SWAP5 DUP3 AND SWAP5 SWAP2 SWAP1 SWAP3 AND SWAP3 PUSH32 0xC7065461C527949BFFA69924A2264FB3A12540677585393B0F3C3D96DDE06751 SWAP3 SWAP1 DUP3 SWAP1 SUB ADD SWAP1 LOG4 PUSH2 0x81B JUMP JUMPDEST DUP2 MLOAD PUSH1 0x20 DUP1 DUP5 ADD MLOAD SWAP1 DUP4 ADD MLOAD PUSH2 0x70E SWAP3 SWAP2 SWAP1 PUSH2 0x5D8 SWAP1 PUSH2 0x5CC DUP5 DUP5 PUSH2 0x12AA JUMP JUMPDEST POP PUSH1 0x20 DUP1 DUP4 ADD MLOAD DUP4 MLOAD DUP4 DUP4 ADD MLOAD PUSH1 0x40 DUP1 MLOAD PUSH1 0x0 DUP1 MLOAD PUSH1 0x20 PUSH2 0x20C3 DUP4 CODECOPY DUP2 MLOAD SWAP2 MSTORE DUP2 MSTORE PUSH1 0x1 PUSH1 0xA0 PUSH1 0x2 EXP SUB SWAP4 DUP5 AND PUSH1 0x4 DUP3 ADD MSTORE PUSH1 0x24 DUP2 ADD SWAP3 SWAP1 SWAP3 MSTORE MLOAD SWAP2 SWAP1 SWAP3 AND SWAP3 PUSH4 0xA9059CBB SWAP3 PUSH1 0x44 DUP1 DUP3 ADD SWAP4 SWAP2 DUP3 SWAP1 SUB ADD DUP2 PUSH1 0x0 DUP8 DUP1 EXTCODESIZE ISZERO DUP1 ISZERO PUSH2 0x771 JUMPI PUSH1 0x0 DUP1 REVERT JUMPDEST POP GAS CALL ISZERO DUP1 ISZERO PUSH2 0x785 JUMPI RETURNDATASIZE PUSH1 0x0 DUP1 RETURNDATACOPY RETURNDATASIZE PUSH1 0x0 REVERT JUMPDEST POP POP POP POP PUSH1 0x40 MLOAD RETURNDATASIZE PUSH1 0x20 DUP2 LT ISZERO PUSH2 0x79B JUMPI PUSH1 0x0 DUP1 REVERT JUMPDEST POP POP DUP2 MLOAD DUP2 MLOAD PUSH1 0x20 DUP1 DUP6 ADD MLOAD PUSH1 0x60 DUP1 DUP8 ADD MLOAD DUP4 DUP8 ADD MLOAD PUSH1 0xA0 DUP1 DUP11 ADD MLOAD PUSH1 0x40 DUP1 MLOAD DUP16 DUP2 MSTORE SWAP8 DUP9 ADD DUP15 SWAP1 MSTORE DUP8 DUP2 ADD SWAP5 SWAP1 SWAP5 MSTORE SWAP4 DUP7 ADD SWAP2 SWAP1 SWAP2 MSTORE PUSH1 0x1 PUSH1 0xA0 PUSH1 0x2 EXP SUB SWAP3 DUP4 AND PUSH1 0x80 DUP7 ADD MSTORE SWAP1 MLOAD SWAP6 DUP3 AND SWAP6 SWAP5 DUP3 AND SWAP5 SWAP2 SWAP1 SWAP3 AND SWAP3 PUSH32 0xC7065461C527949BFFA69924A2264FB3A12540677585393B0F3C3D96DDE06751 SWAP3 SWAP1 DUP3 SWAP1 SUB ADD SWAP1 LOG4 JUMPDEST POP PUSH1 0x1 SWAP5 SWAP4 POP POP POP POP JUMP JUMPDEST PUSH1 0x0 DUP1 PUSH1 0x1 DUP5 ISZERO ISZERO EQ ISZERO PUSH2 0x8D8 JUMPI DUP6 ISZERO DUP1 PUSH2 0x8A8 JUMPI POP DUP7 PUSH1 0x1 PUSH1 0xA0 PUSH1 0x2 EXP SUB AND PUSH4 0x200D2ED2 PUSH1 0x40 MLOAD DUP2 PUSH4 0xFFFFFFFF AND PUSH1 0xE0 PUSH1 0x2 EXP MUL DUP2 MSTORE PUSH1 0x4 ADD PUSH1 0x20 PUSH1 0x40 MLOAD DUP1 DUP4 SUB DUP2 PUSH1 0x0 DUP8 DUP1 EXTCODESIZE ISZERO DUP1 ISZERO PUSH2 0x87A JUMPI PUSH1 0x0 DUP1 REVERT JUMPDEST POP GAS CALL ISZERO DUP1 ISZERO PUSH2 0x88E JUMPI RETURNDATASIZE PUSH1 0x0 DUP1 RETURNDATACOPY RETURNDATASIZE PUSH1 0x0 REVERT JUMPDEST POP POP POP POP PUSH1 0x40 MLOAD RETURNDATASIZE PUSH1 0x20 DUP2 LT ISZERO PUSH2 0x8A4 JUMPI PUSH1 0x0 DUP1 REVERT JUMPDEST POP MLOAD ISZERO JUMPDEST DUP1 PUSH2 0x8BD JUMPI POP PUSH2 0x8B7 CALLER PUSH2 0x1D03 JUMP JUMPDEST ISZERO ISZERO PUSH1 0x1 EQ JUMPDEST DUP1 PUSH2 0x8CE JUMPI POP PUSH2 0x8CC DUP4 PUSH2 0x1D0B JUMP JUMPDEST ISZERO JUMPDEST ISZERO PUSH2 0x8D8 JUMPI PUSH1 0x0 DUP1 REVERT JUMPDEST DUP4 ISZERO ISZERO PUSH2 0xA2B JUMPI DUP6 ISZERO DUP1 PUSH2 0x8F4 JUMPI POP DUP6 PUSH2 0x8F2 CALLER DUP10 PUSH2 0x1A34 JUMP JUMPDEST LT JUMPDEST DUP1 PUSH2 0x966 JUMPI POP DUP7 PUSH1 0x1 PUSH1 0xA0 PUSH1 0x2 EXP SUB AND PUSH4 0x200D2ED2 PUSH1 0x40 MLOAD DUP2 PUSH4 0xFFFFFFFF AND PUSH1 0xE0 PUSH1 0x2 EXP MUL DUP2 MSTORE PUSH1 0x4 ADD PUSH1 0x20 PUSH1 0x40 MLOAD DUP1 DUP4 SUB DUP2 PUSH1 0x0 DUP8 DUP1 EXTCODESIZE ISZERO DUP1 ISZERO PUSH2 0x938 JUMPI PUSH1 0x0 DUP1 REVERT JUMPDEST POP GAS CALL ISZERO DUP1 ISZERO PUSH2 0x94C JUMPI RETURNDATASIZE PUSH1 0x0 DUP1 RETURNDATACOPY RETURNDATASIZE PUSH1 0x0 REVERT JUMPDEST POP POP POP POP PUSH1 0x40 MLOAD RETURNDATASIZE PUSH1 0x20 DUP2 LT ISZERO PUSH2 0x962 JUMPI PUSH1 0x0 DUP1 REVERT JUMPDEST POP MLOAD ISZERO JUMPDEST DUP1 PUSH2 0x977 JUMPI POP PUSH2 0x975 DUP4 PUSH2 0x1D0B JUMP JUMPDEST ISZERO JUMPDEST ISZERO PUSH2 0xA2B JUMPI DUP7 PUSH1 0x1 PUSH1 0xA0 PUSH1 0x2 EXP SUB AND PUSH4 0xA9059CBB CALLER PUSH2 0x996 CALLER DUP12 PUSH2 0x1A34 JUMP JUMPDEST PUSH1 0x40 MLOAD DUP4 PUSH4 0xFFFFFFFF AND PUSH1 0xE0 PUSH1 0x2 EXP MUL DUP2 MSTORE PUSH1 0x4 ADD DUP1 DUP4 PUSH1 0x1 PUSH1 0xA0 PUSH1 0x2 EXP SUB AND PUSH1 0x1 PUSH1 0xA0 PUSH1 0x2 EXP SUB AND DUP2 MSTORE PUSH1 0x20 ADD DUP3 DUP2 MSTORE PUSH1 0x20 ADD SWAP3 POP POP POP PUSH1 0x20 PUSH1 0x40 MLOAD DUP1 DUP4 SUB DUP2 PUSH1 0x0 DUP8 DUP1 EXTCODESIZE ISZERO DUP1 ISZERO PUSH2 0x9E8 JUMPI PUSH1 0x0 DUP1 REVERT JUMPDEST POP GAS CALL ISZERO DUP1 ISZERO PUSH2 0x9FC JUMPI RETURNDATASIZE PUSH1 0x0 DUP1 RETURNDATACOPY RETURNDATASIZE PUSH1 0x0 REVERT JUMPDEST POP POP POP POP PUSH1 0x40 MLOAD RETURNDATASIZE PUSH1 0x20 DUP2 LT ISZERO PUSH2 0xA12 JUMPI PUSH1 0x0 DUP1 REVERT JUMPDEST POP PUSH2 0xA21 SWAP1 POP CALLER DUP9 PUSH1 0x0 PUSH2 0x1D76 JUMP JUMPDEST POP PUSH1 0x0 SWAP2 POP PUSH2 0xAF4 JUMP JUMPDEST PUSH2 0xA33 PUSH2 0xD13 JUMP JUMPDEST PUSH1 0x1 ADD SWAP1 POP PUSH2 0xA41 DUP2 PUSH2 0x1E24 JUMP JUMPDEST POP PUSH2 0xA53 DUP2 CALLER DUP10 DUP10 DUP10 DUP10 DUP10 PUSH1 0x0 PUSH2 0x1E9D JUMP JUMPDEST POP DUP4 ISZERO ISZERO PUSH2 0xA95 JUMPI PUSH2 0xA73 CALLER DUP9 PUSH2 0xA6E DUP10 PUSH2 0x5CC CALLER DUP14 PUSH2 0x1A34 JUMP JUMPDEST PUSH2 0x1D76 JUMP JUMPDEST POP PUSH2 0xA93 CALLER DUP9 PUSH2 0x5D8 DUP10 PUSH2 0xA87 CALLER DUP14 PUSH2 0x12AA JUMP JUMPDEST SWAP1 PUSH4 0xFFFFFFFF PUSH2 0x1F3D AND JUMP JUMPDEST POP JUMPDEST PUSH1 0x40 DUP1 MLOAD DUP3 DUP2 MSTORE PUSH1 0x20 DUP2 ADD DUP8 SWAP1 MSTORE DUP1 DUP3 ADD DUP9 SWAP1 MSTORE PUSH1 0x1 PUSH1 0xA0 PUSH1 0x2 EXP SUB DUP6 DUP2 AND PUSH1 0x60 DUP4 ADD MSTORE SWAP2 MLOAD DUP7 ISZERO ISZERO SWAP3 CALLER SWAP3 SWAP1 DUP12 AND SWAP2 PUSH32 0x62266BACEB3938A36F642A6B6857911FDA416BA3F0B192A5A5A8E27D51AD15F9 SWAP2 DUP2 SWAP1 SUB PUSH1 0x80 ADD SWAP1 LOG4 PUSH1 0x1 SWAP2 POP JUMPDEST POP SWAP6 SWAP5 POP POP POP POP POP JUMP JUMPDEST PUSH1 0x0 PUSH2 0xB08 PUSH2 0x2051 JUMP JUMPDEST PUSH2 0xB10 PUSH2 0xD13 JUMP JUMPDEST DUP4 GT ISZERO PUSH2 0xB1C JUMPI PUSH1 0x0 DUP1 REVERT JUMPDEST PUSH2 0xB25 DUP4 PUSH2 0x1434 JUMP JUMPDEST ISZERO ISZERO PUSH1 0xC0 DUP9 ADD MSTORE PUSH1 0x1 PUSH1 0xA0 PUSH1 0x2 EXP SUB SWAP1 DUP2 AND PUSH1 0xA0 DUP9 ADD MSTORE SWAP1 ISZERO ISZERO PUSH1 0x80 DUP8 ADD MSTORE PUSH1 0x60 DUP7 ADD SWAP2 SWAP1 SWAP2 MSTORE PUSH1 0x40 DUP6 ADD DUP3 SWAP1 MSTORE SWAP2 DUP3 AND PUSH1 0x20 DUP6 ADD MSTORE SWAP2 AND DUP3 MSTORE ISZERO DUP1 PUSH2 0xB71 JUMPI POP PUSH1 0xC0 DUP2 ADD MLOAD ISZERO ISZERO PUSH1 0x1 EQ JUMPDEST DUP1 PUSH2 0xB86 JUMPI POP DUP1 MLOAD PUSH1 0x1 PUSH1 0xA0 PUSH1 0x2 EXP SUB AND CALLER EQ ISZERO JUMPDEST ISZERO PUSH2 0xB90 JUMPI PUSH1 0x0 DUP1 REVERT JUMPDEST DUP1 PUSH1 0x80 ADD MLOAD ISZERO ISZERO PUSH2 0xC45 JUMPI PUSH2 0xBBA CALLER DUP3 PUSH1 0x20 ADD MLOAD PUSH2 0x5D8 DUP5 PUSH1 0x40 ADD MLOAD PUSH2 0x5CC CALLER DUP8 PUSH1 0x20 ADD MLOAD PUSH2 0x12AA JUMP JUMPDEST POP PUSH1 0x20 DUP1 DUP3 ADD MLOAD PUSH1 0x40 DUP1 DUP5 ADD MLOAD DUP2 MLOAD PUSH1 0x0 DUP1 MLOAD PUSH1 0x20 PUSH2 0x20C3 DUP4 CODECOPY DUP2 MLOAD SWAP2 MSTORE DUP2 MSTORE CALLER PUSH1 0x4 DUP3 ADD MSTORE PUSH1 0x24 DUP2 ADD SWAP2 SWAP1 SWAP2 MSTORE SWAP1 MLOAD PUSH1 0x1 PUSH1 0xA0 PUSH1 0x2 EXP SUB SWAP1 SWAP3 AND SWAP3 PUSH4 0xA9059CBB SWAP3 PUSH1 0x44 DUP1 DUP5 ADD SWAP4 DUP3 SWAP1 SUB ADD DUP2 PUSH1 0x0 DUP8 DUP1 EXTCODESIZE ISZERO DUP1 ISZERO PUSH2 0xC18 JUMPI PUSH1 0x0 DUP1 REVERT JUMPDEST POP GAS CALL ISZERO DUP1 ISZERO PUSH2 0xC2C JUMPI RETURNDATASIZE PUSH1 0x0 DUP1 RETURNDATACOPY RETURNDATASIZE PUSH1 0x0 REVERT JUMPDEST POP POP POP POP PUSH1 0x40 MLOAD RETURNDATASIZE PUSH1 0x20 DUP2 LT ISZERO PUSH2 0xC42 JUMPI PUSH1 0x0 DUP1 REVERT JUMPDEST POP POP JUMPDEST PUSH2 0xC6E DUP4 DUP3 PUSH1 0x0 ADD MLOAD DUP4 PUSH1 0x20 ADD MLOAD DUP5 PUSH1 0x40 ADD MLOAD DUP6 PUSH1 0x60 ADD MLOAD DUP7 PUSH1 0x80 ADD MLOAD DUP8 PUSH1 0xA0 ADD MLOAD PUSH1 0x1 PUSH2 0x1E9D JUMP JUMPDEST POP DUP1 PUSH1 0x80 ADD MLOAD ISZERO ISZERO CALLER PUSH1 0x1 PUSH1 0xA0 PUSH1 0x2 EXP SUB AND DUP3 PUSH1 0x20 ADD MLOAD PUSH1 0x1 PUSH1 0xA0 PUSH1 0x2 EXP SUB AND PUSH32 0xACD757911D369D6B15D47ADA91171B7B67295B3F90B8499F6D52348F009C9445 DUP7 DUP6 PUSH1 0x60 ADD MLOAD DUP7 PUSH1 0x40 ADD MLOAD DUP8 PUSH1 0xA0 ADD MLOAD PUSH1 0x40 MLOAD DUP1 DUP6 DUP2 MSTORE PUSH1 0x20 ADD DUP5 DUP2 MSTORE PUSH1 0x20 ADD DUP4 DUP2 MSTORE PUSH1 0x20 ADD DUP3 PUSH1 0x1 PUSH1 0xA0 PUSH1 0x2 EXP SUB AND PUSH1 0x1 PUSH1 0xA0 PUSH1 0x2 EXP SUB AND DUP2 MSTORE PUSH1 0x20 ADD SWAP5 POP POP POP POP POP PUSH1 0x40 MLOAD DUP1 SWAP2 SUB SWAP1 LOG4 POP PUSH1 0x1 SWAP3 SWAP2 POP POP JUMP JUMPDEST PUSH1 0x2 SLOAD PUSH1 0x1 PUSH1 0xA0 PUSH1 0x2 EXP SUB AND DUP2 JUMP JUMPDEST PUSH1 0x3 SLOAD PUSH1 0x40 DUP1 MLOAD PUSH32 0x3D7FE97300000000000000000000000000000000000000000000000000000000 DUP2 MSTORE SWAP1 MLOAD PUSH1 0x0 SWAP3 PUSH1 0x1 PUSH1 0xA0 PUSH1 0x2 EXP SUB AND SWAP2 PUSH4 0x3D7FE973 SWAP2 PUSH1 0x4 DUP1 DUP4 ADD SWAP3 PUSH1 0x20 SWAP3 SWAP2 SWAP1 DUP3 SWAP1 SUB ADD DUP2 DUP8 DUP8 DUP1 EXTCODESIZE ISZERO DUP1 ISZERO PUSH2 0xD72 JUMPI PUSH1 0x0 DUP1 REVERT JUMPDEST POP GAS CALL ISZERO DUP1 ISZERO PUSH2 0xD86 JUMPI RETURNDATASIZE PUSH1 0x0 DUP1 RETURNDATACOPY RETURNDATASIZE PUSH1 0x0 REVERT JUMPDEST POP POP POP POP PUSH1 0x40 MLOAD RETURNDATASIZE PUSH1 0x20 DUP2 LT ISZERO PUSH2 0xD9C JUMPI PUSH1 0x0 DUP1 REVERT JUMPDEST POP MLOAD SWAP1 POP SWAP1 JUMP JUMPDEST PUSH1 0x0 PUSH2 0xDAD PUSH2 0x2051 JUMP JUMPDEST PUSH1 0x0 DUP1 PUSH2 0xDB8 PUSH2 0xD13 JUMP JUMPDEST DUP8 GT ISZERO PUSH2 0xDC4 JUMPI PUSH1 0x0 DUP1 REVERT JUMPDEST PUSH2 0xDCD DUP8 PUSH2 0x1434 JUMP JUMPDEST ISZERO ISZERO PUSH1 0xC0 DUP11 ADD MSTORE PUSH1 0x1 PUSH1 0xA0 PUSH1 0x2 EXP SUB SWAP1 DUP2 AND PUSH1 0xA0 DUP11 ADD MSTORE SWAP1 ISZERO ISZERO PUSH1 0x80 DUP10 ADD MSTORE PUSH1 0x60 DUP9 ADD SWAP2 SWAP1 SWAP2 MSTORE PUSH1 0x40 DUP8 ADD SWAP2 SWAP1 SWAP2 MSTORE SWAP1 DUP2 AND PUSH1 0x20 DUP7 ADD MSTORE AND DUP1 DUP5 MSTORE ISZERO ISZERO PUSH2 0xE13 JUMPI PUSH1 0x0 DUP1 REVERT JUMPDEST PUSH1 0x1 DUP6 ISZERO ISZERO EQ ISZERO PUSH2 0xEFA JUMPI DUP6 ISZERO DUP1 PUSH2 0xE32 JUMPI POP DUP5 ISZERO ISZERO DUP4 PUSH1 0x80 ADD MLOAD ISZERO ISZERO EQ JUMPDEST DUP1 PUSH2 0xE46 JUMPI POP DUP3 MLOAD PUSH1 0x1 PUSH1 0xA0 PUSH1 0x2 EXP SUB AND CALLER EQ JUMPDEST DUP1 PUSH2 0xE5B JUMPI POP PUSH2 0xE55 CALLER PUSH2 0x1D03 JUMP JUMPDEST ISZERO ISZERO PUSH1 0x1 EQ JUMPDEST DUP1 PUSH2 0xE6C JUMPI POP PUSH1 0xC0 DUP4 ADD MLOAD ISZERO ISZERO PUSH1 0x1 EQ JUMPDEST DUP1 PUSH2 0xEE2 JUMPI POP DUP3 PUSH1 0x20 ADD MLOAD PUSH1 0x1 PUSH1 0xA0 PUSH1 0x2 EXP SUB AND PUSH4 0x200D2ED2 PUSH1 0x40 MLOAD DUP2 PUSH4 0xFFFFFFFF AND PUSH1 0xE0 PUSH1 0x2 EXP MUL DUP2 MSTORE PUSH1 0x4 ADD PUSH1 0x20 PUSH1 0x40 MLOAD DUP1 DUP4 SUB DUP2 PUSH1 0x0 DUP8 DUP1 EXTCODESIZE ISZERO DUP1 ISZERO PUSH2 0xEB4 JUMPI PUSH1 0x0 DUP1 REVERT JUMPDEST POP GAS CALL ISZERO DUP1 ISZERO PUSH2 0xEC8 JUMPI RETURNDATASIZE PUSH1 0x0 DUP1 RETURNDATACOPY RETURNDATASIZE PUSH1 0x0 REVERT JUMPDEST POP POP POP POP PUSH1 0x40 MLOAD RETURNDATASIZE PUSH1 0x20 DUP2 LT ISZERO PUSH2 0xEDE JUMPI PUSH1 0x0 DUP1 REVERT JUMPDEST POP MLOAD ISZERO JUMPDEST DUP1 PUSH2 0xEF0 JUMPI POP DUP6 DUP4 PUSH1 0x40 ADD MLOAD LT JUMPDEST ISZERO PUSH2 0xEFA JUMPI PUSH1 0x0 DUP1 REVERT JUMPDEST DUP5 ISZERO ISZERO PUSH2 0x1096 JUMPI DUP6 ISZERO DUP1 PUSH2 0xF15 JUMPI POP DUP5 ISZERO ISZERO DUP4 PUSH1 0x80 ADD MLOAD ISZERO ISZERO EQ JUMPDEST DUP1 PUSH2 0xF29 JUMPI POP DUP3 MLOAD PUSH1 0x1 PUSH1 0xA0 PUSH1 0x2 EXP SUB AND CALLER EQ JUMPDEST DUP1 PUSH2 0xF3A JUMPI POP PUSH1 0xC0 DUP4 ADD MLOAD ISZERO ISZERO PUSH1 0x1 EQ JUMPDEST DUP1 PUSH2 0xFB0 JUMPI POP DUP3 PUSH1 0x20 ADD MLOAD PUSH1 0x1 PUSH1 0xA0 PUSH1 0x2 EXP SUB AND PUSH4 0x200D2ED2 PUSH1 0x40 MLOAD DUP2 PUSH4 0xFFFFFFFF AND PUSH1 0xE0 PUSH1 0x2 EXP MUL DUP2 MSTORE PUSH1 0x4 ADD PUSH1 0x20 PUSH1 0x40 MLOAD DUP1 DUP4 SUB DUP2 PUSH1 0x0 DUP8 DUP1 EXTCODESIZE ISZERO DUP1 ISZERO PUSH2 0xF82 JUMPI PUSH1 0x0 DUP1 REVERT JUMPDEST POP GAS CALL ISZERO DUP1 ISZERO PUSH2 0xF96 JUMPI RETURNDATASIZE PUSH1 0x0 DUP1 RETURNDATACOPY RETURNDATASIZE PUSH1 0x0 REVERT JUMPDEST POP POP POP POP PUSH1 0x40 MLOAD RETURNDATASIZE PUSH1 0x20 DUP2 LT ISZERO PUSH2 0xFAC JUMPI PUSH1 0x0 DUP1 REVERT JUMPDEST POP MLOAD ISZERO JUMPDEST DUP1 PUSH2 0xFC7 JUMPI POP DUP6 PUSH2 0xFC5 CALLER DUP6 PUSH1 0x20 ADD MLOAD PUSH2 0x1A34 JUMP JUMPDEST LT JUMPDEST DUP1 PUSH2 0xFD5 JUMPI POP DUP6 DUP4 PUSH1 0x40 ADD MLOAD LT JUMPDEST ISZERO PUSH2 0x1096 JUMPI DUP3 PUSH1 0x20 ADD MLOAD PUSH1 0x1 PUSH1 0xA0 PUSH1 0x2 EXP SUB AND PUSH4 0xA9059CBB CALLER PUSH2 0xFFC CALLER DUP8 PUSH1 0x20 ADD MLOAD PUSH2 0x1A34 JUMP JUMPDEST PUSH1 0x40 MLOAD DUP4 PUSH4 0xFFFFFFFF AND PUSH1 0xE0 PUSH1 0x2 EXP MUL DUP2 MSTORE PUSH1 0x4 ADD DUP1 DUP4 PUSH1 0x1 PUSH1 0xA0 PUSH1 0x2 EXP SUB AND PUSH1 0x1 PUSH1 0xA0 PUSH1 0x2 EXP SUB AND DUP2 MSTORE PUSH1 0x20 ADD DUP3 DUP2 MSTORE PUSH1 0x20 ADD SWAP3 POP POP POP PUSH1 0x20 PUSH1 0x40 MLOAD DUP1 DUP4 SUB DUP2 PUSH1 0x0 DUP8 DUP1 EXTCODESIZE ISZERO DUP1 ISZERO PUSH2 0x104E JUMPI PUSH1 0x0 DUP1 REVERT JUMPDEST POP GAS CALL ISZERO DUP1 ISZERO PUSH2 0x1062 JUMPI RETURNDATASIZE PUSH1 0x0 DUP1 RETURNDATACOPY RETURNDATASIZE PUSH1 0x0 REVERT JUMPDEST POP POP POP POP PUSH1 0x40 MLOAD RETURNDATASIZE PUSH1 0x20 DUP2 LT ISZERO PUSH2 0x1078 JUMPI PUSH1 0x0 DUP1 REVERT JUMPDEST POP POP PUSH1 0x20 DUP4 ADD MLOAD PUSH2 0x108C SWAP1 CALLER SWAP1 PUSH1 0x0 PUSH2 0x1D76 JUMP JUMPDEST POP PUSH1 0x0 SWAP4 POP PUSH2 0x1282 JUMP JUMPDEST PUSH2 0x109F DUP8 PUSH2 0x189D JUMP JUMPDEST PUSH1 0x1 ADD SWAP2 POP PUSH2 0x10AE DUP8 DUP4 PUSH2 0x1F53 JUMP JUMPDEST POP PUSH1 0x1 SLOAD TIMESTAMP ADD SWAP1 POP PUSH2 0x10CB DUP8 DUP4 CALLER DUP10 DUP8 PUSH1 0x60 ADD MLOAD PUSH1 0x0 DUP1 DUP9 PUSH2 0x1B91 JUMP JUMPDEST POP PUSH2 0x110A DUP8 DUP5 PUSH1 0x0 ADD MLOAD DUP6 PUSH1 0x20 ADD MLOAD PUSH2 0x10F1 DUP11 DUP9 PUSH1 0x40 ADD MLOAD PUSH2 0x1C56 SWAP1 SWAP2 SWAP1 PUSH4 0xFFFFFFFF AND JUMP JUMPDEST DUP8 PUSH1 0x60 ADD MLOAD DUP9 PUSH1 0x80 ADD MLOAD DUP10 PUSH1 0xA0 ADD MLOAD DUP11 PUSH1 0xC0 ADD MLOAD PUSH2 0x1E9D JUMP JUMPDEST POP DUP3 PUSH1 0x80 ADD MLOAD ISZERO PUSH2 0x11E5 JUMPI PUSH1 0x20 DUP4 ADD MLOAD PUSH2 0x112E SWAP1 CALLER SWAP1 PUSH2 0xA6E DUP10 PUSH2 0x5CC DUP5 DUP5 PUSH2 0x1A34 JUMP JUMPDEST POP PUSH1 0x20 DUP4 ADD MLOAD PUSH2 0x1148 SWAP1 CALLER SWAP1 PUSH2 0x5D8 DUP10 PUSH2 0xA87 DUP5 DUP5 PUSH2 0x12AA JUMP JUMPDEST POP CALLER PUSH1 0x1 PUSH1 0xA0 PUSH1 0x2 EXP SUB AND DUP4 PUSH1 0x0 ADD MLOAD PUSH1 0x1 PUSH1 0xA0 PUSH1 0x2 EXP SUB AND DUP5 PUSH1 0x20 ADD MLOAD PUSH1 0x1 PUSH1 0xA0 PUSH1 0x2 EXP SUB AND PUSH32 0x8572520837758EE6D544B77E467AA6BB30EA06C0E78C287B0D2A7D106F25D166 DUP11 DUP7 DUP9 PUSH1 0x60 ADD MLOAD DUP13 DUP11 PUSH1 0xA0 ADD MLOAD PUSH1 0x40 MLOAD DUP1 DUP7 DUP2 MSTORE PUSH1 0x20 ADD DUP6 DUP2 MSTORE PUSH1 0x20 ADD DUP5 DUP2 MSTORE PUSH1 0x20 ADD DUP4 DUP2 MSTORE PUSH1 0x20 ADD DUP3 PUSH1 0x1 PUSH1 0xA0 PUSH1 0x2 EXP SUB AND PUSH1 0x1 PUSH1 0xA0 PUSH1 0x2 EXP SUB AND DUP2 MSTORE PUSH1 0x20 ADD SWAP6 POP POP POP POP POP POP PUSH1 0x40 MLOAD DUP1 SWAP2 SUB SWAP1 LOG4 PUSH2 0x127D JUMP JUMPDEST DUP3 PUSH1 0x0 ADD MLOAD PUSH1 0x1 PUSH1 0xA0 PUSH1 0x2 EXP SUB AND CALLER PUSH1 0x1 PUSH1 0xA0 PUSH1 0x2 EXP SUB AND DUP5 PUSH1 0x20 ADD MLOAD PUSH1 0x1 PUSH1 0xA0 PUSH1 0x2 EXP SUB AND PUSH32 0x8572520837758EE6D544B77E467AA6BB30EA06C0E78C287B0D2A7D106F25D166 DUP11 DUP7 DUP9 PUSH1 0x60 ADD MLOAD DUP13 DUP11 PUSH1 0xA0 ADD MLOAD PUSH1 0x40 MLOAD DUP1 DUP7 DUP2 MSTORE PUSH1 0x20 ADD DUP6 DUP2 MSTORE PUSH1 0x20 ADD DUP5 DUP2 MSTORE PUSH1 0x20 ADD DUP4 DUP2 MSTORE PUSH1 0x20 ADD DUP3 PUSH1 0x1 PUSH1 0xA0 PUSH1 0x2 EXP SUB AND PUSH1 0x1 PUSH1 0xA0 PUSH1 0x2 EXP SUB AND DUP2 MSTORE PUSH1 0x20 ADD SWAP6 POP POP POP POP POP POP PUSH1 0x40 MLOAD DUP1 SWAP2 SUB SWAP1 LOG4 JUMPDEST PUSH1 0x1 SWAP4 POP JUMPDEST POP POP POP SWAP4 SWAP3 POP POP POP JUMP JUMPDEST PUSH1 0x3 SLOAD PUSH1 0x1 PUSH1 0xA0 PUSH1 0x2 EXP SUB AND DUP2 JUMP JUMPDEST PUSH1 0x0 SLOAD PUSH1 0x1 PUSH1 0xA0 PUSH1 0x2 EXP SUB AND DUP2 JUMP JUMPDEST PUSH1 0x3 SLOAD PUSH1 0x40 DUP1 MLOAD PUSH32 0x97D901200000000000000000000000000000000000000000000000000000000 DUP2 MSTORE PUSH1 0x1 PUSH1 0xA0 PUSH1 0x2 EXP SUB DUP6 DUP2 AND PUSH1 0x4 DUP4 ADD MSTORE DUP5 DUP2 AND PUSH1 0x24 DUP4 ADD MSTORE SWAP2 MLOAD PUSH1 0x0 SWAP4 SWAP3 SWAP1 SWAP3 AND SWAP2 PUSH4 0x97D9012 SWAP2 PUSH1 0x44 DUP1 DUP3 ADD SWAP3 PUSH1 0x20 SWAP3 SWAP1 SWAP2 SWAP1 DUP3 SWAP1 SUB ADD DUP2 DUP8 DUP8 DUP1 EXTCODESIZE ISZERO DUP1 ISZERO PUSH2 0x131D JUMPI PUSH1 0x0 DUP1 REVERT JUMPDEST POP GAS CALL ISZERO DUP1 ISZERO PUSH2 0x1331 JUMPI RETURNDATASIZE PUSH1 0x0 DUP1 RETURNDATACOPY RETURNDATASIZE PUSH1 0x0 REVERT JUMPDEST POP POP POP POP PUSH1 0x40 MLOAD RETURNDATASIZE PUSH1 0x20 DUP2 LT ISZERO PUSH2 0x1347 JUMPI PUSH1 0x0 DUP1 REVERT JUMPDEST POP MLOAD SWAP4 SWAP3 POP POP POP JUMP JUMPDEST PUSH1 0x0 DUP1 PUSH1 0x0 DUP1 PUSH1 0x0 DUP1 PUSH1 0x3 PUSH1 0x0 SWAP1 SLOAD SWAP1 PUSH2 0x100 EXP SWAP1 DIV PUSH1 0x1 PUSH1 0xA0 PUSH1 0x2 EXP SUB AND PUSH1 0x1 PUSH1 0xA0 PUSH1 0x2 EXP SUB AND PUSH4 0xBF18E24E DUP10 DUP10 PUSH1 0x40 MLOAD DUP4 PUSH4 0xFFFFFFFF AND PUSH1 0xE0 PUSH1 0x2 EXP MUL DUP2 MSTORE PUSH1 0x4 ADD DUP1 DUP4 DUP2 MSTORE PUSH1 0x20 ADD DUP3 DUP2 MSTORE PUSH1 0x20 ADD SWAP3 POP POP POP PUSH1 0xC0 PUSH1 0x40 MLOAD DUP1 DUP4 SUB DUP2 PUSH1 0x0 DUP8 DUP1 EXTCODESIZE ISZERO DUP1 ISZERO PUSH2 0x13BF JUMPI PUSH1 0x0 DUP1 REVERT JUMPDEST POP GAS CALL ISZERO DUP1 ISZERO PUSH2 0x13D3 JUMPI RETURNDATASIZE PUSH1 0x0 DUP1 RETURNDATACOPY RETURNDATASIZE PUSH1 0x0 REVERT JUMPDEST POP POP POP POP PUSH1 0x40 MLOAD RETURNDATASIZE PUSH1 0xC0 DUP2 LT ISZERO PUSH2 0x13E9 JUMPI PUSH1 0x0 DUP1 REVERT JUMPDEST POP DUP1 MLOAD PUSH1 0x20 DUP3 ADD MLOAD PUSH1 0x40 DUP4 ADD MLOAD PUSH1 0x60 DUP5 ADD MLOAD PUSH1 0x80 DUP6 ADD MLOAD PUSH1 0xA0 SWAP1 SWAP6 ADD MLOAD SWAP4 SWAP14 SWAP3 SWAP13 POP SWAP1 SWAP11 POP SWAP9 POP SWAP2 SWAP7 POP SWAP5 POP SWAP3 POP POP POP JUMP JUMPDEST PUSH2 0x142E DUP4 CALLER PUSH2 0xA6E DUP6 PUSH2 0xA87 DUP9 CALLER PUSH2 0x1A34 JUMP JUMPDEST POP POP POP POP JUMP JUMPDEST PUSH1 0x0 DUP1 PUSH1 0x0 DUP1 PUSH1 0x0 DUP1 PUSH1 0x0 PUSH1 0x3 PUSH1 0x0 SWAP1 SLOAD SWAP1 PUSH2 0x100 EXP SWAP1 DIV PUSH1 0x1 PUSH1 0xA0 PUSH1 0x2 EXP SUB AND PUSH1 0x1 PUSH1 0xA0 PUSH1 0x2 EXP SUB AND PUSH4 0xD09EF241 DUP10 PUSH1 0x40 MLOAD DUP3 PUSH4 0xFFFFFFFF AND PUSH1 0xE0 PUSH1 0x2 EXP MUL DUP2 MSTORE PUSH1 0x4 ADD DUP1 DUP3 DUP2 MSTORE PUSH1 0x20 ADD SWAP2 POP POP PUSH1 0xE0 PUSH1 0x40 MLOAD DUP1 DUP4 SUB DUP2 PUSH1 0x0 DUP8 DUP1 EXTCODESIZE ISZERO DUP1 ISZERO PUSH2 0x149D JUMPI PUSH1 0x0 DUP1 REVERT JUMPDEST POP GAS CALL ISZERO DUP1 ISZERO PUSH2 0x14B1 JUMPI RETURNDATASIZE PUSH1 0x0 DUP1 RETURNDATACOPY RETURNDATASIZE PUSH1 0x0 REVERT JUMPDEST POP POP POP POP PUSH1 0x40 MLOAD RETURNDATASIZE PUSH1 0xE0 DUP2 LT ISZERO PUSH2 0x14C7 JUMPI PUSH1 0x0 DUP1 REVERT JUMPDEST POP DUP1 MLOAD PUSH1 0x20 DUP3 ADD MLOAD PUSH1 0x40 DUP4 ADD MLOAD PUSH1 0x60 DUP5 ADD MLOAD PUSH1 0x80 DUP6 ADD MLOAD PUSH1 0xA0 DUP7 ADD MLOAD PUSH1 0xC0 SWAP1 SWAP7 ADD MLOAD SWAP5 SWAP15 SWAP4 SWAP14 POP SWAP2 SWAP12 POP SWAP10 POP SWAP8 POP SWAP2 SWAP6 POP SWAP4 POP SWAP2 POP POP JUMP JUMPDEST PUSH1 0x0 PUSH2 0x1509 PUSH2 0x2051 JUMP JUMPDEST PUSH2 0x1511 PUSH2 0x208D JUMP JUMPDEST PUSH2 0x1519 PUSH2 0xD13 JUMP JUMPDEST DUP6 GT ISZERO PUSH2 0x1525 JUMPI PUSH1 0x0 DUP1 REVERT JUMPDEST PUSH2 0x152E DUP6 PUSH2 0x189D JUMP JUMPDEST DUP5 GT ISZERO PUSH2 0x153A JUMPI PUSH1 0x0 DUP1 REVERT JUMPDEST PUSH2 0x1543 DUP6 PUSH2 0x1434 JUMP JUMPDEST ISZERO ISZERO PUSH1 0xC0 DUP10 ADD MSTORE PUSH1 0x1 PUSH1 0xA0 PUSH1 0x2 EXP SUB SWAP1 DUP2 AND PUSH1 0xA0 DUP10 ADD MSTORE SWAP1 ISZERO ISZERO PUSH1 0x80 DUP9 ADD MSTORE PUSH1 0x60 DUP8 ADD SWAP2 SWAP1 SWAP2 MSTORE PUSH1 0x40 DUP7 ADD SWAP2 SWAP1 SWAP2 MSTORE SWAP1 DUP2 AND PUSH1 0x20 DUP6 ADD MSTORE AND DUP3 MSTORE PUSH2 0x1587 DUP6 DUP6 PUSH2 0x1350 JUMP JUMPDEST PUSH1 0xA0 DUP8 ADD MSTORE ISZERO ISZERO PUSH1 0x80 DUP7 ADD DUP2 SWAP1 MSTORE SWAP1 ISZERO ISZERO PUSH1 0x60 DUP7 ADD MSTORE PUSH1 0x40 DUP6 ADD SWAP2 SWAP1 SWAP2 MSTORE PUSH1 0x20 DUP5 ADD SWAP2 SWAP1 SWAP2 MSTORE PUSH1 0x1 PUSH1 0xA0 PUSH1 0x2 EXP SUB SWAP1 SWAP2 AND DUP3 MSTORE DUP1 PUSH2 0x15C6 JUMPI POP DUP1 PUSH1 0x60 ADD MLOAD JUMPDEST DUP1 PUSH2 0x15E7 JUMPI POP DUP2 PUSH1 0xA0 ADD MLOAD PUSH1 0x1 PUSH1 0xA0 PUSH1 0x2 EXP SUB AND CALLER PUSH1 0x1 PUSH1 0xA0 PUSH1 0x2 EXP SUB AND EQ ISZERO JUMPDEST ISZERO PUSH2 0x15F1 JUMPI PUSH1 0x0 DUP1 REVERT JUMPDEST PUSH2 0x1616 DUP6 DUP6 DUP4 PUSH1 0x0 ADD MLOAD DUP5 PUSH1 0x20 ADD MLOAD DUP6 PUSH1 0x40 ADD MLOAD DUP7 PUSH1 0x60 ADD MLOAD PUSH1 0x1 DUP9 PUSH1 0xA0 ADD MLOAD PUSH2 0x1B91 JUMP JUMPDEST POP DUP2 PUSH1 0x80 ADD MLOAD ISZERO PUSH2 0x1752 JUMPI DUP1 MLOAD PUSH1 0x20 DUP1 DUP5 ADD MLOAD SWAP1 DUP4 ADD MLOAD PUSH2 0x1641 SWAP3 SWAP2 SWAP1 PUSH2 0x5D8 SWAP1 PUSH2 0x5CC DUP5 DUP5 PUSH2 0x12AA JUMP JUMPDEST POP PUSH1 0x20 DUP1 DUP4 ADD MLOAD DUP4 MLOAD DUP4 DUP4 ADD MLOAD PUSH1 0x40 DUP1 MLOAD PUSH1 0x0 DUP1 MLOAD PUSH1 0x20 PUSH2 0x20C3 DUP4 CODECOPY DUP2 MLOAD SWAP2 MSTORE DUP2 MSTORE PUSH1 0x1 PUSH1 0xA0 PUSH1 0x2 EXP SUB SWAP4 DUP5 AND PUSH1 0x4 DUP3 ADD MSTORE PUSH1 0x24 DUP2 ADD SWAP3 SWAP1 SWAP3 MSTORE MLOAD SWAP2 SWAP1 SWAP3 AND SWAP3 PUSH4 0xA9059CBB SWAP3 PUSH1 0x44 DUP1 DUP3 ADD SWAP4 SWAP2 DUP3 SWAP1 SUB ADD DUP2 PUSH1 0x0 DUP8 DUP1 EXTCODESIZE ISZERO DUP1 ISZERO PUSH2 0x16A4 JUMPI PUSH1 0x0 DUP1 REVERT JUMPDEST POP GAS CALL ISZERO DUP1 ISZERO PUSH2 0x16B8 JUMPI RETURNDATASIZE PUSH1 0x0 DUP1 RETURNDATACOPY RETURNDATASIZE PUSH1 0x0 REVERT JUMPDEST POP POP POP POP PUSH1 0x40 MLOAD RETURNDATASIZE PUSH1 0x20 DUP2 LT ISZERO PUSH2 0x16CE JUMPI PUSH1 0x0 DUP1 REVERT JUMPDEST POP POP DUP1 MLOAD DUP3 MLOAD PUSH1 0x20 DUP1 DUP6 ADD MLOAD PUSH1 0x60 DUP1 DUP8 ADD MLOAD DUP4 DUP8 ADD MLOAD PUSH1 0xA0 DUP1 DUP11 ADD MLOAD PUSH1 0x40 DUP1 MLOAD DUP16 DUP2 MSTORE SWAP8 DUP9 ADD DUP15 SWAP1 MSTORE DUP8 DUP2 ADD SWAP5 SWAP1 SWAP5 MSTORE SWAP4 DUP7 ADD SWAP2 SWAP1 SWAP2 MSTORE PUSH1 0x1 PUSH1 0xA0 PUSH1 0x2 EXP SUB SWAP3 DUP4 AND PUSH1 0x80 DUP7 ADD MSTORE SWAP1 MLOAD SWAP6 DUP3 AND SWAP6 SWAP5 DUP3 AND SWAP5 SWAP2 SWAP1 SWAP3 AND SWAP3 PUSH32 0x1F33FCBCE82033CD7B26AE868BA28784C1E405A5A631CB7063527B4ACEB0B5CC SWAP3 SWAP1 DUP3 SWAP1 SUB ADD SWAP1 LOG4 PUSH2 0x187F JUMP JUMPDEST DUP2 MLOAD PUSH1 0x20 DUP1 DUP5 ADD MLOAD SWAP1 DUP4 ADD MLOAD PUSH2 0x1772 SWAP3 SWAP2 SWAP1 PUSH2 0x5D8 SWAP1 PUSH2 0x5CC DUP5 DUP5 PUSH2 0x12AA JUMP JUMPDEST POP PUSH1 0x20 DUP1 DUP4 ADD MLOAD DUP3 MLOAD DUP4 DUP4 ADD MLOAD PUSH1 0x40 DUP1 MLOAD PUSH1 0x0 DUP1 MLOAD PUSH1 0x20 PUSH2 0x20C3 DUP4 CODECOPY DUP2 MLOAD SWAP2 MSTORE DUP2 MSTORE PUSH1 0x1 PUSH1 0xA0 PUSH1 0x2 EXP SUB SWAP4 DUP5 AND PUSH1 0x4 DUP3 ADD MSTORE PUSH1 0x24 DUP2 ADD SWAP3 SWAP1 SWAP3 MSTORE MLOAD SWAP2 SWAP1 SWAP3 AND SWAP3 PUSH4 0xA9059CBB SWAP3 PUSH1 0x44 DUP1 DUP3 ADD SWAP4 SWAP2 DUP3 SWAP1 SUB ADD DUP2 PUSH1 0x0 DUP8 DUP1 EXTCODESIZE ISZERO DUP1 ISZERO PUSH2 0x17D5 JUMPI PUSH1 0x0 DUP1 REVERT JUMPDEST POP GAS CALL ISZERO DUP1 ISZERO PUSH2 0x17E9 JUMPI RETURNDATASIZE PUSH1 0x0 DUP1 RETURNDATACOPY RETURNDATASIZE PUSH1 0x0 REVERT JUMPDEST POP POP POP POP PUSH1 0x40 MLOAD RETURNDATASIZE PUSH1 0x20 DUP2 LT ISZERO PUSH2 0x17FF JUMPI PUSH1 0x0 DUP1 REVERT JUMPDEST POP POP DUP2 MLOAD DUP2 MLOAD PUSH1 0x20 DUP1 DUP6 ADD MLOAD PUSH1 0x60 DUP1 DUP8 ADD MLOAD DUP4 DUP8 ADD MLOAD PUSH1 0xA0 DUP1 DUP11 ADD MLOAD PUSH1 0x40 DUP1 MLOAD DUP16 DUP2 MSTORE SWAP8 DUP9 ADD DUP15 SWAP1 MSTORE DUP8 DUP2 ADD SWAP5 SWAP1 SWAP5 MSTORE SWAP4 DUP7 ADD SWAP2 SWAP1 SWAP2 MSTORE PUSH1 0x1 PUSH1 0xA0 PUSH1 0x2 EXP SUB SWAP3 DUP4 AND PUSH1 0x80 DUP7 ADD MSTORE SWAP1 MLOAD SWAP6 DUP3 AND SWAP6 SWAP5 DUP3 AND SWAP5 SWAP2 SWAP1 SWAP3 AND SWAP3 PUSH32 0x1F33FCBCE82033CD7B26AE868BA28784C1E405A5A631CB7063527B4ACEB0B5CC SWAP3 SWAP1 DUP3 SWAP1 SUB ADD SWAP1 LOG4 JUMPDEST PUSH2 0x1891 DUP3 PUSH1 0x20 ADD MLOAD DUP4 PUSH1 0x60 ADD MLOAD PUSH2 0x1FE0 JUMP JUMPDEST POP PUSH1 0x1 SWAP6 SWAP5 POP POP POP POP POP JUMP JUMPDEST PUSH1 0x3 SLOAD PUSH1 0x40 DUP1 MLOAD PUSH32 0xC9EE7C9A00000000000000000000000000000000000000000000000000000000 DUP2 MSTORE PUSH1 0x4 DUP2 ADD DUP5 SWAP1 MSTORE SWAP1 MLOAD PUSH1 0x0 SWAP3 PUSH1 0x1 PUSH1 0xA0 PUSH1 0x2 EXP SUB AND SWAP2 PUSH4 0xC9EE7C9A SWAP2 PUSH1 0x24 DUP1 DUP4 ADD SWAP3 PUSH1 0x20 SWAP3 SWAP2 SWAP1 DUP3 SWAP1 SUB ADD DUP2 DUP8 DUP8 DUP1 EXTCODESIZE ISZERO DUP1 ISZERO PUSH2 0x1903 JUMPI PUSH1 0x0 DUP1 REVERT JUMPDEST POP GAS CALL ISZERO DUP1 ISZERO PUSH2 0x1917 JUMPI RETURNDATASIZE PUSH1 0x0 DUP1 RETURNDATACOPY RETURNDATASIZE PUSH1 0x0 REVERT JUMPDEST POP POP POP POP PUSH1 0x40 MLOAD RETURNDATASIZE PUSH1 0x20 DUP2 LT ISZERO PUSH2 0x192D JUMPI PUSH1 0x0 DUP1 REVERT JUMPDEST POP MLOAD SWAP3 SWAP2 POP POP JUMP JUMPDEST PUSH1 0x0 SLOAD PUSH1 0x1 PUSH1 0xA0 PUSH1 0x2 EXP SUB AND CALLER EQ PUSH2 0x194C JUMPI PUSH1 0x0 DUP1 REVERT JUMPDEST PUSH1 0x1 PUSH1 0xA0 PUSH1 0x2 EXP SUB DUP2 AND ISZERO ISZERO PUSH2 0x1961 JUMPI PUSH1 0x0 DUP1 REVERT JUMPDEST PUSH1 0x0 DUP1 SLOAD PUSH1 0x40 MLOAD PUSH1 0x1 PUSH1 0xA0 PUSH1 0x2 EXP SUB DUP1 DUP6 AND SWAP4 SWAP3 AND SWAP2 PUSH32 0x8BE0079C531659141344CD1FD0A4F28419497F9722A3DAAFE3B4186F6B6457E0 SWAP2 LOG3 PUSH1 0x0 DUP1 SLOAD PUSH20 0xFFFFFFFFFFFFFFFFFFFFFFFFFFFFFFFFFFFFFFFF NOT AND PUSH1 0x1 PUSH1 0xA0 PUSH1 0x2 EXP SUB SWAP3 SWAP1 SWAP3 AND SWAP2 SWAP1 SWAP2 OR SWAP1 SSTORE JUMP JUMPDEST PUSH1 0x3 SLOAD PUSH1 0x40 DUP1 MLOAD PUSH32 0xC692FC7400000000000000000000000000000000000000000000000000000000 DUP2 MSTORE PUSH1 0x1 PUSH1 0xA0 PUSH1 0x2 EXP SUB DUP5 DUP2 AND PUSH1 0x4 DUP4 ADD MSTORE SWAP2 MLOAD PUSH1 0x0 SWAP4 SWAP3 SWAP1 SWAP3 AND SWAP2 PUSH4 0xC692FC74 SWAP2 PUSH1 0x24 DUP1 DUP3 ADD SWAP3 PUSH1 0x20 SWAP3 SWAP1 SWAP2 SWAP1 DUP3 SWAP1 SUB ADD DUP2 DUP8 DUP8 DUP1 EXTCODESIZE ISZERO DUP1 ISZERO PUSH2 0x1903 JUMPI PUSH1 0x0 DUP1 REVERT JUMPDEST PUSH1 0x3 SLOAD PUSH1 0x40 DUP1 MLOAD PUSH32 0xD4FAC45D00000000000000000000000000000000000000000000000000000000 DUP2 MSTORE PUSH1 0x1 PUSH1 0xA0 PUSH1 0x2 EXP SUB DUP6 DUP2 AND PUSH1 0x4 DUP4 ADD MSTORE DUP5 DUP2 AND PUSH1 0x24 DUP4 ADD MSTORE SWAP2 MLOAD PUSH1 0x0 SWAP4 SWAP3 SWAP1 SWAP3 AND SWAP2 PUSH4 0xD4FAC45D SWAP2 PUSH1 0x44 DUP1 DUP3 ADD SWAP3 PUSH1 0x20 SWAP3 SWAP1 SWAP2 SWAP1 DUP3 SWAP1 SUB ADD DUP2 DUP8 DUP8 DUP1 EXTCODESIZE ISZERO DUP1 ISZERO PUSH2 0x131D JUMPI PUSH1 0x0 DUP1 REVERT JUMPDEST PUSH1 0x0 DUP1 PUSH2 0x1AB4 CALLER DUP5 PUSH2 0x1A34 JUMP JUMPDEST SWAP1 POP DUP1 ISZERO ISZERO PUSH2 0x1AC2 JUMPI PUSH1 0x0 DUP1 REVERT JUMPDEST PUSH1 0x40 DUP1 MLOAD PUSH1 0x0 DUP1 MLOAD PUSH1 0x20 PUSH2 0x20C3 DUP4 CODECOPY DUP2 MLOAD SWAP2 MSTORE DUP2 MSTORE CALLER PUSH1 0x4 DUP3 ADD MSTORE PUSH1 0x24 DUP2 ADD DUP4 SWAP1 MSTORE SWAP1 MLOAD PUSH1 0x1 PUSH1 0xA0 PUSH1 0x2 EXP SUB DUP6 AND SWAP2 PUSH4 0xA9059CBB SWAP2 PUSH1 0x44 DUP1 DUP4 ADD SWAP3 PUSH1 0x20 SWAP3 SWAP2 SWAP1 DUP3 SWAP1 SUB ADD DUP2 PUSH1 0x0 DUP8 DUP1 EXTCODESIZE ISZERO DUP1 ISZERO PUSH2 0x1B18 JUMPI PUSH1 0x0 DUP1 REVERT JUMPDEST POP GAS CALL ISZERO DUP1 ISZERO PUSH2 0x1B2C JUMPI RETURNDATASIZE PUSH1 0x0 DUP1 RETURNDATACOPY RETURNDATASIZE PUSH1 0x0 REVERT JUMPDEST POP POP POP POP PUSH1 0x40 MLOAD RETURNDATASIZE PUSH1 0x20 DUP2 LT ISZERO PUSH2 0x1B42 JUMPI PUSH1 0x0 DUP1 REVERT JUMPDEST POP PUSH2 0x1B51 SWAP1 POP CALLER DUP5 PUSH1 0x0 PUSH2 0x1D76 JUMP JUMPDEST POP PUSH1 0x40 MLOAD CALLER SWAP1 PUSH1 0x1 PUSH1 0xA0 PUSH1 0x2 EXP SUB DUP6 AND SWAP1 PUSH32 0xFEE4BD730C5342548069B84E6A6B38C19507A6FE4BBBC4AB6F648B1ED2AD5FC8 SWAP1 PUSH1 0x0 SWAP1 LOG3 POP PUSH1 0x1 SWAP3 SWAP2 POP POP JUMP JUMPDEST PUSH1 0x3 SLOAD PUSH1 0x40 DUP1 MLOAD PUSH32 0x4F75847800000000000000000000000000000000000000000000000000000000 DUP2 MSTORE PUSH1 0x4 DUP2 ADD DUP12 SWAP1 MSTORE PUSH1 0x24 DUP2 ADD DUP11 SWAP1 MSTORE PUSH1 0x1 PUSH1 0xA0 PUSH1 0x2 EXP SUB DUP10 DUP2 AND PUSH1 0x44 DUP4 ADD MSTORE PUSH1 0x64 DUP3 ADD DUP10 SWAP1 MSTORE PUSH1 0x84 DUP3 ADD DUP9 SWAP1 MSTORE DUP7 ISZERO ISZERO PUSH1 0xA4 DUP4 ADD MSTORE DUP6 ISZERO ISZERO PUSH1 0xC4 DUP4 ADD MSTORE PUSH1 0xE4 DUP3 ADD DUP6 SWAP1 MSTORE SWAP2 MLOAD PUSH1 0x0 SWAP4 SWAP3 SWAP1 SWAP3 AND SWAP2 PUSH4 0x4F758478 SWAP2 PUSH2 0x104 DUP1 DUP3 ADD SWAP3 DUP7 SWAP3 SWAP1 SWAP2 SWAP1 DUP3 SWAP1 SUB ADD DUP2 DUP4 DUP8 DUP1 EXTCODESIZE ISZERO DUP1 ISZERO PUSH2 0x1C2F JUMPI PUSH1 0x0 DUP1 REVERT JUMPDEST POP GAS CALL ISZERO DUP1 ISZERO PUSH2 0x1C43 JUMPI RETURNDATASIZE PUSH1 0x0 DUP1 RETURNDATACOPY RETURNDATASIZE PUSH1 0x0 REVERT JUMPDEST POP PUSH1 0x1 SWAP13 SWAP12 POP POP POP POP POP POP POP POP POP POP POP POP JUMP JUMPDEST PUSH1 0x0 DUP3 DUP3 GT ISZERO PUSH2 0x1C62 JUMPI INVALID JUMPDEST POP SWAP1 SUB SWAP1 JUMP JUMPDEST PUSH1 0x3 SLOAD PUSH1 0x40 DUP1 MLOAD PUSH32 0xD04C23AF00000000000000000000000000000000000000000000000000000000 DUP2 MSTORE PUSH1 0x1 PUSH1 0xA0 PUSH1 0x2 EXP SUB DUP7 DUP2 AND PUSH1 0x4 DUP4 ADD MSTORE DUP6 DUP2 AND PUSH1 0x24 DUP4 ADD MSTORE PUSH1 0x44 DUP3 ADD DUP6 SWAP1 MSTORE SWAP2 MLOAD PUSH1 0x0 SWAP4 SWAP3 SWAP1 SWAP3 AND SWAP2 PUSH4 0xD04C23AF SWAP2 PUSH1 0x64 DUP1 DUP3 ADD SWAP3 DUP7 SWAP3 SWAP1 SWAP2 SWAP1 DUP3 SWAP1 SUB ADD DUP2 DUP4 DUP8 DUP1 EXTCODESIZE ISZERO DUP1 ISZERO PUSH2 0x1CE1 JUMPI PUSH1 0x0 DUP1 REVERT JUMPDEST POP GAS CALL ISZERO DUP1 ISZERO PUSH2 0x1CF5 JUMPI RETURNDATASIZE PUSH1 0x0 DUP1 RETURNDATACOPY RETURNDATASIZE PUSH1 0x0 REVERT JUMPDEST POP PUSH1 0x1 SWAP8 SWAP7 POP POP POP POP POP POP POP JUMP JUMPDEST PUSH1 0x0 SWAP1 EXTCODESIZE GT SWAP1 JUMP JUMPDEST PUSH1 0x2 SLOAD PUSH1 0x40 DUP1 MLOAD PUSH32 0xFB3551FF00000000000000000000000000000000000000000000000000000000 DUP2 MSTORE PUSH1 0x1 PUSH1 0xA0 PUSH1 0x2 EXP SUB DUP5 DUP2 AND PUSH1 0x4 DUP4 ADD MSTORE SWAP2 MLOAD PUSH1 0x0 SWAP4 SWAP3 SWAP1 SWAP3 AND SWAP2 PUSH4 0xFB3551FF SWAP2 PUSH1 0x24 DUP1 DUP3 ADD SWAP3 PUSH1 0x20 SWAP3 SWAP1 SWAP2 SWAP1 DUP3 SWAP1 SUB ADD DUP2 DUP8 DUP8 DUP1 EXTCODESIZE ISZERO DUP1 ISZERO PUSH2 0x1903 JUMPI PUSH1 0x0 DUP1 REVERT JUMPDEST PUSH1 0x3 SLOAD PUSH1 0x40 DUP1 MLOAD PUSH32 0xB5C9CBBE00000000000000000000000000000000000000000000000000000000 DUP2 MSTORE PUSH1 0x1 PUSH1 0xA0 PUSH1 0x2 EXP SUB DUP7 DUP2 AND PUSH1 0x4 DUP4 ADD MSTORE DUP6 DUP2 AND PUSH1 0x24 DUP4 ADD MSTORE PUSH1 0x44 DUP3 ADD DUP6 SWAP1 MSTORE SWAP2 MLOAD PUSH1 0x0 SWAP4 SWAP3 SWAP1 SWAP3 AND SWAP2 PUSH4 0xB5C9CBBE SWAP2 PUSH1 0x64 DUP1 DUP3 ADD SWAP3 PUSH1 0x20 SWAP3 SWAP1 SWAP2 SWAP1 DUP3 SWAP1 SUB ADD DUP2 DUP8 DUP8 DUP1 EXTCODESIZE ISZERO DUP1 ISZERO PUSH2 0x1DF0 JUMPI PUSH1 0x0 DUP1 REVERT JUMPDEST POP GAS CALL ISZERO DUP1 ISZERO PUSH2 0x1E04 JUMPI RETURNDATASIZE PUSH1 0x0 DUP1 RETURNDATACOPY RETURNDATASIZE PUSH1 0x0 REVERT JUMPDEST POP POP POP POP PUSH1 0x40 MLOAD RETURNDATASIZE PUSH1 0x20 DUP2 LT ISZERO PUSH2 0x1E1A JUMPI PUSH1 0x0 DUP1 REVERT JUMPDEST POP MLOAD SWAP5 SWAP4 POP POP POP POP JUMP JUMPDEST PUSH1 0x3 SLOAD PUSH1 0x40 DUP1 MLOAD PUSH32 0xB953009100000000000000000000000000000000000000000000000000000000 DUP2 MSTORE PUSH1 0x4 DUP2 ADD DUP5 SWAP1 MSTORE SWAP1 MLOAD PUSH1 0x0 SWAP3 PUSH1 0x1 PUSH1 0xA0 PUSH1 0x2 EXP SUB AND SWAP2 PUSH4 0xB9530091 SWAP2 PUSH1 0x24 DUP1 DUP4 ADD SWAP3 DUP7 SWAP3 SWAP2 SWAP1 DUP3 SWAP1 SUB ADD DUP2 DUP4 DUP8 DUP1 EXTCODESIZE ISZERO DUP1 ISZERO PUSH2 0x1E89 JUMPI PUSH1 0x0 DUP1 REVERT JUMPDEST POP GAS CALL ISZERO DUP1 ISZERO PUSH2 0x1891 JUMPI RETURNDATASIZE PUSH1 0x0 DUP1 RETURNDATACOPY RETURNDATASIZE PUSH1 0x0 REVERT JUMPDEST PUSH1 0x3 SLOAD PUSH1 0x40 DUP1 MLOAD PUSH32 0x2270FA5E00000000000000000000000000000000000000000000000000000000 DUP2 MSTORE PUSH1 0x4 DUP2 ADD DUP12 SWAP1 MSTORE PUSH1 0x1 PUSH1 0xA0 PUSH1 0x2 EXP SUB DUP11 DUP2 AND PUSH1 0x24 DUP4 ADD MSTORE DUP10 DUP2 AND PUSH1 0x44 DUP4 ADD MSTORE PUSH1 0x64 DUP3 ADD DUP10 SWAP1 MSTORE PUSH1 0x84 DUP3 ADD DUP9 SWAP1 MSTORE DUP7 ISZERO ISZERO PUSH1 0xA4 DUP4 ADD MSTORE DUP6 DUP2 AND PUSH1 0xC4 DUP4 ADD MSTORE DUP5 ISZERO ISZERO PUSH1 0xE4 DUP4 ADD MSTORE SWAP2 MLOAD PUSH1 0x0 SWAP4 SWAP3 SWAP1 SWAP3 AND SWAP2 PUSH4 0x2270FA5E SWAP2 PUSH2 0x104 DUP1 DUP3 ADD SWAP3 DUP7 SWAP3 SWAP1 SWAP2 SWAP1 DUP3 SWAP1 SUB ADD DUP2 DUP4 DUP8 DUP1 EXTCODESIZE ISZERO DUP1 ISZERO PUSH2 0x1C2F JUMPI PUSH1 0x0 DUP1 REVERT JUMPDEST PUSH1 0x0 DUP3 DUP3 ADD DUP4 DUP2 LT ISZERO PUSH2 0x1F4C JUMPI INVALID JUMPDEST SWAP4 SWAP3 POP POP POP JUMP JUMPDEST PUSH1 0x3 SLOAD PUSH1 0x40 DUP1 MLOAD PUSH32 0xB12C52CF00000000000000000000000000000000000000000000000000000000 DUP2 MSTORE PUSH1 0x4 DUP2 ADD DUP6 SWAP1 MSTORE PUSH1 0x24 DUP2 ADD DUP5 SWAP1 MSTORE SWAP1 MLOAD PUSH1 0x0 SWAP3 PUSH1 0x1 PUSH1 0xA0 PUSH1 0x2 EXP SUB AND SWAP2 PUSH4 0xB12C52CF SWAP2 PUSH1 0x44 DUP1 DUP4 ADD SWAP3 DUP7 SWAP3 SWAP2 SWAP1 DUP3 SWAP1 SUB ADD DUP2 DUP4 DUP8 DUP1 EXTCODESIZE ISZERO DUP1 ISZERO PUSH2 0x1FBF JUMPI PUSH1 0x0 DUP1 REVERT JUMPDEST POP GAS CALL ISZERO DUP1 ISZERO PUSH2 0x1FD3 JUMPI RETURNDATASIZE PUSH1 0x0 DUP1 RETURNDATACOPY RETURNDATASIZE PUSH1 0x0 REVERT JUMPDEST POP PUSH1 0x1 SWAP7 SWAP6 POP POP POP POP POP POP JUMP JUMPDEST PUSH1 0x3 SLOAD PUSH1 0x40 DUP1 MLOAD PUSH32 0x1E7A80100000000000000000000000000000000000000000000000000000000 DUP2 MSTORE PUSH1 0x1 PUSH1 0xA0 PUSH1 0x2 EXP SUB DUP6 DUP2 AND PUSH1 0x4 DUP4 ADD MSTORE PUSH1 0x24 DUP3 ADD DUP6 SWAP1 MSTORE SWAP2 MLOAD PUSH1 0x0 SWAP4 SWAP3 SWAP1 SWAP3 AND SWAP2 PUSH4 0x1E7A801 SWAP2 PUSH1 0x44 DUP1 DUP3 ADD SWAP3 DUP7 SWAP3 SWAP1 SWAP2 SWAP1 DUP3 SWAP1 SUB ADD DUP2 DUP4 DUP8 DUP1 EXTCODESIZE ISZERO DUP1 ISZERO PUSH2 0x1FBF JUMPI PUSH1 0x0 DUP1 REVERT JUMPDEST PUSH1 0x40 DUP1 MLOAD PUSH1 0xE0 DUP2 ADD DUP3 MSTORE PUSH1 0x0 DUP1 DUP3 MSTORE PUSH1 0x20 DUP3 ADD DUP2 SWAP1 MSTORE SWAP2 DUP2 ADD DUP3 SWAP1 MSTORE PUSH1 0x60 DUP2 ADD DUP3 SWAP1 MSTORE PUSH1 0x80 DUP2 ADD DUP3 SWAP1 MSTORE PUSH1 0xA0 DUP2 ADD DUP3 SWAP1 MSTORE PUSH1 0xC0 DUP2 ADD SWAP2 SWAP1 SWAP2 MSTORE SWAP1 JUMP JUMPDEST PUSH1 0x40 DUP1 MLOAD PUSH1 0xC0 DUP2 ADD DUP3 MSTORE PUSH1 0x0 DUP1 DUP3 MSTORE PUSH1 0x20 DUP3 ADD DUP2 SWAP1 MSTORE SWAP2 DUP2 ADD DUP3 SWAP1 MSTORE PUSH1 0x60 DUP2 ADD DUP3 SWAP1 MSTORE PUSH1 0x80 DUP2 ADD DUP3 SWAP1 MSTORE PUSH1 0xA0 DUP2 ADD SWAP2 SWAP1 SWAP2 MSTORE SWAP1 JUMP STOP 0xa9 SDIV SWAP13 0xbb STOP STOP STOP STOP STOP STOP STOP STOP STOP STOP STOP STOP STOP STOP STOP STOP STOP STOP STOP STOP STOP STOP STOP STOP STOP STOP STOP STOP LOG1 PUSH6 0x627A7A723058 KECCAK256 PUSH13 0x7B62E078A7097B817380C0362B 0xb7 CODESIZE PUSH20 0x71135793A5CAABFCEEA09F5197B1690029000000 ",
  "sha1": "ff59ca7a5bf2f76927615b720c82582c9dae82b7",
  "source": "pragma solidity ^0.4.24;\n\nimport \"./SafeMath.sol\";\nimport \"./Ownable.sol\";\nimport \"./IbetMembership.sol\";\nimport \"./ExchangeStorage.sol\";\nimport \"./PaymentGateway.sol\";\n\n\n/// @title ibet Membership DEX\ncontract IbetMembershipExchange is Ownable {\n    using SafeMath for uint256;\n\n    /// 約定明細の有効期限\n    /// 現在の設定値は14日で設定している（長期の連休を考慮）\n    uint256 lockingPeriod = 1209600;\n\n    /// ---------------------------------------------------------------\n    /// Event\n    /// ---------------------------------------------------------------\n\n    /// Event：注文\n    event NewOrder(\n        address indexed tokenAddress,\n        uint256 orderId,\n        address indexed accountAddress,\n        bool indexed isBuy,\n        uint256 price,\n        uint256 amount,\n        address agentAddress\n    );\n\n    /// Event：注文取消\n    event CancelOrder(\n        address indexed tokenAddress,\n        uint256 orderId,\n        address indexed accountAddress,\n        bool indexed isBuy,\n        uint256 price,\n        uint256 amount,\n        address agentAddress\n    );\n\n    /// Event：約定\n    event Agree(\n        address indexed tokenAddress,\n        uint256 orderId,\n        uint256 agreementId,\n        address indexed buyAddress,\n        address indexed sellAddress,\n        uint256 price,\n        uint256 amount,\n        address agentAddress\n    );\n\n    /// Event：決済承認\n    event SettlementOK(\n        address indexed tokenAddress,\n        uint256 orderId,\n        uint256 agreementId,\n        address indexed buyAddress,\n        address indexed sellAddress,\n        uint256 price,\n        uint256 amount,\n        address agentAddress\n    );\n\n    /// Event：決済非承認\n    event SettlementNG(\n        address indexed tokenAddress,\n        uint256 orderId,\n        uint256 agreementId,\n        address indexed buyAddress,\n        address indexed sellAddress,\n        uint256 price,\n        uint256 amount,\n        address agentAddress\n    );\n\n    /// Event：全引き出し\n    event Withdrawal(\n        address indexed tokenAddress,\n        address indexed accountAddress\n    );\n\n    /// ---------------------------------------------------------------\n    /// Constructor\n    /// ---------------------------------------------------------------\n    address public paymentGatewayAddress;\n    address public storageAddress;\n\n    /// [CONSTRUCTOR]\n    /// @param _paymentGatewayAddress PaymentGatewayコントラクトアドレス\n    /// @param _storageAddress ExchangeStorageコントラクトアドレス\n    constructor(address _paymentGatewayAddress, address _storageAddress)\n        public\n    {\n        paymentGatewayAddress = _paymentGatewayAddress;\n        storageAddress = _storageAddress;\n    }\n\n    /// ---------------------------------------------------------------\n    /// Function: Storage\n    /// ---------------------------------------------------------------\n\n    /// 注文情報\n    struct Order {\n        address owner; // 注文実行者\n        address token; // トークンアドレス\n        uint256 amount; // 注文数量\n        uint256 price; // 注文単価\n        bool isBuy; // 売買区分（買い：True）\n        address agent; // 決済業者のアドレス\n        bool canceled; // キャンセル済みフラグ\n    }\n\n    /// 約定情報\n    struct Agreement {\n        address counterpart; // 約定相手\n        uint256 amount; // 約定数量\n        uint256 price; // 約定単価\n        bool canceled; // キャンセル済みフラグ\n        bool paid; // 支払済フラグ\n        uint256 expiry; // 有効期限（約定から１４日）\n    }\n\n    /// @notice 注文情報取得\n    /// @param _orderId 注文ID\n    /// @return owner 注文実行者\n    /// @return token トークンアドレス\n    /// @return amount 注文数量\n    /// @return price 注文単価\n    /// @return isBuy 売買区分\n    /// @return agent 決済業者のアドレス\n    /// @return canceled キャンセル済み状態\n    function getOrder(uint256 _orderId)\n        public\n        view\n        returns (\n            address owner,\n            address token,\n            uint256 amount,\n            uint256 price,\n            bool isBuy,\n            address agent,\n            bool canceled\n        )\n    {\n        return ExchangeStorage(storageAddress).getOrder(_orderId);\n    }\n\n    /// @notice 注文情報更新\n    /// @param _orderId 注文ID\n    /// @param _owner 注文実行者\n    /// @param _token トークンアドレス\n    /// @param _amount 注文数量\n    /// @param _price 注文単価\n    /// @param _isBuy 売買区分\n    /// @param _agent 決済業者のアドレス\n    /// @param _canceled キャンセル済み状態\n    /// @return 処理結果\n    function setOrder(\n        uint256 _orderId,\n        address _owner,\n        address _token,\n        uint256 _amount,\n        uint256 _price,\n        bool _isBuy,\n        address _agent,\n        bool _canceled\n    )\n        private\n        returns (bool)\n    {\n        ExchangeStorage(storageAddress).setOrder(\n            _orderId,\n            _owner,\n            _token,\n            _amount,\n            _price,\n            _isBuy,\n            _agent,\n            _canceled\n        );\n        return true;\n    }\n\n    /// @notice 約定情報取得\n    /// @param _orderId 注文ID\n    /// @param _agreementId 約定ID\n    /// @return _counterpart 約定相手\n    /// @return _amount 約定数量\n    /// @return _price 約定単価\n    /// @return _canceled キャンセル済み状態\n    /// @return _paid 支払済状態\n    /// @return _expiry 有効期限\n    function getAgreement(uint256 _orderId, uint256 _agreementId)\n        public\n        view\n        returns (\n            address _counterpart,\n            uint256 _amount,\n            uint256 _price,\n            bool _canceled,\n            bool _paid,\n            uint256 _expiry\n        )\n    {\n        return ExchangeStorage(storageAddress).getAgreement(_orderId, _agreementId);\n    }\n\n    /// @notice 約定情報更新\n    /// @param _orderId 注文ID\n    /// @param _agreementId 約定ID\n    /// @param _counterpart 約定相手\n    /// @param _amount 約定数量\n    /// @param _price 約定単価\n    /// @param _canceled キャンセル済み状態\n    /// @param _paid 支払済状態\n    /// @param _expiry 有効期限\n    /// @return 処理結果\n    function setAgreement(\n        uint256 _orderId,\n        uint256 _agreementId,\n        address _counterpart,\n        uint256 _amount,\n        uint256 _price,\n        bool _canceled,\n        bool _paid,\n        uint256 _expiry\n    )\n        private\n        returns (bool)\n    {\n        ExchangeStorage(storageAddress).setAgreement(\n            _orderId,\n            _agreementId,\n            _counterpart,\n            _amount,\n            _price,\n            _canceled,\n            _paid,\n            _expiry\n        );\n        return true;\n    }\n\n    /// @notice 直近注文ID取得\n    /// @return 直近注文ID\n    function latestOrderId()\n        public\n        view\n        returns (uint256)\n    {\n        return ExchangeStorage(storageAddress).getLatestOrderId();\n    }\n\n    /// @notice 直近注文ID更新\n    /// @param _value 更新後の直近注文ID\n    /// @return 処理結果\n    function setLatestOrderId(uint256 _value)\n        private\n        returns (bool)\n    {\n        ExchangeStorage(storageAddress).setLatestOrderId(_value);\n        return true;\n    }\n\n    /// @notice 直近約定ID取得\n    /// @param _orderId 注文ID\n    /// @return 直近約定ID\n    function latestAgreementId(uint256 _orderId)\n        public\n        view\n        returns (uint256)\n    {\n        return ExchangeStorage(storageAddress).getLatestAgreementId(_orderId);\n    }\n\n    /// @notice 直近約定ID更新\n    /// @param _orderId 注文ID\n    /// @param _value 更新後の直近約定ID\n    /// @return 処理結果\n    function setLatestAgreementId(uint256 _orderId, uint256 _value)\n        private\n        returns (bool)\n    {\n        ExchangeStorage(storageAddress).setLatestAgreementId(_orderId, _value);\n        return true;\n    }\n\n    /// @notice 残高参照\n    /// @param _account アカウントアドレス\n    /// @param _token トークンアドレス\n    /// @return 残高数量\n    function balanceOf(address _account, address _token)\n        public\n        view\n        returns (uint256)\n    {\n        return ExchangeStorage(storageAddress).getBalance(\n            _account,\n            _token\n        );\n    }\n\n    /// @notice 残高数量更新\n    /// @param _account アカウントアドレス\n    /// @param _token トークンアドレス\n    /// @param _value 更新後の残高数量\n    /// @return 処理結果\n    function setBalance(address _account, address _token, uint256 _value)\n        private\n        returns (bool)\n    {\n        return ExchangeStorage(storageAddress).setBalance(\n            _account,\n            _token,\n            _value\n        );\n    }\n\n    /// @notice 拘束数量参照\n    /// @param _account アカウントアドレス\n    /// @param _token トークンアドレス\n    /// @return 拘束数量\n    function commitmentOf(address _account, address _token)\n        public\n        view\n        returns (uint256)\n    {\n        return ExchangeStorage(storageAddress).getCommitment(\n            _account,\n            _token\n        );\n    }\n\n    /// @notice 拘束数量更新\n    /// @param _account アカウントアドレス\n    /// @param _token トークンアドレス\n    /// @param _value 更新後の拘束数量\n    /// @return 処理結果\n    function setCommitment(address _account, address _token, uint256 _value)\n        private\n        returns (bool)\n    {\n        ExchangeStorage(storageAddress).setCommitment(\n            _account,\n            _token,\n            _value\n        );\n        return true;\n    }\n\n    /// @notice 現在値参照\n    /// @param _token トークンアドレス\n    /// @return 現在値\n    function lastPrice(address _token)\n        public\n        view\n        returns(uint256)\n    {\n        return ExchangeStorage(storageAddress).getLastPrice(_token);\n    }\n\n    /// @notice 現在値更新\n    /// @param _token トークンアドレス\n    /// @param _value 更新後の現在値\n    /// @return 処理結果\n    function setLastPrice(address _token, uint256 _value)\n        private\n        returns (bool)\n    {\n        ExchangeStorage(storageAddress).setLastPrice(_token, _value);\n        return true;\n    }\n\n    /// ---------------------------------------------------------------\n    /// Function: Logic\n    /// ---------------------------------------------------------------\n\n    /// @notice Make注文\n    /// @param _token トークンアドレス\n    /// @param _amount 注文数量\n    /// @param _price 注文単価\n    /// @param _isBuy 売買区分\n    /// @param _agent 収納代行業者のアドレス\n    /// @return 処理結果\n    function createOrder(\n        address _token,\n        uint256 _amount,\n        uint256 _price,\n        bool _isBuy,\n        address _agent\n    )\n        public\n        returns (bool)\n    {\n        if (_isBuy == true) { // 買注文の場合\n            // <CHK>\n            //  1) 注文数量が0の場合\n            //  2) 取扱ステータスがFalseの場合\n            //  3) 買注文者がコントラクトアドレスの場合\n            //  4) 有効な収納代行業者（Agent）を指定していない場合\n            //   -> REVERT\n            if (_amount == 0 ||\n                IbetMembership(_token).status() == false ||\n                isContract(msg.sender) == true ||\n                validateAgent(_agent) == false)\n            {\n                revert();\n            }\n        }\n\n        if (_isBuy == false) { // 売注文の場合\n            // <CHK>\n            //  1) 注文数量が0の場合\n            //  2) 残高数量が発注数量に満たない場合\n            //  3) 取扱ステータスがFalseの場合\n            //  4) 有効な収納代行業者（Agent）を指定していない場合\n            //   -> 更新処理：全ての残高を投資家のアカウントに戻し、falseを返す\n            if (_amount == 0 ||\n                balanceOf(msg.sender, _token) < _amount ||\n                IbetMembership(_token).status() == false ||\n                validateAgent(_agent) == false)\n            {\n                IbetMembership(_token).transfer(msg.sender, balanceOf(msg.sender, _token));\n                setBalance(msg.sender, _token, 0);\n                return false;\n            }\n        }\n\n        // 更新処理：注文IDをカウントアップ -> 注文情報を挿入\n        uint256 orderId = latestOrderId() + 1;\n        setLatestOrderId(orderId);\n        setOrder(orderId, msg.sender, _token, _amount, _price, _isBuy, _agent, false);\n\n        // 更新処理：売り注文の場合、預かりを拘束\n        if (!_isBuy) {\n            setBalance(msg.sender, _token, balanceOf(msg.sender, _token).sub(_amount));\n            setCommitment(msg.sender, _token, commitmentOf(msg.sender, _token).add(_amount));\n        }\n\n        // イベント登録：新規注文\n        emit NewOrder(_token, orderId, msg.sender, _isBuy, _price, _amount, _agent);\n\n        return true;\n    }\n\n    /// @notice 注文キャンセル\n    /// @param _orderId 注文ID\n    /// @return 処理結果\n    function cancelOrder(uint256 _orderId)\n        public\n        returns (bool)\n    {\n        // <CHK>\n        //  指定した注文番号が、直近の注文ID以上の場合\n        //   -> REVERT\n        require(_orderId <= latestOrderId());\n\n        Order memory order;\n        (order.owner, order.token, order.amount, order.price, order.isBuy, order.agent, order.canceled) =\n            getOrder(_orderId);\n\n        // <CHK>\n        //  1) 元注文の残注文数量が0の場合\n        //  2) 注文がキャンセル済みの場合\n        //  3) 元注文の発注者と、注文キャンセルの実施者が異なる場合\n        //   -> REVERT\n        if (order.amount == 0 ||\n            order.canceled == true ||\n            order.owner != msg.sender) {\n            revert();\n        }\n\n        // 更新処理：売り注文の場合、注文で拘束している預かりを解放 => 残高を投資家のアカウントに戻す\n        if (!order.isBuy) {\n            setCommitment(msg.sender, order.token, commitmentOf(msg.sender, order.token).sub(order.amount));\n            IbetMembership(order.token).transfer(msg.sender,order.amount);\n        }\n\n        // 更新処理：キャンセル済みフラグをキャンセル済み（True）に更新\n        setOrder(_orderId, order.owner, order.token, order.amount, order.price, order.isBuy, order.agent, true);\n\n        // イベント登録：注文キャンセル\n        emit CancelOrder(order.token, _orderId, msg.sender,\n                        order.isBuy, order.price, order.amount, order.agent);\n\n        return true;\n    }\n\n    /// @notice Take注文\n    /// @param _orderId 注文ID\n    /// @param _amount 注文数量\n    /// @param _isBuy 売買区分\n    /// @return 処理結果\n    function executeOrder(uint256 _orderId, uint256 _amount, bool _isBuy)\n        public\n        returns (bool)\n    {\n        // <CHK>\n        //  指定した注文IDが直近の注文IDを超えている場合\n        require(_orderId <= latestOrderId());\n\n        Order memory order;\n        (order.owner, order.token, order.amount, order.price, order.isBuy, order.agent, order.canceled) =\n            getOrder(_orderId);\n\n        require(order.owner != 0x0000000000000000000000000000000000000000);\n\n        if (_isBuy == true) { // 買注文の場合\n            // <CHK>\n            //  1) 注文数量が0の場合\n            //  2) 元注文と、発注する注文が同一の売買区分の場合\n            //  3) 元注文の発注者と同一のアドレスからの発注の場合\n            //  4) 買注文者がコントラクトアドレスの場合\n            //  5) 元注文がキャンセル済の場合\n            //  6) 取扱ステータスがFalseの場合\n            //  7) 数量が元注文の残数量を超過している場合\n            //   -> REVERT\n            if (_amount == 0 ||\n                order.isBuy == _isBuy ||\n                msg.sender == order.owner ||\n                isContract(msg.sender) == true ||\n                order.canceled == true ||\n                IbetMembership(order.token).status() == false ||\n                order.amount < _amount )\n            {\n                revert();\n            }\n        }\n\n        if (_isBuy == false) { // 売注文の場合\n            // <CHK>\n            //  1) 注文数量が0の場合\n            //  2) 元注文と、発注する注文が同一の売買区分の場合\n            //  3) 元注文の発注者と同一のアドレスからの発注の場合\n            //  4) 元注文がキャンセル済の場合\n            //  5) 取扱ステータスがFalseの場合\n            //  6) 発注者の残高が発注数量を下回っている場合\n            //  7) 数量が元注文の残数量を超過している場合\n            //   -> 更新処理：残高を投資家のアカウントに全て戻し、falseを返す\n            if (_amount == 0 ||\n                order.isBuy == _isBuy ||\n                msg.sender == order.owner ||\n                order.canceled == true ||\n                IbetMembership(order.token).status() == false ||\n                balanceOf(msg.sender, order.token) < _amount ||\n                order.amount < _amount )\n            {\n                IbetMembership(order.token).transfer(msg.sender, balanceOf(msg.sender, order.token));\n                setBalance(msg.sender, order.token, 0);\n                return false;\n            }\n        }\n\n        // 更新処理：約定IDをカウントアップ => 約定情報を挿入する\n        uint256 agreementId = latestAgreementId(_orderId) + 1;\n        setLatestAgreementId(_orderId, agreementId);\n        uint256 expiry = now + lockingPeriod;\n        setAgreement(_orderId, agreementId, msg.sender, _amount, order.price, false, false, expiry);\n\n        // 更新処理：元注文の数量を減らす\n        setOrder(_orderId, order.owner, order.token, order.amount.sub(_amount),\n            order.price, order.isBuy, order.agent, order.canceled);\n\n        if (order.isBuy) {\n            // 更新処理：買い注文に対して売り注文で応じた場合、売りの預かりを拘束\n            setBalance(msg.sender, order.token, balanceOf(msg.sender, order.token).sub(_amount));\n            setCommitment(msg.sender, order.token, commitmentOf(msg.sender, order.token).add(_amount));\n            // イベント登録：約定\n            emit Agree(order.token, _orderId, agreementId, order.owner,\n                msg.sender, order.price, _amount, order.agent);\n        } else {\n            // イベント登録：約定\n            emit Agree(order.token, _orderId, agreementId,\n                msg.sender, order.owner, order.price, _amount, order.agent);\n        }\n\n        return true;\n    }\n\n    /// @notice 決済承認\n    /// @dev 注文時に指定された決済業者のみ実行が可能\n    /// @param _orderId 注文ID\n    /// @param _agreementId 約定ID\n    /// @return 処理結果\n    function confirmAgreement(uint256 _orderId, uint256 _agreementId)\n        public\n        returns (bool)\n    {\n        // <CHK>\n        //  1) 指定した注文番号が、直近の注文ID以上の場合\n        //  2) 指定した約定IDが、直近の約定ID以上の場合\n        //   -> REVERT\n        require(_orderId <= latestOrderId());\n        require(_agreementId <= latestAgreementId(_orderId));\n\n        Order memory order;\n        (order.owner, order.token, order.amount, order.price, order.isBuy,\n            order.agent, order.canceled) =\n                getOrder(_orderId);\n\n        Agreement memory agreement;\n        (agreement.counterpart, agreement.amount, agreement.price,\n            agreement.canceled, agreement.paid, agreement.expiry) =\n                getAgreement(_orderId, _agreementId);\n\n        // <CHK>\n        //  1) すでに決済承認済み（支払い済み）の場合\n        //  2) すでに決済非承認済み（キャンセル済み）の場合\n        //  3) 元注文で指定した決済業者ではない場合\n        //   -> REVERT\n        if (agreement.paid ||\n            agreement.canceled ||\n            msg.sender != order.agent) {\n            revert();\n        }\n\n        // 更新処理：支払い済みフラグを支払い済み（True）に更新する\n        setAgreement(_orderId, _agreementId, agreement.counterpart, agreement.amount, agreement.price,\n            agreement.canceled, true, agreement.expiry);\n\n        if (order.isBuy) {\n            // 更新処理：買注文の場合、突合相手（売り手）から注文者（買い手）へと資産移転を行う\n            setCommitment(\n                agreement.counterpart, order.token,\n                    commitmentOf(agreement.counterpart, order.token).sub(agreement.amount));\n            IbetMembership(order.token).transfer(order.owner,agreement.amount);\n            // イベント登録：決済OK\n            emit SettlementOK(order.token, _orderId, _agreementId,\n                order.owner, agreement.counterpart, order.price,\n                agreement.amount, order.agent);\n        } else {\n            // 更新処理：売注文の場合、注文者（売り手）から突合相手（買い手）へと資産移転を行う\n            setCommitment(\n                order.owner, order.token,\n                    commitmentOf(order.owner, order.token).sub(agreement.amount));\n            IbetMembership(order.token).transfer(agreement.counterpart, agreement.amount);\n            // イベント登録：決済OK\n            emit SettlementOK(order.token, _orderId, _agreementId,\n                agreement.counterpart, order.owner, order.price,\n                agreement.amount, order.agent);\n        }\n\n        // 更新処理：現在値を更新する\n        setLastPrice(order.token, order.price);\n\n        return true;\n    }\n\n    /// @notice 決済非承認\n    /// @dev 注文時に指定された決済業者から実行が可能、有効期限後はMake注文者も実行が可能\n    /// @param _orderId 注文ID\n    /// @param _agreementId 約定ID\n    /// @return 処理結果\n    function cancelAgreement(uint256 _orderId, uint256 _agreementId)\n        public\n        returns (bool)\n    {\n        // <CHK>\n        //  1) 指定した注文番号が、直近の注文ID以上の場合\n        //  2) 指定した約定IDが、直近の約定ID以上の場合\n        //   -> REVERT\n        require(_orderId <= latestOrderId());\n        require(_agreementId <= latestAgreementId(_orderId));\n\n        Order memory order;\n        (order.owner, order.token, order.amount, order.price, order.isBuy,\n            order.agent, order.canceled) =\n                getOrder(_orderId);\n\n        Agreement memory agreement;\n        (agreement.counterpart, agreement.amount, agreement.price,\n            agreement.canceled, agreement.paid, agreement.expiry) =\n                getAgreement(_orderId, _agreementId);\n\n        if (agreement.expiry <= now) { // 約定明細の有効期限を超過している場合\n          // <CHK>\n          //  1) すでに決済承認済み（支払い済み）の場合\n          //  2) すでに決済非承認済み（キャンセル済み）の場合\n          //  3) msg.senderが、 決済代行（agent）、発注者（owner）、約定相手（counterpart）以外の場合\n          //   -> REVERT\n          if (agreement.paid ||\n              agreement.canceled ||\n              (\n                msg.sender != order.agent &&\n                msg.sender != order.owner &&\n                msg.sender != agreement.counterpart\n              )\n          ) {\n              revert();\n          }\n        } else { // 約定明細の有効期限を超過していない場合\n          // <CHK>\n          //  1) すでに支払い済みの場合\n          //  2) すでに決済非承認済み（キャンセル済み）の場合\n          //  3) msg.senderが、決済代行（agent）以外の場合\n          //   -> REVERT\n          if (agreement.paid ||\n              agreement.canceled ||\n              msg.sender != order.agent\n          ) {\n              revert();\n          }\n        }\n\n        // 更新処理：キャンセル済みフラグをキャンセル（True）に更新する\n        setAgreement(_orderId, _agreementId, agreement.counterpart, agreement.amount, agreement.price,\n            true, agreement.paid, agreement.expiry);\n\n        if (order.isBuy) {\n            // 更新処理：買い注文の場合、突合相手（売り手）の預かりを解放 -> 預かりの引き出し\n            // 取り消した注文は無効化する（注文中状態に戻さない）\n            setCommitment(agreement.counterpart, order.token,\n                commitmentOf(agreement.counterpart, order.token).sub(agreement.amount));\n            IbetMembership(order.token).transfer(agreement.counterpart, agreement.amount);\n            // イベント登録：決済NG\n            emit SettlementNG(order.token, _orderId, _agreementId,\n                order.owner, agreement.counterpart, order.price,\n                agreement.amount, order.agent);\n        } else {\n            // 更新処理：売り注文の場合、突合相手（買い手）の注文数量だけ注文者（売り手）の預かりを解放\n            //  -> 預かりの引き出し。\n            // 取り消した注文は無効化する（注文中状態に戻さない）\n            setCommitment(order.owner, order.token,\n                commitmentOf(order.owner, order.token).sub(agreement.amount));\n            IbetMembership(order.token).transfer(order.owner,agreement.amount);\n            // イベント登録：決済NG\n            emit SettlementNG(order.token, _orderId, _agreementId,\n                agreement.counterpart, order.owner, order.price,\n                agreement.amount, order.agent);\n        }\n\n        return true;\n    }\n\n    /// @notice 全ての残高を引き出しする\n    /// @dev 未売却の預かりに対してのみ引き出しをおこなう。約定済、注文中の預かり（commitments）の引き出しはおこなわない。\n    /// @param _token トークンアドレス\n    /// @return 処理結果\n    function withdrawAll(address _token)\n        public\n        returns (bool)\n    {\n        uint256 balance = balanceOf(msg.sender, _token);\n\n        // <CHK>\n        //  残高がゼロの場合、REVERT\n        if (balance == 0 ) { revert(); }\n\n        // 更新処理：トークン引き出し（送信）\n        IbetMembership(_token).transfer(msg.sender, balance);\n        setBalance(msg.sender, _token, 0);\n\n        // イベント登録\n        emit Withdrawal(_token, msg.sender);\n\n        return true;\n    }\n\n    /// @notice Deposit Handler：デポジット処理\n    /// @param _from アカウントアドレス：残高を保有するアドレス\n    /// @param _value デポジット数量\n    function tokenFallback(address _from, uint _value, bytes memory /*_data*/)\n        public\n    {\n        setBalance(\n            _from,\n            msg.sender,\n            balanceOf(_from, msg.sender).add(_value)\n        );\n    }\n\n    /// @notice アドレスがコントラクトアドレスであるかを判定\n    /// @param _addr アドレス\n    /// @return is_contract 判定結果\n    function isContract(address _addr)\n      private\n      view\n      returns (bool is_contract)\n    {\n      uint length;\n      assembly {\n        length := extcodesize(_addr)\n      }\n      return (length>0);\n    }\n\n    /// @notice Agentアドレスが有効なものであることをチェックする\n    /// @param _addr アドレス\n    /// @return 有効状態\n    function validateAgent(address _addr)\n        private\n        view\n        returns (bool)\n    {\n        return PaymentGateway(paymentGatewayAddress).getAgent(_addr);\n    }\n\n}\n",
  "sourcePath": "contracts/IbetMembershipExchange.sol",
  "type": "contract"
}