{
  "abi": [
    {
      "constant": true,
      "inputs": [],
      "name": "name",
      "outputs": [
        {
          "name": "",
          "type": "string"
        }
      ],
      "payable": false,
      "stateMutability": "view",
      "type": "function"
    },
    {
      "constant": true,
      "inputs": [],
      "name": "totalSupply",
      "outputs": [
        {
          "name": "",
          "type": "uint256"
        }
      ],
      "payable": false,
      "stateMutability": "view",
      "type": "function"
    },
    {
      "constant": true,
      "inputs": [],
      "name": "status",
      "outputs": [
        {
          "name": "",
          "type": "bool"
        }
      ],
      "payable": false,
      "stateMutability": "view",
      "type": "function"
    },
    {
      "constant": false,
      "inputs": [
        {
          "name": "_from",
          "type": "address"
        },
        {
          "name": "_to",
          "type": "address"
        },
        {
          "name": "_value",
          "type": "uint256"
        }
      ],
      "name": "transferFrom",
      "outputs": [
        {
          "name": "",
          "type": "bool"
        }
      ],
      "payable": false,
      "stateMutability": "nonpayable",
      "type": "function"
    },
    {
      "constant": true,
      "inputs": [],
      "name": "tradableExchange",
      "outputs": [
        {
          "name": "",
          "type": "address"
        }
      ],
      "payable": false,
      "stateMutability": "view",
      "type": "function"
    },
    {
      "constant": false,
      "inputs": [
        {
          "name": "_memo",
          "type": "string"
        }
      ],
      "name": "setMemo",
      "outputs": [],
      "payable": false,
      "stateMutability": "nonpayable",
      "type": "function"
    },
    {
      "constant": true,
      "inputs": [
        {
          "name": "",
          "type": "address"
        }
      ],
      "name": "balances",
      "outputs": [
        {
          "name": "",
          "type": "uint256"
        }
      ],
      "payable": false,
      "stateMutability": "view",
      "type": "function"
    },
    {
      "constant": true,
      "inputs": [],
      "name": "decimals",
      "outputs": [
        {
          "name": "",
          "type": "uint8"
        }
      ],
      "payable": false,
      "stateMutability": "view",
      "type": "function"
    },
    {
      "constant": true,
      "inputs": [],
      "name": "contactInformation",
      "outputs": [
        {
          "name": "",
          "type": "string"
        }
      ],
      "payable": false,
      "stateMutability": "view",
      "type": "function"
    },
    {
      "constant": false,
      "inputs": [
        {
          "name": "_details",
          "type": "string"
        }
      ],
      "name": "setDetails",
      "outputs": [],
      "payable": false,
      "stateMutability": "nonpayable",
      "type": "function"
    },
    {
      "constant": true,
      "inputs": [],
      "name": "privacyPolicy",
      "outputs": [
        {
          "name": "",
          "type": "string"
        }
      ],
      "payable": false,
      "stateMutability": "view",
      "type": "function"
    },
    {
      "constant": false,
      "inputs": [
        {
          "name": "_value",
          "type": "uint256"
        }
      ],
      "name": "consume",
      "outputs": [],
      "payable": false,
      "stateMutability": "nonpayable",
      "type": "function"
    },
    {
      "constant": false,
      "inputs": [
        {
          "name": "_data",
          "type": "string"
        }
      ],
      "name": "applyForOffering",
      "outputs": [],
      "payable": false,
      "stateMutability": "nonpayable",
      "type": "function"
    },
    {
      "constant": true,
      "inputs": [],
      "name": "details",
      "outputs": [
        {
          "name": "",
          "type": "string"
        }
      ],
      "payable": false,
      "stateMutability": "view",
      "type": "function"
    },
    {
      "constant": true,
      "inputs": [],
      "name": "memo",
      "outputs": [
        {
          "name": "",
          "type": "string"
        }
      ],
      "payable": false,
      "stateMutability": "view",
      "type": "function"
    },
    {
      "constant": false,
      "inputs": [
        {
          "name": "_status",
          "type": "bool"
        }
      ],
      "name": "setStatus",
      "outputs": [],
      "payable": false,
      "stateMutability": "nonpayable",
      "type": "function"
    },
    {
      "constant": true,
      "inputs": [
        {
          "name": "",
          "type": "uint8"
        }
      ],
      "name": "image_urls",
      "outputs": [
        {
          "name": "",
          "type": "string"
        }
      ],
      "payable": false,
      "stateMutability": "view",
      "type": "function"
    },
    {
      "constant": true,
      "inputs": [
        {
          "name": "_owner",
          "type": "address"
        }
      ],
      "name": "balanceOf",
      "outputs": [
        {
          "name": "",
          "type": "uint256"
        }
      ],
      "payable": false,
      "stateMutability": "view",
      "type": "function"
    },
    {
      "constant": false,
      "inputs": [
        {
          "name": "_exchange",
          "type": "address"
        }
      ],
      "name": "setTradableExchange",
      "outputs": [],
      "payable": false,
      "stateMutability": "nonpayable",
      "type": "function"
    },
    {
      "constant": true,
      "inputs": [
        {
          "name": "",
          "type": "address"
        }
      ],
      "name": "applications",
      "outputs": [
        {
          "name": "",
          "type": "string"
        }
      ],
      "payable": false,
      "stateMutability": "view",
      "type": "function"
    },
    {
      "constant": true,
      "inputs": [],
      "name": "initialOfferingStatus",
      "outputs": [
        {
          "name": "",
          "type": "bool"
        }
      ],
      "payable": false,
      "stateMutability": "view",
      "type": "function"
    },
    {
      "constant": true,
      "inputs": [],
      "name": "returnDetails",
      "outputs": [
        {
          "name": "",
          "type": "string"
        }
      ],
      "payable": false,
      "stateMutability": "view",
      "type": "function"
    },
    {
      "constant": false,
      "inputs": [
        {
          "name": "_status",
          "type": "bool"
        }
      ],
      "name": "setInitialOfferingStatus",
      "outputs": [],
      "payable": false,
      "stateMutability": "nonpayable",
      "type": "function"
    },
    {
      "constant": true,
      "inputs": [],
      "name": "owner",
      "outputs": [
        {
          "name": "",
          "type": "address"
        }
      ],
      "payable": false,
      "stateMutability": "view",
      "type": "function"
    },
    {
      "constant": false,
      "inputs": [
        {
          "name": "_privacyPolicy",
          "type": "string"
        }
      ],
      "name": "setPrivacyPolicy",
      "outputs": [],
      "payable": false,
      "stateMutability": "nonpayable",
      "type": "function"
    },
    {
      "constant": true,
      "inputs": [],
      "name": "expirationDate",
      "outputs": [
        {
          "name": "",
          "type": "string"
        }
      ],
      "payable": false,
      "stateMutability": "view",
      "type": "function"
    },
    {
      "constant": true,
      "inputs": [],
      "name": "transferable",
      "outputs": [
        {
          "name": "",
          "type": "bool"
        }
      ],
      "payable": false,
      "stateMutability": "view",
      "type": "function"
    },
    {
      "constant": true,
      "inputs": [],
      "name": "symbol",
      "outputs": [
        {
          "name": "",
          "type": "string"
        }
      ],
      "payable": false,
      "stateMutability": "view",
      "type": "function"
    },
    {
      "constant": false,
      "inputs": [
        {
          "name": "_transferable",
          "type": "bool"
        }
      ],
      "name": "setTransferable",
      "outputs": [],
      "payable": false,
      "stateMutability": "nonpayable",
      "type": "function"
    },
    {
      "constant": true,
      "inputs": [
        {
          "name": "",
          "type": "address"
        }
      ],
      "name": "useds",
      "outputs": [
        {
          "name": "",
          "type": "uint256"
        }
      ],
      "payable": false,
      "stateMutability": "view",
      "type": "function"
    },
    {
      "constant": false,
      "inputs": [
        {
          "name": "_class",
          "type": "uint8"
        },
        {
          "name": "_image_url",
          "type": "string"
        }
      ],
      "name": "setImageURL",
      "outputs": [],
      "payable": false,
      "stateMutability": "nonpayable",
      "type": "function"
    },
    {
      "constant": false,
      "inputs": [
        {
          "name": "_to",
          "type": "address"
        },
        {
          "name": "_value",
          "type": "uint256"
        }
      ],
      "name": "transfer",
      "outputs": [
        {
          "name": "success",
          "type": "bool"
        }
      ],
      "payable": false,
      "stateMutability": "nonpayable",
      "type": "function"
    },
    {
      "constant": true,
      "inputs": [
        {
          "name": "_owner",
          "type": "address"
        }
      ],
      "name": "usedOf",
      "outputs": [
        {
          "name": "",
          "type": "uint256"
        }
      ],
      "payable": false,
      "stateMutability": "view",
      "type": "function"
    },
    {
      "constant": false,
      "inputs": [
        {
          "name": "_contactInformation",
          "type": "string"
        }
      ],
      "name": "setContactInformation",
      "outputs": [],
      "payable": false,
      "stateMutability": "nonpayable",
      "type": "function"
    },
    {
      "constant": false,
      "inputs": [
        {
          "name": "_returnDetails",
          "type": "string"
        }
      ],
      "name": "setReturnDetails",
      "outputs": [],
      "payable": false,
      "stateMutability": "nonpayable",
      "type": "function"
    },
    {
      "constant": false,
      "inputs": [
        {
          "name": "_expirationDate",
          "type": "string"
        }
      ],
      "name": "setExpirationDate",
      "outputs": [],
      "payable": false,
      "stateMutability": "nonpayable",
      "type": "function"
    },
    {
      "constant": false,
      "inputs": [
        {
          "name": "_value",
          "type": "uint256"
        }
      ],
      "name": "issue",
      "outputs": [],
      "payable": false,
      "stateMutability": "nonpayable",
      "type": "function"
    },
    {
      "constant": false,
      "inputs": [
        {
          "name": "newOwner",
          "type": "address"
        }
      ],
      "name": "transferOwnership",
      "outputs": [],
      "payable": false,
      "stateMutability": "nonpayable",
      "type": "function"
    },
    {
      "constant": true,
      "inputs": [
        {
          "name": "_class",
          "type": "uint8"
        }
      ],
      "name": "getImageURL",
      "outputs": [
        {
          "name": "",
          "type": "string"
        }
      ],
      "payable": false,
      "stateMutability": "view",
      "type": "function"
    },
    {
      "inputs": [
        {
          "name": "_name",
          "type": "string"
        },
        {
          "name": "_symbol",
          "type": "string"
        },
        {
          "name": "_totalSupply",
          "type": "uint256"
        },
        {
          "name": "_tradableExchange",
          "type": "address"
        },
        {
          "name": "_details",
          "type": "string"
        },
        {
          "name": "_returnDetails",
          "type": "string"
        },
        {
          "name": "_memo",
          "type": "string"
        },
        {
          "name": "_expirationDate",
          "type": "string"
        },
        {
          "name": "_transferable",
          "type": "bool"
        },
        {
          "name": "_contactInformation",
          "type": "string"
        },
        {
          "name": "_privacyPolicy",
          "type": "string"
        }
      ],
      "payable": false,
      "stateMutability": "nonpayable",
      "type": "constructor"
    },
    {
      "anonymous": false,
      "inputs": [
        {
          "indexed": true,
          "name": "from",
          "type": "address"
        },
        {
          "indexed": true,
          "name": "to",
          "type": "address"
        },
        {
          "indexed": false,
          "name": "value",
          "type": "uint256"
        }
      ],
      "name": "Transfer",
      "type": "event"
    },
    {
      "anonymous": false,
      "inputs": [
        {
          "indexed": true,
          "name": "status",
          "type": "bool"
        }
      ],
      "name": "ChangeStatus",
      "type": "event"
    },
    {
      "anonymous": false,
      "inputs": [
        {
          "indexed": true,
          "name": "consumer",
          "type": "address"
        },
        {
          "indexed": false,
          "name": "balance",
          "type": "uint256"
        },
        {
          "indexed": false,
          "name": "used",
          "type": "uint256"
        },
        {
          "indexed": false,
          "name": "value",
          "type": "uint256"
        }
      ],
      "name": "Consume",
      "type": "event"
    },
    {
      "anonymous": false,
      "inputs": [
        {
          "indexed": true,
          "name": "accountAddress",
          "type": "address"
        }
      ],
      "name": "ApplyFor",
      "type": "event"
    },
    {
      "anonymous": false,
      "inputs": [
        {
          "indexed": true,
          "name": "previousOwner",
          "type": "address"
        },
        {
          "indexed": true,
          "name": "newOwner",
          "type": "address"
        }
      ],
      "name": "OwnershipTransferred",
      "type": "event"
    }
  ],
  "bytecode": "60806040523480156200001157600080fd5b5060405162001a7638038062001a768339810160409081528151602080840151928401516060850151608086015160a087015160c088015160e08901516101008a01516101208b01516101408c01516000805433600160a060020a03199182168117909255600180549091169091179055998c018051909c9b8c019b989a9799968901989586019794860196938601959294918301939190920191620000be91600291908e0190620001c6565b508951620000d49060039060208d0190620001c6565b50600489905560058054600160a060020a031916600160a060020a038a1617905586516200010a9060099060208a0190620001c6565b5085516200012090600a906020890190620001c6565b5084516200013690600c906020880190620001c6565b5083516200014c90600b906020870190620001c6565b50600454600154600160a060020a03166000908152600e6020908152604090912091909155600d805461010060ff199091168615151761ff00191617905582516200019e9160069190850190620001c6565b508051620001b4906007906020840190620001c6565b5050505050505050505050506200026b565b828054600181600116156101000203166002900490600052602060002090601f016020900481019282601f106200020957805160ff191683800117855562000239565b8280016001018555821562000239579182015b82811115620002395782518255916020019190600101906200021c565b50620002479291506200024b565b5090565b6200026891905b8082111562000247576000815560010162000252565b90565b6117fb806200027b6000396000f3006080604052600436106101e25763ffffffff7c010000000000000000000000000000000000000000000000000000000060003504166306fdde0381146101e757806318160ddd14610271578063200d2ed21461029857806323b872dd146102c157806325287d42146102eb57806325d608611461031c57806327e235e314610377578063313ce5671461039857806336f7ab5e146103c35780633e8a8009146103d8578063428630f614610431578063483f31ab146104465780635540e7cf1461045e578063565974d3146104b757806358c3b870146104cc5780635c40f6f4146104e157806360bf50fc146104fb57806370a082311461051657806376fa7a31146105375780637c3bf42d14610558578063833e0d8c146105795780638739e6631461058e57806388539011146105a35780638da5cb5b146105bd5780638ed8a9bc146105d25780638f6204871461062b57806392ff0d311461064057806395d89b41146106555780639cd237071461066a5780639ce9605514610684578063a124beba146106a5578063a9059cbb14610706578063ab2959ff1461072a578063b967a52e1461074b578063c72fe065146107a4578063c9c92277146107fd578063cc872b6614610856578063f2fde38b1461086e578063ffca397b1461088f575b600080fd5b3480156101f357600080fd5b506101fc6108aa565b6040805160208082528351818301528351919283929083019185019080838360005b8381101561023657818101518382015260200161021e565b50505050905090810190601f1680156102635780820380516001836020036101000a031916815260200191505b509250505060405180910390f35b34801561027d57600080fd5b50610286610935565b60408051918252519081900360200190f35b3480156102a457600080fd5b506102ad61093b565b604080519115158252519081900360200190f35b3480156102cd57600080fd5b506102ad600160a060020a0360043581169060243516604435610949565b3480156102f757600080fd5b50610300610b81565b60408051600160a060020a039092168252519081900360200190f35b34801561032857600080fd5b506040805160206004803580820135601f8101849004840285018401909552848452610375943694929360249392840191908190840183828082843750949750610b909650505050505050565b005b34801561038357600080fd5b50610286600160a060020a0360043516610bbe565b3480156103a457600080fd5b506103ad610bd0565b6040805160ff9092168252519081900360200190f35b3480156103cf57600080fd5b506101fc610bd5565b3480156103e457600080fd5b506040805160206004803580820135601f8101849004840285018401909552848452610375943694929360249392840191908190840183828082843750949750610c309650505050505050565b34801561043d57600080fd5b506101fc610c5a565b34801561045257600080fd5b50610375600435610cb5565b34801561046a57600080fd5b506040805160206004803580820135601f8101849004840285018401909552848452610375943694929360249392840191908190840183828082843750949750610d729650505050505050565b3480156104c357600080fd5b506101fc610ddb565b3480156104d857600080fd5b506101fc610e36565b3480156104ed57600080fd5b506103756004351515610e91565b34801561050757600080fd5b506101fc60ff60043516610ef7565b34801561052257600080fd5b50610286600160a060020a0360043516610f5f565b34801561054357600080fd5b50610375600160a060020a0360043516610f7a565b34801561056457600080fd5b506101fc600160a060020a0360043516610fc0565b34801561058557600080fd5b506102ad611028565b34801561059a57600080fd5b506101fc611037565b3480156105af57600080fd5b506103756004351515611092565b3480156105c957600080fd5b506103006110c5565b3480156105de57600080fd5b506040805160206004803580820135601f81018490048402850184019095528484526103759436949293602493928401919081908401838280828437509497506110d49650505050505050565b34801561063757600080fd5b506101fc6110fe565b34801561064c57600080fd5b506102ad611159565b34801561066157600080fd5b506101fc611162565b34801561067657600080fd5b5061037560043515156111bd565b34801561069057600080fd5b50610286600160a060020a03600435166111e7565b3480156106b157600080fd5b5060408051602060046024803582810135601f810185900485028601850190965285855261037595833560ff169536956044949193909101919081908401838280828437509497506111f99650505050505050565b34801561071257600080fd5b506102ad600160a060020a0360043516602435611238565b34801561073657600080fd5b50610286600160a060020a03600435166112a9565b34801561075757600080fd5b506040805160206004803580820135601f81018490048402850184019095528484526103759436949293602493928401919081908401838280828437509497506112c49650505050505050565b3480156107b057600080fd5b506040805160206004803580820135601f81018490048402850184019095528484526103759436949293602493928401919081908401838280828437509497506112ee9650505050505050565b34801561080957600080fd5b506040805160206004803580820135601f81018490048402850184019095528484526103759436949293602493928401919081908401838280828437509497506113189650505050505050565b34801561086257600080fd5b50610375600435611342565b34801561087a57600080fd5b50610375600160a060020a03600435166113a8565b34801561089b57600080fd5b506101fc60ff6004351661143c565b6002805460408051602060018416156101000260001901909316849004601f8101849004840282018401909252818152929183018282801561092d5780601f106109025761010080835404028352916020019161092d565b820191906000526020600020905b81548152906001019060200180831161091057829003601f168201915b505050505081565b60045481565b600d54610100900460ff1681565b600080546060908290600160a060020a0316331461096657600080fd5b8361097087610f5f565b101561097b57600080fd5b610984856114e1565b15610add576109a28461099688610f5f565b9063ffffffff6114e916565b600160a060020a0387166000908152600e60205260409020556109d4846109c887610f5f565b9063ffffffff6114fb16565b600160a060020a0386166000818152600e602090815260408083209490945592517fc0ee0b8a0000000000000000000000000000000000000000000000000000000081523360048201818152602483018a90526060604484019081528851606485015288518c9850959663c0ee0b8a9693958c958b956084909101928601918190849084905b83811015610a72578181015183820152602001610a5a565b50505050905090810190601f168015610a9f5780820380516001836020036101000a031916815260200191505b50945050505050600060405180830381600087803b158015610ac057600080fd5b505af1158015610ad4573d6000803e3d6000fd5b50505050610b2a565b610aea8461099688610f5f565b600160a060020a0387166000908152600e6020526040902055610b10846109c887610f5f565b600160a060020a0386166000908152600e60205260409020555b84600160a060020a031686600160a060020a03167fddf252ad1be2c89b69c2b068fc378daa952ba7f163c4a11628f55a4df523b3ef866040518082815260200191505060405180910390a350600195945050505050565b600554600160a060020a031681565b600054600160a060020a03163314610ba757600080fd5b8051610bba90600c906020840190611734565b5050565b600e6020526000908152604090205481565b600081565b6006805460408051602060026001851615610100026000190190941693909304601f8101849004840282018401909252818152929183018282801561092d5780601f106109025761010080835404028352916020019161092d565b600054600160a060020a03163314610c4757600080fd5b8051610bba906009906020840190611734565b6007805460408051602060026001851615610100026000190190941693909304601f8101849004840282018401909252818152929183018282801561092d5780601f106109025761010080835404028352916020019161092d565b80610cbf33610f5f565b1015610cca57600080fd5b600d54610100900460ff161515610ce057600080fd5b610ced8161099633610f5f565b336000818152600e6020526040902091909155610d0f9082906109c8906112a9565b336000818152600f60208181526040808420869055600e8252928390205491815282519182528101939093528281018490525190917fd9380a77212b15ea71f279a52a60415086a7679b50528cb78e9db6ea848698d5919081900360600190a250565b600d5462010000900460ff161515600114610d8c57600080fd5b3360009081526011602090815260409091208251610dac92840190611734565b5060405133907fa0a0cb7a71308c6bc8ff419bcc1cc3e9fd3009c7edf8a8d8c506ca5c46688b4990600090a250565b6009805460408051602060026001851615610100026000190190941693909304601f8101849004840282018401909252818152929183018282801561092d5780601f106109025761010080835404028352916020019161092d565b600c805460408051602060026001851615610100026000190190941693909304601f8101849004840282018401909252818152929183018282801561092d5780601f106109025761010080835404028352916020019161092d565b600054600160a060020a03163314610ea857600080fd5b600d805461ff0019166101008315158102919091179182905560405160ff91909204161515907fe1e5c6f5867805bf3fab73f4df4b80d0e87e9262a7bc22ac7c2cb3fd5896222f90600090a250565b60106020908152600091825260409182902080548351601f60026000196101006001861615020190931692909204918201849004840281018401909452808452909183018282801561092d5780601f106109025761010080835404028352916020019161092d565b600160a060020a03166000908152600e602052604090205490565b600054600160a060020a03163314610f9157600080fd5b6005805473ffffffffffffffffffffffffffffffffffffffff1916600160a060020a0392909216919091179055565b60116020908152600091825260409182902080548351601f60026000196101006001861615020190931692909204918201849004840281018401909452808452909183018282801561092d5780601f106109025761010080835404028352916020019161092d565b600d5462010000900460ff1681565b600a805460408051602060026001851615610100026000190190941693909304601f8101849004840282018401909252818152929183018282801561092d5780601f106109025761010080835404028352916020019161092d565b600054600160a060020a031633146110a957600080fd5b600d8054911515620100000262ff000019909216919091179055565b600154600160a060020a031681565b600054600160a060020a031633146110eb57600080fd5b8051610bba906007906020840190611734565b600b805460408051602060026001851615610100026000190190941693909304601f8101849004840282018401909252818152929183018282801561092d5780601f106109025761010080835404028352916020019161092d565b600d5460ff1681565b6003805460408051602060026001851615610100026000190190941693909304601f8101849004840282018401909252818152929183018282801561092d5780601f106109025761010080835404028352916020019161092d565b600054600160a060020a031633146111d457600080fd5b600d805460ff1916911515919091179055565b600f6020526000908152604090205481565b600054600160a060020a0316331461121057600080fd5b60ff82166000908152601060209081526040909120825161123392840190611734565b505050565b600060608261124633610f5f565b101561125157600080fd5b600554600160a060020a0316331461127757600d5460ff16151560011461127757600080fd5b611280846114e1565b1561129757611290848483611511565b91506112a2565b6112908484836116a9565b5092915050565b600160a060020a03166000908152600f602052604090205490565b600054600160a060020a031633146112db57600080fd5b8051610bba906006906020840190611734565b600054600160a060020a0316331461130557600080fd5b8051610bba90600a906020840190611734565b600054600160a060020a0316331461132f57600080fd5b8051610bba90600b906020840190611734565b600054600160a060020a0316331461135957600080fd5b60045461136c908263ffffffff6114fb16565b60045560015461138a9082906109c890600160a060020a0316610f5f565b600154600160a060020a03166000908152600e602052604090205550565b600054600160a060020a031633146113bf57600080fd5b600160a060020a03811615156113d457600080fd5b60008054604051600160a060020a03808516939216917f8be0079c531659141344cd1fd0a4f28419497f9722a3daafe3b4186f6b6457e091a36000805473ffffffffffffffffffffffffffffffffffffffff1916600160a060020a0392909216919091179055565b60ff811660009081526010602090815260409182902080548351601f60026000196101006001861615020190931692909204918201849004840281018401909452808452606093928301828280156114d55780601f106114aa576101008083540402835291602001916114d5565b820191906000526020600020905b8154815290600101906020018083116114b857829003601f168201915b50505050509050919050565b6000903b1190565b6000828211156114f557fe5b50900390565b60008282018381101561150a57fe5b9392505050565b6005546000908190600160a060020a0386811691161461153057600080fd5b61153d8461099633610f5f565b336000908152600e602052604090205561155a846109c887610f5f565b600160a060020a0386166000818152600e602090815260408083209490945592517fc0ee0b8a0000000000000000000000000000000000000000000000000000000081523360048201818152602483018a90526060604484019081528951606485015289518c9850959663c0ee0b8a9693958c958c956084909101928601918190849084905b838110156115f85781810151838201526020016115e0565b50505050905090810190601f1680156116255780820380516001836020036101000a031916815260200191505b50945050505050600060405180830381600087803b15801561164657600080fd5b505af115801561165a573d6000803e3d6000fd5b5050604080518781529051600160a060020a03891693503392507fddf252ad1be2c89b69c2b068fc378daa952ba7f163c4a11628f55a4df523b3ef9181900360200190a3506001949350505050565b60006116b88361099633610f5f565b336000908152600e60205260409020556116d5836109c886610f5f565b600160a060020a0385166000818152600e60209081526040918290209390935580518681529051919233927fddf252ad1be2c89b69c2b068fc378daa952ba7f163c4a11628f55a4df523b3ef9281900390910190a35060019392505050565b828054600181600116156101000203166002900490600052602060002090601f016020900481019282601f1061177557805160ff19168380011785556117a2565b828001600101855582156117a2579182015b828111156117a2578251825591602001919060010190611787565b506117ae9291506117b2565b5090565b6117cc91905b808211156117ae57600081556001016117b8565b905600a165627a7a72305820dc4775510159fb185836f13a9ea696d7441317412fbc796f1ad44ff699e350ff0029",
  "bytecodeSha1": "8aec4b3522b498d305f1a42ac7ec4cd95acfad40",
  "compiler": {
    "evm_version": "byzantium",
    "optimizer": {
      "enabled": true,
      "runs": 200
    },
    "version": "0.4.25"
  },
  "contractName": "IbetCoupon",
  "language": "Solidity",
  "natspec": {
    "methods": {
      "applyForOffering(string)": {
        "notice": "募集申込",
        "params": {
          "_data": "申込付与情報"
        }
      },
      "balanceOf(address)": {
        "notice": "残高の参照",
        "params": {
          "_owner": "保有者のアドレス"
        },
        "return": "残高数量"
      },
      "consume(uint256)": {
        "notice": "クーポンの消費",
        "params": {
          "_value": "消費数量"
        }
      },
      "getImageURL(uint8)": {
        "notice": "商品画像の参照",
        "params": {
          "_class": "画像番号"
        },
        "return": "画像URL"
      },
      "issue(uint256)": {
        "details": "オーナーのみ実行可能",
        "notice": "追加発行",
        "params": {
          "_value": "追加発行数量"
        }
      },
      "setContactInformation(string)": {
        "details": "オーナーのみ実行可能",
        "notice": "問い合わせ先情報の更新",
        "params": {
          "_contactInformation": "問い合わせ先情報"
        }
      },
      "setDetails(string)": {
        "details": "オーナーのみ実行可能",
        "notice": "詳細の更新",
        "params": {
          "_details": "クーポン詳細情報"
        }
      },
      "setExpirationDate(string)": {
        "details": "オーナーのみ実行可能",
        "notice": "有効期限の更新",
        "params": {
          "_expirationDate": "有効期限"
        }
      },
      "setImageURL(uint8,string)": {
        "details": "オーナーのみ実行可能",
        "notice": "商品画像の更新",
        "params": {
          "_class": "画像番号",
          "_image_url": "画像URL"
        }
      },
      "setInitialOfferingStatus(bool)": {
        "details": "オーナーのみ実行可能",
        "notice": "新規募集ステータスの更新",
        "params": {
          "_status": "募集ステータス"
        }
      },
      "setMemo(string)": {
        "details": "オーナーのみ実行可能",
        "notice": "補足情報の更新",
        "params": {
          "_memo": "補足情報"
        }
      },
      "setPrivacyPolicy(string)": {
        "details": "オーナーのみ実行可能",
        "notice": "プライバシーポリシーの更新",
        "params": {
          "_privacyPolicy": "プライバシーポリシー"
        }
      },
      "setReturnDetails(string)": {
        "details": "オーナーのみ実行可能",
        "notice": "特典詳細の更新",
        "params": {
          "_returnDetails": "特典詳細"
        }
      },
      "setStatus(bool)": {
        "details": "オーナーのみ実行可能",
        "notice": "取扱ステータスの更新",
        "params": {
          "_status": "更新後の取扱ステータス"
        }
      },
      "setTradableExchange(address)": {
        "details": "オーナーのみ実行可能",
        "notice": "取引コントラクトの更新",
        "params": {
          "_exchange": "更新後取引コントラクト"
        }
      },
      "setTransferable(bool)": {
        "details": "オーナーのみ実行可能",
        "notice": "譲渡可否の更新",
        "params": {
          "_transferable": "譲渡可否"
        }
      },
      "transfer(address,uint256)": {
        "notice": "トークンの移転",
        "params": {
          "_to": "宛先アドレス",
          "_value": "移転数量"
        },
        "return": "success 処理結果"
      },
      "transferFrom(address,address,uint256)": {
        "details": "オーナーのみ実行可能",
        "notice": "強制移転",
        "params": {
          "_from": "移転元アドレス",
          "_to": "移転先アドレス",
          "_value": "移転数量"
        },
        "return": "処理結果"
      },
      "transferOwnership(address)": {
        "details": "オーナーのみ実行可能",
        "notice": "オーナー変更",
        "params": {
          "newOwner": "新しいオーナー"
        }
      },
      "usedOf(address)": {
        "notice": "消費済数量の参照",
        "params": {
          "_owner": "保有者のアドレス"
        },
        "return": "消費済数量"
      }
    },
    "title": "ibet Coupon Token"
  },
  "opcodes": "PUSH1 0x80 PUSH1 0x40 MSTORE PUSH1 0x4 CALLDATASIZE LT PUSH2 0x1E2 JUMPI PUSH4 0xFFFFFFFF PUSH29 0x100000000000000000000000000000000000000000000000000000000 PUSH1 0x0 CALLDATALOAD DIV AND PUSH4 0x6FDDE03 DUP2 EQ PUSH2 0x1E7 JUMPI DUP1 PUSH4 0x18160DDD EQ PUSH2 0x271 JUMPI DUP1 PUSH4 0x200D2ED2 EQ PUSH2 0x298 JUMPI DUP1 PUSH4 0x23B872DD EQ PUSH2 0x2C1 JUMPI DUP1 PUSH4 0x25287D42 EQ PUSH2 0x2EB JUMPI DUP1 PUSH4 0x25D60861 EQ PUSH2 0x31C JUMPI DUP1 PUSH4 0x27E235E3 EQ PUSH2 0x377 JUMPI DUP1 PUSH4 0x313CE567 EQ PUSH2 0x398 JUMPI DUP1 PUSH4 0x36F7AB5E EQ PUSH2 0x3C3 JUMPI DUP1 PUSH4 0x3E8A8009 EQ PUSH2 0x3D8 JUMPI DUP1 PUSH4 0x428630F6 EQ PUSH2 0x431 JUMPI DUP1 PUSH4 0x483F31AB EQ PUSH2 0x446 JUMPI DUP1 PUSH4 0x5540E7CF EQ PUSH2 0x45E JUMPI DUP1 PUSH4 0x565974D3 EQ PUSH2 0x4B7 JUMPI DUP1 PUSH4 0x58C3B870 EQ PUSH2 0x4CC JUMPI DUP1 PUSH4 0x5C40F6F4 EQ PUSH2 0x4E1 JUMPI DUP1 PUSH4 0x60BF50FC EQ PUSH2 0x4FB JUMPI DUP1 PUSH4 0x70A08231 EQ PUSH2 0x516 JUMPI DUP1 PUSH4 0x76FA7A31 EQ PUSH2 0x537 JUMPI DUP1 PUSH4 0x7C3BF42D EQ PUSH2 0x558 JUMPI DUP1 PUSH4 0x833E0D8C EQ PUSH2 0x579 JUMPI DUP1 PUSH4 0x8739E663 EQ PUSH2 0x58E JUMPI DUP1 PUSH4 0x88539011 EQ PUSH2 0x5A3 JUMPI DUP1 PUSH4 0x8DA5CB5B EQ PUSH2 0x5BD JUMPI DUP1 PUSH4 0x8ED8A9BC EQ PUSH2 0x5D2 JUMPI DUP1 PUSH4 0x8F620487 EQ PUSH2 0x62B JUMPI DUP1 PUSH4 0x92FF0D31 EQ PUSH2 0x640 JUMPI DUP1 PUSH4 0x95D89B41 EQ PUSH2 0x655 JUMPI DUP1 PUSH4 0x9CD23707 EQ PUSH2 0x66A JUMPI DUP1 PUSH4 0x9CE96055 EQ PUSH2 0x684 JUMPI DUP1 PUSH4 0xA124BEBA EQ PUSH2 0x6A5 JUMPI DUP1 PUSH4 0xA9059CBB EQ PUSH2 0x706 JUMPI DUP1 PUSH4 0xAB2959FF EQ PUSH2 0x72A JUMPI DUP1 PUSH4 0xB967A52E EQ PUSH2 0x74B JUMPI DUP1 PUSH4 0xC72FE065 EQ PUSH2 0x7A4 JUMPI DUP1 PUSH4 0xC9C92277 EQ PUSH2 0x7FD JUMPI DUP1 PUSH4 0xCC872B66 EQ PUSH2 0x856 JUMPI DUP1 PUSH4 0xF2FDE38B EQ PUSH2 0x86E JUMPI DUP1 PUSH4 0xFFCA397B EQ PUSH2 0x88F JUMPI JUMPDEST PUSH1 0x0 DUP1 REVERT JUMPDEST CALLVALUE DUP1 ISZERO PUSH2 0x1F3 JUMPI PUSH1 0x0 DUP1 REVERT JUMPDEST POP PUSH2 0x1FC PUSH2 0x8AA JUMP JUMPDEST PUSH1 0x40 DUP1 MLOAD PUSH1 0x20 DUP1 DUP3 MSTORE DUP4 MLOAD DUP2 DUP4 ADD MSTORE DUP4 MLOAD SWAP2 SWAP3 DUP4 SWAP3 SWAP1 DUP4 ADD SWAP2 DUP6 ADD SWAP1 DUP1 DUP4 DUP4 PUSH1 0x0 JUMPDEST DUP4 DUP2 LT ISZERO PUSH2 0x236 JUMPI DUP2 DUP2 ADD MLOAD DUP4 DUP3 ADD MSTORE PUSH1 0x20 ADD PUSH2 0x21E JUMP JUMPDEST POP POP POP POP SWAP1 POP SWAP1 DUP2 ADD SWAP1 PUSH1 0x1F AND DUP1 ISZERO PUSH2 0x263 JUMPI DUP1 DUP3 SUB DUP1 MLOAD PUSH1 0x1 DUP4 PUSH1 0x20 SUB PUSH2 0x100 EXP SUB NOT AND DUP2 MSTORE PUSH1 0x20 ADD SWAP2 POP JUMPDEST POP SWAP3 POP POP POP PUSH1 0x40 MLOAD DUP1 SWAP2 SUB SWAP1 RETURN JUMPDEST CALLVALUE DUP1 ISZERO PUSH2 0x27D JUMPI PUSH1 0x0 DUP1 REVERT JUMPDEST POP PUSH2 0x286 PUSH2 0x935 JUMP JUMPDEST PUSH1 0x40 DUP1 MLOAD SWAP2 DUP3 MSTORE MLOAD SWAP1 DUP2 SWAP1 SUB PUSH1 0x20 ADD SWAP1 RETURN JUMPDEST CALLVALUE DUP1 ISZERO PUSH2 0x2A4 JUMPI PUSH1 0x0 DUP1 REVERT JUMPDEST POP PUSH2 0x2AD PUSH2 0x93B JUMP JUMPDEST PUSH1 0x40 DUP1 MLOAD SWAP2 ISZERO ISZERO DUP3 MSTORE MLOAD SWAP1 DUP2 SWAP1 SUB PUSH1 0x20 ADD SWAP1 RETURN JUMPDEST CALLVALUE DUP1 ISZERO PUSH2 0x2CD JUMPI PUSH1 0x0 DUP1 REVERT JUMPDEST POP PUSH2 0x2AD PUSH1 0x1 PUSH1 0xA0 PUSH1 0x2 EXP SUB PUSH1 0x4 CALLDATALOAD DUP2 AND SWAP1 PUSH1 0x24 CALLDATALOAD AND PUSH1 0x44 CALLDATALOAD PUSH2 0x949 JUMP JUMPDEST CALLVALUE DUP1 ISZERO PUSH2 0x2F7 JUMPI PUSH1 0x0 DUP1 REVERT JUMPDEST POP PUSH2 0x300 PUSH2 0xB81 JUMP JUMPDEST PUSH1 0x40 DUP1 MLOAD PUSH1 0x1 PUSH1 0xA0 PUSH1 0x2 EXP SUB SWAP1 SWAP3 AND DUP3 MSTORE MLOAD SWAP1 DUP2 SWAP1 SUB PUSH1 0x20 ADD SWAP1 RETURN JUMPDEST CALLVALUE DUP1 ISZERO PUSH2 0x328 JUMPI PUSH1 0x0 DUP1 REVERT JUMPDEST POP PUSH1 0x40 DUP1 MLOAD PUSH1 0x20 PUSH1 0x4 DUP1 CALLDATALOAD DUP1 DUP3 ADD CALLDATALOAD PUSH1 0x1F DUP2 ADD DUP5 SWAP1 DIV DUP5 MUL DUP6 ADD DUP5 ADD SWAP1 SWAP6 MSTORE DUP5 DUP5 MSTORE PUSH2 0x375 SWAP5 CALLDATASIZE SWAP5 SWAP3 SWAP4 PUSH1 0x24 SWAP4 SWAP3 DUP5 ADD SWAP2 SWAP1 DUP2 SWAP1 DUP5 ADD DUP4 DUP3 DUP1 DUP3 DUP5 CALLDATACOPY POP SWAP5 SWAP8 POP PUSH2 0xB90 SWAP7 POP POP POP POP POP POP POP JUMP JUMPDEST STOP JUMPDEST CALLVALUE DUP1 ISZERO PUSH2 0x383 JUMPI PUSH1 0x0 DUP1 REVERT JUMPDEST POP PUSH2 0x286 PUSH1 0x1 PUSH1 0xA0 PUSH1 0x2 EXP SUB PUSH1 0x4 CALLDATALOAD AND PUSH2 0xBBE JUMP JUMPDEST CALLVALUE DUP1 ISZERO PUSH2 0x3A4 JUMPI PUSH1 0x0 DUP1 REVERT JUMPDEST POP PUSH2 0x3AD PUSH2 0xBD0 JUMP JUMPDEST PUSH1 0x40 DUP1 MLOAD PUSH1 0xFF SWAP1 SWAP3 AND DUP3 MSTORE MLOAD SWAP1 DUP2 SWAP1 SUB PUSH1 0x20 ADD SWAP1 RETURN JUMPDEST CALLVALUE DUP1 ISZERO PUSH2 0x3CF JUMPI PUSH1 0x0 DUP1 REVERT JUMPDEST POP PUSH2 0x1FC PUSH2 0xBD5 JUMP JUMPDEST CALLVALUE DUP1 ISZERO PUSH2 0x3E4 JUMPI PUSH1 0x0 DUP1 REVERT JUMPDEST POP PUSH1 0x40 DUP1 MLOAD PUSH1 0x20 PUSH1 0x4 DUP1 CALLDATALOAD DUP1 DUP3 ADD CALLDATALOAD PUSH1 0x1F DUP2 ADD DUP5 SWAP1 DIV DUP5 MUL DUP6 ADD DUP5 ADD SWAP1 SWAP6 MSTORE DUP5 DUP5 MSTORE PUSH2 0x375 SWAP5 CALLDATASIZE SWAP5 SWAP3 SWAP4 PUSH1 0x24 SWAP4 SWAP3 DUP5 ADD SWAP2 SWAP1 DUP2 SWAP1 DUP5 ADD DUP4 DUP3 DUP1 DUP3 DUP5 CALLDATACOPY POP SWAP5 SWAP8 POP PUSH2 0xC30 SWAP7 POP POP POP POP POP POP POP JUMP JUMPDEST CALLVALUE DUP1 ISZERO PUSH2 0x43D JUMPI PUSH1 0x0 DUP1 REVERT JUMPDEST POP PUSH2 0x1FC PUSH2 0xC5A JUMP JUMPDEST CALLVALUE DUP1 ISZERO PUSH2 0x452 JUMPI PUSH1 0x0 DUP1 REVERT JUMPDEST POP PUSH2 0x375 PUSH1 0x4 CALLDATALOAD PUSH2 0xCB5 JUMP JUMPDEST CALLVALUE DUP1 ISZERO PUSH2 0x46A JUMPI PUSH1 0x0 DUP1 REVERT JUMPDEST POP PUSH1 0x40 DUP1 MLOAD PUSH1 0x20 PUSH1 0x4 DUP1 CALLDATALOAD DUP1 DUP3 ADD CALLDATALOAD PUSH1 0x1F DUP2 ADD DUP5 SWAP1 DIV DUP5 MUL DUP6 ADD DUP5 ADD SWAP1 SWAP6 MSTORE DUP5 DUP5 MSTORE PUSH2 0x375 SWAP5 CALLDATASIZE SWAP5 SWAP3 SWAP4 PUSH1 0x24 SWAP4 SWAP3 DUP5 ADD SWAP2 SWAP1 DUP2 SWAP1 DUP5 ADD DUP4 DUP3 DUP1 DUP3 DUP5 CALLDATACOPY POP SWAP5 SWAP8 POP PUSH2 0xD72 SWAP7 POP POP POP POP POP POP POP JUMP JUMPDEST CALLVALUE DUP1 ISZERO PUSH2 0x4C3 JUMPI PUSH1 0x0 DUP1 REVERT JUMPDEST POP PUSH2 0x1FC PUSH2 0xDDB JUMP JUMPDEST CALLVALUE DUP1 ISZERO PUSH2 0x4D8 JUMPI PUSH1 0x0 DUP1 REVERT JUMPDEST POP PUSH2 0x1FC PUSH2 0xE36 JUMP JUMPDEST CALLVALUE DUP1 ISZERO PUSH2 0x4ED JUMPI PUSH1 0x0 DUP1 REVERT JUMPDEST POP PUSH2 0x375 PUSH1 0x4 CALLDATALOAD ISZERO ISZERO PUSH2 0xE91 JUMP JUMPDEST CALLVALUE DUP1 ISZERO PUSH2 0x507 JUMPI PUSH1 0x0 DUP1 REVERT JUMPDEST POP PUSH2 0x1FC PUSH1 0xFF PUSH1 0x4 CALLDATALOAD AND PUSH2 0xEF7 JUMP JUMPDEST CALLVALUE DUP1 ISZERO PUSH2 0x522 JUMPI PUSH1 0x0 DUP1 REVERT JUMPDEST POP PUSH2 0x286 PUSH1 0x1 PUSH1 0xA0 PUSH1 0x2 EXP SUB PUSH1 0x4 CALLDATALOAD AND PUSH2 0xF5F JUMP JUMPDEST CALLVALUE DUP1 ISZERO PUSH2 0x543 JUMPI PUSH1 0x0 DUP1 REVERT JUMPDEST POP PUSH2 0x375 PUSH1 0x1 PUSH1 0xA0 PUSH1 0x2 EXP SUB PUSH1 0x4 CALLDATALOAD AND PUSH2 0xF7A JUMP JUMPDEST CALLVALUE DUP1 ISZERO PUSH2 0x564 JUMPI PUSH1 0x0 DUP1 REVERT JUMPDEST POP PUSH2 0x1FC PUSH1 0x1 PUSH1 0xA0 PUSH1 0x2 EXP SUB PUSH1 0x4 CALLDATALOAD AND PUSH2 0xFC0 JUMP JUMPDEST CALLVALUE DUP1 ISZERO PUSH2 0x585 JUMPI PUSH1 0x0 DUP1 REVERT JUMPDEST POP PUSH2 0x2AD PUSH2 0x1028 JUMP JUMPDEST CALLVALUE DUP1 ISZERO PUSH2 0x59A JUMPI PUSH1 0x0 DUP1 REVERT JUMPDEST POP PUSH2 0x1FC PUSH2 0x1037 JUMP JUMPDEST CALLVALUE DUP1 ISZERO PUSH2 0x5AF JUMPI PUSH1 0x0 DUP1 REVERT JUMPDEST POP PUSH2 0x375 PUSH1 0x4 CALLDATALOAD ISZERO ISZERO PUSH2 0x1092 JUMP JUMPDEST CALLVALUE DUP1 ISZERO PUSH2 0x5C9 JUMPI PUSH1 0x0 DUP1 REVERT JUMPDEST POP PUSH2 0x300 PUSH2 0x10C5 JUMP JUMPDEST CALLVALUE DUP1 ISZERO PUSH2 0x5DE JUMPI PUSH1 0x0 DUP1 REVERT JUMPDEST POP PUSH1 0x40 DUP1 MLOAD PUSH1 0x20 PUSH1 0x4 DUP1 CALLDATALOAD DUP1 DUP3 ADD CALLDATALOAD PUSH1 0x1F DUP2 ADD DUP5 SWAP1 DIV DUP5 MUL DUP6 ADD DUP5 ADD SWAP1 SWAP6 MSTORE DUP5 DUP5 MSTORE PUSH2 0x375 SWAP5 CALLDATASIZE SWAP5 SWAP3 SWAP4 PUSH1 0x24 SWAP4 SWAP3 DUP5 ADD SWAP2 SWAP1 DUP2 SWAP1 DUP5 ADD DUP4 DUP3 DUP1 DUP3 DUP5 CALLDATACOPY POP SWAP5 SWAP8 POP PUSH2 0x10D4 SWAP7 POP POP POP POP POP POP POP JUMP JUMPDEST CALLVALUE DUP1 ISZERO PUSH2 0x637 JUMPI PUSH1 0x0 DUP1 REVERT JUMPDEST POP PUSH2 0x1FC PUSH2 0x10FE JUMP JUMPDEST CALLVALUE DUP1 ISZERO PUSH2 0x64C JUMPI PUSH1 0x0 DUP1 REVERT JUMPDEST POP PUSH2 0x2AD PUSH2 0x1159 JUMP JUMPDEST CALLVALUE DUP1 ISZERO PUSH2 0x661 JUMPI PUSH1 0x0 DUP1 REVERT JUMPDEST POP PUSH2 0x1FC PUSH2 0x1162 JUMP JUMPDEST CALLVALUE DUP1 ISZERO PUSH2 0x676 JUMPI PUSH1 0x0 DUP1 REVERT JUMPDEST POP PUSH2 0x375 PUSH1 0x4 CALLDATALOAD ISZERO ISZERO PUSH2 0x11BD JUMP JUMPDEST CALLVALUE DUP1 ISZERO PUSH2 0x690 JUMPI PUSH1 0x0 DUP1 REVERT JUMPDEST POP PUSH2 0x286 PUSH1 0x1 PUSH1 0xA0 PUSH1 0x2 EXP SUB PUSH1 0x4 CALLDATALOAD AND PUSH2 0x11E7 JUMP JUMPDEST CALLVALUE DUP1 ISZERO PUSH2 0x6B1 JUMPI PUSH1 0x0 DUP1 REVERT JUMPDEST POP PUSH1 0x40 DUP1 MLOAD PUSH1 0x20 PUSH1 0x4 PUSH1 0x24 DUP1 CALLDATALOAD DUP3 DUP2 ADD CALLDATALOAD PUSH1 0x1F DUP2 ADD DUP6 SWAP1 DIV DUP6 MUL DUP7 ADD DUP6 ADD SWAP1 SWAP7 MSTORE DUP6 DUP6 MSTORE PUSH2 0x375 SWAP6 DUP4 CALLDATALOAD PUSH1 0xFF AND SWAP6 CALLDATASIZE SWAP6 PUSH1 0x44 SWAP5 SWAP2 SWAP4 SWAP1 SWAP2 ADD SWAP2 SWAP1 DUP2 SWAP1 DUP5 ADD DUP4 DUP3 DUP1 DUP3 DUP5 CALLDATACOPY POP SWAP5 SWAP8 POP PUSH2 0x11F9 SWAP7 POP POP POP POP POP POP POP JUMP JUMPDEST CALLVALUE DUP1 ISZERO PUSH2 0x712 JUMPI PUSH1 0x0 DUP1 REVERT JUMPDEST POP PUSH2 0x2AD PUSH1 0x1 PUSH1 0xA0 PUSH1 0x2 EXP SUB PUSH1 0x4 CALLDATALOAD AND PUSH1 0x24 CALLDATALOAD PUSH2 0x1238 JUMP JUMPDEST CALLVALUE DUP1 ISZERO PUSH2 0x736 JUMPI PUSH1 0x0 DUP1 REVERT JUMPDEST POP PUSH2 0x286 PUSH1 0x1 PUSH1 0xA0 PUSH1 0x2 EXP SUB PUSH1 0x4 CALLDATALOAD AND PUSH2 0x12A9 JUMP JUMPDEST CALLVALUE DUP1 ISZERO PUSH2 0x757 JUMPI PUSH1 0x0 DUP1 REVERT JUMPDEST POP PUSH1 0x40 DUP1 MLOAD PUSH1 0x20 PUSH1 0x4 DUP1 CALLDATALOAD DUP1 DUP3 ADD CALLDATALOAD PUSH1 0x1F DUP2 ADD DUP5 SWAP1 DIV DUP5 MUL DUP6 ADD DUP5 ADD SWAP1 SWAP6 MSTORE DUP5 DUP5 MSTORE PUSH2 0x375 SWAP5 CALLDATASIZE SWAP5 SWAP3 SWAP4 PUSH1 0x24 SWAP4 SWAP3 DUP5 ADD SWAP2 SWAP1 DUP2 SWAP1 DUP5 ADD DUP4 DUP3 DUP1 DUP3 DUP5 CALLDATACOPY POP SWAP5 SWAP8 POP PUSH2 0x12C4 SWAP7 POP POP POP POP POP POP POP JUMP JUMPDEST CALLVALUE DUP1 ISZERO PUSH2 0x7B0 JUMPI PUSH1 0x0 DUP1 REVERT JUMPDEST POP PUSH1 0x40 DUP1 MLOAD PUSH1 0x20 PUSH1 0x4 DUP1 CALLDATALOAD DUP1 DUP3 ADD CALLDATALOAD PUSH1 0x1F DUP2 ADD DUP5 SWAP1 DIV DUP5 MUL DUP6 ADD DUP5 ADD SWAP1 SWAP6 MSTORE DUP5 DUP5 MSTORE PUSH2 0x375 SWAP5 CALLDATASIZE SWAP5 SWAP3 SWAP4 PUSH1 0x24 SWAP4 SWAP3 DUP5 ADD SWAP2 SWAP1 DUP2 SWAP1 DUP5 ADD DUP4 DUP3 DUP1 DUP3 DUP5 CALLDATACOPY POP SWAP5 SWAP8 POP PUSH2 0x12EE SWAP7 POP POP POP POP POP POP POP JUMP JUMPDEST CALLVALUE DUP1 ISZERO PUSH2 0x809 JUMPI PUSH1 0x0 DUP1 REVERT JUMPDEST POP PUSH1 0x40 DUP1 MLOAD PUSH1 0x20 PUSH1 0x4 DUP1 CALLDATALOAD DUP1 DUP3 ADD CALLDATALOAD PUSH1 0x1F DUP2 ADD DUP5 SWAP1 DIV DUP5 MUL DUP6 ADD DUP5 ADD SWAP1 SWAP6 MSTORE DUP5 DUP5 MSTORE PUSH2 0x375 SWAP5 CALLDATASIZE SWAP5 SWAP3 SWAP4 PUSH1 0x24 SWAP4 SWAP3 DUP5 ADD SWAP2 SWAP1 DUP2 SWAP1 DUP5 ADD DUP4 DUP3 DUP1 DUP3 DUP5 CALLDATACOPY POP SWAP5 SWAP8 POP PUSH2 0x1318 SWAP7 POP POP POP POP POP POP POP JUMP JUMPDEST CALLVALUE DUP1 ISZERO PUSH2 0x862 JUMPI PUSH1 0x0 DUP1 REVERT JUMPDEST POP PUSH2 0x375 PUSH1 0x4 CALLDATALOAD PUSH2 0x1342 JUMP JUMPDEST CALLVALUE DUP1 ISZERO PUSH2 0x87A JUMPI PUSH1 0x0 DUP1 REVERT JUMPDEST POP PUSH2 0x375 PUSH1 0x1 PUSH1 0xA0 PUSH1 0x2 EXP SUB PUSH1 0x4 CALLDATALOAD AND PUSH2 0x13A8 JUMP JUMPDEST CALLVALUE DUP1 ISZERO PUSH2 0x89B JUMPI PUSH1 0x0 DUP1 REVERT JUMPDEST POP PUSH2 0x1FC PUSH1 0xFF PUSH1 0x4 CALLDATALOAD AND PUSH2 0x143C JUMP JUMPDEST PUSH1 0x2 DUP1 SLOAD PUSH1 0x40 DUP1 MLOAD PUSH1 0x20 PUSH1 0x1 DUP5 AND ISZERO PUSH2 0x100 MUL PUSH1 0x0 NOT ADD SWAP1 SWAP4 AND DUP5 SWAP1 DIV PUSH1 0x1F DUP2 ADD DUP5 SWAP1 DIV DUP5 MUL DUP3 ADD DUP5 ADD SWAP1 SWAP3 MSTORE DUP2 DUP2 MSTORE SWAP3 SWAP2 DUP4 ADD DUP3 DUP3 DUP1 ISZERO PUSH2 0x92D JUMPI DUP1 PUSH1 0x1F LT PUSH2 0x902 JUMPI PUSH2 0x100 DUP1 DUP4 SLOAD DIV MUL DUP4 MSTORE SWAP2 PUSH1 0x20 ADD SWAP2 PUSH2 0x92D JUMP JUMPDEST DUP3 ADD SWAP2 SWAP1 PUSH1 0x0 MSTORE PUSH1 0x20 PUSH1 0x0 KECCAK256 SWAP1 JUMPDEST DUP2 SLOAD DUP2 MSTORE SWAP1 PUSH1 0x1 ADD SWAP1 PUSH1 0x20 ADD DUP1 DUP4 GT PUSH2 0x910 JUMPI DUP3 SWAP1 SUB PUSH1 0x1F AND DUP3 ADD SWAP2 JUMPDEST POP POP POP POP POP DUP2 JUMP JUMPDEST PUSH1 0x4 SLOAD DUP2 JUMP JUMPDEST PUSH1 0xD SLOAD PUSH2 0x100 SWAP1 DIV PUSH1 0xFF AND DUP2 JUMP JUMPDEST PUSH1 0x0 DUP1 SLOAD PUSH1 0x60 SWAP1 DUP3 SWAP1 PUSH1 0x1 PUSH1 0xA0 PUSH1 0x2 EXP SUB AND CALLER EQ PUSH2 0x966 JUMPI PUSH1 0x0 DUP1 REVERT JUMPDEST DUP4 PUSH2 0x970 DUP8 PUSH2 0xF5F JUMP JUMPDEST LT ISZERO PUSH2 0x97B JUMPI PUSH1 0x0 DUP1 REVERT JUMPDEST PUSH2 0x984 DUP6 PUSH2 0x14E1 JUMP JUMPDEST ISZERO PUSH2 0xADD JUMPI PUSH2 0x9A2 DUP5 PUSH2 0x996 DUP9 PUSH2 0xF5F JUMP JUMPDEST SWAP1 PUSH4 0xFFFFFFFF PUSH2 0x14E9 AND JUMP JUMPDEST PUSH1 0x1 PUSH1 0xA0 PUSH1 0x2 EXP SUB DUP8 AND PUSH1 0x0 SWAP1 DUP2 MSTORE PUSH1 0xE PUSH1 0x20 MSTORE PUSH1 0x40 SWAP1 KECCAK256 SSTORE PUSH2 0x9D4 DUP5 PUSH2 0x9C8 DUP8 PUSH2 0xF5F JUMP JUMPDEST SWAP1 PUSH4 0xFFFFFFFF PUSH2 0x14FB AND JUMP JUMPDEST PUSH1 0x1 PUSH1 0xA0 PUSH1 0x2 EXP SUB DUP7 AND PUSH1 0x0 DUP2 DUP2 MSTORE PUSH1 0xE PUSH1 0x20 SWAP1 DUP2 MSTORE PUSH1 0x40 DUP1 DUP4 KECCAK256 SWAP5 SWAP1 SWAP5 SSTORE SWAP3 MLOAD PUSH32 0xC0EE0B8A00000000000000000000000000000000000000000000000000000000 DUP2 MSTORE CALLER PUSH1 0x4 DUP3 ADD DUP2 DUP2 MSTORE PUSH1 0x24 DUP4 ADD DUP11 SWAP1 MSTORE PUSH1 0x60 PUSH1 0x44 DUP5 ADD SWAP1 DUP2 MSTORE DUP9 MLOAD PUSH1 0x64 DUP6 ADD MSTORE DUP9 MLOAD DUP13 SWAP9 POP SWAP6 SWAP7 PUSH4 0xC0EE0B8A SWAP7 SWAP4 SWAP6 DUP13 SWAP6 DUP12 SWAP6 PUSH1 0x84 SWAP1 SWAP2 ADD SWAP3 DUP7 ADD SWAP2 DUP2 SWAP1 DUP5 SWAP1 DUP5 SWAP1 JUMPDEST DUP4 DUP2 LT ISZERO PUSH2 0xA72 JUMPI DUP2 DUP2 ADD MLOAD DUP4 DUP3 ADD MSTORE PUSH1 0x20 ADD PUSH2 0xA5A JUMP JUMPDEST POP POP POP POP SWAP1 POP SWAP1 DUP2 ADD SWAP1 PUSH1 0x1F AND DUP1 ISZERO PUSH2 0xA9F JUMPI DUP1 DUP3 SUB DUP1 MLOAD PUSH1 0x1 DUP4 PUSH1 0x20 SUB PUSH2 0x100 EXP SUB NOT AND DUP2 MSTORE PUSH1 0x20 ADD SWAP2 POP JUMPDEST POP SWAP5 POP POP POP POP POP PUSH1 0x0 PUSH1 0x40 MLOAD DUP1 DUP4 SUB DUP2 PUSH1 0x0 DUP8 DUP1 EXTCODESIZE ISZERO DUP1 ISZERO PUSH2 0xAC0 JUMPI PUSH1 0x0 DUP1 REVERT JUMPDEST POP GAS CALL ISZERO DUP1 ISZERO PUSH2 0xAD4 JUMPI RETURNDATASIZE PUSH1 0x0 DUP1 RETURNDATACOPY RETURNDATASIZE PUSH1 0x0 REVERT JUMPDEST POP POP POP POP PUSH2 0xB2A JUMP JUMPDEST PUSH2 0xAEA DUP5 PUSH2 0x996 DUP9 PUSH2 0xF5F JUMP JUMPDEST PUSH1 0x1 PUSH1 0xA0 PUSH1 0x2 EXP SUB DUP8 AND PUSH1 0x0 SWAP1 DUP2 MSTORE PUSH1 0xE PUSH1 0x20 MSTORE PUSH1 0x40 SWAP1 KECCAK256 SSTORE PUSH2 0xB10 DUP5 PUSH2 0x9C8 DUP8 PUSH2 0xF5F JUMP JUMPDEST PUSH1 0x1 PUSH1 0xA0 PUSH1 0x2 EXP SUB DUP7 AND PUSH1 0x0 SWAP1 DUP2 MSTORE PUSH1 0xE PUSH1 0x20 MSTORE PUSH1 0x40 SWAP1 KECCAK256 SSTORE JUMPDEST DUP5 PUSH1 0x1 PUSH1 0xA0 PUSH1 0x2 EXP SUB AND DUP7 PUSH1 0x1 PUSH1 0xA0 PUSH1 0x2 EXP SUB AND PUSH32 0xDDF252AD1BE2C89B69C2B068FC378DAA952BA7F163C4A11628F55A4DF523B3EF DUP7 PUSH1 0x40 MLOAD DUP1 DUP3 DUP2 MSTORE PUSH1 0x20 ADD SWAP2 POP POP PUSH1 0x40 MLOAD DUP1 SWAP2 SUB SWAP1 LOG3 POP PUSH1 0x1 SWAP6 SWAP5 POP POP POP POP POP JUMP JUMPDEST PUSH1 0x5 SLOAD PUSH1 0x1 PUSH1 0xA0 PUSH1 0x2 EXP SUB AND DUP2 JUMP JUMPDEST PUSH1 0x0 SLOAD PUSH1 0x1 PUSH1 0xA0 PUSH1 0x2 EXP SUB AND CALLER EQ PUSH2 0xBA7 JUMPI PUSH1 0x0 DUP1 REVERT JUMPDEST DUP1 MLOAD PUSH2 0xBBA SWAP1 PUSH1 0xC SWAP1 PUSH1 0x20 DUP5 ADD SWAP1 PUSH2 0x1734 JUMP JUMPDEST POP POP JUMP JUMPDEST PUSH1 0xE PUSH1 0x20 MSTORE PUSH1 0x0 SWAP1 DUP2 MSTORE PUSH1 0x40 SWAP1 KECCAK256 SLOAD DUP2 JUMP JUMPDEST PUSH1 0x0 DUP2 JUMP JUMPDEST PUSH1 0x6 DUP1 SLOAD PUSH1 0x40 DUP1 MLOAD PUSH1 0x20 PUSH1 0x2 PUSH1 0x1 DUP6 AND ISZERO PUSH2 0x100 MUL PUSH1 0x0 NOT ADD SWAP1 SWAP5 AND SWAP4 SWAP1 SWAP4 DIV PUSH1 0x1F DUP2 ADD DUP5 SWAP1 DIV DUP5 MUL DUP3 ADD DUP5 ADD SWAP1 SWAP3 MSTORE DUP2 DUP2 MSTORE SWAP3 SWAP2 DUP4 ADD DUP3 DUP3 DUP1 ISZERO PUSH2 0x92D JUMPI DUP1 PUSH1 0x1F LT PUSH2 0x902 JUMPI PUSH2 0x100 DUP1 DUP4 SLOAD DIV MUL DUP4 MSTORE SWAP2 PUSH1 0x20 ADD SWAP2 PUSH2 0x92D JUMP JUMPDEST PUSH1 0x0 SLOAD PUSH1 0x1 PUSH1 0xA0 PUSH1 0x2 EXP SUB AND CALLER EQ PUSH2 0xC47 JUMPI PUSH1 0x0 DUP1 REVERT JUMPDEST DUP1 MLOAD PUSH2 0xBBA SWAP1 PUSH1 0x9 SWAP1 PUSH1 0x20 DUP5 ADD SWAP1 PUSH2 0x1734 JUMP JUMPDEST PUSH1 0x7 DUP1 SLOAD PUSH1 0x40 DUP1 MLOAD PUSH1 0x20 PUSH1 0x2 PUSH1 0x1 DUP6 AND ISZERO PUSH2 0x100 MUL PUSH1 0x0 NOT ADD SWAP1 SWAP5 AND SWAP4 SWAP1 SWAP4 DIV PUSH1 0x1F DUP2 ADD DUP5 SWAP1 DIV DUP5 MUL DUP3 ADD DUP5 ADD SWAP1 SWAP3 MSTORE DUP2 DUP2 MSTORE SWAP3 SWAP2 DUP4 ADD DUP3 DUP3 DUP1 ISZERO PUSH2 0x92D JUMPI DUP1 PUSH1 0x1F LT PUSH2 0x902 JUMPI PUSH2 0x100 DUP1 DUP4 SLOAD DIV MUL DUP4 MSTORE SWAP2 PUSH1 0x20 ADD SWAP2 PUSH2 0x92D JUMP JUMPDEST DUP1 PUSH2 0xCBF CALLER PUSH2 0xF5F JUMP JUMPDEST LT ISZERO PUSH2 0xCCA JUMPI PUSH1 0x0 DUP1 REVERT JUMPDEST PUSH1 0xD SLOAD PUSH2 0x100 SWAP1 DIV PUSH1 0xFF AND ISZERO ISZERO PUSH2 0xCE0 JUMPI PUSH1 0x0 DUP1 REVERT JUMPDEST PUSH2 0xCED DUP2 PUSH2 0x996 CALLER PUSH2 0xF5F JUMP JUMPDEST CALLER PUSH1 0x0 DUP2 DUP2 MSTORE PUSH1 0xE PUSH1 0x20 MSTORE PUSH1 0x40 SWAP1 KECCAK256 SWAP2 SWAP1 SWAP2 SSTORE PUSH2 0xD0F SWAP1 DUP3 SWAP1 PUSH2 0x9C8 SWAP1 PUSH2 0x12A9 JUMP JUMPDEST CALLER PUSH1 0x0 DUP2 DUP2 MSTORE PUSH1 0xF PUSH1 0x20 DUP2 DUP2 MSTORE PUSH1 0x40 DUP1 DUP5 KECCAK256 DUP7 SWAP1 SSTORE PUSH1 0xE DUP3 MSTORE SWAP3 DUP4 SWAP1 KECCAK256 SLOAD SWAP2 DUP2 MSTORE DUP3 MLOAD SWAP2 DUP3 MSTORE DUP2 ADD SWAP4 SWAP1 SWAP4 MSTORE DUP3 DUP2 ADD DUP5 SWAP1 MSTORE MLOAD SWAP1 SWAP2 PUSH32 0xD9380A77212B15EA71F279A52A60415086A7679B50528CB78E9DB6EA848698D5 SWAP2 SWAP1 DUP2 SWAP1 SUB PUSH1 0x60 ADD SWAP1 LOG2 POP JUMP JUMPDEST PUSH1 0xD SLOAD PUSH3 0x10000 SWAP1 DIV PUSH1 0xFF AND ISZERO ISZERO PUSH1 0x1 EQ PUSH2 0xD8C JUMPI PUSH1 0x0 DUP1 REVERT JUMPDEST CALLER PUSH1 0x0 SWAP1 DUP2 MSTORE PUSH1 0x11 PUSH1 0x20 SWAP1 DUP2 MSTORE PUSH1 0x40 SWAP1 SWAP2 KECCAK256 DUP3 MLOAD PUSH2 0xDAC SWAP3 DUP5 ADD SWAP1 PUSH2 0x1734 JUMP JUMPDEST POP PUSH1 0x40 MLOAD CALLER SWAP1 PUSH32 0xA0A0CB7A71308C6BC8FF419BCC1CC3E9FD3009C7EDF8A8D8C506CA5C46688B49 SWAP1 PUSH1 0x0 SWAP1 LOG2 POP JUMP JUMPDEST PUSH1 0x9 DUP1 SLOAD PUSH1 0x40 DUP1 MLOAD PUSH1 0x20 PUSH1 0x2 PUSH1 0x1 DUP6 AND ISZERO PUSH2 0x100 MUL PUSH1 0x0 NOT ADD SWAP1 SWAP5 AND SWAP4 SWAP1 SWAP4 DIV PUSH1 0x1F DUP2 ADD DUP5 SWAP1 DIV DUP5 MUL DUP3 ADD DUP5 ADD SWAP1 SWAP3 MSTORE DUP2 DUP2 MSTORE SWAP3 SWAP2 DUP4 ADD DUP3 DUP3 DUP1 ISZERO PUSH2 0x92D JUMPI DUP1 PUSH1 0x1F LT PUSH2 0x902 JUMPI PUSH2 0x100 DUP1 DUP4 SLOAD DIV MUL DUP4 MSTORE SWAP2 PUSH1 0x20 ADD SWAP2 PUSH2 0x92D JUMP JUMPDEST PUSH1 0xC DUP1 SLOAD PUSH1 0x40 DUP1 MLOAD PUSH1 0x20 PUSH1 0x2 PUSH1 0x1 DUP6 AND ISZERO PUSH2 0x100 MUL PUSH1 0x0 NOT ADD SWAP1 SWAP5 AND SWAP4 SWAP1 SWAP4 DIV PUSH1 0x1F DUP2 ADD DUP5 SWAP1 DIV DUP5 MUL DUP3 ADD DUP5 ADD SWAP1 SWAP3 MSTORE DUP2 DUP2 MSTORE SWAP3 SWAP2 DUP4 ADD DUP3 DUP3 DUP1 ISZERO PUSH2 0x92D JUMPI DUP1 PUSH1 0x1F LT PUSH2 0x902 JUMPI PUSH2 0x100 DUP1 DUP4 SLOAD DIV MUL DUP4 MSTORE SWAP2 PUSH1 0x20 ADD SWAP2 PUSH2 0x92D JUMP JUMPDEST PUSH1 0x0 SLOAD PUSH1 0x1 PUSH1 0xA0 PUSH1 0x2 EXP SUB AND CALLER EQ PUSH2 0xEA8 JUMPI PUSH1 0x0 DUP1 REVERT JUMPDEST PUSH1 0xD DUP1 SLOAD PUSH2 0xFF00 NOT AND PUSH2 0x100 DUP4 ISZERO ISZERO DUP2 MUL SWAP2 SWAP1 SWAP2 OR SWAP2 DUP3 SWAP1 SSTORE PUSH1 0x40 MLOAD PUSH1 0xFF SWAP2 SWAP1 SWAP3 DIV AND ISZERO ISZERO SWAP1 PUSH32 0xE1E5C6F5867805BF3FAB73F4DF4B80D0E87E9262A7BC22AC7C2CB3FD5896222F SWAP1 PUSH1 0x0 SWAP1 LOG2 POP JUMP JUMPDEST PUSH1 0x10 PUSH1 0x20 SWAP1 DUP2 MSTORE PUSH1 0x0 SWAP2 DUP3 MSTORE PUSH1 0x40 SWAP2 DUP3 SWAP1 KECCAK256 DUP1 SLOAD DUP4 MLOAD PUSH1 0x1F PUSH1 0x2 PUSH1 0x0 NOT PUSH2 0x100 PUSH1 0x1 DUP7 AND ISZERO MUL ADD SWAP1 SWAP4 AND SWAP3 SWAP1 SWAP3 DIV SWAP2 DUP3 ADD DUP5 SWAP1 DIV DUP5 MUL DUP2 ADD DUP5 ADD SWAP1 SWAP5 MSTORE DUP1 DUP5 MSTORE SWAP1 SWAP2 DUP4 ADD DUP3 DUP3 DUP1 ISZERO PUSH2 0x92D JUMPI DUP1 PUSH1 0x1F LT PUSH2 0x902 JUMPI PUSH2 0x100 DUP1 DUP4 SLOAD DIV MUL DUP4 MSTORE SWAP2 PUSH1 0x20 ADD SWAP2 PUSH2 0x92D JUMP JUMPDEST PUSH1 0x1 PUSH1 0xA0 PUSH1 0x2 EXP SUB AND PUSH1 0x0 SWAP1 DUP2 MSTORE PUSH1 0xE PUSH1 0x20 MSTORE PUSH1 0x40 SWAP1 KECCAK256 SLOAD SWAP1 JUMP JUMPDEST PUSH1 0x0 SLOAD PUSH1 0x1 PUSH1 0xA0 PUSH1 0x2 EXP SUB AND CALLER EQ PUSH2 0xF91 JUMPI PUSH1 0x0 DUP1 REVERT JUMPDEST PUSH1 0x5 DUP1 SLOAD PUSH20 0xFFFFFFFFFFFFFFFFFFFFFFFFFFFFFFFFFFFFFFFF NOT AND PUSH1 0x1 PUSH1 0xA0 PUSH1 0x2 EXP SUB SWAP3 SWAP1 SWAP3 AND SWAP2 SWAP1 SWAP2 OR SWAP1 SSTORE JUMP JUMPDEST PUSH1 0x11 PUSH1 0x20 SWAP1 DUP2 MSTORE PUSH1 0x0 SWAP2 DUP3 MSTORE PUSH1 0x40 SWAP2 DUP3 SWAP1 KECCAK256 DUP1 SLOAD DUP4 MLOAD PUSH1 0x1F PUSH1 0x2 PUSH1 0x0 NOT PUSH2 0x100 PUSH1 0x1 DUP7 AND ISZERO MUL ADD SWAP1 SWAP4 AND SWAP3 SWAP1 SWAP3 DIV SWAP2 DUP3 ADD DUP5 SWAP1 DIV DUP5 MUL DUP2 ADD DUP5 ADD SWAP1 SWAP5 MSTORE DUP1 DUP5 MSTORE SWAP1 SWAP2 DUP4 ADD DUP3 DUP3 DUP1 ISZERO PUSH2 0x92D JUMPI DUP1 PUSH1 0x1F LT PUSH2 0x902 JUMPI PUSH2 0x100 DUP1 DUP4 SLOAD DIV MUL DUP4 MSTORE SWAP2 PUSH1 0x20 ADD SWAP2 PUSH2 0x92D JUMP JUMPDEST PUSH1 0xD SLOAD PUSH3 0x10000 SWAP1 DIV PUSH1 0xFF AND DUP2 JUMP JUMPDEST PUSH1 0xA DUP1 SLOAD PUSH1 0x40 DUP1 MLOAD PUSH1 0x20 PUSH1 0x2 PUSH1 0x1 DUP6 AND ISZERO PUSH2 0x100 MUL PUSH1 0x0 NOT ADD SWAP1 SWAP5 AND SWAP4 SWAP1 SWAP4 DIV PUSH1 0x1F DUP2 ADD DUP5 SWAP1 DIV DUP5 MUL DUP3 ADD DUP5 ADD SWAP1 SWAP3 MSTORE DUP2 DUP2 MSTORE SWAP3 SWAP2 DUP4 ADD DUP3 DUP3 DUP1 ISZERO PUSH2 0x92D JUMPI DUP1 PUSH1 0x1F LT PUSH2 0x902 JUMPI PUSH2 0x100 DUP1 DUP4 SLOAD DIV MUL DUP4 MSTORE SWAP2 PUSH1 0x20 ADD SWAP2 PUSH2 0x92D JUMP JUMPDEST PUSH1 0x0 SLOAD PUSH1 0x1 PUSH1 0xA0 PUSH1 0x2 EXP SUB AND CALLER EQ PUSH2 0x10A9 JUMPI PUSH1 0x0 DUP1 REVERT JUMPDEST PUSH1 0xD DUP1 SLOAD SWAP2 ISZERO ISZERO PUSH3 0x10000 MUL PUSH3 0xFF0000 NOT SWAP1 SWAP3 AND SWAP2 SWAP1 SWAP2 OR SWAP1 SSTORE JUMP JUMPDEST PUSH1 0x1 SLOAD PUSH1 0x1 PUSH1 0xA0 PUSH1 0x2 EXP SUB AND DUP2 JUMP JUMPDEST PUSH1 0x0 SLOAD PUSH1 0x1 PUSH1 0xA0 PUSH1 0x2 EXP SUB AND CALLER EQ PUSH2 0x10EB JUMPI PUSH1 0x0 DUP1 REVERT JUMPDEST DUP1 MLOAD PUSH2 0xBBA SWAP1 PUSH1 0x7 SWAP1 PUSH1 0x20 DUP5 ADD SWAP1 PUSH2 0x1734 JUMP JUMPDEST PUSH1 0xB DUP1 SLOAD PUSH1 0x40 DUP1 MLOAD PUSH1 0x20 PUSH1 0x2 PUSH1 0x1 DUP6 AND ISZERO PUSH2 0x100 MUL PUSH1 0x0 NOT ADD SWAP1 SWAP5 AND SWAP4 SWAP1 SWAP4 DIV PUSH1 0x1F DUP2 ADD DUP5 SWAP1 DIV DUP5 MUL DUP3 ADD DUP5 ADD SWAP1 SWAP3 MSTORE DUP2 DUP2 MSTORE SWAP3 SWAP2 DUP4 ADD DUP3 DUP3 DUP1 ISZERO PUSH2 0x92D JUMPI DUP1 PUSH1 0x1F LT PUSH2 0x902 JUMPI PUSH2 0x100 DUP1 DUP4 SLOAD DIV MUL DUP4 MSTORE SWAP2 PUSH1 0x20 ADD SWAP2 PUSH2 0x92D JUMP JUMPDEST PUSH1 0xD SLOAD PUSH1 0xFF AND DUP2 JUMP JUMPDEST PUSH1 0x3 DUP1 SLOAD PUSH1 0x40 DUP1 MLOAD PUSH1 0x20 PUSH1 0x2 PUSH1 0x1 DUP6 AND ISZERO PUSH2 0x100 MUL PUSH1 0x0 NOT ADD SWAP1 SWAP5 AND SWAP4 SWAP1 SWAP4 DIV PUSH1 0x1F DUP2 ADD DUP5 SWAP1 DIV DUP5 MUL DUP3 ADD DUP5 ADD SWAP1 SWAP3 MSTORE DUP2 DUP2 MSTORE SWAP3 SWAP2 DUP4 ADD DUP3 DUP3 DUP1 ISZERO PUSH2 0x92D JUMPI DUP1 PUSH1 0x1F LT PUSH2 0x902 JUMPI PUSH2 0x100 DUP1 DUP4 SLOAD DIV MUL DUP4 MSTORE SWAP2 PUSH1 0x20 ADD SWAP2 PUSH2 0x92D JUMP JUMPDEST PUSH1 0x0 SLOAD PUSH1 0x1 PUSH1 0xA0 PUSH1 0x2 EXP SUB AND CALLER EQ PUSH2 0x11D4 JUMPI PUSH1 0x0 DUP1 REVERT JUMPDEST PUSH1 0xD DUP1 SLOAD PUSH1 0xFF NOT AND SWAP2 ISZERO ISZERO SWAP2 SWAP1 SWAP2 OR SWAP1 SSTORE JUMP JUMPDEST PUSH1 0xF PUSH1 0x20 MSTORE PUSH1 0x0 SWAP1 DUP2 MSTORE PUSH1 0x40 SWAP1 KECCAK256 SLOAD DUP2 JUMP JUMPDEST PUSH1 0x0 SLOAD PUSH1 0x1 PUSH1 0xA0 PUSH1 0x2 EXP SUB AND CALLER EQ PUSH2 0x1210 JUMPI PUSH1 0x0 DUP1 REVERT JUMPDEST PUSH1 0xFF DUP3 AND PUSH1 0x0 SWAP1 DUP2 MSTORE PUSH1 0x10 PUSH1 0x20 SWAP1 DUP2 MSTORE PUSH1 0x40 SWAP1 SWAP2 KECCAK256 DUP3 MLOAD PUSH2 0x1233 SWAP3 DUP5 ADD SWAP1 PUSH2 0x1734 JUMP JUMPDEST POP POP POP JUMP JUMPDEST PUSH1 0x0 PUSH1 0x60 DUP3 PUSH2 0x1246 CALLER PUSH2 0xF5F JUMP JUMPDEST LT ISZERO PUSH2 0x1251 JUMPI PUSH1 0x0 DUP1 REVERT JUMPDEST PUSH1 0x5 SLOAD PUSH1 0x1 PUSH1 0xA0 PUSH1 0x2 EXP SUB AND CALLER EQ PUSH2 0x1277 JUMPI PUSH1 0xD SLOAD PUSH1 0xFF AND ISZERO ISZERO PUSH1 0x1 EQ PUSH2 0x1277 JUMPI PUSH1 0x0 DUP1 REVERT JUMPDEST PUSH2 0x1280 DUP5 PUSH2 0x14E1 JUMP JUMPDEST ISZERO PUSH2 0x1297 JUMPI PUSH2 0x1290 DUP5 DUP5 DUP4 PUSH2 0x1511 JUMP JUMPDEST SWAP2 POP PUSH2 0x12A2 JUMP JUMPDEST PUSH2 0x1290 DUP5 DUP5 DUP4 PUSH2 0x16A9 JUMP JUMPDEST POP SWAP3 SWAP2 POP POP JUMP JUMPDEST PUSH1 0x1 PUSH1 0xA0 PUSH1 0x2 EXP SUB AND PUSH1 0x0 SWAP1 DUP2 MSTORE PUSH1 0xF PUSH1 0x20 MSTORE PUSH1 0x40 SWAP1 KECCAK256 SLOAD SWAP1 JUMP JUMPDEST PUSH1 0x0 SLOAD PUSH1 0x1 PUSH1 0xA0 PUSH1 0x2 EXP SUB AND CALLER EQ PUSH2 0x12DB JUMPI PUSH1 0x0 DUP1 REVERT JUMPDEST DUP1 MLOAD PUSH2 0xBBA SWAP1 PUSH1 0x6 SWAP1 PUSH1 0x20 DUP5 ADD SWAP1 PUSH2 0x1734 JUMP JUMPDEST PUSH1 0x0 SLOAD PUSH1 0x1 PUSH1 0xA0 PUSH1 0x2 EXP SUB AND CALLER EQ PUSH2 0x1305 JUMPI PUSH1 0x0 DUP1 REVERT JUMPDEST DUP1 MLOAD PUSH2 0xBBA SWAP1 PUSH1 0xA SWAP1 PUSH1 0x20 DUP5 ADD SWAP1 PUSH2 0x1734 JUMP JUMPDEST PUSH1 0x0 SLOAD PUSH1 0x1 PUSH1 0xA0 PUSH1 0x2 EXP SUB AND CALLER EQ PUSH2 0x132F JUMPI PUSH1 0x0 DUP1 REVERT JUMPDEST DUP1 MLOAD PUSH2 0xBBA SWAP1 PUSH1 0xB SWAP1 PUSH1 0x20 DUP5 ADD SWAP1 PUSH2 0x1734 JUMP JUMPDEST PUSH1 0x0 SLOAD PUSH1 0x1 PUSH1 0xA0 PUSH1 0x2 EXP SUB AND CALLER EQ PUSH2 0x1359 JUMPI PUSH1 0x0 DUP1 REVERT JUMPDEST PUSH1 0x4 SLOAD PUSH2 0x136C SWAP1 DUP3 PUSH4 0xFFFFFFFF PUSH2 0x14FB AND JUMP JUMPDEST PUSH1 0x4 SSTORE PUSH1 0x1 SLOAD PUSH2 0x138A SWAP1 DUP3 SWAP1 PUSH2 0x9C8 SWAP1 PUSH1 0x1 PUSH1 0xA0 PUSH1 0x2 EXP SUB AND PUSH2 0xF5F JUMP JUMPDEST PUSH1 0x1 SLOAD PUSH1 0x1 PUSH1 0xA0 PUSH1 0x2 EXP SUB AND PUSH1 0x0 SWAP1 DUP2 MSTORE PUSH1 0xE PUSH1 0x20 MSTORE PUSH1 0x40 SWAP1 KECCAK256 SSTORE POP JUMP JUMPDEST PUSH1 0x0 SLOAD PUSH1 0x1 PUSH1 0xA0 PUSH1 0x2 EXP SUB AND CALLER EQ PUSH2 0x13BF JUMPI PUSH1 0x0 DUP1 REVERT JUMPDEST PUSH1 0x1 PUSH1 0xA0 PUSH1 0x2 EXP SUB DUP2 AND ISZERO ISZERO PUSH2 0x13D4 JUMPI PUSH1 0x0 DUP1 REVERT JUMPDEST PUSH1 0x0 DUP1 SLOAD PUSH1 0x40 MLOAD PUSH1 0x1 PUSH1 0xA0 PUSH1 0x2 EXP SUB DUP1 DUP6 AND SWAP4 SWAP3 AND SWAP2 PUSH32 0x8BE0079C531659141344CD1FD0A4F28419497F9722A3DAAFE3B4186F6B6457E0 SWAP2 LOG3 PUSH1 0x0 DUP1 SLOAD PUSH20 0xFFFFFFFFFFFFFFFFFFFFFFFFFFFFFFFFFFFFFFFF NOT AND PUSH1 0x1 PUSH1 0xA0 PUSH1 0x2 EXP SUB SWAP3 SWAP1 SWAP3 AND SWAP2 SWAP1 SWAP2 OR SWAP1 SSTORE JUMP JUMPDEST PUSH1 0xFF DUP2 AND PUSH1 0x0 SWAP1 DUP2 MSTORE PUSH1 0x10 PUSH1 0x20 SWAP1 DUP2 MSTORE PUSH1 0x40 SWAP2 DUP3 SWAP1 KECCAK256 DUP1 SLOAD DUP4 MLOAD PUSH1 0x1F PUSH1 0x2 PUSH1 0x0 NOT PUSH2 0x100 PUSH1 0x1 DUP7 AND ISZERO MUL ADD SWAP1 SWAP4 AND SWAP3 SWAP1 SWAP3 DIV SWAP2 DUP3 ADD DUP5 SWAP1 DIV DUP5 MUL DUP2 ADD DUP5 ADD SWAP1 SWAP5 MSTORE DUP1 DUP5 MSTORE PUSH1 0x60 SWAP4 SWAP3 DUP4 ADD DUP3 DUP3 DUP1 ISZERO PUSH2 0x14D5 JUMPI DUP1 PUSH1 0x1F LT PUSH2 0x14AA JUMPI PUSH2 0x100 DUP1 DUP4 SLOAD DIV MUL DUP4 MSTORE SWAP2 PUSH1 0x20 ADD SWAP2 PUSH2 0x14D5 JUMP JUMPDEST DUP3 ADD SWAP2 SWAP1 PUSH1 0x0 MSTORE PUSH1 0x20 PUSH1 0x0 KECCAK256 SWAP1 JUMPDEST DUP2 SLOAD DUP2 MSTORE SWAP1 PUSH1 0x1 ADD SWAP1 PUSH1 0x20 ADD DUP1 DUP4 GT PUSH2 0x14B8 JUMPI DUP3 SWAP1 SUB PUSH1 0x1F AND DUP3 ADD SWAP2 JUMPDEST POP POP POP POP POP SWAP1 POP SWAP2 SWAP1 POP JUMP JUMPDEST PUSH1 0x0 SWAP1 EXTCODESIZE GT SWAP1 JUMP JUMPDEST PUSH1 0x0 DUP3 DUP3 GT ISZERO PUSH2 0x14F5 JUMPI INVALID JUMPDEST POP SWAP1 SUB SWAP1 JUMP JUMPDEST PUSH1 0x0 DUP3 DUP3 ADD DUP4 DUP2 LT ISZERO PUSH2 0x150A JUMPI INVALID JUMPDEST SWAP4 SWAP3 POP POP POP JUMP JUMPDEST PUSH1 0x5 SLOAD PUSH1 0x0 SWAP1 DUP2 SWAP1 PUSH1 0x1 PUSH1 0xA0 PUSH1 0x2 EXP SUB DUP7 DUP2 AND SWAP2 AND EQ PUSH2 0x1530 JUMPI PUSH1 0x0 DUP1 REVERT JUMPDEST PUSH2 0x153D DUP5 PUSH2 0x996 CALLER PUSH2 0xF5F JUMP JUMPDEST CALLER PUSH1 0x0 SWAP1 DUP2 MSTORE PUSH1 0xE PUSH1 0x20 MSTORE PUSH1 0x40 SWAP1 KECCAK256 SSTORE PUSH2 0x155A DUP5 PUSH2 0x9C8 DUP8 PUSH2 0xF5F JUMP JUMPDEST PUSH1 0x1 PUSH1 0xA0 PUSH1 0x2 EXP SUB DUP7 AND PUSH1 0x0 DUP2 DUP2 MSTORE PUSH1 0xE PUSH1 0x20 SWAP1 DUP2 MSTORE PUSH1 0x40 DUP1 DUP4 KECCAK256 SWAP5 SWAP1 SWAP5 SSTORE SWAP3 MLOAD PUSH32 0xC0EE0B8A00000000000000000000000000000000000000000000000000000000 DUP2 MSTORE CALLER PUSH1 0x4 DUP3 ADD DUP2 DUP2 MSTORE PUSH1 0x24 DUP4 ADD DUP11 SWAP1 MSTORE PUSH1 0x60 PUSH1 0x44 DUP5 ADD SWAP1 DUP2 MSTORE DUP10 MLOAD PUSH1 0x64 DUP6 ADD MSTORE DUP10 MLOAD DUP13 SWAP9 POP SWAP6 SWAP7 PUSH4 0xC0EE0B8A SWAP7 SWAP4 SWAP6 DUP13 SWAP6 DUP13 SWAP6 PUSH1 0x84 SWAP1 SWAP2 ADD SWAP3 DUP7 ADD SWAP2 DUP2 SWAP1 DUP5 SWAP1 DUP5 SWAP1 JUMPDEST DUP4 DUP2 LT ISZERO PUSH2 0x15F8 JUMPI DUP2 DUP2 ADD MLOAD DUP4 DUP3 ADD MSTORE PUSH1 0x20 ADD PUSH2 0x15E0 JUMP JUMPDEST POP POP POP POP SWAP1 POP SWAP1 DUP2 ADD SWAP1 PUSH1 0x1F AND DUP1 ISZERO PUSH2 0x1625 JUMPI DUP1 DUP3 SUB DUP1 MLOAD PUSH1 0x1 DUP4 PUSH1 0x20 SUB PUSH2 0x100 EXP SUB NOT AND DUP2 MSTORE PUSH1 0x20 ADD SWAP2 POP JUMPDEST POP SWAP5 POP POP POP POP POP PUSH1 0x0 PUSH1 0x40 MLOAD DUP1 DUP4 SUB DUP2 PUSH1 0x0 DUP8 DUP1 EXTCODESIZE ISZERO DUP1 ISZERO PUSH2 0x1646 JUMPI PUSH1 0x0 DUP1 REVERT JUMPDEST POP GAS CALL ISZERO DUP1 ISZERO PUSH2 0x165A JUMPI RETURNDATASIZE PUSH1 0x0 DUP1 RETURNDATACOPY RETURNDATASIZE PUSH1 0x0 REVERT JUMPDEST POP POP PUSH1 0x40 DUP1 MLOAD DUP8 DUP2 MSTORE SWAP1 MLOAD PUSH1 0x1 PUSH1 0xA0 PUSH1 0x2 EXP SUB DUP10 AND SWAP4 POP CALLER SWAP3 POP PUSH32 0xDDF252AD1BE2C89B69C2B068FC378DAA952BA7F163C4A11628F55A4DF523B3EF SWAP2 DUP2 SWAP1 SUB PUSH1 0x20 ADD SWAP1 LOG3 POP PUSH1 0x1 SWAP5 SWAP4 POP POP POP POP JUMP JUMPDEST PUSH1 0x0 PUSH2 0x16B8 DUP4 PUSH2 0x996 CALLER PUSH2 0xF5F JUMP JUMPDEST CALLER PUSH1 0x0 SWAP1 DUP2 MSTORE PUSH1 0xE PUSH1 0x20 MSTORE PUSH1 0x40 SWAP1 KECCAK256 SSTORE PUSH2 0x16D5 DUP4 PUSH2 0x9C8 DUP7 PUSH2 0xF5F JUMP JUMPDEST PUSH1 0x1 PUSH1 0xA0 PUSH1 0x2 EXP SUB DUP6 AND PUSH1 0x0 DUP2 DUP2 MSTORE PUSH1 0xE PUSH1 0x20 SWAP1 DUP2 MSTORE PUSH1 0x40 SWAP2 DUP3 SWAP1 KECCAK256 SWAP4 SWAP1 SWAP4 SSTORE DUP1 MLOAD DUP7 DUP2 MSTORE SWAP1 MLOAD SWAP2 SWAP3 CALLER SWAP3 PUSH32 0xDDF252AD1BE2C89B69C2B068FC378DAA952BA7F163C4A11628F55A4DF523B3EF SWAP3 DUP2 SWAP1 SUB SWAP1 SWAP2 ADD SWAP1 LOG3 POP PUSH1 0x1 SWAP4 SWAP3 POP POP POP JUMP JUMPDEST DUP3 DUP1 SLOAD PUSH1 0x1 DUP2 PUSH1 0x1 AND ISZERO PUSH2 0x100 MUL SUB AND PUSH1 0x2 SWAP1 DIV SWAP1 PUSH1 0x0 MSTORE PUSH1 0x20 PUSH1 0x0 KECCAK256 SWAP1 PUSH1 0x1F ADD PUSH1 0x20 SWAP1 DIV DUP2 ADD SWAP3 DUP3 PUSH1 0x1F LT PUSH2 0x1775 JUMPI DUP1 MLOAD PUSH1 0xFF NOT AND DUP4 DUP1 ADD OR DUP6 SSTORE PUSH2 0x17A2 JUMP JUMPDEST DUP3 DUP1 ADD PUSH1 0x1 ADD DUP6 SSTORE DUP3 ISZERO PUSH2 0x17A2 JUMPI SWAP2 DUP3 ADD JUMPDEST DUP3 DUP2 GT ISZERO PUSH2 0x17A2 JUMPI DUP3 MLOAD DUP3 SSTORE SWAP2 PUSH1 0x20 ADD SWAP2 SWAP1 PUSH1 0x1 ADD SWAP1 PUSH2 0x1787 JUMP JUMPDEST POP PUSH2 0x17AE SWAP3 SWAP2 POP PUSH2 0x17B2 JUMP JUMPDEST POP SWAP1 JUMP JUMPDEST PUSH2 0x17CC SWAP2 SWAP1 JUMPDEST DUP1 DUP3 GT ISZERO PUSH2 0x17AE JUMPI PUSH1 0x0 DUP2 SSTORE PUSH1 0x1 ADD PUSH2 0x17B8 JUMP JUMPDEST SWAP1 JUMP STOP LOG1 PUSH6 0x627A7A723058 KECCAK256 0xdc 0x47 PUSH22 0x510159FB185836F13A9EA696D7441317412FBC796F1A 0xd4 0x4f 0xf6 SWAP10 0xe3 POP SELFDESTRUCT STOP 0x29 ",
  "sha1": "81eb867e5943a91d148ac796999b31c3affcdfca",
  "source": "pragma solidity ^0.4.24;\n\nimport \"./SafeMath.sol\";\nimport \"./Ownable.sol\";\nimport \"../interfaces/ContractReceiver.sol\";\nimport \"../interfaces/IbetStandardTokenInterface.sol\";\n\n\n/// @title ibet Coupon Token\ncontract IbetCoupon is Ownable, IbetStandardTokenInterface {\n    using SafeMath for uint;\n\n    /// 属性情報\n    string public details; // 詳細\n    string public returnDetails; // 特典詳細\n    string public expirationDate; // 有効期限\n    string public memo; // 補足情報\n    bool public transferable; // 譲渡可否\n    bool public status; // 取扱ステータス(True：有効、False：無効)\n    bool public initialOfferingStatus; // 新規募集ステータス（True：募集中、False：停止中）\n\n    /// 残高数量\n    /// account_address => balance\n    mapping(address => uint256) public balances;\n\n    /// 使用済数量\n    /// account_address => used quantity\n    mapping(address => uint) public useds;\n\n    /// クーポン画像\n    /// image class => url\n    mapping(uint8 => string) public image_urls;\n\n    /// 募集申込\n    /// account_address => data\n    mapping(address => string) public applications;\n\n    /// イベント：移転\n    event Transfer(address indexed from, address indexed to, uint value);\n\n    /// イベント：ステータス変更\n    event ChangeStatus(bool indexed status);\n\n    /// イベント:消費\n    event Consume(address indexed consumer, uint balance, uint used, uint value);\n\n    /// イベント：募集申込\n    event ApplyFor(address indexed accountAddress);\n\n    /// [CONSTRUCTOR]\n    /// @param _name 名称\n    /// @param _symbol 略称\n    /// @param _totalSupply 総発行数量\n    /// @param _tradableExchange 取引コントラクト\n    /// @param _details 詳細\n    /// @param _returnDetails 特典詳細\n    /// @param _memo 補足情報\n    /// @param _expirationDate 有効期限\n    /// @param _transferable 譲渡可否\n    /// @param _contactInformation 問い合わせ先\n    /// @param _privacyPolicy プライバシーポリシー\n    constructor(\n        string memory _name,\n        string memory _symbol,\n        uint256 _totalSupply,\n        address _tradableExchange,\n        string memory _details,\n        string memory _returnDetails,\n        string memory _memo,\n        string memory _expirationDate,\n        bool _transferable,\n        string _contactInformation,\n        string _privacyPolicy\n    )\n        public\n    {\n        owner = msg.sender;\n        name = _name;\n        symbol = _symbol;\n        totalSupply = _totalSupply;\n        tradableExchange = _tradableExchange;\n        details = _details;\n        returnDetails = _returnDetails;\n        memo = _memo;\n        expirationDate = _expirationDate;\n        balances[owner] = totalSupply;\n        transferable = _transferable;\n        status = true;\n        contactInformation = _contactInformation;\n        privacyPolicy = _privacyPolicy;\n    }\n\n    /// @notice アドレスがコントラクトアドレスであるかを判定\n    /// @param _addr アドレス\n    /// @return is_contract 判定結果\n    function isContract(address _addr)\n        private\n        view\n        returns (bool is_contract)\n    {\n        uint length;\n        assembly {\n            length := extcodesize(_addr)\n        }\n        return (length > 0);\n    }\n\n    /// @notice EOAへの移転\n    /// @param _to 宛先アドレス\n    /// @param _value 移転数量\n    /// @return success 処理結果\n    function transferToAddress(address _to, uint _value, bytes memory /*_data*/)\n        private\n        returns (bool success)\n    {\n        balances[msg.sender] = balanceOf(msg.sender).sub(_value);\n        balances[_to] = balanceOf(_to).add(_value);\n        emit Transfer(msg.sender, _to, _value);\n        return true;\n    }\n\n    /// @notice コントラクトアドレスへの移転\n    /// @param _to 宛先アドレス\n    /// @param _value 移転数量\n    /// @param _data 任意のデータ\n    /// @return success 処理結果\n    function transferToContract(address _to, uint _value, bytes memory _data)\n        private\n        returns (bool success)\n    {\n        require(_to == tradableExchange);\n        balances[msg.sender] = balanceOf(msg.sender).sub(_value);\n        balances[_to] = balanceOf(_to).add(_value);\n        ContractReceiver receiver = ContractReceiver(_to);\n        receiver.tokenFallback(msg.sender, _value, _data);\n        emit Transfer(msg.sender, _to, _value);\n        return true;\n    }\n\n    /// @notice トークンの移転\n    /// @param _to 宛先アドレス\n    /// @param _value 移転数量\n    /// @return success 処理結果\n    function transfer(address _to, uint _value)\n        public\n        returns (bool success)\n    {\n        // 譲渡しようとしている数量が残高を超えている場合、エラーを返す\n        if (balanceOf(msg.sender) < _value) revert();\n        if (msg.sender != tradableExchange) {\n            // 譲渡可能なクーポンではない場合、エラーを返す\n            require(transferable == true);\n        }\n        bytes memory empty;\n        if (isContract(_to)) {\n            return transferToContract(_to, _value, empty);\n        }\n        else {\n            return transferToAddress(_to, _value, empty);\n        }\n    }\n\n    /// @notice 強制移転\n    /// @dev オーナーのみ実行可能\n    /// @param _from 移転元アドレス\n    /// @param _to 移転先アドレス\n    /// @param _value 移転数量\n    /// @return 処理結果\n    function transferFrom(address _from, address _to, uint _value)\n        public\n        onlyOwner()\n        returns (bool)\n    {\n        //  数量が送信元アドレス（from）の残高を超えている場合、エラーを返す\n        if (balanceOf(_from) < _value) revert();\n\n        bytes memory empty;\n        if (isContract(_to)) {// 送信先アドレスがコントラクトアドレスの場合\n            balances[_from] = balanceOf(_from).sub(_value);\n            balances[_to] = balanceOf(_to).add(_value);\n            ContractReceiver receiver = ContractReceiver(_to);\n            receiver.tokenFallback(msg.sender, _value, empty);\n        } else {// 送信先アドレスがアカウントアドレスの場合\n            balances[_from] = balanceOf(_from).sub(_value);\n            balances[_to] = balanceOf(_to).add(_value);\n        }\n\n        // イベント登録\n        emit Transfer(_from, _to, _value);\n\n        return true;\n    }\n\n    /// @notice クーポンの消費\n    /// @param _value 消費数量\n    function consume(uint _value)\n        public\n    {\n        // 消費しようとしている数量が残高を超えている場合、エラーを返す\n        if (balanceOf(msg.sender) < _value) revert();\n        // 無効化されている場合、エラーを返す\n        if (status == false) revert();\n\n        // 残高数量を更新する\n        balances[msg.sender] = balanceOf(msg.sender).sub(_value);\n        // 使用済数量を更新する\n        useds[msg.sender] = usedOf(msg.sender).add(_value);\n\n        emit Consume(msg.sender, balances[msg.sender], useds[msg.sender], _value);\n    }\n\n    /// @notice 追加発行\n    /// @dev オーナーのみ実行可能\n    /// @param _value 追加発行数量\n    function issue(uint _value)\n        public\n        onlyOwner()\n    {\n        totalSupply = totalSupply.add(_value);\n        balances[owner] = balanceOf(owner).add(_value);\n    }\n\n    /// @notice 残高の参照\n    /// @param _owner 保有者のアドレス\n    /// @return 残高数量\n    function balanceOf(address _owner)\n        public\n        view\n        returns (uint256)\n    {\n        return balances[_owner];\n    }\n\n    /// @notice 消費済数量の参照\n    /// @param _owner 保有者のアドレス\n    /// @return 消費済数量\n    function usedOf(address _owner)\n        public\n        view\n        returns (uint)\n    {\n        return useds[_owner];\n    }\n\n    /// @notice 取引コントラクトの更新\n    /// @dev オーナーのみ実行可能\n    /// @param _exchange 更新後取引コントラクト\n    function setTradableExchange(address _exchange)\n        public\n        onlyOwner()\n    {\n        tradableExchange = _exchange;\n    }\n\n    /// @notice 問い合わせ先情報の更新\n    /// @dev オーナーのみ実行可能\n    /// @param _contactInformation 問い合わせ先情報\n    function setContactInformation(string _contactInformation)\n        public\n        onlyOwner()\n    {\n        contactInformation = _contactInformation;\n    }\n\n    /// @notice プライバシーポリシーの更新\n    /// @dev オーナーのみ実行可能\n    /// @param _privacyPolicy プライバシーポリシー\n    function setPrivacyPolicy(string _privacyPolicy)\n        public\n        onlyOwner()\n    {\n        privacyPolicy = _privacyPolicy;\n    }\n\n    /// @notice 詳細の更新\n    /// @dev オーナーのみ実行可能\n    /// @param _details クーポン詳細情報\n    function setDetails(string memory _details)\n        public\n        onlyOwner()\n    {\n        details = _details;\n    }\n\n    /// @notice 特典詳細の更新\n    /// @dev オーナーのみ実行可能\n    /// @param _returnDetails 特典詳細\n    function setReturnDetails(string memory _returnDetails)\n        public\n        onlyOwner()\n    {\n        returnDetails = _returnDetails;\n    }\n\n    /// @notice 補足情報の更新\n    /// @dev オーナーのみ実行可能\n    /// @param _memo 補足情報\n    function setMemo(string memory _memo)\n        public\n        onlyOwner()\n    {\n        memo = _memo;\n    }\n\n    /// @notice 有効期限の更新\n    /// @dev オーナーのみ実行可能\n    /// @param _expirationDate 有効期限\n    function setExpirationDate(string memory _expirationDate)\n        public\n        onlyOwner()\n    {\n        expirationDate = _expirationDate;\n    }\n\n    /// @notice 取扱ステータスの更新\n    /// @dev オーナーのみ実行可能\n    /// @param _status 更新後の取扱ステータス\n    function setStatus(bool _status)\n        public\n        onlyOwner()\n    {\n        status = _status;\n        emit ChangeStatus(status);\n    }\n\n    /// @notice 譲渡可否の更新\n    /// @dev オーナーのみ実行可能\n    /// @param _transferable 譲渡可否\n    function setTransferable(bool _transferable)\n        public\n        onlyOwner()\n    {\n        transferable = _transferable;\n    }\n\n    /// @notice 商品画像の更新\n    /// @dev オーナーのみ実行可能\n    /// @param _class 画像番号\n    /// @param _image_url 画像URL\n    function setImageURL(uint8 _class, string memory _image_url)\n        public\n        onlyOwner()\n    {\n        image_urls[_class] = _image_url;\n    }\n\n    /// @notice 商品画像の参照\n    /// @param _class 画像番号\n    /// @return 画像URL\n    function getImageURL(uint8 _class)\n        public\n        view\n        returns (string memory)\n    {\n        return image_urls[_class];\n    }\n\n    /// @notice 新規募集ステータスの更新\n    /// @dev オーナーのみ実行可能\n    /// @param _status 募集ステータス\n    function setInitialOfferingStatus(bool _status)\n        public\n        onlyOwner()\n    {\n        initialOfferingStatus = _status;\n    }\n\n    /// @notice 募集申込\n    /// @param _data 申込付与情報\n    function applyForOffering(string memory _data)\n        public\n    {\n        // 申込ステータスが停止中の場合、エラーを返す\n        require(initialOfferingStatus == true);\n        applications[msg.sender] = _data;\n        emit ApplyFor(msg.sender);\n    }\n\n}\n",
  "sourcePath": "contracts/IbetCoupon.sol",
  "type": "contract"
}