{
  "abi": [
    {
      "constant": true,
      "inputs": [],
      "name": "isRedeemed",
      "outputs": [
        {
          "name": "",
          "type": "bool"
        }
      ],
      "payable": false,
      "stateMutability": "view",
      "type": "function"
    },
    {
      "constant": true,
      "inputs": [],
      "name": "name",
      "outputs": [
        {
          "name": "",
          "type": "string"
        }
      ],
      "payable": false,
      "stateMutability": "view",
      "type": "function"
    },
    {
      "constant": true,
      "inputs": [],
      "name": "personalInfoAddress",
      "outputs": [
        {
          "name": "",
          "type": "address"
        }
      ],
      "payable": false,
      "stateMutability": "view",
      "type": "function"
    },
    {
      "constant": true,
      "inputs": [],
      "name": "totalSupply",
      "outputs": [
        {
          "name": "",
          "type": "uint256"
        }
      ],
      "payable": false,
      "stateMutability": "view",
      "type": "function"
    },
    {
      "constant": true,
      "inputs": [],
      "name": "status",
      "outputs": [
        {
          "name": "",
          "type": "bool"
        }
      ],
      "payable": false,
      "stateMutability": "view",
      "type": "function"
    },
    {
      "constant": false,
      "inputs": [
        {
          "name": "_from",
          "type": "address"
        },
        {
          "name": "_to",
          "type": "address"
        },
        {
          "name": "_value",
          "type": "uint256"
        }
      ],
      "name": "transferFrom",
      "outputs": [
        {
          "name": "success",
          "type": "bool"
        }
      ],
      "payable": false,
      "stateMutability": "nonpayable",
      "type": "function"
    },
    {
      "constant": true,
      "inputs": [],
      "name": "tradableExchange",
      "outputs": [
        {
          "name": "",
          "type": "address"
        }
      ],
      "payable": false,
      "stateMutability": "view",
      "type": "function"
    },
    {
      "constant": false,
      "inputs": [
        {
          "name": "_memo",
          "type": "string"
        }
      ],
      "name": "setMemo",
      "outputs": [],
      "payable": false,
      "stateMutability": "nonpayable",
      "type": "function"
    },
    {
      "constant": true,
      "inputs": [
        {
          "name": "",
          "type": "address"
        }
      ],
      "name": "balances",
      "outputs": [
        {
          "name": "",
          "type": "uint256"
        }
      ],
      "payable": false,
      "stateMutability": "view",
      "type": "function"
    },
    {
      "constant": false,
      "inputs": [
        {
          "name": "_target_address",
          "type": "address"
        },
        {
          "name": "_value",
          "type": "uint256"
        }
      ],
      "name": "lock",
      "outputs": [],
      "payable": false,
      "stateMutability": "nonpayable",
      "type": "function"
    },
    {
      "constant": false,
      "inputs": [],
      "name": "sign",
      "outputs": [
        {
          "name": "",
          "type": "bool"
        }
      ],
      "payable": false,
      "stateMutability": "nonpayable",
      "type": "function"
    },
    {
      "constant": false,
      "inputs": [
        {
          "name": "_address",
          "type": "address"
        },
        {
          "name": "_auth",
          "type": "bool"
        }
      ],
      "name": "authorize",
      "outputs": [],
      "payable": false,
      "stateMutability": "nonpayable",
      "type": "function"
    },
    {
      "constant": true,
      "inputs": [],
      "name": "decimals",
      "outputs": [
        {
          "name": "",
          "type": "uint8"
        }
      ],
      "payable": false,
      "stateMutability": "view",
      "type": "function"
    },
    {
      "constant": false,
      "inputs": [
        {
          "name": "_amount",
          "type": "uint256"
        },
        {
          "name": "_data",
          "type": "string"
        }
      ],
      "name": "applyForOffering",
      "outputs": [],
      "payable": false,
      "stateMutability": "nonpayable",
      "type": "function"
    },
    {
      "constant": true,
      "inputs": [],
      "name": "interestPaymentDate",
      "outputs": [
        {
          "name": "",
          "type": "string"
        }
      ],
      "payable": false,
      "stateMutability": "view",
      "type": "function"
    },
    {
      "constant": true,
      "inputs": [
        {
          "name": "",
          "type": "address"
        }
      ],
      "name": "authorizedAddress",
      "outputs": [
        {
          "name": "",
          "type": "bool"
        }
      ],
      "payable": false,
      "stateMutability": "view",
      "type": "function"
    },
    {
      "constant": true,
      "inputs": [],
      "name": "contactInformation",
      "outputs": [
        {
          "name": "",
          "type": "string"
        }
      ],
      "payable": false,
      "stateMutability": "view",
      "type": "function"
    },
    {
      "constant": false,
      "inputs": [
        {
          "name": "_address",
          "type": "address"
        },
        {
          "name": "_amount",
          "type": "uint256"
        }
      ],
      "name": "allot",
      "outputs": [],
      "payable": false,
      "stateMutability": "nonpayable",
      "type": "function"
    },
    {
      "constant": false,
      "inputs": [],
      "name": "unsign",
      "outputs": [
        {
          "name": "",
          "type": "bool"
        }
      ],
      "payable": false,
      "stateMutability": "nonpayable",
      "type": "function"
    },
    {
      "constant": true,
      "inputs": [],
      "name": "privacyPolicy",
      "outputs": [
        {
          "name": "",
          "type": "string"
        }
      ],
      "payable": false,
      "stateMutability": "view",
      "type": "function"
    },
    {
      "constant": true,
      "inputs": [],
      "name": "faceValue",
      "outputs": [
        {
          "name": "",
          "type": "uint256"
        }
      ],
      "payable": false,
      "stateMutability": "view",
      "type": "function"
    },
    {
      "constant": true,
      "inputs": [],
      "name": "memo",
      "outputs": [
        {
          "name": "",
          "type": "string"
        }
      ],
      "payable": false,
      "stateMutability": "view",
      "type": "function"
    },
    {
      "constant": false,
      "inputs": [
        {
          "name": "_account_address",
          "type": "address"
        },
        {
          "name": "_receive_address",
          "type": "address"
        },
        {
          "name": "_value",
          "type": "uint256"
        }
      ],
      "name": "unlock",
      "outputs": [],
      "payable": false,
      "stateMutability": "nonpayable",
      "type": "function"
    },
    {
      "constant": false,
      "inputs": [
        {
          "name": "_status",
          "type": "bool"
        }
      ],
      "name": "setStatus",
      "outputs": [],
      "payable": false,
      "stateMutability": "nonpayable",
      "type": "function"
    },
    {
      "constant": false,
      "inputs": [
        {
          "name": "_interestRate",
          "type": "uint256"
        }
      ],
      "name": "setInterestRate",
      "outputs": [],
      "payable": false,
      "stateMutability": "nonpayable",
      "type": "function"
    },
    {
      "constant": true,
      "inputs": [
        {
          "name": "",
          "type": "uint8"
        }
      ],
      "name": "image_urls",
      "outputs": [
        {
          "name": "",
          "type": "string"
        }
      ],
      "payable": false,
      "stateMutability": "view",
      "type": "function"
    },
    {
      "constant": false,
      "inputs": [
        {
          "name": "_interestPaymentDate",
          "type": "string"
        }
      ],
      "name": "setInterestPaymentDate",
      "outputs": [],
      "payable": false,
      "stateMutability": "nonpayable",
      "type": "function"
    },
    {
      "constant": true,
      "inputs": [],
      "name": "redemptionDate",
      "outputs": [
        {
          "name": "",
          "type": "string"
        }
      ],
      "payable": false,
      "stateMutability": "view",
      "type": "function"
    },
    {
      "constant": true,
      "inputs": [],
      "name": "purpose",
      "outputs": [
        {
          "name": "",
          "type": "string"
        }
      ],
      "payable": false,
      "stateMutability": "view",
      "type": "function"
    },
    {
      "constant": true,
      "inputs": [
        {
          "name": "_owner",
          "type": "address"
        }
      ],
      "name": "balanceOf",
      "outputs": [
        {
          "name": "",
          "type": "uint256"
        }
      ],
      "payable": false,
      "stateMutability": "view",
      "type": "function"
    },
    {
      "constant": false,
      "inputs": [
        {
          "name": "_exchange",
          "type": "address"
        }
      ],
      "name": "setTradableExchange",
      "outputs": [],
      "payable": false,
      "stateMutability": "nonpayable",
      "type": "function"
    },
    {
      "constant": true,
      "inputs": [],
      "name": "interestRate",
      "outputs": [
        {
          "name": "",
          "type": "uint256"
        }
      ],
      "payable": false,
      "stateMutability": "view",
      "type": "function"
    },
    {
      "constant": true,
      "inputs": [
        {
          "name": "",
          "type": "address"
        }
      ],
      "name": "applications",
      "outputs": [
        {
          "name": "requestedAmount",
          "type": "uint256"
        },
        {
          "name": "allottedAmount",
          "type": "uint256"
        },
        {
          "name": "data",
          "type": "string"
        }
      ],
      "payable": false,
      "stateMutability": "view",
      "type": "function"
    },
    {
      "constant": true,
      "inputs": [],
      "name": "initialOfferingStatus",
      "outputs": [
        {
          "name": "",
          "type": "bool"
        }
      ],
      "payable": false,
      "stateMutability": "view",
      "type": "function"
    },
    {
      "constant": false,
      "inputs": [
        {
          "name": "_status",
          "type": "bool"
        }
      ],
      "name": "setInitialOfferingStatus",
      "outputs": [],
      "payable": false,
      "stateMutability": "nonpayable",
      "type": "function"
    },
    {
      "constant": true,
      "inputs": [],
      "name": "owner",
      "outputs": [
        {
          "name": "",
          "type": "address"
        }
      ],
      "payable": false,
      "stateMutability": "view",
      "type": "function"
    },
    {
      "constant": false,
      "inputs": [
        {
          "name": "_privacyPolicy",
          "type": "string"
        }
      ],
      "name": "setPrivacyPolicy",
      "outputs": [],
      "payable": false,
      "stateMutability": "nonpayable",
      "type": "function"
    },
    {
      "constant": true,
      "inputs": [],
      "name": "transferable",
      "outputs": [
        {
          "name": "",
          "type": "bool"
        }
      ],
      "payable": false,
      "stateMutability": "view",
      "type": "function"
    },
    {
      "constant": true,
      "inputs": [],
      "name": "symbol",
      "outputs": [
        {
          "name": "",
          "type": "string"
        }
      ],
      "payable": false,
      "stateMutability": "view",
      "type": "function"
    },
    {
      "constant": false,
      "inputs": [
        {
          "name": "_transferable",
          "type": "bool"
        }
      ],
      "name": "setTransferable",
      "outputs": [],
      "payable": false,
      "stateMutability": "nonpayable",
      "type": "function"
    },
    {
      "constant": false,
      "inputs": [
        {
          "name": "_class",
          "type": "uint8"
        },
        {
          "name": "_image_url",
          "type": "string"
        }
      ],
      "name": "setImageURL",
      "outputs": [],
      "payable": false,
      "stateMutability": "nonpayable",
      "type": "function"
    },
    {
      "constant": false,
      "inputs": [
        {
          "name": "_to",
          "type": "address"
        },
        {
          "name": "_value",
          "type": "uint256"
        }
      ],
      "name": "transfer",
      "outputs": [
        {
          "name": "success",
          "type": "bool"
        }
      ],
      "payable": false,
      "stateMutability": "nonpayable",
      "type": "function"
    },
    {
      "constant": false,
      "inputs": [
        {
          "name": "_signer",
          "type": "address"
        }
      ],
      "name": "requestSignature",
      "outputs": [
        {
          "name": "",
          "type": "bool"
        }
      ],
      "payable": false,
      "stateMutability": "nonpayable",
      "type": "function"
    },
    {
      "constant": false,
      "inputs": [
        {
          "name": "_contactInformation",
          "type": "string"
        }
      ],
      "name": "setContactInformation",
      "outputs": [],
      "payable": false,
      "stateMutability": "nonpayable",
      "type": "function"
    },
    {
      "constant": true,
      "inputs": [
        {
          "name": "_authorized_address",
          "type": "address"
        },
        {
          "name": "_account_address",
          "type": "address"
        }
      ],
      "name": "lockedOf",
      "outputs": [
        {
          "name": "",
          "type": "uint256"
        }
      ],
      "payable": false,
      "stateMutability": "view",
      "type": "function"
    },
    {
      "constant": false,
      "inputs": [],
      "name": "redeem",
      "outputs": [],
      "payable": false,
      "stateMutability": "nonpayable",
      "type": "function"
    },
    {
      "constant": true,
      "inputs": [
        {
          "name": "",
          "type": "address"
        }
      ],
      "name": "signatures",
      "outputs": [
        {
          "name": "",
          "type": "uint8"
        }
      ],
      "payable": false,
      "stateMutability": "view",
      "type": "function"
    },
    {
      "constant": true,
      "inputs": [
        {
          "name": "",
          "type": "address"
        },
        {
          "name": "",
          "type": "address"
        }
      ],
      "name": "locked",
      "outputs": [
        {
          "name": "",
          "type": "uint256"
        }
      ],
      "payable": false,
      "stateMutability": "view",
      "type": "function"
    },
    {
      "constant": true,
      "inputs": [],
      "name": "redemptionValue",
      "outputs": [
        {
          "name": "",
          "type": "uint256"
        }
      ],
      "payable": false,
      "stateMutability": "view",
      "type": "function"
    },
    {
      "constant": false,
      "inputs": [
        {
          "name": "newOwner",
          "type": "address"
        }
      ],
      "name": "transferOwnership",
      "outputs": [],
      "payable": false,
      "stateMutability": "nonpayable",
      "type": "function"
    },
    {
      "constant": true,
      "inputs": [],
      "name": "returnAmount",
      "outputs": [
        {
          "name": "",
          "type": "string"
        }
      ],
      "payable": false,
      "stateMutability": "view",
      "type": "function"
    },
    {
      "constant": false,
      "inputs": [
        {
          "name": "_address",
          "type": "address"
        }
      ],
      "name": "setPersonalInfoAddress",
      "outputs": [],
      "payable": false,
      "stateMutability": "nonpayable",
      "type": "function"
    },
    {
      "constant": true,
      "inputs": [],
      "name": "returnDate",
      "outputs": [
        {
          "name": "",
          "type": "string"
        }
      ],
      "payable": false,
      "stateMutability": "view",
      "type": "function"
    },
    {
      "constant": false,
      "inputs": [
        {
          "name": "_target_address",
          "type": "address"
        },
        {
          "name": "_locked_address",
          "type": "address"
        },
        {
          "name": "_amount",
          "type": "uint256"
        }
      ],
      "name": "issueFrom",
      "outputs": [],
      "payable": false,
      "stateMutability": "nonpayable",
      "type": "function"
    },
    {
      "constant": true,
      "inputs": [
        {
          "name": "_class",
          "type": "uint8"
        }
      ],
      "name": "getImageURL",
      "outputs": [
        {
          "name": "",
          "type": "string"
        }
      ],
      "payable": false,
      "stateMutability": "view",
      "type": "function"
    },
    {
      "inputs": [
        {
          "name": "_name",
          "type": "string"
        },
        {
          "name": "_symbol",
          "type": "string"
        },
        {
          "name": "_totalSupply",
          "type": "uint256"
        },
        {
          "name": "_faceValue",
          "type": "uint256"
        },
        {
          "name": "_redemptionDate",
          "type": "string"
        },
        {
          "name": "_redemptionValue",
          "type": "uint256"
        },
        {
          "name": "_returnDate",
          "type": "string"
        },
        {
          "name": "_returnAmount",
          "type": "string"
        },
        {
          "name": "_purpose",
          "type": "string"
        }
      ],
      "payable": false,
      "stateMutability": "nonpayable",
      "type": "constructor"
    },
    {
      "anonymous": false,
      "inputs": [
        {
          "indexed": true,
          "name": "from",
          "type": "address"
        },
        {
          "indexed": true,
          "name": "to",
          "type": "address"
        },
        {
          "indexed": false,
          "name": "value",
          "type": "uint256"
        }
      ],
      "name": "Transfer",
      "type": "event"
    },
    {
      "anonymous": false,
      "inputs": [
        {
          "indexed": true,
          "name": "signer",
          "type": "address"
        }
      ],
      "name": "Sign",
      "type": "event"
    },
    {
      "anonymous": false,
      "inputs": [
        {
          "indexed": true,
          "name": "signer",
          "type": "address"
        }
      ],
      "name": "Unsign",
      "type": "event"
    },
    {
      "anonymous": false,
      "inputs": [],
      "name": "Redeem",
      "type": "event"
    },
    {
      "anonymous": false,
      "inputs": [
        {
          "indexed": true,
          "name": "status",
          "type": "bool"
        }
      ],
      "name": "ChangeStatus",
      "type": "event"
    },
    {
      "anonymous": false,
      "inputs": [
        {
          "indexed": true,
          "name": "status",
          "type": "bool"
        }
      ],
      "name": "ChangeInitialOfferingStatus",
      "type": "event"
    },
    {
      "anonymous": false,
      "inputs": [
        {
          "indexed": true,
          "name": "accountAddress",
          "type": "address"
        },
        {
          "indexed": false,
          "name": "amount",
          "type": "uint256"
        }
      ],
      "name": "ApplyFor",
      "type": "event"
    },
    {
      "anonymous": false,
      "inputs": [
        {
          "indexed": true,
          "name": "accountAddress",
          "type": "address"
        },
        {
          "indexed": false,
          "name": "amount",
          "type": "uint256"
        }
      ],
      "name": "Allot",
      "type": "event"
    },
    {
      "anonymous": false,
      "inputs": [
        {
          "indexed": true,
          "name": "to",
          "type": "address"
        },
        {
          "indexed": false,
          "name": "auth",
          "type": "bool"
        }
      ],
      "name": "Authorize",
      "type": "event"
    },
    {
      "anonymous": false,
      "inputs": [
        {
          "indexed": true,
          "name": "from",
          "type": "address"
        },
        {
          "indexed": true,
          "name": "target_address",
          "type": "address"
        },
        {
          "indexed": false,
          "name": "value",
          "type": "uint256"
        }
      ],
      "name": "Lock",
      "type": "event"
    },
    {
      "anonymous": false,
      "inputs": [
        {
          "indexed": true,
          "name": "from",
          "type": "address"
        },
        {
          "indexed": true,
          "name": "to",
          "type": "address"
        },
        {
          "indexed": false,
          "name": "value",
          "type": "uint256"
        }
      ],
      "name": "Unlock",
      "type": "event"
    },
    {
      "anonymous": false,
      "inputs": [
        {
          "indexed": true,
          "name": "from",
          "type": "address"
        },
        {
          "indexed": true,
          "name": "target_address",
          "type": "address"
        },
        {
          "indexed": true,
          "name": "locked_address",
          "type": "address"
        },
        {
          "indexed": false,
          "name": "amount",
          "type": "uint256"
        }
      ],
      "name": "Issue",
      "type": "event"
    },
    {
      "anonymous": false,
      "inputs": [
        {
          "indexed": true,
          "name": "previousOwner",
          "type": "address"
        },
        {
          "indexed": true,
          "name": "newOwner",
          "type": "address"
        }
      ],
      "name": "OwnershipTransferred",
      "type": "event"
    }
  ],
  "bytecode": "60806040523480156200001157600080fd5b50604051620023dd380380620023dd8339810160409081528151602080840151928401516060850151608086015160a087015160c088015160e08901516101008a01516000805433600160a060020a03199182168117909255600180549091169091179055978a018051909a998a01999698959794870196939592840194918401939290920191620000aa91600291908c019062000182565b508751620000c09060039060208b019062000182565b50600487905560098690558451620000e090600c90602088019062000182565b50600d8490558251620000fb90600e90602086019062000182565b5081516200011190600f90602085019062000182565b5080516200012790601090602084019062000182565b50506012805462ff000019166201000017815560045460018054600160a060020a0316600090815260136020526040902091909155815461ff0019169091556008805460ff1916909117905550620002279650505050505050565b828054600181600116156101000203166002900490600052602060002090601f016020900481019282601f10620001c557805160ff1916838001178555620001f5565b82800160010185558215620001f5579182015b82811115620001f5578251825591602001919060010190620001d8565b506200020392915062000207565b5090565b6200022491905b808211156200020357600081556001016200020e565b90565b6121a680620002376000396000f3006080604052600436106102925763ffffffff7c0100000000000000000000000000000000000000000000000000000000600035041663034f6b21811461029757806306fdde03146102c05780630af7eb0f1461034a57806318160ddd1461037b578063200d2ed2146103a257806323b872dd146103b757806325287d42146103e157806325d60861146103f657806327e235e314610451578063282d3fdf146104725780632ca15122146104965780632d1fb389146104ab578063313ce567146104d157806331cef447146104fc578063329dbddc1461055a5780633638104a1461056f57806336f7ab5e1461059057806340615cf8146105a557806341e60c86146105c9578063428630f6146105de57806344fd9caa146105f357806358c3b8701461060857806359508f8f1461061d5780635c40f6f4146106475780635f84f3021461066157806360bf50fc1461067957806363783444146106945780636666e49c146106ed57806370740aab1461070257806370a082311461071757806376fa7a31146107385780637c3a00fd146107595780637c3bf42d1461076e578063833e0d8c14610815578063885390111461082a5780638da5cb5b146108445780638ed8a9bc1461085957806392ff0d31146108b257806395d89b41146108c75780639cd23707146108dc578063a124beba146108f6578063a9059cbb14610957578063ab8f67c81461097b578063b967a52e1461099c578063b9b3e06a146109f5578063be040fb014610a1c578063c792f36d14610a31578063db20266f14610a52578063ef4474cd14610a79578063f2fde38b14610a8e578063f35eeaef14610aaf578063f7502a7c14610ac4578063fc590d0914610ae5578063ff12dcea14610afa578063ffca397b14610b24575b600080fd5b3480156102a357600080fd5b506102ac610b3f565b604080519115158252519081900360200190f35b3480156102cc57600080fd5b506102d5610b4d565b6040805160208082528351818301528351919283929083019185019080838360005b8381101561030f5781810151838201526020016102f7565b50505050905090810190601f16801561033c5780820380516001836020036101000a031916815260200191505b509250505060405180910390f35b34801561035657600080fd5b5061035f610bd8565b60408051600160a060020a039092168252519081900360200190f35b34801561038757600080fd5b50610390610bee565b60408051918252519081900360200190f35b3480156103ae57600080fd5b506102ac610bf4565b3480156103c357600080fd5b506102ac600160a060020a0360043581169060243516604435610bfd565b3480156103ed57600080fd5b5061035f610e35565b34801561040257600080fd5b506040805160206004803580820135601f810184900484028501840190955284845261044f943694929360249392840191908190840183828082843750949750610e449650505050505050565b005b34801561045d57600080fd5b50610390600160a060020a0360043516610e72565b34801561047e57600080fd5b5061044f600160a060020a0360043516602435610e84565b3480156104a257600080fd5b506102ac610f71565b3480156104b757600080fd5b5061044f600160a060020a03600435166024351515610fd7565b3480156104dd57600080fd5b506104e661104e565b6040805160ff9092168252519081900360200190f35b34801561050857600080fd5b5060408051602060046024803582810135601f810185900485028601850190965285855261044f9583359536956044949193909101919081908401838280828437509497506110539650505050505050565b34801561056657600080fd5b506102d561117e565b34801561057b57600080fd5b506102ac600160a060020a03600435166111d9565b34801561059c57600080fd5b506102d56111ee565b3480156105b157600080fd5b5061044f600160a060020a0360043516602435611249565b3480156105d557600080fd5b506102ac6112b7565b3480156105ea57600080fd5b506102d5611319565b3480156105ff57600080fd5b50610390611374565b34801561061457600080fd5b506102d561137a565b34801561062957600080fd5b5061044f600160a060020a03600435811690602435166044356113d5565b34801561065357600080fd5b5061044f60043515156114be565b34801561066d57600080fd5b5061044f600435611519565b34801561068557600080fd5b506102d560ff60043516611535565b3480156106a057600080fd5b506040805160206004803580820135601f810184900484028501840190955284845261044f94369492936024939284019190819084018382808284375094975061159d9650505050505050565b3480156106f957600080fd5b506102d56115c7565b34801561070e57600080fd5b506102d5611622565b34801561072357600080fd5b50610390600160a060020a036004351661167d565b34801561074457600080fd5b5061044f600160a060020a0360043516611698565b34801561076557600080fd5b506103906116de565b34801561077a57600080fd5b5061078f600160a060020a03600435166116e4565b6040518084815260200183815260200180602001828103825283818151815260200191508051906020019080838360005b838110156107d85781810151838201526020016107c0565b50505050905090810190601f1680156108055780820380516001836020036101000a031916815260200191505b5094505050505060405180910390f35b34801561082157600080fd5b506102ac61178d565b34801561083657600080fd5b5061044f6004351515611796565b34801561085057600080fd5b5061035f6117ea565b34801561086557600080fd5b506040805160206004803580820135601f810184900484028501840190955284845261044f9436949293602493928401919081908401838280828437509497506117f99650505050505050565b3480156108be57600080fd5b506102ac611823565b3480156108d357600080fd5b506102d5611832565b3480156108e857600080fd5b5061044f600435151561188d565b34801561090257600080fd5b5060408051602060046024803582810135601f810185900485028601850190965285855261044f95833560ff169536956044949193909101919081908401838280828437509497506118c09650505050505050565b34801561096357600080fd5b506102ac600160a060020a03600435166024356118ff565b34801561098757600080fd5b506102ac600160a060020a0360043516611976565b3480156109a857600080fd5b506040805160206004803580820135601f810184900484028501840190955284845261044f94369492936024939284019190819084018382808284375094975061199e9650505050505050565b348015610a0157600080fd5b50610390600160a060020a03600435811690602435166119c8565b348015610a2857600080fd5b5061044f6119f3565b348015610a3d57600080fd5b506104e6600160a060020a0360043516611a44565b348015610a5e57600080fd5b50610390600160a060020a0360043581169060243516611a59565b348015610a8557600080fd5b50610390611a76565b348015610a9a57600080fd5b5061044f600160a060020a0360043516611a7c565b348015610abb57600080fd5b506102d5611b10565b348015610ad057600080fd5b5061044f600160a060020a0360043516611b6b565b348015610af157600080fd5b506102d5611bbb565b348015610b0657600080fd5b5061044f600160a060020a0360043581169060243516604435611c16565b348015610b3057600080fd5b506102d560ff60043516611d22565b601254610100900460ff1681565b6002805460408051602060018416156101000260001901909316849004601f81018490048402820184019092528181529291830182828015610bd05780601f10610ba557610100808354040283529160200191610bd0565b820191906000526020600020905b815481529060010190602001808311610bb357829003601f168201915b505050505081565b60125463010000009004600160a060020a031681565b60045481565b60085460ff1681565b600080546060908290600160a060020a03163314610c1a57600080fd5b83610c248761167d565b1015610c2f57600080fd5b610c3885611dc7565b15610d9157610c5684610c4a8861167d565b9063ffffffff611dcf16565b600160a060020a038716600090815260136020526040902055610c8884610c7c8761167d565b9063ffffffff611de116565b600160a060020a03861660008181526013602090815260408083209490945592517fc0ee0b8a0000000000000000000000000000000000000000000000000000000081523360048201818152602483018a90526060604484019081528851606485015288518c9850959663c0ee0b8a9693958c958b956084909101928601918190849084905b83811015610d26578181015183820152602001610d0e565b50505050905090810190601f168015610d535780820380516001836020036101000a031916815260200191505b50945050505050600060405180830381600087803b158015610d7457600080fd5b505af1158015610d88573d6000803e3d6000fd5b50505050610dde565b610d9e84610c4a8861167d565b600160a060020a038716600090815260136020526040902055610dc484610c7c8761167d565b600160a060020a0386166000908152601360205260409020555b84600160a060020a031686600160a060020a03167fddf252ad1be2c89b69c2b068fc378daa952ba7f163c4a11628f55a4df523b3ef866040518082815260200191505060405180910390a350600195945050505050565b600554600160a060020a031681565b600054600160a060020a03163314610e5b57600080fd5b8051610e6e9060119060208401906120e2565b5050565b60136020526000908152604090205481565b600160a060020a03821660009081526017602052604090205460ff16151560011480610ebd5750600154600160a060020a038381169116145b1515610ec857600080fd5b80610ed23361167d565b1015610edd57600080fd5b610eea81610c4a3361167d565b33600081815260136020526040902091909155610f0e908290610c7c9085906119c8565b600160a060020a038316600081815260186020908152604080832033808552908352928190209490945583518581529351929391927fec36c0364d931187a76cf66d7eee08fad0ec2e8b7458a8d8b26b36769d4d13f39281900390910190a35050565b3360009081526014602052604081205460ff16600114610f9057600080fd5b33600081815260146020526040808220805460ff19166002179055517ff5f1a1247aa8d2a5ca47f8c104886e2df9ac31612408cd09314472006efafa9b9190a25060015b90565b600054600160a060020a03163314610fee57600080fd5b600160a060020a038216600081815260176020908152604091829020805460ff1916851515908117909155825190815291517fcea19d7e74d2901bed6a09d188b76bf13520e4d6361466d6ba67872151fd09ab9281900390910190a25050565b600081565b60125460ff16151560011461106757600080fd5b601254600154604080517fd3da927f000000000000000000000000000000000000000000000000000000008152336004820152600160a060020a039283166024820152905163010000009093049091169163d3da927f916044808201926020929091908290030181600087803b1580156110e057600080fd5b505af11580156110f4573d6000803e3d6000fd5b505050506040513d602081101561110a57600080fd5b5051151560011461111a57600080fd5b3360009081526016602090815260409091208381558251611143926002909201918401906120e2565b5060408051838152905133917f43a2729c7af1a03b6890cdb94994a64bb4c609275128e96c78daa1dbe9910179919081900360200190a25050565b600b805460408051602060026001851615610100026000190190941693909304601f81018490048402820184019092528181529291830182828015610bd05780601f10610ba557610100808354040283529160200191610bd0565b60176020526000908152604090205460ff1681565b6006805460408051602060026001851615610100026000190190941693909304601f81018490048402820184019092528181529291830182828015610bd05780601f10610ba557610100808354040283529160200191610bd0565b600054600160a060020a0316331461126057600080fd5b600160a060020a038216600081815260166020908152604091829020600101849055815184815291517fa42bd6bdfcb8f9b815c68e4ce0e16dec3f1e7ac53967ee8309653de522a735b19281900390910190a25050565b3360009081526014602052604081205460ff166002146112d657600080fd5b33600081815260146020526040808220805460ff19169055517f4139c849e3930f028ed84a97cbc49a0b2e17ce431020ce97f4d5b4c74ab3d3499190a250600190565b6007805460408051602060026001851615610100026000190190941693909304601f81018490048402820184019092528181529291830182828015610bd05780601f10610ba557610100808354040283529160200191610bd0565b60095481565b6011805460408051602060026001851615610100026000190190941693909304601f81018490048402820184019092528181529291830182828015610bd05780601f10610ba557610100808354040283529160200191610bd0565b3360009081526017602052604090205460ff161515600114806114025750600154600160a060020a031633145b151561140d57600080fd5b8061141833856119c8565b101561142357600080fd5b61143181610c4a33866119c8565b336000908152601860209081526040808320600160a060020a038816845290915290205561146281610c7c8461167d565b600160a060020a0380841660008181526013602090815260409182902094909455805185815290519193928716927fc1c90b8e0705b212262c0dbd7580efe1862c2f185bf96899226f7596beb2db0992918290030190a3505050565b600054600160a060020a031633146114d557600080fd5b6008805460ff1916821515179081905560405160ff9091161515907fe1e5c6f5867805bf3fab73f4df4b80d0e87e9262a7bc22ac7c2cb3fd5896222f90600090a250565b600054600160a060020a0316331461153057600080fd5b600a55565b60156020908152600091825260409182902080548351601f600260001961010060018616150201909316929092049182018490048402810184019094528084529091830182828015610bd05780601f10610ba557610100808354040283529160200191610bd0565b600054600160a060020a031633146115b457600080fd5b8051610e6e90600b9060208401906120e2565b600c805460408051602060026001851615610100026000190190941693909304601f81018490048402820184019092528181529291830182828015610bd05780601f10610ba557610100808354040283529160200191610bd0565b6010805460408051602060026001851615610100026000190190941693909304601f81018490048402820184019092528181529291830182828015610bd05780601f10610ba557610100808354040283529160200191610bd0565b600160a060020a031660009081526013602052604090205490565b600054600160a060020a031633146116af57600080fd5b6005805473ffffffffffffffffffffffffffffffffffffffff1916600160a060020a0392909216919091179055565b600a5481565b60166020908152600091825260409182902080546001808301546002808501805488519481161561010002600019011691909104601f8101879004870284018701909752868352929590949192918301828280156117835780601f1061175857610100808354040283529160200191611783565b820191906000526020600020905b81548152906001019060200180831161176657829003601f168201915b5050505050905083565b60125460ff1681565b600054600160a060020a031633146117ad57600080fd5b6012805460ff19168215159081179091556040517f447614144834195d7b5212cbfb53323578964d52fed6642202090b60b175ff6090600090a250565b600154600160a060020a031681565b600054600160a060020a0316331461181057600080fd5b8051610e6e9060079060208401906120e2565b60125462010000900460ff1681565b6003805460408051602060026001851615610100026000190190941693909304601f81018490048402820184019092528181529291830182828015610bd05780601f10610ba557610100808354040283529160200191610bd0565b600054600160a060020a031633146118a457600080fd5b60128054911515620100000262ff000019909216919091179055565b600054600160a060020a031633146118d757600080fd5b60ff8216600090815260156020908152604090912082516118fa928401906120e2565b505050565b600060608261190d3361167d565b101561191857600080fd5b600554600160a060020a031633146119445760125462010000900460ff16151560011461194457600080fd5b61194d84611dc7565b156119645761195d848483611df7565b915061196f565b61195d848483611f8f565b5092915050565b600160a060020a03166000908152601460205260409020805460ff1916600190811790915590565b600054600160a060020a031633146119b557600080fd5b8051610e6e9060069060208401906120e2565b600160a060020a03918216600090815260186020908152604080832093909416825291909152205490565b600054600160a060020a03163314611a0a57600080fd5b6012805461ff0019166101001790556040517fd95402e764607b7b568a855d3414c03561cb940c03bb4d4ee47ea289e4f96a4290600090a1565b60146020526000908152604090205460ff1681565b601860209081526000928352604080842090915290825290205481565b600d5481565b600054600160a060020a03163314611a9357600080fd5b600160a060020a0381161515611aa857600080fd5b60008054604051600160a060020a03808516939216917f8be0079c531659141344cd1fd0a4f28419497f9722a3daafe3b4186f6b6457e091a36000805473ffffffffffffffffffffffffffffffffffffffff1916600160a060020a0392909216919091179055565b600f805460408051602060026001851615610100026000190190941693909304601f81018490048402820184019092528181529291830182828015610bd05780601f10610ba557610100808354040283529160200191610bd0565b600054600160a060020a03163314611b8257600080fd5b60128054600160a060020a0390921663010000000276ffffffffffffffffffffffffffffffffffffffff00000019909216919091179055565b600e805460408051602060026001851615610100026000190190941693909304601f81018490048402820184019092528181529291830182828015610bd05780601f10610ba557610100808354040283529160200191610bd0565b600054600160a060020a03163314611c2d57600080fd5b600160a060020a03821615611c8b57611c4a81610c7c85856119c8565b600160a060020a03808516600090815260186020908152604080832093871683529290522055600454611c83908263ffffffff611de116565b600455611cc8565b611c9881610c7c8561167d565b600160a060020a038416600090815260136020526040902055600454611cc4908263ffffffff611de116565b6004555b81600160a060020a031683600160a060020a031633600160a060020a03167f65adeb76912378393e600cb6f64f3310842a42e1eae86273dc775d0c47a0f2dc846040518082815260200191505060405180910390a4505050565b60ff811660009081526015602090815260409182902080548351601f6002600019610100600186161502019093169290920491820184900484028101840190945280845260609392830182828015611dbb5780601f10611d9057610100808354040283529160200191611dbb565b820191906000526020600020905b815481529060010190602001808311611d9e57829003601f168201915b50505050509050919050565b6000903b1190565b600082821115611ddb57fe5b50900390565b600082820183811015611df057fe5b9392505050565b6005546000908190600160a060020a03868116911614611e1657600080fd5b611e2384610c4a3361167d565b33600090815260136020526040902055611e4084610c7c8761167d565b600160a060020a03861660008181526013602090815260408083209490945592517fc0ee0b8a0000000000000000000000000000000000000000000000000000000081523360048201818152602483018a90526060604484019081528951606485015289518c9850959663c0ee0b8a9693958c958c956084909101928601918190849084905b83811015611ede578181015183820152602001611ec6565b50505050905090810190601f168015611f0b5780820380516001836020036101000a031916815260200191505b50945050505050600060405180830381600087803b158015611f2c57600080fd5b505af1158015611f40573d6000803e3d6000fd5b5050604080518781529051600160a060020a03891693503392507fddf252ad1be2c89b69c2b068fc378daa952ba7f163c4a11628f55a4df523b3ef9181900360200190a3506001949350505050565b600554600090600160a060020a0316331461205957601254600154604080517fd3da927f000000000000000000000000000000000000000000000000000000008152600160a060020a0388811660048301529283166024820152905163010000009093049091169163d3da927f916044808201926020929091908290030181600087803b15801561201f57600080fd5b505af1158015612033573d6000803e3d6000fd5b505050506040513d602081101561204957600080fd5b5051151560011461205957600080fd5b61206683610c4a3361167d565b3360009081526013602052604090205561208383610c7c8661167d565b600160a060020a0385166000818152601360209081526040918290209390935580518681529051919233927fddf252ad1be2c89b69c2b068fc378daa952ba7f163c4a11628f55a4df523b3ef9281900390910190a35060019392505050565b828054600181600116156101000203166002900490600052602060002090601f016020900481019282601f1061212357805160ff1916838001178555612150565b82800160010185558215612150579182015b82811115612150578251825591602001919060010190612135565b5061215c929150612160565b5090565b610fd491905b8082111561215c57600081556001016121665600a165627a7a72305820507cac321ab40bdd27bf465920f94e0851fe91787adb957d5612d2d606b415dc0029",
  "bytecodeSha1": "d08be2deb165d54baf6245d5cfa8d0540ec5f671",
  "compiler": {
    "evm_version": "byzantium",
    "optimizer": {
      "enabled": true,
      "runs": 200
    },
    "version": "0.4.25"
  },
  "contractName": "IbetStraightBond",
  "language": "Solidity",
  "natspec": {
    "methods": {
      "allot(address,uint256)": {
        "details": "オーナーのみ実行可能",
        "notice": "募集割当",
        "params": {
          "_address": "割当先アドレス",
          "_amount": "割当数量"
        }
      },
      "applyForOffering(uint256,string)": {
        "notice": "募集申込",
        "params": {
          "_data": "申込付与情報"
        }
      },
      "authorize(address,bool)": {
        "details": "オーナーのみ実行可能",
        "notice": "資産ロック先アドレスの認可",
        "params": {
          "_address": "認可対象のアドレス",
          "_auth": "認可状態（true:認可、false:未認可）"
        }
      },
      "balanceOf(address)": {
        "notice": "残高の参照",
        "params": {
          "_owner": "保有者のアドレス"
        },
        "return": "残高数量"
      },
      "getImageURL(uint8)": {
        "notice": "商品画像の参照",
        "params": {
          "_class": "画像番号"
        },
        "return": "画像URL"
      },
      "issueFrom(address,address,uint256)": {
        "details": "特定のアドレスの残高に対して、追加発行を行うオーナーのみ実行可能",
        "notice": "追加発行",
        "params": {
          "_amount": "追加発行数量",
          "_locked_address": "（任意）資産ロックアドレス",
          "_target_address": "追加発行対象の残高を保有するアドレス"
        }
      },
      "lock(address,uint256)": {
        "notice": "資産をロックする",
        "params": {
          "_target_address": "資産をロックする先のアドレス",
          "_value": "ロックする数量"
        }
      },
      "lockedOf(address,address)": {
        "notice": "ロック済み資産の参照",
        "params": {
          "_account_address": "資産ロック対象アカウント",
          "_authorized_address": "資産ロック先アドレス（認可済）"
        },
        "return": "ロック済み数量"
      },
      "redeem()": {
        "details": "オーナーのみ実行可能",
        "notice": "償還する"
      },
      "requestSignature(address)": {
        "notice": "商品の認定をリクエストする",
        "params": {
          "_signer": "認定者"
        },
        "return": "処理結果"
      },
      "setContactInformation(string)": {
        "details": "オーナーのみ実行可能",
        "notice": "問い合わせ先情報の更新",
        "params": {
          "_contactInformation": "問い合わせ先情報"
        }
      },
      "setImageURL(uint8,string)": {
        "details": "オーナーのみ実行可能",
        "notice": "商品画像の更新",
        "params": {
          "_class": "画像番号",
          "_image_url": "画像URL"
        }
      },
      "setInitialOfferingStatus(bool)": {
        "details": "オーナーのみ実行可能",
        "notice": "新規募集ステータスの更新",
        "params": {
          "_status": "募集ステータス"
        }
      },
      "setInterestPaymentDate(string)": {
        "details": "オーナーのみ実行可能",
        "notice": "利払日情報の更新",
        "params": {
          "_interestPaymentDate": "利払日（JSON）"
        }
      },
      "setInterestRate(uint256)": {
        "details": "オーナーのみ実行可能",
        "notice": "年利情報の更新",
        "params": {
          "_interestRate": "年利"
        }
      },
      "setMemo(string)": {
        "details": "オーナーのみ実行可能",
        "notice": "補足情報の更新",
        "params": {
          "_memo": "補足情報"
        }
      },
      "setPersonalInfoAddress(address)": {
        "details": "オーナーのみ実行可能",
        "notice": "個人情報記帳コントラクトの更新",
        "params": {
          "_address": "個人情報記帳コントラクトのアドレス"
        }
      },
      "setPrivacyPolicy(string)": {
        "details": "オーナーのみ実行可能",
        "notice": "プライバシーポリシーの更新",
        "params": {
          "_privacyPolicy": "プライバシーポリシー"
        }
      },
      "setStatus(bool)": {
        "details": "オーナーのみ実行可能",
        "notice": "取扱ステータスの更新",
        "params": {
          "_status": "更新後の取扱ステータス"
        }
      },
      "setTradableExchange(address)": {
        "details": "オーナーのみ実行可能",
        "notice": "取引コントラクトの更新",
        "params": {
          "_exchange": "更新後取引コントラクト"
        }
      },
      "setTransferable(bool)": {
        "details": "オーナーのみ実行可能",
        "notice": "譲渡可否の更新",
        "params": {
          "_transferable": "譲渡可否"
        }
      },
      "sign()": {
        "notice": "商品を認定する",
        "return": "処理結果"
      },
      "transfer(address,uint256)": {
        "notice": "トークンの移転",
        "params": {
          "_to": "宛先アドレス",
          "_value": "移転数量"
        },
        "return": "success 処理結果"
      },
      "transferFrom(address,address,uint256)": {
        "details": "オーナーのみ実行可能",
        "notice": "強制移転",
        "params": {
          "_from": "移転元アドレス",
          "_to": "移転先アドレス",
          "_value": "移転数量"
        },
        "return": "success 処理結果"
      },
      "transferOwnership(address)": {
        "details": "オーナーのみ実行可能",
        "notice": "オーナー変更",
        "params": {
          "newOwner": "新しいオーナー"
        }
      },
      "unlock(address,address,uint256)": {
        "details": "認可済みアドレスあるいは発行体のみ実行可能",
        "notice": "資産をアンロックする",
        "params": {
          "_account_address": "アンロック対象のアドレス",
          "_receive_address": "受取アドレス"
        }
      },
      "unsign()": {
        "notice": "商品の認定を取り消す",
        "return": "処理結果"
      }
    },
    "title": "ibet Straight Bond Token"
  },
  "opcodes": "PUSH1 0x80 PUSH1 0x40 MSTORE PUSH1 0x4 CALLDATASIZE LT PUSH2 0x292 JUMPI PUSH4 0xFFFFFFFF PUSH29 0x100000000000000000000000000000000000000000000000000000000 PUSH1 0x0 CALLDATALOAD DIV AND PUSH4 0x34F6B21 DUP2 EQ PUSH2 0x297 JUMPI DUP1 PUSH4 0x6FDDE03 EQ PUSH2 0x2C0 JUMPI DUP1 PUSH4 0xAF7EB0F EQ PUSH2 0x34A JUMPI DUP1 PUSH4 0x18160DDD EQ PUSH2 0x37B JUMPI DUP1 PUSH4 0x200D2ED2 EQ PUSH2 0x3A2 JUMPI DUP1 PUSH4 0x23B872DD EQ PUSH2 0x3B7 JUMPI DUP1 PUSH4 0x25287D42 EQ PUSH2 0x3E1 JUMPI DUP1 PUSH4 0x25D60861 EQ PUSH2 0x3F6 JUMPI DUP1 PUSH4 0x27E235E3 EQ PUSH2 0x451 JUMPI DUP1 PUSH4 0x282D3FDF EQ PUSH2 0x472 JUMPI DUP1 PUSH4 0x2CA15122 EQ PUSH2 0x496 JUMPI DUP1 PUSH4 0x2D1FB389 EQ PUSH2 0x4AB JUMPI DUP1 PUSH4 0x313CE567 EQ PUSH2 0x4D1 JUMPI DUP1 PUSH4 0x31CEF447 EQ PUSH2 0x4FC JUMPI DUP1 PUSH4 0x329DBDDC EQ PUSH2 0x55A JUMPI DUP1 PUSH4 0x3638104A EQ PUSH2 0x56F JUMPI DUP1 PUSH4 0x36F7AB5E EQ PUSH2 0x590 JUMPI DUP1 PUSH4 0x40615CF8 EQ PUSH2 0x5A5 JUMPI DUP1 PUSH4 0x41E60C86 EQ PUSH2 0x5C9 JUMPI DUP1 PUSH4 0x428630F6 EQ PUSH2 0x5DE JUMPI DUP1 PUSH4 0x44FD9CAA EQ PUSH2 0x5F3 JUMPI DUP1 PUSH4 0x58C3B870 EQ PUSH2 0x608 JUMPI DUP1 PUSH4 0x59508F8F EQ PUSH2 0x61D JUMPI DUP1 PUSH4 0x5C40F6F4 EQ PUSH2 0x647 JUMPI DUP1 PUSH4 0x5F84F302 EQ PUSH2 0x661 JUMPI DUP1 PUSH4 0x60BF50FC EQ PUSH2 0x679 JUMPI DUP1 PUSH4 0x63783444 EQ PUSH2 0x694 JUMPI DUP1 PUSH4 0x6666E49C EQ PUSH2 0x6ED JUMPI DUP1 PUSH4 0x70740AAB EQ PUSH2 0x702 JUMPI DUP1 PUSH4 0x70A08231 EQ PUSH2 0x717 JUMPI DUP1 PUSH4 0x76FA7A31 EQ PUSH2 0x738 JUMPI DUP1 PUSH4 0x7C3A00FD EQ PUSH2 0x759 JUMPI DUP1 PUSH4 0x7C3BF42D EQ PUSH2 0x76E JUMPI DUP1 PUSH4 0x833E0D8C EQ PUSH2 0x815 JUMPI DUP1 PUSH4 0x88539011 EQ PUSH2 0x82A JUMPI DUP1 PUSH4 0x8DA5CB5B EQ PUSH2 0x844 JUMPI DUP1 PUSH4 0x8ED8A9BC EQ PUSH2 0x859 JUMPI DUP1 PUSH4 0x92FF0D31 EQ PUSH2 0x8B2 JUMPI DUP1 PUSH4 0x95D89B41 EQ PUSH2 0x8C7 JUMPI DUP1 PUSH4 0x9CD23707 EQ PUSH2 0x8DC JUMPI DUP1 PUSH4 0xA124BEBA EQ PUSH2 0x8F6 JUMPI DUP1 PUSH4 0xA9059CBB EQ PUSH2 0x957 JUMPI DUP1 PUSH4 0xAB8F67C8 EQ PUSH2 0x97B JUMPI DUP1 PUSH4 0xB967A52E EQ PUSH2 0x99C JUMPI DUP1 PUSH4 0xB9B3E06A EQ PUSH2 0x9F5 JUMPI DUP1 PUSH4 0xBE040FB0 EQ PUSH2 0xA1C JUMPI DUP1 PUSH4 0xC792F36D EQ PUSH2 0xA31 JUMPI DUP1 PUSH4 0xDB20266F EQ PUSH2 0xA52 JUMPI DUP1 PUSH4 0xEF4474CD EQ PUSH2 0xA79 JUMPI DUP1 PUSH4 0xF2FDE38B EQ PUSH2 0xA8E JUMPI DUP1 PUSH4 0xF35EEAEF EQ PUSH2 0xAAF JUMPI DUP1 PUSH4 0xF7502A7C EQ PUSH2 0xAC4 JUMPI DUP1 PUSH4 0xFC590D09 EQ PUSH2 0xAE5 JUMPI DUP1 PUSH4 0xFF12DCEA EQ PUSH2 0xAFA JUMPI DUP1 PUSH4 0xFFCA397B EQ PUSH2 0xB24 JUMPI JUMPDEST PUSH1 0x0 DUP1 REVERT JUMPDEST CALLVALUE DUP1 ISZERO PUSH2 0x2A3 JUMPI PUSH1 0x0 DUP1 REVERT JUMPDEST POP PUSH2 0x2AC PUSH2 0xB3F JUMP JUMPDEST PUSH1 0x40 DUP1 MLOAD SWAP2 ISZERO ISZERO DUP3 MSTORE MLOAD SWAP1 DUP2 SWAP1 SUB PUSH1 0x20 ADD SWAP1 RETURN JUMPDEST CALLVALUE DUP1 ISZERO PUSH2 0x2CC JUMPI PUSH1 0x0 DUP1 REVERT JUMPDEST POP PUSH2 0x2D5 PUSH2 0xB4D JUMP JUMPDEST PUSH1 0x40 DUP1 MLOAD PUSH1 0x20 DUP1 DUP3 MSTORE DUP4 MLOAD DUP2 DUP4 ADD MSTORE DUP4 MLOAD SWAP2 SWAP3 DUP4 SWAP3 SWAP1 DUP4 ADD SWAP2 DUP6 ADD SWAP1 DUP1 DUP4 DUP4 PUSH1 0x0 JUMPDEST DUP4 DUP2 LT ISZERO PUSH2 0x30F JUMPI DUP2 DUP2 ADD MLOAD DUP4 DUP3 ADD MSTORE PUSH1 0x20 ADD PUSH2 0x2F7 JUMP JUMPDEST POP POP POP POP SWAP1 POP SWAP1 DUP2 ADD SWAP1 PUSH1 0x1F AND DUP1 ISZERO PUSH2 0x33C JUMPI DUP1 DUP3 SUB DUP1 MLOAD PUSH1 0x1 DUP4 PUSH1 0x20 SUB PUSH2 0x100 EXP SUB NOT AND DUP2 MSTORE PUSH1 0x20 ADD SWAP2 POP JUMPDEST POP SWAP3 POP POP POP PUSH1 0x40 MLOAD DUP1 SWAP2 SUB SWAP1 RETURN JUMPDEST CALLVALUE DUP1 ISZERO PUSH2 0x356 JUMPI PUSH1 0x0 DUP1 REVERT JUMPDEST POP PUSH2 0x35F PUSH2 0xBD8 JUMP JUMPDEST PUSH1 0x40 DUP1 MLOAD PUSH1 0x1 PUSH1 0xA0 PUSH1 0x2 EXP SUB SWAP1 SWAP3 AND DUP3 MSTORE MLOAD SWAP1 DUP2 SWAP1 SUB PUSH1 0x20 ADD SWAP1 RETURN JUMPDEST CALLVALUE DUP1 ISZERO PUSH2 0x387 JUMPI PUSH1 0x0 DUP1 REVERT JUMPDEST POP PUSH2 0x390 PUSH2 0xBEE JUMP JUMPDEST PUSH1 0x40 DUP1 MLOAD SWAP2 DUP3 MSTORE MLOAD SWAP1 DUP2 SWAP1 SUB PUSH1 0x20 ADD SWAP1 RETURN JUMPDEST CALLVALUE DUP1 ISZERO PUSH2 0x3AE JUMPI PUSH1 0x0 DUP1 REVERT JUMPDEST POP PUSH2 0x2AC PUSH2 0xBF4 JUMP JUMPDEST CALLVALUE DUP1 ISZERO PUSH2 0x3C3 JUMPI PUSH1 0x0 DUP1 REVERT JUMPDEST POP PUSH2 0x2AC PUSH1 0x1 PUSH1 0xA0 PUSH1 0x2 EXP SUB PUSH1 0x4 CALLDATALOAD DUP2 AND SWAP1 PUSH1 0x24 CALLDATALOAD AND PUSH1 0x44 CALLDATALOAD PUSH2 0xBFD JUMP JUMPDEST CALLVALUE DUP1 ISZERO PUSH2 0x3ED JUMPI PUSH1 0x0 DUP1 REVERT JUMPDEST POP PUSH2 0x35F PUSH2 0xE35 JUMP JUMPDEST CALLVALUE DUP1 ISZERO PUSH2 0x402 JUMPI PUSH1 0x0 DUP1 REVERT JUMPDEST POP PUSH1 0x40 DUP1 MLOAD PUSH1 0x20 PUSH1 0x4 DUP1 CALLDATALOAD DUP1 DUP3 ADD CALLDATALOAD PUSH1 0x1F DUP2 ADD DUP5 SWAP1 DIV DUP5 MUL DUP6 ADD DUP5 ADD SWAP1 SWAP6 MSTORE DUP5 DUP5 MSTORE PUSH2 0x44F SWAP5 CALLDATASIZE SWAP5 SWAP3 SWAP4 PUSH1 0x24 SWAP4 SWAP3 DUP5 ADD SWAP2 SWAP1 DUP2 SWAP1 DUP5 ADD DUP4 DUP3 DUP1 DUP3 DUP5 CALLDATACOPY POP SWAP5 SWAP8 POP PUSH2 0xE44 SWAP7 POP POP POP POP POP POP POP JUMP JUMPDEST STOP JUMPDEST CALLVALUE DUP1 ISZERO PUSH2 0x45D JUMPI PUSH1 0x0 DUP1 REVERT JUMPDEST POP PUSH2 0x390 PUSH1 0x1 PUSH1 0xA0 PUSH1 0x2 EXP SUB PUSH1 0x4 CALLDATALOAD AND PUSH2 0xE72 JUMP JUMPDEST CALLVALUE DUP1 ISZERO PUSH2 0x47E JUMPI PUSH1 0x0 DUP1 REVERT JUMPDEST POP PUSH2 0x44F PUSH1 0x1 PUSH1 0xA0 PUSH1 0x2 EXP SUB PUSH1 0x4 CALLDATALOAD AND PUSH1 0x24 CALLDATALOAD PUSH2 0xE84 JUMP JUMPDEST CALLVALUE DUP1 ISZERO PUSH2 0x4A2 JUMPI PUSH1 0x0 DUP1 REVERT JUMPDEST POP PUSH2 0x2AC PUSH2 0xF71 JUMP JUMPDEST CALLVALUE DUP1 ISZERO PUSH2 0x4B7 JUMPI PUSH1 0x0 DUP1 REVERT JUMPDEST POP PUSH2 0x44F PUSH1 0x1 PUSH1 0xA0 PUSH1 0x2 EXP SUB PUSH1 0x4 CALLDATALOAD AND PUSH1 0x24 CALLDATALOAD ISZERO ISZERO PUSH2 0xFD7 JUMP JUMPDEST CALLVALUE DUP1 ISZERO PUSH2 0x4DD JUMPI PUSH1 0x0 DUP1 REVERT JUMPDEST POP PUSH2 0x4E6 PUSH2 0x104E JUMP JUMPDEST PUSH1 0x40 DUP1 MLOAD PUSH1 0xFF SWAP1 SWAP3 AND DUP3 MSTORE MLOAD SWAP1 DUP2 SWAP1 SUB PUSH1 0x20 ADD SWAP1 RETURN JUMPDEST CALLVALUE DUP1 ISZERO PUSH2 0x508 JUMPI PUSH1 0x0 DUP1 REVERT JUMPDEST POP PUSH1 0x40 DUP1 MLOAD PUSH1 0x20 PUSH1 0x4 PUSH1 0x24 DUP1 CALLDATALOAD DUP3 DUP2 ADD CALLDATALOAD PUSH1 0x1F DUP2 ADD DUP6 SWAP1 DIV DUP6 MUL DUP7 ADD DUP6 ADD SWAP1 SWAP7 MSTORE DUP6 DUP6 MSTORE PUSH2 0x44F SWAP6 DUP4 CALLDATALOAD SWAP6 CALLDATASIZE SWAP6 PUSH1 0x44 SWAP5 SWAP2 SWAP4 SWAP1 SWAP2 ADD SWAP2 SWAP1 DUP2 SWAP1 DUP5 ADD DUP4 DUP3 DUP1 DUP3 DUP5 CALLDATACOPY POP SWAP5 SWAP8 POP PUSH2 0x1053 SWAP7 POP POP POP POP POP POP POP JUMP JUMPDEST CALLVALUE DUP1 ISZERO PUSH2 0x566 JUMPI PUSH1 0x0 DUP1 REVERT JUMPDEST POP PUSH2 0x2D5 PUSH2 0x117E JUMP JUMPDEST CALLVALUE DUP1 ISZERO PUSH2 0x57B JUMPI PUSH1 0x0 DUP1 REVERT JUMPDEST POP PUSH2 0x2AC PUSH1 0x1 PUSH1 0xA0 PUSH1 0x2 EXP SUB PUSH1 0x4 CALLDATALOAD AND PUSH2 0x11D9 JUMP JUMPDEST CALLVALUE DUP1 ISZERO PUSH2 0x59C JUMPI PUSH1 0x0 DUP1 REVERT JUMPDEST POP PUSH2 0x2D5 PUSH2 0x11EE JUMP JUMPDEST CALLVALUE DUP1 ISZERO PUSH2 0x5B1 JUMPI PUSH1 0x0 DUP1 REVERT JUMPDEST POP PUSH2 0x44F PUSH1 0x1 PUSH1 0xA0 PUSH1 0x2 EXP SUB PUSH1 0x4 CALLDATALOAD AND PUSH1 0x24 CALLDATALOAD PUSH2 0x1249 JUMP JUMPDEST CALLVALUE DUP1 ISZERO PUSH2 0x5D5 JUMPI PUSH1 0x0 DUP1 REVERT JUMPDEST POP PUSH2 0x2AC PUSH2 0x12B7 JUMP JUMPDEST CALLVALUE DUP1 ISZERO PUSH2 0x5EA JUMPI PUSH1 0x0 DUP1 REVERT JUMPDEST POP PUSH2 0x2D5 PUSH2 0x1319 JUMP JUMPDEST CALLVALUE DUP1 ISZERO PUSH2 0x5FF JUMPI PUSH1 0x0 DUP1 REVERT JUMPDEST POP PUSH2 0x390 PUSH2 0x1374 JUMP JUMPDEST CALLVALUE DUP1 ISZERO PUSH2 0x614 JUMPI PUSH1 0x0 DUP1 REVERT JUMPDEST POP PUSH2 0x2D5 PUSH2 0x137A JUMP JUMPDEST CALLVALUE DUP1 ISZERO PUSH2 0x629 JUMPI PUSH1 0x0 DUP1 REVERT JUMPDEST POP PUSH2 0x44F PUSH1 0x1 PUSH1 0xA0 PUSH1 0x2 EXP SUB PUSH1 0x4 CALLDATALOAD DUP2 AND SWAP1 PUSH1 0x24 CALLDATALOAD AND PUSH1 0x44 CALLDATALOAD PUSH2 0x13D5 JUMP JUMPDEST CALLVALUE DUP1 ISZERO PUSH2 0x653 JUMPI PUSH1 0x0 DUP1 REVERT JUMPDEST POP PUSH2 0x44F PUSH1 0x4 CALLDATALOAD ISZERO ISZERO PUSH2 0x14BE JUMP JUMPDEST CALLVALUE DUP1 ISZERO PUSH2 0x66D JUMPI PUSH1 0x0 DUP1 REVERT JUMPDEST POP PUSH2 0x44F PUSH1 0x4 CALLDATALOAD PUSH2 0x1519 JUMP JUMPDEST CALLVALUE DUP1 ISZERO PUSH2 0x685 JUMPI PUSH1 0x0 DUP1 REVERT JUMPDEST POP PUSH2 0x2D5 PUSH1 0xFF PUSH1 0x4 CALLDATALOAD AND PUSH2 0x1535 JUMP JUMPDEST CALLVALUE DUP1 ISZERO PUSH2 0x6A0 JUMPI PUSH1 0x0 DUP1 REVERT JUMPDEST POP PUSH1 0x40 DUP1 MLOAD PUSH1 0x20 PUSH1 0x4 DUP1 CALLDATALOAD DUP1 DUP3 ADD CALLDATALOAD PUSH1 0x1F DUP2 ADD DUP5 SWAP1 DIV DUP5 MUL DUP6 ADD DUP5 ADD SWAP1 SWAP6 MSTORE DUP5 DUP5 MSTORE PUSH2 0x44F SWAP5 CALLDATASIZE SWAP5 SWAP3 SWAP4 PUSH1 0x24 SWAP4 SWAP3 DUP5 ADD SWAP2 SWAP1 DUP2 SWAP1 DUP5 ADD DUP4 DUP3 DUP1 DUP3 DUP5 CALLDATACOPY POP SWAP5 SWAP8 POP PUSH2 0x159D SWAP7 POP POP POP POP POP POP POP JUMP JUMPDEST CALLVALUE DUP1 ISZERO PUSH2 0x6F9 JUMPI PUSH1 0x0 DUP1 REVERT JUMPDEST POP PUSH2 0x2D5 PUSH2 0x15C7 JUMP JUMPDEST CALLVALUE DUP1 ISZERO PUSH2 0x70E JUMPI PUSH1 0x0 DUP1 REVERT JUMPDEST POP PUSH2 0x2D5 PUSH2 0x1622 JUMP JUMPDEST CALLVALUE DUP1 ISZERO PUSH2 0x723 JUMPI PUSH1 0x0 DUP1 REVERT JUMPDEST POP PUSH2 0x390 PUSH1 0x1 PUSH1 0xA0 PUSH1 0x2 EXP SUB PUSH1 0x4 CALLDATALOAD AND PUSH2 0x167D JUMP JUMPDEST CALLVALUE DUP1 ISZERO PUSH2 0x744 JUMPI PUSH1 0x0 DUP1 REVERT JUMPDEST POP PUSH2 0x44F PUSH1 0x1 PUSH1 0xA0 PUSH1 0x2 EXP SUB PUSH1 0x4 CALLDATALOAD AND PUSH2 0x1698 JUMP JUMPDEST CALLVALUE DUP1 ISZERO PUSH2 0x765 JUMPI PUSH1 0x0 DUP1 REVERT JUMPDEST POP PUSH2 0x390 PUSH2 0x16DE JUMP JUMPDEST CALLVALUE DUP1 ISZERO PUSH2 0x77A JUMPI PUSH1 0x0 DUP1 REVERT JUMPDEST POP PUSH2 0x78F PUSH1 0x1 PUSH1 0xA0 PUSH1 0x2 EXP SUB PUSH1 0x4 CALLDATALOAD AND PUSH2 0x16E4 JUMP JUMPDEST PUSH1 0x40 MLOAD DUP1 DUP5 DUP2 MSTORE PUSH1 0x20 ADD DUP4 DUP2 MSTORE PUSH1 0x20 ADD DUP1 PUSH1 0x20 ADD DUP3 DUP2 SUB DUP3 MSTORE DUP4 DUP2 DUP2 MLOAD DUP2 MSTORE PUSH1 0x20 ADD SWAP2 POP DUP1 MLOAD SWAP1 PUSH1 0x20 ADD SWAP1 DUP1 DUP4 DUP4 PUSH1 0x0 JUMPDEST DUP4 DUP2 LT ISZERO PUSH2 0x7D8 JUMPI DUP2 DUP2 ADD MLOAD DUP4 DUP3 ADD MSTORE PUSH1 0x20 ADD PUSH2 0x7C0 JUMP JUMPDEST POP POP POP POP SWAP1 POP SWAP1 DUP2 ADD SWAP1 PUSH1 0x1F AND DUP1 ISZERO PUSH2 0x805 JUMPI DUP1 DUP3 SUB DUP1 MLOAD PUSH1 0x1 DUP4 PUSH1 0x20 SUB PUSH2 0x100 EXP SUB NOT AND DUP2 MSTORE PUSH1 0x20 ADD SWAP2 POP JUMPDEST POP SWAP5 POP POP POP POP POP PUSH1 0x40 MLOAD DUP1 SWAP2 SUB SWAP1 RETURN JUMPDEST CALLVALUE DUP1 ISZERO PUSH2 0x821 JUMPI PUSH1 0x0 DUP1 REVERT JUMPDEST POP PUSH2 0x2AC PUSH2 0x178D JUMP JUMPDEST CALLVALUE DUP1 ISZERO PUSH2 0x836 JUMPI PUSH1 0x0 DUP1 REVERT JUMPDEST POP PUSH2 0x44F PUSH1 0x4 CALLDATALOAD ISZERO ISZERO PUSH2 0x1796 JUMP JUMPDEST CALLVALUE DUP1 ISZERO PUSH2 0x850 JUMPI PUSH1 0x0 DUP1 REVERT JUMPDEST POP PUSH2 0x35F PUSH2 0x17EA JUMP JUMPDEST CALLVALUE DUP1 ISZERO PUSH2 0x865 JUMPI PUSH1 0x0 DUP1 REVERT JUMPDEST POP PUSH1 0x40 DUP1 MLOAD PUSH1 0x20 PUSH1 0x4 DUP1 CALLDATALOAD DUP1 DUP3 ADD CALLDATALOAD PUSH1 0x1F DUP2 ADD DUP5 SWAP1 DIV DUP5 MUL DUP6 ADD DUP5 ADD SWAP1 SWAP6 MSTORE DUP5 DUP5 MSTORE PUSH2 0x44F SWAP5 CALLDATASIZE SWAP5 SWAP3 SWAP4 PUSH1 0x24 SWAP4 SWAP3 DUP5 ADD SWAP2 SWAP1 DUP2 SWAP1 DUP5 ADD DUP4 DUP3 DUP1 DUP3 DUP5 CALLDATACOPY POP SWAP5 SWAP8 POP PUSH2 0x17F9 SWAP7 POP POP POP POP POP POP POP JUMP JUMPDEST CALLVALUE DUP1 ISZERO PUSH2 0x8BE JUMPI PUSH1 0x0 DUP1 REVERT JUMPDEST POP PUSH2 0x2AC PUSH2 0x1823 JUMP JUMPDEST CALLVALUE DUP1 ISZERO PUSH2 0x8D3 JUMPI PUSH1 0x0 DUP1 REVERT JUMPDEST POP PUSH2 0x2D5 PUSH2 0x1832 JUMP JUMPDEST CALLVALUE DUP1 ISZERO PUSH2 0x8E8 JUMPI PUSH1 0x0 DUP1 REVERT JUMPDEST POP PUSH2 0x44F PUSH1 0x4 CALLDATALOAD ISZERO ISZERO PUSH2 0x188D JUMP JUMPDEST CALLVALUE DUP1 ISZERO PUSH2 0x902 JUMPI PUSH1 0x0 DUP1 REVERT JUMPDEST POP PUSH1 0x40 DUP1 MLOAD PUSH1 0x20 PUSH1 0x4 PUSH1 0x24 DUP1 CALLDATALOAD DUP3 DUP2 ADD CALLDATALOAD PUSH1 0x1F DUP2 ADD DUP6 SWAP1 DIV DUP6 MUL DUP7 ADD DUP6 ADD SWAP1 SWAP7 MSTORE DUP6 DUP6 MSTORE PUSH2 0x44F SWAP6 DUP4 CALLDATALOAD PUSH1 0xFF AND SWAP6 CALLDATASIZE SWAP6 PUSH1 0x44 SWAP5 SWAP2 SWAP4 SWAP1 SWAP2 ADD SWAP2 SWAP1 DUP2 SWAP1 DUP5 ADD DUP4 DUP3 DUP1 DUP3 DUP5 CALLDATACOPY POP SWAP5 SWAP8 POP PUSH2 0x18C0 SWAP7 POP POP POP POP POP POP POP JUMP JUMPDEST CALLVALUE DUP1 ISZERO PUSH2 0x963 JUMPI PUSH1 0x0 DUP1 REVERT JUMPDEST POP PUSH2 0x2AC PUSH1 0x1 PUSH1 0xA0 PUSH1 0x2 EXP SUB PUSH1 0x4 CALLDATALOAD AND PUSH1 0x24 CALLDATALOAD PUSH2 0x18FF JUMP JUMPDEST CALLVALUE DUP1 ISZERO PUSH2 0x987 JUMPI PUSH1 0x0 DUP1 REVERT JUMPDEST POP PUSH2 0x2AC PUSH1 0x1 PUSH1 0xA0 PUSH1 0x2 EXP SUB PUSH1 0x4 CALLDATALOAD AND PUSH2 0x1976 JUMP JUMPDEST CALLVALUE DUP1 ISZERO PUSH2 0x9A8 JUMPI PUSH1 0x0 DUP1 REVERT JUMPDEST POP PUSH1 0x40 DUP1 MLOAD PUSH1 0x20 PUSH1 0x4 DUP1 CALLDATALOAD DUP1 DUP3 ADD CALLDATALOAD PUSH1 0x1F DUP2 ADD DUP5 SWAP1 DIV DUP5 MUL DUP6 ADD DUP5 ADD SWAP1 SWAP6 MSTORE DUP5 DUP5 MSTORE PUSH2 0x44F SWAP5 CALLDATASIZE SWAP5 SWAP3 SWAP4 PUSH1 0x24 SWAP4 SWAP3 DUP5 ADD SWAP2 SWAP1 DUP2 SWAP1 DUP5 ADD DUP4 DUP3 DUP1 DUP3 DUP5 CALLDATACOPY POP SWAP5 SWAP8 POP PUSH2 0x199E SWAP7 POP POP POP POP POP POP POP JUMP JUMPDEST CALLVALUE DUP1 ISZERO PUSH2 0xA01 JUMPI PUSH1 0x0 DUP1 REVERT JUMPDEST POP PUSH2 0x390 PUSH1 0x1 PUSH1 0xA0 PUSH1 0x2 EXP SUB PUSH1 0x4 CALLDATALOAD DUP2 AND SWAP1 PUSH1 0x24 CALLDATALOAD AND PUSH2 0x19C8 JUMP JUMPDEST CALLVALUE DUP1 ISZERO PUSH2 0xA28 JUMPI PUSH1 0x0 DUP1 REVERT JUMPDEST POP PUSH2 0x44F PUSH2 0x19F3 JUMP JUMPDEST CALLVALUE DUP1 ISZERO PUSH2 0xA3D JUMPI PUSH1 0x0 DUP1 REVERT JUMPDEST POP PUSH2 0x4E6 PUSH1 0x1 PUSH1 0xA0 PUSH1 0x2 EXP SUB PUSH1 0x4 CALLDATALOAD AND PUSH2 0x1A44 JUMP JUMPDEST CALLVALUE DUP1 ISZERO PUSH2 0xA5E JUMPI PUSH1 0x0 DUP1 REVERT JUMPDEST POP PUSH2 0x390 PUSH1 0x1 PUSH1 0xA0 PUSH1 0x2 EXP SUB PUSH1 0x4 CALLDATALOAD DUP2 AND SWAP1 PUSH1 0x24 CALLDATALOAD AND PUSH2 0x1A59 JUMP JUMPDEST CALLVALUE DUP1 ISZERO PUSH2 0xA85 JUMPI PUSH1 0x0 DUP1 REVERT JUMPDEST POP PUSH2 0x390 PUSH2 0x1A76 JUMP JUMPDEST CALLVALUE DUP1 ISZERO PUSH2 0xA9A JUMPI PUSH1 0x0 DUP1 REVERT JUMPDEST POP PUSH2 0x44F PUSH1 0x1 PUSH1 0xA0 PUSH1 0x2 EXP SUB PUSH1 0x4 CALLDATALOAD AND PUSH2 0x1A7C JUMP JUMPDEST CALLVALUE DUP1 ISZERO PUSH2 0xABB JUMPI PUSH1 0x0 DUP1 REVERT JUMPDEST POP PUSH2 0x2D5 PUSH2 0x1B10 JUMP JUMPDEST CALLVALUE DUP1 ISZERO PUSH2 0xAD0 JUMPI PUSH1 0x0 DUP1 REVERT JUMPDEST POP PUSH2 0x44F PUSH1 0x1 PUSH1 0xA0 PUSH1 0x2 EXP SUB PUSH1 0x4 CALLDATALOAD AND PUSH2 0x1B6B JUMP JUMPDEST CALLVALUE DUP1 ISZERO PUSH2 0xAF1 JUMPI PUSH1 0x0 DUP1 REVERT JUMPDEST POP PUSH2 0x2D5 PUSH2 0x1BBB JUMP JUMPDEST CALLVALUE DUP1 ISZERO PUSH2 0xB06 JUMPI PUSH1 0x0 DUP1 REVERT JUMPDEST POP PUSH2 0x44F PUSH1 0x1 PUSH1 0xA0 PUSH1 0x2 EXP SUB PUSH1 0x4 CALLDATALOAD DUP2 AND SWAP1 PUSH1 0x24 CALLDATALOAD AND PUSH1 0x44 CALLDATALOAD PUSH2 0x1C16 JUMP JUMPDEST CALLVALUE DUP1 ISZERO PUSH2 0xB30 JUMPI PUSH1 0x0 DUP1 REVERT JUMPDEST POP PUSH2 0x2D5 PUSH1 0xFF PUSH1 0x4 CALLDATALOAD AND PUSH2 0x1D22 JUMP JUMPDEST PUSH1 0x12 SLOAD PUSH2 0x100 SWAP1 DIV PUSH1 0xFF AND DUP2 JUMP JUMPDEST PUSH1 0x2 DUP1 SLOAD PUSH1 0x40 DUP1 MLOAD PUSH1 0x20 PUSH1 0x1 DUP5 AND ISZERO PUSH2 0x100 MUL PUSH1 0x0 NOT ADD SWAP1 SWAP4 AND DUP5 SWAP1 DIV PUSH1 0x1F DUP2 ADD DUP5 SWAP1 DIV DUP5 MUL DUP3 ADD DUP5 ADD SWAP1 SWAP3 MSTORE DUP2 DUP2 MSTORE SWAP3 SWAP2 DUP4 ADD DUP3 DUP3 DUP1 ISZERO PUSH2 0xBD0 JUMPI DUP1 PUSH1 0x1F LT PUSH2 0xBA5 JUMPI PUSH2 0x100 DUP1 DUP4 SLOAD DIV MUL DUP4 MSTORE SWAP2 PUSH1 0x20 ADD SWAP2 PUSH2 0xBD0 JUMP JUMPDEST DUP3 ADD SWAP2 SWAP1 PUSH1 0x0 MSTORE PUSH1 0x20 PUSH1 0x0 KECCAK256 SWAP1 JUMPDEST DUP2 SLOAD DUP2 MSTORE SWAP1 PUSH1 0x1 ADD SWAP1 PUSH1 0x20 ADD DUP1 DUP4 GT PUSH2 0xBB3 JUMPI DUP3 SWAP1 SUB PUSH1 0x1F AND DUP3 ADD SWAP2 JUMPDEST POP POP POP POP POP DUP2 JUMP JUMPDEST PUSH1 0x12 SLOAD PUSH4 0x1000000 SWAP1 DIV PUSH1 0x1 PUSH1 0xA0 PUSH1 0x2 EXP SUB AND DUP2 JUMP JUMPDEST PUSH1 0x4 SLOAD DUP2 JUMP JUMPDEST PUSH1 0x8 SLOAD PUSH1 0xFF AND DUP2 JUMP JUMPDEST PUSH1 0x0 DUP1 SLOAD PUSH1 0x60 SWAP1 DUP3 SWAP1 PUSH1 0x1 PUSH1 0xA0 PUSH1 0x2 EXP SUB AND CALLER EQ PUSH2 0xC1A JUMPI PUSH1 0x0 DUP1 REVERT JUMPDEST DUP4 PUSH2 0xC24 DUP8 PUSH2 0x167D JUMP JUMPDEST LT ISZERO PUSH2 0xC2F JUMPI PUSH1 0x0 DUP1 REVERT JUMPDEST PUSH2 0xC38 DUP6 PUSH2 0x1DC7 JUMP JUMPDEST ISZERO PUSH2 0xD91 JUMPI PUSH2 0xC56 DUP5 PUSH2 0xC4A DUP9 PUSH2 0x167D JUMP JUMPDEST SWAP1 PUSH4 0xFFFFFFFF PUSH2 0x1DCF AND JUMP JUMPDEST PUSH1 0x1 PUSH1 0xA0 PUSH1 0x2 EXP SUB DUP8 AND PUSH1 0x0 SWAP1 DUP2 MSTORE PUSH1 0x13 PUSH1 0x20 MSTORE PUSH1 0x40 SWAP1 KECCAK256 SSTORE PUSH2 0xC88 DUP5 PUSH2 0xC7C DUP8 PUSH2 0x167D JUMP JUMPDEST SWAP1 PUSH4 0xFFFFFFFF PUSH2 0x1DE1 AND JUMP JUMPDEST PUSH1 0x1 PUSH1 0xA0 PUSH1 0x2 EXP SUB DUP7 AND PUSH1 0x0 DUP2 DUP2 MSTORE PUSH1 0x13 PUSH1 0x20 SWAP1 DUP2 MSTORE PUSH1 0x40 DUP1 DUP4 KECCAK256 SWAP5 SWAP1 SWAP5 SSTORE SWAP3 MLOAD PUSH32 0xC0EE0B8A00000000000000000000000000000000000000000000000000000000 DUP2 MSTORE CALLER PUSH1 0x4 DUP3 ADD DUP2 DUP2 MSTORE PUSH1 0x24 DUP4 ADD DUP11 SWAP1 MSTORE PUSH1 0x60 PUSH1 0x44 DUP5 ADD SWAP1 DUP2 MSTORE DUP9 MLOAD PUSH1 0x64 DUP6 ADD MSTORE DUP9 MLOAD DUP13 SWAP9 POP SWAP6 SWAP7 PUSH4 0xC0EE0B8A SWAP7 SWAP4 SWAP6 DUP13 SWAP6 DUP12 SWAP6 PUSH1 0x84 SWAP1 SWAP2 ADD SWAP3 DUP7 ADD SWAP2 DUP2 SWAP1 DUP5 SWAP1 DUP5 SWAP1 JUMPDEST DUP4 DUP2 LT ISZERO PUSH2 0xD26 JUMPI DUP2 DUP2 ADD MLOAD DUP4 DUP3 ADD MSTORE PUSH1 0x20 ADD PUSH2 0xD0E JUMP JUMPDEST POP POP POP POP SWAP1 POP SWAP1 DUP2 ADD SWAP1 PUSH1 0x1F AND DUP1 ISZERO PUSH2 0xD53 JUMPI DUP1 DUP3 SUB DUP1 MLOAD PUSH1 0x1 DUP4 PUSH1 0x20 SUB PUSH2 0x100 EXP SUB NOT AND DUP2 MSTORE PUSH1 0x20 ADD SWAP2 POP JUMPDEST POP SWAP5 POP POP POP POP POP PUSH1 0x0 PUSH1 0x40 MLOAD DUP1 DUP4 SUB DUP2 PUSH1 0x0 DUP8 DUP1 EXTCODESIZE ISZERO DUP1 ISZERO PUSH2 0xD74 JUMPI PUSH1 0x0 DUP1 REVERT JUMPDEST POP GAS CALL ISZERO DUP1 ISZERO PUSH2 0xD88 JUMPI RETURNDATASIZE PUSH1 0x0 DUP1 RETURNDATACOPY RETURNDATASIZE PUSH1 0x0 REVERT JUMPDEST POP POP POP POP PUSH2 0xDDE JUMP JUMPDEST PUSH2 0xD9E DUP5 PUSH2 0xC4A DUP9 PUSH2 0x167D JUMP JUMPDEST PUSH1 0x1 PUSH1 0xA0 PUSH1 0x2 EXP SUB DUP8 AND PUSH1 0x0 SWAP1 DUP2 MSTORE PUSH1 0x13 PUSH1 0x20 MSTORE PUSH1 0x40 SWAP1 KECCAK256 SSTORE PUSH2 0xDC4 DUP5 PUSH2 0xC7C DUP8 PUSH2 0x167D JUMP JUMPDEST PUSH1 0x1 PUSH1 0xA0 PUSH1 0x2 EXP SUB DUP7 AND PUSH1 0x0 SWAP1 DUP2 MSTORE PUSH1 0x13 PUSH1 0x20 MSTORE PUSH1 0x40 SWAP1 KECCAK256 SSTORE JUMPDEST DUP5 PUSH1 0x1 PUSH1 0xA0 PUSH1 0x2 EXP SUB AND DUP7 PUSH1 0x1 PUSH1 0xA0 PUSH1 0x2 EXP SUB AND PUSH32 0xDDF252AD1BE2C89B69C2B068FC378DAA952BA7F163C4A11628F55A4DF523B3EF DUP7 PUSH1 0x40 MLOAD DUP1 DUP3 DUP2 MSTORE PUSH1 0x20 ADD SWAP2 POP POP PUSH1 0x40 MLOAD DUP1 SWAP2 SUB SWAP1 LOG3 POP PUSH1 0x1 SWAP6 SWAP5 POP POP POP POP POP JUMP JUMPDEST PUSH1 0x5 SLOAD PUSH1 0x1 PUSH1 0xA0 PUSH1 0x2 EXP SUB AND DUP2 JUMP JUMPDEST PUSH1 0x0 SLOAD PUSH1 0x1 PUSH1 0xA0 PUSH1 0x2 EXP SUB AND CALLER EQ PUSH2 0xE5B JUMPI PUSH1 0x0 DUP1 REVERT JUMPDEST DUP1 MLOAD PUSH2 0xE6E SWAP1 PUSH1 0x11 SWAP1 PUSH1 0x20 DUP5 ADD SWAP1 PUSH2 0x20E2 JUMP JUMPDEST POP POP JUMP JUMPDEST PUSH1 0x13 PUSH1 0x20 MSTORE PUSH1 0x0 SWAP1 DUP2 MSTORE PUSH1 0x40 SWAP1 KECCAK256 SLOAD DUP2 JUMP JUMPDEST PUSH1 0x1 PUSH1 0xA0 PUSH1 0x2 EXP SUB DUP3 AND PUSH1 0x0 SWAP1 DUP2 MSTORE PUSH1 0x17 PUSH1 0x20 MSTORE PUSH1 0x40 SWAP1 KECCAK256 SLOAD PUSH1 0xFF AND ISZERO ISZERO PUSH1 0x1 EQ DUP1 PUSH2 0xEBD JUMPI POP PUSH1 0x1 SLOAD PUSH1 0x1 PUSH1 0xA0 PUSH1 0x2 EXP SUB DUP4 DUP2 AND SWAP2 AND EQ JUMPDEST ISZERO ISZERO PUSH2 0xEC8 JUMPI PUSH1 0x0 DUP1 REVERT JUMPDEST DUP1 PUSH2 0xED2 CALLER PUSH2 0x167D JUMP JUMPDEST LT ISZERO PUSH2 0xEDD JUMPI PUSH1 0x0 DUP1 REVERT JUMPDEST PUSH2 0xEEA DUP2 PUSH2 0xC4A CALLER PUSH2 0x167D JUMP JUMPDEST CALLER PUSH1 0x0 DUP2 DUP2 MSTORE PUSH1 0x13 PUSH1 0x20 MSTORE PUSH1 0x40 SWAP1 KECCAK256 SWAP2 SWAP1 SWAP2 SSTORE PUSH2 0xF0E SWAP1 DUP3 SWAP1 PUSH2 0xC7C SWAP1 DUP6 SWAP1 PUSH2 0x19C8 JUMP JUMPDEST PUSH1 0x1 PUSH1 0xA0 PUSH1 0x2 EXP SUB DUP4 AND PUSH1 0x0 DUP2 DUP2 MSTORE PUSH1 0x18 PUSH1 0x20 SWAP1 DUP2 MSTORE PUSH1 0x40 DUP1 DUP4 KECCAK256 CALLER DUP1 DUP6 MSTORE SWAP1 DUP4 MSTORE SWAP3 DUP2 SWAP1 KECCAK256 SWAP5 SWAP1 SWAP5 SSTORE DUP4 MLOAD DUP6 DUP2 MSTORE SWAP4 MLOAD SWAP3 SWAP4 SWAP2 SWAP3 PUSH32 0xEC36C0364D931187A76CF66D7EEE08FAD0EC2E8B7458A8D8B26B36769D4D13F3 SWAP3 DUP2 SWAP1 SUB SWAP1 SWAP2 ADD SWAP1 LOG3 POP POP JUMP JUMPDEST CALLER PUSH1 0x0 SWAP1 DUP2 MSTORE PUSH1 0x14 PUSH1 0x20 MSTORE PUSH1 0x40 DUP2 KECCAK256 SLOAD PUSH1 0xFF AND PUSH1 0x1 EQ PUSH2 0xF90 JUMPI PUSH1 0x0 DUP1 REVERT JUMPDEST CALLER PUSH1 0x0 DUP2 DUP2 MSTORE PUSH1 0x14 PUSH1 0x20 MSTORE PUSH1 0x40 DUP1 DUP3 KECCAK256 DUP1 SLOAD PUSH1 0xFF NOT AND PUSH1 0x2 OR SWAP1 SSTORE MLOAD PUSH32 0xF5F1A1247AA8D2A5CA47F8C104886E2DF9AC31612408CD09314472006EFAFA9B SWAP2 SWAP1 LOG2 POP PUSH1 0x1 JUMPDEST SWAP1 JUMP JUMPDEST PUSH1 0x0 SLOAD PUSH1 0x1 PUSH1 0xA0 PUSH1 0x2 EXP SUB AND CALLER EQ PUSH2 0xFEE JUMPI PUSH1 0x0 DUP1 REVERT JUMPDEST PUSH1 0x1 PUSH1 0xA0 PUSH1 0x2 EXP SUB DUP3 AND PUSH1 0x0 DUP2 DUP2 MSTORE PUSH1 0x17 PUSH1 0x20 SWAP1 DUP2 MSTORE PUSH1 0x40 SWAP2 DUP3 SWAP1 KECCAK256 DUP1 SLOAD PUSH1 0xFF NOT AND DUP6 ISZERO ISZERO SWAP1 DUP2 OR SWAP1 SWAP2 SSTORE DUP3 MLOAD SWAP1 DUP2 MSTORE SWAP2 MLOAD PUSH32 0xCEA19D7E74D2901BED6A09D188B76BF13520E4D6361466D6BA67872151FD09AB SWAP3 DUP2 SWAP1 SUB SWAP1 SWAP2 ADD SWAP1 LOG2 POP POP JUMP JUMPDEST PUSH1 0x0 DUP2 JUMP JUMPDEST PUSH1 0x12 SLOAD PUSH1 0xFF AND ISZERO ISZERO PUSH1 0x1 EQ PUSH2 0x1067 JUMPI PUSH1 0x0 DUP1 REVERT JUMPDEST PUSH1 0x12 SLOAD PUSH1 0x1 SLOAD PUSH1 0x40 DUP1 MLOAD PUSH32 0xD3DA927F00000000000000000000000000000000000000000000000000000000 DUP2 MSTORE CALLER PUSH1 0x4 DUP3 ADD MSTORE PUSH1 0x1 PUSH1 0xA0 PUSH1 0x2 EXP SUB SWAP3 DUP4 AND PUSH1 0x24 DUP3 ADD MSTORE SWAP1 MLOAD PUSH4 0x1000000 SWAP1 SWAP4 DIV SWAP1 SWAP2 AND SWAP2 PUSH4 0xD3DA927F SWAP2 PUSH1 0x44 DUP1 DUP3 ADD SWAP3 PUSH1 0x20 SWAP3 SWAP1 SWAP2 SWAP1 DUP3 SWAP1 SUB ADD DUP2 PUSH1 0x0 DUP8 DUP1 EXTCODESIZE ISZERO DUP1 ISZERO PUSH2 0x10E0 JUMPI PUSH1 0x0 DUP1 REVERT JUMPDEST POP GAS CALL ISZERO DUP1 ISZERO PUSH2 0x10F4 JUMPI RETURNDATASIZE PUSH1 0x0 DUP1 RETURNDATACOPY RETURNDATASIZE PUSH1 0x0 REVERT JUMPDEST POP POP POP POP PUSH1 0x40 MLOAD RETURNDATASIZE PUSH1 0x20 DUP2 LT ISZERO PUSH2 0x110A JUMPI PUSH1 0x0 DUP1 REVERT JUMPDEST POP MLOAD ISZERO ISZERO PUSH1 0x1 EQ PUSH2 0x111A JUMPI PUSH1 0x0 DUP1 REVERT JUMPDEST CALLER PUSH1 0x0 SWAP1 DUP2 MSTORE PUSH1 0x16 PUSH1 0x20 SWAP1 DUP2 MSTORE PUSH1 0x40 SWAP1 SWAP2 KECCAK256 DUP4 DUP2 SSTORE DUP3 MLOAD PUSH2 0x1143 SWAP3 PUSH1 0x2 SWAP1 SWAP3 ADD SWAP2 DUP5 ADD SWAP1 PUSH2 0x20E2 JUMP JUMPDEST POP PUSH1 0x40 DUP1 MLOAD DUP4 DUP2 MSTORE SWAP1 MLOAD CALLER SWAP2 PUSH32 0x43A2729C7AF1A03B6890CDB94994A64BB4C609275128E96C78DAA1DBE9910179 SWAP2 SWAP1 DUP2 SWAP1 SUB PUSH1 0x20 ADD SWAP1 LOG2 POP POP JUMP JUMPDEST PUSH1 0xB DUP1 SLOAD PUSH1 0x40 DUP1 MLOAD PUSH1 0x20 PUSH1 0x2 PUSH1 0x1 DUP6 AND ISZERO PUSH2 0x100 MUL PUSH1 0x0 NOT ADD SWAP1 SWAP5 AND SWAP4 SWAP1 SWAP4 DIV PUSH1 0x1F DUP2 ADD DUP5 SWAP1 DIV DUP5 MUL DUP3 ADD DUP5 ADD SWAP1 SWAP3 MSTORE DUP2 DUP2 MSTORE SWAP3 SWAP2 DUP4 ADD DUP3 DUP3 DUP1 ISZERO PUSH2 0xBD0 JUMPI DUP1 PUSH1 0x1F LT PUSH2 0xBA5 JUMPI PUSH2 0x100 DUP1 DUP4 SLOAD DIV MUL DUP4 MSTORE SWAP2 PUSH1 0x20 ADD SWAP2 PUSH2 0xBD0 JUMP JUMPDEST PUSH1 0x17 PUSH1 0x20 MSTORE PUSH1 0x0 SWAP1 DUP2 MSTORE PUSH1 0x40 SWAP1 KECCAK256 SLOAD PUSH1 0xFF AND DUP2 JUMP JUMPDEST PUSH1 0x6 DUP1 SLOAD PUSH1 0x40 DUP1 MLOAD PUSH1 0x20 PUSH1 0x2 PUSH1 0x1 DUP6 AND ISZERO PUSH2 0x100 MUL PUSH1 0x0 NOT ADD SWAP1 SWAP5 AND SWAP4 SWAP1 SWAP4 DIV PUSH1 0x1F DUP2 ADD DUP5 SWAP1 DIV DUP5 MUL DUP3 ADD DUP5 ADD SWAP1 SWAP3 MSTORE DUP2 DUP2 MSTORE SWAP3 SWAP2 DUP4 ADD DUP3 DUP3 DUP1 ISZERO PUSH2 0xBD0 JUMPI DUP1 PUSH1 0x1F LT PUSH2 0xBA5 JUMPI PUSH2 0x100 DUP1 DUP4 SLOAD DIV MUL DUP4 MSTORE SWAP2 PUSH1 0x20 ADD SWAP2 PUSH2 0xBD0 JUMP JUMPDEST PUSH1 0x0 SLOAD PUSH1 0x1 PUSH1 0xA0 PUSH1 0x2 EXP SUB AND CALLER EQ PUSH2 0x1260 JUMPI PUSH1 0x0 DUP1 REVERT JUMPDEST PUSH1 0x1 PUSH1 0xA0 PUSH1 0x2 EXP SUB DUP3 AND PUSH1 0x0 DUP2 DUP2 MSTORE PUSH1 0x16 PUSH1 0x20 SWAP1 DUP2 MSTORE PUSH1 0x40 SWAP2 DUP3 SWAP1 KECCAK256 PUSH1 0x1 ADD DUP5 SWAP1 SSTORE DUP2 MLOAD DUP5 DUP2 MSTORE SWAP2 MLOAD PUSH32 0xA42BD6BDFCB8F9B815C68E4CE0E16DEC3F1E7AC53967EE8309653DE522A735B1 SWAP3 DUP2 SWAP1 SUB SWAP1 SWAP2 ADD SWAP1 LOG2 POP POP JUMP JUMPDEST CALLER PUSH1 0x0 SWAP1 DUP2 MSTORE PUSH1 0x14 PUSH1 0x20 MSTORE PUSH1 0x40 DUP2 KECCAK256 SLOAD PUSH1 0xFF AND PUSH1 0x2 EQ PUSH2 0x12D6 JUMPI PUSH1 0x0 DUP1 REVERT JUMPDEST CALLER PUSH1 0x0 DUP2 DUP2 MSTORE PUSH1 0x14 PUSH1 0x20 MSTORE PUSH1 0x40 DUP1 DUP3 KECCAK256 DUP1 SLOAD PUSH1 0xFF NOT AND SWAP1 SSTORE MLOAD PUSH32 0x4139C849E3930F028ED84A97CBC49A0B2E17CE431020CE97F4D5B4C74AB3D349 SWAP2 SWAP1 LOG2 POP PUSH1 0x1 SWAP1 JUMP JUMPDEST PUSH1 0x7 DUP1 SLOAD PUSH1 0x40 DUP1 MLOAD PUSH1 0x20 PUSH1 0x2 PUSH1 0x1 DUP6 AND ISZERO PUSH2 0x100 MUL PUSH1 0x0 NOT ADD SWAP1 SWAP5 AND SWAP4 SWAP1 SWAP4 DIV PUSH1 0x1F DUP2 ADD DUP5 SWAP1 DIV DUP5 MUL DUP3 ADD DUP5 ADD SWAP1 SWAP3 MSTORE DUP2 DUP2 MSTORE SWAP3 SWAP2 DUP4 ADD DUP3 DUP3 DUP1 ISZERO PUSH2 0xBD0 JUMPI DUP1 PUSH1 0x1F LT PUSH2 0xBA5 JUMPI PUSH2 0x100 DUP1 DUP4 SLOAD DIV MUL DUP4 MSTORE SWAP2 PUSH1 0x20 ADD SWAP2 PUSH2 0xBD0 JUMP JUMPDEST PUSH1 0x9 SLOAD DUP2 JUMP JUMPDEST PUSH1 0x11 DUP1 SLOAD PUSH1 0x40 DUP1 MLOAD PUSH1 0x20 PUSH1 0x2 PUSH1 0x1 DUP6 AND ISZERO PUSH2 0x100 MUL PUSH1 0x0 NOT ADD SWAP1 SWAP5 AND SWAP4 SWAP1 SWAP4 DIV PUSH1 0x1F DUP2 ADD DUP5 SWAP1 DIV DUP5 MUL DUP3 ADD DUP5 ADD SWAP1 SWAP3 MSTORE DUP2 DUP2 MSTORE SWAP3 SWAP2 DUP4 ADD DUP3 DUP3 DUP1 ISZERO PUSH2 0xBD0 JUMPI DUP1 PUSH1 0x1F LT PUSH2 0xBA5 JUMPI PUSH2 0x100 DUP1 DUP4 SLOAD DIV MUL DUP4 MSTORE SWAP2 PUSH1 0x20 ADD SWAP2 PUSH2 0xBD0 JUMP JUMPDEST CALLER PUSH1 0x0 SWAP1 DUP2 MSTORE PUSH1 0x17 PUSH1 0x20 MSTORE PUSH1 0x40 SWAP1 KECCAK256 SLOAD PUSH1 0xFF AND ISZERO ISZERO PUSH1 0x1 EQ DUP1 PUSH2 0x1402 JUMPI POP PUSH1 0x1 SLOAD PUSH1 0x1 PUSH1 0xA0 PUSH1 0x2 EXP SUB AND CALLER EQ JUMPDEST ISZERO ISZERO PUSH2 0x140D JUMPI PUSH1 0x0 DUP1 REVERT JUMPDEST DUP1 PUSH2 0x1418 CALLER DUP6 PUSH2 0x19C8 JUMP JUMPDEST LT ISZERO PUSH2 0x1423 JUMPI PUSH1 0x0 DUP1 REVERT JUMPDEST PUSH2 0x1431 DUP2 PUSH2 0xC4A CALLER DUP7 PUSH2 0x19C8 JUMP JUMPDEST CALLER PUSH1 0x0 SWAP1 DUP2 MSTORE PUSH1 0x18 PUSH1 0x20 SWAP1 DUP2 MSTORE PUSH1 0x40 DUP1 DUP4 KECCAK256 PUSH1 0x1 PUSH1 0xA0 PUSH1 0x2 EXP SUB DUP9 AND DUP5 MSTORE SWAP1 SWAP2 MSTORE SWAP1 KECCAK256 SSTORE PUSH2 0x1462 DUP2 PUSH2 0xC7C DUP5 PUSH2 0x167D JUMP JUMPDEST PUSH1 0x1 PUSH1 0xA0 PUSH1 0x2 EXP SUB DUP1 DUP5 AND PUSH1 0x0 DUP2 DUP2 MSTORE PUSH1 0x13 PUSH1 0x20 SWAP1 DUP2 MSTORE PUSH1 0x40 SWAP2 DUP3 SWAP1 KECCAK256 SWAP5 SWAP1 SWAP5 SSTORE DUP1 MLOAD DUP6 DUP2 MSTORE SWAP1 MLOAD SWAP2 SWAP4 SWAP3 DUP8 AND SWAP3 PUSH32 0xC1C90B8E0705B212262C0DBD7580EFE1862C2F185BF96899226F7596BEB2DB09 SWAP3 SWAP2 DUP3 SWAP1 SUB ADD SWAP1 LOG3 POP POP POP JUMP JUMPDEST PUSH1 0x0 SLOAD PUSH1 0x1 PUSH1 0xA0 PUSH1 0x2 EXP SUB AND CALLER EQ PUSH2 0x14D5 JUMPI PUSH1 0x0 DUP1 REVERT JUMPDEST PUSH1 0x8 DUP1 SLOAD PUSH1 0xFF NOT AND DUP3 ISZERO ISZERO OR SWAP1 DUP2 SWAP1 SSTORE PUSH1 0x40 MLOAD PUSH1 0xFF SWAP1 SWAP2 AND ISZERO ISZERO SWAP1 PUSH32 0xE1E5C6F5867805BF3FAB73F4DF4B80D0E87E9262A7BC22AC7C2CB3FD5896222F SWAP1 PUSH1 0x0 SWAP1 LOG2 POP JUMP JUMPDEST PUSH1 0x0 SLOAD PUSH1 0x1 PUSH1 0xA0 PUSH1 0x2 EXP SUB AND CALLER EQ PUSH2 0x1530 JUMPI PUSH1 0x0 DUP1 REVERT JUMPDEST PUSH1 0xA SSTORE JUMP JUMPDEST PUSH1 0x15 PUSH1 0x20 SWAP1 DUP2 MSTORE PUSH1 0x0 SWAP2 DUP3 MSTORE PUSH1 0x40 SWAP2 DUP3 SWAP1 KECCAK256 DUP1 SLOAD DUP4 MLOAD PUSH1 0x1F PUSH1 0x2 PUSH1 0x0 NOT PUSH2 0x100 PUSH1 0x1 DUP7 AND ISZERO MUL ADD SWAP1 SWAP4 AND SWAP3 SWAP1 SWAP3 DIV SWAP2 DUP3 ADD DUP5 SWAP1 DIV DUP5 MUL DUP2 ADD DUP5 ADD SWAP1 SWAP5 MSTORE DUP1 DUP5 MSTORE SWAP1 SWAP2 DUP4 ADD DUP3 DUP3 DUP1 ISZERO PUSH2 0xBD0 JUMPI DUP1 PUSH1 0x1F LT PUSH2 0xBA5 JUMPI PUSH2 0x100 DUP1 DUP4 SLOAD DIV MUL DUP4 MSTORE SWAP2 PUSH1 0x20 ADD SWAP2 PUSH2 0xBD0 JUMP JUMPDEST PUSH1 0x0 SLOAD PUSH1 0x1 PUSH1 0xA0 PUSH1 0x2 EXP SUB AND CALLER EQ PUSH2 0x15B4 JUMPI PUSH1 0x0 DUP1 REVERT JUMPDEST DUP1 MLOAD PUSH2 0xE6E SWAP1 PUSH1 0xB SWAP1 PUSH1 0x20 DUP5 ADD SWAP1 PUSH2 0x20E2 JUMP JUMPDEST PUSH1 0xC DUP1 SLOAD PUSH1 0x40 DUP1 MLOAD PUSH1 0x20 PUSH1 0x2 PUSH1 0x1 DUP6 AND ISZERO PUSH2 0x100 MUL PUSH1 0x0 NOT ADD SWAP1 SWAP5 AND SWAP4 SWAP1 SWAP4 DIV PUSH1 0x1F DUP2 ADD DUP5 SWAP1 DIV DUP5 MUL DUP3 ADD DUP5 ADD SWAP1 SWAP3 MSTORE DUP2 DUP2 MSTORE SWAP3 SWAP2 DUP4 ADD DUP3 DUP3 DUP1 ISZERO PUSH2 0xBD0 JUMPI DUP1 PUSH1 0x1F LT PUSH2 0xBA5 JUMPI PUSH2 0x100 DUP1 DUP4 SLOAD DIV MUL DUP4 MSTORE SWAP2 PUSH1 0x20 ADD SWAP2 PUSH2 0xBD0 JUMP JUMPDEST PUSH1 0x10 DUP1 SLOAD PUSH1 0x40 DUP1 MLOAD PUSH1 0x20 PUSH1 0x2 PUSH1 0x1 DUP6 AND ISZERO PUSH2 0x100 MUL PUSH1 0x0 NOT ADD SWAP1 SWAP5 AND SWAP4 SWAP1 SWAP4 DIV PUSH1 0x1F DUP2 ADD DUP5 SWAP1 DIV DUP5 MUL DUP3 ADD DUP5 ADD SWAP1 SWAP3 MSTORE DUP2 DUP2 MSTORE SWAP3 SWAP2 DUP4 ADD DUP3 DUP3 DUP1 ISZERO PUSH2 0xBD0 JUMPI DUP1 PUSH1 0x1F LT PUSH2 0xBA5 JUMPI PUSH2 0x100 DUP1 DUP4 SLOAD DIV MUL DUP4 MSTORE SWAP2 PUSH1 0x20 ADD SWAP2 PUSH2 0xBD0 JUMP JUMPDEST PUSH1 0x1 PUSH1 0xA0 PUSH1 0x2 EXP SUB AND PUSH1 0x0 SWAP1 DUP2 MSTORE PUSH1 0x13 PUSH1 0x20 MSTORE PUSH1 0x40 SWAP1 KECCAK256 SLOAD SWAP1 JUMP JUMPDEST PUSH1 0x0 SLOAD PUSH1 0x1 PUSH1 0xA0 PUSH1 0x2 EXP SUB AND CALLER EQ PUSH2 0x16AF JUMPI PUSH1 0x0 DUP1 REVERT JUMPDEST PUSH1 0x5 DUP1 SLOAD PUSH20 0xFFFFFFFFFFFFFFFFFFFFFFFFFFFFFFFFFFFFFFFF NOT AND PUSH1 0x1 PUSH1 0xA0 PUSH1 0x2 EXP SUB SWAP3 SWAP1 SWAP3 AND SWAP2 SWAP1 SWAP2 OR SWAP1 SSTORE JUMP JUMPDEST PUSH1 0xA SLOAD DUP2 JUMP JUMPDEST PUSH1 0x16 PUSH1 0x20 SWAP1 DUP2 MSTORE PUSH1 0x0 SWAP2 DUP3 MSTORE PUSH1 0x40 SWAP2 DUP3 SWAP1 KECCAK256 DUP1 SLOAD PUSH1 0x1 DUP1 DUP4 ADD SLOAD PUSH1 0x2 DUP1 DUP6 ADD DUP1 SLOAD DUP9 MLOAD SWAP5 DUP2 AND ISZERO PUSH2 0x100 MUL PUSH1 0x0 NOT ADD AND SWAP2 SWAP1 SWAP2 DIV PUSH1 0x1F DUP2 ADD DUP8 SWAP1 DIV DUP8 MUL DUP5 ADD DUP8 ADD SWAP1 SWAP8 MSTORE DUP7 DUP4 MSTORE SWAP3 SWAP6 SWAP1 SWAP5 SWAP2 SWAP3 SWAP2 DUP4 ADD DUP3 DUP3 DUP1 ISZERO PUSH2 0x1783 JUMPI DUP1 PUSH1 0x1F LT PUSH2 0x1758 JUMPI PUSH2 0x100 DUP1 DUP4 SLOAD DIV MUL DUP4 MSTORE SWAP2 PUSH1 0x20 ADD SWAP2 PUSH2 0x1783 JUMP JUMPDEST DUP3 ADD SWAP2 SWAP1 PUSH1 0x0 MSTORE PUSH1 0x20 PUSH1 0x0 KECCAK256 SWAP1 JUMPDEST DUP2 SLOAD DUP2 MSTORE SWAP1 PUSH1 0x1 ADD SWAP1 PUSH1 0x20 ADD DUP1 DUP4 GT PUSH2 0x1766 JUMPI DUP3 SWAP1 SUB PUSH1 0x1F AND DUP3 ADD SWAP2 JUMPDEST POP POP POP POP POP SWAP1 POP DUP4 JUMP JUMPDEST PUSH1 0x12 SLOAD PUSH1 0xFF AND DUP2 JUMP JUMPDEST PUSH1 0x0 SLOAD PUSH1 0x1 PUSH1 0xA0 PUSH1 0x2 EXP SUB AND CALLER EQ PUSH2 0x17AD JUMPI PUSH1 0x0 DUP1 REVERT JUMPDEST PUSH1 0x12 DUP1 SLOAD PUSH1 0xFF NOT AND DUP3 ISZERO ISZERO SWAP1 DUP2 OR SWAP1 SWAP2 SSTORE PUSH1 0x40 MLOAD PUSH32 0x447614144834195D7B5212CBFB53323578964D52FED6642202090B60B175FF60 SWAP1 PUSH1 0x0 SWAP1 LOG2 POP JUMP JUMPDEST PUSH1 0x1 SLOAD PUSH1 0x1 PUSH1 0xA0 PUSH1 0x2 EXP SUB AND DUP2 JUMP JUMPDEST PUSH1 0x0 SLOAD PUSH1 0x1 PUSH1 0xA0 PUSH1 0x2 EXP SUB AND CALLER EQ PUSH2 0x1810 JUMPI PUSH1 0x0 DUP1 REVERT JUMPDEST DUP1 MLOAD PUSH2 0xE6E SWAP1 PUSH1 0x7 SWAP1 PUSH1 0x20 DUP5 ADD SWAP1 PUSH2 0x20E2 JUMP JUMPDEST PUSH1 0x12 SLOAD PUSH3 0x10000 SWAP1 DIV PUSH1 0xFF AND DUP2 JUMP JUMPDEST PUSH1 0x3 DUP1 SLOAD PUSH1 0x40 DUP1 MLOAD PUSH1 0x20 PUSH1 0x2 PUSH1 0x1 DUP6 AND ISZERO PUSH2 0x100 MUL PUSH1 0x0 NOT ADD SWAP1 SWAP5 AND SWAP4 SWAP1 SWAP4 DIV PUSH1 0x1F DUP2 ADD DUP5 SWAP1 DIV DUP5 MUL DUP3 ADD DUP5 ADD SWAP1 SWAP3 MSTORE DUP2 DUP2 MSTORE SWAP3 SWAP2 DUP4 ADD DUP3 DUP3 DUP1 ISZERO PUSH2 0xBD0 JUMPI DUP1 PUSH1 0x1F LT PUSH2 0xBA5 JUMPI PUSH2 0x100 DUP1 DUP4 SLOAD DIV MUL DUP4 MSTORE SWAP2 PUSH1 0x20 ADD SWAP2 PUSH2 0xBD0 JUMP JUMPDEST PUSH1 0x0 SLOAD PUSH1 0x1 PUSH1 0xA0 PUSH1 0x2 EXP SUB AND CALLER EQ PUSH2 0x18A4 JUMPI PUSH1 0x0 DUP1 REVERT JUMPDEST PUSH1 0x12 DUP1 SLOAD SWAP2 ISZERO ISZERO PUSH3 0x10000 MUL PUSH3 0xFF0000 NOT SWAP1 SWAP3 AND SWAP2 SWAP1 SWAP2 OR SWAP1 SSTORE JUMP JUMPDEST PUSH1 0x0 SLOAD PUSH1 0x1 PUSH1 0xA0 PUSH1 0x2 EXP SUB AND CALLER EQ PUSH2 0x18D7 JUMPI PUSH1 0x0 DUP1 REVERT JUMPDEST PUSH1 0xFF DUP3 AND PUSH1 0x0 SWAP1 DUP2 MSTORE PUSH1 0x15 PUSH1 0x20 SWAP1 DUP2 MSTORE PUSH1 0x40 SWAP1 SWAP2 KECCAK256 DUP3 MLOAD PUSH2 0x18FA SWAP3 DUP5 ADD SWAP1 PUSH2 0x20E2 JUMP JUMPDEST POP POP POP JUMP JUMPDEST PUSH1 0x0 PUSH1 0x60 DUP3 PUSH2 0x190D CALLER PUSH2 0x167D JUMP JUMPDEST LT ISZERO PUSH2 0x1918 JUMPI PUSH1 0x0 DUP1 REVERT JUMPDEST PUSH1 0x5 SLOAD PUSH1 0x1 PUSH1 0xA0 PUSH1 0x2 EXP SUB AND CALLER EQ PUSH2 0x1944 JUMPI PUSH1 0x12 SLOAD PUSH3 0x10000 SWAP1 DIV PUSH1 0xFF AND ISZERO ISZERO PUSH1 0x1 EQ PUSH2 0x1944 JUMPI PUSH1 0x0 DUP1 REVERT JUMPDEST PUSH2 0x194D DUP5 PUSH2 0x1DC7 JUMP JUMPDEST ISZERO PUSH2 0x1964 JUMPI PUSH2 0x195D DUP5 DUP5 DUP4 PUSH2 0x1DF7 JUMP JUMPDEST SWAP2 POP PUSH2 0x196F JUMP JUMPDEST PUSH2 0x195D DUP5 DUP5 DUP4 PUSH2 0x1F8F JUMP JUMPDEST POP SWAP3 SWAP2 POP POP JUMP JUMPDEST PUSH1 0x1 PUSH1 0xA0 PUSH1 0x2 EXP SUB AND PUSH1 0x0 SWAP1 DUP2 MSTORE PUSH1 0x14 PUSH1 0x20 MSTORE PUSH1 0x40 SWAP1 KECCAK256 DUP1 SLOAD PUSH1 0xFF NOT AND PUSH1 0x1 SWAP1 DUP2 OR SWAP1 SWAP2 SSTORE SWAP1 JUMP JUMPDEST PUSH1 0x0 SLOAD PUSH1 0x1 PUSH1 0xA0 PUSH1 0x2 EXP SUB AND CALLER EQ PUSH2 0x19B5 JUMPI PUSH1 0x0 DUP1 REVERT JUMPDEST DUP1 MLOAD PUSH2 0xE6E SWAP1 PUSH1 0x6 SWAP1 PUSH1 0x20 DUP5 ADD SWAP1 PUSH2 0x20E2 JUMP JUMPDEST PUSH1 0x1 PUSH1 0xA0 PUSH1 0x2 EXP SUB SWAP2 DUP3 AND PUSH1 0x0 SWAP1 DUP2 MSTORE PUSH1 0x18 PUSH1 0x20 SWAP1 DUP2 MSTORE PUSH1 0x40 DUP1 DUP4 KECCAK256 SWAP4 SWAP1 SWAP5 AND DUP3 MSTORE SWAP2 SWAP1 SWAP2 MSTORE KECCAK256 SLOAD SWAP1 JUMP JUMPDEST PUSH1 0x0 SLOAD PUSH1 0x1 PUSH1 0xA0 PUSH1 0x2 EXP SUB AND CALLER EQ PUSH2 0x1A0A JUMPI PUSH1 0x0 DUP1 REVERT JUMPDEST PUSH1 0x12 DUP1 SLOAD PUSH2 0xFF00 NOT AND PUSH2 0x100 OR SWAP1 SSTORE PUSH1 0x40 MLOAD PUSH32 0xD95402E764607B7B568A855D3414C03561CB940C03BB4D4EE47EA289E4F96A42 SWAP1 PUSH1 0x0 SWAP1 LOG1 JUMP JUMPDEST PUSH1 0x14 PUSH1 0x20 MSTORE PUSH1 0x0 SWAP1 DUP2 MSTORE PUSH1 0x40 SWAP1 KECCAK256 SLOAD PUSH1 0xFF AND DUP2 JUMP JUMPDEST PUSH1 0x18 PUSH1 0x20 SWAP1 DUP2 MSTORE PUSH1 0x0 SWAP3 DUP4 MSTORE PUSH1 0x40 DUP1 DUP5 KECCAK256 SWAP1 SWAP2 MSTORE SWAP1 DUP3 MSTORE SWAP1 KECCAK256 SLOAD DUP2 JUMP JUMPDEST PUSH1 0xD SLOAD DUP2 JUMP JUMPDEST PUSH1 0x0 SLOAD PUSH1 0x1 PUSH1 0xA0 PUSH1 0x2 EXP SUB AND CALLER EQ PUSH2 0x1A93 JUMPI PUSH1 0x0 DUP1 REVERT JUMPDEST PUSH1 0x1 PUSH1 0xA0 PUSH1 0x2 EXP SUB DUP2 AND ISZERO ISZERO PUSH2 0x1AA8 JUMPI PUSH1 0x0 DUP1 REVERT JUMPDEST PUSH1 0x0 DUP1 SLOAD PUSH1 0x40 MLOAD PUSH1 0x1 PUSH1 0xA0 PUSH1 0x2 EXP SUB DUP1 DUP6 AND SWAP4 SWAP3 AND SWAP2 PUSH32 0x8BE0079C531659141344CD1FD0A4F28419497F9722A3DAAFE3B4186F6B6457E0 SWAP2 LOG3 PUSH1 0x0 DUP1 SLOAD PUSH20 0xFFFFFFFFFFFFFFFFFFFFFFFFFFFFFFFFFFFFFFFF NOT AND PUSH1 0x1 PUSH1 0xA0 PUSH1 0x2 EXP SUB SWAP3 SWAP1 SWAP3 AND SWAP2 SWAP1 SWAP2 OR SWAP1 SSTORE JUMP JUMPDEST PUSH1 0xF DUP1 SLOAD PUSH1 0x40 DUP1 MLOAD PUSH1 0x20 PUSH1 0x2 PUSH1 0x1 DUP6 AND ISZERO PUSH2 0x100 MUL PUSH1 0x0 NOT ADD SWAP1 SWAP5 AND SWAP4 SWAP1 SWAP4 DIV PUSH1 0x1F DUP2 ADD DUP5 SWAP1 DIV DUP5 MUL DUP3 ADD DUP5 ADD SWAP1 SWAP3 MSTORE DUP2 DUP2 MSTORE SWAP3 SWAP2 DUP4 ADD DUP3 DUP3 DUP1 ISZERO PUSH2 0xBD0 JUMPI DUP1 PUSH1 0x1F LT PUSH2 0xBA5 JUMPI PUSH2 0x100 DUP1 DUP4 SLOAD DIV MUL DUP4 MSTORE SWAP2 PUSH1 0x20 ADD SWAP2 PUSH2 0xBD0 JUMP JUMPDEST PUSH1 0x0 SLOAD PUSH1 0x1 PUSH1 0xA0 PUSH1 0x2 EXP SUB AND CALLER EQ PUSH2 0x1B82 JUMPI PUSH1 0x0 DUP1 REVERT JUMPDEST PUSH1 0x12 DUP1 SLOAD PUSH1 0x1 PUSH1 0xA0 PUSH1 0x2 EXP SUB SWAP1 SWAP3 AND PUSH4 0x1000000 MUL PUSH23 0xFFFFFFFFFFFFFFFFFFFFFFFFFFFFFFFFFFFFFFFF000000 NOT SWAP1 SWAP3 AND SWAP2 SWAP1 SWAP2 OR SWAP1 SSTORE JUMP JUMPDEST PUSH1 0xE DUP1 SLOAD PUSH1 0x40 DUP1 MLOAD PUSH1 0x20 PUSH1 0x2 PUSH1 0x1 DUP6 AND ISZERO PUSH2 0x100 MUL PUSH1 0x0 NOT ADD SWAP1 SWAP5 AND SWAP4 SWAP1 SWAP4 DIV PUSH1 0x1F DUP2 ADD DUP5 SWAP1 DIV DUP5 MUL DUP3 ADD DUP5 ADD SWAP1 SWAP3 MSTORE DUP2 DUP2 MSTORE SWAP3 SWAP2 DUP4 ADD DUP3 DUP3 DUP1 ISZERO PUSH2 0xBD0 JUMPI DUP1 PUSH1 0x1F LT PUSH2 0xBA5 JUMPI PUSH2 0x100 DUP1 DUP4 SLOAD DIV MUL DUP4 MSTORE SWAP2 PUSH1 0x20 ADD SWAP2 PUSH2 0xBD0 JUMP JUMPDEST PUSH1 0x0 SLOAD PUSH1 0x1 PUSH1 0xA0 PUSH1 0x2 EXP SUB AND CALLER EQ PUSH2 0x1C2D JUMPI PUSH1 0x0 DUP1 REVERT JUMPDEST PUSH1 0x1 PUSH1 0xA0 PUSH1 0x2 EXP SUB DUP3 AND ISZERO PUSH2 0x1C8B JUMPI PUSH2 0x1C4A DUP2 PUSH2 0xC7C DUP6 DUP6 PUSH2 0x19C8 JUMP JUMPDEST PUSH1 0x1 PUSH1 0xA0 PUSH1 0x2 EXP SUB DUP1 DUP6 AND PUSH1 0x0 SWAP1 DUP2 MSTORE PUSH1 0x18 PUSH1 0x20 SWAP1 DUP2 MSTORE PUSH1 0x40 DUP1 DUP4 KECCAK256 SWAP4 DUP8 AND DUP4 MSTORE SWAP3 SWAP1 MSTORE KECCAK256 SSTORE PUSH1 0x4 SLOAD PUSH2 0x1C83 SWAP1 DUP3 PUSH4 0xFFFFFFFF PUSH2 0x1DE1 AND JUMP JUMPDEST PUSH1 0x4 SSTORE PUSH2 0x1CC8 JUMP JUMPDEST PUSH2 0x1C98 DUP2 PUSH2 0xC7C DUP6 PUSH2 0x167D JUMP JUMPDEST PUSH1 0x1 PUSH1 0xA0 PUSH1 0x2 EXP SUB DUP5 AND PUSH1 0x0 SWAP1 DUP2 MSTORE PUSH1 0x13 PUSH1 0x20 MSTORE PUSH1 0x40 SWAP1 KECCAK256 SSTORE PUSH1 0x4 SLOAD PUSH2 0x1CC4 SWAP1 DUP3 PUSH4 0xFFFFFFFF PUSH2 0x1DE1 AND JUMP JUMPDEST PUSH1 0x4 SSTORE JUMPDEST DUP2 PUSH1 0x1 PUSH1 0xA0 PUSH1 0x2 EXP SUB AND DUP4 PUSH1 0x1 PUSH1 0xA0 PUSH1 0x2 EXP SUB AND CALLER PUSH1 0x1 PUSH1 0xA0 PUSH1 0x2 EXP SUB AND PUSH32 0x65ADEB76912378393E600CB6F64F3310842A42E1EAE86273DC775D0C47A0F2DC DUP5 PUSH1 0x40 MLOAD DUP1 DUP3 DUP2 MSTORE PUSH1 0x20 ADD SWAP2 POP POP PUSH1 0x40 MLOAD DUP1 SWAP2 SUB SWAP1 LOG4 POP POP POP JUMP JUMPDEST PUSH1 0xFF DUP2 AND PUSH1 0x0 SWAP1 DUP2 MSTORE PUSH1 0x15 PUSH1 0x20 SWAP1 DUP2 MSTORE PUSH1 0x40 SWAP2 DUP3 SWAP1 KECCAK256 DUP1 SLOAD DUP4 MLOAD PUSH1 0x1F PUSH1 0x2 PUSH1 0x0 NOT PUSH2 0x100 PUSH1 0x1 DUP7 AND ISZERO MUL ADD SWAP1 SWAP4 AND SWAP3 SWAP1 SWAP3 DIV SWAP2 DUP3 ADD DUP5 SWAP1 DIV DUP5 MUL DUP2 ADD DUP5 ADD SWAP1 SWAP5 MSTORE DUP1 DUP5 MSTORE PUSH1 0x60 SWAP4 SWAP3 DUP4 ADD DUP3 DUP3 DUP1 ISZERO PUSH2 0x1DBB JUMPI DUP1 PUSH1 0x1F LT PUSH2 0x1D90 JUMPI PUSH2 0x100 DUP1 DUP4 SLOAD DIV MUL DUP4 MSTORE SWAP2 PUSH1 0x20 ADD SWAP2 PUSH2 0x1DBB JUMP JUMPDEST DUP3 ADD SWAP2 SWAP1 PUSH1 0x0 MSTORE PUSH1 0x20 PUSH1 0x0 KECCAK256 SWAP1 JUMPDEST DUP2 SLOAD DUP2 MSTORE SWAP1 PUSH1 0x1 ADD SWAP1 PUSH1 0x20 ADD DUP1 DUP4 GT PUSH2 0x1D9E JUMPI DUP3 SWAP1 SUB PUSH1 0x1F AND DUP3 ADD SWAP2 JUMPDEST POP POP POP POP POP SWAP1 POP SWAP2 SWAP1 POP JUMP JUMPDEST PUSH1 0x0 SWAP1 EXTCODESIZE GT SWAP1 JUMP JUMPDEST PUSH1 0x0 DUP3 DUP3 GT ISZERO PUSH2 0x1DDB JUMPI INVALID JUMPDEST POP SWAP1 SUB SWAP1 JUMP JUMPDEST PUSH1 0x0 DUP3 DUP3 ADD DUP4 DUP2 LT ISZERO PUSH2 0x1DF0 JUMPI INVALID JUMPDEST SWAP4 SWAP3 POP POP POP JUMP JUMPDEST PUSH1 0x5 SLOAD PUSH1 0x0 SWAP1 DUP2 SWAP1 PUSH1 0x1 PUSH1 0xA0 PUSH1 0x2 EXP SUB DUP7 DUP2 AND SWAP2 AND EQ PUSH2 0x1E16 JUMPI PUSH1 0x0 DUP1 REVERT JUMPDEST PUSH2 0x1E23 DUP5 PUSH2 0xC4A CALLER PUSH2 0x167D JUMP JUMPDEST CALLER PUSH1 0x0 SWAP1 DUP2 MSTORE PUSH1 0x13 PUSH1 0x20 MSTORE PUSH1 0x40 SWAP1 KECCAK256 SSTORE PUSH2 0x1E40 DUP5 PUSH2 0xC7C DUP8 PUSH2 0x167D JUMP JUMPDEST PUSH1 0x1 PUSH1 0xA0 PUSH1 0x2 EXP SUB DUP7 AND PUSH1 0x0 DUP2 DUP2 MSTORE PUSH1 0x13 PUSH1 0x20 SWAP1 DUP2 MSTORE PUSH1 0x40 DUP1 DUP4 KECCAK256 SWAP5 SWAP1 SWAP5 SSTORE SWAP3 MLOAD PUSH32 0xC0EE0B8A00000000000000000000000000000000000000000000000000000000 DUP2 MSTORE CALLER PUSH1 0x4 DUP3 ADD DUP2 DUP2 MSTORE PUSH1 0x24 DUP4 ADD DUP11 SWAP1 MSTORE PUSH1 0x60 PUSH1 0x44 DUP5 ADD SWAP1 DUP2 MSTORE DUP10 MLOAD PUSH1 0x64 DUP6 ADD MSTORE DUP10 MLOAD DUP13 SWAP9 POP SWAP6 SWAP7 PUSH4 0xC0EE0B8A SWAP7 SWAP4 SWAP6 DUP13 SWAP6 DUP13 SWAP6 PUSH1 0x84 SWAP1 SWAP2 ADD SWAP3 DUP7 ADD SWAP2 DUP2 SWAP1 DUP5 SWAP1 DUP5 SWAP1 JUMPDEST DUP4 DUP2 LT ISZERO PUSH2 0x1EDE JUMPI DUP2 DUP2 ADD MLOAD DUP4 DUP3 ADD MSTORE PUSH1 0x20 ADD PUSH2 0x1EC6 JUMP JUMPDEST POP POP POP POP SWAP1 POP SWAP1 DUP2 ADD SWAP1 PUSH1 0x1F AND DUP1 ISZERO PUSH2 0x1F0B JUMPI DUP1 DUP3 SUB DUP1 MLOAD PUSH1 0x1 DUP4 PUSH1 0x20 SUB PUSH2 0x100 EXP SUB NOT AND DUP2 MSTORE PUSH1 0x20 ADD SWAP2 POP JUMPDEST POP SWAP5 POP POP POP POP POP PUSH1 0x0 PUSH1 0x40 MLOAD DUP1 DUP4 SUB DUP2 PUSH1 0x0 DUP8 DUP1 EXTCODESIZE ISZERO DUP1 ISZERO PUSH2 0x1F2C JUMPI PUSH1 0x0 DUP1 REVERT JUMPDEST POP GAS CALL ISZERO DUP1 ISZERO PUSH2 0x1F40 JUMPI RETURNDATASIZE PUSH1 0x0 DUP1 RETURNDATACOPY RETURNDATASIZE PUSH1 0x0 REVERT JUMPDEST POP POP PUSH1 0x40 DUP1 MLOAD DUP8 DUP2 MSTORE SWAP1 MLOAD PUSH1 0x1 PUSH1 0xA0 PUSH1 0x2 EXP SUB DUP10 AND SWAP4 POP CALLER SWAP3 POP PUSH32 0xDDF252AD1BE2C89B69C2B068FC378DAA952BA7F163C4A11628F55A4DF523B3EF SWAP2 DUP2 SWAP1 SUB PUSH1 0x20 ADD SWAP1 LOG3 POP PUSH1 0x1 SWAP5 SWAP4 POP POP POP POP JUMP JUMPDEST PUSH1 0x5 SLOAD PUSH1 0x0 SWAP1 PUSH1 0x1 PUSH1 0xA0 PUSH1 0x2 EXP SUB AND CALLER EQ PUSH2 0x2059 JUMPI PUSH1 0x12 SLOAD PUSH1 0x1 SLOAD PUSH1 0x40 DUP1 MLOAD PUSH32 0xD3DA927F00000000000000000000000000000000000000000000000000000000 DUP2 MSTORE PUSH1 0x1 PUSH1 0xA0 PUSH1 0x2 EXP SUB DUP9 DUP2 AND PUSH1 0x4 DUP4 ADD MSTORE SWAP3 DUP4 AND PUSH1 0x24 DUP3 ADD MSTORE SWAP1 MLOAD PUSH4 0x1000000 SWAP1 SWAP4 DIV SWAP1 SWAP2 AND SWAP2 PUSH4 0xD3DA927F SWAP2 PUSH1 0x44 DUP1 DUP3 ADD SWAP3 PUSH1 0x20 SWAP3 SWAP1 SWAP2 SWAP1 DUP3 SWAP1 SUB ADD DUP2 PUSH1 0x0 DUP8 DUP1 EXTCODESIZE ISZERO DUP1 ISZERO PUSH2 0x201F JUMPI PUSH1 0x0 DUP1 REVERT JUMPDEST POP GAS CALL ISZERO DUP1 ISZERO PUSH2 0x2033 JUMPI RETURNDATASIZE PUSH1 0x0 DUP1 RETURNDATACOPY RETURNDATASIZE PUSH1 0x0 REVERT JUMPDEST POP POP POP POP PUSH1 0x40 MLOAD RETURNDATASIZE PUSH1 0x20 DUP2 LT ISZERO PUSH2 0x2049 JUMPI PUSH1 0x0 DUP1 REVERT JUMPDEST POP MLOAD ISZERO ISZERO PUSH1 0x1 EQ PUSH2 0x2059 JUMPI PUSH1 0x0 DUP1 REVERT JUMPDEST PUSH2 0x2066 DUP4 PUSH2 0xC4A CALLER PUSH2 0x167D JUMP JUMPDEST CALLER PUSH1 0x0 SWAP1 DUP2 MSTORE PUSH1 0x13 PUSH1 0x20 MSTORE PUSH1 0x40 SWAP1 KECCAK256 SSTORE PUSH2 0x2083 DUP4 PUSH2 0xC7C DUP7 PUSH2 0x167D JUMP JUMPDEST PUSH1 0x1 PUSH1 0xA0 PUSH1 0x2 EXP SUB DUP6 AND PUSH1 0x0 DUP2 DUP2 MSTORE PUSH1 0x13 PUSH1 0x20 SWAP1 DUP2 MSTORE PUSH1 0x40 SWAP2 DUP3 SWAP1 KECCAK256 SWAP4 SWAP1 SWAP4 SSTORE DUP1 MLOAD DUP7 DUP2 MSTORE SWAP1 MLOAD SWAP2 SWAP3 CALLER SWAP3 PUSH32 0xDDF252AD1BE2C89B69C2B068FC378DAA952BA7F163C4A11628F55A4DF523B3EF SWAP3 DUP2 SWAP1 SUB SWAP1 SWAP2 ADD SWAP1 LOG3 POP PUSH1 0x1 SWAP4 SWAP3 POP POP POP JUMP JUMPDEST DUP3 DUP1 SLOAD PUSH1 0x1 DUP2 PUSH1 0x1 AND ISZERO PUSH2 0x100 MUL SUB AND PUSH1 0x2 SWAP1 DIV SWAP1 PUSH1 0x0 MSTORE PUSH1 0x20 PUSH1 0x0 KECCAK256 SWAP1 PUSH1 0x1F ADD PUSH1 0x20 SWAP1 DIV DUP2 ADD SWAP3 DUP3 PUSH1 0x1F LT PUSH2 0x2123 JUMPI DUP1 MLOAD PUSH1 0xFF NOT AND DUP4 DUP1 ADD OR DUP6 SSTORE PUSH2 0x2150 JUMP JUMPDEST DUP3 DUP1 ADD PUSH1 0x1 ADD DUP6 SSTORE DUP3 ISZERO PUSH2 0x2150 JUMPI SWAP2 DUP3 ADD JUMPDEST DUP3 DUP2 GT ISZERO PUSH2 0x2150 JUMPI DUP3 MLOAD DUP3 SSTORE SWAP2 PUSH1 0x20 ADD SWAP2 SWAP1 PUSH1 0x1 ADD SWAP1 PUSH2 0x2135 JUMP JUMPDEST POP PUSH2 0x215C SWAP3 SWAP2 POP PUSH2 0x2160 JUMP JUMPDEST POP SWAP1 JUMP JUMPDEST PUSH2 0xFD4 SWAP2 SWAP1 JUMPDEST DUP1 DUP3 GT ISZERO PUSH2 0x215C JUMPI PUSH1 0x0 DUP2 SSTORE PUSH1 0x1 ADD PUSH2 0x2166 JUMP STOP LOG1 PUSH6 0x627A7A723058 KECCAK256 POP PUSH29 0xAC321AB40BDD27BF465920F94E0851FE91787ADB957D5612D2D606B415 0xdc STOP 0x29 ",
  "sha1": "19c0ad1874da4909b33c53e561f24e97f99ee20c",
  "source": "pragma solidity ^0.4.24;\n\nimport \"./SafeMath.sol\";\nimport \"./Ownable.sol\";\nimport \"./PersonalInfo.sol\";\nimport \"../interfaces/ContractReceiver.sol\";\nimport \"../interfaces/IbetStandardTokenInterface.sol\";\n\n\n/// @title ibet Straight Bond Token\ncontract IbetStraightBond is Ownable, IbetStandardTokenInterface {\n    using SafeMath for uint256;\n\n    /// 募集申込情報\n    struct Application {\n        uint256 requestedAmount; // 申込数量\n        uint256 allottedAmount; // 割当数量\n        string data; // その他データ\n    }\n\n    /// 属性情報\n    uint256 public faceValue; // 額面\n    uint256 public interestRate; // 年利\n    string public interestPaymentDate; // 利払日（JSON）\n    string public redemptionDate; // 償還日\n    uint256 public redemptionValue; // 償還金額\n    string public returnDate; // 特典付与日\n    string public returnAmount; // 特典内容\n    string public purpose; // 発行目的\n    string public memo; // 補足情報\n    bool public initialOfferingStatus; // 新規募集ステータス（True：募集中、False：停止中）\n    bool public isRedeemed; // 償還状況\n    bool public transferable; // 譲渡可否\n    address public personalInfoAddress; // 個人情報記帳コントラクト\n\n    /// 残高数量\n    /// account_address => balance\n    mapping(address => uint256) public balances;\n\n    /// 第三者認定情報\n    /// signer_address => status\n    mapping(address => uint8) public signatures;\n\n    /// 商品画像\n    /// image class => url\n    mapping(uint8 => string) public image_urls;\n\n    /// 募集申込\n    /// account_address => data\n    mapping(address => Application) public applications;\n\n    /// 資産ロック認可済アドレス\n    mapping(address => bool) public authorizedAddress;\n\n    /// ロックされた数量\n    /// address => account_address => balance\n    mapping(address => mapping(address => uint256)) public locked;\n\n    /// イベント：移転\n    event Transfer(address indexed from, address indexed to, uint256 value);\n\n    /// イベント：認定\n    event Sign(address indexed signer);\n\n    /// イベント：認定取消\n    event Unsign(address indexed signer);\n\n    /// イベント：償還\n    event Redeem();\n\n    /// イベント：ステータス変更\n    event ChangeStatus(bool indexed status);\n\n    /// イベント：募集ステータス変更\n    event ChangeInitialOfferingStatus(bool indexed status);\n\n    /// イベント：募集申込\n    event ApplyFor(address indexed accountAddress, uint256 amount);\n\n    /// イベント：割当\n    event Allot(address indexed accountAddress, uint256 amount);\n\n    /// イベント：認可\n    event Authorize(address indexed to, bool auth);\n\n    /// イベント：資産ロック\n    event Lock(address indexed from, address indexed target_address, uint256 value);\n\n    /// イベント：資産アンロック\n    event Unlock(address indexed from, address indexed to, uint256 value);\n\n    /// イベント：追加発行\n    event Issue(address indexed from, address indexed target_address, address indexed locked_address, uint256 amount);\n\n    /// [CONSTRUCTOR]\n    /// @param _name 名称\n    /// @param _symbol 略称\n    /// @param _totalSupply 総発行数量\n    /// @param _faceValue 額面\n    /// @param _redemptionDate 償還日\n    /// @param _redemptionValue 償還金額\n    /// @param _returnDate 特典付与日\n    /// @param _returnAmount 特典内容\n    /// @param _purpose 発行目的\n    constructor(\n        string memory _name,\n        string memory _symbol,\n        uint256 _totalSupply,\n        uint256 _faceValue,\n        string memory _redemptionDate,\n        uint256 _redemptionValue,\n        string memory _returnDate,\n        string memory _returnAmount,\n        string memory _purpose\n    )\n        public\n    {\n        owner = msg.sender;\n        name = _name;\n        symbol = _symbol;\n        totalSupply = _totalSupply;\n        faceValue = _faceValue;\n        redemptionDate = _redemptionDate;\n        redemptionValue = _redemptionValue;\n        returnDate = _returnDate;\n        returnAmount = _returnAmount;\n        purpose = _purpose;\n        transferable = true;\n        balances[owner] = totalSupply;\n        isRedeemed = false;\n        status = true;\n    }\n\n    /// @notice アドレスがコントラクトアドレスであるかを判定\n    /// @param _addr アドレス\n    /// @return is_contract 判定結果\n    function isContract(address _addr)\n        private\n        view\n        returns (bool is_contract)\n    {\n        uint length;\n        assembly {\n            length := extcodesize(_addr)\n        }\n        return (length > 0);\n    }\n\n    /// @notice EOAへの移転\n    /// @param _to 宛先アドレス\n    /// @param _value 移転数量\n    /// @return success 処理結果\n    function transferToAddress(address _to, uint _value, bytes memory /*_data*/)\n        private\n        returns (bool success)\n    {\n        if (msg.sender != tradableExchange) {\n            require(PersonalInfo(personalInfoAddress).isRegistered(_to, owner) == true);\n        }\n        balances[msg.sender] = balanceOf(msg.sender).sub(_value);\n        balances[_to] = balanceOf(_to).add(_value);\n\n        // イベント登録\n        emit Transfer(msg.sender, _to, _value);\n\n        return true;\n    }\n\n    /// @notice コントラクトアドレスへの移転\n    /// @param _to 宛先アドレス\n    /// @param _value 移転数量\n    /// @param _data 任意のデータ\n    /// @return success 処理結果\n    function transferToContract(address _to, uint _value, bytes memory _data)\n        private\n        returns (bool success)\n    {\n        require(_to == tradableExchange);\n        balances[msg.sender] = balanceOf(msg.sender).sub(_value);\n        balances[_to] = balanceOf(_to).add(_value);\n\n        ContractReceiver receiver = ContractReceiver(_to);\n        receiver.tokenFallback(msg.sender, _value, _data);\n\n        // イベント登録\n        emit Transfer(msg.sender, _to, _value);\n\n        return true;\n    }\n\n    /// @notice トークンの移転\n    /// @param _to 宛先アドレス\n    /// @param _value 移転数量\n    /// @return success 処理結果\n    function transfer(address _to, uint _value)\n        public\n        returns (bool success)\n    {\n        // <CHK>\n        //  数量が残高を超えている場合、エラーを返す\n        if (balanceOf(msg.sender) < _value) revert();\n        if (msg.sender != tradableExchange) {\n            // 譲渡可能ではない場合、エラーを返す\n            require(transferable == true);\n        }\n\n        bytes memory empty;\n        if (isContract(_to)) {\n            return transferToContract(_to, _value, empty);\n        } else {\n            return transferToAddress(_to, _value, empty);\n        }\n    }\n\n    /// @notice 強制移転\n    /// @dev オーナーのみ実行可能\n    /// @param _from 移転元アドレス\n    /// @param _to 移転先アドレス\n    /// @param _value 移転数量\n    /// @return success 処理結果\n    function transferFrom(address _from, address _to, uint _value)\n        public\n        onlyOwner()\n        returns (bool success)\n    {\n        // <CHK>\n        //  数量が送信元アドレス（from）の残高を超えている場合、エラーを返す\n        if (balanceOf(_from) < _value) revert();\n\n        bytes memory empty;\n\n        if (isContract(_to)) {// 送信先アドレスがコントラクトアドレスの場合\n            balances[_from] = balanceOf(_from).sub(_value);\n            balances[_to] = balanceOf(_to).add(_value);\n            ContractReceiver receiver = ContractReceiver(_to);\n            receiver.tokenFallback(msg.sender, _value, empty);\n        } else {// 送信先アドレスがアカウントアドレスの場合\n            balances[_from] = balanceOf(_from).sub(_value);\n            balances[_to] = balanceOf(_to).add(_value);\n        }\n\n        // イベント登録\n        emit Transfer(_from, _to, _value);\n\n        return true;\n    }\n\n    /// @notice 残高の参照\n    /// @param _owner 保有者のアドレス\n    /// @return 残高数量\n    function balanceOf(address _owner)\n        public\n        view\n        returns (uint256)\n    {\n        return balances[_owner];\n    }\n\n    /// @notice 取引コントラクトの更新\n    /// @dev オーナーのみ実行可能\n    /// @param _exchange 更新後取引コントラクト\n    function setTradableExchange(address _exchange)\n        public\n        onlyOwner()\n    {\n        tradableExchange = _exchange;\n    }\n\n    /// @notice 個人情報記帳コントラクトの更新\n    /// @dev オーナーのみ実行可能\n    /// @param _address 個人情報記帳コントラクトのアドレス\n    function setPersonalInfoAddress(address _address)\n        public\n        onlyOwner()\n    {\n        personalInfoAddress = _address;\n    }\n\n    /// @notice 問い合わせ先情報の更新\n    /// @dev オーナーのみ実行可能\n    /// @param _contactInformation 問い合わせ先情報\n    function setContactInformation(string _contactInformation)\n        public\n        onlyOwner()\n    {\n        contactInformation = _contactInformation;\n    }\n\n    /// @notice プライバシーポリシーの更新\n    /// @dev オーナーのみ実行可能\n    /// @param _privacyPolicy プライバシーポリシー\n    function setPrivacyPolicy(string _privacyPolicy)\n        public\n        onlyOwner()\n    {\n        privacyPolicy = _privacyPolicy;\n    }\n\n    /// @notice 商品画像の更新\n    /// @dev オーナーのみ実行可能\n    /// @param _class 画像番号\n    /// @param _image_url 画像URL\n    function setImageURL(uint8 _class, string memory _image_url)\n        public\n        onlyOwner()\n    {\n        image_urls[_class] = _image_url;\n    }\n\n    /// @notice 商品画像の参照\n    /// @param _class 画像番号\n    /// @return 画像URL\n    function getImageURL(uint8 _class)\n        public\n        view\n        returns (string memory)\n    {\n        return image_urls[_class];\n    }\n\n    /// @notice 補足情報の更新\n    /// @dev オーナーのみ実行可能\n    /// @param _memo 補足情報\n    function setMemo(string memory _memo)\n        public\n        onlyOwner()\n    {\n        memo = _memo;\n    }\n\n    /// @notice 年利情報の更新\n    /// @dev オーナーのみ実行可能\n    /// @param _interestRate 年利\n    function setInterestRate(uint _interestRate)\n        public\n        onlyOwner()\n    {\n        interestRate = _interestRate;\n    }\n\n    /// @notice 利払日情報の更新\n    /// @dev オーナーのみ実行可能\n    /// @param _interestPaymentDate 利払日（JSON）\n    function setInterestPaymentDate(string memory _interestPaymentDate)\n        public\n        onlyOwner()\n    {\n        interestPaymentDate = _interestPaymentDate;\n    }\n\n    /// @notice 譲渡可否の更新\n    /// @dev オーナーのみ実行可能\n    /// @param _transferable 譲渡可否\n    function setTransferable(bool _transferable)\n        public\n        onlyOwner()\n    {\n        transferable = _transferable;\n    }\n\n    /// @notice 取扱ステータスの更新\n    /// @dev オーナーのみ実行可能\n    /// @param _status 更新後の取扱ステータス\n    function setStatus(bool _status)\n        public\n        onlyOwner()\n    {\n        status = _status;\n        emit ChangeStatus(status);\n    }\n\n    /// @notice 商品の認定をリクエストする\n    /// @param _signer 認定者\n    /// @return 処理結果\n    function requestSignature(address _signer)\n        public\n        returns (bool)\n    {\n        signatures[_signer] = 1;\n        return true;\n    }\n\n    /// @notice 商品を認定する\n    /// @return 処理結果\n    function sign()\n        public\n        returns (bool)\n    {\n        require(signatures[msg.sender] == 1);\n        signatures[msg.sender] = 2;\n        emit Sign(msg.sender);\n        return true;\n    }\n\n    /// @notice 商品の認定を取り消す\n    /// @return 処理結果\n    function unsign()\n        public\n        returns (bool)\n    {\n        require(signatures[msg.sender] == 2);\n        signatures[msg.sender] = 0;\n        emit Unsign(msg.sender);\n        return true;\n    }\n\n    /// @notice 新規募集ステータスの更新\n    /// @dev オーナーのみ実行可能\n    /// @param _status 募集ステータス\n    function setInitialOfferingStatus(bool _status)\n        public\n        onlyOwner()\n    {\n        initialOfferingStatus = _status;\n        emit ChangeInitialOfferingStatus(_status);\n    }\n\n    /// @notice 募集申込\n    /// @param _data 申込付与情報\n    function applyForOffering(uint256 _amount, string memory _data)\n        public\n    {\n        // 申込ステータスが停止中の場合、エラーを返す\n        require(initialOfferingStatus == true);\n\n        // 個人情報未登録の場合、エラーを返す\n        require(PersonalInfo(personalInfoAddress).isRegistered(msg.sender, owner) == true);\n\n        applications[msg.sender].requestedAmount = _amount;\n        applications[msg.sender].data = _data;\n        emit ApplyFor(msg.sender, _amount);\n    }\n\n    /// @notice 募集割当\n    /// @dev オーナーのみ実行可能\n    /// @param _address 割当先アドレス\n    /// @param _amount 割当数量\n    function allot(address _address, uint256 _amount)\n        public\n        onlyOwner()\n    {\n        applications[_address].allottedAmount = _amount;\n        emit Allot(_address, _amount);\n    }\n\n    /// @notice 償還する\n    /// @dev オーナーのみ実行可能\n    function redeem()\n        public\n        onlyOwner()\n    {\n        isRedeemed = true;\n        emit Redeem();\n    }\n\n    /// @notice 資産ロック先アドレスの認可\n    /// @dev オーナーのみ実行可能\n    /// @param _address 認可対象のアドレス\n    /// @param _auth 認可状態（true:認可、false:未認可）\n    function authorize(address _address, bool _auth)\n        public\n        onlyOwner()\n    {\n        authorizedAddress[_address] = _auth;\n        emit Authorize(_address, _auth);\n    }\n\n    /// @notice ロック済み資産の参照\n    /// @param _authorized_address 資産ロック先アドレス（認可済）\n    /// @param _account_address 資産ロック対象アカウント\n    /// @return ロック済み数量\n    function lockedOf(address _authorized_address, address _account_address)\n        public\n        view\n        returns (uint256)\n    {\n        return locked[_authorized_address][_account_address];\n    }\n\n    /// @notice 資産をロックする\n    /// @param _target_address 資産をロックする先のアドレス\n    /// @param _value ロックする数量\n    function lock(address _target_address, uint256 _value)\n        public\n    {\n        // ロック対象が認可済みアドレス、まはは発行者アドレスであることをチェック\n        require(\n            authorizedAddress[_target_address] == true ||\n            _target_address == owner\n        );\n\n        // ロック数量が保有数量を上回っている場合、エラーを返す\n        if (balanceOf(msg.sender) < _value) revert();\n\n        // データ更新\n        balances[msg.sender] = balanceOf(msg.sender).sub(_value);\n        locked[_target_address][msg.sender] = lockedOf(_target_address, msg.sender).add(_value);\n\n        emit Lock(msg.sender, _target_address, _value);\n    }\n\n    /// @notice 資産をアンロックする\n    /// @dev 認可済みアドレスあるいは発行体のみ実行可能\n    /// @param _account_address アンロック対象のアドレス\n    /// @param _receive_address 受取アドレス\n    function unlock(address _account_address, address _receive_address, uint256 _value)\n        public\n    {\n        // msg.senderが認可済みアドレス、または発行者アドレスであることをチェック\n        require(\n            authorizedAddress[msg.sender] == true ||\n            msg.sender == owner\n        );\n\n        // アンロック数量がロック数量を上回ってる場合、エラーを返す\n        if (lockedOf(msg.sender, _account_address) < _value) revert();\n\n        // データ更新\n        locked[msg.sender][_account_address] = lockedOf(msg.sender, _account_address).sub(_value);\n        balances[_receive_address] = balanceOf(_receive_address).add(_value);\n        emit Unlock(_account_address, _receive_address, _value);\n    }\n\n    /// @notice 追加発行\n    /// @dev 特定のアドレスの残高に対して、追加発行を行う\n    /// @dev オーナーのみ実行可能\n    /// @param _target_address 追加発行対象の残高を保有するアドレス\n    /// @param _locked_address （任意）資産ロックアドレス\n    /// @param _amount 追加発行数量\n    function issueFrom(address _target_address, address _locked_address, uint256 _amount)\n        public\n        onlyOwner()\n    {\n        // locked_addressを指定した場合：ロック資産に対して追加発行を行う\n        // locked_addressを指定しない場合：アカウントアドレスの残高に対して追加発行を行う\n        if (_locked_address != address(0)) {\n            // ロック資産の更新\n            locked[_target_address][_locked_address] = lockedOf(_target_address, _locked_address).add(_amount);\n            // 総発行数量の更新\n            totalSupply = totalSupply.add(_amount);\n        } else {\n            // アカウント残高の更新\n            balances[_target_address] = balanceOf(_target_address).add(_amount);\n            // 総発行数量の更新\n            totalSupply = totalSupply.add(_amount);\n        }\n        emit Issue(msg.sender, _target_address, _locked_address, _amount);\n    }\n}\n",
  "sourcePath": "contracts/IbetStraightBond.sol",
  "type": "contract"
}