{
  "abi": [
    {
      "constant": true,
      "inputs": [],
      "name": "isRedeemed",
      "outputs": [
        {
          "name": "",
          "type": "bool"
        }
      ],
      "payable": false,
      "stateMutability": "view",
      "type": "function"
    },
    {
      "constant": true,
      "inputs": [],
      "name": "name",
      "outputs": [
        {
          "name": "",
          "type": "string"
        }
      ],
      "payable": false,
      "stateMutability": "view",
      "type": "function"
    },
    {
      "constant": true,
      "inputs": [],
      "name": "personalInfoAddress",
      "outputs": [
        {
          "name": "",
          "type": "address"
        }
      ],
      "payable": false,
      "stateMutability": "view",
      "type": "function"
    },
    {
      "constant": true,
      "inputs": [],
      "name": "totalSupply",
      "outputs": [
        {
          "name": "",
          "type": "uint256"
        }
      ],
      "payable": false,
      "stateMutability": "view",
      "type": "function"
    },
    {
      "constant": true,
      "inputs": [],
      "name": "status",
      "outputs": [
        {
          "name": "",
          "type": "bool"
        }
      ],
      "payable": false,
      "stateMutability": "view",
      "type": "function"
    },
    {
      "constant": false,
      "inputs": [
        {
          "name": "_from",
          "type": "address"
        },
        {
          "name": "_to",
          "type": "address"
        },
        {
          "name": "_value",
          "type": "uint256"
        }
      ],
      "name": "transferFrom",
      "outputs": [
        {
          "name": "success",
          "type": "bool"
        }
      ],
      "payable": false,
      "stateMutability": "nonpayable",
      "type": "function"
    },
    {
      "constant": true,
      "inputs": [],
      "name": "tradableExchange",
      "outputs": [
        {
          "name": "",
          "type": "address"
        }
      ],
      "payable": false,
      "stateMutability": "view",
      "type": "function"
    },
    {
      "constant": true,
      "inputs": [
        {
          "name": "",
          "type": "address"
        }
      ],
      "name": "balances",
      "outputs": [
        {
          "name": "",
          "type": "uint256"
        }
      ],
      "payable": false,
      "stateMutability": "view",
      "type": "function"
    },
    {
      "constant": false,
      "inputs": [],
      "name": "sign",
      "outputs": [
        {
          "name": "",
          "type": "bool"
        }
      ],
      "payable": false,
      "stateMutability": "nonpayable",
      "type": "function"
    },
    {
      "constant": true,
      "inputs": [],
      "name": "decimals",
      "outputs": [
        {
          "name": "",
          "type": "uint8"
        }
      ],
      "payable": false,
      "stateMutability": "view",
      "type": "function"
    },
    {
      "constant": false,
      "inputs": [
        {
          "name": "_amount",
          "type": "uint256"
        },
        {
          "name": "_data",
          "type": "string"
        }
      ],
      "name": "applyForOffering",
      "outputs": [],
      "payable": false,
      "stateMutability": "nonpayable",
      "type": "function"
    },
    {
      "constant": true,
      "inputs": [],
      "name": "interestPaymentDate",
      "outputs": [
        {
          "name": "",
          "type": "string"
        }
      ],
      "payable": false,
      "stateMutability": "view",
      "type": "function"
    },
    {
      "constant": true,
      "inputs": [],
      "name": "contactInformation",
      "outputs": [
        {
          "name": "",
          "type": "string"
        }
      ],
      "payable": false,
      "stateMutability": "view",
      "type": "function"
    },
    {
      "constant": false,
      "inputs": [
        {
          "name": "_memo",
          "type": "string"
        }
      ],
      "name": "updateMemo",
      "outputs": [],
      "payable": false,
      "stateMutability": "nonpayable",
      "type": "function"
    },
    {
      "constant": false,
      "inputs": [
        {
          "name": "_address",
          "type": "address"
        },
        {
          "name": "_amount",
          "type": "uint256"
        }
      ],
      "name": "allot",
      "outputs": [],
      "payable": false,
      "stateMutability": "nonpayable",
      "type": "function"
    },
    {
      "constant": false,
      "inputs": [],
      "name": "unsign",
      "outputs": [
        {
          "name": "",
          "type": "bool"
        }
      ],
      "payable": false,
      "stateMutability": "nonpayable",
      "type": "function"
    },
    {
      "constant": true,
      "inputs": [],
      "name": "privacyPolicy",
      "outputs": [
        {
          "name": "",
          "type": "string"
        }
      ],
      "payable": false,
      "stateMutability": "view",
      "type": "function"
    },
    {
      "constant": true,
      "inputs": [],
      "name": "faceValue",
      "outputs": [
        {
          "name": "",
          "type": "uint256"
        }
      ],
      "payable": false,
      "stateMutability": "view",
      "type": "function"
    },
    {
      "constant": true,
      "inputs": [],
      "name": "memo",
      "outputs": [
        {
          "name": "",
          "type": "string"
        }
      ],
      "payable": false,
      "stateMutability": "view",
      "type": "function"
    },
    {
      "constant": false,
      "inputs": [
        {
          "name": "_status",
          "type": "bool"
        }
      ],
      "name": "setStatus",
      "outputs": [],
      "payable": false,
      "stateMutability": "nonpayable",
      "type": "function"
    },
    {
      "constant": true,
      "inputs": [
        {
          "name": "",
          "type": "uint8"
        }
      ],
      "name": "image_urls",
      "outputs": [
        {
          "name": "",
          "type": "string"
        }
      ],
      "payable": false,
      "stateMutability": "view",
      "type": "function"
    },
    {
      "constant": true,
      "inputs": [],
      "name": "redemptionDate",
      "outputs": [
        {
          "name": "",
          "type": "string"
        }
      ],
      "payable": false,
      "stateMutability": "view",
      "type": "function"
    },
    {
      "constant": true,
      "inputs": [],
      "name": "purpose",
      "outputs": [
        {
          "name": "",
          "type": "string"
        }
      ],
      "payable": false,
      "stateMutability": "view",
      "type": "function"
    },
    {
      "constant": true,
      "inputs": [
        {
          "name": "_owner",
          "type": "address"
        }
      ],
      "name": "balanceOf",
      "outputs": [
        {
          "name": "",
          "type": "uint256"
        }
      ],
      "payable": false,
      "stateMutability": "view",
      "type": "function"
    },
    {
      "constant": false,
      "inputs": [
        {
          "name": "_exchange",
          "type": "address"
        }
      ],
      "name": "setTradableExchange",
      "outputs": [],
      "payable": false,
      "stateMutability": "nonpayable",
      "type": "function"
    },
    {
      "constant": true,
      "inputs": [],
      "name": "interestRate",
      "outputs": [
        {
          "name": "",
          "type": "uint256"
        }
      ],
      "payable": false,
      "stateMutability": "view",
      "type": "function"
    },
    {
      "constant": true,
      "inputs": [
        {
          "name": "",
          "type": "address"
        }
      ],
      "name": "applications",
      "outputs": [
        {
          "name": "requestedAmount",
          "type": "uint256"
        },
        {
          "name": "allottedAmount",
          "type": "uint256"
        },
        {
          "name": "data",
          "type": "string"
        }
      ],
      "payable": false,
      "stateMutability": "view",
      "type": "function"
    },
    {
      "constant": true,
      "inputs": [],
      "name": "initialOfferingStatus",
      "outputs": [
        {
          "name": "",
          "type": "bool"
        }
      ],
      "payable": false,
      "stateMutability": "view",
      "type": "function"
    },
    {
      "constant": false,
      "inputs": [
        {
          "name": "_status",
          "type": "bool"
        }
      ],
      "name": "setInitialOfferingStatus",
      "outputs": [],
      "payable": false,
      "stateMutability": "nonpayable",
      "type": "function"
    },
    {
      "constant": true,
      "inputs": [],
      "name": "owner",
      "outputs": [
        {
          "name": "",
          "type": "address"
        }
      ],
      "payable": false,
      "stateMutability": "view",
      "type": "function"
    },
    {
      "constant": false,
      "inputs": [
        {
          "name": "_privacyPolicy",
          "type": "string"
        }
      ],
      "name": "setPrivacyPolicy",
      "outputs": [],
      "payable": false,
      "stateMutability": "nonpayable",
      "type": "function"
    },
    {
      "constant": true,
      "inputs": [],
      "name": "transferable",
      "outputs": [
        {
          "name": "",
          "type": "bool"
        }
      ],
      "payable": false,
      "stateMutability": "view",
      "type": "function"
    },
    {
      "constant": true,
      "inputs": [],
      "name": "symbol",
      "outputs": [
        {
          "name": "",
          "type": "string"
        }
      ],
      "payable": false,
      "stateMutability": "view",
      "type": "function"
    },
    {
      "constant": false,
      "inputs": [
        {
          "name": "_transferable",
          "type": "bool"
        }
      ],
      "name": "setTransferable",
      "outputs": [],
      "payable": false,
      "stateMutability": "nonpayable",
      "type": "function"
    },
    {
      "constant": false,
      "inputs": [
        {
          "name": "_class",
          "type": "uint8"
        },
        {
          "name": "_image_url",
          "type": "string"
        }
      ],
      "name": "setImageURL",
      "outputs": [],
      "payable": false,
      "stateMutability": "nonpayable",
      "type": "function"
    },
    {
      "constant": false,
      "inputs": [
        {
          "name": "_to",
          "type": "address"
        },
        {
          "name": "_value",
          "type": "uint256"
        }
      ],
      "name": "transfer",
      "outputs": [
        {
          "name": "success",
          "type": "bool"
        }
      ],
      "payable": false,
      "stateMutability": "nonpayable",
      "type": "function"
    },
    {
      "constant": false,
      "inputs": [
        {
          "name": "_signer",
          "type": "address"
        }
      ],
      "name": "requestSignature",
      "outputs": [
        {
          "name": "",
          "type": "bool"
        }
      ],
      "payable": false,
      "stateMutability": "nonpayable",
      "type": "function"
    },
    {
      "constant": false,
      "inputs": [
        {
          "name": "_contactInformation",
          "type": "string"
        }
      ],
      "name": "setContactInformation",
      "outputs": [],
      "payable": false,
      "stateMutability": "nonpayable",
      "type": "function"
    },
    {
      "constant": false,
      "inputs": [],
      "name": "redeem",
      "outputs": [],
      "payable": false,
      "stateMutability": "nonpayable",
      "type": "function"
    },
    {
      "constant": true,
      "inputs": [
        {
          "name": "",
          "type": "address"
        }
      ],
      "name": "signatures",
      "outputs": [
        {
          "name": "",
          "type": "uint8"
        }
      ],
      "payable": false,
      "stateMutability": "view",
      "type": "function"
    },
    {
      "constant": false,
      "inputs": [
        {
          "name": "_value",
          "type": "uint256"
        }
      ],
      "name": "issue",
      "outputs": [],
      "payable": false,
      "stateMutability": "nonpayable",
      "type": "function"
    },
    {
      "constant": true,
      "inputs": [],
      "name": "redemptionValue",
      "outputs": [
        {
          "name": "",
          "type": "uint256"
        }
      ],
      "payable": false,
      "stateMutability": "view",
      "type": "function"
    },
    {
      "constant": false,
      "inputs": [
        {
          "name": "newOwner",
          "type": "address"
        }
      ],
      "name": "transferOwnership",
      "outputs": [],
      "payable": false,
      "stateMutability": "nonpayable",
      "type": "function"
    },
    {
      "constant": true,
      "inputs": [],
      "name": "returnAmount",
      "outputs": [
        {
          "name": "",
          "type": "string"
        }
      ],
      "payable": false,
      "stateMutability": "view",
      "type": "function"
    },
    {
      "constant": false,
      "inputs": [
        {
          "name": "_address",
          "type": "address"
        }
      ],
      "name": "setPersonalInfoAddress",
      "outputs": [],
      "payable": false,
      "stateMutability": "nonpayable",
      "type": "function"
    },
    {
      "constant": true,
      "inputs": [],
      "name": "returnDate",
      "outputs": [
        {
          "name": "",
          "type": "string"
        }
      ],
      "payable": false,
      "stateMutability": "view",
      "type": "function"
    },
    {
      "constant": true,
      "inputs": [
        {
          "name": "_class",
          "type": "uint8"
        }
      ],
      "name": "getImageURL",
      "outputs": [
        {
          "name": "",
          "type": "string"
        }
      ],
      "payable": false,
      "stateMutability": "view",
      "type": "function"
    },
    {
      "inputs": [
        {
          "name": "_name",
          "type": "string"
        },
        {
          "name": "_symbol",
          "type": "string"
        },
        {
          "name": "_totalSupply",
          "type": "uint256"
        },
        {
          "name": "_tradableExchange",
          "type": "address"
        },
        {
          "name": "_faceValue",
          "type": "uint256"
        },
        {
          "name": "_interestRate",
          "type": "uint256"
        },
        {
          "name": "_interestPaymentDate",
          "type": "string"
        },
        {
          "name": "_redemptionDate",
          "type": "string"
        },
        {
          "name": "_redemptionValue",
          "type": "uint256"
        },
        {
          "name": "_returnDate",
          "type": "string"
        },
        {
          "name": "_returnAmount",
          "type": "string"
        },
        {
          "name": "_purpose",
          "type": "string"
        },
        {
          "name": "_memo",
          "type": "string"
        },
        {
          "name": "_contactInformation",
          "type": "string"
        },
        {
          "name": "_privacyPolicy",
          "type": "string"
        },
        {
          "name": "_personalInfoAddress",
          "type": "address"
        }
      ],
      "payable": false,
      "stateMutability": "nonpayable",
      "type": "constructor"
    },
    {
      "anonymous": false,
      "inputs": [
        {
          "indexed": true,
          "name": "from",
          "type": "address"
        },
        {
          "indexed": true,
          "name": "to",
          "type": "address"
        },
        {
          "indexed": false,
          "name": "value",
          "type": "uint256"
        }
      ],
      "name": "Transfer",
      "type": "event"
    },
    {
      "anonymous": false,
      "inputs": [
        {
          "indexed": true,
          "name": "signer",
          "type": "address"
        }
      ],
      "name": "Sign",
      "type": "event"
    },
    {
      "anonymous": false,
      "inputs": [
        {
          "indexed": true,
          "name": "signer",
          "type": "address"
        }
      ],
      "name": "Unsign",
      "type": "event"
    },
    {
      "anonymous": false,
      "inputs": [],
      "name": "Redeem",
      "type": "event"
    },
    {
      "anonymous": false,
      "inputs": [
        {
          "indexed": true,
          "name": "status",
          "type": "bool"
        }
      ],
      "name": "ChangeStatus",
      "type": "event"
    },
    {
      "anonymous": false,
      "inputs": [
        {
          "indexed": true,
          "name": "status",
          "type": "bool"
        }
      ],
      "name": "ChangeInitialOfferingStatus",
      "type": "event"
    },
    {
      "anonymous": false,
      "inputs": [
        {
          "indexed": true,
          "name": "accountAddress",
          "type": "address"
        },
        {
          "indexed": false,
          "name": "amount",
          "type": "uint256"
        }
      ],
      "name": "ApplyFor",
      "type": "event"
    },
    {
      "anonymous": false,
      "inputs": [
        {
          "indexed": true,
          "name": "accountAddress",
          "type": "address"
        },
        {
          "indexed": false,
          "name": "amount",
          "type": "uint256"
        }
      ],
      "name": "Allot",
      "type": "event"
    },
    {
      "anonymous": false,
      "inputs": [
        {
          "indexed": true,
          "name": "previousOwner",
          "type": "address"
        },
        {
          "indexed": true,
          "name": "newOwner",
          "type": "address"
        }
      ],
      "name": "OwnershipTransferred",
      "type": "event"
    }
  ],
  "bytecode": "60806040523480156200001157600080fd5b5060405162001fec38038062001fec83398101806040528101908080518201929190602001805182019291906020018051906020019092919080519060200190929190805190602001909291908051906020019092919080518201929190602001805182019291906020018051906020019092919080518201929190602001805182019291906020018051820192919060200180518201929190602001805182019291906020018051820192919060200180519060200190929190505050336000806101000a815481600160a060020a030219169083600160a060020a0316021790555033600160006101000a815481600160a060020a030219169083600160a060020a031602179055508f6002908051906020019062000134929190620002c6565b508e600390805190602001906200014d929190620002c6565b5060048e905560058054600160a060020a031916600160a060020a038f1617905560098c9055600a8b905589516200018d90600b9060208d0190620002c6565b508851620001a390600c9060208c0190620002c6565b50600d8890558651620001be90600e9060208a0190620002c6565b508551620001d490600f906020890190620002c6565b508451620001ea906010906020880190620002c6565b50835162000200906011906020870190620002c6565b506012805463ff0000001916630100000017815560045460018054600160a060020a0316600090815260136020908152604090912092909255825462ff00ff1916179091558351620002599160069190860190620002c6565b5081516200026f906007906020850190620002c6565b5060128054600160a060020a03909216640100000000027fffffffffffffffff0000000000000000000000000000000000000000ffffffff909216919091179055506200036b9d5050505050505050505050505050565b828054600181600116156101000203166002900490600052602060002090601f016020900481019282601f106200030957805160ff191683800117855562000339565b8280016001018555821562000339579182015b82811115620003395782518255916020019190600101906200031c565b50620003479291506200034b565b5090565b6200036891905b8082111562000347576000815560010162000352565b90565b611c71806200037b6000396000f30060806040526004361061023a5763ffffffff7c0100000000000000000000000000000000000000000000000000000000600035041663034f6b21811461023f57806306fdde03146102685780630af7eb0f146102f257806318160ddd14610323578063200d2ed21461034a57806323b872dd1461035f57806325287d421461038957806327e235e31461039e5780632ca15122146103bf578063313ce567146103d457806331cef447146103ff578063329dbddc1461045f57806336f7ab5e14610474578063389bf93a1461048957806340615cf8146104e257806341e60c8614610506578063428630f61461051b57806344fd9caa1461053057806358c3b870146105455780635c40f6f41461055a57806360bf50fc146105745780636666e49c1461058f57806370740aab146105a457806370a08231146105b957806376fa7a31146105da5780637c3a00fd146105fb5780637c3bf42d14610610578063833e0d8c146106b757806388539011146106cc5780638da5cb5b146106e65780638ed8a9bc146106fb57806392ff0d311461075457806395d89b41146107695780639cd237071461077e578063a124beba14610798578063a9059cbb146107f9578063ab8f67c81461081d578063b967a52e1461083e578063be040fb014610897578063c792f36d146108ac578063cc872b66146108cd578063ef4474cd146108e5578063f2fde38b146108fa578063f35eeaef1461091b578063f7502a7c14610930578063fc590d0914610951578063ffca397b14610966575b600080fd5b34801561024b57600080fd5b50610254610981565b604080519115158252519081900360200190f35b34801561027457600080fd5b5061027d610990565b6040805160208082528351818301528351919283929083019185019080838360005b838110156102b757818101518382015260200161029f565b50505050905090810190601f1680156102e45780820380516001836020036101000a031916815260200191505b509250505060405180910390f35b3480156102fe57600080fd5b50610307610a1b565b60408051600160a060020a039092168252519081900360200190f35b34801561032f57600080fd5b50610338610a32565b60408051918252519081900360200190f35b34801561035657600080fd5b50610254610a38565b34801561036b57600080fd5b50610254600160a060020a0360043581169060243516604435610a41565b34801561039557600080fd5b50610307610c79565b3480156103aa57600080fd5b50610338600160a060020a0360043516610c88565b3480156103cb57600080fd5b50610254610c9a565b3480156103e057600080fd5b506103e9610d00565b6040805160ff9092168252519081900360200190f35b34801561040b57600080fd5b5060408051602060046024803582810135601f810185900485028601850190965285855261045d958335953695604494919390910191908190840183828082843750949750610d059650505050505050565b005b34801561046b57600080fd5b5061027d610e37565b34801561048057600080fd5b5061027d610e92565b34801561049557600080fd5b506040805160206004803580820135601f810184900484028501840190955284845261045d943694929360249392840191908190840183828082843750949750610eed9650505050505050565b3480156104ee57600080fd5b5061045d600160a060020a0360043516602435610f1b565b34801561051257600080fd5b50610254610f89565b34801561052757600080fd5b5061027d610feb565b34801561053c57600080fd5b50610338611046565b34801561055157600080fd5b5061027d61104c565b34801561056657600080fd5b5061045d60043515156110a7565b34801561058057600080fd5b5061027d60ff60043516611102565b34801561059b57600080fd5b5061027d61116a565b3480156105b057600080fd5b5061027d6111c5565b3480156105c557600080fd5b50610338600160a060020a0360043516611220565b3480156105e657600080fd5b5061045d600160a060020a036004351661123b565b34801561060757600080fd5b50610338611281565b34801561061c57600080fd5b50610631600160a060020a0360043516611287565b6040518084815260200183815260200180602001828103825283818151815260200191508051906020019080838360005b8381101561067a578181015183820152602001610662565b50505050905090810190601f1680156106a75780820380516001836020036101000a031916815260200191505b5094505050505060405180910390f35b3480156106c357600080fd5b50610254611330565b3480156106d857600080fd5b5061045d600435151561133e565b3480156106f257600080fd5b5061030761139a565b34801561070757600080fd5b506040805160206004803580820135601f810184900484028501840190955284845261045d9436949293602493928401919081908401838280828437509497506113a99650505050505050565b34801561076057600080fd5b506102546113d3565b34801561077557600080fd5b5061027d6113e3565b34801561078a57600080fd5b5061045d600435151561143e565b3480156107a457600080fd5b5060408051602060046024803582810135601f810185900485028601850190965285855261045d95833560ff169536956044949193909101919081908401838280828437509497506114739650505050505050565b34801561080557600080fd5b50610254600160a060020a03600435166024356114b2565b34801561082957600080fd5b50610254600160a060020a036004351661152a565b34801561084a57600080fd5b506040805160206004803580820135601f810184900484028501840190955284845261045d9436949293602493928401919081908401838280828437509497506115529650505050505050565b3480156108a357600080fd5b5061045d61157c565b3480156108b857600080fd5b506103e9600160a060020a03600435166115cf565b3480156108d957600080fd5b5061045d6004356115e4565b3480156108f157600080fd5b5061033861164a565b34801561090657600080fd5b5061045d600160a060020a0360043516611650565b34801561092757600080fd5b5061027d6116e4565b34801561093c57600080fd5b5061045d600160a060020a036004351661173f565b34801561095d57600080fd5b5061027d611791565b34801561097257600080fd5b5061027d60ff600435166117ec565b60125462010000900460ff1681565b6002805460408051602060018416156101000260001901909316849004601f81018490048402820184019092528181529291830182828015610a135780601f106109e857610100808354040283529160200191610a13565b820191906000526020600020905b8154815290600101906020018083116109f657829003601f168201915b505050505081565b6012546401000000009004600160a060020a031681565b60045481565b60125460ff1681565b600080546060908290600160a060020a03163314610a5e57600080fd5b83610a6887611220565b1015610a7357600080fd5b610a7c85611891565b15610bd557610a9a84610a8e88611220565b9063ffffffff61189916565b600160a060020a038716600090815260136020526040902055610acc84610ac087611220565b9063ffffffff6118ab16565b600160a060020a03861660008181526013602090815260408083209490945592517fc0ee0b8a0000000000000000000000000000000000000000000000000000000081523360048201818152602483018a90526060604484019081528851606485015288518c9850959663c0ee0b8a9693958c958b956084909101928601918190849084905b83811015610b6a578181015183820152602001610b52565b50505050905090810190601f168015610b975780820380516001836020036101000a031916815260200191505b50945050505050600060405180830381600087803b158015610bb857600080fd5b505af1158015610bcc573d6000803e3d6000fd5b50505050610c22565b610be284610a8e88611220565b600160a060020a038716600090815260136020526040902055610c0884610ac087611220565b600160a060020a0386166000908152601360205260409020555b84600160a060020a031686600160a060020a03167fddf252ad1be2c89b69c2b068fc378daa952ba7f163c4a11628f55a4df523b3ef866040518082815260200191505060405180910390a350600195945050505050565b600554600160a060020a031681565b60136020526000908152604090205481565b3360009081526014602052604081205460ff16600114610cb957600080fd5b33600081815260146020526040808220805460ff19166002179055517ff5f1a1247aa8d2a5ca47f8c104886e2df9ac31612408cd09314472006efafa9b9190a25060015b90565b600081565b60125460ff610100909104161515600114610d1f57600080fd5b601254600154604080517fd3da927f000000000000000000000000000000000000000000000000000000008152336004820152600160a060020a03928316602482015290516401000000009093049091169163d3da927f916044808201926020929091908290030181600087803b158015610d9957600080fd5b505af1158015610dad573d6000803e3d6000fd5b505050506040513d6020811015610dc357600080fd5b50511515600114610dd357600080fd5b3360009081526016602090815260409091208381558251610dfc92600290920191840190611bad565b5060408051838152905133917f43a2729c7af1a03b6890cdb94994a64bb4c609275128e96c78daa1dbe9910179919081900360200190a25050565b600b805460408051602060026001851615610100026000190190941693909304601f81018490048402820184019092528181529291830182828015610a135780601f106109e857610100808354040283529160200191610a13565b6006805460408051602060026001851615610100026000190190941693909304601f81018490048402820184019092528181529291830182828015610a135780601f106109e857610100808354040283529160200191610a13565b600054600160a060020a03163314610f0457600080fd5b8051610f17906011906020840190611bad565b5050565b600054600160a060020a03163314610f3257600080fd5b600160a060020a038216600081815260166020908152604091829020600101849055815184815291517fa42bd6bdfcb8f9b815c68e4ce0e16dec3f1e7ac53967ee8309653de522a735b19281900390910190a25050565b3360009081526014602052604081205460ff16600214610fa857600080fd5b33600081815260146020526040808220805460ff19169055517f4139c849e3930f028ed84a97cbc49a0b2e17ce431020ce97f4d5b4c74ab3d3499190a250600190565b6007805460408051602060026001851615610100026000190190941693909304601f81018490048402820184019092528181529291830182828015610a135780601f106109e857610100808354040283529160200191610a13565b60095481565b6011805460408051602060026001851615610100026000190190941693909304601f81018490048402820184019092528181529291830182828015610a135780601f106109e857610100808354040283529160200191610a13565b600054600160a060020a031633146110be57600080fd5b6012805460ff1916821515179081905560405160ff9091161515907fe1e5c6f5867805bf3fab73f4df4b80d0e87e9262a7bc22ac7c2cb3fd5896222f90600090a250565b60156020908152600091825260409182902080548351601f600260001961010060018616150201909316929092049182018490048402810184019094528084529091830182828015610a135780601f106109e857610100808354040283529160200191610a13565b600c805460408051602060026001851615610100026000190190941693909304601f81018490048402820184019092528181529291830182828015610a135780601f106109e857610100808354040283529160200191610a13565b6010805460408051602060026001851615610100026000190190941693909304601f81018490048402820184019092528181529291830182828015610a135780601f106109e857610100808354040283529160200191610a13565b600160a060020a031660009081526013602052604090205490565b600054600160a060020a0316331461125257600080fd5b6005805473ffffffffffffffffffffffffffffffffffffffff1916600160a060020a0392909216919091179055565b600a5481565b60166020908152600091825260409182902080546001808301546002808501805488519481161561010002600019011691909104601f8101879004870284018701909752868352929590949192918301828280156113265780601f106112fb57610100808354040283529160200191611326565b820191906000526020600020905b81548152906001019060200180831161130957829003601f168201915b5050505050905083565b601254610100900460ff1681565b600054600160a060020a0316331461135557600080fd5b6012805461ff001916610100831515908102919091179091556040517f447614144834195d7b5212cbfb53323578964d52fed6642202090b60b175ff6090600090a250565b600154600160a060020a031681565b600054600160a060020a031633146113c057600080fd5b8051610f17906007906020840190611bad565b6012546301000000900460ff1681565b6003805460408051602060026001851615610100026000190190941693909304601f81018490048402820184019092528181529291830182828015610a135780601f106109e857610100808354040283529160200191610a13565b600054600160a060020a0316331461145557600080fd5b6012805491151563010000000263ff00000019909216919091179055565b600054600160a060020a0316331461148a57600080fd5b60ff8216600090815260156020908152604090912082516114ad92840190611bad565b505050565b60006060826114c033611220565b10156114cb57600080fd5b600554600160a060020a031633146114f8576012546301000000900460ff1615156001146114f857600080fd5b61150184611891565b15611518576115118484836118c1565b9150611523565b611511848483611a59565b5092915050565b600160a060020a03166000908152601460205260409020805460ff1916600190811790915590565b600054600160a060020a0316331461156957600080fd5b8051610f17906006906020840190611bad565b600054600160a060020a0316331461159357600080fd5b6012805462ff00001916620100001790556040517fd95402e764607b7b568a855d3414c03561cb940c03bb4d4ee47ea289e4f96a4290600090a1565b60146020526000908152604090205460ff1681565b600054600160a060020a031633146115fb57600080fd5b60045461160e908263ffffffff6118ab16565b60045560015461162c908290610ac090600160a060020a0316611220565b600154600160a060020a031660009081526013602052604090205550565b600d5481565b600054600160a060020a0316331461166757600080fd5b600160a060020a038116151561167c57600080fd5b60008054604051600160a060020a03808516939216917f8be0079c531659141344cd1fd0a4f28419497f9722a3daafe3b4186f6b6457e091a36000805473ffffffffffffffffffffffffffffffffffffffff1916600160a060020a0392909216919091179055565b600f805460408051602060026001851615610100026000190190941693909304601f81018490048402820184019092528181529291830182828015610a135780601f106109e857610100808354040283529160200191610a13565b600054600160a060020a0316331461175657600080fd5b60128054600160a060020a039092166401000000000277ffffffffffffffffffffffffffffffffffffffff0000000019909216919091179055565b600e805460408051602060026001851615610100026000190190941693909304601f81018490048402820184019092528181529291830182828015610a135780601f106109e857610100808354040283529160200191610a13565b60ff811660009081526015602090815260409182902080548351601f60026000196101006001861615020190931692909204918201849004840281018401909452808452606093928301828280156118855780601f1061185a57610100808354040283529160200191611885565b820191906000526020600020905b81548152906001019060200180831161186857829003601f168201915b50505050509050919050565b6000903b1190565b6000828211156118a557fe5b50900390565b6000828201838110156118ba57fe5b9392505050565b6005546000908190600160a060020a038681169116146118e057600080fd5b6118ed84610a8e33611220565b3360009081526013602052604090205561190a84610ac087611220565b600160a060020a03861660008181526013602090815260408083209490945592517fc0ee0b8a0000000000000000000000000000000000000000000000000000000081523360048201818152602483018a90526060604484019081528951606485015289518c9850959663c0ee0b8a9693958c958c956084909101928601918190849084905b838110156119a8578181015183820152602001611990565b50505050905090810190601f1680156119d55780820380516001836020036101000a031916815260200191505b50945050505050600060405180830381600087803b1580156119f657600080fd5b505af1158015611a0a573d6000803e3d6000fd5b5050604080518781529051600160a060020a03891693503392507fddf252ad1be2c89b69c2b068fc378daa952ba7f163c4a11628f55a4df523b3ef9181900360200190a3506001949350505050565b600554600090600160a060020a03163314611b2457601254600154604080517fd3da927f000000000000000000000000000000000000000000000000000000008152600160a060020a038881166004830152928316602482015290516401000000009093049091169163d3da927f916044808201926020929091908290030181600087803b158015611aea57600080fd5b505af1158015611afe573d6000803e3d6000fd5b505050506040513d6020811015611b1457600080fd5b50511515600114611b2457600080fd5b611b3183610a8e33611220565b33600090815260136020526040902055611b4e83610ac086611220565b600160a060020a0385166000818152601360209081526040918290209390935580518681529051919233927fddf252ad1be2c89b69c2b068fc378daa952ba7f163c4a11628f55a4df523b3ef9281900390910190a35060019392505050565b828054600181600116156101000203166002900490600052602060002090601f016020900481019282601f10611bee57805160ff1916838001178555611c1b565b82800160010185558215611c1b579182015b82811115611c1b578251825591602001919060010190611c00565b50611c27929150611c2b565b5090565b610cfd91905b80821115611c275760008155600101611c315600a165627a7a723058200a6c3026ef516c13db6585cc70c36c04b504a74cf57c8b967c7ecc6ffc9461690029",
  "bytecodeSha1": "ebb5aa28f58df2fcafb5fa8941c1969a08f8e82d",
  "compiler": {
    "evm_version": "byzantium",
    "optimizer": {
      "enabled": true,
      "runs": 200
    },
    "version": "0.4.25"
  },
  "contractName": "IbetStraightBond",
  "language": "Solidity",
  "natspec": {
    "methods": {
      "allot(address,uint256)": {
        "details": "オーナーのみ実行可能",
        "notice": "募集割当",
        "params": {
          "_address": "割当先アドレス",
          "_amount": "割当数量"
        }
      },
      "applyForOffering(uint256,string)": {
        "notice": "募集申込",
        "params": {
          "_data": "申込付与情報"
        }
      },
      "balanceOf(address)": {
        "notice": "残高の参照",
        "params": {
          "_owner": "保有者のアドレス"
        },
        "return": "残高数量"
      },
      "getImageURL(uint8)": {
        "notice": "商品画像の参照",
        "params": {
          "_class": "画像番号"
        },
        "return": "画像URL"
      },
      "issue(uint256)": {
        "details": "オーナーのみ実行可能",
        "notice": "追加発行",
        "params": {
          "_value": "追加発行数量"
        }
      },
      "redeem()": {
        "details": "オーナーのみ実行可能",
        "notice": "償還する"
      },
      "requestSignature(address)": {
        "notice": "商品の認定をリクエストする",
        "params": {
          "_signer": "認定者"
        },
        "return": "処理結果"
      },
      "setContactInformation(string)": {
        "details": "オーナーのみ実行可能",
        "notice": "問い合わせ先情報の更新",
        "params": {
          "_contactInformation": "問い合わせ先情報"
        }
      },
      "setImageURL(uint8,string)": {
        "details": "オーナーのみ実行可能",
        "notice": "商品画像の更新",
        "params": {
          "_class": "画像番号",
          "_image_url": "画像URL"
        }
      },
      "setInitialOfferingStatus(bool)": {
        "details": "オーナーのみ実行可能",
        "notice": "新規募集ステータスの更新",
        "params": {
          "_status": "募集ステータス"
        }
      },
      "setPersonalInfoAddress(address)": {
        "details": "オーナーのみ実行可能",
        "notice": "個人情報記帳コントラクトの更新",
        "params": {
          "_address": "個人情報記帳コントラクトのアドレス"
        }
      },
      "setPrivacyPolicy(string)": {
        "details": "オーナーのみ実行可能",
        "notice": "プライバシーポリシーの更新",
        "params": {
          "_privacyPolicy": "プライバシーポリシー"
        }
      },
      "setStatus(bool)": {
        "details": "オーナーのみ実行可能",
        "notice": "取扱ステータスの更新",
        "params": {
          "_status": "更新後の取扱ステータス"
        }
      },
      "setTradableExchange(address)": {
        "details": "オーナーのみ実行可能",
        "notice": "取引コントラクトの更新",
        "params": {
          "_exchange": "更新後取引コントラクト"
        }
      },
      "setTransferable(bool)": {
        "details": "オーナーのみ実行可能",
        "notice": "譲渡可否の更新",
        "params": {
          "_transferable": "譲渡可否"
        }
      },
      "sign()": {
        "notice": "商品を認定する",
        "return": "処理結果"
      },
      "transfer(address,uint256)": {
        "notice": "トークンの移転",
        "params": {
          "_to": "宛先アドレス",
          "_value": "移転数量"
        },
        "return": "success 処理結果"
      },
      "transferFrom(address,address,uint256)": {
        "details": "オーナーのみ実行可能",
        "notice": "強制移転",
        "params": {
          "_from": "移転元アドレス",
          "_to": "移転先アドレス",
          "_value": "移転数量"
        },
        "return": "success 処理結果"
      },
      "transferOwnership(address)": {
        "details": "オーナーのみ実行可能",
        "notice": "オーナー変更",
        "params": {
          "newOwner": "新しいオーナー"
        }
      },
      "unsign()": {
        "notice": "商品の認定を取り消す",
        "return": "処理結果"
      },
      "updateMemo(string)": {
        "details": "オーナーのみ実行可能",
        "notice": "補足情報の更新",
        "params": {
          "_memo": "補足情報"
        }
      }
    },
    "title": "ibet Straight Bond Token"
  },
  "opcodes": "PUSH1 0x80 PUSH1 0x40 MSTORE PUSH1 0x4 CALLDATASIZE LT PUSH2 0x23A JUMPI PUSH4 0xFFFFFFFF PUSH29 0x100000000000000000000000000000000000000000000000000000000 PUSH1 0x0 CALLDATALOAD DIV AND PUSH4 0x34F6B21 DUP2 EQ PUSH2 0x23F JUMPI DUP1 PUSH4 0x6FDDE03 EQ PUSH2 0x268 JUMPI DUP1 PUSH4 0xAF7EB0F EQ PUSH2 0x2F2 JUMPI DUP1 PUSH4 0x18160DDD EQ PUSH2 0x323 JUMPI DUP1 PUSH4 0x200D2ED2 EQ PUSH2 0x34A JUMPI DUP1 PUSH4 0x23B872DD EQ PUSH2 0x35F JUMPI DUP1 PUSH4 0x25287D42 EQ PUSH2 0x389 JUMPI DUP1 PUSH4 0x27E235E3 EQ PUSH2 0x39E JUMPI DUP1 PUSH4 0x2CA15122 EQ PUSH2 0x3BF JUMPI DUP1 PUSH4 0x313CE567 EQ PUSH2 0x3D4 JUMPI DUP1 PUSH4 0x31CEF447 EQ PUSH2 0x3FF JUMPI DUP1 PUSH4 0x329DBDDC EQ PUSH2 0x45F JUMPI DUP1 PUSH4 0x36F7AB5E EQ PUSH2 0x474 JUMPI DUP1 PUSH4 0x389BF93A EQ PUSH2 0x489 JUMPI DUP1 PUSH4 0x40615CF8 EQ PUSH2 0x4E2 JUMPI DUP1 PUSH4 0x41E60C86 EQ PUSH2 0x506 JUMPI DUP1 PUSH4 0x428630F6 EQ PUSH2 0x51B JUMPI DUP1 PUSH4 0x44FD9CAA EQ PUSH2 0x530 JUMPI DUP1 PUSH4 0x58C3B870 EQ PUSH2 0x545 JUMPI DUP1 PUSH4 0x5C40F6F4 EQ PUSH2 0x55A JUMPI DUP1 PUSH4 0x60BF50FC EQ PUSH2 0x574 JUMPI DUP1 PUSH4 0x6666E49C EQ PUSH2 0x58F JUMPI DUP1 PUSH4 0x70740AAB EQ PUSH2 0x5A4 JUMPI DUP1 PUSH4 0x70A08231 EQ PUSH2 0x5B9 JUMPI DUP1 PUSH4 0x76FA7A31 EQ PUSH2 0x5DA JUMPI DUP1 PUSH4 0x7C3A00FD EQ PUSH2 0x5FB JUMPI DUP1 PUSH4 0x7C3BF42D EQ PUSH2 0x610 JUMPI DUP1 PUSH4 0x833E0D8C EQ PUSH2 0x6B7 JUMPI DUP1 PUSH4 0x88539011 EQ PUSH2 0x6CC JUMPI DUP1 PUSH4 0x8DA5CB5B EQ PUSH2 0x6E6 JUMPI DUP1 PUSH4 0x8ED8A9BC EQ PUSH2 0x6FB JUMPI DUP1 PUSH4 0x92FF0D31 EQ PUSH2 0x754 JUMPI DUP1 PUSH4 0x95D89B41 EQ PUSH2 0x769 JUMPI DUP1 PUSH4 0x9CD23707 EQ PUSH2 0x77E JUMPI DUP1 PUSH4 0xA124BEBA EQ PUSH2 0x798 JUMPI DUP1 PUSH4 0xA9059CBB EQ PUSH2 0x7F9 JUMPI DUP1 PUSH4 0xAB8F67C8 EQ PUSH2 0x81D JUMPI DUP1 PUSH4 0xB967A52E EQ PUSH2 0x83E JUMPI DUP1 PUSH4 0xBE040FB0 EQ PUSH2 0x897 JUMPI DUP1 PUSH4 0xC792F36D EQ PUSH2 0x8AC JUMPI DUP1 PUSH4 0xCC872B66 EQ PUSH2 0x8CD JUMPI DUP1 PUSH4 0xEF4474CD EQ PUSH2 0x8E5 JUMPI DUP1 PUSH4 0xF2FDE38B EQ PUSH2 0x8FA JUMPI DUP1 PUSH4 0xF35EEAEF EQ PUSH2 0x91B JUMPI DUP1 PUSH4 0xF7502A7C EQ PUSH2 0x930 JUMPI DUP1 PUSH4 0xFC590D09 EQ PUSH2 0x951 JUMPI DUP1 PUSH4 0xFFCA397B EQ PUSH2 0x966 JUMPI JUMPDEST PUSH1 0x0 DUP1 REVERT JUMPDEST CALLVALUE DUP1 ISZERO PUSH2 0x24B JUMPI PUSH1 0x0 DUP1 REVERT JUMPDEST POP PUSH2 0x254 PUSH2 0x981 JUMP JUMPDEST PUSH1 0x40 DUP1 MLOAD SWAP2 ISZERO ISZERO DUP3 MSTORE MLOAD SWAP1 DUP2 SWAP1 SUB PUSH1 0x20 ADD SWAP1 RETURN JUMPDEST CALLVALUE DUP1 ISZERO PUSH2 0x274 JUMPI PUSH1 0x0 DUP1 REVERT JUMPDEST POP PUSH2 0x27D PUSH2 0x990 JUMP JUMPDEST PUSH1 0x40 DUP1 MLOAD PUSH1 0x20 DUP1 DUP3 MSTORE DUP4 MLOAD DUP2 DUP4 ADD MSTORE DUP4 MLOAD SWAP2 SWAP3 DUP4 SWAP3 SWAP1 DUP4 ADD SWAP2 DUP6 ADD SWAP1 DUP1 DUP4 DUP4 PUSH1 0x0 JUMPDEST DUP4 DUP2 LT ISZERO PUSH2 0x2B7 JUMPI DUP2 DUP2 ADD MLOAD DUP4 DUP3 ADD MSTORE PUSH1 0x20 ADD PUSH2 0x29F JUMP JUMPDEST POP POP POP POP SWAP1 POP SWAP1 DUP2 ADD SWAP1 PUSH1 0x1F AND DUP1 ISZERO PUSH2 0x2E4 JUMPI DUP1 DUP3 SUB DUP1 MLOAD PUSH1 0x1 DUP4 PUSH1 0x20 SUB PUSH2 0x100 EXP SUB NOT AND DUP2 MSTORE PUSH1 0x20 ADD SWAP2 POP JUMPDEST POP SWAP3 POP POP POP PUSH1 0x40 MLOAD DUP1 SWAP2 SUB SWAP1 RETURN JUMPDEST CALLVALUE DUP1 ISZERO PUSH2 0x2FE JUMPI PUSH1 0x0 DUP1 REVERT JUMPDEST POP PUSH2 0x307 PUSH2 0xA1B JUMP JUMPDEST PUSH1 0x40 DUP1 MLOAD PUSH1 0x1 PUSH1 0xA0 PUSH1 0x2 EXP SUB SWAP1 SWAP3 AND DUP3 MSTORE MLOAD SWAP1 DUP2 SWAP1 SUB PUSH1 0x20 ADD SWAP1 RETURN JUMPDEST CALLVALUE DUP1 ISZERO PUSH2 0x32F JUMPI PUSH1 0x0 DUP1 REVERT JUMPDEST POP PUSH2 0x338 PUSH2 0xA32 JUMP JUMPDEST PUSH1 0x40 DUP1 MLOAD SWAP2 DUP3 MSTORE MLOAD SWAP1 DUP2 SWAP1 SUB PUSH1 0x20 ADD SWAP1 RETURN JUMPDEST CALLVALUE DUP1 ISZERO PUSH2 0x356 JUMPI PUSH1 0x0 DUP1 REVERT JUMPDEST POP PUSH2 0x254 PUSH2 0xA38 JUMP JUMPDEST CALLVALUE DUP1 ISZERO PUSH2 0x36B JUMPI PUSH1 0x0 DUP1 REVERT JUMPDEST POP PUSH2 0x254 PUSH1 0x1 PUSH1 0xA0 PUSH1 0x2 EXP SUB PUSH1 0x4 CALLDATALOAD DUP2 AND SWAP1 PUSH1 0x24 CALLDATALOAD AND PUSH1 0x44 CALLDATALOAD PUSH2 0xA41 JUMP JUMPDEST CALLVALUE DUP1 ISZERO PUSH2 0x395 JUMPI PUSH1 0x0 DUP1 REVERT JUMPDEST POP PUSH2 0x307 PUSH2 0xC79 JUMP JUMPDEST CALLVALUE DUP1 ISZERO PUSH2 0x3AA JUMPI PUSH1 0x0 DUP1 REVERT JUMPDEST POP PUSH2 0x338 PUSH1 0x1 PUSH1 0xA0 PUSH1 0x2 EXP SUB PUSH1 0x4 CALLDATALOAD AND PUSH2 0xC88 JUMP JUMPDEST CALLVALUE DUP1 ISZERO PUSH2 0x3CB JUMPI PUSH1 0x0 DUP1 REVERT JUMPDEST POP PUSH2 0x254 PUSH2 0xC9A JUMP JUMPDEST CALLVALUE DUP1 ISZERO PUSH2 0x3E0 JUMPI PUSH1 0x0 DUP1 REVERT JUMPDEST POP PUSH2 0x3E9 PUSH2 0xD00 JUMP JUMPDEST PUSH1 0x40 DUP1 MLOAD PUSH1 0xFF SWAP1 SWAP3 AND DUP3 MSTORE MLOAD SWAP1 DUP2 SWAP1 SUB PUSH1 0x20 ADD SWAP1 RETURN JUMPDEST CALLVALUE DUP1 ISZERO PUSH2 0x40B JUMPI PUSH1 0x0 DUP1 REVERT JUMPDEST POP PUSH1 0x40 DUP1 MLOAD PUSH1 0x20 PUSH1 0x4 PUSH1 0x24 DUP1 CALLDATALOAD DUP3 DUP2 ADD CALLDATALOAD PUSH1 0x1F DUP2 ADD DUP6 SWAP1 DIV DUP6 MUL DUP7 ADD DUP6 ADD SWAP1 SWAP7 MSTORE DUP6 DUP6 MSTORE PUSH2 0x45D SWAP6 DUP4 CALLDATALOAD SWAP6 CALLDATASIZE SWAP6 PUSH1 0x44 SWAP5 SWAP2 SWAP4 SWAP1 SWAP2 ADD SWAP2 SWAP1 DUP2 SWAP1 DUP5 ADD DUP4 DUP3 DUP1 DUP3 DUP5 CALLDATACOPY POP SWAP5 SWAP8 POP PUSH2 0xD05 SWAP7 POP POP POP POP POP POP POP JUMP JUMPDEST STOP JUMPDEST CALLVALUE DUP1 ISZERO PUSH2 0x46B JUMPI PUSH1 0x0 DUP1 REVERT JUMPDEST POP PUSH2 0x27D PUSH2 0xE37 JUMP JUMPDEST CALLVALUE DUP1 ISZERO PUSH2 0x480 JUMPI PUSH1 0x0 DUP1 REVERT JUMPDEST POP PUSH2 0x27D PUSH2 0xE92 JUMP JUMPDEST CALLVALUE DUP1 ISZERO PUSH2 0x495 JUMPI PUSH1 0x0 DUP1 REVERT JUMPDEST POP PUSH1 0x40 DUP1 MLOAD PUSH1 0x20 PUSH1 0x4 DUP1 CALLDATALOAD DUP1 DUP3 ADD CALLDATALOAD PUSH1 0x1F DUP2 ADD DUP5 SWAP1 DIV DUP5 MUL DUP6 ADD DUP5 ADD SWAP1 SWAP6 MSTORE DUP5 DUP5 MSTORE PUSH2 0x45D SWAP5 CALLDATASIZE SWAP5 SWAP3 SWAP4 PUSH1 0x24 SWAP4 SWAP3 DUP5 ADD SWAP2 SWAP1 DUP2 SWAP1 DUP5 ADD DUP4 DUP3 DUP1 DUP3 DUP5 CALLDATACOPY POP SWAP5 SWAP8 POP PUSH2 0xEED SWAP7 POP POP POP POP POP POP POP JUMP JUMPDEST CALLVALUE DUP1 ISZERO PUSH2 0x4EE JUMPI PUSH1 0x0 DUP1 REVERT JUMPDEST POP PUSH2 0x45D PUSH1 0x1 PUSH1 0xA0 PUSH1 0x2 EXP SUB PUSH1 0x4 CALLDATALOAD AND PUSH1 0x24 CALLDATALOAD PUSH2 0xF1B JUMP JUMPDEST CALLVALUE DUP1 ISZERO PUSH2 0x512 JUMPI PUSH1 0x0 DUP1 REVERT JUMPDEST POP PUSH2 0x254 PUSH2 0xF89 JUMP JUMPDEST CALLVALUE DUP1 ISZERO PUSH2 0x527 JUMPI PUSH1 0x0 DUP1 REVERT JUMPDEST POP PUSH2 0x27D PUSH2 0xFEB JUMP JUMPDEST CALLVALUE DUP1 ISZERO PUSH2 0x53C JUMPI PUSH1 0x0 DUP1 REVERT JUMPDEST POP PUSH2 0x338 PUSH2 0x1046 JUMP JUMPDEST CALLVALUE DUP1 ISZERO PUSH2 0x551 JUMPI PUSH1 0x0 DUP1 REVERT JUMPDEST POP PUSH2 0x27D PUSH2 0x104C JUMP JUMPDEST CALLVALUE DUP1 ISZERO PUSH2 0x566 JUMPI PUSH1 0x0 DUP1 REVERT JUMPDEST POP PUSH2 0x45D PUSH1 0x4 CALLDATALOAD ISZERO ISZERO PUSH2 0x10A7 JUMP JUMPDEST CALLVALUE DUP1 ISZERO PUSH2 0x580 JUMPI PUSH1 0x0 DUP1 REVERT JUMPDEST POP PUSH2 0x27D PUSH1 0xFF PUSH1 0x4 CALLDATALOAD AND PUSH2 0x1102 JUMP JUMPDEST CALLVALUE DUP1 ISZERO PUSH2 0x59B JUMPI PUSH1 0x0 DUP1 REVERT JUMPDEST POP PUSH2 0x27D PUSH2 0x116A JUMP JUMPDEST CALLVALUE DUP1 ISZERO PUSH2 0x5B0 JUMPI PUSH1 0x0 DUP1 REVERT JUMPDEST POP PUSH2 0x27D PUSH2 0x11C5 JUMP JUMPDEST CALLVALUE DUP1 ISZERO PUSH2 0x5C5 JUMPI PUSH1 0x0 DUP1 REVERT JUMPDEST POP PUSH2 0x338 PUSH1 0x1 PUSH1 0xA0 PUSH1 0x2 EXP SUB PUSH1 0x4 CALLDATALOAD AND PUSH2 0x1220 JUMP JUMPDEST CALLVALUE DUP1 ISZERO PUSH2 0x5E6 JUMPI PUSH1 0x0 DUP1 REVERT JUMPDEST POP PUSH2 0x45D PUSH1 0x1 PUSH1 0xA0 PUSH1 0x2 EXP SUB PUSH1 0x4 CALLDATALOAD AND PUSH2 0x123B JUMP JUMPDEST CALLVALUE DUP1 ISZERO PUSH2 0x607 JUMPI PUSH1 0x0 DUP1 REVERT JUMPDEST POP PUSH2 0x338 PUSH2 0x1281 JUMP JUMPDEST CALLVALUE DUP1 ISZERO PUSH2 0x61C JUMPI PUSH1 0x0 DUP1 REVERT JUMPDEST POP PUSH2 0x631 PUSH1 0x1 PUSH1 0xA0 PUSH1 0x2 EXP SUB PUSH1 0x4 CALLDATALOAD AND PUSH2 0x1287 JUMP JUMPDEST PUSH1 0x40 MLOAD DUP1 DUP5 DUP2 MSTORE PUSH1 0x20 ADD DUP4 DUP2 MSTORE PUSH1 0x20 ADD DUP1 PUSH1 0x20 ADD DUP3 DUP2 SUB DUP3 MSTORE DUP4 DUP2 DUP2 MLOAD DUP2 MSTORE PUSH1 0x20 ADD SWAP2 POP DUP1 MLOAD SWAP1 PUSH1 0x20 ADD SWAP1 DUP1 DUP4 DUP4 PUSH1 0x0 JUMPDEST DUP4 DUP2 LT ISZERO PUSH2 0x67A JUMPI DUP2 DUP2 ADD MLOAD DUP4 DUP3 ADD MSTORE PUSH1 0x20 ADD PUSH2 0x662 JUMP JUMPDEST POP POP POP POP SWAP1 POP SWAP1 DUP2 ADD SWAP1 PUSH1 0x1F AND DUP1 ISZERO PUSH2 0x6A7 JUMPI DUP1 DUP3 SUB DUP1 MLOAD PUSH1 0x1 DUP4 PUSH1 0x20 SUB PUSH2 0x100 EXP SUB NOT AND DUP2 MSTORE PUSH1 0x20 ADD SWAP2 POP JUMPDEST POP SWAP5 POP POP POP POP POP PUSH1 0x40 MLOAD DUP1 SWAP2 SUB SWAP1 RETURN JUMPDEST CALLVALUE DUP1 ISZERO PUSH2 0x6C3 JUMPI PUSH1 0x0 DUP1 REVERT JUMPDEST POP PUSH2 0x254 PUSH2 0x1330 JUMP JUMPDEST CALLVALUE DUP1 ISZERO PUSH2 0x6D8 JUMPI PUSH1 0x0 DUP1 REVERT JUMPDEST POP PUSH2 0x45D PUSH1 0x4 CALLDATALOAD ISZERO ISZERO PUSH2 0x133E JUMP JUMPDEST CALLVALUE DUP1 ISZERO PUSH2 0x6F2 JUMPI PUSH1 0x0 DUP1 REVERT JUMPDEST POP PUSH2 0x307 PUSH2 0x139A JUMP JUMPDEST CALLVALUE DUP1 ISZERO PUSH2 0x707 JUMPI PUSH1 0x0 DUP1 REVERT JUMPDEST POP PUSH1 0x40 DUP1 MLOAD PUSH1 0x20 PUSH1 0x4 DUP1 CALLDATALOAD DUP1 DUP3 ADD CALLDATALOAD PUSH1 0x1F DUP2 ADD DUP5 SWAP1 DIV DUP5 MUL DUP6 ADD DUP5 ADD SWAP1 SWAP6 MSTORE DUP5 DUP5 MSTORE PUSH2 0x45D SWAP5 CALLDATASIZE SWAP5 SWAP3 SWAP4 PUSH1 0x24 SWAP4 SWAP3 DUP5 ADD SWAP2 SWAP1 DUP2 SWAP1 DUP5 ADD DUP4 DUP3 DUP1 DUP3 DUP5 CALLDATACOPY POP SWAP5 SWAP8 POP PUSH2 0x13A9 SWAP7 POP POP POP POP POP POP POP JUMP JUMPDEST CALLVALUE DUP1 ISZERO PUSH2 0x760 JUMPI PUSH1 0x0 DUP1 REVERT JUMPDEST POP PUSH2 0x254 PUSH2 0x13D3 JUMP JUMPDEST CALLVALUE DUP1 ISZERO PUSH2 0x775 JUMPI PUSH1 0x0 DUP1 REVERT JUMPDEST POP PUSH2 0x27D PUSH2 0x13E3 JUMP JUMPDEST CALLVALUE DUP1 ISZERO PUSH2 0x78A JUMPI PUSH1 0x0 DUP1 REVERT JUMPDEST POP PUSH2 0x45D PUSH1 0x4 CALLDATALOAD ISZERO ISZERO PUSH2 0x143E JUMP JUMPDEST CALLVALUE DUP1 ISZERO PUSH2 0x7A4 JUMPI PUSH1 0x0 DUP1 REVERT JUMPDEST POP PUSH1 0x40 DUP1 MLOAD PUSH1 0x20 PUSH1 0x4 PUSH1 0x24 DUP1 CALLDATALOAD DUP3 DUP2 ADD CALLDATALOAD PUSH1 0x1F DUP2 ADD DUP6 SWAP1 DIV DUP6 MUL DUP7 ADD DUP6 ADD SWAP1 SWAP7 MSTORE DUP6 DUP6 MSTORE PUSH2 0x45D SWAP6 DUP4 CALLDATALOAD PUSH1 0xFF AND SWAP6 CALLDATASIZE SWAP6 PUSH1 0x44 SWAP5 SWAP2 SWAP4 SWAP1 SWAP2 ADD SWAP2 SWAP1 DUP2 SWAP1 DUP5 ADD DUP4 DUP3 DUP1 DUP3 DUP5 CALLDATACOPY POP SWAP5 SWAP8 POP PUSH2 0x1473 SWAP7 POP POP POP POP POP POP POP JUMP JUMPDEST CALLVALUE DUP1 ISZERO PUSH2 0x805 JUMPI PUSH1 0x0 DUP1 REVERT JUMPDEST POP PUSH2 0x254 PUSH1 0x1 PUSH1 0xA0 PUSH1 0x2 EXP SUB PUSH1 0x4 CALLDATALOAD AND PUSH1 0x24 CALLDATALOAD PUSH2 0x14B2 JUMP JUMPDEST CALLVALUE DUP1 ISZERO PUSH2 0x829 JUMPI PUSH1 0x0 DUP1 REVERT JUMPDEST POP PUSH2 0x254 PUSH1 0x1 PUSH1 0xA0 PUSH1 0x2 EXP SUB PUSH1 0x4 CALLDATALOAD AND PUSH2 0x152A JUMP JUMPDEST CALLVALUE DUP1 ISZERO PUSH2 0x84A JUMPI PUSH1 0x0 DUP1 REVERT JUMPDEST POP PUSH1 0x40 DUP1 MLOAD PUSH1 0x20 PUSH1 0x4 DUP1 CALLDATALOAD DUP1 DUP3 ADD CALLDATALOAD PUSH1 0x1F DUP2 ADD DUP5 SWAP1 DIV DUP5 MUL DUP6 ADD DUP5 ADD SWAP1 SWAP6 MSTORE DUP5 DUP5 MSTORE PUSH2 0x45D SWAP5 CALLDATASIZE SWAP5 SWAP3 SWAP4 PUSH1 0x24 SWAP4 SWAP3 DUP5 ADD SWAP2 SWAP1 DUP2 SWAP1 DUP5 ADD DUP4 DUP3 DUP1 DUP3 DUP5 CALLDATACOPY POP SWAP5 SWAP8 POP PUSH2 0x1552 SWAP7 POP POP POP POP POP POP POP JUMP JUMPDEST CALLVALUE DUP1 ISZERO PUSH2 0x8A3 JUMPI PUSH1 0x0 DUP1 REVERT JUMPDEST POP PUSH2 0x45D PUSH2 0x157C JUMP JUMPDEST CALLVALUE DUP1 ISZERO PUSH2 0x8B8 JUMPI PUSH1 0x0 DUP1 REVERT JUMPDEST POP PUSH2 0x3E9 PUSH1 0x1 PUSH1 0xA0 PUSH1 0x2 EXP SUB PUSH1 0x4 CALLDATALOAD AND PUSH2 0x15CF JUMP JUMPDEST CALLVALUE DUP1 ISZERO PUSH2 0x8D9 JUMPI PUSH1 0x0 DUP1 REVERT JUMPDEST POP PUSH2 0x45D PUSH1 0x4 CALLDATALOAD PUSH2 0x15E4 JUMP JUMPDEST CALLVALUE DUP1 ISZERO PUSH2 0x8F1 JUMPI PUSH1 0x0 DUP1 REVERT JUMPDEST POP PUSH2 0x338 PUSH2 0x164A JUMP JUMPDEST CALLVALUE DUP1 ISZERO PUSH2 0x906 JUMPI PUSH1 0x0 DUP1 REVERT JUMPDEST POP PUSH2 0x45D PUSH1 0x1 PUSH1 0xA0 PUSH1 0x2 EXP SUB PUSH1 0x4 CALLDATALOAD AND PUSH2 0x1650 JUMP JUMPDEST CALLVALUE DUP1 ISZERO PUSH2 0x927 JUMPI PUSH1 0x0 DUP1 REVERT JUMPDEST POP PUSH2 0x27D PUSH2 0x16E4 JUMP JUMPDEST CALLVALUE DUP1 ISZERO PUSH2 0x93C JUMPI PUSH1 0x0 DUP1 REVERT JUMPDEST POP PUSH2 0x45D PUSH1 0x1 PUSH1 0xA0 PUSH1 0x2 EXP SUB PUSH1 0x4 CALLDATALOAD AND PUSH2 0x173F JUMP JUMPDEST CALLVALUE DUP1 ISZERO PUSH2 0x95D JUMPI PUSH1 0x0 DUP1 REVERT JUMPDEST POP PUSH2 0x27D PUSH2 0x1791 JUMP JUMPDEST CALLVALUE DUP1 ISZERO PUSH2 0x972 JUMPI PUSH1 0x0 DUP1 REVERT JUMPDEST POP PUSH2 0x27D PUSH1 0xFF PUSH1 0x4 CALLDATALOAD AND PUSH2 0x17EC JUMP JUMPDEST PUSH1 0x12 SLOAD PUSH3 0x10000 SWAP1 DIV PUSH1 0xFF AND DUP2 JUMP JUMPDEST PUSH1 0x2 DUP1 SLOAD PUSH1 0x40 DUP1 MLOAD PUSH1 0x20 PUSH1 0x1 DUP5 AND ISZERO PUSH2 0x100 MUL PUSH1 0x0 NOT ADD SWAP1 SWAP4 AND DUP5 SWAP1 DIV PUSH1 0x1F DUP2 ADD DUP5 SWAP1 DIV DUP5 MUL DUP3 ADD DUP5 ADD SWAP1 SWAP3 MSTORE DUP2 DUP2 MSTORE SWAP3 SWAP2 DUP4 ADD DUP3 DUP3 DUP1 ISZERO PUSH2 0xA13 JUMPI DUP1 PUSH1 0x1F LT PUSH2 0x9E8 JUMPI PUSH2 0x100 DUP1 DUP4 SLOAD DIV MUL DUP4 MSTORE SWAP2 PUSH1 0x20 ADD SWAP2 PUSH2 0xA13 JUMP JUMPDEST DUP3 ADD SWAP2 SWAP1 PUSH1 0x0 MSTORE PUSH1 0x20 PUSH1 0x0 KECCAK256 SWAP1 JUMPDEST DUP2 SLOAD DUP2 MSTORE SWAP1 PUSH1 0x1 ADD SWAP1 PUSH1 0x20 ADD DUP1 DUP4 GT PUSH2 0x9F6 JUMPI DUP3 SWAP1 SUB PUSH1 0x1F AND DUP3 ADD SWAP2 JUMPDEST POP POP POP POP POP DUP2 JUMP JUMPDEST PUSH1 0x12 SLOAD PUSH5 0x100000000 SWAP1 DIV PUSH1 0x1 PUSH1 0xA0 PUSH1 0x2 EXP SUB AND DUP2 JUMP JUMPDEST PUSH1 0x4 SLOAD DUP2 JUMP JUMPDEST PUSH1 0x12 SLOAD PUSH1 0xFF AND DUP2 JUMP JUMPDEST PUSH1 0x0 DUP1 SLOAD PUSH1 0x60 SWAP1 DUP3 SWAP1 PUSH1 0x1 PUSH1 0xA0 PUSH1 0x2 EXP SUB AND CALLER EQ PUSH2 0xA5E JUMPI PUSH1 0x0 DUP1 REVERT JUMPDEST DUP4 PUSH2 0xA68 DUP8 PUSH2 0x1220 JUMP JUMPDEST LT ISZERO PUSH2 0xA73 JUMPI PUSH1 0x0 DUP1 REVERT JUMPDEST PUSH2 0xA7C DUP6 PUSH2 0x1891 JUMP JUMPDEST ISZERO PUSH2 0xBD5 JUMPI PUSH2 0xA9A DUP5 PUSH2 0xA8E DUP9 PUSH2 0x1220 JUMP JUMPDEST SWAP1 PUSH4 0xFFFFFFFF PUSH2 0x1899 AND JUMP JUMPDEST PUSH1 0x1 PUSH1 0xA0 PUSH1 0x2 EXP SUB DUP8 AND PUSH1 0x0 SWAP1 DUP2 MSTORE PUSH1 0x13 PUSH1 0x20 MSTORE PUSH1 0x40 SWAP1 KECCAK256 SSTORE PUSH2 0xACC DUP5 PUSH2 0xAC0 DUP8 PUSH2 0x1220 JUMP JUMPDEST SWAP1 PUSH4 0xFFFFFFFF PUSH2 0x18AB AND JUMP JUMPDEST PUSH1 0x1 PUSH1 0xA0 PUSH1 0x2 EXP SUB DUP7 AND PUSH1 0x0 DUP2 DUP2 MSTORE PUSH1 0x13 PUSH1 0x20 SWAP1 DUP2 MSTORE PUSH1 0x40 DUP1 DUP4 KECCAK256 SWAP5 SWAP1 SWAP5 SSTORE SWAP3 MLOAD PUSH32 0xC0EE0B8A00000000000000000000000000000000000000000000000000000000 DUP2 MSTORE CALLER PUSH1 0x4 DUP3 ADD DUP2 DUP2 MSTORE PUSH1 0x24 DUP4 ADD DUP11 SWAP1 MSTORE PUSH1 0x60 PUSH1 0x44 DUP5 ADD SWAP1 DUP2 MSTORE DUP9 MLOAD PUSH1 0x64 DUP6 ADD MSTORE DUP9 MLOAD DUP13 SWAP9 POP SWAP6 SWAP7 PUSH4 0xC0EE0B8A SWAP7 SWAP4 SWAP6 DUP13 SWAP6 DUP12 SWAP6 PUSH1 0x84 SWAP1 SWAP2 ADD SWAP3 DUP7 ADD SWAP2 DUP2 SWAP1 DUP5 SWAP1 DUP5 SWAP1 JUMPDEST DUP4 DUP2 LT ISZERO PUSH2 0xB6A JUMPI DUP2 DUP2 ADD MLOAD DUP4 DUP3 ADD MSTORE PUSH1 0x20 ADD PUSH2 0xB52 JUMP JUMPDEST POP POP POP POP SWAP1 POP SWAP1 DUP2 ADD SWAP1 PUSH1 0x1F AND DUP1 ISZERO PUSH2 0xB97 JUMPI DUP1 DUP3 SUB DUP1 MLOAD PUSH1 0x1 DUP4 PUSH1 0x20 SUB PUSH2 0x100 EXP SUB NOT AND DUP2 MSTORE PUSH1 0x20 ADD SWAP2 POP JUMPDEST POP SWAP5 POP POP POP POP POP PUSH1 0x0 PUSH1 0x40 MLOAD DUP1 DUP4 SUB DUP2 PUSH1 0x0 DUP8 DUP1 EXTCODESIZE ISZERO DUP1 ISZERO PUSH2 0xBB8 JUMPI PUSH1 0x0 DUP1 REVERT JUMPDEST POP GAS CALL ISZERO DUP1 ISZERO PUSH2 0xBCC JUMPI RETURNDATASIZE PUSH1 0x0 DUP1 RETURNDATACOPY RETURNDATASIZE PUSH1 0x0 REVERT JUMPDEST POP POP POP POP PUSH2 0xC22 JUMP JUMPDEST PUSH2 0xBE2 DUP5 PUSH2 0xA8E DUP9 PUSH2 0x1220 JUMP JUMPDEST PUSH1 0x1 PUSH1 0xA0 PUSH1 0x2 EXP SUB DUP8 AND PUSH1 0x0 SWAP1 DUP2 MSTORE PUSH1 0x13 PUSH1 0x20 MSTORE PUSH1 0x40 SWAP1 KECCAK256 SSTORE PUSH2 0xC08 DUP5 PUSH2 0xAC0 DUP8 PUSH2 0x1220 JUMP JUMPDEST PUSH1 0x1 PUSH1 0xA0 PUSH1 0x2 EXP SUB DUP7 AND PUSH1 0x0 SWAP1 DUP2 MSTORE PUSH1 0x13 PUSH1 0x20 MSTORE PUSH1 0x40 SWAP1 KECCAK256 SSTORE JUMPDEST DUP5 PUSH1 0x1 PUSH1 0xA0 PUSH1 0x2 EXP SUB AND DUP7 PUSH1 0x1 PUSH1 0xA0 PUSH1 0x2 EXP SUB AND PUSH32 0xDDF252AD1BE2C89B69C2B068FC378DAA952BA7F163C4A11628F55A4DF523B3EF DUP7 PUSH1 0x40 MLOAD DUP1 DUP3 DUP2 MSTORE PUSH1 0x20 ADD SWAP2 POP POP PUSH1 0x40 MLOAD DUP1 SWAP2 SUB SWAP1 LOG3 POP PUSH1 0x1 SWAP6 SWAP5 POP POP POP POP POP JUMP JUMPDEST PUSH1 0x5 SLOAD PUSH1 0x1 PUSH1 0xA0 PUSH1 0x2 EXP SUB AND DUP2 JUMP JUMPDEST PUSH1 0x13 PUSH1 0x20 MSTORE PUSH1 0x0 SWAP1 DUP2 MSTORE PUSH1 0x40 SWAP1 KECCAK256 SLOAD DUP2 JUMP JUMPDEST CALLER PUSH1 0x0 SWAP1 DUP2 MSTORE PUSH1 0x14 PUSH1 0x20 MSTORE PUSH1 0x40 DUP2 KECCAK256 SLOAD PUSH1 0xFF AND PUSH1 0x1 EQ PUSH2 0xCB9 JUMPI PUSH1 0x0 DUP1 REVERT JUMPDEST CALLER PUSH1 0x0 DUP2 DUP2 MSTORE PUSH1 0x14 PUSH1 0x20 MSTORE PUSH1 0x40 DUP1 DUP3 KECCAK256 DUP1 SLOAD PUSH1 0xFF NOT AND PUSH1 0x2 OR SWAP1 SSTORE MLOAD PUSH32 0xF5F1A1247AA8D2A5CA47F8C104886E2DF9AC31612408CD09314472006EFAFA9B SWAP2 SWAP1 LOG2 POP PUSH1 0x1 JUMPDEST SWAP1 JUMP JUMPDEST PUSH1 0x0 DUP2 JUMP JUMPDEST PUSH1 0x12 SLOAD PUSH1 0xFF PUSH2 0x100 SWAP1 SWAP2 DIV AND ISZERO ISZERO PUSH1 0x1 EQ PUSH2 0xD1F JUMPI PUSH1 0x0 DUP1 REVERT JUMPDEST PUSH1 0x12 SLOAD PUSH1 0x1 SLOAD PUSH1 0x40 DUP1 MLOAD PUSH32 0xD3DA927F00000000000000000000000000000000000000000000000000000000 DUP2 MSTORE CALLER PUSH1 0x4 DUP3 ADD MSTORE PUSH1 0x1 PUSH1 0xA0 PUSH1 0x2 EXP SUB SWAP3 DUP4 AND PUSH1 0x24 DUP3 ADD MSTORE SWAP1 MLOAD PUSH5 0x100000000 SWAP1 SWAP4 DIV SWAP1 SWAP2 AND SWAP2 PUSH4 0xD3DA927F SWAP2 PUSH1 0x44 DUP1 DUP3 ADD SWAP3 PUSH1 0x20 SWAP3 SWAP1 SWAP2 SWAP1 DUP3 SWAP1 SUB ADD DUP2 PUSH1 0x0 DUP8 DUP1 EXTCODESIZE ISZERO DUP1 ISZERO PUSH2 0xD99 JUMPI PUSH1 0x0 DUP1 REVERT JUMPDEST POP GAS CALL ISZERO DUP1 ISZERO PUSH2 0xDAD JUMPI RETURNDATASIZE PUSH1 0x0 DUP1 RETURNDATACOPY RETURNDATASIZE PUSH1 0x0 REVERT JUMPDEST POP POP POP POP PUSH1 0x40 MLOAD RETURNDATASIZE PUSH1 0x20 DUP2 LT ISZERO PUSH2 0xDC3 JUMPI PUSH1 0x0 DUP1 REVERT JUMPDEST POP MLOAD ISZERO ISZERO PUSH1 0x1 EQ PUSH2 0xDD3 JUMPI PUSH1 0x0 DUP1 REVERT JUMPDEST CALLER PUSH1 0x0 SWAP1 DUP2 MSTORE PUSH1 0x16 PUSH1 0x20 SWAP1 DUP2 MSTORE PUSH1 0x40 SWAP1 SWAP2 KECCAK256 DUP4 DUP2 SSTORE DUP3 MLOAD PUSH2 0xDFC SWAP3 PUSH1 0x2 SWAP1 SWAP3 ADD SWAP2 DUP5 ADD SWAP1 PUSH2 0x1BAD JUMP JUMPDEST POP PUSH1 0x40 DUP1 MLOAD DUP4 DUP2 MSTORE SWAP1 MLOAD CALLER SWAP2 PUSH32 0x43A2729C7AF1A03B6890CDB94994A64BB4C609275128E96C78DAA1DBE9910179 SWAP2 SWAP1 DUP2 SWAP1 SUB PUSH1 0x20 ADD SWAP1 LOG2 POP POP JUMP JUMPDEST PUSH1 0xB DUP1 SLOAD PUSH1 0x40 DUP1 MLOAD PUSH1 0x20 PUSH1 0x2 PUSH1 0x1 DUP6 AND ISZERO PUSH2 0x100 MUL PUSH1 0x0 NOT ADD SWAP1 SWAP5 AND SWAP4 SWAP1 SWAP4 DIV PUSH1 0x1F DUP2 ADD DUP5 SWAP1 DIV DUP5 MUL DUP3 ADD DUP5 ADD SWAP1 SWAP3 MSTORE DUP2 DUP2 MSTORE SWAP3 SWAP2 DUP4 ADD DUP3 DUP3 DUP1 ISZERO PUSH2 0xA13 JUMPI DUP1 PUSH1 0x1F LT PUSH2 0x9E8 JUMPI PUSH2 0x100 DUP1 DUP4 SLOAD DIV MUL DUP4 MSTORE SWAP2 PUSH1 0x20 ADD SWAP2 PUSH2 0xA13 JUMP JUMPDEST PUSH1 0x6 DUP1 SLOAD PUSH1 0x40 DUP1 MLOAD PUSH1 0x20 PUSH1 0x2 PUSH1 0x1 DUP6 AND ISZERO PUSH2 0x100 MUL PUSH1 0x0 NOT ADD SWAP1 SWAP5 AND SWAP4 SWAP1 SWAP4 DIV PUSH1 0x1F DUP2 ADD DUP5 SWAP1 DIV DUP5 MUL DUP3 ADD DUP5 ADD SWAP1 SWAP3 MSTORE DUP2 DUP2 MSTORE SWAP3 SWAP2 DUP4 ADD DUP3 DUP3 DUP1 ISZERO PUSH2 0xA13 JUMPI DUP1 PUSH1 0x1F LT PUSH2 0x9E8 JUMPI PUSH2 0x100 DUP1 DUP4 SLOAD DIV MUL DUP4 MSTORE SWAP2 PUSH1 0x20 ADD SWAP2 PUSH2 0xA13 JUMP JUMPDEST PUSH1 0x0 SLOAD PUSH1 0x1 PUSH1 0xA0 PUSH1 0x2 EXP SUB AND CALLER EQ PUSH2 0xF04 JUMPI PUSH1 0x0 DUP1 REVERT JUMPDEST DUP1 MLOAD PUSH2 0xF17 SWAP1 PUSH1 0x11 SWAP1 PUSH1 0x20 DUP5 ADD SWAP1 PUSH2 0x1BAD JUMP JUMPDEST POP POP JUMP JUMPDEST PUSH1 0x0 SLOAD PUSH1 0x1 PUSH1 0xA0 PUSH1 0x2 EXP SUB AND CALLER EQ PUSH2 0xF32 JUMPI PUSH1 0x0 DUP1 REVERT JUMPDEST PUSH1 0x1 PUSH1 0xA0 PUSH1 0x2 EXP SUB DUP3 AND PUSH1 0x0 DUP2 DUP2 MSTORE PUSH1 0x16 PUSH1 0x20 SWAP1 DUP2 MSTORE PUSH1 0x40 SWAP2 DUP3 SWAP1 KECCAK256 PUSH1 0x1 ADD DUP5 SWAP1 SSTORE DUP2 MLOAD DUP5 DUP2 MSTORE SWAP2 MLOAD PUSH32 0xA42BD6BDFCB8F9B815C68E4CE0E16DEC3F1E7AC53967EE8309653DE522A735B1 SWAP3 DUP2 SWAP1 SUB SWAP1 SWAP2 ADD SWAP1 LOG2 POP POP JUMP JUMPDEST CALLER PUSH1 0x0 SWAP1 DUP2 MSTORE PUSH1 0x14 PUSH1 0x20 MSTORE PUSH1 0x40 DUP2 KECCAK256 SLOAD PUSH1 0xFF AND PUSH1 0x2 EQ PUSH2 0xFA8 JUMPI PUSH1 0x0 DUP1 REVERT JUMPDEST CALLER PUSH1 0x0 DUP2 DUP2 MSTORE PUSH1 0x14 PUSH1 0x20 MSTORE PUSH1 0x40 DUP1 DUP3 KECCAK256 DUP1 SLOAD PUSH1 0xFF NOT AND SWAP1 SSTORE MLOAD PUSH32 0x4139C849E3930F028ED84A97CBC49A0B2E17CE431020CE97F4D5B4C74AB3D349 SWAP2 SWAP1 LOG2 POP PUSH1 0x1 SWAP1 JUMP JUMPDEST PUSH1 0x7 DUP1 SLOAD PUSH1 0x40 DUP1 MLOAD PUSH1 0x20 PUSH1 0x2 PUSH1 0x1 DUP6 AND ISZERO PUSH2 0x100 MUL PUSH1 0x0 NOT ADD SWAP1 SWAP5 AND SWAP4 SWAP1 SWAP4 DIV PUSH1 0x1F DUP2 ADD DUP5 SWAP1 DIV DUP5 MUL DUP3 ADD DUP5 ADD SWAP1 SWAP3 MSTORE DUP2 DUP2 MSTORE SWAP3 SWAP2 DUP4 ADD DUP3 DUP3 DUP1 ISZERO PUSH2 0xA13 JUMPI DUP1 PUSH1 0x1F LT PUSH2 0x9E8 JUMPI PUSH2 0x100 DUP1 DUP4 SLOAD DIV MUL DUP4 MSTORE SWAP2 PUSH1 0x20 ADD SWAP2 PUSH2 0xA13 JUMP JUMPDEST PUSH1 0x9 SLOAD DUP2 JUMP JUMPDEST PUSH1 0x11 DUP1 SLOAD PUSH1 0x40 DUP1 MLOAD PUSH1 0x20 PUSH1 0x2 PUSH1 0x1 DUP6 AND ISZERO PUSH2 0x100 MUL PUSH1 0x0 NOT ADD SWAP1 SWAP5 AND SWAP4 SWAP1 SWAP4 DIV PUSH1 0x1F DUP2 ADD DUP5 SWAP1 DIV DUP5 MUL DUP3 ADD DUP5 ADD SWAP1 SWAP3 MSTORE DUP2 DUP2 MSTORE SWAP3 SWAP2 DUP4 ADD DUP3 DUP3 DUP1 ISZERO PUSH2 0xA13 JUMPI DUP1 PUSH1 0x1F LT PUSH2 0x9E8 JUMPI PUSH2 0x100 DUP1 DUP4 SLOAD DIV MUL DUP4 MSTORE SWAP2 PUSH1 0x20 ADD SWAP2 PUSH2 0xA13 JUMP JUMPDEST PUSH1 0x0 SLOAD PUSH1 0x1 PUSH1 0xA0 PUSH1 0x2 EXP SUB AND CALLER EQ PUSH2 0x10BE JUMPI PUSH1 0x0 DUP1 REVERT JUMPDEST PUSH1 0x12 DUP1 SLOAD PUSH1 0xFF NOT AND DUP3 ISZERO ISZERO OR SWAP1 DUP2 SWAP1 SSTORE PUSH1 0x40 MLOAD PUSH1 0xFF SWAP1 SWAP2 AND ISZERO ISZERO SWAP1 PUSH32 0xE1E5C6F5867805BF3FAB73F4DF4B80D0E87E9262A7BC22AC7C2CB3FD5896222F SWAP1 PUSH1 0x0 SWAP1 LOG2 POP JUMP JUMPDEST PUSH1 0x15 PUSH1 0x20 SWAP1 DUP2 MSTORE PUSH1 0x0 SWAP2 DUP3 MSTORE PUSH1 0x40 SWAP2 DUP3 SWAP1 KECCAK256 DUP1 SLOAD DUP4 MLOAD PUSH1 0x1F PUSH1 0x2 PUSH1 0x0 NOT PUSH2 0x100 PUSH1 0x1 DUP7 AND ISZERO MUL ADD SWAP1 SWAP4 AND SWAP3 SWAP1 SWAP3 DIV SWAP2 DUP3 ADD DUP5 SWAP1 DIV DUP5 MUL DUP2 ADD DUP5 ADD SWAP1 SWAP5 MSTORE DUP1 DUP5 MSTORE SWAP1 SWAP2 DUP4 ADD DUP3 DUP3 DUP1 ISZERO PUSH2 0xA13 JUMPI DUP1 PUSH1 0x1F LT PUSH2 0x9E8 JUMPI PUSH2 0x100 DUP1 DUP4 SLOAD DIV MUL DUP4 MSTORE SWAP2 PUSH1 0x20 ADD SWAP2 PUSH2 0xA13 JUMP JUMPDEST PUSH1 0xC DUP1 SLOAD PUSH1 0x40 DUP1 MLOAD PUSH1 0x20 PUSH1 0x2 PUSH1 0x1 DUP6 AND ISZERO PUSH2 0x100 MUL PUSH1 0x0 NOT ADD SWAP1 SWAP5 AND SWAP4 SWAP1 SWAP4 DIV PUSH1 0x1F DUP2 ADD DUP5 SWAP1 DIV DUP5 MUL DUP3 ADD DUP5 ADD SWAP1 SWAP3 MSTORE DUP2 DUP2 MSTORE SWAP3 SWAP2 DUP4 ADD DUP3 DUP3 DUP1 ISZERO PUSH2 0xA13 JUMPI DUP1 PUSH1 0x1F LT PUSH2 0x9E8 JUMPI PUSH2 0x100 DUP1 DUP4 SLOAD DIV MUL DUP4 MSTORE SWAP2 PUSH1 0x20 ADD SWAP2 PUSH2 0xA13 JUMP JUMPDEST PUSH1 0x10 DUP1 SLOAD PUSH1 0x40 DUP1 MLOAD PUSH1 0x20 PUSH1 0x2 PUSH1 0x1 DUP6 AND ISZERO PUSH2 0x100 MUL PUSH1 0x0 NOT ADD SWAP1 SWAP5 AND SWAP4 SWAP1 SWAP4 DIV PUSH1 0x1F DUP2 ADD DUP5 SWAP1 DIV DUP5 MUL DUP3 ADD DUP5 ADD SWAP1 SWAP3 MSTORE DUP2 DUP2 MSTORE SWAP3 SWAP2 DUP4 ADD DUP3 DUP3 DUP1 ISZERO PUSH2 0xA13 JUMPI DUP1 PUSH1 0x1F LT PUSH2 0x9E8 JUMPI PUSH2 0x100 DUP1 DUP4 SLOAD DIV MUL DUP4 MSTORE SWAP2 PUSH1 0x20 ADD SWAP2 PUSH2 0xA13 JUMP JUMPDEST PUSH1 0x1 PUSH1 0xA0 PUSH1 0x2 EXP SUB AND PUSH1 0x0 SWAP1 DUP2 MSTORE PUSH1 0x13 PUSH1 0x20 MSTORE PUSH1 0x40 SWAP1 KECCAK256 SLOAD SWAP1 JUMP JUMPDEST PUSH1 0x0 SLOAD PUSH1 0x1 PUSH1 0xA0 PUSH1 0x2 EXP SUB AND CALLER EQ PUSH2 0x1252 JUMPI PUSH1 0x0 DUP1 REVERT JUMPDEST PUSH1 0x5 DUP1 SLOAD PUSH20 0xFFFFFFFFFFFFFFFFFFFFFFFFFFFFFFFFFFFFFFFF NOT AND PUSH1 0x1 PUSH1 0xA0 PUSH1 0x2 EXP SUB SWAP3 SWAP1 SWAP3 AND SWAP2 SWAP1 SWAP2 OR SWAP1 SSTORE JUMP JUMPDEST PUSH1 0xA SLOAD DUP2 JUMP JUMPDEST PUSH1 0x16 PUSH1 0x20 SWAP1 DUP2 MSTORE PUSH1 0x0 SWAP2 DUP3 MSTORE PUSH1 0x40 SWAP2 DUP3 SWAP1 KECCAK256 DUP1 SLOAD PUSH1 0x1 DUP1 DUP4 ADD SLOAD PUSH1 0x2 DUP1 DUP6 ADD DUP1 SLOAD DUP9 MLOAD SWAP5 DUP2 AND ISZERO PUSH2 0x100 MUL PUSH1 0x0 NOT ADD AND SWAP2 SWAP1 SWAP2 DIV PUSH1 0x1F DUP2 ADD DUP8 SWAP1 DIV DUP8 MUL DUP5 ADD DUP8 ADD SWAP1 SWAP8 MSTORE DUP7 DUP4 MSTORE SWAP3 SWAP6 SWAP1 SWAP5 SWAP2 SWAP3 SWAP2 DUP4 ADD DUP3 DUP3 DUP1 ISZERO PUSH2 0x1326 JUMPI DUP1 PUSH1 0x1F LT PUSH2 0x12FB JUMPI PUSH2 0x100 DUP1 DUP4 SLOAD DIV MUL DUP4 MSTORE SWAP2 PUSH1 0x20 ADD SWAP2 PUSH2 0x1326 JUMP JUMPDEST DUP3 ADD SWAP2 SWAP1 PUSH1 0x0 MSTORE PUSH1 0x20 PUSH1 0x0 KECCAK256 SWAP1 JUMPDEST DUP2 SLOAD DUP2 MSTORE SWAP1 PUSH1 0x1 ADD SWAP1 PUSH1 0x20 ADD DUP1 DUP4 GT PUSH2 0x1309 JUMPI DUP3 SWAP1 SUB PUSH1 0x1F AND DUP3 ADD SWAP2 JUMPDEST POP POP POP POP POP SWAP1 POP DUP4 JUMP JUMPDEST PUSH1 0x12 SLOAD PUSH2 0x100 SWAP1 DIV PUSH1 0xFF AND DUP2 JUMP JUMPDEST PUSH1 0x0 SLOAD PUSH1 0x1 PUSH1 0xA0 PUSH1 0x2 EXP SUB AND CALLER EQ PUSH2 0x1355 JUMPI PUSH1 0x0 DUP1 REVERT JUMPDEST PUSH1 0x12 DUP1 SLOAD PUSH2 0xFF00 NOT AND PUSH2 0x100 DUP4 ISZERO ISZERO SWAP1 DUP2 MUL SWAP2 SWAP1 SWAP2 OR SWAP1 SWAP2 SSTORE PUSH1 0x40 MLOAD PUSH32 0x447614144834195D7B5212CBFB53323578964D52FED6642202090B60B175FF60 SWAP1 PUSH1 0x0 SWAP1 LOG2 POP JUMP JUMPDEST PUSH1 0x1 SLOAD PUSH1 0x1 PUSH1 0xA0 PUSH1 0x2 EXP SUB AND DUP2 JUMP JUMPDEST PUSH1 0x0 SLOAD PUSH1 0x1 PUSH1 0xA0 PUSH1 0x2 EXP SUB AND CALLER EQ PUSH2 0x13C0 JUMPI PUSH1 0x0 DUP1 REVERT JUMPDEST DUP1 MLOAD PUSH2 0xF17 SWAP1 PUSH1 0x7 SWAP1 PUSH1 0x20 DUP5 ADD SWAP1 PUSH2 0x1BAD JUMP JUMPDEST PUSH1 0x12 SLOAD PUSH4 0x1000000 SWAP1 DIV PUSH1 0xFF AND DUP2 JUMP JUMPDEST PUSH1 0x3 DUP1 SLOAD PUSH1 0x40 DUP1 MLOAD PUSH1 0x20 PUSH1 0x2 PUSH1 0x1 DUP6 AND ISZERO PUSH2 0x100 MUL PUSH1 0x0 NOT ADD SWAP1 SWAP5 AND SWAP4 SWAP1 SWAP4 DIV PUSH1 0x1F DUP2 ADD DUP5 SWAP1 DIV DUP5 MUL DUP3 ADD DUP5 ADD SWAP1 SWAP3 MSTORE DUP2 DUP2 MSTORE SWAP3 SWAP2 DUP4 ADD DUP3 DUP3 DUP1 ISZERO PUSH2 0xA13 JUMPI DUP1 PUSH1 0x1F LT PUSH2 0x9E8 JUMPI PUSH2 0x100 DUP1 DUP4 SLOAD DIV MUL DUP4 MSTORE SWAP2 PUSH1 0x20 ADD SWAP2 PUSH2 0xA13 JUMP JUMPDEST PUSH1 0x0 SLOAD PUSH1 0x1 PUSH1 0xA0 PUSH1 0x2 EXP SUB AND CALLER EQ PUSH2 0x1455 JUMPI PUSH1 0x0 DUP1 REVERT JUMPDEST PUSH1 0x12 DUP1 SLOAD SWAP2 ISZERO ISZERO PUSH4 0x1000000 MUL PUSH4 0xFF000000 NOT SWAP1 SWAP3 AND SWAP2 SWAP1 SWAP2 OR SWAP1 SSTORE JUMP JUMPDEST PUSH1 0x0 SLOAD PUSH1 0x1 PUSH1 0xA0 PUSH1 0x2 EXP SUB AND CALLER EQ PUSH2 0x148A JUMPI PUSH1 0x0 DUP1 REVERT JUMPDEST PUSH1 0xFF DUP3 AND PUSH1 0x0 SWAP1 DUP2 MSTORE PUSH1 0x15 PUSH1 0x20 SWAP1 DUP2 MSTORE PUSH1 0x40 SWAP1 SWAP2 KECCAK256 DUP3 MLOAD PUSH2 0x14AD SWAP3 DUP5 ADD SWAP1 PUSH2 0x1BAD JUMP JUMPDEST POP POP POP JUMP JUMPDEST PUSH1 0x0 PUSH1 0x60 DUP3 PUSH2 0x14C0 CALLER PUSH2 0x1220 JUMP JUMPDEST LT ISZERO PUSH2 0x14CB JUMPI PUSH1 0x0 DUP1 REVERT JUMPDEST PUSH1 0x5 SLOAD PUSH1 0x1 PUSH1 0xA0 PUSH1 0x2 EXP SUB AND CALLER EQ PUSH2 0x14F8 JUMPI PUSH1 0x12 SLOAD PUSH4 0x1000000 SWAP1 DIV PUSH1 0xFF AND ISZERO ISZERO PUSH1 0x1 EQ PUSH2 0x14F8 JUMPI PUSH1 0x0 DUP1 REVERT JUMPDEST PUSH2 0x1501 DUP5 PUSH2 0x1891 JUMP JUMPDEST ISZERO PUSH2 0x1518 JUMPI PUSH2 0x1511 DUP5 DUP5 DUP4 PUSH2 0x18C1 JUMP JUMPDEST SWAP2 POP PUSH2 0x1523 JUMP JUMPDEST PUSH2 0x1511 DUP5 DUP5 DUP4 PUSH2 0x1A59 JUMP JUMPDEST POP SWAP3 SWAP2 POP POP JUMP JUMPDEST PUSH1 0x1 PUSH1 0xA0 PUSH1 0x2 EXP SUB AND PUSH1 0x0 SWAP1 DUP2 MSTORE PUSH1 0x14 PUSH1 0x20 MSTORE PUSH1 0x40 SWAP1 KECCAK256 DUP1 SLOAD PUSH1 0xFF NOT AND PUSH1 0x1 SWAP1 DUP2 OR SWAP1 SWAP2 SSTORE SWAP1 JUMP JUMPDEST PUSH1 0x0 SLOAD PUSH1 0x1 PUSH1 0xA0 PUSH1 0x2 EXP SUB AND CALLER EQ PUSH2 0x1569 JUMPI PUSH1 0x0 DUP1 REVERT JUMPDEST DUP1 MLOAD PUSH2 0xF17 SWAP1 PUSH1 0x6 SWAP1 PUSH1 0x20 DUP5 ADD SWAP1 PUSH2 0x1BAD JUMP JUMPDEST PUSH1 0x0 SLOAD PUSH1 0x1 PUSH1 0xA0 PUSH1 0x2 EXP SUB AND CALLER EQ PUSH2 0x1593 JUMPI PUSH1 0x0 DUP1 REVERT JUMPDEST PUSH1 0x12 DUP1 SLOAD PUSH3 0xFF0000 NOT AND PUSH3 0x10000 OR SWAP1 SSTORE PUSH1 0x40 MLOAD PUSH32 0xD95402E764607B7B568A855D3414C03561CB940C03BB4D4EE47EA289E4F96A42 SWAP1 PUSH1 0x0 SWAP1 LOG1 JUMP JUMPDEST PUSH1 0x14 PUSH1 0x20 MSTORE PUSH1 0x0 SWAP1 DUP2 MSTORE PUSH1 0x40 SWAP1 KECCAK256 SLOAD PUSH1 0xFF AND DUP2 JUMP JUMPDEST PUSH1 0x0 SLOAD PUSH1 0x1 PUSH1 0xA0 PUSH1 0x2 EXP SUB AND CALLER EQ PUSH2 0x15FB JUMPI PUSH1 0x0 DUP1 REVERT JUMPDEST PUSH1 0x4 SLOAD PUSH2 0x160E SWAP1 DUP3 PUSH4 0xFFFFFFFF PUSH2 0x18AB AND JUMP JUMPDEST PUSH1 0x4 SSTORE PUSH1 0x1 SLOAD PUSH2 0x162C SWAP1 DUP3 SWAP1 PUSH2 0xAC0 SWAP1 PUSH1 0x1 PUSH1 0xA0 PUSH1 0x2 EXP SUB AND PUSH2 0x1220 JUMP JUMPDEST PUSH1 0x1 SLOAD PUSH1 0x1 PUSH1 0xA0 PUSH1 0x2 EXP SUB AND PUSH1 0x0 SWAP1 DUP2 MSTORE PUSH1 0x13 PUSH1 0x20 MSTORE PUSH1 0x40 SWAP1 KECCAK256 SSTORE POP JUMP JUMPDEST PUSH1 0xD SLOAD DUP2 JUMP JUMPDEST PUSH1 0x0 SLOAD PUSH1 0x1 PUSH1 0xA0 PUSH1 0x2 EXP SUB AND CALLER EQ PUSH2 0x1667 JUMPI PUSH1 0x0 DUP1 REVERT JUMPDEST PUSH1 0x1 PUSH1 0xA0 PUSH1 0x2 EXP SUB DUP2 AND ISZERO ISZERO PUSH2 0x167C JUMPI PUSH1 0x0 DUP1 REVERT JUMPDEST PUSH1 0x0 DUP1 SLOAD PUSH1 0x40 MLOAD PUSH1 0x1 PUSH1 0xA0 PUSH1 0x2 EXP SUB DUP1 DUP6 AND SWAP4 SWAP3 AND SWAP2 PUSH32 0x8BE0079C531659141344CD1FD0A4F28419497F9722A3DAAFE3B4186F6B6457E0 SWAP2 LOG3 PUSH1 0x0 DUP1 SLOAD PUSH20 0xFFFFFFFFFFFFFFFFFFFFFFFFFFFFFFFFFFFFFFFF NOT AND PUSH1 0x1 PUSH1 0xA0 PUSH1 0x2 EXP SUB SWAP3 SWAP1 SWAP3 AND SWAP2 SWAP1 SWAP2 OR SWAP1 SSTORE JUMP JUMPDEST PUSH1 0xF DUP1 SLOAD PUSH1 0x40 DUP1 MLOAD PUSH1 0x20 PUSH1 0x2 PUSH1 0x1 DUP6 AND ISZERO PUSH2 0x100 MUL PUSH1 0x0 NOT ADD SWAP1 SWAP5 AND SWAP4 SWAP1 SWAP4 DIV PUSH1 0x1F DUP2 ADD DUP5 SWAP1 DIV DUP5 MUL DUP3 ADD DUP5 ADD SWAP1 SWAP3 MSTORE DUP2 DUP2 MSTORE SWAP3 SWAP2 DUP4 ADD DUP3 DUP3 DUP1 ISZERO PUSH2 0xA13 JUMPI DUP1 PUSH1 0x1F LT PUSH2 0x9E8 JUMPI PUSH2 0x100 DUP1 DUP4 SLOAD DIV MUL DUP4 MSTORE SWAP2 PUSH1 0x20 ADD SWAP2 PUSH2 0xA13 JUMP JUMPDEST PUSH1 0x0 SLOAD PUSH1 0x1 PUSH1 0xA0 PUSH1 0x2 EXP SUB AND CALLER EQ PUSH2 0x1756 JUMPI PUSH1 0x0 DUP1 REVERT JUMPDEST PUSH1 0x12 DUP1 SLOAD PUSH1 0x1 PUSH1 0xA0 PUSH1 0x2 EXP SUB SWAP1 SWAP3 AND PUSH5 0x100000000 MUL PUSH24 0xFFFFFFFFFFFFFFFFFFFFFFFFFFFFFFFFFFFFFFFF00000000 NOT SWAP1 SWAP3 AND SWAP2 SWAP1 SWAP2 OR SWAP1 SSTORE JUMP JUMPDEST PUSH1 0xE DUP1 SLOAD PUSH1 0x40 DUP1 MLOAD PUSH1 0x20 PUSH1 0x2 PUSH1 0x1 DUP6 AND ISZERO PUSH2 0x100 MUL PUSH1 0x0 NOT ADD SWAP1 SWAP5 AND SWAP4 SWAP1 SWAP4 DIV PUSH1 0x1F DUP2 ADD DUP5 SWAP1 DIV DUP5 MUL DUP3 ADD DUP5 ADD SWAP1 SWAP3 MSTORE DUP2 DUP2 MSTORE SWAP3 SWAP2 DUP4 ADD DUP3 DUP3 DUP1 ISZERO PUSH2 0xA13 JUMPI DUP1 PUSH1 0x1F LT PUSH2 0x9E8 JUMPI PUSH2 0x100 DUP1 DUP4 SLOAD DIV MUL DUP4 MSTORE SWAP2 PUSH1 0x20 ADD SWAP2 PUSH2 0xA13 JUMP JUMPDEST PUSH1 0xFF DUP2 AND PUSH1 0x0 SWAP1 DUP2 MSTORE PUSH1 0x15 PUSH1 0x20 SWAP1 DUP2 MSTORE PUSH1 0x40 SWAP2 DUP3 SWAP1 KECCAK256 DUP1 SLOAD DUP4 MLOAD PUSH1 0x1F PUSH1 0x2 PUSH1 0x0 NOT PUSH2 0x100 PUSH1 0x1 DUP7 AND ISZERO MUL ADD SWAP1 SWAP4 AND SWAP3 SWAP1 SWAP3 DIV SWAP2 DUP3 ADD DUP5 SWAP1 DIV DUP5 MUL DUP2 ADD DUP5 ADD SWAP1 SWAP5 MSTORE DUP1 DUP5 MSTORE PUSH1 0x60 SWAP4 SWAP3 DUP4 ADD DUP3 DUP3 DUP1 ISZERO PUSH2 0x1885 JUMPI DUP1 PUSH1 0x1F LT PUSH2 0x185A JUMPI PUSH2 0x100 DUP1 DUP4 SLOAD DIV MUL DUP4 MSTORE SWAP2 PUSH1 0x20 ADD SWAP2 PUSH2 0x1885 JUMP JUMPDEST DUP3 ADD SWAP2 SWAP1 PUSH1 0x0 MSTORE PUSH1 0x20 PUSH1 0x0 KECCAK256 SWAP1 JUMPDEST DUP2 SLOAD DUP2 MSTORE SWAP1 PUSH1 0x1 ADD SWAP1 PUSH1 0x20 ADD DUP1 DUP4 GT PUSH2 0x1868 JUMPI DUP3 SWAP1 SUB PUSH1 0x1F AND DUP3 ADD SWAP2 JUMPDEST POP POP POP POP POP SWAP1 POP SWAP2 SWAP1 POP JUMP JUMPDEST PUSH1 0x0 SWAP1 EXTCODESIZE GT SWAP1 JUMP JUMPDEST PUSH1 0x0 DUP3 DUP3 GT ISZERO PUSH2 0x18A5 JUMPI INVALID JUMPDEST POP SWAP1 SUB SWAP1 JUMP JUMPDEST PUSH1 0x0 DUP3 DUP3 ADD DUP4 DUP2 LT ISZERO PUSH2 0x18BA JUMPI INVALID JUMPDEST SWAP4 SWAP3 POP POP POP JUMP JUMPDEST PUSH1 0x5 SLOAD PUSH1 0x0 SWAP1 DUP2 SWAP1 PUSH1 0x1 PUSH1 0xA0 PUSH1 0x2 EXP SUB DUP7 DUP2 AND SWAP2 AND EQ PUSH2 0x18E0 JUMPI PUSH1 0x0 DUP1 REVERT JUMPDEST PUSH2 0x18ED DUP5 PUSH2 0xA8E CALLER PUSH2 0x1220 JUMP JUMPDEST CALLER PUSH1 0x0 SWAP1 DUP2 MSTORE PUSH1 0x13 PUSH1 0x20 MSTORE PUSH1 0x40 SWAP1 KECCAK256 SSTORE PUSH2 0x190A DUP5 PUSH2 0xAC0 DUP8 PUSH2 0x1220 JUMP JUMPDEST PUSH1 0x1 PUSH1 0xA0 PUSH1 0x2 EXP SUB DUP7 AND PUSH1 0x0 DUP2 DUP2 MSTORE PUSH1 0x13 PUSH1 0x20 SWAP1 DUP2 MSTORE PUSH1 0x40 DUP1 DUP4 KECCAK256 SWAP5 SWAP1 SWAP5 SSTORE SWAP3 MLOAD PUSH32 0xC0EE0B8A00000000000000000000000000000000000000000000000000000000 DUP2 MSTORE CALLER PUSH1 0x4 DUP3 ADD DUP2 DUP2 MSTORE PUSH1 0x24 DUP4 ADD DUP11 SWAP1 MSTORE PUSH1 0x60 PUSH1 0x44 DUP5 ADD SWAP1 DUP2 MSTORE DUP10 MLOAD PUSH1 0x64 DUP6 ADD MSTORE DUP10 MLOAD DUP13 SWAP9 POP SWAP6 SWAP7 PUSH4 0xC0EE0B8A SWAP7 SWAP4 SWAP6 DUP13 SWAP6 DUP13 SWAP6 PUSH1 0x84 SWAP1 SWAP2 ADD SWAP3 DUP7 ADD SWAP2 DUP2 SWAP1 DUP5 SWAP1 DUP5 SWAP1 JUMPDEST DUP4 DUP2 LT ISZERO PUSH2 0x19A8 JUMPI DUP2 DUP2 ADD MLOAD DUP4 DUP3 ADD MSTORE PUSH1 0x20 ADD PUSH2 0x1990 JUMP JUMPDEST POP POP POP POP SWAP1 POP SWAP1 DUP2 ADD SWAP1 PUSH1 0x1F AND DUP1 ISZERO PUSH2 0x19D5 JUMPI DUP1 DUP3 SUB DUP1 MLOAD PUSH1 0x1 DUP4 PUSH1 0x20 SUB PUSH2 0x100 EXP SUB NOT AND DUP2 MSTORE PUSH1 0x20 ADD SWAP2 POP JUMPDEST POP SWAP5 POP POP POP POP POP PUSH1 0x0 PUSH1 0x40 MLOAD DUP1 DUP4 SUB DUP2 PUSH1 0x0 DUP8 DUP1 EXTCODESIZE ISZERO DUP1 ISZERO PUSH2 0x19F6 JUMPI PUSH1 0x0 DUP1 REVERT JUMPDEST POP GAS CALL ISZERO DUP1 ISZERO PUSH2 0x1A0A JUMPI RETURNDATASIZE PUSH1 0x0 DUP1 RETURNDATACOPY RETURNDATASIZE PUSH1 0x0 REVERT JUMPDEST POP POP PUSH1 0x40 DUP1 MLOAD DUP8 DUP2 MSTORE SWAP1 MLOAD PUSH1 0x1 PUSH1 0xA0 PUSH1 0x2 EXP SUB DUP10 AND SWAP4 POP CALLER SWAP3 POP PUSH32 0xDDF252AD1BE2C89B69C2B068FC378DAA952BA7F163C4A11628F55A4DF523B3EF SWAP2 DUP2 SWAP1 SUB PUSH1 0x20 ADD SWAP1 LOG3 POP PUSH1 0x1 SWAP5 SWAP4 POP POP POP POP JUMP JUMPDEST PUSH1 0x5 SLOAD PUSH1 0x0 SWAP1 PUSH1 0x1 PUSH1 0xA0 PUSH1 0x2 EXP SUB AND CALLER EQ PUSH2 0x1B24 JUMPI PUSH1 0x12 SLOAD PUSH1 0x1 SLOAD PUSH1 0x40 DUP1 MLOAD PUSH32 0xD3DA927F00000000000000000000000000000000000000000000000000000000 DUP2 MSTORE PUSH1 0x1 PUSH1 0xA0 PUSH1 0x2 EXP SUB DUP9 DUP2 AND PUSH1 0x4 DUP4 ADD MSTORE SWAP3 DUP4 AND PUSH1 0x24 DUP3 ADD MSTORE SWAP1 MLOAD PUSH5 0x100000000 SWAP1 SWAP4 DIV SWAP1 SWAP2 AND SWAP2 PUSH4 0xD3DA927F SWAP2 PUSH1 0x44 DUP1 DUP3 ADD SWAP3 PUSH1 0x20 SWAP3 SWAP1 SWAP2 SWAP1 DUP3 SWAP1 SUB ADD DUP2 PUSH1 0x0 DUP8 DUP1 EXTCODESIZE ISZERO DUP1 ISZERO PUSH2 0x1AEA JUMPI PUSH1 0x0 DUP1 REVERT JUMPDEST POP GAS CALL ISZERO DUP1 ISZERO PUSH2 0x1AFE JUMPI RETURNDATASIZE PUSH1 0x0 DUP1 RETURNDATACOPY RETURNDATASIZE PUSH1 0x0 REVERT JUMPDEST POP POP POP POP PUSH1 0x40 MLOAD RETURNDATASIZE PUSH1 0x20 DUP2 LT ISZERO PUSH2 0x1B14 JUMPI PUSH1 0x0 DUP1 REVERT JUMPDEST POP MLOAD ISZERO ISZERO PUSH1 0x1 EQ PUSH2 0x1B24 JUMPI PUSH1 0x0 DUP1 REVERT JUMPDEST PUSH2 0x1B31 DUP4 PUSH2 0xA8E CALLER PUSH2 0x1220 JUMP JUMPDEST CALLER PUSH1 0x0 SWAP1 DUP2 MSTORE PUSH1 0x13 PUSH1 0x20 MSTORE PUSH1 0x40 SWAP1 KECCAK256 SSTORE PUSH2 0x1B4E DUP4 PUSH2 0xAC0 DUP7 PUSH2 0x1220 JUMP JUMPDEST PUSH1 0x1 PUSH1 0xA0 PUSH1 0x2 EXP SUB DUP6 AND PUSH1 0x0 DUP2 DUP2 MSTORE PUSH1 0x13 PUSH1 0x20 SWAP1 DUP2 MSTORE PUSH1 0x40 SWAP2 DUP3 SWAP1 KECCAK256 SWAP4 SWAP1 SWAP4 SSTORE DUP1 MLOAD DUP7 DUP2 MSTORE SWAP1 MLOAD SWAP2 SWAP3 CALLER SWAP3 PUSH32 0xDDF252AD1BE2C89B69C2B068FC378DAA952BA7F163C4A11628F55A4DF523B3EF SWAP3 DUP2 SWAP1 SUB SWAP1 SWAP2 ADD SWAP1 LOG3 POP PUSH1 0x1 SWAP4 SWAP3 POP POP POP JUMP JUMPDEST DUP3 DUP1 SLOAD PUSH1 0x1 DUP2 PUSH1 0x1 AND ISZERO PUSH2 0x100 MUL SUB AND PUSH1 0x2 SWAP1 DIV SWAP1 PUSH1 0x0 MSTORE PUSH1 0x20 PUSH1 0x0 KECCAK256 SWAP1 PUSH1 0x1F ADD PUSH1 0x20 SWAP1 DIV DUP2 ADD SWAP3 DUP3 PUSH1 0x1F LT PUSH2 0x1BEE JUMPI DUP1 MLOAD PUSH1 0xFF NOT AND DUP4 DUP1 ADD OR DUP6 SSTORE PUSH2 0x1C1B JUMP JUMPDEST DUP3 DUP1 ADD PUSH1 0x1 ADD DUP6 SSTORE DUP3 ISZERO PUSH2 0x1C1B JUMPI SWAP2 DUP3 ADD JUMPDEST DUP3 DUP2 GT ISZERO PUSH2 0x1C1B JUMPI DUP3 MLOAD DUP3 SSTORE SWAP2 PUSH1 0x20 ADD SWAP2 SWAP1 PUSH1 0x1 ADD SWAP1 PUSH2 0x1C00 JUMP JUMPDEST POP PUSH2 0x1C27 SWAP3 SWAP2 POP PUSH2 0x1C2B JUMP JUMPDEST POP SWAP1 JUMP JUMPDEST PUSH2 0xCFD SWAP2 SWAP1 JUMPDEST DUP1 DUP3 GT ISZERO PUSH2 0x1C27 JUMPI PUSH1 0x0 DUP2 SSTORE PUSH1 0x1 ADD PUSH2 0x1C31 JUMP STOP LOG1 PUSH6 0x627A7A723058 KECCAK256 EXP PUSH13 0x3026EF516C13DB6585CC70C36C DIV 0xb5 DIV 0xa7 0x4c 0xf5 PUSH29 0x8B967C7ECC6FFC94616900290000000000000000000000000000000000 ",
  "sha1": "a8ae7f46f2aa72ce6b9b2cf33b611cc1b4a279a6",
  "source": "pragma solidity ^0.4.24;\n\nimport \"./SafeMath.sol\";\nimport \"./Ownable.sol\";\nimport \"./PersonalInfo.sol\";\nimport \"../interfaces/ContractReceiver.sol\";\nimport \"../interfaces/IbetStandardTokenInterface.sol\";\n\n\n/// @title ibet Straight Bond Token\ncontract IbetStraightBond is Ownable, IbetStandardTokenInterface {\n    using SafeMath for uint256;\n\n    /// 属性情報\n    uint256 public faceValue; // 額面\n    uint256 public interestRate; // 年利\n    string public interestPaymentDate; // 利払日（JSON）\n    string public redemptionDate; // 償還日\n    uint256 public redemptionValue; // 償還金額\n    string public returnDate; // 特典付与日\n    string public returnAmount; // 特典内容\n    string public purpose; // 発行目的\n    string public memo; // 補足情報\n    bool public status; // 取扱ステータス(True：有効、False：無効)\n    bool public initialOfferingStatus; // 新規募集ステータス（True：募集中、False：停止中）\n\n    /// 募集申込情報\n    struct Application {\n        uint256 requestedAmount; // 申込数量\n        uint256 allottedAmount; // 割当数量\n        string data; // その他データ\n    }\n\n    /// 償還状況\n    bool public isRedeemed;\n\n    /// 譲渡可否\n    bool public transferable;\n\n    /// 個人情報記帳コントラクト\n    address public personalInfoAddress;\n\n    /// 残高数量\n    /// account_address => balance\n    mapping(address => uint256) public balances;\n\n    /// 第三者認定情報\n    /// signer_address => status\n    mapping(address => uint8) public signatures;\n\n    /// 商品画像\n    /// image class => url\n    mapping(uint8 => string) public image_urls;\n\n    /// 募集申込\n    /// account_address => data\n    mapping(address => Application) public applications;\n\n    /// イベント：移転\n    event Transfer(address indexed from, address indexed to, uint256 value);\n\n    /// イベント：認定\n    event Sign(address indexed signer);\n\n    /// イベント：認定取消\n    event Unsign(address indexed signer);\n\n    /// イベント：償還\n    event Redeem();\n\n    /// イベント：ステータス変更\n    event ChangeStatus(bool indexed status);\n\n    /// イベント：募集ステータス変更\n    event ChangeInitialOfferingStatus(bool indexed status);\n\n    /// イベント：募集申込\n    event ApplyFor(address indexed accountAddress, uint256 amount);\n\n    /// イベント：割当\n    event Allot(address indexed accountAddress, uint256 amount);\n\n    /// [CONSTRUCTOR]\n    /// @param _name 名称\n    /// @param _symbol 略称\n    /// @param _totalSupply 総発行数量\n    /// @param _tradableExchange 取引コントラクト\n    /// @param _faceValue 額面\n    /// @param _interestRate 年利\n    /// @param _interestPaymentDate 利払日\n    /// @param _redemptionDate 償還日\n    /// @param _redemptionValue 償還金額\n    /// @param _returnDate 特典付与日\n    /// @param _returnAmount 特典内容\n    /// @param _purpose 発行目的\n    /// @param _memo 補足情報\n    /// @param _contactInformation 問い合わせ先情報\n    /// @param _privacyPolicy プライバシーポリシー\n    /// @param _personalInfoAddress 個人情報コントラクトアドレス\n    constructor(\n        string memory _name,\n        string memory _symbol,\n        uint256 _totalSupply,\n        address _tradableExchange,\n        uint256 _faceValue,\n        uint256 _interestRate,\n        string memory _interestPaymentDate,\n        string memory _redemptionDate,\n        uint256 _redemptionValue,\n        string memory _returnDate,\n        string memory _returnAmount,\n        string memory _purpose,\n        string memory _memo,\n        string _contactInformation,\n        string _privacyPolicy,\n        address _personalInfoAddress\n    )\n        public\n    {\n        owner = msg.sender;\n        name = _name;\n        symbol = _symbol;\n        totalSupply = _totalSupply;\n        tradableExchange = _tradableExchange;\n        faceValue = _faceValue;\n        interestRate = _interestRate;\n        interestPaymentDate = _interestPaymentDate;\n        redemptionDate = _redemptionDate;\n        redemptionValue = _redemptionValue;\n        returnDate = _returnDate;\n        returnAmount = _returnAmount;\n        purpose = _purpose;\n        memo = _memo;\n        transferable = true;\n        balances[owner] = totalSupply;\n        isRedeemed = false;\n        status = true;\n        contactInformation = _contactInformation;\n        privacyPolicy = _privacyPolicy;\n        personalInfoAddress = _personalInfoAddress;\n    }\n\n    /// @notice 追加発行\n    /// @dev オーナーのみ実行可能\n    /// @param _value 追加発行数量\n    function issue(uint _value)\n        public\n        onlyOwner()\n    {\n        totalSupply = totalSupply.add(_value);\n        balances[owner] = balanceOf(owner).add(_value);\n    }\n\n    /// @notice アドレスがコントラクトアドレスであるかを判定\n    /// @param _addr アドレス\n    /// @return is_contract 判定結果\n    function isContract(address _addr)\n        private\n        view\n        returns (bool is_contract)\n    {\n        uint length;\n        assembly {\n            length := extcodesize(_addr)\n        }\n        return (length > 0);\n    }\n\n    /// @notice EOAへの移転\n    /// @param _to 宛先アドレス\n    /// @param _value 移転数量\n    /// @return success 処理結果\n    function transferToAddress(address _to, uint _value, bytes memory /*_data*/)\n        private\n        returns (bool success)\n    {\n        if (msg.sender != tradableExchange) {\n            require(PersonalInfo(personalInfoAddress).isRegistered(_to, owner) == true);\n        }\n        balances[msg.sender] = balanceOf(msg.sender).sub(_value);\n        balances[_to] = balanceOf(_to).add(_value);\n\n        // イベント登録\n        emit Transfer(msg.sender, _to, _value);\n\n        return true;\n    }\n\n    /// @notice コントラクトアドレスへの移転\n    /// @param _to 宛先アドレス\n    /// @param _value 移転数量\n    /// @param _data 任意のデータ\n    /// @return success 処理結果\n    function transferToContract(address _to, uint _value, bytes memory _data)\n        private\n        returns (bool success)\n    {\n        require(_to == tradableExchange);\n        balances[msg.sender] = balanceOf(msg.sender).sub(_value);\n        balances[_to] = balanceOf(_to).add(_value);\n\n        ContractReceiver receiver = ContractReceiver(_to);\n        receiver.tokenFallback(msg.sender, _value, _data);\n\n        // イベント登録\n        emit Transfer(msg.sender, _to, _value);\n\n        return true;\n    }\n\n    /// @notice トークンの移転\n    /// @param _to 宛先アドレス\n    /// @param _value 移転数量\n    /// @return success 処理結果\n    function transfer(address _to, uint _value)\n        public\n        returns (bool success)\n    {\n        // <CHK>\n        //  数量が残高を超えている場合、エラーを返す\n        if (balanceOf(msg.sender) < _value) revert();\n        if (msg.sender != tradableExchange) {\n            // 譲渡可能ではない場合、エラーを返す\n            require(transferable == true);\n        }\n\n        bytes memory empty;\n        if (isContract(_to)) {\n            return transferToContract(_to, _value, empty);\n        } else {\n            return transferToAddress(_to, _value, empty);\n        }\n    }\n\n    /// @notice 強制移転\n    /// @dev オーナーのみ実行可能\n    /// @param _from 移転元アドレス\n    /// @param _to 移転先アドレス\n    /// @param _value 移転数量\n    /// @return success 処理結果\n    function transferFrom(address _from, address _to, uint _value)\n        public\n        onlyOwner()\n        returns (bool success)\n    {\n        // <CHK>\n        //  数量が送信元アドレス（from）の残高を超えている場合、エラーを返す\n        if (balanceOf(_from) < _value) revert();\n\n        bytes memory empty;\n\n        if (isContract(_to)) {// 送信先アドレスがコントラクトアドレスの場合\n            balances[_from] = balanceOf(_from).sub(_value);\n            balances[_to] = balanceOf(_to).add(_value);\n            ContractReceiver receiver = ContractReceiver(_to);\n            receiver.tokenFallback(msg.sender, _value, empty);\n        } else {// 送信先アドレスがアカウントアドレスの場合\n            balances[_from] = balanceOf(_from).sub(_value);\n            balances[_to] = balanceOf(_to).add(_value);\n        }\n\n        // イベント登録\n        emit Transfer(_from, _to, _value);\n\n        return true;\n    }\n\n    /// @notice 残高の参照\n    /// @param _owner 保有者のアドレス\n    /// @return 残高数量\n    function balanceOf(address _owner)\n        public\n        view\n        returns (uint256)\n    {\n        return balances[_owner];\n    }\n\n    /// @notice 取引コントラクトの更新\n    /// @dev オーナーのみ実行可能\n    /// @param _exchange 更新後取引コントラクト\n    function setTradableExchange(address _exchange)\n        public\n        onlyOwner()\n    {\n        tradableExchange = _exchange;\n    }\n\n    /// @notice 問い合わせ先情報の更新\n    /// @dev オーナーのみ実行可能\n    /// @param _contactInformation 問い合わせ先情報\n    function setContactInformation(string _contactInformation)\n        public\n        onlyOwner()\n    {\n        contactInformation = _contactInformation;\n    }\n\n    /// @notice プライバシーポリシーの更新\n    /// @dev オーナーのみ実行可能\n    /// @param _privacyPolicy プライバシーポリシー\n    function setPrivacyPolicy(string _privacyPolicy)\n        public\n        onlyOwner()\n    {\n        privacyPolicy = _privacyPolicy;\n    }\n\n    /// @notice 商品の認定をリクエストする\n    /// @param _signer 認定者\n    /// @return 処理結果\n    function requestSignature(address _signer)\n        public\n        returns (bool)\n    {\n        signatures[_signer] = 1;\n        return true;\n    }\n\n    /// @notice 商品を認定する\n    /// @return 処理結果\n    function sign()\n        public\n        returns (bool)\n    {\n        require(signatures[msg.sender] == 1);\n        signatures[msg.sender] = 2;\n        emit Sign(msg.sender);\n        return true;\n    }\n\n    /// @notice 商品の認定を取り消す\n    /// @return 処理結果\n    function unsign()\n        public\n        returns (bool)\n    {\n        require(signatures[msg.sender] == 2);\n        signatures[msg.sender] = 0;\n        emit Unsign(msg.sender);\n        return true;\n    }\n\n    /// @notice 償還する\n    /// @dev オーナーのみ実行可能\n    function redeem()\n        public\n        onlyOwner()\n    {\n        isRedeemed = true;\n        emit Redeem();\n    }\n\n    /// @notice 商品画像の更新\n    /// @dev オーナーのみ実行可能\n    /// @param _class 画像番号\n    /// @param _image_url 画像URL\n    function setImageURL(uint8 _class, string memory _image_url)\n        public\n        onlyOwner()\n    {\n        image_urls[_class] = _image_url;\n    }\n\n    /// @notice 商品画像の参照\n    /// @param _class 画像番号\n    /// @return 画像URL\n    function getImageURL(uint8 _class)\n        public\n        view\n        returns (string memory)\n    {\n        return image_urls[_class];\n    }\n\n    /// @notice 補足情報の更新\n    /// @dev オーナーのみ実行可能\n    /// @param _memo 補足情報\n    function updateMemo(string memory _memo)\n        public\n        onlyOwner()\n    {\n        memo = _memo;\n    }\n\n    /// @notice 譲渡可否の更新\n    /// @dev オーナーのみ実行可能\n    /// @param _transferable 譲渡可否\n    function setTransferable(bool _transferable)\n        public\n        onlyOwner()\n    {\n        transferable = _transferable;\n    }\n\n    /// @notice 取扱ステータスの更新\n    /// @dev オーナーのみ実行可能\n    /// @param _status 更新後の取扱ステータス\n    function setStatus(bool _status)\n        public\n        onlyOwner()\n    {\n        status = _status;\n        emit ChangeStatus(status);\n    }\n\n    /// @notice 個人情報記帳コントラクトの更新\n    /// @dev オーナーのみ実行可能\n    /// @param _address 個人情報記帳コントラクトのアドレス\n    function setPersonalInfoAddress(address _address)\n        public\n        onlyOwner()\n    {\n        personalInfoAddress = _address;\n    }\n\n    /// @notice 新規募集ステータスの更新\n    /// @dev オーナーのみ実行可能\n    /// @param _status 募集ステータス\n    function setInitialOfferingStatus(bool _status)\n        public\n        onlyOwner()\n    {\n        initialOfferingStatus = _status;\n        emit ChangeInitialOfferingStatus(_status);\n    }\n\n    /// @notice 募集申込\n    /// @param _data 申込付与情報\n    function applyForOffering(uint256 _amount, string memory _data)\n        public\n    {\n        // 申込ステータスが停止中の場合、エラーを返す\n        require(initialOfferingStatus == true);\n\n        // 個人情報未登録の場合、エラーを返す\n        require(PersonalInfo(personalInfoAddress).isRegistered(msg.sender, owner) == true);\n\n        applications[msg.sender].requestedAmount = _amount;\n        applications[msg.sender].data = _data;\n        emit ApplyFor(msg.sender, _amount);\n    }\n\n    /// @notice 募集割当\n    /// @dev オーナーのみ実行可能\n    /// @param _address 割当先アドレス\n    /// @param _amount 割当数量\n    function allot(address _address, uint256 _amount)\n        public\n        onlyOwner()\n    {\n        applications[_address].allottedAmount = _amount;\n        emit Allot(_address, _amount);\n    }\n\n}\n",
  "sourcePath": "contracts/IbetStraightBond.sol",
  "type": "contract"
}