{
  "abi": [
    {
      "constant": true,
      "inputs": [],
      "name": "name",
      "outputs": [
        {
          "name": "",
          "type": "string"
        }
      ],
      "payable": false,
      "stateMutability": "view",
      "type": "function"
    },
    {
      "constant": true,
      "inputs": [],
      "name": "totalSupply",
      "outputs": [
        {
          "name": "",
          "type": "uint256"
        }
      ],
      "payable": false,
      "stateMutability": "view",
      "type": "function"
    },
    {
      "constant": true,
      "inputs": [],
      "name": "status",
      "outputs": [
        {
          "name": "",
          "type": "bool"
        }
      ],
      "payable": false,
      "stateMutability": "view",
      "type": "function"
    },
    {
      "constant": false,
      "inputs": [
        {
          "name": "_from",
          "type": "address"
        },
        {
          "name": "_to",
          "type": "address"
        },
        {
          "name": "_value",
          "type": "uint256"
        }
      ],
      "name": "transferFrom",
      "outputs": [
        {
          "name": "",
          "type": "bool"
        }
      ],
      "payable": false,
      "stateMutability": "nonpayable",
      "type": "function"
    },
    {
      "constant": true,
      "inputs": [],
      "name": "tradableExchange",
      "outputs": [
        {
          "name": "",
          "type": "address"
        }
      ],
      "payable": false,
      "stateMutability": "view",
      "type": "function"
    },
    {
      "constant": false,
      "inputs": [
        {
          "name": "_memo",
          "type": "string"
        }
      ],
      "name": "setMemo",
      "outputs": [],
      "payable": false,
      "stateMutability": "nonpayable",
      "type": "function"
    },
    {
      "constant": true,
      "inputs": [
        {
          "name": "",
          "type": "address"
        }
      ],
      "name": "balances",
      "outputs": [
        {
          "name": "",
          "type": "uint256"
        }
      ],
      "payable": false,
      "stateMutability": "view",
      "type": "function"
    },
    {
      "constant": true,
      "inputs": [],
      "name": "decimals",
      "outputs": [
        {
          "name": "",
          "type": "uint8"
        }
      ],
      "payable": false,
      "stateMutability": "view",
      "type": "function"
    },
    {
      "constant": true,
      "inputs": [],
      "name": "contactInformation",
      "outputs": [
        {
          "name": "",
          "type": "string"
        }
      ],
      "payable": false,
      "stateMutability": "view",
      "type": "function"
    },
    {
      "constant": false,
      "inputs": [
        {
          "name": "_details",
          "type": "string"
        }
      ],
      "name": "setDetails",
      "outputs": [],
      "payable": false,
      "stateMutability": "nonpayable",
      "type": "function"
    },
    {
      "constant": true,
      "inputs": [],
      "name": "privacyPolicy",
      "outputs": [
        {
          "name": "",
          "type": "string"
        }
      ],
      "payable": false,
      "stateMutability": "view",
      "type": "function"
    },
    {
      "constant": false,
      "inputs": [
        {
          "name": "_data",
          "type": "string"
        }
      ],
      "name": "applyForOffering",
      "outputs": [],
      "payable": false,
      "stateMutability": "nonpayable",
      "type": "function"
    },
    {
      "constant": true,
      "inputs": [],
      "name": "details",
      "outputs": [
        {
          "name": "",
          "type": "string"
        }
      ],
      "payable": false,
      "stateMutability": "view",
      "type": "function"
    },
    {
      "constant": true,
      "inputs": [],
      "name": "memo",
      "outputs": [
        {
          "name": "",
          "type": "string"
        }
      ],
      "payable": false,
      "stateMutability": "view",
      "type": "function"
    },
    {
      "constant": false,
      "inputs": [
        {
          "name": "_status",
          "type": "bool"
        }
      ],
      "name": "setStatus",
      "outputs": [],
      "payable": false,
      "stateMutability": "nonpayable",
      "type": "function"
    },
    {
      "constant": true,
      "inputs": [
        {
          "name": "",
          "type": "uint8"
        }
      ],
      "name": "image_urls",
      "outputs": [
        {
          "name": "",
          "type": "string"
        }
      ],
      "payable": false,
      "stateMutability": "view",
      "type": "function"
    },
    {
      "constant": true,
      "inputs": [
        {
          "name": "_owner",
          "type": "address"
        }
      ],
      "name": "balanceOf",
      "outputs": [
        {
          "name": "",
          "type": "uint256"
        }
      ],
      "payable": false,
      "stateMutability": "view",
      "type": "function"
    },
    {
      "constant": false,
      "inputs": [
        {
          "name": "_exchange",
          "type": "address"
        }
      ],
      "name": "setTradableExchange",
      "outputs": [],
      "payable": false,
      "stateMutability": "nonpayable",
      "type": "function"
    },
    {
      "constant": true,
      "inputs": [
        {
          "name": "",
          "type": "address"
        }
      ],
      "name": "applications",
      "outputs": [
        {
          "name": "",
          "type": "string"
        }
      ],
      "payable": false,
      "stateMutability": "view",
      "type": "function"
    },
    {
      "constant": true,
      "inputs": [],
      "name": "initialOfferingStatus",
      "outputs": [
        {
          "name": "",
          "type": "bool"
        }
      ],
      "payable": false,
      "stateMutability": "view",
      "type": "function"
    },
    {
      "constant": true,
      "inputs": [],
      "name": "returnDetails",
      "outputs": [
        {
          "name": "",
          "type": "string"
        }
      ],
      "payable": false,
      "stateMutability": "view",
      "type": "function"
    },
    {
      "constant": false,
      "inputs": [
        {
          "name": "_status",
          "type": "bool"
        }
      ],
      "name": "setInitialOfferingStatus",
      "outputs": [],
      "payable": false,
      "stateMutability": "nonpayable",
      "type": "function"
    },
    {
      "constant": true,
      "inputs": [],
      "name": "owner",
      "outputs": [
        {
          "name": "",
          "type": "address"
        }
      ],
      "payable": false,
      "stateMutability": "view",
      "type": "function"
    },
    {
      "constant": false,
      "inputs": [
        {
          "name": "_privacyPolicy",
          "type": "string"
        }
      ],
      "name": "setPrivacyPolicy",
      "outputs": [],
      "payable": false,
      "stateMutability": "nonpayable",
      "type": "function"
    },
    {
      "constant": true,
      "inputs": [],
      "name": "expirationDate",
      "outputs": [
        {
          "name": "",
          "type": "string"
        }
      ],
      "payable": false,
      "stateMutability": "view",
      "type": "function"
    },
    {
      "constant": true,
      "inputs": [],
      "name": "transferable",
      "outputs": [
        {
          "name": "",
          "type": "bool"
        }
      ],
      "payable": false,
      "stateMutability": "view",
      "type": "function"
    },
    {
      "constant": true,
      "inputs": [],
      "name": "symbol",
      "outputs": [
        {
          "name": "",
          "type": "string"
        }
      ],
      "payable": false,
      "stateMutability": "view",
      "type": "function"
    },
    {
      "constant": false,
      "inputs": [
        {
          "name": "_transferable",
          "type": "bool"
        }
      ],
      "name": "setTransferable",
      "outputs": [],
      "payable": false,
      "stateMutability": "nonpayable",
      "type": "function"
    },
    {
      "constant": false,
      "inputs": [
        {
          "name": "_class",
          "type": "uint8"
        },
        {
          "name": "_image_url",
          "type": "string"
        }
      ],
      "name": "setImageURL",
      "outputs": [],
      "payable": false,
      "stateMutability": "nonpayable",
      "type": "function"
    },
    {
      "constant": false,
      "inputs": [
        {
          "name": "_to",
          "type": "address"
        },
        {
          "name": "_value",
          "type": "uint256"
        }
      ],
      "name": "transfer",
      "outputs": [
        {
          "name": "",
          "type": "bool"
        }
      ],
      "payable": false,
      "stateMutability": "nonpayable",
      "type": "function"
    },
    {
      "constant": false,
      "inputs": [
        {
          "name": "_contactInformation",
          "type": "string"
        }
      ],
      "name": "setContactInformation",
      "outputs": [],
      "payable": false,
      "stateMutability": "nonpayable",
      "type": "function"
    },
    {
      "constant": false,
      "inputs": [
        {
          "name": "_returnDetails",
          "type": "string"
        }
      ],
      "name": "setReturnDetails",
      "outputs": [],
      "payable": false,
      "stateMutability": "nonpayable",
      "type": "function"
    },
    {
      "constant": false,
      "inputs": [
        {
          "name": "_expirationDate",
          "type": "string"
        }
      ],
      "name": "setExpirationDate",
      "outputs": [],
      "payable": false,
      "stateMutability": "nonpayable",
      "type": "function"
    },
    {
      "constant": false,
      "inputs": [
        {
          "name": "_value",
          "type": "uint256"
        }
      ],
      "name": "issue",
      "outputs": [],
      "payable": false,
      "stateMutability": "nonpayable",
      "type": "function"
    },
    {
      "constant": false,
      "inputs": [
        {
          "name": "newOwner",
          "type": "address"
        }
      ],
      "name": "transferOwnership",
      "outputs": [],
      "payable": false,
      "stateMutability": "nonpayable",
      "type": "function"
    },
    {
      "constant": true,
      "inputs": [
        {
          "name": "_class",
          "type": "uint8"
        }
      ],
      "name": "getImageURL",
      "outputs": [
        {
          "name": "",
          "type": "string"
        }
      ],
      "payable": false,
      "stateMutability": "view",
      "type": "function"
    },
    {
      "inputs": [
        {
          "name": "_name",
          "type": "string"
        },
        {
          "name": "_symbol",
          "type": "string"
        },
        {
          "name": "_initialSupply",
          "type": "uint256"
        },
        {
          "name": "_tradableExchange",
          "type": "address"
        },
        {
          "name": "_details",
          "type": "string"
        },
        {
          "name": "_returnDetails",
          "type": "string"
        },
        {
          "name": "_expirationDate",
          "type": "string"
        },
        {
          "name": "_memo",
          "type": "string"
        },
        {
          "name": "_transferable",
          "type": "bool"
        },
        {
          "name": "_contactInformation",
          "type": "string"
        },
        {
          "name": "_privacyPolicy",
          "type": "string"
        }
      ],
      "payable": false,
      "stateMutability": "nonpayable",
      "type": "constructor"
    },
    {
      "anonymous": false,
      "inputs": [
        {
          "indexed": true,
          "name": "from",
          "type": "address"
        },
        {
          "indexed": true,
          "name": "to",
          "type": "address"
        },
        {
          "indexed": false,
          "name": "value",
          "type": "uint256"
        }
      ],
      "name": "Transfer",
      "type": "event"
    },
    {
      "anonymous": false,
      "inputs": [
        {
          "indexed": true,
          "name": "status",
          "type": "bool"
        }
      ],
      "name": "ChangeStatus",
      "type": "event"
    },
    {
      "anonymous": false,
      "inputs": [
        {
          "indexed": true,
          "name": "accountAddress",
          "type": "address"
        }
      ],
      "name": "ApplyFor",
      "type": "event"
    },
    {
      "anonymous": false,
      "inputs": [
        {
          "indexed": true,
          "name": "previousOwner",
          "type": "address"
        },
        {
          "indexed": true,
          "name": "newOwner",
          "type": "address"
        }
      ],
      "name": "OwnershipTransferred",
      "type": "event"
    }
  ],
  "bytecode": "60806040523480156200001157600080fd5b5060405162001911380380620019118339810160409081528151602080840151928401516060850151608086015160a087015160c088015160e08901516101008a01516101208b01516101408c01516000805433600160a060020a03199182168117909255600180549091169091179055998c018051909c9b8c019b989a9799968901989586019794860196938601959294918301939190920191620000be91600291908e0190620001c6565b508951620000d49060039060208d0190620001c6565b50600489905560058054600160a060020a031916600160a060020a038a1617905586516200010a9060099060208a0190620001c6565b5085516200012090600a906020890190620001c6565b5084516200013690600b906020880190620001c6565b5083516200014c90600c906020870190620001c6565b50600454600154600160a060020a03166000908152600e6020908152604090912091909155600d805461010060ff199091168615151761ff00191617905582516200019e9160069190850190620001c6565b508051620001b4906007906020840190620001c6565b5050505050505050505050506200026b565b828054600181600116156101000203166002900490600052602060002090601f016020900481019282601f106200020957805160ff191683800117855562000239565b8280016001018555821562000239579182015b82811115620002395782518255916020019190600101906200021c565b50620002479291506200024b565b5090565b6200026891905b8082111562000247576000815560010162000252565b90565b611696806200027b6000396000f3006080604052600436106101c15763ffffffff7c010000000000000000000000000000000000000000000000000000000060003504166306fdde0381146101c657806318160ddd14610250578063200d2ed21461027757806323b872dd146102a057806325287d42146102ca57806325d60861146102fb57806327e235e314610356578063313ce5671461037757806336f7ab5e146103a25780633e8a8009146103b7578063428630f6146104105780635540e7cf14610425578063565974d31461047e57806358c3b870146104935780635c40f6f4146104a857806360bf50fc146104c257806370a08231146104dd57806376fa7a31146104fe5780637c3bf42d1461051f578063833e0d8c146105405780638739e66314610555578063885390111461056a5780638da5cb5b146105845780638ed8a9bc146105995780638f620487146105f257806392ff0d311461060757806395d89b411461061c5780639cd2370714610631578063a124beba1461064b578063a9059cbb146106ac578063b967a52e146106d0578063c72fe06514610729578063c9c9227714610782578063cc872b66146107db578063f2fde38b146107f3578063ffca397b14610814575b600080fd5b3480156101d257600080fd5b506101db61082f565b6040805160208082528351818301528351919283929083019185019080838360005b838110156102155781810151838201526020016101fd565b50505050905090810190601f1680156102425780820380516001836020036101000a031916815260200191505b509250505060405180910390f35b34801561025c57600080fd5b506102656108ba565b60408051918252519081900360200190f35b34801561028357600080fd5b5061028c6108c0565b604080519115158252519081900360200190f35b3480156102ac57600080fd5b5061028c600160a060020a03600435811690602435166044356108ce565b3480156102d657600080fd5b506102df610b06565b60408051600160a060020a039092168252519081900360200190f35b34801561030757600080fd5b506040805160206004803580820135601f8101849004840285018401909552848452610354943694929360249392840191908190840183828082843750949750610b159650505050505050565b005b34801561036257600080fd5b50610265600160a060020a0360043516610b43565b34801561038357600080fd5b5061038c610b55565b6040805160ff9092168252519081900360200190f35b3480156103ae57600080fd5b506101db610b5a565b3480156103c357600080fd5b506040805160206004803580820135601f8101849004840285018401909552848452610354943694929360249392840191908190840183828082843750949750610bb59650505050505050565b34801561041c57600080fd5b506101db610bdf565b34801561043157600080fd5b506040805160206004803580820135601f8101849004840285018401909552848452610354943694929360249392840191908190840183828082843750949750610c3a9650505050505050565b34801561048a57600080fd5b506101db610ca3565b34801561049f57600080fd5b506101db610cfe565b3480156104b457600080fd5b506103546004351515610d59565b3480156104ce57600080fd5b506101db60ff60043516610dbf565b3480156104e957600080fd5b50610265600160a060020a0360043516610e27565b34801561050a57600080fd5b50610354600160a060020a0360043516610e42565b34801561052b57600080fd5b506101db600160a060020a0360043516610e88565b34801561054c57600080fd5b5061028c610ef0565b34801561056157600080fd5b506101db610eff565b34801561057657600080fd5b506103546004351515610f5a565b34801561059057600080fd5b506102df610f8d565b3480156105a557600080fd5b506040805160206004803580820135601f8101849004840285018401909552848452610354943694929360249392840191908190840183828082843750949750610f9c9650505050505050565b3480156105fe57600080fd5b506101db610fc6565b34801561061357600080fd5b5061028c611021565b34801561062857600080fd5b506101db61102a565b34801561063d57600080fd5b506103546004351515611085565b34801561065757600080fd5b5060408051602060046024803582810135601f810185900485028601850190965285855261035495833560ff169536956044949193909101919081908401838280828437509497506110af9650505050505050565b3480156106b857600080fd5b5061028c600160a060020a03600435166024356110ee565b3480156106dc57600080fd5b506040805160206004803580820135601f810184900484028501840190955284845261035494369492936024939284019190819084018382808284375094975061115f9650505050505050565b34801561073557600080fd5b506040805160206004803580820135601f81018490048402850184019095528484526103549436949293602493928401919081908401838280828437509497506111899650505050505050565b34801561078e57600080fd5b506040805160206004803580820135601f81018490048402850184019095528484526103549436949293602493928401919081908401838280828437509497506111b39650505050505050565b3480156107e757600080fd5b506103546004356111dd565b3480156107ff57600080fd5b50610354600160a060020a0360043516611243565b34801561082057600080fd5b506101db60ff600435166112d7565b6002805460408051602060018416156101000260001901909316849004601f810184900484028201840190925281815292918301828280156108b25780601f10610887576101008083540402835291602001916108b2565b820191906000526020600020905b81548152906001019060200180831161089557829003601f168201915b505050505081565b60045481565b600d54610100900460ff1681565b600080546060908290600160a060020a031633146108eb57600080fd5b836108f587610e27565b101561090057600080fd5b6109098561137c565b15610a62576109278461091b88610e27565b9063ffffffff61138416565b600160a060020a0387166000908152600e60205260409020556109598461094d87610e27565b9063ffffffff61139616565b600160a060020a0386166000818152600e602090815260408083209490945592517fc0ee0b8a0000000000000000000000000000000000000000000000000000000081523360048201818152602483018a90526060604484019081528851606485015288518c9850959663c0ee0b8a9693958c958b956084909101928601918190849084905b838110156109f75781810151838201526020016109df565b50505050905090810190601f168015610a245780820380516001836020036101000a031916815260200191505b50945050505050600060405180830381600087803b158015610a4557600080fd5b505af1158015610a59573d6000803e3d6000fd5b50505050610aaf565b610a6f8461091b88610e27565b600160a060020a0387166000908152600e6020526040902055610a958461094d87610e27565b600160a060020a0386166000908152600e60205260409020555b84600160a060020a031686600160a060020a03167fddf252ad1be2c89b69c2b068fc378daa952ba7f163c4a11628f55a4df523b3ef866040518082815260200191505060405180910390a350600195945050505050565b600554600160a060020a031681565b600054600160a060020a03163314610b2c57600080fd5b8051610b3f90600c9060208401906115cf565b5050565b600e6020526000908152604090205481565b600081565b6006805460408051602060026001851615610100026000190190941693909304601f810184900484028201840190925281815292918301828280156108b25780601f10610887576101008083540402835291602001916108b2565b600054600160a060020a03163314610bcc57600080fd5b8051610b3f9060099060208401906115cf565b6007805460408051602060026001851615610100026000190190941693909304601f810184900484028201840190925281815292918301828280156108b25780601f10610887576101008083540402835291602001916108b2565b600d5462010000900460ff161515600114610c5457600080fd5b3360009081526010602090815260409091208251610c74928401906115cf565b5060405133907fa0a0cb7a71308c6bc8ff419bcc1cc3e9fd3009c7edf8a8d8c506ca5c46688b4990600090a250565b6009805460408051602060026001851615610100026000190190941693909304601f810184900484028201840190925281815292918301828280156108b25780601f10610887576101008083540402835291602001916108b2565b600c805460408051602060026001851615610100026000190190941693909304601f810184900484028201840190925281815292918301828280156108b25780601f10610887576101008083540402835291602001916108b2565b600054600160a060020a03163314610d7057600080fd5b600d805461ff0019166101008315158102919091179182905560405160ff91909204161515907fe1e5c6f5867805bf3fab73f4df4b80d0e87e9262a7bc22ac7c2cb3fd5896222f90600090a250565b600f6020908152600091825260409182902080548351601f6002600019610100600186161502019093169290920491820184900484028101840190945280845290918301828280156108b25780601f10610887576101008083540402835291602001916108b2565b600160a060020a03166000908152600e602052604090205490565b600054600160a060020a03163314610e5957600080fd5b6005805473ffffffffffffffffffffffffffffffffffffffff1916600160a060020a0392909216919091179055565b60106020908152600091825260409182902080548351601f6002600019610100600186161502019093169290920491820184900484028101840190945280845290918301828280156108b25780601f10610887576101008083540402835291602001916108b2565b600d5462010000900460ff1681565b600a805460408051602060026001851615610100026000190190941693909304601f810184900484028201840190925281815292918301828280156108b25780601f10610887576101008083540402835291602001916108b2565b600054600160a060020a03163314610f7157600080fd5b600d8054911515620100000262ff000019909216919091179055565b600154600160a060020a031681565b600054600160a060020a03163314610fb357600080fd5b8051610b3f9060079060208401906115cf565b600b805460408051602060026001851615610100026000190190941693909304601f810184900484028201840190925281815292918301828280156108b25780601f10610887576101008083540402835291602001916108b2565b600d5460ff1681565b6003805460408051602060026001851615610100026000190190941693909304601f810184900484028201840190925281815292918301828280156108b25780601f10610887576101008083540402835291602001916108b2565b600054600160a060020a0316331461109c57600080fd5b600d805460ff1916911515919091179055565b600054600160a060020a031633146110c657600080fd5b60ff82166000908152600f6020908152604090912082516110e9928401906115cf565b505050565b60006060826110fc33610e27565b101561110757600080fd5b600554600160a060020a0316331461112d57600d5460ff16151560011461112d57600080fd5b6111368461137c565b1561114d576111468484836113ac565b9150611158565b611146848483611544565b5092915050565b600054600160a060020a0316331461117657600080fd5b8051610b3f9060069060208401906115cf565b600054600160a060020a031633146111a057600080fd5b8051610b3f90600a9060208401906115cf565b600054600160a060020a031633146111ca57600080fd5b8051610b3f90600b9060208401906115cf565b600054600160a060020a031633146111f457600080fd5b600454611207908263ffffffff61139616565b60045560015461122590829061094d90600160a060020a0316610e27565b600154600160a060020a03166000908152600e602052604090205550565b600054600160a060020a0316331461125a57600080fd5b600160a060020a038116151561126f57600080fd5b60008054604051600160a060020a03808516939216917f8be0079c531659141344cd1fd0a4f28419497f9722a3daafe3b4186f6b6457e091a36000805473ffffffffffffffffffffffffffffffffffffffff1916600160a060020a0392909216919091179055565b60ff81166000908152600f602090815260409182902080548351601f60026000196101006001861615020190931692909204918201849004840281018401909452808452606093928301828280156113705780601f1061134557610100808354040283529160200191611370565b820191906000526020600020905b81548152906001019060200180831161135357829003601f168201915b50505050509050919050565b6000903b1190565b60008282111561139057fe5b50900390565b6000828201838110156113a557fe5b9392505050565b6005546000908190600160a060020a038681169116146113cb57600080fd5b6113d88461091b33610e27565b336000908152600e60205260409020556113f58461094d87610e27565b600160a060020a0386166000818152600e602090815260408083209490945592517fc0ee0b8a0000000000000000000000000000000000000000000000000000000081523360048201818152602483018a90526060604484019081528951606485015289518c9850959663c0ee0b8a9693958c958c956084909101928601918190849084905b8381101561149357818101518382015260200161147b565b50505050905090810190601f1680156114c05780820380516001836020036101000a031916815260200191505b50945050505050600060405180830381600087803b1580156114e157600080fd5b505af11580156114f5573d6000803e3d6000fd5b5050604080518781529051600160a060020a03891693503392507fddf252ad1be2c89b69c2b068fc378daa952ba7f163c4a11628f55a4df523b3ef9181900360200190a3506001949350505050565b60006115538361091b33610e27565b336000908152600e60205260409020556115708361094d86610e27565b600160a060020a0385166000818152600e60209081526040918290209390935580518681529051919233927fddf252ad1be2c89b69c2b068fc378daa952ba7f163c4a11628f55a4df523b3ef9281900390910190a35060019392505050565b828054600181600116156101000203166002900490600052602060002090601f016020900481019282601f1061161057805160ff191683800117855561163d565b8280016001018555821561163d579182015b8281111561163d578251825591602001919060010190611622565b5061164992915061164d565b5090565b61166791905b808211156116495760008155600101611653565b905600a165627a7a72305820d8f4e96c413813fcc784a99fd3bb6c779ed24fdc084dc4fc3bfc2d2fda06f12e0029",
  "bytecodeSha1": "309e92bc272869c2460704ac80e26aa8ae3be73d",
  "compiler": {
    "evm_version": "byzantium",
    "optimizer": {
      "enabled": true,
      "runs": 200
    },
    "version": "0.4.25"
  },
  "contractName": "IbetMembership",
  "language": "Solidity",
  "natspec": {
    "methods": {
      "applyForOffering(string)": {
        "notice": "募集申込",
        "params": {
          "_data": "申込付与情報"
        }
      },
      "balanceOf(address)": {
        "notice": "残高の参照",
        "params": {
          "_owner": "保有者のアドレス"
        },
        "return": "残高数量"
      },
      "getImageURL(uint8)": {
        "notice": "商品画像の参照",
        "params": {
          "_class": "画像番号"
        },
        "return": "画像URL"
      },
      "issue(uint256)": {
        "details": "オーナーのみ実行可能",
        "notice": "追加発行",
        "params": {
          "_value": "追加発行数量"
        }
      },
      "setContactInformation(string)": {
        "details": "オーナーのみ実行可能",
        "notice": "問い合わせ先情報の更新",
        "params": {
          "_contactInformation": "問い合わせ先情報"
        }
      },
      "setDetails(string)": {
        "details": "オーナーのみ実行可能",
        "notice": "詳細の更新",
        "params": {
          "_details": "クーポン詳細情報"
        }
      },
      "setExpirationDate(string)": {
        "details": "オーナーのみ実行可能",
        "notice": "有効期限の更新",
        "params": {
          "_expirationDate": "有効期限"
        }
      },
      "setImageURL(uint8,string)": {
        "details": "オーナーのみ実行可能",
        "notice": "商品画像の更新",
        "params": {
          "_class": "画像番号",
          "_image_url": "画像URL"
        }
      },
      "setInitialOfferingStatus(bool)": {
        "details": "オーナーのみ実行可能",
        "notice": "新規募集ステータスの更新",
        "params": {
          "_status": "募集ステータス"
        }
      },
      "setMemo(string)": {
        "details": "オーナーのみ実行可能",
        "notice": "補足情報の更新",
        "params": {
          "_memo": "補足情報"
        }
      },
      "setPrivacyPolicy(string)": {
        "details": "オーナーのみ実行可能",
        "notice": "プライバシーポリシーの更新",
        "params": {
          "_privacyPolicy": "プライバシーポリシー"
        }
      },
      "setReturnDetails(string)": {
        "details": "オーナーのみ実行可能",
        "notice": "特典詳細の更新",
        "params": {
          "_returnDetails": "特典詳細"
        }
      },
      "setStatus(bool)": {
        "details": "オーナーのみ実行可能",
        "notice": "取扱ステータスの更新",
        "params": {
          "_status": "更新後の取扱ステータス"
        }
      },
      "setTradableExchange(address)": {
        "details": "オーナーのみ実行可能",
        "notice": "取引コントラクトの更新",
        "params": {
          "_exchange": "更新後取引コントラクト"
        }
      },
      "setTransferable(bool)": {
        "details": "オーナーのみ実行可能",
        "notice": "譲渡可否の更新",
        "params": {
          "_transferable": "譲渡可否"
        }
      },
      "transfer(address,uint256)": {
        "notice": "トークンの移転",
        "params": {
          "_to": "宛先アドレス",
          "_value": "移転数量"
        },
        "return": "処理結果"
      },
      "transferFrom(address,address,uint256)": {
        "details": "オーナーのみ実行可能",
        "notice": "強制移転",
        "params": {
          "_from": "移転元アドレス",
          "_to": "移転先アドレス",
          "_value": "移転数量"
        },
        "return": "処理結果"
      },
      "transferOwnership(address)": {
        "details": "オーナーのみ実行可能",
        "notice": "オーナー変更",
        "params": {
          "newOwner": "新しいオーナー"
        }
      }
    },
    "title": "ibet Membership Token"
  },
  "opcodes": "PUSH1 0x80 PUSH1 0x40 MSTORE PUSH1 0x4 CALLDATASIZE LT PUSH2 0x1C1 JUMPI PUSH4 0xFFFFFFFF PUSH29 0x100000000000000000000000000000000000000000000000000000000 PUSH1 0x0 CALLDATALOAD DIV AND PUSH4 0x6FDDE03 DUP2 EQ PUSH2 0x1C6 JUMPI DUP1 PUSH4 0x18160DDD EQ PUSH2 0x250 JUMPI DUP1 PUSH4 0x200D2ED2 EQ PUSH2 0x277 JUMPI DUP1 PUSH4 0x23B872DD EQ PUSH2 0x2A0 JUMPI DUP1 PUSH4 0x25287D42 EQ PUSH2 0x2CA JUMPI DUP1 PUSH4 0x25D60861 EQ PUSH2 0x2FB JUMPI DUP1 PUSH4 0x27E235E3 EQ PUSH2 0x356 JUMPI DUP1 PUSH4 0x313CE567 EQ PUSH2 0x377 JUMPI DUP1 PUSH4 0x36F7AB5E EQ PUSH2 0x3A2 JUMPI DUP1 PUSH4 0x3E8A8009 EQ PUSH2 0x3B7 JUMPI DUP1 PUSH4 0x428630F6 EQ PUSH2 0x410 JUMPI DUP1 PUSH4 0x5540E7CF EQ PUSH2 0x425 JUMPI DUP1 PUSH4 0x565974D3 EQ PUSH2 0x47E JUMPI DUP1 PUSH4 0x58C3B870 EQ PUSH2 0x493 JUMPI DUP1 PUSH4 0x5C40F6F4 EQ PUSH2 0x4A8 JUMPI DUP1 PUSH4 0x60BF50FC EQ PUSH2 0x4C2 JUMPI DUP1 PUSH4 0x70A08231 EQ PUSH2 0x4DD JUMPI DUP1 PUSH4 0x76FA7A31 EQ PUSH2 0x4FE JUMPI DUP1 PUSH4 0x7C3BF42D EQ PUSH2 0x51F JUMPI DUP1 PUSH4 0x833E0D8C EQ PUSH2 0x540 JUMPI DUP1 PUSH4 0x8739E663 EQ PUSH2 0x555 JUMPI DUP1 PUSH4 0x88539011 EQ PUSH2 0x56A JUMPI DUP1 PUSH4 0x8DA5CB5B EQ PUSH2 0x584 JUMPI DUP1 PUSH4 0x8ED8A9BC EQ PUSH2 0x599 JUMPI DUP1 PUSH4 0x8F620487 EQ PUSH2 0x5F2 JUMPI DUP1 PUSH4 0x92FF0D31 EQ PUSH2 0x607 JUMPI DUP1 PUSH4 0x95D89B41 EQ PUSH2 0x61C JUMPI DUP1 PUSH4 0x9CD23707 EQ PUSH2 0x631 JUMPI DUP1 PUSH4 0xA124BEBA EQ PUSH2 0x64B JUMPI DUP1 PUSH4 0xA9059CBB EQ PUSH2 0x6AC JUMPI DUP1 PUSH4 0xB967A52E EQ PUSH2 0x6D0 JUMPI DUP1 PUSH4 0xC72FE065 EQ PUSH2 0x729 JUMPI DUP1 PUSH4 0xC9C92277 EQ PUSH2 0x782 JUMPI DUP1 PUSH4 0xCC872B66 EQ PUSH2 0x7DB JUMPI DUP1 PUSH4 0xF2FDE38B EQ PUSH2 0x7F3 JUMPI DUP1 PUSH4 0xFFCA397B EQ PUSH2 0x814 JUMPI JUMPDEST PUSH1 0x0 DUP1 REVERT JUMPDEST CALLVALUE DUP1 ISZERO PUSH2 0x1D2 JUMPI PUSH1 0x0 DUP1 REVERT JUMPDEST POP PUSH2 0x1DB PUSH2 0x82F JUMP JUMPDEST PUSH1 0x40 DUP1 MLOAD PUSH1 0x20 DUP1 DUP3 MSTORE DUP4 MLOAD DUP2 DUP4 ADD MSTORE DUP4 MLOAD SWAP2 SWAP3 DUP4 SWAP3 SWAP1 DUP4 ADD SWAP2 DUP6 ADD SWAP1 DUP1 DUP4 DUP4 PUSH1 0x0 JUMPDEST DUP4 DUP2 LT ISZERO PUSH2 0x215 JUMPI DUP2 DUP2 ADD MLOAD DUP4 DUP3 ADD MSTORE PUSH1 0x20 ADD PUSH2 0x1FD JUMP JUMPDEST POP POP POP POP SWAP1 POP SWAP1 DUP2 ADD SWAP1 PUSH1 0x1F AND DUP1 ISZERO PUSH2 0x242 JUMPI DUP1 DUP3 SUB DUP1 MLOAD PUSH1 0x1 DUP4 PUSH1 0x20 SUB PUSH2 0x100 EXP SUB NOT AND DUP2 MSTORE PUSH1 0x20 ADD SWAP2 POP JUMPDEST POP SWAP3 POP POP POP PUSH1 0x40 MLOAD DUP1 SWAP2 SUB SWAP1 RETURN JUMPDEST CALLVALUE DUP1 ISZERO PUSH2 0x25C JUMPI PUSH1 0x0 DUP1 REVERT JUMPDEST POP PUSH2 0x265 PUSH2 0x8BA JUMP JUMPDEST PUSH1 0x40 DUP1 MLOAD SWAP2 DUP3 MSTORE MLOAD SWAP1 DUP2 SWAP1 SUB PUSH1 0x20 ADD SWAP1 RETURN JUMPDEST CALLVALUE DUP1 ISZERO PUSH2 0x283 JUMPI PUSH1 0x0 DUP1 REVERT JUMPDEST POP PUSH2 0x28C PUSH2 0x8C0 JUMP JUMPDEST PUSH1 0x40 DUP1 MLOAD SWAP2 ISZERO ISZERO DUP3 MSTORE MLOAD SWAP1 DUP2 SWAP1 SUB PUSH1 0x20 ADD SWAP1 RETURN JUMPDEST CALLVALUE DUP1 ISZERO PUSH2 0x2AC JUMPI PUSH1 0x0 DUP1 REVERT JUMPDEST POP PUSH2 0x28C PUSH1 0x1 PUSH1 0xA0 PUSH1 0x2 EXP SUB PUSH1 0x4 CALLDATALOAD DUP2 AND SWAP1 PUSH1 0x24 CALLDATALOAD AND PUSH1 0x44 CALLDATALOAD PUSH2 0x8CE JUMP JUMPDEST CALLVALUE DUP1 ISZERO PUSH2 0x2D6 JUMPI PUSH1 0x0 DUP1 REVERT JUMPDEST POP PUSH2 0x2DF PUSH2 0xB06 JUMP JUMPDEST PUSH1 0x40 DUP1 MLOAD PUSH1 0x1 PUSH1 0xA0 PUSH1 0x2 EXP SUB SWAP1 SWAP3 AND DUP3 MSTORE MLOAD SWAP1 DUP2 SWAP1 SUB PUSH1 0x20 ADD SWAP1 RETURN JUMPDEST CALLVALUE DUP1 ISZERO PUSH2 0x307 JUMPI PUSH1 0x0 DUP1 REVERT JUMPDEST POP PUSH1 0x40 DUP1 MLOAD PUSH1 0x20 PUSH1 0x4 DUP1 CALLDATALOAD DUP1 DUP3 ADD CALLDATALOAD PUSH1 0x1F DUP2 ADD DUP5 SWAP1 DIV DUP5 MUL DUP6 ADD DUP5 ADD SWAP1 SWAP6 MSTORE DUP5 DUP5 MSTORE PUSH2 0x354 SWAP5 CALLDATASIZE SWAP5 SWAP3 SWAP4 PUSH1 0x24 SWAP4 SWAP3 DUP5 ADD SWAP2 SWAP1 DUP2 SWAP1 DUP5 ADD DUP4 DUP3 DUP1 DUP3 DUP5 CALLDATACOPY POP SWAP5 SWAP8 POP PUSH2 0xB15 SWAP7 POP POP POP POP POP POP POP JUMP JUMPDEST STOP JUMPDEST CALLVALUE DUP1 ISZERO PUSH2 0x362 JUMPI PUSH1 0x0 DUP1 REVERT JUMPDEST POP PUSH2 0x265 PUSH1 0x1 PUSH1 0xA0 PUSH1 0x2 EXP SUB PUSH1 0x4 CALLDATALOAD AND PUSH2 0xB43 JUMP JUMPDEST CALLVALUE DUP1 ISZERO PUSH2 0x383 JUMPI PUSH1 0x0 DUP1 REVERT JUMPDEST POP PUSH2 0x38C PUSH2 0xB55 JUMP JUMPDEST PUSH1 0x40 DUP1 MLOAD PUSH1 0xFF SWAP1 SWAP3 AND DUP3 MSTORE MLOAD SWAP1 DUP2 SWAP1 SUB PUSH1 0x20 ADD SWAP1 RETURN JUMPDEST CALLVALUE DUP1 ISZERO PUSH2 0x3AE JUMPI PUSH1 0x0 DUP1 REVERT JUMPDEST POP PUSH2 0x1DB PUSH2 0xB5A JUMP JUMPDEST CALLVALUE DUP1 ISZERO PUSH2 0x3C3 JUMPI PUSH1 0x0 DUP1 REVERT JUMPDEST POP PUSH1 0x40 DUP1 MLOAD PUSH1 0x20 PUSH1 0x4 DUP1 CALLDATALOAD DUP1 DUP3 ADD CALLDATALOAD PUSH1 0x1F DUP2 ADD DUP5 SWAP1 DIV DUP5 MUL DUP6 ADD DUP5 ADD SWAP1 SWAP6 MSTORE DUP5 DUP5 MSTORE PUSH2 0x354 SWAP5 CALLDATASIZE SWAP5 SWAP3 SWAP4 PUSH1 0x24 SWAP4 SWAP3 DUP5 ADD SWAP2 SWAP1 DUP2 SWAP1 DUP5 ADD DUP4 DUP3 DUP1 DUP3 DUP5 CALLDATACOPY POP SWAP5 SWAP8 POP PUSH2 0xBB5 SWAP7 POP POP POP POP POP POP POP JUMP JUMPDEST CALLVALUE DUP1 ISZERO PUSH2 0x41C JUMPI PUSH1 0x0 DUP1 REVERT JUMPDEST POP PUSH2 0x1DB PUSH2 0xBDF JUMP JUMPDEST CALLVALUE DUP1 ISZERO PUSH2 0x431 JUMPI PUSH1 0x0 DUP1 REVERT JUMPDEST POP PUSH1 0x40 DUP1 MLOAD PUSH1 0x20 PUSH1 0x4 DUP1 CALLDATALOAD DUP1 DUP3 ADD CALLDATALOAD PUSH1 0x1F DUP2 ADD DUP5 SWAP1 DIV DUP5 MUL DUP6 ADD DUP5 ADD SWAP1 SWAP6 MSTORE DUP5 DUP5 MSTORE PUSH2 0x354 SWAP5 CALLDATASIZE SWAP5 SWAP3 SWAP4 PUSH1 0x24 SWAP4 SWAP3 DUP5 ADD SWAP2 SWAP1 DUP2 SWAP1 DUP5 ADD DUP4 DUP3 DUP1 DUP3 DUP5 CALLDATACOPY POP SWAP5 SWAP8 POP PUSH2 0xC3A SWAP7 POP POP POP POP POP POP POP JUMP JUMPDEST CALLVALUE DUP1 ISZERO PUSH2 0x48A JUMPI PUSH1 0x0 DUP1 REVERT JUMPDEST POP PUSH2 0x1DB PUSH2 0xCA3 JUMP JUMPDEST CALLVALUE DUP1 ISZERO PUSH2 0x49F JUMPI PUSH1 0x0 DUP1 REVERT JUMPDEST POP PUSH2 0x1DB PUSH2 0xCFE JUMP JUMPDEST CALLVALUE DUP1 ISZERO PUSH2 0x4B4 JUMPI PUSH1 0x0 DUP1 REVERT JUMPDEST POP PUSH2 0x354 PUSH1 0x4 CALLDATALOAD ISZERO ISZERO PUSH2 0xD59 JUMP JUMPDEST CALLVALUE DUP1 ISZERO PUSH2 0x4CE JUMPI PUSH1 0x0 DUP1 REVERT JUMPDEST POP PUSH2 0x1DB PUSH1 0xFF PUSH1 0x4 CALLDATALOAD AND PUSH2 0xDBF JUMP JUMPDEST CALLVALUE DUP1 ISZERO PUSH2 0x4E9 JUMPI PUSH1 0x0 DUP1 REVERT JUMPDEST POP PUSH2 0x265 PUSH1 0x1 PUSH1 0xA0 PUSH1 0x2 EXP SUB PUSH1 0x4 CALLDATALOAD AND PUSH2 0xE27 JUMP JUMPDEST CALLVALUE DUP1 ISZERO PUSH2 0x50A JUMPI PUSH1 0x0 DUP1 REVERT JUMPDEST POP PUSH2 0x354 PUSH1 0x1 PUSH1 0xA0 PUSH1 0x2 EXP SUB PUSH1 0x4 CALLDATALOAD AND PUSH2 0xE42 JUMP JUMPDEST CALLVALUE DUP1 ISZERO PUSH2 0x52B JUMPI PUSH1 0x0 DUP1 REVERT JUMPDEST POP PUSH2 0x1DB PUSH1 0x1 PUSH1 0xA0 PUSH1 0x2 EXP SUB PUSH1 0x4 CALLDATALOAD AND PUSH2 0xE88 JUMP JUMPDEST CALLVALUE DUP1 ISZERO PUSH2 0x54C JUMPI PUSH1 0x0 DUP1 REVERT JUMPDEST POP PUSH2 0x28C PUSH2 0xEF0 JUMP JUMPDEST CALLVALUE DUP1 ISZERO PUSH2 0x561 JUMPI PUSH1 0x0 DUP1 REVERT JUMPDEST POP PUSH2 0x1DB PUSH2 0xEFF JUMP JUMPDEST CALLVALUE DUP1 ISZERO PUSH2 0x576 JUMPI PUSH1 0x0 DUP1 REVERT JUMPDEST POP PUSH2 0x354 PUSH1 0x4 CALLDATALOAD ISZERO ISZERO PUSH2 0xF5A JUMP JUMPDEST CALLVALUE DUP1 ISZERO PUSH2 0x590 JUMPI PUSH1 0x0 DUP1 REVERT JUMPDEST POP PUSH2 0x2DF PUSH2 0xF8D JUMP JUMPDEST CALLVALUE DUP1 ISZERO PUSH2 0x5A5 JUMPI PUSH1 0x0 DUP1 REVERT JUMPDEST POP PUSH1 0x40 DUP1 MLOAD PUSH1 0x20 PUSH1 0x4 DUP1 CALLDATALOAD DUP1 DUP3 ADD CALLDATALOAD PUSH1 0x1F DUP2 ADD DUP5 SWAP1 DIV DUP5 MUL DUP6 ADD DUP5 ADD SWAP1 SWAP6 MSTORE DUP5 DUP5 MSTORE PUSH2 0x354 SWAP5 CALLDATASIZE SWAP5 SWAP3 SWAP4 PUSH1 0x24 SWAP4 SWAP3 DUP5 ADD SWAP2 SWAP1 DUP2 SWAP1 DUP5 ADD DUP4 DUP3 DUP1 DUP3 DUP5 CALLDATACOPY POP SWAP5 SWAP8 POP PUSH2 0xF9C SWAP7 POP POP POP POP POP POP POP JUMP JUMPDEST CALLVALUE DUP1 ISZERO PUSH2 0x5FE JUMPI PUSH1 0x0 DUP1 REVERT JUMPDEST POP PUSH2 0x1DB PUSH2 0xFC6 JUMP JUMPDEST CALLVALUE DUP1 ISZERO PUSH2 0x613 JUMPI PUSH1 0x0 DUP1 REVERT JUMPDEST POP PUSH2 0x28C PUSH2 0x1021 JUMP JUMPDEST CALLVALUE DUP1 ISZERO PUSH2 0x628 JUMPI PUSH1 0x0 DUP1 REVERT JUMPDEST POP PUSH2 0x1DB PUSH2 0x102A JUMP JUMPDEST CALLVALUE DUP1 ISZERO PUSH2 0x63D JUMPI PUSH1 0x0 DUP1 REVERT JUMPDEST POP PUSH2 0x354 PUSH1 0x4 CALLDATALOAD ISZERO ISZERO PUSH2 0x1085 JUMP JUMPDEST CALLVALUE DUP1 ISZERO PUSH2 0x657 JUMPI PUSH1 0x0 DUP1 REVERT JUMPDEST POP PUSH1 0x40 DUP1 MLOAD PUSH1 0x20 PUSH1 0x4 PUSH1 0x24 DUP1 CALLDATALOAD DUP3 DUP2 ADD CALLDATALOAD PUSH1 0x1F DUP2 ADD DUP6 SWAP1 DIV DUP6 MUL DUP7 ADD DUP6 ADD SWAP1 SWAP7 MSTORE DUP6 DUP6 MSTORE PUSH2 0x354 SWAP6 DUP4 CALLDATALOAD PUSH1 0xFF AND SWAP6 CALLDATASIZE SWAP6 PUSH1 0x44 SWAP5 SWAP2 SWAP4 SWAP1 SWAP2 ADD SWAP2 SWAP1 DUP2 SWAP1 DUP5 ADD DUP4 DUP3 DUP1 DUP3 DUP5 CALLDATACOPY POP SWAP5 SWAP8 POP PUSH2 0x10AF SWAP7 POP POP POP POP POP POP POP JUMP JUMPDEST CALLVALUE DUP1 ISZERO PUSH2 0x6B8 JUMPI PUSH1 0x0 DUP1 REVERT JUMPDEST POP PUSH2 0x28C PUSH1 0x1 PUSH1 0xA0 PUSH1 0x2 EXP SUB PUSH1 0x4 CALLDATALOAD AND PUSH1 0x24 CALLDATALOAD PUSH2 0x10EE JUMP JUMPDEST CALLVALUE DUP1 ISZERO PUSH2 0x6DC JUMPI PUSH1 0x0 DUP1 REVERT JUMPDEST POP PUSH1 0x40 DUP1 MLOAD PUSH1 0x20 PUSH1 0x4 DUP1 CALLDATALOAD DUP1 DUP3 ADD CALLDATALOAD PUSH1 0x1F DUP2 ADD DUP5 SWAP1 DIV DUP5 MUL DUP6 ADD DUP5 ADD SWAP1 SWAP6 MSTORE DUP5 DUP5 MSTORE PUSH2 0x354 SWAP5 CALLDATASIZE SWAP5 SWAP3 SWAP4 PUSH1 0x24 SWAP4 SWAP3 DUP5 ADD SWAP2 SWAP1 DUP2 SWAP1 DUP5 ADD DUP4 DUP3 DUP1 DUP3 DUP5 CALLDATACOPY POP SWAP5 SWAP8 POP PUSH2 0x115F SWAP7 POP POP POP POP POP POP POP JUMP JUMPDEST CALLVALUE DUP1 ISZERO PUSH2 0x735 JUMPI PUSH1 0x0 DUP1 REVERT JUMPDEST POP PUSH1 0x40 DUP1 MLOAD PUSH1 0x20 PUSH1 0x4 DUP1 CALLDATALOAD DUP1 DUP3 ADD CALLDATALOAD PUSH1 0x1F DUP2 ADD DUP5 SWAP1 DIV DUP5 MUL DUP6 ADD DUP5 ADD SWAP1 SWAP6 MSTORE DUP5 DUP5 MSTORE PUSH2 0x354 SWAP5 CALLDATASIZE SWAP5 SWAP3 SWAP4 PUSH1 0x24 SWAP4 SWAP3 DUP5 ADD SWAP2 SWAP1 DUP2 SWAP1 DUP5 ADD DUP4 DUP3 DUP1 DUP3 DUP5 CALLDATACOPY POP SWAP5 SWAP8 POP PUSH2 0x1189 SWAP7 POP POP POP POP POP POP POP JUMP JUMPDEST CALLVALUE DUP1 ISZERO PUSH2 0x78E JUMPI PUSH1 0x0 DUP1 REVERT JUMPDEST POP PUSH1 0x40 DUP1 MLOAD PUSH1 0x20 PUSH1 0x4 DUP1 CALLDATALOAD DUP1 DUP3 ADD CALLDATALOAD PUSH1 0x1F DUP2 ADD DUP5 SWAP1 DIV DUP5 MUL DUP6 ADD DUP5 ADD SWAP1 SWAP6 MSTORE DUP5 DUP5 MSTORE PUSH2 0x354 SWAP5 CALLDATASIZE SWAP5 SWAP3 SWAP4 PUSH1 0x24 SWAP4 SWAP3 DUP5 ADD SWAP2 SWAP1 DUP2 SWAP1 DUP5 ADD DUP4 DUP3 DUP1 DUP3 DUP5 CALLDATACOPY POP SWAP5 SWAP8 POP PUSH2 0x11B3 SWAP7 POP POP POP POP POP POP POP JUMP JUMPDEST CALLVALUE DUP1 ISZERO PUSH2 0x7E7 JUMPI PUSH1 0x0 DUP1 REVERT JUMPDEST POP PUSH2 0x354 PUSH1 0x4 CALLDATALOAD PUSH2 0x11DD JUMP JUMPDEST CALLVALUE DUP1 ISZERO PUSH2 0x7FF JUMPI PUSH1 0x0 DUP1 REVERT JUMPDEST POP PUSH2 0x354 PUSH1 0x1 PUSH1 0xA0 PUSH1 0x2 EXP SUB PUSH1 0x4 CALLDATALOAD AND PUSH2 0x1243 JUMP JUMPDEST CALLVALUE DUP1 ISZERO PUSH2 0x820 JUMPI PUSH1 0x0 DUP1 REVERT JUMPDEST POP PUSH2 0x1DB PUSH1 0xFF PUSH1 0x4 CALLDATALOAD AND PUSH2 0x12D7 JUMP JUMPDEST PUSH1 0x2 DUP1 SLOAD PUSH1 0x40 DUP1 MLOAD PUSH1 0x20 PUSH1 0x1 DUP5 AND ISZERO PUSH2 0x100 MUL PUSH1 0x0 NOT ADD SWAP1 SWAP4 AND DUP5 SWAP1 DIV PUSH1 0x1F DUP2 ADD DUP5 SWAP1 DIV DUP5 MUL DUP3 ADD DUP5 ADD SWAP1 SWAP3 MSTORE DUP2 DUP2 MSTORE SWAP3 SWAP2 DUP4 ADD DUP3 DUP3 DUP1 ISZERO PUSH2 0x8B2 JUMPI DUP1 PUSH1 0x1F LT PUSH2 0x887 JUMPI PUSH2 0x100 DUP1 DUP4 SLOAD DIV MUL DUP4 MSTORE SWAP2 PUSH1 0x20 ADD SWAP2 PUSH2 0x8B2 JUMP JUMPDEST DUP3 ADD SWAP2 SWAP1 PUSH1 0x0 MSTORE PUSH1 0x20 PUSH1 0x0 KECCAK256 SWAP1 JUMPDEST DUP2 SLOAD DUP2 MSTORE SWAP1 PUSH1 0x1 ADD SWAP1 PUSH1 0x20 ADD DUP1 DUP4 GT PUSH2 0x895 JUMPI DUP3 SWAP1 SUB PUSH1 0x1F AND DUP3 ADD SWAP2 JUMPDEST POP POP POP POP POP DUP2 JUMP JUMPDEST PUSH1 0x4 SLOAD DUP2 JUMP JUMPDEST PUSH1 0xD SLOAD PUSH2 0x100 SWAP1 DIV PUSH1 0xFF AND DUP2 JUMP JUMPDEST PUSH1 0x0 DUP1 SLOAD PUSH1 0x60 SWAP1 DUP3 SWAP1 PUSH1 0x1 PUSH1 0xA0 PUSH1 0x2 EXP SUB AND CALLER EQ PUSH2 0x8EB JUMPI PUSH1 0x0 DUP1 REVERT JUMPDEST DUP4 PUSH2 0x8F5 DUP8 PUSH2 0xE27 JUMP JUMPDEST LT ISZERO PUSH2 0x900 JUMPI PUSH1 0x0 DUP1 REVERT JUMPDEST PUSH2 0x909 DUP6 PUSH2 0x137C JUMP JUMPDEST ISZERO PUSH2 0xA62 JUMPI PUSH2 0x927 DUP5 PUSH2 0x91B DUP9 PUSH2 0xE27 JUMP JUMPDEST SWAP1 PUSH4 0xFFFFFFFF PUSH2 0x1384 AND JUMP JUMPDEST PUSH1 0x1 PUSH1 0xA0 PUSH1 0x2 EXP SUB DUP8 AND PUSH1 0x0 SWAP1 DUP2 MSTORE PUSH1 0xE PUSH1 0x20 MSTORE PUSH1 0x40 SWAP1 KECCAK256 SSTORE PUSH2 0x959 DUP5 PUSH2 0x94D DUP8 PUSH2 0xE27 JUMP JUMPDEST SWAP1 PUSH4 0xFFFFFFFF PUSH2 0x1396 AND JUMP JUMPDEST PUSH1 0x1 PUSH1 0xA0 PUSH1 0x2 EXP SUB DUP7 AND PUSH1 0x0 DUP2 DUP2 MSTORE PUSH1 0xE PUSH1 0x20 SWAP1 DUP2 MSTORE PUSH1 0x40 DUP1 DUP4 KECCAK256 SWAP5 SWAP1 SWAP5 SSTORE SWAP3 MLOAD PUSH32 0xC0EE0B8A00000000000000000000000000000000000000000000000000000000 DUP2 MSTORE CALLER PUSH1 0x4 DUP3 ADD DUP2 DUP2 MSTORE PUSH1 0x24 DUP4 ADD DUP11 SWAP1 MSTORE PUSH1 0x60 PUSH1 0x44 DUP5 ADD SWAP1 DUP2 MSTORE DUP9 MLOAD PUSH1 0x64 DUP6 ADD MSTORE DUP9 MLOAD DUP13 SWAP9 POP SWAP6 SWAP7 PUSH4 0xC0EE0B8A SWAP7 SWAP4 SWAP6 DUP13 SWAP6 DUP12 SWAP6 PUSH1 0x84 SWAP1 SWAP2 ADD SWAP3 DUP7 ADD SWAP2 DUP2 SWAP1 DUP5 SWAP1 DUP5 SWAP1 JUMPDEST DUP4 DUP2 LT ISZERO PUSH2 0x9F7 JUMPI DUP2 DUP2 ADD MLOAD DUP4 DUP3 ADD MSTORE PUSH1 0x20 ADD PUSH2 0x9DF JUMP JUMPDEST POP POP POP POP SWAP1 POP SWAP1 DUP2 ADD SWAP1 PUSH1 0x1F AND DUP1 ISZERO PUSH2 0xA24 JUMPI DUP1 DUP3 SUB DUP1 MLOAD PUSH1 0x1 DUP4 PUSH1 0x20 SUB PUSH2 0x100 EXP SUB NOT AND DUP2 MSTORE PUSH1 0x20 ADD SWAP2 POP JUMPDEST POP SWAP5 POP POP POP POP POP PUSH1 0x0 PUSH1 0x40 MLOAD DUP1 DUP4 SUB DUP2 PUSH1 0x0 DUP8 DUP1 EXTCODESIZE ISZERO DUP1 ISZERO PUSH2 0xA45 JUMPI PUSH1 0x0 DUP1 REVERT JUMPDEST POP GAS CALL ISZERO DUP1 ISZERO PUSH2 0xA59 JUMPI RETURNDATASIZE PUSH1 0x0 DUP1 RETURNDATACOPY RETURNDATASIZE PUSH1 0x0 REVERT JUMPDEST POP POP POP POP PUSH2 0xAAF JUMP JUMPDEST PUSH2 0xA6F DUP5 PUSH2 0x91B DUP9 PUSH2 0xE27 JUMP JUMPDEST PUSH1 0x1 PUSH1 0xA0 PUSH1 0x2 EXP SUB DUP8 AND PUSH1 0x0 SWAP1 DUP2 MSTORE PUSH1 0xE PUSH1 0x20 MSTORE PUSH1 0x40 SWAP1 KECCAK256 SSTORE PUSH2 0xA95 DUP5 PUSH2 0x94D DUP8 PUSH2 0xE27 JUMP JUMPDEST PUSH1 0x1 PUSH1 0xA0 PUSH1 0x2 EXP SUB DUP7 AND PUSH1 0x0 SWAP1 DUP2 MSTORE PUSH1 0xE PUSH1 0x20 MSTORE PUSH1 0x40 SWAP1 KECCAK256 SSTORE JUMPDEST DUP5 PUSH1 0x1 PUSH1 0xA0 PUSH1 0x2 EXP SUB AND DUP7 PUSH1 0x1 PUSH1 0xA0 PUSH1 0x2 EXP SUB AND PUSH32 0xDDF252AD1BE2C89B69C2B068FC378DAA952BA7F163C4A11628F55A4DF523B3EF DUP7 PUSH1 0x40 MLOAD DUP1 DUP3 DUP2 MSTORE PUSH1 0x20 ADD SWAP2 POP POP PUSH1 0x40 MLOAD DUP1 SWAP2 SUB SWAP1 LOG3 POP PUSH1 0x1 SWAP6 SWAP5 POP POP POP POP POP JUMP JUMPDEST PUSH1 0x5 SLOAD PUSH1 0x1 PUSH1 0xA0 PUSH1 0x2 EXP SUB AND DUP2 JUMP JUMPDEST PUSH1 0x0 SLOAD PUSH1 0x1 PUSH1 0xA0 PUSH1 0x2 EXP SUB AND CALLER EQ PUSH2 0xB2C JUMPI PUSH1 0x0 DUP1 REVERT JUMPDEST DUP1 MLOAD PUSH2 0xB3F SWAP1 PUSH1 0xC SWAP1 PUSH1 0x20 DUP5 ADD SWAP1 PUSH2 0x15CF JUMP JUMPDEST POP POP JUMP JUMPDEST PUSH1 0xE PUSH1 0x20 MSTORE PUSH1 0x0 SWAP1 DUP2 MSTORE PUSH1 0x40 SWAP1 KECCAK256 SLOAD DUP2 JUMP JUMPDEST PUSH1 0x0 DUP2 JUMP JUMPDEST PUSH1 0x6 DUP1 SLOAD PUSH1 0x40 DUP1 MLOAD PUSH1 0x20 PUSH1 0x2 PUSH1 0x1 DUP6 AND ISZERO PUSH2 0x100 MUL PUSH1 0x0 NOT ADD SWAP1 SWAP5 AND SWAP4 SWAP1 SWAP4 DIV PUSH1 0x1F DUP2 ADD DUP5 SWAP1 DIV DUP5 MUL DUP3 ADD DUP5 ADD SWAP1 SWAP3 MSTORE DUP2 DUP2 MSTORE SWAP3 SWAP2 DUP4 ADD DUP3 DUP3 DUP1 ISZERO PUSH2 0x8B2 JUMPI DUP1 PUSH1 0x1F LT PUSH2 0x887 JUMPI PUSH2 0x100 DUP1 DUP4 SLOAD DIV MUL DUP4 MSTORE SWAP2 PUSH1 0x20 ADD SWAP2 PUSH2 0x8B2 JUMP JUMPDEST PUSH1 0x0 SLOAD PUSH1 0x1 PUSH1 0xA0 PUSH1 0x2 EXP SUB AND CALLER EQ PUSH2 0xBCC JUMPI PUSH1 0x0 DUP1 REVERT JUMPDEST DUP1 MLOAD PUSH2 0xB3F SWAP1 PUSH1 0x9 SWAP1 PUSH1 0x20 DUP5 ADD SWAP1 PUSH2 0x15CF JUMP JUMPDEST PUSH1 0x7 DUP1 SLOAD PUSH1 0x40 DUP1 MLOAD PUSH1 0x20 PUSH1 0x2 PUSH1 0x1 DUP6 AND ISZERO PUSH2 0x100 MUL PUSH1 0x0 NOT ADD SWAP1 SWAP5 AND SWAP4 SWAP1 SWAP4 DIV PUSH1 0x1F DUP2 ADD DUP5 SWAP1 DIV DUP5 MUL DUP3 ADD DUP5 ADD SWAP1 SWAP3 MSTORE DUP2 DUP2 MSTORE SWAP3 SWAP2 DUP4 ADD DUP3 DUP3 DUP1 ISZERO PUSH2 0x8B2 JUMPI DUP1 PUSH1 0x1F LT PUSH2 0x887 JUMPI PUSH2 0x100 DUP1 DUP4 SLOAD DIV MUL DUP4 MSTORE SWAP2 PUSH1 0x20 ADD SWAP2 PUSH2 0x8B2 JUMP JUMPDEST PUSH1 0xD SLOAD PUSH3 0x10000 SWAP1 DIV PUSH1 0xFF AND ISZERO ISZERO PUSH1 0x1 EQ PUSH2 0xC54 JUMPI PUSH1 0x0 DUP1 REVERT JUMPDEST CALLER PUSH1 0x0 SWAP1 DUP2 MSTORE PUSH1 0x10 PUSH1 0x20 SWAP1 DUP2 MSTORE PUSH1 0x40 SWAP1 SWAP2 KECCAK256 DUP3 MLOAD PUSH2 0xC74 SWAP3 DUP5 ADD SWAP1 PUSH2 0x15CF JUMP JUMPDEST POP PUSH1 0x40 MLOAD CALLER SWAP1 PUSH32 0xA0A0CB7A71308C6BC8FF419BCC1CC3E9FD3009C7EDF8A8D8C506CA5C46688B49 SWAP1 PUSH1 0x0 SWAP1 LOG2 POP JUMP JUMPDEST PUSH1 0x9 DUP1 SLOAD PUSH1 0x40 DUP1 MLOAD PUSH1 0x20 PUSH1 0x2 PUSH1 0x1 DUP6 AND ISZERO PUSH2 0x100 MUL PUSH1 0x0 NOT ADD SWAP1 SWAP5 AND SWAP4 SWAP1 SWAP4 DIV PUSH1 0x1F DUP2 ADD DUP5 SWAP1 DIV DUP5 MUL DUP3 ADD DUP5 ADD SWAP1 SWAP3 MSTORE DUP2 DUP2 MSTORE SWAP3 SWAP2 DUP4 ADD DUP3 DUP3 DUP1 ISZERO PUSH2 0x8B2 JUMPI DUP1 PUSH1 0x1F LT PUSH2 0x887 JUMPI PUSH2 0x100 DUP1 DUP4 SLOAD DIV MUL DUP4 MSTORE SWAP2 PUSH1 0x20 ADD SWAP2 PUSH2 0x8B2 JUMP JUMPDEST PUSH1 0xC DUP1 SLOAD PUSH1 0x40 DUP1 MLOAD PUSH1 0x20 PUSH1 0x2 PUSH1 0x1 DUP6 AND ISZERO PUSH2 0x100 MUL PUSH1 0x0 NOT ADD SWAP1 SWAP5 AND SWAP4 SWAP1 SWAP4 DIV PUSH1 0x1F DUP2 ADD DUP5 SWAP1 DIV DUP5 MUL DUP3 ADD DUP5 ADD SWAP1 SWAP3 MSTORE DUP2 DUP2 MSTORE SWAP3 SWAP2 DUP4 ADD DUP3 DUP3 DUP1 ISZERO PUSH2 0x8B2 JUMPI DUP1 PUSH1 0x1F LT PUSH2 0x887 JUMPI PUSH2 0x100 DUP1 DUP4 SLOAD DIV MUL DUP4 MSTORE SWAP2 PUSH1 0x20 ADD SWAP2 PUSH2 0x8B2 JUMP JUMPDEST PUSH1 0x0 SLOAD PUSH1 0x1 PUSH1 0xA0 PUSH1 0x2 EXP SUB AND CALLER EQ PUSH2 0xD70 JUMPI PUSH1 0x0 DUP1 REVERT JUMPDEST PUSH1 0xD DUP1 SLOAD PUSH2 0xFF00 NOT AND PUSH2 0x100 DUP4 ISZERO ISZERO DUP2 MUL SWAP2 SWAP1 SWAP2 OR SWAP2 DUP3 SWAP1 SSTORE PUSH1 0x40 MLOAD PUSH1 0xFF SWAP2 SWAP1 SWAP3 DIV AND ISZERO ISZERO SWAP1 PUSH32 0xE1E5C6F5867805BF3FAB73F4DF4B80D0E87E9262A7BC22AC7C2CB3FD5896222F SWAP1 PUSH1 0x0 SWAP1 LOG2 POP JUMP JUMPDEST PUSH1 0xF PUSH1 0x20 SWAP1 DUP2 MSTORE PUSH1 0x0 SWAP2 DUP3 MSTORE PUSH1 0x40 SWAP2 DUP3 SWAP1 KECCAK256 DUP1 SLOAD DUP4 MLOAD PUSH1 0x1F PUSH1 0x2 PUSH1 0x0 NOT PUSH2 0x100 PUSH1 0x1 DUP7 AND ISZERO MUL ADD SWAP1 SWAP4 AND SWAP3 SWAP1 SWAP3 DIV SWAP2 DUP3 ADD DUP5 SWAP1 DIV DUP5 MUL DUP2 ADD DUP5 ADD SWAP1 SWAP5 MSTORE DUP1 DUP5 MSTORE SWAP1 SWAP2 DUP4 ADD DUP3 DUP3 DUP1 ISZERO PUSH2 0x8B2 JUMPI DUP1 PUSH1 0x1F LT PUSH2 0x887 JUMPI PUSH2 0x100 DUP1 DUP4 SLOAD DIV MUL DUP4 MSTORE SWAP2 PUSH1 0x20 ADD SWAP2 PUSH2 0x8B2 JUMP JUMPDEST PUSH1 0x1 PUSH1 0xA0 PUSH1 0x2 EXP SUB AND PUSH1 0x0 SWAP1 DUP2 MSTORE PUSH1 0xE PUSH1 0x20 MSTORE PUSH1 0x40 SWAP1 KECCAK256 SLOAD SWAP1 JUMP JUMPDEST PUSH1 0x0 SLOAD PUSH1 0x1 PUSH1 0xA0 PUSH1 0x2 EXP SUB AND CALLER EQ PUSH2 0xE59 JUMPI PUSH1 0x0 DUP1 REVERT JUMPDEST PUSH1 0x5 DUP1 SLOAD PUSH20 0xFFFFFFFFFFFFFFFFFFFFFFFFFFFFFFFFFFFFFFFF NOT AND PUSH1 0x1 PUSH1 0xA0 PUSH1 0x2 EXP SUB SWAP3 SWAP1 SWAP3 AND SWAP2 SWAP1 SWAP2 OR SWAP1 SSTORE JUMP JUMPDEST PUSH1 0x10 PUSH1 0x20 SWAP1 DUP2 MSTORE PUSH1 0x0 SWAP2 DUP3 MSTORE PUSH1 0x40 SWAP2 DUP3 SWAP1 KECCAK256 DUP1 SLOAD DUP4 MLOAD PUSH1 0x1F PUSH1 0x2 PUSH1 0x0 NOT PUSH2 0x100 PUSH1 0x1 DUP7 AND ISZERO MUL ADD SWAP1 SWAP4 AND SWAP3 SWAP1 SWAP3 DIV SWAP2 DUP3 ADD DUP5 SWAP1 DIV DUP5 MUL DUP2 ADD DUP5 ADD SWAP1 SWAP5 MSTORE DUP1 DUP5 MSTORE SWAP1 SWAP2 DUP4 ADD DUP3 DUP3 DUP1 ISZERO PUSH2 0x8B2 JUMPI DUP1 PUSH1 0x1F LT PUSH2 0x887 JUMPI PUSH2 0x100 DUP1 DUP4 SLOAD DIV MUL DUP4 MSTORE SWAP2 PUSH1 0x20 ADD SWAP2 PUSH2 0x8B2 JUMP JUMPDEST PUSH1 0xD SLOAD PUSH3 0x10000 SWAP1 DIV PUSH1 0xFF AND DUP2 JUMP JUMPDEST PUSH1 0xA DUP1 SLOAD PUSH1 0x40 DUP1 MLOAD PUSH1 0x20 PUSH1 0x2 PUSH1 0x1 DUP6 AND ISZERO PUSH2 0x100 MUL PUSH1 0x0 NOT ADD SWAP1 SWAP5 AND SWAP4 SWAP1 SWAP4 DIV PUSH1 0x1F DUP2 ADD DUP5 SWAP1 DIV DUP5 MUL DUP3 ADD DUP5 ADD SWAP1 SWAP3 MSTORE DUP2 DUP2 MSTORE SWAP3 SWAP2 DUP4 ADD DUP3 DUP3 DUP1 ISZERO PUSH2 0x8B2 JUMPI DUP1 PUSH1 0x1F LT PUSH2 0x887 JUMPI PUSH2 0x100 DUP1 DUP4 SLOAD DIV MUL DUP4 MSTORE SWAP2 PUSH1 0x20 ADD SWAP2 PUSH2 0x8B2 JUMP JUMPDEST PUSH1 0x0 SLOAD PUSH1 0x1 PUSH1 0xA0 PUSH1 0x2 EXP SUB AND CALLER EQ PUSH2 0xF71 JUMPI PUSH1 0x0 DUP1 REVERT JUMPDEST PUSH1 0xD DUP1 SLOAD SWAP2 ISZERO ISZERO PUSH3 0x10000 MUL PUSH3 0xFF0000 NOT SWAP1 SWAP3 AND SWAP2 SWAP1 SWAP2 OR SWAP1 SSTORE JUMP JUMPDEST PUSH1 0x1 SLOAD PUSH1 0x1 PUSH1 0xA0 PUSH1 0x2 EXP SUB AND DUP2 JUMP JUMPDEST PUSH1 0x0 SLOAD PUSH1 0x1 PUSH1 0xA0 PUSH1 0x2 EXP SUB AND CALLER EQ PUSH2 0xFB3 JUMPI PUSH1 0x0 DUP1 REVERT JUMPDEST DUP1 MLOAD PUSH2 0xB3F SWAP1 PUSH1 0x7 SWAP1 PUSH1 0x20 DUP5 ADD SWAP1 PUSH2 0x15CF JUMP JUMPDEST PUSH1 0xB DUP1 SLOAD PUSH1 0x40 DUP1 MLOAD PUSH1 0x20 PUSH1 0x2 PUSH1 0x1 DUP6 AND ISZERO PUSH2 0x100 MUL PUSH1 0x0 NOT ADD SWAP1 SWAP5 AND SWAP4 SWAP1 SWAP4 DIV PUSH1 0x1F DUP2 ADD DUP5 SWAP1 DIV DUP5 MUL DUP3 ADD DUP5 ADD SWAP1 SWAP3 MSTORE DUP2 DUP2 MSTORE SWAP3 SWAP2 DUP4 ADD DUP3 DUP3 DUP1 ISZERO PUSH2 0x8B2 JUMPI DUP1 PUSH1 0x1F LT PUSH2 0x887 JUMPI PUSH2 0x100 DUP1 DUP4 SLOAD DIV MUL DUP4 MSTORE SWAP2 PUSH1 0x20 ADD SWAP2 PUSH2 0x8B2 JUMP JUMPDEST PUSH1 0xD SLOAD PUSH1 0xFF AND DUP2 JUMP JUMPDEST PUSH1 0x3 DUP1 SLOAD PUSH1 0x40 DUP1 MLOAD PUSH1 0x20 PUSH1 0x2 PUSH1 0x1 DUP6 AND ISZERO PUSH2 0x100 MUL PUSH1 0x0 NOT ADD SWAP1 SWAP5 AND SWAP4 SWAP1 SWAP4 DIV PUSH1 0x1F DUP2 ADD DUP5 SWAP1 DIV DUP5 MUL DUP3 ADD DUP5 ADD SWAP1 SWAP3 MSTORE DUP2 DUP2 MSTORE SWAP3 SWAP2 DUP4 ADD DUP3 DUP3 DUP1 ISZERO PUSH2 0x8B2 JUMPI DUP1 PUSH1 0x1F LT PUSH2 0x887 JUMPI PUSH2 0x100 DUP1 DUP4 SLOAD DIV MUL DUP4 MSTORE SWAP2 PUSH1 0x20 ADD SWAP2 PUSH2 0x8B2 JUMP JUMPDEST PUSH1 0x0 SLOAD PUSH1 0x1 PUSH1 0xA0 PUSH1 0x2 EXP SUB AND CALLER EQ PUSH2 0x109C JUMPI PUSH1 0x0 DUP1 REVERT JUMPDEST PUSH1 0xD DUP1 SLOAD PUSH1 0xFF NOT AND SWAP2 ISZERO ISZERO SWAP2 SWAP1 SWAP2 OR SWAP1 SSTORE JUMP JUMPDEST PUSH1 0x0 SLOAD PUSH1 0x1 PUSH1 0xA0 PUSH1 0x2 EXP SUB AND CALLER EQ PUSH2 0x10C6 JUMPI PUSH1 0x0 DUP1 REVERT JUMPDEST PUSH1 0xFF DUP3 AND PUSH1 0x0 SWAP1 DUP2 MSTORE PUSH1 0xF PUSH1 0x20 SWAP1 DUP2 MSTORE PUSH1 0x40 SWAP1 SWAP2 KECCAK256 DUP3 MLOAD PUSH2 0x10E9 SWAP3 DUP5 ADD SWAP1 PUSH2 0x15CF JUMP JUMPDEST POP POP POP JUMP JUMPDEST PUSH1 0x0 PUSH1 0x60 DUP3 PUSH2 0x10FC CALLER PUSH2 0xE27 JUMP JUMPDEST LT ISZERO PUSH2 0x1107 JUMPI PUSH1 0x0 DUP1 REVERT JUMPDEST PUSH1 0x5 SLOAD PUSH1 0x1 PUSH1 0xA0 PUSH1 0x2 EXP SUB AND CALLER EQ PUSH2 0x112D JUMPI PUSH1 0xD SLOAD PUSH1 0xFF AND ISZERO ISZERO PUSH1 0x1 EQ PUSH2 0x112D JUMPI PUSH1 0x0 DUP1 REVERT JUMPDEST PUSH2 0x1136 DUP5 PUSH2 0x137C JUMP JUMPDEST ISZERO PUSH2 0x114D JUMPI PUSH2 0x1146 DUP5 DUP5 DUP4 PUSH2 0x13AC JUMP JUMPDEST SWAP2 POP PUSH2 0x1158 JUMP JUMPDEST PUSH2 0x1146 DUP5 DUP5 DUP4 PUSH2 0x1544 JUMP JUMPDEST POP SWAP3 SWAP2 POP POP JUMP JUMPDEST PUSH1 0x0 SLOAD PUSH1 0x1 PUSH1 0xA0 PUSH1 0x2 EXP SUB AND CALLER EQ PUSH2 0x1176 JUMPI PUSH1 0x0 DUP1 REVERT JUMPDEST DUP1 MLOAD PUSH2 0xB3F SWAP1 PUSH1 0x6 SWAP1 PUSH1 0x20 DUP5 ADD SWAP1 PUSH2 0x15CF JUMP JUMPDEST PUSH1 0x0 SLOAD PUSH1 0x1 PUSH1 0xA0 PUSH1 0x2 EXP SUB AND CALLER EQ PUSH2 0x11A0 JUMPI PUSH1 0x0 DUP1 REVERT JUMPDEST DUP1 MLOAD PUSH2 0xB3F SWAP1 PUSH1 0xA SWAP1 PUSH1 0x20 DUP5 ADD SWAP1 PUSH2 0x15CF JUMP JUMPDEST PUSH1 0x0 SLOAD PUSH1 0x1 PUSH1 0xA0 PUSH1 0x2 EXP SUB AND CALLER EQ PUSH2 0x11CA JUMPI PUSH1 0x0 DUP1 REVERT JUMPDEST DUP1 MLOAD PUSH2 0xB3F SWAP1 PUSH1 0xB SWAP1 PUSH1 0x20 DUP5 ADD SWAP1 PUSH2 0x15CF JUMP JUMPDEST PUSH1 0x0 SLOAD PUSH1 0x1 PUSH1 0xA0 PUSH1 0x2 EXP SUB AND CALLER EQ PUSH2 0x11F4 JUMPI PUSH1 0x0 DUP1 REVERT JUMPDEST PUSH1 0x4 SLOAD PUSH2 0x1207 SWAP1 DUP3 PUSH4 0xFFFFFFFF PUSH2 0x1396 AND JUMP JUMPDEST PUSH1 0x4 SSTORE PUSH1 0x1 SLOAD PUSH2 0x1225 SWAP1 DUP3 SWAP1 PUSH2 0x94D SWAP1 PUSH1 0x1 PUSH1 0xA0 PUSH1 0x2 EXP SUB AND PUSH2 0xE27 JUMP JUMPDEST PUSH1 0x1 SLOAD PUSH1 0x1 PUSH1 0xA0 PUSH1 0x2 EXP SUB AND PUSH1 0x0 SWAP1 DUP2 MSTORE PUSH1 0xE PUSH1 0x20 MSTORE PUSH1 0x40 SWAP1 KECCAK256 SSTORE POP JUMP JUMPDEST PUSH1 0x0 SLOAD PUSH1 0x1 PUSH1 0xA0 PUSH1 0x2 EXP SUB AND CALLER EQ PUSH2 0x125A JUMPI PUSH1 0x0 DUP1 REVERT JUMPDEST PUSH1 0x1 PUSH1 0xA0 PUSH1 0x2 EXP SUB DUP2 AND ISZERO ISZERO PUSH2 0x126F JUMPI PUSH1 0x0 DUP1 REVERT JUMPDEST PUSH1 0x0 DUP1 SLOAD PUSH1 0x40 MLOAD PUSH1 0x1 PUSH1 0xA0 PUSH1 0x2 EXP SUB DUP1 DUP6 AND SWAP4 SWAP3 AND SWAP2 PUSH32 0x8BE0079C531659141344CD1FD0A4F28419497F9722A3DAAFE3B4186F6B6457E0 SWAP2 LOG3 PUSH1 0x0 DUP1 SLOAD PUSH20 0xFFFFFFFFFFFFFFFFFFFFFFFFFFFFFFFFFFFFFFFF NOT AND PUSH1 0x1 PUSH1 0xA0 PUSH1 0x2 EXP SUB SWAP3 SWAP1 SWAP3 AND SWAP2 SWAP1 SWAP2 OR SWAP1 SSTORE JUMP JUMPDEST PUSH1 0xFF DUP2 AND PUSH1 0x0 SWAP1 DUP2 MSTORE PUSH1 0xF PUSH1 0x20 SWAP1 DUP2 MSTORE PUSH1 0x40 SWAP2 DUP3 SWAP1 KECCAK256 DUP1 SLOAD DUP4 MLOAD PUSH1 0x1F PUSH1 0x2 PUSH1 0x0 NOT PUSH2 0x100 PUSH1 0x1 DUP7 AND ISZERO MUL ADD SWAP1 SWAP4 AND SWAP3 SWAP1 SWAP3 DIV SWAP2 DUP3 ADD DUP5 SWAP1 DIV DUP5 MUL DUP2 ADD DUP5 ADD SWAP1 SWAP5 MSTORE DUP1 DUP5 MSTORE PUSH1 0x60 SWAP4 SWAP3 DUP4 ADD DUP3 DUP3 DUP1 ISZERO PUSH2 0x1370 JUMPI DUP1 PUSH1 0x1F LT PUSH2 0x1345 JUMPI PUSH2 0x100 DUP1 DUP4 SLOAD DIV MUL DUP4 MSTORE SWAP2 PUSH1 0x20 ADD SWAP2 PUSH2 0x1370 JUMP JUMPDEST DUP3 ADD SWAP2 SWAP1 PUSH1 0x0 MSTORE PUSH1 0x20 PUSH1 0x0 KECCAK256 SWAP1 JUMPDEST DUP2 SLOAD DUP2 MSTORE SWAP1 PUSH1 0x1 ADD SWAP1 PUSH1 0x20 ADD DUP1 DUP4 GT PUSH2 0x1353 JUMPI DUP3 SWAP1 SUB PUSH1 0x1F AND DUP3 ADD SWAP2 JUMPDEST POP POP POP POP POP SWAP1 POP SWAP2 SWAP1 POP JUMP JUMPDEST PUSH1 0x0 SWAP1 EXTCODESIZE GT SWAP1 JUMP JUMPDEST PUSH1 0x0 DUP3 DUP3 GT ISZERO PUSH2 0x1390 JUMPI INVALID JUMPDEST POP SWAP1 SUB SWAP1 JUMP JUMPDEST PUSH1 0x0 DUP3 DUP3 ADD DUP4 DUP2 LT ISZERO PUSH2 0x13A5 JUMPI INVALID JUMPDEST SWAP4 SWAP3 POP POP POP JUMP JUMPDEST PUSH1 0x5 SLOAD PUSH1 0x0 SWAP1 DUP2 SWAP1 PUSH1 0x1 PUSH1 0xA0 PUSH1 0x2 EXP SUB DUP7 DUP2 AND SWAP2 AND EQ PUSH2 0x13CB JUMPI PUSH1 0x0 DUP1 REVERT JUMPDEST PUSH2 0x13D8 DUP5 PUSH2 0x91B CALLER PUSH2 0xE27 JUMP JUMPDEST CALLER PUSH1 0x0 SWAP1 DUP2 MSTORE PUSH1 0xE PUSH1 0x20 MSTORE PUSH1 0x40 SWAP1 KECCAK256 SSTORE PUSH2 0x13F5 DUP5 PUSH2 0x94D DUP8 PUSH2 0xE27 JUMP JUMPDEST PUSH1 0x1 PUSH1 0xA0 PUSH1 0x2 EXP SUB DUP7 AND PUSH1 0x0 DUP2 DUP2 MSTORE PUSH1 0xE PUSH1 0x20 SWAP1 DUP2 MSTORE PUSH1 0x40 DUP1 DUP4 KECCAK256 SWAP5 SWAP1 SWAP5 SSTORE SWAP3 MLOAD PUSH32 0xC0EE0B8A00000000000000000000000000000000000000000000000000000000 DUP2 MSTORE CALLER PUSH1 0x4 DUP3 ADD DUP2 DUP2 MSTORE PUSH1 0x24 DUP4 ADD DUP11 SWAP1 MSTORE PUSH1 0x60 PUSH1 0x44 DUP5 ADD SWAP1 DUP2 MSTORE DUP10 MLOAD PUSH1 0x64 DUP6 ADD MSTORE DUP10 MLOAD DUP13 SWAP9 POP SWAP6 SWAP7 PUSH4 0xC0EE0B8A SWAP7 SWAP4 SWAP6 DUP13 SWAP6 DUP13 SWAP6 PUSH1 0x84 SWAP1 SWAP2 ADD SWAP3 DUP7 ADD SWAP2 DUP2 SWAP1 DUP5 SWAP1 DUP5 SWAP1 JUMPDEST DUP4 DUP2 LT ISZERO PUSH2 0x1493 JUMPI DUP2 DUP2 ADD MLOAD DUP4 DUP3 ADD MSTORE PUSH1 0x20 ADD PUSH2 0x147B JUMP JUMPDEST POP POP POP POP SWAP1 POP SWAP1 DUP2 ADD SWAP1 PUSH1 0x1F AND DUP1 ISZERO PUSH2 0x14C0 JUMPI DUP1 DUP3 SUB DUP1 MLOAD PUSH1 0x1 DUP4 PUSH1 0x20 SUB PUSH2 0x100 EXP SUB NOT AND DUP2 MSTORE PUSH1 0x20 ADD SWAP2 POP JUMPDEST POP SWAP5 POP POP POP POP POP PUSH1 0x0 PUSH1 0x40 MLOAD DUP1 DUP4 SUB DUP2 PUSH1 0x0 DUP8 DUP1 EXTCODESIZE ISZERO DUP1 ISZERO PUSH2 0x14E1 JUMPI PUSH1 0x0 DUP1 REVERT JUMPDEST POP GAS CALL ISZERO DUP1 ISZERO PUSH2 0x14F5 JUMPI RETURNDATASIZE PUSH1 0x0 DUP1 RETURNDATACOPY RETURNDATASIZE PUSH1 0x0 REVERT JUMPDEST POP POP PUSH1 0x40 DUP1 MLOAD DUP8 DUP2 MSTORE SWAP1 MLOAD PUSH1 0x1 PUSH1 0xA0 PUSH1 0x2 EXP SUB DUP10 AND SWAP4 POP CALLER SWAP3 POP PUSH32 0xDDF252AD1BE2C89B69C2B068FC378DAA952BA7F163C4A11628F55A4DF523B3EF SWAP2 DUP2 SWAP1 SUB PUSH1 0x20 ADD SWAP1 LOG3 POP PUSH1 0x1 SWAP5 SWAP4 POP POP POP POP JUMP JUMPDEST PUSH1 0x0 PUSH2 0x1553 DUP4 PUSH2 0x91B CALLER PUSH2 0xE27 JUMP JUMPDEST CALLER PUSH1 0x0 SWAP1 DUP2 MSTORE PUSH1 0xE PUSH1 0x20 MSTORE PUSH1 0x40 SWAP1 KECCAK256 SSTORE PUSH2 0x1570 DUP4 PUSH2 0x94D DUP7 PUSH2 0xE27 JUMP JUMPDEST PUSH1 0x1 PUSH1 0xA0 PUSH1 0x2 EXP SUB DUP6 AND PUSH1 0x0 DUP2 DUP2 MSTORE PUSH1 0xE PUSH1 0x20 SWAP1 DUP2 MSTORE PUSH1 0x40 SWAP2 DUP3 SWAP1 KECCAK256 SWAP4 SWAP1 SWAP4 SSTORE DUP1 MLOAD DUP7 DUP2 MSTORE SWAP1 MLOAD SWAP2 SWAP3 CALLER SWAP3 PUSH32 0xDDF252AD1BE2C89B69C2B068FC378DAA952BA7F163C4A11628F55A4DF523B3EF SWAP3 DUP2 SWAP1 SUB SWAP1 SWAP2 ADD SWAP1 LOG3 POP PUSH1 0x1 SWAP4 SWAP3 POP POP POP JUMP JUMPDEST DUP3 DUP1 SLOAD PUSH1 0x1 DUP2 PUSH1 0x1 AND ISZERO PUSH2 0x100 MUL SUB AND PUSH1 0x2 SWAP1 DIV SWAP1 PUSH1 0x0 MSTORE PUSH1 0x20 PUSH1 0x0 KECCAK256 SWAP1 PUSH1 0x1F ADD PUSH1 0x20 SWAP1 DIV DUP2 ADD SWAP3 DUP3 PUSH1 0x1F LT PUSH2 0x1610 JUMPI DUP1 MLOAD PUSH1 0xFF NOT AND DUP4 DUP1 ADD OR DUP6 SSTORE PUSH2 0x163D JUMP JUMPDEST DUP3 DUP1 ADD PUSH1 0x1 ADD DUP6 SSTORE DUP3 ISZERO PUSH2 0x163D JUMPI SWAP2 DUP3 ADD JUMPDEST DUP3 DUP2 GT ISZERO PUSH2 0x163D JUMPI DUP3 MLOAD DUP3 SSTORE SWAP2 PUSH1 0x20 ADD SWAP2 SWAP1 PUSH1 0x1 ADD SWAP1 PUSH2 0x1622 JUMP JUMPDEST POP PUSH2 0x1649 SWAP3 SWAP2 POP PUSH2 0x164D JUMP JUMPDEST POP SWAP1 JUMP JUMPDEST PUSH2 0x1667 SWAP2 SWAP1 JUMPDEST DUP1 DUP3 GT ISZERO PUSH2 0x1649 JUMPI PUSH1 0x0 DUP2 SSTORE PUSH1 0x1 ADD PUSH2 0x1653 JUMP JUMPDEST SWAP1 JUMP STOP LOG1 PUSH6 0x627A7A723058 KECCAK256 0xd8 DELEGATECALL 0xe9 PUSH13 0x413813FCC784A99FD3BB6C779E 0xd2 0x4f 0xdc ADDMOD 0x4d 0xc4 0xfc EXTCODESIZE 0xfc 0x2d 0x2f 0xda MOD CALL 0x2e STOP 0x29 ",
  "sha1": "9979772a53a9774011315a7f6ce6d9e064e1709d",
  "source": "pragma solidity ^0.4.24;\n\nimport \"./SafeMath.sol\";\nimport \"./Ownable.sol\";\nimport \"../interfaces/ContractReceiver.sol\";\nimport \"../interfaces/IbetStandardTokenInterface.sol\";\n\n\n/// @title ibet Membership Token\ncontract IbetMembership is Ownable, IbetStandardTokenInterface {\n    using SafeMath for uint256;\n\n    /// 属性情報\n    string public details; // 詳細\n    string public returnDetails; // 特典詳細\n    string public expirationDate; // 有効期限\n    string public memo; // 補足情報\n    bool public transferable; // 譲渡可否\n    bool public status; // 取扱ステータス(True：有効、False：無効)\n    bool public initialOfferingStatus; // 新規募集ステータス（True：募集中、False：停止中）\n\n    /// 残高数量\n    /// account_address => balance\n    mapping(address => uint256) public balances;\n\n    /// 商品画像\n    /// image class => url\n    mapping(uint8 => string) public image_urls;\n\n    /// 募集申込\n    /// account_address => data\n    mapping(address => string) public applications;\n\n    /// イベント：移転\n    event Transfer(address indexed from, address indexed to, uint256 value);\n\n    /// イベント：ステータス変更\n    event ChangeStatus(bool indexed status);\n\n    /// イベント：募集申込\n    event ApplyFor(address indexed accountAddress);\n\n    /// [CONSTRUCTOR]\n    /// @param _name 名称\n    /// @param _symbol 略称\n    /// @param _initialSupply 初期発行数量\n    /// @param _tradableExchange 取引コントラクト\n    /// @param _details 詳細\n    /// @param _returnDetails 特典詳細\n    /// @param _expirationDate 有効期限\n    /// @param _memo 補足情報\n    /// @param _transferable 譲渡可否\n    /// @param _contactInformation 問い合わせ先\n    /// @param _privacyPolicy プライバシーポリシー\n    constructor(\n        string memory _name,\n        string memory _symbol,\n        uint256 _initialSupply,\n        address _tradableExchange,\n        string memory _details,\n        string memory _returnDetails,\n        string memory _expirationDate,\n        string memory _memo,\n        bool _transferable,\n        string _contactInformation,\n        string _privacyPolicy\n    )\n        public\n    {\n        owner = msg.sender;\n        name = _name;\n        symbol = _symbol;\n        totalSupply = _initialSupply;\n        tradableExchange = _tradableExchange;\n        details = _details;\n        returnDetails = _returnDetails;\n        expirationDate = _expirationDate;\n        memo = _memo;\n        balances[owner] = totalSupply;\n        transferable = _transferable;\n        status = true;\n        contactInformation = _contactInformation;\n        privacyPolicy = _privacyPolicy;\n    }\n\n    /// @notice アドレスがコントラクトアドレスであるかを判定\n    /// @param _addr アドレス\n    /// @return is_contract 判定結果\n    function isContract(address _addr)\n        private\n        view\n        returns (bool is_contract)\n    {\n        uint length;\n        assembly {\n            length := extcodesize(_addr)\n        }\n        return (length > 0);\n    }\n\n    /// @notice EOAへの移転\n    /// @param _to 宛先アドレス\n    /// @param _value 移転数量\n    /// @return success 処理結果\n    function transferToAddress(address _to, uint _value, bytes memory /*_data*/)\n        private\n        returns (bool success)\n    {\n        balances[msg.sender] = balanceOf(msg.sender).sub(_value);\n        balances[_to] = balanceOf(_to).add(_value);\n\n        // イベント登録\n        emit Transfer(msg.sender, _to, _value);\n\n        return true;\n    }\n\n    /// @notice コントラクトアドレスへの移転\n    /// @param _to 宛先アドレス\n    /// @param _value 移転数量\n    /// @param _data 任意のデータ\n    /// @return success 処理結果\n    function transferToContract(address _to, uint _value, bytes memory _data)\n        private\n        returns (bool success)\n    {\n        require(_to == tradableExchange);\n        balances[msg.sender] = balanceOf(msg.sender).sub(_value);\n        balances[_to] = balanceOf(_to).add(_value);\n\n        ContractReceiver receiver = ContractReceiver(_to);\n        receiver.tokenFallback(msg.sender, _value, _data);\n\n        // イベント登録\n        emit Transfer(msg.sender, _to, _value);\n\n        return true;\n    }\n\n    /// @notice トークンの移転\n    /// @param _to 宛先アドレス\n    /// @param _value 移転数量\n    /// @return 処理結果\n    function transfer(address _to, uint _value)\n        public\n        returns (bool)\n    {\n        //  数量が残高を超えている場合、エラーを返す\n        if (balanceOf(msg.sender) < _value) revert();\n        if (msg.sender != tradableExchange) {\n            // 譲渡可能ではない場合、エラーを返す\n            require(transferable == true);\n        }\n\n        bytes memory empty;\n        if (isContract(_to)) {\n            return transferToContract(_to, _value, empty);\n        } else {\n            return transferToAddress(_to, _value, empty);\n        }\n    }\n\n    /// @notice 強制移転\n    /// @dev オーナーのみ実行可能\n    /// @param _from 移転元アドレス\n    /// @param _to 移転先アドレス\n    /// @param _value 移転数量\n    /// @return 処理結果\n    function transferFrom(address _from, address _to, uint _value)\n        public\n        onlyOwner()\n        returns (bool)\n    {\n        //  数量が送信元アドレス（from）の残高を超えている場合、エラーを返す\n        if (balanceOf(_from) < _value) revert();\n\n        bytes memory empty;\n        if (isContract(_to)) {// 送信先アドレスがコントラクトアドレスの場合\n            balances[_from] = balanceOf(_from).sub(_value);\n            balances[_to] = balanceOf(_to).add(_value);\n            ContractReceiver receiver = ContractReceiver(_to);\n            receiver.tokenFallback(msg.sender, _value, empty);\n        } else {// 送信先アドレスがアカウントアドレスの場合\n            balances[_from] = balanceOf(_from).sub(_value);\n            balances[_to] = balanceOf(_to).add(_value);\n        }\n\n        // イベント登録\n        emit Transfer(_from, _to, _value);\n\n        return true;\n    }\n\n    /// @notice 残高の参照\n    /// @param _owner 保有者のアドレス\n    /// @return 残高数量\n    function balanceOf(address _owner)\n        public\n        view\n        returns (uint256)\n    {\n        return balances[_owner];\n    }\n\n    /// @notice 取引コントラクトの更新\n    /// @dev オーナーのみ実行可能\n    /// @param _exchange 更新後取引コントラクト\n    function setTradableExchange(address _exchange)\n        public\n        onlyOwner()\n    {\n        tradableExchange = _exchange;\n    }\n\n    /// @notice 問い合わせ先情報の更新\n    /// @dev オーナーのみ実行可能\n    /// @param _contactInformation 問い合わせ先情報\n    function setContactInformation(string _contactInformation)\n        public\n        onlyOwner()\n    {\n        contactInformation = _contactInformation;\n    }\n\n    /// @notice プライバシーポリシーの更新\n    /// @dev オーナーのみ実行可能\n    /// @param _privacyPolicy プライバシーポリシー\n    function setPrivacyPolicy(string _privacyPolicy)\n        public\n        onlyOwner()\n    {\n        privacyPolicy = _privacyPolicy;\n    }\n\n    /// @notice 詳細の更新\n    /// @dev オーナーのみ実行可能\n    /// @param _details クーポン詳細情報\n    function setDetails(string memory _details)\n        public\n        onlyOwner()\n    {\n        details = _details;\n    }\n\n    /// @notice 特典詳細の更新\n    /// @dev オーナーのみ実行可能\n    /// @param _returnDetails 特典詳細\n    function setReturnDetails(string memory _returnDetails)\n        public\n        onlyOwner()\n    {\n        returnDetails = _returnDetails;\n    }\n\n    /// @notice 有効期限の更新\n    /// @dev オーナーのみ実行可能\n    /// @param _expirationDate 有効期限\n    function setExpirationDate(string memory _expirationDate)\n        public\n        onlyOwner()\n    {\n        expirationDate = _expirationDate;\n    }\n\n    /// @notice 補足情報の更新\n    /// @dev オーナーのみ実行可能\n    /// @param _memo 補足情報\n    function setMemo(string memory _memo)\n        public\n        onlyOwner()\n    {\n        memo = _memo;\n    }\n\n    /// @notice 譲渡可否の更新\n    /// @dev オーナーのみ実行可能\n    /// @param _transferable 譲渡可否\n    function setTransferable(bool _transferable)\n        public\n        onlyOwner()\n    {\n        transferable = _transferable;\n    }\n\n    /// @notice 取扱ステータスの更新\n    /// @dev オーナーのみ実行可能\n    /// @param _status 更新後の取扱ステータス\n    function setStatus(bool _status)\n        public\n        onlyOwner()\n    {\n        status = _status;\n        emit ChangeStatus(status);\n    }\n\n    /// @notice 商品画像の更新\n    /// @dev オーナーのみ実行可能\n    /// @param _class 画像番号\n    /// @param _image_url 画像URL\n    function setImageURL(uint8 _class, string memory _image_url)\n        public\n        onlyOwner()\n    {\n        image_urls[_class] = _image_url;\n    }\n\n    /// @notice 商品画像の参照\n    /// @param _class 画像番号\n    /// @return 画像URL\n    function getImageURL(uint8 _class)\n        public\n        view\n        returns (string memory)\n    {\n        return image_urls[_class];\n    }\n\n    /// @notice 追加発行\n    /// @dev オーナーのみ実行可能\n    /// @param _value 追加発行数量\n    function issue(uint _value)\n        public\n        onlyOwner()\n    {\n        totalSupply = totalSupply.add(_value);\n        balances[owner] = balanceOf(owner).add(_value);\n    }\n\n    /// @notice 新規募集ステータスの更新\n    /// @dev オーナーのみ実行可能\n    /// @param _status 募集ステータス\n    function setInitialOfferingStatus(bool _status)\n        public\n        onlyOwner()\n    {\n        initialOfferingStatus = _status;\n    }\n\n    /// @notice 募集申込\n    /// @param _data 申込付与情報\n    function applyForOffering(string memory _data)\n        public\n    {\n        // 申込ステータスが停止中の場合、エラーを返す\n        require(initialOfferingStatus == true);\n        applications[msg.sender] = _data;\n        emit ApplyFor(msg.sender);\n    }\n\n}\n",
  "sourcePath": "contracts/IbetMembership.sol",
  "type": "contract"
}