{
  "abi": [
    {
      "constant": true,
      "inputs": [],
      "name": "personalInfoAddress",
      "outputs": [
        {
          "name": "",
          "type": "address"
        }
      ],
      "payable": false,
      "stateMutability": "view",
      "type": "function"
    },
    {
      "constant": false,
      "inputs": [
        {
          "name": "_orderId",
          "type": "uint256"
        },
        {
          "name": "_agreementId",
          "type": "uint256"
        }
      ],
      "name": "cancelAgreement",
      "outputs": [
        {
          "name": "",
          "type": "bool"
        }
      ],
      "payable": false,
      "stateMutability": "nonpayable",
      "type": "function"
    },
    {
      "constant": false,
      "inputs": [
        {
          "name": "_token",
          "type": "address"
        },
        {
          "name": "_amount",
          "type": "uint256"
        },
        {
          "name": "_price",
          "type": "uint256"
        },
        {
          "name": "_isBuy",
          "type": "bool"
        },
        {
          "name": "_agent",
          "type": "address"
        }
      ],
      "name": "createOrder",
      "outputs": [
        {
          "name": "",
          "type": "bool"
        }
      ],
      "payable": false,
      "stateMutability": "nonpayable",
      "type": "function"
    },
    {
      "constant": false,
      "inputs": [
        {
          "name": "_orderId",
          "type": "uint256"
        }
      ],
      "name": "cancelOrder",
      "outputs": [
        {
          "name": "",
          "type": "bool"
        }
      ],
      "payable": false,
      "stateMutability": "nonpayable",
      "type": "function"
    },
    {
      "constant": true,
      "inputs": [],
      "name": "paymentGatewayAddress",
      "outputs": [
        {
          "name": "",
          "type": "address"
        }
      ],
      "payable": false,
      "stateMutability": "view",
      "type": "function"
    },
    {
      "constant": true,
      "inputs": [],
      "name": "latestOrderId",
      "outputs": [
        {
          "name": "",
          "type": "uint256"
        }
      ],
      "payable": false,
      "stateMutability": "view",
      "type": "function"
    },
    {
      "constant": false,
      "inputs": [
        {
          "name": "_orderId",
          "type": "uint256"
        },
        {
          "name": "_amount",
          "type": "uint256"
        },
        {
          "name": "_isBuy",
          "type": "bool"
        }
      ],
      "name": "executeOrder",
      "outputs": [
        {
          "name": "",
          "type": "bool"
        }
      ],
      "payable": false,
      "stateMutability": "nonpayable",
      "type": "function"
    },
    {
      "constant": true,
      "inputs": [],
      "name": "storageAddress",
      "outputs": [
        {
          "name": "",
          "type": "address"
        }
      ],
      "payable": false,
      "stateMutability": "view",
      "type": "function"
    },
    {
      "constant": true,
      "inputs": [],
      "name": "owner",
      "outputs": [
        {
          "name": "",
          "type": "address"
        }
      ],
      "payable": false,
      "stateMutability": "view",
      "type": "function"
    },
    {
      "constant": true,
      "inputs": [
        {
          "name": "_account",
          "type": "address"
        },
        {
          "name": "_token",
          "type": "address"
        }
      ],
      "name": "commitmentOf",
      "outputs": [
        {
          "name": "",
          "type": "uint256"
        }
      ],
      "payable": false,
      "stateMutability": "view",
      "type": "function"
    },
    {
      "constant": true,
      "inputs": [
        {
          "name": "_orderId",
          "type": "uint256"
        },
        {
          "name": "_agreementId",
          "type": "uint256"
        }
      ],
      "name": "getAgreement",
      "outputs": [
        {
          "name": "_counterpart",
          "type": "address"
        },
        {
          "name": "_amount",
          "type": "uint256"
        },
        {
          "name": "_price",
          "type": "uint256"
        },
        {
          "name": "_canceled",
          "type": "bool"
        },
        {
          "name": "_paid",
          "type": "bool"
        },
        {
          "name": "_expiry",
          "type": "uint256"
        }
      ],
      "payable": false,
      "stateMutability": "view",
      "type": "function"
    },
    {
      "constant": false,
      "inputs": [
        {
          "name": "_from",
          "type": "address"
        },
        {
          "name": "_value",
          "type": "uint256"
        },
        {
          "name": "",
          "type": "bytes"
        }
      ],
      "name": "tokenFallback",
      "outputs": [],
      "payable": false,
      "stateMutability": "nonpayable",
      "type": "function"
    },
    {
      "constant": true,
      "inputs": [
        {
          "name": "_orderId",
          "type": "uint256"
        }
      ],
      "name": "getOrder",
      "outputs": [
        {
          "name": "owner",
          "type": "address"
        },
        {
          "name": "token",
          "type": "address"
        },
        {
          "name": "amount",
          "type": "uint256"
        },
        {
          "name": "price",
          "type": "uint256"
        },
        {
          "name": "isBuy",
          "type": "bool"
        },
        {
          "name": "agent",
          "type": "address"
        },
        {
          "name": "canceled",
          "type": "bool"
        }
      ],
      "payable": false,
      "stateMutability": "view",
      "type": "function"
    },
    {
      "constant": false,
      "inputs": [
        {
          "name": "_orderId",
          "type": "uint256"
        },
        {
          "name": "_agreementId",
          "type": "uint256"
        }
      ],
      "name": "confirmAgreement",
      "outputs": [
        {
          "name": "",
          "type": "bool"
        }
      ],
      "payable": false,
      "stateMutability": "nonpayable",
      "type": "function"
    },
    {
      "constant": true,
      "inputs": [],
      "name": "regulatorServiceAddress",
      "outputs": [
        {
          "name": "",
          "type": "address"
        }
      ],
      "payable": false,
      "stateMutability": "view",
      "type": "function"
    },
    {
      "constant": true,
      "inputs": [
        {
          "name": "_orderId",
          "type": "uint256"
        }
      ],
      "name": "latestAgreementId",
      "outputs": [
        {
          "name": "",
          "type": "uint256"
        }
      ],
      "payable": false,
      "stateMutability": "view",
      "type": "function"
    },
    {
      "constant": false,
      "inputs": [
        {
          "name": "newOwner",
          "type": "address"
        }
      ],
      "name": "transferOwnership",
      "outputs": [],
      "payable": false,
      "stateMutability": "nonpayable",
      "type": "function"
    },
    {
      "constant": true,
      "inputs": [
        {
          "name": "_token",
          "type": "address"
        }
      ],
      "name": "lastPrice",
      "outputs": [
        {
          "name": "",
          "type": "uint256"
        }
      ],
      "payable": false,
      "stateMutability": "view",
      "type": "function"
    },
    {
      "constant": true,
      "inputs": [
        {
          "name": "_account",
          "type": "address"
        },
        {
          "name": "_token",
          "type": "address"
        }
      ],
      "name": "balanceOf",
      "outputs": [
        {
          "name": "",
          "type": "uint256"
        }
      ],
      "payable": false,
      "stateMutability": "view",
      "type": "function"
    },
    {
      "constant": false,
      "inputs": [
        {
          "name": "_token",
          "type": "address"
        }
      ],
      "name": "withdrawAll",
      "outputs": [
        {
          "name": "",
          "type": "bool"
        }
      ],
      "payable": false,
      "stateMutability": "nonpayable",
      "type": "function"
    },
    {
      "inputs": [
        {
          "name": "_paymentGatewayAddress",
          "type": "address"
        },
        {
          "name": "_personalInfoAddress",
          "type": "address"
        },
        {
          "name": "_storageAddress",
          "type": "address"
        },
        {
          "name": "_regulatorServiceAddress",
          "type": "address"
        }
      ],
      "payable": false,
      "stateMutability": "nonpayable",
      "type": "constructor"
    },
    {
      "anonymous": false,
      "inputs": [
        {
          "indexed": true,
          "name": "tokenAddress",
          "type": "address"
        },
        {
          "indexed": false,
          "name": "orderId",
          "type": "uint256"
        },
        {
          "indexed": true,
          "name": "accountAddress",
          "type": "address"
        },
        {
          "indexed": true,
          "name": "isBuy",
          "type": "bool"
        },
        {
          "indexed": false,
          "name": "price",
          "type": "uint256"
        },
        {
          "indexed": false,
          "name": "amount",
          "type": "uint256"
        },
        {
          "indexed": false,
          "name": "agentAddress",
          "type": "address"
        }
      ],
      "name": "NewOrder",
      "type": "event"
    },
    {
      "anonymous": false,
      "inputs": [
        {
          "indexed": true,
          "name": "tokenAddress",
          "type": "address"
        },
        {
          "indexed": false,
          "name": "orderId",
          "type": "uint256"
        },
        {
          "indexed": true,
          "name": "accountAddress",
          "type": "address"
        },
        {
          "indexed": true,
          "name": "isBuy",
          "type": "bool"
        },
        {
          "indexed": false,
          "name": "price",
          "type": "uint256"
        },
        {
          "indexed": false,
          "name": "amount",
          "type": "uint256"
        },
        {
          "indexed": false,
          "name": "agentAddress",
          "type": "address"
        }
      ],
      "name": "CancelOrder",
      "type": "event"
    },
    {
      "anonymous": false,
      "inputs": [
        {
          "indexed": true,
          "name": "tokenAddress",
          "type": "address"
        },
        {
          "indexed": false,
          "name": "orderId",
          "type": "uint256"
        },
        {
          "indexed": false,
          "name": "agreementId",
          "type": "uint256"
        },
        {
          "indexed": true,
          "name": "buyAddress",
          "type": "address"
        },
        {
          "indexed": true,
          "name": "sellAddress",
          "type": "address"
        },
        {
          "indexed": false,
          "name": "price",
          "type": "uint256"
        },
        {
          "indexed": false,
          "name": "amount",
          "type": "uint256"
        },
        {
          "indexed": false,
          "name": "agentAddress",
          "type": "address"
        }
      ],
      "name": "Agree",
      "type": "event"
    },
    {
      "anonymous": false,
      "inputs": [
        {
          "indexed": true,
          "name": "tokenAddress",
          "type": "address"
        },
        {
          "indexed": false,
          "name": "orderId",
          "type": "uint256"
        },
        {
          "indexed": false,
          "name": "agreementId",
          "type": "uint256"
        },
        {
          "indexed": true,
          "name": "buyAddress",
          "type": "address"
        },
        {
          "indexed": true,
          "name": "sellAddress",
          "type": "address"
        },
        {
          "indexed": false,
          "name": "price",
          "type": "uint256"
        },
        {
          "indexed": false,
          "name": "amount",
          "type": "uint256"
        },
        {
          "indexed": false,
          "name": "agentAddress",
          "type": "address"
        }
      ],
      "name": "SettlementOK",
      "type": "event"
    },
    {
      "anonymous": false,
      "inputs": [
        {
          "indexed": true,
          "name": "tokenAddress",
          "type": "address"
        },
        {
          "indexed": false,
          "name": "orderId",
          "type": "uint256"
        },
        {
          "indexed": false,
          "name": "agreementId",
          "type": "uint256"
        },
        {
          "indexed": true,
          "name": "buyAddress",
          "type": "address"
        },
        {
          "indexed": true,
          "name": "sellAddress",
          "type": "address"
        },
        {
          "indexed": false,
          "name": "price",
          "type": "uint256"
        },
        {
          "indexed": false,
          "name": "amount",
          "type": "uint256"
        },
        {
          "indexed": false,
          "name": "agentAddress",
          "type": "address"
        }
      ],
      "name": "SettlementNG",
      "type": "event"
    },
    {
      "anonymous": false,
      "inputs": [
        {
          "indexed": true,
          "name": "tokenAddress",
          "type": "address"
        },
        {
          "indexed": true,
          "name": "accountAddress",
          "type": "address"
        }
      ],
      "name": "Withdrawal",
      "type": "event"
    },
    {
      "anonymous": false,
      "inputs": [
        {
          "indexed": true,
          "name": "previousOwner",
          "type": "address"
        },
        {
          "indexed": true,
          "name": "newOwner",
          "type": "address"
        }
      ],
      "name": "OwnershipTransferred",
      "type": "event"
    }
  ],
  "bytecode": "60806040526212750060015534801561001757600080fd5b50604051608080612be683398101604090815281516020830151918301516060909301516000805433600160a060020a0319918216178255600380548216600160a060020a039586161790556002805482169585169590951790945560048054851695841695909517909455600580549093169116179055612b4790819061009f90396000f3006080604052600436106100f85763ffffffff60e060020a6000350416630af7eb0f81146100fd578063307f636b1461012e57806338a6e8551461015d578063514fcac7146101925780635edada77146101aa5780636f3b60d6146101bf5780637e6d36e2146101e657806385aa92a7146102065780638da5cb5b1461021b578063a2ee704314610230578063bf18e24e14610257578063c0ee0b8a146102b1578063d09ef2411461031c578063d1a397e514610380578063d68eb73d1461039b578063dc01f10b146103b0578063f2fde38b146103c8578063f5a6ba2e146103e9578063f7888aec1461040a578063fa09e63014610431575b600080fd5b34801561010957600080fd5b50610112610452565b60408051600160a060020a039092168252519081900360200190f35b34801561013a57600080fd5b50610149600435602435610461565b604080519115158252519081900360200190f35b34801561016957600080fd5b50610149600160a060020a03600435811690602435906044359060643515159060843516610875565b34801561019e57600080fd5b5061014960043561101b565b3480156101b657600080fd5b50610112611221565b3480156101cb57600080fd5b506101d4611230565b60408051918252519081900360200190f35b3480156101f257600080fd5b5061014960043560243560443515156112b6565b34801561021257600080fd5b50610112611c87565b34801561022757600080fd5b50610112611c96565b34801561023c57600080fd5b506101d4600160a060020a0360043581169060243516611ca5565b34801561026357600080fd5b50610272600435602435611d4d565b60408051600160a060020a03909716875260208701959095528585019390935290151560608501521515608084015260a0830152519081900360c00190f35b3480156102bd57600080fd5b50604080516020600460443581810135601f810184900484028501840190955284845261031a948235600160a060020a0316946024803595369594606494920191908190840183828082843750949750611e189650505050505050565b005b34801561032857600080fd5b50610334600435611e31565b60408051600160a060020a0398891681529688166020880152868101959095526060860193909352901515608085015290931660a083015291151560c082015290519081900360e00190f35b34801561038c57600080fd5b50610149600435602435611efc565b3480156103a757600080fd5b5061011261229a565b3480156103bc57600080fd5b506101d46004356122a9565b3480156103d457600080fd5b5061031a600160a060020a0360043516612342565b3480156103f557600080fd5b506101d4600160a060020a03600435166123d6565b34801561041657600080fd5b506101d4600160a060020a0360043581169060243516612443565b34801561043d57600080fd5b50610149600160a060020a03600435166124b8565b600254600160a060020a031681565b600061046b612a6a565b610473612aa6565b61047b611230565b85111561048757600080fd5b610490856122a9565b84111561049c57600080fd5b6104a585611e31565b151560c0890152600160a060020a0390811660a089015290151560808801526060870191909152604086019190915290811660208501521682526104e98585611d4d565b60a087018190529015156080870152901515606086015260408501919091526020840191909152600160a060020a039091168252421061058f57806080015180610534575080606001515b8061058057508160a00151600160a060020a031633600160a060020a03161415801561056a57508151600160a060020a03163314155b801561058057508051600160a060020a03163314155b1561058a57600080fd5b6105cb565b8060800151806105a0575080606001515b806105c157508160a00151600160a060020a031633600160a060020a031614155b156105cb57600080fd5b6105f08585836000015184602001518560400151600187608001518860a001516125a2565b5081608001511561073d5780516020808401519083015161062c9291906106279061061b8484611ca5565b9063ffffffff61266716565b612679565b5060208083015182518383015160408051600080516020612adc8339815191528152600160a060020a039384166004820152602481019290925251919092169263a9059cbb92604480820193918290030181600087803b15801561068f57600080fd5b505af11580156106a3573d6000803e3d6000fd5b505050506040513d60208110156106b957600080fd5b5050805182516020808501516060808701518387015160a0808a0151604080518f81529788018e90528781019490945293860191909152600160a060020a0392831660808601529051958216959482169491909216927fc7065461c527949bffa69924a2264fb3a12540677585393b0f3c3d96dde0675192908290030190a461086a565b81516020808401519083015161075d9291906106279061061b8484611ca5565b5060208083015183518383015160408051600080516020612adc8339815191528152600160a060020a039384166004820152602481019290925251919092169263a9059cbb92604480820193918290030181600087803b1580156107c057600080fd5b505af11580156107d4573d6000803e3d6000fd5b505050506040513d60208110156107ea57600080fd5b5050815181516020808501516060808701518387015160a0808a0151604080518f81529788018e90528781019490945293860191909152600160a060020a0392831660808601529051958216959482169491909216927fc7065461c527949bffa69924a2264fb3a12540677585393b0f3c3d96dde0675192908290030190a45b506001949350505050565b600554604080517fc23697a800000000000000000000000000000000000000000000000000000000815233600482015290516000928392600160a060020a039091169163c23697a89160248082019260209290919082900301818787803b1580156108df57600080fd5b505af11580156108f3573d6000803e3d6000fd5b505050506040513d602081101561090957600080fd5b505160ff161561091857600080fd5b60018415151415610bde578515806109b5575060035460408051600080516020612afc8339815191528152336004820152600160a060020a03868116602483015291519190921691632a3de59f9160448083019260209291908290030181600087803b15801561098757600080fd5b505af115801561099b573d6000803e3d6000fd5b505050506040513d60208110156109b157600080fd5b5051155b80610ac65750600260009054906101000a9004600160a060020a0316600160a060020a031663d3da927f3389600160a060020a0316638da5cb5b6040518163ffffffff1660e060020a028152600401602060405180830381600087803b158015610a1e57600080fd5b505af1158015610a32573d6000803e3d6000fd5b505050506040513d6020811015610a4857600080fd5b50516040805160e060020a63ffffffff8616028152600160a060020a0393841660048201529290911660248301525160448083019260209291908290030181600087803b158015610a9857600080fd5b505af1158015610aac573d6000803e3d6000fd5b505050506040513d6020811015610ac257600080fd5b5051155b80610adb5750610ad533612716565b15156001145b80610b51575086600160a060020a031663034f6b216040518163ffffffff1660e060020a028152600401602060405180830381600087803b158015610b1f57600080fd5b505af1158015610b33573d6000803e3d6000fd5b505050506040513d6020811015610b4957600080fd5b505115156001145b80610bc3575086600160a060020a031663200d2ed26040518163ffffffff1660e060020a028152600401602060405180830381600087803b158015610b9557600080fd5b505af1158015610ba9573d6000803e3d6000fd5b505050506040513d6020811015610bbf57600080fd5b5051155b80610bd45750610bd28361271e565b155b15610bde57600080fd5b831515610f4857851580610bfa575085610bf83389612443565b105b80610c8a575060035460408051600080516020612afc8339815191528152336004820152600160a060020a03868116602483015291519190921691632a3de59f9160448083019260209291908290030181600087803b158015610c5c57600080fd5b505af1158015610c70573d6000803e3d6000fd5b505050506040513d6020811015610c8657600080fd5b5051155b80610d9b5750600260009054906101000a9004600160a060020a0316600160a060020a031663d3da927f3389600160a060020a0316638da5cb5b6040518163ffffffff1660e060020a028152600401602060405180830381600087803b158015610cf357600080fd5b505af1158015610d07573d6000803e3d6000fd5b505050506040513d6020811015610d1d57600080fd5b50516040805160e060020a63ffffffff8616028152600160a060020a0393841660048201529290911660248301525160448083019260209291908290030181600087803b158015610d6d57600080fd5b505af1158015610d81573d6000803e3d6000fd5b505050506040513d6020811015610d9757600080fd5b5051155b80610e11575086600160a060020a031663034f6b216040518163ffffffff1660e060020a028152600401602060405180830381600087803b158015610ddf57600080fd5b505af1158015610df3573d6000803e3d6000fd5b505050506040513d6020811015610e0957600080fd5b505115156001145b80610e83575086600160a060020a031663200d2ed26040518163ffffffff1660e060020a028152600401602060405180830381600087803b158015610e5557600080fd5b505af1158015610e69573d6000803e3d6000fd5b505050506040513d6020811015610e7f57600080fd5b5051155b80610e945750610e928361271e565b155b15610f485786600160a060020a031663a9059cbb33610eb3338b612443565b6040518363ffffffff1660e060020a0281526004018083600160a060020a0316600160a060020a0316815260200182815260200192505050602060405180830381600087803b158015610f0557600080fd5b505af1158015610f19573d6000803e3d6000fd5b505050506040513d6020811015610f2f57600080fd5b50610f3e905033886000612789565b5060009150611011565b610f50611230565b6001019050610f5e81612839565b50610f708133898989898960006128b3565b50831515610fb257610f903388610f8b8961061b338d612443565b612789565b50610fb0338861062789610fa4338d611ca5565b9063ffffffff61295316565b505b6040805182815260208101879052808201889052600160a060020a0385811660608301529151861515923392908b16917f62266baceb3938a36f642a6b6857911fda416ba3f0b192a5a5a8e27d51ad15f99181900360800190a4600191505b5095945050505050565b6000611025612a6a565b61102d611230565b83111561103957600080fd5b61104283611e31565b151560c0880152600160a060020a0390811660a08801529015156080870152606086019190915260408501829052918216602085015291168252158061108e575060c081015115156001145b806110a357508051600160a060020a03163314155b156110ad57600080fd5b80608001511515611162576110d7338260200151610627846040015161061b338760200151611ca5565b506020808201516040808401518151600080516020612adc833981519152815233600482015260248101919091529051600160a060020a039092169263a9059cbb926044808401938290030181600087803b15801561113557600080fd5b505af1158015611149573d6000803e3d6000fd5b505050506040513d602081101561115f57600080fd5b50505b61118b83826000015183602001518460400151856060015186608001518760a0015160016128b3565b508060800151151533600160a060020a03168260200151600160a060020a03167facd757911d369d6b15d47ada91171b7b67295b3f90b8499f6d52348f009c944586856060015186604001518760a001516040518085815260200184815260200183815260200182600160a060020a0316600160a060020a0316815260200194505050505060405180910390a450600192915050565b600354600160a060020a031681565b6000600460009054906101000a9004600160a060020a0316600160a060020a0316633d7fe9736040518163ffffffff1660e060020a028152600401602060405180830381600087803b15801561128557600080fd5b505af1158015611299573d6000803e3d6000fd5b505050506040513d60208110156112af57600080fd5b5051905090565b60006112c0612a6a565b600554604080517fc23697a800000000000000000000000000000000000000000000000000000000815233600482015290516000928392600160a060020a039091169163c23697a89160248082019260209290919082900301818787803b15801561132a57600080fd5b505af115801561133e573d6000803e3d6000fd5b505050506040513d602081101561135457600080fd5b505160ff161561136357600080fd5b61136b611230565b87111561137757600080fd5b61138087611e31565b151560c08a0152600160a060020a0390811660a08a015290151560808901526060880191909152604087019190915290811660208601521680845215156113c657600080fd5b600185151514156116d1578515806113e5575084151583608001511515145b806113f957508251600160a060020a031633145b8061140a575060c083015115156001145b8061149f575060035460a084015160408051600080516020612afc8339815191528152336004820152600160a060020a03928316602482015290519190921691632a3de59f9160448083019260209291908290030181600087803b15801561147157600080fd5b505af1158015611485573d6000803e3d6000fd5b505050506040513d602081101561149b57600080fd5b5051155b806115b45750600260009054906101000a9004600160a060020a0316600160a060020a031663d3da927f338560200151600160a060020a0316638da5cb5b6040518163ffffffff1660e060020a028152600401602060405180830381600087803b15801561150c57600080fd5b505af1158015611520573d6000803e3d6000fd5b505050506040513d602081101561153657600080fd5b50516040805160e060020a63ffffffff8616028152600160a060020a0393841660048201529290911660248301525160448083019260209291908290030181600087803b15801561158657600080fd5b505af115801561159a573d6000803e3d6000fd5b505050506040513d60208110156115b057600080fd5b5051155b806115c957506115c333612716565b15156001145b8061164357508260200151600160a060020a031663034f6b216040518163ffffffff1660e060020a028152600401602060405180830381600087803b15801561161157600080fd5b505af1158015611625573d6000803e3d6000fd5b505050506040513d602081101561163b57600080fd5b505115156001145b806116b957508260200151600160a060020a031663200d2ed26040518163ffffffff1660e060020a028152600401602060405180830381600087803b15801561168b57600080fd5b505af115801561169f573d6000803e3d6000fd5b505050506040513d60208110156116b557600080fd5b5051155b806116c75750858360400151105b156116d157600080fd5b841515611a91578515806116ec575084151583608001511515145b8061170057508251600160a060020a031633145b80611711575060c083015115156001145b806117a6575060035460a084015160408051600080516020612afc8339815191528152336004820152600160a060020a03928316602482015290519190921691632a3de59f9160448083019260209291908290030181600087803b15801561177857600080fd5b505af115801561178c573d6000803e3d6000fd5b505050506040513d60208110156117a257600080fd5b5051155b806118bb5750600260009054906101000a9004600160a060020a0316600160a060020a031663d3da927f338560200151600160a060020a0316638da5cb5b6040518163ffffffff1660e060020a028152600401602060405180830381600087803b15801561181357600080fd5b505af1158015611827573d6000803e3d6000fd5b505050506040513d602081101561183d57600080fd5b50516040805160e060020a63ffffffff8616028152600160a060020a0393841660048201529290911660248301525160448083019260209291908290030181600087803b15801561188d57600080fd5b505af11580156118a1573d6000803e3d6000fd5b505050506040513d60208110156118b757600080fd5b5051155b8061193557508260200151600160a060020a031663034f6b216040518163ffffffff1660e060020a028152600401602060405180830381600087803b15801561190357600080fd5b505af1158015611917573d6000803e3d6000fd5b505050506040513d602081101561192d57600080fd5b505115156001145b806119ab57508260200151600160a060020a031663200d2ed26040518163ffffffff1660e060020a028152600401602060405180830381600087803b15801561197d57600080fd5b505af1158015611991573d6000803e3d6000fd5b505050506040513d60208110156119a757600080fd5b5051155b806119c25750856119c0338560200151612443565b105b806119d05750858360400151105b15611a91578260200151600160a060020a031663a9059cbb336119f7338760200151612443565b6040518363ffffffff1660e060020a0281526004018083600160a060020a0316600160a060020a0316815260200182815260200192505050602060405180830381600087803b158015611a4957600080fd5b505af1158015611a5d573d6000803e3d6000fd5b505050506040513d6020811015611a7357600080fd5b50506020830151611a879033906000612789565b5060009350611c7d565b611a9a876122a9565b6001019150611aa98783612969565b5060015442019050611ac6878333898760600151600080886125a2565b50611b058784600001518560200151611aec8a886040015161266790919063ffffffff16565b876060015188608001518960a001518a60c001516128b3565b50826080015115611be0576020830151611b29903390610f8b8961061b8484612443565b506020830151611b4390339061062789610fa48484611ca5565b5033600160a060020a03168360000151600160a060020a03168460200151600160a060020a03167f8572520837758ee6d544b77e467aa6bb30ea06c0e78c287b0d2a7d106f25d1668a8688606001518c8a60a001516040518086815260200185815260200184815260200183815260200182600160a060020a0316600160a060020a031681526020019550505050505060405180910390a4611c78565b8260000151600160a060020a031633600160a060020a03168460200151600160a060020a03167f8572520837758ee6d544b77e467aa6bb30ea06c0e78c287b0d2a7d106f25d1668a8688606001518c8a60a001516040518086815260200185815260200184815260200183815260200182600160a060020a0316600160a060020a031681526020019550505050505060405180910390a45b600193505b5050509392505050565b600454600160a060020a031681565b600054600160a060020a031681565b60048054604080517f097d9012000000000000000000000000000000000000000000000000000000008152600160a060020a0386811694820194909452848416602482015290516000939092169163097d90129160448082019260209290919082900301818787803b158015611d1a57600080fd5b505af1158015611d2e573d6000803e3d6000fd5b505050506040513d6020811015611d4457600080fd5b50519392505050565b600080600080600080600460009054906101000a9004600160a060020a0316600160a060020a031663bf18e24e89896040518363ffffffff1660e060020a028152600401808381526020018281526020019250505060c060405180830381600087803b158015611dbc57600080fd5b505af1158015611dd0573d6000803e3d6000fd5b505050506040513d60c0811015611de657600080fd5b508051602082015160408301516060840151608085015160a090950151939d929c50909a509850919650945092505050565b611e2b8333610f8b85610fa48833612443565b50505050565b6000806000806000806000600460009054906101000a9004600160a060020a0316600160a060020a031663d09ef241896040518263ffffffff1660e060020a0281526004018082815260200191505060e060405180830381600087803b158015611e9a57600080fd5b505af1158015611eae573d6000803e3d6000fd5b505050506040513d60e0811015611ec457600080fd5b508051602082015160408301516060840151608085015160a086015160c090960151949e939d50919b50995097509195509350915050565b6000611f06612a6a565b611f0e612aa6565b611f16611230565b851115611f2257600080fd5b611f2b856122a9565b841115611f3757600080fd5b611f4085611e31565b151560c0890152600160a060020a0390811660a08901529015156080880152606087019190915260408601919091529081166020850152168252611f848585611d4d565b60a0870152151560808601819052901515606086015260408501919091526020840191909152600160a060020a03909116825280611fc3575080606001515b80611fe457508160a00151600160a060020a031633600160a060020a031614155b15611fee57600080fd5b6120138585836000015184602001518560400151866060015160018860a001516125a2565b5081608001511561214f5780516020808401519083015161203e9291906106279061061b8484611ca5565b5060208083015183518383015160408051600080516020612adc8339815191528152600160a060020a039384166004820152602481019290925251919092169263a9059cbb92604480820193918290030181600087803b1580156120a157600080fd5b505af11580156120b5573d6000803e3d6000fd5b505050506040513d60208110156120cb57600080fd5b5050805182516020808501516060808701518387015160a0808a0151604080518f81529788018e90528781019490945293860191909152600160a060020a0392831660808601529051958216959482169491909216927f1f33fcbce82033cd7b26ae868ba28784c1e405a5a631cb7063527b4aceb0b5cc92908290030190a461227c565b81516020808401519083015161216f9291906106279061061b8484611ca5565b5060208083015182518383015160408051600080516020612adc8339815191528152600160a060020a039384166004820152602481019290925251919092169263a9059cbb92604480820193918290030181600087803b1580156121d257600080fd5b505af11580156121e6573d6000803e3d6000fd5b505050506040513d60208110156121fc57600080fd5b5050815181516020808501516060808701518387015160a0808a0151604080518f81529788018e90528781019490945293860191909152600160a060020a0392831660808601529051958216959482169491909216927f1f33fcbce82033cd7b26ae868ba28784c1e405a5a631cb7063527b4aceb0b5cc92908290030190a45b61228e826020015183606001516129f7565b50600195945050505050565b600554600160a060020a031681565b60048054604080517fc9ee7c9a00000000000000000000000000000000000000000000000000000000815292830184905251600092600160a060020a039092169163c9ee7c9a91602480830192602092919082900301818787803b15801561231057600080fd5b505af1158015612324573d6000803e3d6000fd5b505050506040513d602081101561233a57600080fd5b505192915050565b600054600160a060020a0316331461235957600080fd5b600160a060020a038116151561236e57600080fd5b60008054604051600160a060020a03808516939216917f8be0079c531659141344cd1fd0a4f28419497f9722a3daafe3b4186f6b6457e091a36000805473ffffffffffffffffffffffffffffffffffffffff1916600160a060020a0392909216919091179055565b60048054604080517fc692fc74000000000000000000000000000000000000000000000000000000008152600160a060020a038581169482019490945290516000939092169163c692fc749160248082019260209290919082900301818787803b15801561231057600080fd5b60048054604080517fd4fac45d000000000000000000000000000000000000000000000000000000008152600160a060020a0386811694820194909452848416602482015290516000939092169163d4fac45d9160448082019260209290919082900301818787803b158015611d1a57600080fd5b6000806124c53384612443565b90508015156124d357600080fd5b60408051600080516020612adc8339815191528152336004820152602481018390529051600160a060020a0385169163a9059cbb9160448083019260209291908290030181600087803b15801561252957600080fd5b505af115801561253d573d6000803e3d6000fd5b505050506040513d602081101561255357600080fd5b50612562905033846000612789565b506040513390600160a060020a038516907ffee4bd730c5342548069b84e6a6b38c19507a6fe4bbbc4ab6f648b1ed2ad5fc890600090a350600192915050565b60048054604080517f4f7584780000000000000000000000000000000000000000000000000000000081529283018b9052602483018a9052600160a060020a038981166044850152606484018990526084840188905286151560a485015285151560c485015260e4840185905290516000939190921691634f7584789161010480820192869290919082900301818387803b15801561264057600080fd5b505af1158015612654573d6000803e3d6000fd5b5060019c9b505050505050505050505050565b60008282111561267357fe5b50900390565b60048054604080517fd04c23af000000000000000000000000000000000000000000000000000000008152600160a060020a038781169482019490945285841660248201526044810185905290516000939092169163d04c23af91606480820192869290919082900301818387803b1580156126f457600080fd5b505af1158015612708573d6000803e3d6000fd5b506001979650505050505050565b6000903b1190565b600354604080517ffb3551ff000000000000000000000000000000000000000000000000000000008152600160a060020a0384811660048301529151600093929092169163fb3551ff9160248082019260209290919082900301818787803b15801561231057600080fd5b60048054604080517fb5c9cbbe000000000000000000000000000000000000000000000000000000008152600160a060020a038781169482019490945285841660248201526044810185905290516000939092169163b5c9cbbe9160648082019260209290919082900301818787803b15801561280557600080fd5b505af1158015612819573d6000803e3d6000fd5b505050506040513d602081101561282f57600080fd5b5051949350505050565b60048054604080517fb953009100000000000000000000000000000000000000000000000000000000815292830184905251600092600160a060020a039092169163b9530091916024808301928692919082900301818387803b15801561289f57600080fd5b505af115801561228e573d6000803e3d6000fd5b60048054604080517f2270fa5e0000000000000000000000000000000000000000000000000000000081529283018b9052600160a060020a038a811660248501528981166044850152606484018990526084840188905286151560a485015285811660c485015284151560e485015290516000939190921691632270fa5e9161010480820192869290919082900301818387803b15801561264057600080fd5b60008282018381101561296257fe5b9392505050565b60048054604080517fb12c52cf0000000000000000000000000000000000000000000000000000000081529283018590526024830184905251600092600160a060020a039092169163b12c52cf916044808301928692919082900301818387803b1580156129d657600080fd5b505af11580156129ea573d6000803e3d6000fd5b5060019695505050505050565b60048054604080517f01e7a801000000000000000000000000000000000000000000000000000000008152600160a060020a0386811694820194909452602481018590529051600093909216916301e7a80191604480820192869290919082900301818387803b1580156129d657600080fd5b6040805160e081018252600080825260208201819052918101829052606081018290526080810182905260a0810182905260c081019190915290565b6040805160c081018252600080825260208201819052918101829052606081018290526080810182905260a0810191909152905600a9059cbb000000000000000000000000000000000000000000000000000000002a3de59f00000000000000000000000000000000000000000000000000000000a165627a7a72305820a2bbb9d151effd00f16214f6681e06dbdebc11c4baf532b7fedef44aa55850e90029",
  "bytecodeSha1": "9a8ef31b6b6b0537b4aacbc0a114ee27c416e02b",
  "compiler": {
    "evm_version": "byzantium",
    "optimizer": {
      "enabled": true,
      "runs": 200
    },
    "version": "0.4.25"
  },
  "contractName": "IbetStraightBondExchange",
  "language": "Solidity",
  "natspec": {
    "methods": {
      "balanceOf(address,address)": {
        "notice": "残高参照",
        "params": {
          "_account": "アカウントアドレス",
          "_token": "トークンアドレス"
        },
        "return": "残高数量"
      },
      "cancelAgreement(uint256,uint256)": {
        "details": "注文時に指定された決済業者から実行が可能、有効期限後はMake注文者も実行が可能",
        "notice": "決済非承認",
        "params": {
          "_agreementId": "約定ID",
          "_orderId": "注文ID"
        },
        "return": "処理結果"
      },
      "cancelOrder(uint256)": {
        "notice": "注文キャンセル",
        "params": {
          "_orderId": "注文ID"
        },
        "return": "処理結果"
      },
      "commitmentOf(address,address)": {
        "notice": "拘束数量参照",
        "params": {
          "_account": "アカウントアドレス",
          "_token": "トークンアドレス"
        },
        "return": "拘束数量"
      },
      "confirmAgreement(uint256,uint256)": {
        "details": "注文時に指定された決済業者のみ実行が可能",
        "notice": "決済承認",
        "params": {
          "_agreementId": "約定ID",
          "_orderId": "注文ID"
        },
        "return": "処理結果"
      },
      "createOrder(address,uint256,uint256,bool,address)": {
        "notice": "--------------------------------------------------------------- Function: Logic ---------------------------------------------------------------Make注文",
        "params": {
          "_agent": "収納代行業者のアドレス",
          "_amount": "注文数量",
          "_isBuy": "売買区分",
          "_price": "注文単価",
          "_token": "トークンアドレス"
        },
        "return": "処理結果"
      },
      "executeOrder(uint256,uint256,bool)": {
        "notice": "Take注文",
        "params": {
          "_amount": "注文数量",
          "_isBuy": "売買区分",
          "_orderId": "注文ID"
        },
        "return": "処理結果"
      },
      "getAgreement(uint256,uint256)": {
        "notice": "約定情報取得",
        "params": {
          "_agreementId": "約定ID",
          "_orderId": "注文ID"
        },
        "return": "_counterpart 約定相手_amount 約定数量_price 約定単価_canceled キャンセル済み状態_paid 支払済状態_expiry 有効期限"
      },
      "getOrder(uint256)": {
        "notice": "注文情報取得",
        "params": {
          "_orderId": "注文ID"
        },
        "return": "owner 注文実行者token トークンアドレスamount 注文数量price 注文単価isBuy 売買区分agent 決済業者のアドレスcanceled キャンセル済み状態"
      },
      "lastPrice(address)": {
        "notice": "現在値参照",
        "params": {
          "_token": "トークンアドレス"
        },
        "return": "現在値"
      },
      "latestAgreementId(uint256)": {
        "notice": "直近約定ID取得",
        "params": {
          "_orderId": "注文ID"
        },
        "return": "直近約定ID"
      },
      "latestOrderId()": {
        "notice": "直近注文ID取得",
        "return": "直近注文ID"
      },
      "tokenFallback(address,uint256,bytes)": {
        "notice": "Deposit Handler：デポジット処理",
        "params": {
          "_from": "アカウントアドレス：残高を保有するアドレス",
          "_value": "デポジット数量"
        }
      },
      "transferOwnership(address)": {
        "details": "オーナーのみ実行可能",
        "notice": "オーナー変更",
        "params": {
          "newOwner": "新しいオーナー"
        }
      },
      "withdrawAll(address)": {
        "details": "未売却の預かりに対してのみ引き出しをおこなう。約定済、注文中の預かり（commitments）の引き出しはおこなわない。",
        "notice": "全ての残高を引き出しする",
        "params": {
          "_token": "トークンアドレス"
        },
        "return": "処理結果"
      }
    },
    "title": "ibet Straight Bond DEX"
  },
  "opcodes": "PUSH1 0x80 PUSH1 0x40 MSTORE PUSH1 0x4 CALLDATASIZE LT PUSH2 0xF8 JUMPI PUSH4 0xFFFFFFFF PUSH1 0xE0 PUSH1 0x2 EXP PUSH1 0x0 CALLDATALOAD DIV AND PUSH4 0xAF7EB0F DUP2 EQ PUSH2 0xFD JUMPI DUP1 PUSH4 0x307F636B EQ PUSH2 0x12E JUMPI DUP1 PUSH4 0x38A6E855 EQ PUSH2 0x15D JUMPI DUP1 PUSH4 0x514FCAC7 EQ PUSH2 0x192 JUMPI DUP1 PUSH4 0x5EDADA77 EQ PUSH2 0x1AA JUMPI DUP1 PUSH4 0x6F3B60D6 EQ PUSH2 0x1BF JUMPI DUP1 PUSH4 0x7E6D36E2 EQ PUSH2 0x1E6 JUMPI DUP1 PUSH4 0x85AA92A7 EQ PUSH2 0x206 JUMPI DUP1 PUSH4 0x8DA5CB5B EQ PUSH2 0x21B JUMPI DUP1 PUSH4 0xA2EE7043 EQ PUSH2 0x230 JUMPI DUP1 PUSH4 0xBF18E24E EQ PUSH2 0x257 JUMPI DUP1 PUSH4 0xC0EE0B8A EQ PUSH2 0x2B1 JUMPI DUP1 PUSH4 0xD09EF241 EQ PUSH2 0x31C JUMPI DUP1 PUSH4 0xD1A397E5 EQ PUSH2 0x380 JUMPI DUP1 PUSH4 0xD68EB73D EQ PUSH2 0x39B JUMPI DUP1 PUSH4 0xDC01F10B EQ PUSH2 0x3B0 JUMPI DUP1 PUSH4 0xF2FDE38B EQ PUSH2 0x3C8 JUMPI DUP1 PUSH4 0xF5A6BA2E EQ PUSH2 0x3E9 JUMPI DUP1 PUSH4 0xF7888AEC EQ PUSH2 0x40A JUMPI DUP1 PUSH4 0xFA09E630 EQ PUSH2 0x431 JUMPI JUMPDEST PUSH1 0x0 DUP1 REVERT JUMPDEST CALLVALUE DUP1 ISZERO PUSH2 0x109 JUMPI PUSH1 0x0 DUP1 REVERT JUMPDEST POP PUSH2 0x112 PUSH2 0x452 JUMP JUMPDEST PUSH1 0x40 DUP1 MLOAD PUSH1 0x1 PUSH1 0xA0 PUSH1 0x2 EXP SUB SWAP1 SWAP3 AND DUP3 MSTORE MLOAD SWAP1 DUP2 SWAP1 SUB PUSH1 0x20 ADD SWAP1 RETURN JUMPDEST CALLVALUE DUP1 ISZERO PUSH2 0x13A JUMPI PUSH1 0x0 DUP1 REVERT JUMPDEST POP PUSH2 0x149 PUSH1 0x4 CALLDATALOAD PUSH1 0x24 CALLDATALOAD PUSH2 0x461 JUMP JUMPDEST PUSH1 0x40 DUP1 MLOAD SWAP2 ISZERO ISZERO DUP3 MSTORE MLOAD SWAP1 DUP2 SWAP1 SUB PUSH1 0x20 ADD SWAP1 RETURN JUMPDEST CALLVALUE DUP1 ISZERO PUSH2 0x169 JUMPI PUSH1 0x0 DUP1 REVERT JUMPDEST POP PUSH2 0x149 PUSH1 0x1 PUSH1 0xA0 PUSH1 0x2 EXP SUB PUSH1 0x4 CALLDATALOAD DUP2 AND SWAP1 PUSH1 0x24 CALLDATALOAD SWAP1 PUSH1 0x44 CALLDATALOAD SWAP1 PUSH1 0x64 CALLDATALOAD ISZERO ISZERO SWAP1 PUSH1 0x84 CALLDATALOAD AND PUSH2 0x875 JUMP JUMPDEST CALLVALUE DUP1 ISZERO PUSH2 0x19E JUMPI PUSH1 0x0 DUP1 REVERT JUMPDEST POP PUSH2 0x149 PUSH1 0x4 CALLDATALOAD PUSH2 0x101B JUMP JUMPDEST CALLVALUE DUP1 ISZERO PUSH2 0x1B6 JUMPI PUSH1 0x0 DUP1 REVERT JUMPDEST POP PUSH2 0x112 PUSH2 0x1221 JUMP JUMPDEST CALLVALUE DUP1 ISZERO PUSH2 0x1CB JUMPI PUSH1 0x0 DUP1 REVERT JUMPDEST POP PUSH2 0x1D4 PUSH2 0x1230 JUMP JUMPDEST PUSH1 0x40 DUP1 MLOAD SWAP2 DUP3 MSTORE MLOAD SWAP1 DUP2 SWAP1 SUB PUSH1 0x20 ADD SWAP1 RETURN JUMPDEST CALLVALUE DUP1 ISZERO PUSH2 0x1F2 JUMPI PUSH1 0x0 DUP1 REVERT JUMPDEST POP PUSH2 0x149 PUSH1 0x4 CALLDATALOAD PUSH1 0x24 CALLDATALOAD PUSH1 0x44 CALLDATALOAD ISZERO ISZERO PUSH2 0x12B6 JUMP JUMPDEST CALLVALUE DUP1 ISZERO PUSH2 0x212 JUMPI PUSH1 0x0 DUP1 REVERT JUMPDEST POP PUSH2 0x112 PUSH2 0x1C87 JUMP JUMPDEST CALLVALUE DUP1 ISZERO PUSH2 0x227 JUMPI PUSH1 0x0 DUP1 REVERT JUMPDEST POP PUSH2 0x112 PUSH2 0x1C96 JUMP JUMPDEST CALLVALUE DUP1 ISZERO PUSH2 0x23C JUMPI PUSH1 0x0 DUP1 REVERT JUMPDEST POP PUSH2 0x1D4 PUSH1 0x1 PUSH1 0xA0 PUSH1 0x2 EXP SUB PUSH1 0x4 CALLDATALOAD DUP2 AND SWAP1 PUSH1 0x24 CALLDATALOAD AND PUSH2 0x1CA5 JUMP JUMPDEST CALLVALUE DUP1 ISZERO PUSH2 0x263 JUMPI PUSH1 0x0 DUP1 REVERT JUMPDEST POP PUSH2 0x272 PUSH1 0x4 CALLDATALOAD PUSH1 0x24 CALLDATALOAD PUSH2 0x1D4D JUMP JUMPDEST PUSH1 0x40 DUP1 MLOAD PUSH1 0x1 PUSH1 0xA0 PUSH1 0x2 EXP SUB SWAP1 SWAP8 AND DUP8 MSTORE PUSH1 0x20 DUP8 ADD SWAP6 SWAP1 SWAP6 MSTORE DUP6 DUP6 ADD SWAP4 SWAP1 SWAP4 MSTORE SWAP1 ISZERO ISZERO PUSH1 0x60 DUP6 ADD MSTORE ISZERO ISZERO PUSH1 0x80 DUP5 ADD MSTORE PUSH1 0xA0 DUP4 ADD MSTORE MLOAD SWAP1 DUP2 SWAP1 SUB PUSH1 0xC0 ADD SWAP1 RETURN JUMPDEST CALLVALUE DUP1 ISZERO PUSH2 0x2BD JUMPI PUSH1 0x0 DUP1 REVERT JUMPDEST POP PUSH1 0x40 DUP1 MLOAD PUSH1 0x20 PUSH1 0x4 PUSH1 0x44 CALLDATALOAD DUP2 DUP2 ADD CALLDATALOAD PUSH1 0x1F DUP2 ADD DUP5 SWAP1 DIV DUP5 MUL DUP6 ADD DUP5 ADD SWAP1 SWAP6 MSTORE DUP5 DUP5 MSTORE PUSH2 0x31A SWAP5 DUP3 CALLDATALOAD PUSH1 0x1 PUSH1 0xA0 PUSH1 0x2 EXP SUB AND SWAP5 PUSH1 0x24 DUP1 CALLDATALOAD SWAP6 CALLDATASIZE SWAP6 SWAP5 PUSH1 0x64 SWAP5 SWAP3 ADD SWAP2 SWAP1 DUP2 SWAP1 DUP5 ADD DUP4 DUP3 DUP1 DUP3 DUP5 CALLDATACOPY POP SWAP5 SWAP8 POP PUSH2 0x1E18 SWAP7 POP POP POP POP POP POP POP JUMP JUMPDEST STOP JUMPDEST CALLVALUE DUP1 ISZERO PUSH2 0x328 JUMPI PUSH1 0x0 DUP1 REVERT JUMPDEST POP PUSH2 0x334 PUSH1 0x4 CALLDATALOAD PUSH2 0x1E31 JUMP JUMPDEST PUSH1 0x40 DUP1 MLOAD PUSH1 0x1 PUSH1 0xA0 PUSH1 0x2 EXP SUB SWAP9 DUP10 AND DUP2 MSTORE SWAP7 DUP9 AND PUSH1 0x20 DUP9 ADD MSTORE DUP7 DUP2 ADD SWAP6 SWAP1 SWAP6 MSTORE PUSH1 0x60 DUP7 ADD SWAP4 SWAP1 SWAP4 MSTORE SWAP1 ISZERO ISZERO PUSH1 0x80 DUP6 ADD MSTORE SWAP1 SWAP4 AND PUSH1 0xA0 DUP4 ADD MSTORE SWAP2 ISZERO ISZERO PUSH1 0xC0 DUP3 ADD MSTORE SWAP1 MLOAD SWAP1 DUP2 SWAP1 SUB PUSH1 0xE0 ADD SWAP1 RETURN JUMPDEST CALLVALUE DUP1 ISZERO PUSH2 0x38C JUMPI PUSH1 0x0 DUP1 REVERT JUMPDEST POP PUSH2 0x149 PUSH1 0x4 CALLDATALOAD PUSH1 0x24 CALLDATALOAD PUSH2 0x1EFC JUMP JUMPDEST CALLVALUE DUP1 ISZERO PUSH2 0x3A7 JUMPI PUSH1 0x0 DUP1 REVERT JUMPDEST POP PUSH2 0x112 PUSH2 0x229A JUMP JUMPDEST CALLVALUE DUP1 ISZERO PUSH2 0x3BC JUMPI PUSH1 0x0 DUP1 REVERT JUMPDEST POP PUSH2 0x1D4 PUSH1 0x4 CALLDATALOAD PUSH2 0x22A9 JUMP JUMPDEST CALLVALUE DUP1 ISZERO PUSH2 0x3D4 JUMPI PUSH1 0x0 DUP1 REVERT JUMPDEST POP PUSH2 0x31A PUSH1 0x1 PUSH1 0xA0 PUSH1 0x2 EXP SUB PUSH1 0x4 CALLDATALOAD AND PUSH2 0x2342 JUMP JUMPDEST CALLVALUE DUP1 ISZERO PUSH2 0x3F5 JUMPI PUSH1 0x0 DUP1 REVERT JUMPDEST POP PUSH2 0x1D4 PUSH1 0x1 PUSH1 0xA0 PUSH1 0x2 EXP SUB PUSH1 0x4 CALLDATALOAD AND PUSH2 0x23D6 JUMP JUMPDEST CALLVALUE DUP1 ISZERO PUSH2 0x416 JUMPI PUSH1 0x0 DUP1 REVERT JUMPDEST POP PUSH2 0x1D4 PUSH1 0x1 PUSH1 0xA0 PUSH1 0x2 EXP SUB PUSH1 0x4 CALLDATALOAD DUP2 AND SWAP1 PUSH1 0x24 CALLDATALOAD AND PUSH2 0x2443 JUMP JUMPDEST CALLVALUE DUP1 ISZERO PUSH2 0x43D JUMPI PUSH1 0x0 DUP1 REVERT JUMPDEST POP PUSH2 0x149 PUSH1 0x1 PUSH1 0xA0 PUSH1 0x2 EXP SUB PUSH1 0x4 CALLDATALOAD AND PUSH2 0x24B8 JUMP JUMPDEST PUSH1 0x2 SLOAD PUSH1 0x1 PUSH1 0xA0 PUSH1 0x2 EXP SUB AND DUP2 JUMP JUMPDEST PUSH1 0x0 PUSH2 0x46B PUSH2 0x2A6A JUMP JUMPDEST PUSH2 0x473 PUSH2 0x2AA6 JUMP JUMPDEST PUSH2 0x47B PUSH2 0x1230 JUMP JUMPDEST DUP6 GT ISZERO PUSH2 0x487 JUMPI PUSH1 0x0 DUP1 REVERT JUMPDEST PUSH2 0x490 DUP6 PUSH2 0x22A9 JUMP JUMPDEST DUP5 GT ISZERO PUSH2 0x49C JUMPI PUSH1 0x0 DUP1 REVERT JUMPDEST PUSH2 0x4A5 DUP6 PUSH2 0x1E31 JUMP JUMPDEST ISZERO ISZERO PUSH1 0xC0 DUP10 ADD MSTORE PUSH1 0x1 PUSH1 0xA0 PUSH1 0x2 EXP SUB SWAP1 DUP2 AND PUSH1 0xA0 DUP10 ADD MSTORE SWAP1 ISZERO ISZERO PUSH1 0x80 DUP9 ADD MSTORE PUSH1 0x60 DUP8 ADD SWAP2 SWAP1 SWAP2 MSTORE PUSH1 0x40 DUP7 ADD SWAP2 SWAP1 SWAP2 MSTORE SWAP1 DUP2 AND PUSH1 0x20 DUP6 ADD MSTORE AND DUP3 MSTORE PUSH2 0x4E9 DUP6 DUP6 PUSH2 0x1D4D JUMP JUMPDEST PUSH1 0xA0 DUP8 ADD DUP2 SWAP1 MSTORE SWAP1 ISZERO ISZERO PUSH1 0x80 DUP8 ADD MSTORE SWAP1 ISZERO ISZERO PUSH1 0x60 DUP7 ADD MSTORE PUSH1 0x40 DUP6 ADD SWAP2 SWAP1 SWAP2 MSTORE PUSH1 0x20 DUP5 ADD SWAP2 SWAP1 SWAP2 MSTORE PUSH1 0x1 PUSH1 0xA0 PUSH1 0x2 EXP SUB SWAP1 SWAP2 AND DUP3 MSTORE TIMESTAMP LT PUSH2 0x58F JUMPI DUP1 PUSH1 0x80 ADD MLOAD DUP1 PUSH2 0x534 JUMPI POP DUP1 PUSH1 0x60 ADD MLOAD JUMPDEST DUP1 PUSH2 0x580 JUMPI POP DUP2 PUSH1 0xA0 ADD MLOAD PUSH1 0x1 PUSH1 0xA0 PUSH1 0x2 EXP SUB AND CALLER PUSH1 0x1 PUSH1 0xA0 PUSH1 0x2 EXP SUB AND EQ ISZERO DUP1 ISZERO PUSH2 0x56A JUMPI POP DUP2 MLOAD PUSH1 0x1 PUSH1 0xA0 PUSH1 0x2 EXP SUB AND CALLER EQ ISZERO JUMPDEST DUP1 ISZERO PUSH2 0x580 JUMPI POP DUP1 MLOAD PUSH1 0x1 PUSH1 0xA0 PUSH1 0x2 EXP SUB AND CALLER EQ ISZERO JUMPDEST ISZERO PUSH2 0x58A JUMPI PUSH1 0x0 DUP1 REVERT JUMPDEST PUSH2 0x5CB JUMP JUMPDEST DUP1 PUSH1 0x80 ADD MLOAD DUP1 PUSH2 0x5A0 JUMPI POP DUP1 PUSH1 0x60 ADD MLOAD JUMPDEST DUP1 PUSH2 0x5C1 JUMPI POP DUP2 PUSH1 0xA0 ADD MLOAD PUSH1 0x1 PUSH1 0xA0 PUSH1 0x2 EXP SUB AND CALLER PUSH1 0x1 PUSH1 0xA0 PUSH1 0x2 EXP SUB AND EQ ISZERO JUMPDEST ISZERO PUSH2 0x5CB JUMPI PUSH1 0x0 DUP1 REVERT JUMPDEST PUSH2 0x5F0 DUP6 DUP6 DUP4 PUSH1 0x0 ADD MLOAD DUP5 PUSH1 0x20 ADD MLOAD DUP6 PUSH1 0x40 ADD MLOAD PUSH1 0x1 DUP8 PUSH1 0x80 ADD MLOAD DUP9 PUSH1 0xA0 ADD MLOAD PUSH2 0x25A2 JUMP JUMPDEST POP DUP2 PUSH1 0x80 ADD MLOAD ISZERO PUSH2 0x73D JUMPI DUP1 MLOAD PUSH1 0x20 DUP1 DUP5 ADD MLOAD SWAP1 DUP4 ADD MLOAD PUSH2 0x62C SWAP3 SWAP2 SWAP1 PUSH2 0x627 SWAP1 PUSH2 0x61B DUP5 DUP5 PUSH2 0x1CA5 JUMP JUMPDEST SWAP1 PUSH4 0xFFFFFFFF PUSH2 0x2667 AND JUMP JUMPDEST PUSH2 0x2679 JUMP JUMPDEST POP PUSH1 0x20 DUP1 DUP4 ADD MLOAD DUP3 MLOAD DUP4 DUP4 ADD MLOAD PUSH1 0x40 DUP1 MLOAD PUSH1 0x0 DUP1 MLOAD PUSH1 0x20 PUSH2 0x2ADC DUP4 CODECOPY DUP2 MLOAD SWAP2 MSTORE DUP2 MSTORE PUSH1 0x1 PUSH1 0xA0 PUSH1 0x2 EXP SUB SWAP4 DUP5 AND PUSH1 0x4 DUP3 ADD MSTORE PUSH1 0x24 DUP2 ADD SWAP3 SWAP1 SWAP3 MSTORE MLOAD SWAP2 SWAP1 SWAP3 AND SWAP3 PUSH4 0xA9059CBB SWAP3 PUSH1 0x44 DUP1 DUP3 ADD SWAP4 SWAP2 DUP3 SWAP1 SUB ADD DUP2 PUSH1 0x0 DUP8 DUP1 EXTCODESIZE ISZERO DUP1 ISZERO PUSH2 0x68F JUMPI PUSH1 0x0 DUP1 REVERT JUMPDEST POP GAS CALL ISZERO DUP1 ISZERO PUSH2 0x6A3 JUMPI RETURNDATASIZE PUSH1 0x0 DUP1 RETURNDATACOPY RETURNDATASIZE PUSH1 0x0 REVERT JUMPDEST POP POP POP POP PUSH1 0x40 MLOAD RETURNDATASIZE PUSH1 0x20 DUP2 LT ISZERO PUSH2 0x6B9 JUMPI PUSH1 0x0 DUP1 REVERT JUMPDEST POP POP DUP1 MLOAD DUP3 MLOAD PUSH1 0x20 DUP1 DUP6 ADD MLOAD PUSH1 0x60 DUP1 DUP8 ADD MLOAD DUP4 DUP8 ADD MLOAD PUSH1 0xA0 DUP1 DUP11 ADD MLOAD PUSH1 0x40 DUP1 MLOAD DUP16 DUP2 MSTORE SWAP8 DUP9 ADD DUP15 SWAP1 MSTORE DUP8 DUP2 ADD SWAP5 SWAP1 SWAP5 MSTORE SWAP4 DUP7 ADD SWAP2 SWAP1 SWAP2 MSTORE PUSH1 0x1 PUSH1 0xA0 PUSH1 0x2 EXP SUB SWAP3 DUP4 AND PUSH1 0x80 DUP7 ADD MSTORE SWAP1 MLOAD SWAP6 DUP3 AND SWAP6 SWAP5 DUP3 AND SWAP5 SWAP2 SWAP1 SWAP3 AND SWAP3 PUSH32 0xC7065461C527949BFFA69924A2264FB3A12540677585393B0F3C3D96DDE06751 SWAP3 SWAP1 DUP3 SWAP1 SUB ADD SWAP1 LOG4 PUSH2 0x86A JUMP JUMPDEST DUP2 MLOAD PUSH1 0x20 DUP1 DUP5 ADD MLOAD SWAP1 DUP4 ADD MLOAD PUSH2 0x75D SWAP3 SWAP2 SWAP1 PUSH2 0x627 SWAP1 PUSH2 0x61B DUP5 DUP5 PUSH2 0x1CA5 JUMP JUMPDEST POP PUSH1 0x20 DUP1 DUP4 ADD MLOAD DUP4 MLOAD DUP4 DUP4 ADD MLOAD PUSH1 0x40 DUP1 MLOAD PUSH1 0x0 DUP1 MLOAD PUSH1 0x20 PUSH2 0x2ADC DUP4 CODECOPY DUP2 MLOAD SWAP2 MSTORE DUP2 MSTORE PUSH1 0x1 PUSH1 0xA0 PUSH1 0x2 EXP SUB SWAP4 DUP5 AND PUSH1 0x4 DUP3 ADD MSTORE PUSH1 0x24 DUP2 ADD SWAP3 SWAP1 SWAP3 MSTORE MLOAD SWAP2 SWAP1 SWAP3 AND SWAP3 PUSH4 0xA9059CBB SWAP3 PUSH1 0x44 DUP1 DUP3 ADD SWAP4 SWAP2 DUP3 SWAP1 SUB ADD DUP2 PUSH1 0x0 DUP8 DUP1 EXTCODESIZE ISZERO DUP1 ISZERO PUSH2 0x7C0 JUMPI PUSH1 0x0 DUP1 REVERT JUMPDEST POP GAS CALL ISZERO DUP1 ISZERO PUSH2 0x7D4 JUMPI RETURNDATASIZE PUSH1 0x0 DUP1 RETURNDATACOPY RETURNDATASIZE PUSH1 0x0 REVERT JUMPDEST POP POP POP POP PUSH1 0x40 MLOAD RETURNDATASIZE PUSH1 0x20 DUP2 LT ISZERO PUSH2 0x7EA JUMPI PUSH1 0x0 DUP1 REVERT JUMPDEST POP POP DUP2 MLOAD DUP2 MLOAD PUSH1 0x20 DUP1 DUP6 ADD MLOAD PUSH1 0x60 DUP1 DUP8 ADD MLOAD DUP4 DUP8 ADD MLOAD PUSH1 0xA0 DUP1 DUP11 ADD MLOAD PUSH1 0x40 DUP1 MLOAD DUP16 DUP2 MSTORE SWAP8 DUP9 ADD DUP15 SWAP1 MSTORE DUP8 DUP2 ADD SWAP5 SWAP1 SWAP5 MSTORE SWAP4 DUP7 ADD SWAP2 SWAP1 SWAP2 MSTORE PUSH1 0x1 PUSH1 0xA0 PUSH1 0x2 EXP SUB SWAP3 DUP4 AND PUSH1 0x80 DUP7 ADD MSTORE SWAP1 MLOAD SWAP6 DUP3 AND SWAP6 SWAP5 DUP3 AND SWAP5 SWAP2 SWAP1 SWAP3 AND SWAP3 PUSH32 0xC7065461C527949BFFA69924A2264FB3A12540677585393B0F3C3D96DDE06751 SWAP3 SWAP1 DUP3 SWAP1 SUB ADD SWAP1 LOG4 JUMPDEST POP PUSH1 0x1 SWAP5 SWAP4 POP POP POP POP JUMP JUMPDEST PUSH1 0x5 SLOAD PUSH1 0x40 DUP1 MLOAD PUSH32 0xC23697A800000000000000000000000000000000000000000000000000000000 DUP2 MSTORE CALLER PUSH1 0x4 DUP3 ADD MSTORE SWAP1 MLOAD PUSH1 0x0 SWAP3 DUP4 SWAP3 PUSH1 0x1 PUSH1 0xA0 PUSH1 0x2 EXP SUB SWAP1 SWAP2 AND SWAP2 PUSH4 0xC23697A8 SWAP2 PUSH1 0x24 DUP1 DUP3 ADD SWAP3 PUSH1 0x20 SWAP3 SWAP1 SWAP2 SWAP1 DUP3 SWAP1 SUB ADD DUP2 DUP8 DUP8 DUP1 EXTCODESIZE ISZERO DUP1 ISZERO PUSH2 0x8DF JUMPI PUSH1 0x0 DUP1 REVERT JUMPDEST POP GAS CALL ISZERO DUP1 ISZERO PUSH2 0x8F3 JUMPI RETURNDATASIZE PUSH1 0x0 DUP1 RETURNDATACOPY RETURNDATASIZE PUSH1 0x0 REVERT JUMPDEST POP POP POP POP PUSH1 0x40 MLOAD RETURNDATASIZE PUSH1 0x20 DUP2 LT ISZERO PUSH2 0x909 JUMPI PUSH1 0x0 DUP1 REVERT JUMPDEST POP MLOAD PUSH1 0xFF AND ISZERO PUSH2 0x918 JUMPI PUSH1 0x0 DUP1 REVERT JUMPDEST PUSH1 0x1 DUP5 ISZERO ISZERO EQ ISZERO PUSH2 0xBDE JUMPI DUP6 ISZERO DUP1 PUSH2 0x9B5 JUMPI POP PUSH1 0x3 SLOAD PUSH1 0x40 DUP1 MLOAD PUSH1 0x0 DUP1 MLOAD PUSH1 0x20 PUSH2 0x2AFC DUP4 CODECOPY DUP2 MLOAD SWAP2 MSTORE DUP2 MSTORE CALLER PUSH1 0x4 DUP3 ADD MSTORE PUSH1 0x1 PUSH1 0xA0 PUSH1 0x2 EXP SUB DUP7 DUP2 AND PUSH1 0x24 DUP4 ADD MSTORE SWAP2 MLOAD SWAP2 SWAP1 SWAP3 AND SWAP2 PUSH4 0x2A3DE59F SWAP2 PUSH1 0x44 DUP1 DUP4 ADD SWAP3 PUSH1 0x20 SWAP3 SWAP2 SWAP1 DUP3 SWAP1 SUB ADD DUP2 PUSH1 0x0 DUP8 DUP1 EXTCODESIZE ISZERO DUP1 ISZERO PUSH2 0x987 JUMPI PUSH1 0x0 DUP1 REVERT JUMPDEST POP GAS CALL ISZERO DUP1 ISZERO PUSH2 0x99B JUMPI RETURNDATASIZE PUSH1 0x0 DUP1 RETURNDATACOPY RETURNDATASIZE PUSH1 0x0 REVERT JUMPDEST POP POP POP POP PUSH1 0x40 MLOAD RETURNDATASIZE PUSH1 0x20 DUP2 LT ISZERO PUSH2 0x9B1 JUMPI PUSH1 0x0 DUP1 REVERT JUMPDEST POP MLOAD ISZERO JUMPDEST DUP1 PUSH2 0xAC6 JUMPI POP PUSH1 0x2 PUSH1 0x0 SWAP1 SLOAD SWAP1 PUSH2 0x100 EXP SWAP1 DIV PUSH1 0x1 PUSH1 0xA0 PUSH1 0x2 EXP SUB AND PUSH1 0x1 PUSH1 0xA0 PUSH1 0x2 EXP SUB AND PUSH4 0xD3DA927F CALLER DUP10 PUSH1 0x1 PUSH1 0xA0 PUSH1 0x2 EXP SUB AND PUSH4 0x8DA5CB5B PUSH1 0x40 MLOAD DUP2 PUSH4 0xFFFFFFFF AND PUSH1 0xE0 PUSH1 0x2 EXP MUL DUP2 MSTORE PUSH1 0x4 ADD PUSH1 0x20 PUSH1 0x40 MLOAD DUP1 DUP4 SUB DUP2 PUSH1 0x0 DUP8 DUP1 EXTCODESIZE ISZERO DUP1 ISZERO PUSH2 0xA1E JUMPI PUSH1 0x0 DUP1 REVERT JUMPDEST POP GAS CALL ISZERO DUP1 ISZERO PUSH2 0xA32 JUMPI RETURNDATASIZE PUSH1 0x0 DUP1 RETURNDATACOPY RETURNDATASIZE PUSH1 0x0 REVERT JUMPDEST POP POP POP POP PUSH1 0x40 MLOAD RETURNDATASIZE PUSH1 0x20 DUP2 LT ISZERO PUSH2 0xA48 JUMPI PUSH1 0x0 DUP1 REVERT JUMPDEST POP MLOAD PUSH1 0x40 DUP1 MLOAD PUSH1 0xE0 PUSH1 0x2 EXP PUSH4 0xFFFFFFFF DUP7 AND MUL DUP2 MSTORE PUSH1 0x1 PUSH1 0xA0 PUSH1 0x2 EXP SUB SWAP4 DUP5 AND PUSH1 0x4 DUP3 ADD MSTORE SWAP3 SWAP1 SWAP2 AND PUSH1 0x24 DUP4 ADD MSTORE MLOAD PUSH1 0x44 DUP1 DUP4 ADD SWAP3 PUSH1 0x20 SWAP3 SWAP2 SWAP1 DUP3 SWAP1 SUB ADD DUP2 PUSH1 0x0 DUP8 DUP1 EXTCODESIZE ISZERO DUP1 ISZERO PUSH2 0xA98 JUMPI PUSH1 0x0 DUP1 REVERT JUMPDEST POP GAS CALL ISZERO DUP1 ISZERO PUSH2 0xAAC JUMPI RETURNDATASIZE PUSH1 0x0 DUP1 RETURNDATACOPY RETURNDATASIZE PUSH1 0x0 REVERT JUMPDEST POP POP POP POP PUSH1 0x40 MLOAD RETURNDATASIZE PUSH1 0x20 DUP2 LT ISZERO PUSH2 0xAC2 JUMPI PUSH1 0x0 DUP1 REVERT JUMPDEST POP MLOAD ISZERO JUMPDEST DUP1 PUSH2 0xADB JUMPI POP PUSH2 0xAD5 CALLER PUSH2 0x2716 JUMP JUMPDEST ISZERO ISZERO PUSH1 0x1 EQ JUMPDEST DUP1 PUSH2 0xB51 JUMPI POP DUP7 PUSH1 0x1 PUSH1 0xA0 PUSH1 0x2 EXP SUB AND PUSH4 0x34F6B21 PUSH1 0x40 MLOAD DUP2 PUSH4 0xFFFFFFFF AND PUSH1 0xE0 PUSH1 0x2 EXP MUL DUP2 MSTORE PUSH1 0x4 ADD PUSH1 0x20 PUSH1 0x40 MLOAD DUP1 DUP4 SUB DUP2 PUSH1 0x0 DUP8 DUP1 EXTCODESIZE ISZERO DUP1 ISZERO PUSH2 0xB1F JUMPI PUSH1 0x0 DUP1 REVERT JUMPDEST POP GAS CALL ISZERO DUP1 ISZERO PUSH2 0xB33 JUMPI RETURNDATASIZE PUSH1 0x0 DUP1 RETURNDATACOPY RETURNDATASIZE PUSH1 0x0 REVERT JUMPDEST POP POP POP POP PUSH1 0x40 MLOAD RETURNDATASIZE PUSH1 0x20 DUP2 LT ISZERO PUSH2 0xB49 JUMPI PUSH1 0x0 DUP1 REVERT JUMPDEST POP MLOAD ISZERO ISZERO PUSH1 0x1 EQ JUMPDEST DUP1 PUSH2 0xBC3 JUMPI POP DUP7 PUSH1 0x1 PUSH1 0xA0 PUSH1 0x2 EXP SUB AND PUSH4 0x200D2ED2 PUSH1 0x40 MLOAD DUP2 PUSH4 0xFFFFFFFF AND PUSH1 0xE0 PUSH1 0x2 EXP MUL DUP2 MSTORE PUSH1 0x4 ADD PUSH1 0x20 PUSH1 0x40 MLOAD DUP1 DUP4 SUB DUP2 PUSH1 0x0 DUP8 DUP1 EXTCODESIZE ISZERO DUP1 ISZERO PUSH2 0xB95 JUMPI PUSH1 0x0 DUP1 REVERT JUMPDEST POP GAS CALL ISZERO DUP1 ISZERO PUSH2 0xBA9 JUMPI RETURNDATASIZE PUSH1 0x0 DUP1 RETURNDATACOPY RETURNDATASIZE PUSH1 0x0 REVERT JUMPDEST POP POP POP POP PUSH1 0x40 MLOAD RETURNDATASIZE PUSH1 0x20 DUP2 LT ISZERO PUSH2 0xBBF JUMPI PUSH1 0x0 DUP1 REVERT JUMPDEST POP MLOAD ISZERO JUMPDEST DUP1 PUSH2 0xBD4 JUMPI POP PUSH2 0xBD2 DUP4 PUSH2 0x271E JUMP JUMPDEST ISZERO JUMPDEST ISZERO PUSH2 0xBDE JUMPI PUSH1 0x0 DUP1 REVERT JUMPDEST DUP4 ISZERO ISZERO PUSH2 0xF48 JUMPI DUP6 ISZERO DUP1 PUSH2 0xBFA JUMPI POP DUP6 PUSH2 0xBF8 CALLER DUP10 PUSH2 0x2443 JUMP JUMPDEST LT JUMPDEST DUP1 PUSH2 0xC8A JUMPI POP PUSH1 0x3 SLOAD PUSH1 0x40 DUP1 MLOAD PUSH1 0x0 DUP1 MLOAD PUSH1 0x20 PUSH2 0x2AFC DUP4 CODECOPY DUP2 MLOAD SWAP2 MSTORE DUP2 MSTORE CALLER PUSH1 0x4 DUP3 ADD MSTORE PUSH1 0x1 PUSH1 0xA0 PUSH1 0x2 EXP SUB DUP7 DUP2 AND PUSH1 0x24 DUP4 ADD MSTORE SWAP2 MLOAD SWAP2 SWAP1 SWAP3 AND SWAP2 PUSH4 0x2A3DE59F SWAP2 PUSH1 0x44 DUP1 DUP4 ADD SWAP3 PUSH1 0x20 SWAP3 SWAP2 SWAP1 DUP3 SWAP1 SUB ADD DUP2 PUSH1 0x0 DUP8 DUP1 EXTCODESIZE ISZERO DUP1 ISZERO PUSH2 0xC5C JUMPI PUSH1 0x0 DUP1 REVERT JUMPDEST POP GAS CALL ISZERO DUP1 ISZERO PUSH2 0xC70 JUMPI RETURNDATASIZE PUSH1 0x0 DUP1 RETURNDATACOPY RETURNDATASIZE PUSH1 0x0 REVERT JUMPDEST POP POP POP POP PUSH1 0x40 MLOAD RETURNDATASIZE PUSH1 0x20 DUP2 LT ISZERO PUSH2 0xC86 JUMPI PUSH1 0x0 DUP1 REVERT JUMPDEST POP MLOAD ISZERO JUMPDEST DUP1 PUSH2 0xD9B JUMPI POP PUSH1 0x2 PUSH1 0x0 SWAP1 SLOAD SWAP1 PUSH2 0x100 EXP SWAP1 DIV PUSH1 0x1 PUSH1 0xA0 PUSH1 0x2 EXP SUB AND PUSH1 0x1 PUSH1 0xA0 PUSH1 0x2 EXP SUB AND PUSH4 0xD3DA927F CALLER DUP10 PUSH1 0x1 PUSH1 0xA0 PUSH1 0x2 EXP SUB AND PUSH4 0x8DA5CB5B PUSH1 0x40 MLOAD DUP2 PUSH4 0xFFFFFFFF AND PUSH1 0xE0 PUSH1 0x2 EXP MUL DUP2 MSTORE PUSH1 0x4 ADD PUSH1 0x20 PUSH1 0x40 MLOAD DUP1 DUP4 SUB DUP2 PUSH1 0x0 DUP8 DUP1 EXTCODESIZE ISZERO DUP1 ISZERO PUSH2 0xCF3 JUMPI PUSH1 0x0 DUP1 REVERT JUMPDEST POP GAS CALL ISZERO DUP1 ISZERO PUSH2 0xD07 JUMPI RETURNDATASIZE PUSH1 0x0 DUP1 RETURNDATACOPY RETURNDATASIZE PUSH1 0x0 REVERT JUMPDEST POP POP POP POP PUSH1 0x40 MLOAD RETURNDATASIZE PUSH1 0x20 DUP2 LT ISZERO PUSH2 0xD1D JUMPI PUSH1 0x0 DUP1 REVERT JUMPDEST POP MLOAD PUSH1 0x40 DUP1 MLOAD PUSH1 0xE0 PUSH1 0x2 EXP PUSH4 0xFFFFFFFF DUP7 AND MUL DUP2 MSTORE PUSH1 0x1 PUSH1 0xA0 PUSH1 0x2 EXP SUB SWAP4 DUP5 AND PUSH1 0x4 DUP3 ADD MSTORE SWAP3 SWAP1 SWAP2 AND PUSH1 0x24 DUP4 ADD MSTORE MLOAD PUSH1 0x44 DUP1 DUP4 ADD SWAP3 PUSH1 0x20 SWAP3 SWAP2 SWAP1 DUP3 SWAP1 SUB ADD DUP2 PUSH1 0x0 DUP8 DUP1 EXTCODESIZE ISZERO DUP1 ISZERO PUSH2 0xD6D JUMPI PUSH1 0x0 DUP1 REVERT JUMPDEST POP GAS CALL ISZERO DUP1 ISZERO PUSH2 0xD81 JUMPI RETURNDATASIZE PUSH1 0x0 DUP1 RETURNDATACOPY RETURNDATASIZE PUSH1 0x0 REVERT JUMPDEST POP POP POP POP PUSH1 0x40 MLOAD RETURNDATASIZE PUSH1 0x20 DUP2 LT ISZERO PUSH2 0xD97 JUMPI PUSH1 0x0 DUP1 REVERT JUMPDEST POP MLOAD ISZERO JUMPDEST DUP1 PUSH2 0xE11 JUMPI POP DUP7 PUSH1 0x1 PUSH1 0xA0 PUSH1 0x2 EXP SUB AND PUSH4 0x34F6B21 PUSH1 0x40 MLOAD DUP2 PUSH4 0xFFFFFFFF AND PUSH1 0xE0 PUSH1 0x2 EXP MUL DUP2 MSTORE PUSH1 0x4 ADD PUSH1 0x20 PUSH1 0x40 MLOAD DUP1 DUP4 SUB DUP2 PUSH1 0x0 DUP8 DUP1 EXTCODESIZE ISZERO DUP1 ISZERO PUSH2 0xDDF JUMPI PUSH1 0x0 DUP1 REVERT JUMPDEST POP GAS CALL ISZERO DUP1 ISZERO PUSH2 0xDF3 JUMPI RETURNDATASIZE PUSH1 0x0 DUP1 RETURNDATACOPY RETURNDATASIZE PUSH1 0x0 REVERT JUMPDEST POP POP POP POP PUSH1 0x40 MLOAD RETURNDATASIZE PUSH1 0x20 DUP2 LT ISZERO PUSH2 0xE09 JUMPI PUSH1 0x0 DUP1 REVERT JUMPDEST POP MLOAD ISZERO ISZERO PUSH1 0x1 EQ JUMPDEST DUP1 PUSH2 0xE83 JUMPI POP DUP7 PUSH1 0x1 PUSH1 0xA0 PUSH1 0x2 EXP SUB AND PUSH4 0x200D2ED2 PUSH1 0x40 MLOAD DUP2 PUSH4 0xFFFFFFFF AND PUSH1 0xE0 PUSH1 0x2 EXP MUL DUP2 MSTORE PUSH1 0x4 ADD PUSH1 0x20 PUSH1 0x40 MLOAD DUP1 DUP4 SUB DUP2 PUSH1 0x0 DUP8 DUP1 EXTCODESIZE ISZERO DUP1 ISZERO PUSH2 0xE55 JUMPI PUSH1 0x0 DUP1 REVERT JUMPDEST POP GAS CALL ISZERO DUP1 ISZERO PUSH2 0xE69 JUMPI RETURNDATASIZE PUSH1 0x0 DUP1 RETURNDATACOPY RETURNDATASIZE PUSH1 0x0 REVERT JUMPDEST POP POP POP POP PUSH1 0x40 MLOAD RETURNDATASIZE PUSH1 0x20 DUP2 LT ISZERO PUSH2 0xE7F JUMPI PUSH1 0x0 DUP1 REVERT JUMPDEST POP MLOAD ISZERO JUMPDEST DUP1 PUSH2 0xE94 JUMPI POP PUSH2 0xE92 DUP4 PUSH2 0x271E JUMP JUMPDEST ISZERO JUMPDEST ISZERO PUSH2 0xF48 JUMPI DUP7 PUSH1 0x1 PUSH1 0xA0 PUSH1 0x2 EXP SUB AND PUSH4 0xA9059CBB CALLER PUSH2 0xEB3 CALLER DUP12 PUSH2 0x2443 JUMP JUMPDEST PUSH1 0x40 MLOAD DUP4 PUSH4 0xFFFFFFFF AND PUSH1 0xE0 PUSH1 0x2 EXP MUL DUP2 MSTORE PUSH1 0x4 ADD DUP1 DUP4 PUSH1 0x1 PUSH1 0xA0 PUSH1 0x2 EXP SUB AND PUSH1 0x1 PUSH1 0xA0 PUSH1 0x2 EXP SUB AND DUP2 MSTORE PUSH1 0x20 ADD DUP3 DUP2 MSTORE PUSH1 0x20 ADD SWAP3 POP POP POP PUSH1 0x20 PUSH1 0x40 MLOAD DUP1 DUP4 SUB DUP2 PUSH1 0x0 DUP8 DUP1 EXTCODESIZE ISZERO DUP1 ISZERO PUSH2 0xF05 JUMPI PUSH1 0x0 DUP1 REVERT JUMPDEST POP GAS CALL ISZERO DUP1 ISZERO PUSH2 0xF19 JUMPI RETURNDATASIZE PUSH1 0x0 DUP1 RETURNDATACOPY RETURNDATASIZE PUSH1 0x0 REVERT JUMPDEST POP POP POP POP PUSH1 0x40 MLOAD RETURNDATASIZE PUSH1 0x20 DUP2 LT ISZERO PUSH2 0xF2F JUMPI PUSH1 0x0 DUP1 REVERT JUMPDEST POP PUSH2 0xF3E SWAP1 POP CALLER DUP9 PUSH1 0x0 PUSH2 0x2789 JUMP JUMPDEST POP PUSH1 0x0 SWAP2 POP PUSH2 0x1011 JUMP JUMPDEST PUSH2 0xF50 PUSH2 0x1230 JUMP JUMPDEST PUSH1 0x1 ADD SWAP1 POP PUSH2 0xF5E DUP2 PUSH2 0x2839 JUMP JUMPDEST POP PUSH2 0xF70 DUP2 CALLER DUP10 DUP10 DUP10 DUP10 DUP10 PUSH1 0x0 PUSH2 0x28B3 JUMP JUMPDEST POP DUP4 ISZERO ISZERO PUSH2 0xFB2 JUMPI PUSH2 0xF90 CALLER DUP9 PUSH2 0xF8B DUP10 PUSH2 0x61B CALLER DUP14 PUSH2 0x2443 JUMP JUMPDEST PUSH2 0x2789 JUMP JUMPDEST POP PUSH2 0xFB0 CALLER DUP9 PUSH2 0x627 DUP10 PUSH2 0xFA4 CALLER DUP14 PUSH2 0x1CA5 JUMP JUMPDEST SWAP1 PUSH4 0xFFFFFFFF PUSH2 0x2953 AND JUMP JUMPDEST POP JUMPDEST PUSH1 0x40 DUP1 MLOAD DUP3 DUP2 MSTORE PUSH1 0x20 DUP2 ADD DUP8 SWAP1 MSTORE DUP1 DUP3 ADD DUP9 SWAP1 MSTORE PUSH1 0x1 PUSH1 0xA0 PUSH1 0x2 EXP SUB DUP6 DUP2 AND PUSH1 0x60 DUP4 ADD MSTORE SWAP2 MLOAD DUP7 ISZERO ISZERO SWAP3 CALLER SWAP3 SWAP1 DUP12 AND SWAP2 PUSH32 0x62266BACEB3938A36F642A6B6857911FDA416BA3F0B192A5A5A8E27D51AD15F9 SWAP2 DUP2 SWAP1 SUB PUSH1 0x80 ADD SWAP1 LOG4 PUSH1 0x1 SWAP2 POP JUMPDEST POP SWAP6 SWAP5 POP POP POP POP POP JUMP JUMPDEST PUSH1 0x0 PUSH2 0x1025 PUSH2 0x2A6A JUMP JUMPDEST PUSH2 0x102D PUSH2 0x1230 JUMP JUMPDEST DUP4 GT ISZERO PUSH2 0x1039 JUMPI PUSH1 0x0 DUP1 REVERT JUMPDEST PUSH2 0x1042 DUP4 PUSH2 0x1E31 JUMP JUMPDEST ISZERO ISZERO PUSH1 0xC0 DUP9 ADD MSTORE PUSH1 0x1 PUSH1 0xA0 PUSH1 0x2 EXP SUB SWAP1 DUP2 AND PUSH1 0xA0 DUP9 ADD MSTORE SWAP1 ISZERO ISZERO PUSH1 0x80 DUP8 ADD MSTORE PUSH1 0x60 DUP7 ADD SWAP2 SWAP1 SWAP2 MSTORE PUSH1 0x40 DUP6 ADD DUP3 SWAP1 MSTORE SWAP2 DUP3 AND PUSH1 0x20 DUP6 ADD MSTORE SWAP2 AND DUP3 MSTORE ISZERO DUP1 PUSH2 0x108E JUMPI POP PUSH1 0xC0 DUP2 ADD MLOAD ISZERO ISZERO PUSH1 0x1 EQ JUMPDEST DUP1 PUSH2 0x10A3 JUMPI POP DUP1 MLOAD PUSH1 0x1 PUSH1 0xA0 PUSH1 0x2 EXP SUB AND CALLER EQ ISZERO JUMPDEST ISZERO PUSH2 0x10AD JUMPI PUSH1 0x0 DUP1 REVERT JUMPDEST DUP1 PUSH1 0x80 ADD MLOAD ISZERO ISZERO PUSH2 0x1162 JUMPI PUSH2 0x10D7 CALLER DUP3 PUSH1 0x20 ADD MLOAD PUSH2 0x627 DUP5 PUSH1 0x40 ADD MLOAD PUSH2 0x61B CALLER DUP8 PUSH1 0x20 ADD MLOAD PUSH2 0x1CA5 JUMP JUMPDEST POP PUSH1 0x20 DUP1 DUP3 ADD MLOAD PUSH1 0x40 DUP1 DUP5 ADD MLOAD DUP2 MLOAD PUSH1 0x0 DUP1 MLOAD PUSH1 0x20 PUSH2 0x2ADC DUP4 CODECOPY DUP2 MLOAD SWAP2 MSTORE DUP2 MSTORE CALLER PUSH1 0x4 DUP3 ADD MSTORE PUSH1 0x24 DUP2 ADD SWAP2 SWAP1 SWAP2 MSTORE SWAP1 MLOAD PUSH1 0x1 PUSH1 0xA0 PUSH1 0x2 EXP SUB SWAP1 SWAP3 AND SWAP3 PUSH4 0xA9059CBB SWAP3 PUSH1 0x44 DUP1 DUP5 ADD SWAP4 DUP3 SWAP1 SUB ADD DUP2 PUSH1 0x0 DUP8 DUP1 EXTCODESIZE ISZERO DUP1 ISZERO PUSH2 0x1135 JUMPI PUSH1 0x0 DUP1 REVERT JUMPDEST POP GAS CALL ISZERO DUP1 ISZERO PUSH2 0x1149 JUMPI RETURNDATASIZE PUSH1 0x0 DUP1 RETURNDATACOPY RETURNDATASIZE PUSH1 0x0 REVERT JUMPDEST POP POP POP POP PUSH1 0x40 MLOAD RETURNDATASIZE PUSH1 0x20 DUP2 LT ISZERO PUSH2 0x115F JUMPI PUSH1 0x0 DUP1 REVERT JUMPDEST POP POP JUMPDEST PUSH2 0x118B DUP4 DUP3 PUSH1 0x0 ADD MLOAD DUP4 PUSH1 0x20 ADD MLOAD DUP5 PUSH1 0x40 ADD MLOAD DUP6 PUSH1 0x60 ADD MLOAD DUP7 PUSH1 0x80 ADD MLOAD DUP8 PUSH1 0xA0 ADD MLOAD PUSH1 0x1 PUSH2 0x28B3 JUMP JUMPDEST POP DUP1 PUSH1 0x80 ADD MLOAD ISZERO ISZERO CALLER PUSH1 0x1 PUSH1 0xA0 PUSH1 0x2 EXP SUB AND DUP3 PUSH1 0x20 ADD MLOAD PUSH1 0x1 PUSH1 0xA0 PUSH1 0x2 EXP SUB AND PUSH32 0xACD757911D369D6B15D47ADA91171B7B67295B3F90B8499F6D52348F009C9445 DUP7 DUP6 PUSH1 0x60 ADD MLOAD DUP7 PUSH1 0x40 ADD MLOAD DUP8 PUSH1 0xA0 ADD MLOAD PUSH1 0x40 MLOAD DUP1 DUP6 DUP2 MSTORE PUSH1 0x20 ADD DUP5 DUP2 MSTORE PUSH1 0x20 ADD DUP4 DUP2 MSTORE PUSH1 0x20 ADD DUP3 PUSH1 0x1 PUSH1 0xA0 PUSH1 0x2 EXP SUB AND PUSH1 0x1 PUSH1 0xA0 PUSH1 0x2 EXP SUB AND DUP2 MSTORE PUSH1 0x20 ADD SWAP5 POP POP POP POP POP PUSH1 0x40 MLOAD DUP1 SWAP2 SUB SWAP1 LOG4 POP PUSH1 0x1 SWAP3 SWAP2 POP POP JUMP JUMPDEST PUSH1 0x3 SLOAD PUSH1 0x1 PUSH1 0xA0 PUSH1 0x2 EXP SUB AND DUP2 JUMP JUMPDEST PUSH1 0x0 PUSH1 0x4 PUSH1 0x0 SWAP1 SLOAD SWAP1 PUSH2 0x100 EXP SWAP1 DIV PUSH1 0x1 PUSH1 0xA0 PUSH1 0x2 EXP SUB AND PUSH1 0x1 PUSH1 0xA0 PUSH1 0x2 EXP SUB AND PUSH4 0x3D7FE973 PUSH1 0x40 MLOAD DUP2 PUSH4 0xFFFFFFFF AND PUSH1 0xE0 PUSH1 0x2 EXP MUL DUP2 MSTORE PUSH1 0x4 ADD PUSH1 0x20 PUSH1 0x40 MLOAD DUP1 DUP4 SUB DUP2 PUSH1 0x0 DUP8 DUP1 EXTCODESIZE ISZERO DUP1 ISZERO PUSH2 0x1285 JUMPI PUSH1 0x0 DUP1 REVERT JUMPDEST POP GAS CALL ISZERO DUP1 ISZERO PUSH2 0x1299 JUMPI RETURNDATASIZE PUSH1 0x0 DUP1 RETURNDATACOPY RETURNDATASIZE PUSH1 0x0 REVERT JUMPDEST POP POP POP POP PUSH1 0x40 MLOAD RETURNDATASIZE PUSH1 0x20 DUP2 LT ISZERO PUSH2 0x12AF JUMPI PUSH1 0x0 DUP1 REVERT JUMPDEST POP MLOAD SWAP1 POP SWAP1 JUMP JUMPDEST PUSH1 0x0 PUSH2 0x12C0 PUSH2 0x2A6A JUMP JUMPDEST PUSH1 0x5 SLOAD PUSH1 0x40 DUP1 MLOAD PUSH32 0xC23697A800000000000000000000000000000000000000000000000000000000 DUP2 MSTORE CALLER PUSH1 0x4 DUP3 ADD MSTORE SWAP1 MLOAD PUSH1 0x0 SWAP3 DUP4 SWAP3 PUSH1 0x1 PUSH1 0xA0 PUSH1 0x2 EXP SUB SWAP1 SWAP2 AND SWAP2 PUSH4 0xC23697A8 SWAP2 PUSH1 0x24 DUP1 DUP3 ADD SWAP3 PUSH1 0x20 SWAP3 SWAP1 SWAP2 SWAP1 DUP3 SWAP1 SUB ADD DUP2 DUP8 DUP8 DUP1 EXTCODESIZE ISZERO DUP1 ISZERO PUSH2 0x132A JUMPI PUSH1 0x0 DUP1 REVERT JUMPDEST POP GAS CALL ISZERO DUP1 ISZERO PUSH2 0x133E JUMPI RETURNDATASIZE PUSH1 0x0 DUP1 RETURNDATACOPY RETURNDATASIZE PUSH1 0x0 REVERT JUMPDEST POP POP POP POP PUSH1 0x40 MLOAD RETURNDATASIZE PUSH1 0x20 DUP2 LT ISZERO PUSH2 0x1354 JUMPI PUSH1 0x0 DUP1 REVERT JUMPDEST POP MLOAD PUSH1 0xFF AND ISZERO PUSH2 0x1363 JUMPI PUSH1 0x0 DUP1 REVERT JUMPDEST PUSH2 0x136B PUSH2 0x1230 JUMP JUMPDEST DUP8 GT ISZERO PUSH2 0x1377 JUMPI PUSH1 0x0 DUP1 REVERT JUMPDEST PUSH2 0x1380 DUP8 PUSH2 0x1E31 JUMP JUMPDEST ISZERO ISZERO PUSH1 0xC0 DUP11 ADD MSTORE PUSH1 0x1 PUSH1 0xA0 PUSH1 0x2 EXP SUB SWAP1 DUP2 AND PUSH1 0xA0 DUP11 ADD MSTORE SWAP1 ISZERO ISZERO PUSH1 0x80 DUP10 ADD MSTORE PUSH1 0x60 DUP9 ADD SWAP2 SWAP1 SWAP2 MSTORE PUSH1 0x40 DUP8 ADD SWAP2 SWAP1 SWAP2 MSTORE SWAP1 DUP2 AND PUSH1 0x20 DUP7 ADD MSTORE AND DUP1 DUP5 MSTORE ISZERO ISZERO PUSH2 0x13C6 JUMPI PUSH1 0x0 DUP1 REVERT JUMPDEST PUSH1 0x1 DUP6 ISZERO ISZERO EQ ISZERO PUSH2 0x16D1 JUMPI DUP6 ISZERO DUP1 PUSH2 0x13E5 JUMPI POP DUP5 ISZERO ISZERO DUP4 PUSH1 0x80 ADD MLOAD ISZERO ISZERO EQ JUMPDEST DUP1 PUSH2 0x13F9 JUMPI POP DUP3 MLOAD PUSH1 0x1 PUSH1 0xA0 PUSH1 0x2 EXP SUB AND CALLER EQ JUMPDEST DUP1 PUSH2 0x140A JUMPI POP PUSH1 0xC0 DUP4 ADD MLOAD ISZERO ISZERO PUSH1 0x1 EQ JUMPDEST DUP1 PUSH2 0x149F JUMPI POP PUSH1 0x3 SLOAD PUSH1 0xA0 DUP5 ADD MLOAD PUSH1 0x40 DUP1 MLOAD PUSH1 0x0 DUP1 MLOAD PUSH1 0x20 PUSH2 0x2AFC DUP4 CODECOPY DUP2 MLOAD SWAP2 MSTORE DUP2 MSTORE CALLER PUSH1 0x4 DUP3 ADD MSTORE PUSH1 0x1 PUSH1 0xA0 PUSH1 0x2 EXP SUB SWAP3 DUP4 AND PUSH1 0x24 DUP3 ADD MSTORE SWAP1 MLOAD SWAP2 SWAP1 SWAP3 AND SWAP2 PUSH4 0x2A3DE59F SWAP2 PUSH1 0x44 DUP1 DUP4 ADD SWAP3 PUSH1 0x20 SWAP3 SWAP2 SWAP1 DUP3 SWAP1 SUB ADD DUP2 PUSH1 0x0 DUP8 DUP1 EXTCODESIZE ISZERO DUP1 ISZERO PUSH2 0x1471 JUMPI PUSH1 0x0 DUP1 REVERT JUMPDEST POP GAS CALL ISZERO DUP1 ISZERO PUSH2 0x1485 JUMPI RETURNDATASIZE PUSH1 0x0 DUP1 RETURNDATACOPY RETURNDATASIZE PUSH1 0x0 REVERT JUMPDEST POP POP POP POP PUSH1 0x40 MLOAD RETURNDATASIZE PUSH1 0x20 DUP2 LT ISZERO PUSH2 0x149B JUMPI PUSH1 0x0 DUP1 REVERT JUMPDEST POP MLOAD ISZERO JUMPDEST DUP1 PUSH2 0x15B4 JUMPI POP PUSH1 0x2 PUSH1 0x0 SWAP1 SLOAD SWAP1 PUSH2 0x100 EXP SWAP1 DIV PUSH1 0x1 PUSH1 0xA0 PUSH1 0x2 EXP SUB AND PUSH1 0x1 PUSH1 0xA0 PUSH1 0x2 EXP SUB AND PUSH4 0xD3DA927F CALLER DUP6 PUSH1 0x20 ADD MLOAD PUSH1 0x1 PUSH1 0xA0 PUSH1 0x2 EXP SUB AND PUSH4 0x8DA5CB5B PUSH1 0x40 MLOAD DUP2 PUSH4 0xFFFFFFFF AND PUSH1 0xE0 PUSH1 0x2 EXP MUL DUP2 MSTORE PUSH1 0x4 ADD PUSH1 0x20 PUSH1 0x40 MLOAD DUP1 DUP4 SUB DUP2 PUSH1 0x0 DUP8 DUP1 EXTCODESIZE ISZERO DUP1 ISZERO PUSH2 0x150C JUMPI PUSH1 0x0 DUP1 REVERT JUMPDEST POP GAS CALL ISZERO DUP1 ISZERO PUSH2 0x1520 JUMPI RETURNDATASIZE PUSH1 0x0 DUP1 RETURNDATACOPY RETURNDATASIZE PUSH1 0x0 REVERT JUMPDEST POP POP POP POP PUSH1 0x40 MLOAD RETURNDATASIZE PUSH1 0x20 DUP2 LT ISZERO PUSH2 0x1536 JUMPI PUSH1 0x0 DUP1 REVERT JUMPDEST POP MLOAD PUSH1 0x40 DUP1 MLOAD PUSH1 0xE0 PUSH1 0x2 EXP PUSH4 0xFFFFFFFF DUP7 AND MUL DUP2 MSTORE PUSH1 0x1 PUSH1 0xA0 PUSH1 0x2 EXP SUB SWAP4 DUP5 AND PUSH1 0x4 DUP3 ADD MSTORE SWAP3 SWAP1 SWAP2 AND PUSH1 0x24 DUP4 ADD MSTORE MLOAD PUSH1 0x44 DUP1 DUP4 ADD SWAP3 PUSH1 0x20 SWAP3 SWAP2 SWAP1 DUP3 SWAP1 SUB ADD DUP2 PUSH1 0x0 DUP8 DUP1 EXTCODESIZE ISZERO DUP1 ISZERO PUSH2 0x1586 JUMPI PUSH1 0x0 DUP1 REVERT JUMPDEST POP GAS CALL ISZERO DUP1 ISZERO PUSH2 0x159A JUMPI RETURNDATASIZE PUSH1 0x0 DUP1 RETURNDATACOPY RETURNDATASIZE PUSH1 0x0 REVERT JUMPDEST POP POP POP POP PUSH1 0x40 MLOAD RETURNDATASIZE PUSH1 0x20 DUP2 LT ISZERO PUSH2 0x15B0 JUMPI PUSH1 0x0 DUP1 REVERT JUMPDEST POP MLOAD ISZERO JUMPDEST DUP1 PUSH2 0x15C9 JUMPI POP PUSH2 0x15C3 CALLER PUSH2 0x2716 JUMP JUMPDEST ISZERO ISZERO PUSH1 0x1 EQ JUMPDEST DUP1 PUSH2 0x1643 JUMPI POP DUP3 PUSH1 0x20 ADD MLOAD PUSH1 0x1 PUSH1 0xA0 PUSH1 0x2 EXP SUB AND PUSH4 0x34F6B21 PUSH1 0x40 MLOAD DUP2 PUSH4 0xFFFFFFFF AND PUSH1 0xE0 PUSH1 0x2 EXP MUL DUP2 MSTORE PUSH1 0x4 ADD PUSH1 0x20 PUSH1 0x40 MLOAD DUP1 DUP4 SUB DUP2 PUSH1 0x0 DUP8 DUP1 EXTCODESIZE ISZERO DUP1 ISZERO PUSH2 0x1611 JUMPI PUSH1 0x0 DUP1 REVERT JUMPDEST POP GAS CALL ISZERO DUP1 ISZERO PUSH2 0x1625 JUMPI RETURNDATASIZE PUSH1 0x0 DUP1 RETURNDATACOPY RETURNDATASIZE PUSH1 0x0 REVERT JUMPDEST POP POP POP POP PUSH1 0x40 MLOAD RETURNDATASIZE PUSH1 0x20 DUP2 LT ISZERO PUSH2 0x163B JUMPI PUSH1 0x0 DUP1 REVERT JUMPDEST POP MLOAD ISZERO ISZERO PUSH1 0x1 EQ JUMPDEST DUP1 PUSH2 0x16B9 JUMPI POP DUP3 PUSH1 0x20 ADD MLOAD PUSH1 0x1 PUSH1 0xA0 PUSH1 0x2 EXP SUB AND PUSH4 0x200D2ED2 PUSH1 0x40 MLOAD DUP2 PUSH4 0xFFFFFFFF AND PUSH1 0xE0 PUSH1 0x2 EXP MUL DUP2 MSTORE PUSH1 0x4 ADD PUSH1 0x20 PUSH1 0x40 MLOAD DUP1 DUP4 SUB DUP2 PUSH1 0x0 DUP8 DUP1 EXTCODESIZE ISZERO DUP1 ISZERO PUSH2 0x168B JUMPI PUSH1 0x0 DUP1 REVERT JUMPDEST POP GAS CALL ISZERO DUP1 ISZERO PUSH2 0x169F JUMPI RETURNDATASIZE PUSH1 0x0 DUP1 RETURNDATACOPY RETURNDATASIZE PUSH1 0x0 REVERT JUMPDEST POP POP POP POP PUSH1 0x40 MLOAD RETURNDATASIZE PUSH1 0x20 DUP2 LT ISZERO PUSH2 0x16B5 JUMPI PUSH1 0x0 DUP1 REVERT JUMPDEST POP MLOAD ISZERO JUMPDEST DUP1 PUSH2 0x16C7 JUMPI POP DUP6 DUP4 PUSH1 0x40 ADD MLOAD LT JUMPDEST ISZERO PUSH2 0x16D1 JUMPI PUSH1 0x0 DUP1 REVERT JUMPDEST DUP5 ISZERO ISZERO PUSH2 0x1A91 JUMPI DUP6 ISZERO DUP1 PUSH2 0x16EC JUMPI POP DUP5 ISZERO ISZERO DUP4 PUSH1 0x80 ADD MLOAD ISZERO ISZERO EQ JUMPDEST DUP1 PUSH2 0x1700 JUMPI POP DUP3 MLOAD PUSH1 0x1 PUSH1 0xA0 PUSH1 0x2 EXP SUB AND CALLER EQ JUMPDEST DUP1 PUSH2 0x1711 JUMPI POP PUSH1 0xC0 DUP4 ADD MLOAD ISZERO ISZERO PUSH1 0x1 EQ JUMPDEST DUP1 PUSH2 0x17A6 JUMPI POP PUSH1 0x3 SLOAD PUSH1 0xA0 DUP5 ADD MLOAD PUSH1 0x40 DUP1 MLOAD PUSH1 0x0 DUP1 MLOAD PUSH1 0x20 PUSH2 0x2AFC DUP4 CODECOPY DUP2 MLOAD SWAP2 MSTORE DUP2 MSTORE CALLER PUSH1 0x4 DUP3 ADD MSTORE PUSH1 0x1 PUSH1 0xA0 PUSH1 0x2 EXP SUB SWAP3 DUP4 AND PUSH1 0x24 DUP3 ADD MSTORE SWAP1 MLOAD SWAP2 SWAP1 SWAP3 AND SWAP2 PUSH4 0x2A3DE59F SWAP2 PUSH1 0x44 DUP1 DUP4 ADD SWAP3 PUSH1 0x20 SWAP3 SWAP2 SWAP1 DUP3 SWAP1 SUB ADD DUP2 PUSH1 0x0 DUP8 DUP1 EXTCODESIZE ISZERO DUP1 ISZERO PUSH2 0x1778 JUMPI PUSH1 0x0 DUP1 REVERT JUMPDEST POP GAS CALL ISZERO DUP1 ISZERO PUSH2 0x178C JUMPI RETURNDATASIZE PUSH1 0x0 DUP1 RETURNDATACOPY RETURNDATASIZE PUSH1 0x0 REVERT JUMPDEST POP POP POP POP PUSH1 0x40 MLOAD RETURNDATASIZE PUSH1 0x20 DUP2 LT ISZERO PUSH2 0x17A2 JUMPI PUSH1 0x0 DUP1 REVERT JUMPDEST POP MLOAD ISZERO JUMPDEST DUP1 PUSH2 0x18BB JUMPI POP PUSH1 0x2 PUSH1 0x0 SWAP1 SLOAD SWAP1 PUSH2 0x100 EXP SWAP1 DIV PUSH1 0x1 PUSH1 0xA0 PUSH1 0x2 EXP SUB AND PUSH1 0x1 PUSH1 0xA0 PUSH1 0x2 EXP SUB AND PUSH4 0xD3DA927F CALLER DUP6 PUSH1 0x20 ADD MLOAD PUSH1 0x1 PUSH1 0xA0 PUSH1 0x2 EXP SUB AND PUSH4 0x8DA5CB5B PUSH1 0x40 MLOAD DUP2 PUSH4 0xFFFFFFFF AND PUSH1 0xE0 PUSH1 0x2 EXP MUL DUP2 MSTORE PUSH1 0x4 ADD PUSH1 0x20 PUSH1 0x40 MLOAD DUP1 DUP4 SUB DUP2 PUSH1 0x0 DUP8 DUP1 EXTCODESIZE ISZERO DUP1 ISZERO PUSH2 0x1813 JUMPI PUSH1 0x0 DUP1 REVERT JUMPDEST POP GAS CALL ISZERO DUP1 ISZERO PUSH2 0x1827 JUMPI RETURNDATASIZE PUSH1 0x0 DUP1 RETURNDATACOPY RETURNDATASIZE PUSH1 0x0 REVERT JUMPDEST POP POP POP POP PUSH1 0x40 MLOAD RETURNDATASIZE PUSH1 0x20 DUP2 LT ISZERO PUSH2 0x183D JUMPI PUSH1 0x0 DUP1 REVERT JUMPDEST POP MLOAD PUSH1 0x40 DUP1 MLOAD PUSH1 0xE0 PUSH1 0x2 EXP PUSH4 0xFFFFFFFF DUP7 AND MUL DUP2 MSTORE PUSH1 0x1 PUSH1 0xA0 PUSH1 0x2 EXP SUB SWAP4 DUP5 AND PUSH1 0x4 DUP3 ADD MSTORE SWAP3 SWAP1 SWAP2 AND PUSH1 0x24 DUP4 ADD MSTORE MLOAD PUSH1 0x44 DUP1 DUP4 ADD SWAP3 PUSH1 0x20 SWAP3 SWAP2 SWAP1 DUP3 SWAP1 SUB ADD DUP2 PUSH1 0x0 DUP8 DUP1 EXTCODESIZE ISZERO DUP1 ISZERO PUSH2 0x188D JUMPI PUSH1 0x0 DUP1 REVERT JUMPDEST POP GAS CALL ISZERO DUP1 ISZERO PUSH2 0x18A1 JUMPI RETURNDATASIZE PUSH1 0x0 DUP1 RETURNDATACOPY RETURNDATASIZE PUSH1 0x0 REVERT JUMPDEST POP POP POP POP PUSH1 0x40 MLOAD RETURNDATASIZE PUSH1 0x20 DUP2 LT ISZERO PUSH2 0x18B7 JUMPI PUSH1 0x0 DUP1 REVERT JUMPDEST POP MLOAD ISZERO JUMPDEST DUP1 PUSH2 0x1935 JUMPI POP DUP3 PUSH1 0x20 ADD MLOAD PUSH1 0x1 PUSH1 0xA0 PUSH1 0x2 EXP SUB AND PUSH4 0x34F6B21 PUSH1 0x40 MLOAD DUP2 PUSH4 0xFFFFFFFF AND PUSH1 0xE0 PUSH1 0x2 EXP MUL DUP2 MSTORE PUSH1 0x4 ADD PUSH1 0x20 PUSH1 0x40 MLOAD DUP1 DUP4 SUB DUP2 PUSH1 0x0 DUP8 DUP1 EXTCODESIZE ISZERO DUP1 ISZERO PUSH2 0x1903 JUMPI PUSH1 0x0 DUP1 REVERT JUMPDEST POP GAS CALL ISZERO DUP1 ISZERO PUSH2 0x1917 JUMPI RETURNDATASIZE PUSH1 0x0 DUP1 RETURNDATACOPY RETURNDATASIZE PUSH1 0x0 REVERT JUMPDEST POP POP POP POP PUSH1 0x40 MLOAD RETURNDATASIZE PUSH1 0x20 DUP2 LT ISZERO PUSH2 0x192D JUMPI PUSH1 0x0 DUP1 REVERT JUMPDEST POP MLOAD ISZERO ISZERO PUSH1 0x1 EQ JUMPDEST DUP1 PUSH2 0x19AB JUMPI POP DUP3 PUSH1 0x20 ADD MLOAD PUSH1 0x1 PUSH1 0xA0 PUSH1 0x2 EXP SUB AND PUSH4 0x200D2ED2 PUSH1 0x40 MLOAD DUP2 PUSH4 0xFFFFFFFF AND PUSH1 0xE0 PUSH1 0x2 EXP MUL DUP2 MSTORE PUSH1 0x4 ADD PUSH1 0x20 PUSH1 0x40 MLOAD DUP1 DUP4 SUB DUP2 PUSH1 0x0 DUP8 DUP1 EXTCODESIZE ISZERO DUP1 ISZERO PUSH2 0x197D JUMPI PUSH1 0x0 DUP1 REVERT JUMPDEST POP GAS CALL ISZERO DUP1 ISZERO PUSH2 0x1991 JUMPI RETURNDATASIZE PUSH1 0x0 DUP1 RETURNDATACOPY RETURNDATASIZE PUSH1 0x0 REVERT JUMPDEST POP POP POP POP PUSH1 0x40 MLOAD RETURNDATASIZE PUSH1 0x20 DUP2 LT ISZERO PUSH2 0x19A7 JUMPI PUSH1 0x0 DUP1 REVERT JUMPDEST POP MLOAD ISZERO JUMPDEST DUP1 PUSH2 0x19C2 JUMPI POP DUP6 PUSH2 0x19C0 CALLER DUP6 PUSH1 0x20 ADD MLOAD PUSH2 0x2443 JUMP JUMPDEST LT JUMPDEST DUP1 PUSH2 0x19D0 JUMPI POP DUP6 DUP4 PUSH1 0x40 ADD MLOAD LT JUMPDEST ISZERO PUSH2 0x1A91 JUMPI DUP3 PUSH1 0x20 ADD MLOAD PUSH1 0x1 PUSH1 0xA0 PUSH1 0x2 EXP SUB AND PUSH4 0xA9059CBB CALLER PUSH2 0x19F7 CALLER DUP8 PUSH1 0x20 ADD MLOAD PUSH2 0x2443 JUMP JUMPDEST PUSH1 0x40 MLOAD DUP4 PUSH4 0xFFFFFFFF AND PUSH1 0xE0 PUSH1 0x2 EXP MUL DUP2 MSTORE PUSH1 0x4 ADD DUP1 DUP4 PUSH1 0x1 PUSH1 0xA0 PUSH1 0x2 EXP SUB AND PUSH1 0x1 PUSH1 0xA0 PUSH1 0x2 EXP SUB AND DUP2 MSTORE PUSH1 0x20 ADD DUP3 DUP2 MSTORE PUSH1 0x20 ADD SWAP3 POP POP POP PUSH1 0x20 PUSH1 0x40 MLOAD DUP1 DUP4 SUB DUP2 PUSH1 0x0 DUP8 DUP1 EXTCODESIZE ISZERO DUP1 ISZERO PUSH2 0x1A49 JUMPI PUSH1 0x0 DUP1 REVERT JUMPDEST POP GAS CALL ISZERO DUP1 ISZERO PUSH2 0x1A5D JUMPI RETURNDATASIZE PUSH1 0x0 DUP1 RETURNDATACOPY RETURNDATASIZE PUSH1 0x0 REVERT JUMPDEST POP POP POP POP PUSH1 0x40 MLOAD RETURNDATASIZE PUSH1 0x20 DUP2 LT ISZERO PUSH2 0x1A73 JUMPI PUSH1 0x0 DUP1 REVERT JUMPDEST POP POP PUSH1 0x20 DUP4 ADD MLOAD PUSH2 0x1A87 SWAP1 CALLER SWAP1 PUSH1 0x0 PUSH2 0x2789 JUMP JUMPDEST POP PUSH1 0x0 SWAP4 POP PUSH2 0x1C7D JUMP JUMPDEST PUSH2 0x1A9A DUP8 PUSH2 0x22A9 JUMP JUMPDEST PUSH1 0x1 ADD SWAP2 POP PUSH2 0x1AA9 DUP8 DUP4 PUSH2 0x2969 JUMP JUMPDEST POP PUSH1 0x1 SLOAD TIMESTAMP ADD SWAP1 POP PUSH2 0x1AC6 DUP8 DUP4 CALLER DUP10 DUP8 PUSH1 0x60 ADD MLOAD PUSH1 0x0 DUP1 DUP9 PUSH2 0x25A2 JUMP JUMPDEST POP PUSH2 0x1B05 DUP8 DUP5 PUSH1 0x0 ADD MLOAD DUP6 PUSH1 0x20 ADD MLOAD PUSH2 0x1AEC DUP11 DUP9 PUSH1 0x40 ADD MLOAD PUSH2 0x2667 SWAP1 SWAP2 SWAP1 PUSH4 0xFFFFFFFF AND JUMP JUMPDEST DUP8 PUSH1 0x60 ADD MLOAD DUP9 PUSH1 0x80 ADD MLOAD DUP10 PUSH1 0xA0 ADD MLOAD DUP11 PUSH1 0xC0 ADD MLOAD PUSH2 0x28B3 JUMP JUMPDEST POP DUP3 PUSH1 0x80 ADD MLOAD ISZERO PUSH2 0x1BE0 JUMPI PUSH1 0x20 DUP4 ADD MLOAD PUSH2 0x1B29 SWAP1 CALLER SWAP1 PUSH2 0xF8B DUP10 PUSH2 0x61B DUP5 DUP5 PUSH2 0x2443 JUMP JUMPDEST POP PUSH1 0x20 DUP4 ADD MLOAD PUSH2 0x1B43 SWAP1 CALLER SWAP1 PUSH2 0x627 DUP10 PUSH2 0xFA4 DUP5 DUP5 PUSH2 0x1CA5 JUMP JUMPDEST POP CALLER PUSH1 0x1 PUSH1 0xA0 PUSH1 0x2 EXP SUB AND DUP4 PUSH1 0x0 ADD MLOAD PUSH1 0x1 PUSH1 0xA0 PUSH1 0x2 EXP SUB AND DUP5 PUSH1 0x20 ADD MLOAD PUSH1 0x1 PUSH1 0xA0 PUSH1 0x2 EXP SUB AND PUSH32 0x8572520837758EE6D544B77E467AA6BB30EA06C0E78C287B0D2A7D106F25D166 DUP11 DUP7 DUP9 PUSH1 0x60 ADD MLOAD DUP13 DUP11 PUSH1 0xA0 ADD MLOAD PUSH1 0x40 MLOAD DUP1 DUP7 DUP2 MSTORE PUSH1 0x20 ADD DUP6 DUP2 MSTORE PUSH1 0x20 ADD DUP5 DUP2 MSTORE PUSH1 0x20 ADD DUP4 DUP2 MSTORE PUSH1 0x20 ADD DUP3 PUSH1 0x1 PUSH1 0xA0 PUSH1 0x2 EXP SUB AND PUSH1 0x1 PUSH1 0xA0 PUSH1 0x2 EXP SUB AND DUP2 MSTORE PUSH1 0x20 ADD SWAP6 POP POP POP POP POP POP PUSH1 0x40 MLOAD DUP1 SWAP2 SUB SWAP1 LOG4 PUSH2 0x1C78 JUMP JUMPDEST DUP3 PUSH1 0x0 ADD MLOAD PUSH1 0x1 PUSH1 0xA0 PUSH1 0x2 EXP SUB AND CALLER PUSH1 0x1 PUSH1 0xA0 PUSH1 0x2 EXP SUB AND DUP5 PUSH1 0x20 ADD MLOAD PUSH1 0x1 PUSH1 0xA0 PUSH1 0x2 EXP SUB AND PUSH32 0x8572520837758EE6D544B77E467AA6BB30EA06C0E78C287B0D2A7D106F25D166 DUP11 DUP7 DUP9 PUSH1 0x60 ADD MLOAD DUP13 DUP11 PUSH1 0xA0 ADD MLOAD PUSH1 0x40 MLOAD DUP1 DUP7 DUP2 MSTORE PUSH1 0x20 ADD DUP6 DUP2 MSTORE PUSH1 0x20 ADD DUP5 DUP2 MSTORE PUSH1 0x20 ADD DUP4 DUP2 MSTORE PUSH1 0x20 ADD DUP3 PUSH1 0x1 PUSH1 0xA0 PUSH1 0x2 EXP SUB AND PUSH1 0x1 PUSH1 0xA0 PUSH1 0x2 EXP SUB AND DUP2 MSTORE PUSH1 0x20 ADD SWAP6 POP POP POP POP POP POP PUSH1 0x40 MLOAD DUP1 SWAP2 SUB SWAP1 LOG4 JUMPDEST PUSH1 0x1 SWAP4 POP JUMPDEST POP POP POP SWAP4 SWAP3 POP POP POP JUMP JUMPDEST PUSH1 0x4 SLOAD PUSH1 0x1 PUSH1 0xA0 PUSH1 0x2 EXP SUB AND DUP2 JUMP JUMPDEST PUSH1 0x0 SLOAD PUSH1 0x1 PUSH1 0xA0 PUSH1 0x2 EXP SUB AND DUP2 JUMP JUMPDEST PUSH1 0x4 DUP1 SLOAD PUSH1 0x40 DUP1 MLOAD PUSH32 0x97D901200000000000000000000000000000000000000000000000000000000 DUP2 MSTORE PUSH1 0x1 PUSH1 0xA0 PUSH1 0x2 EXP SUB DUP7 DUP2 AND SWAP5 DUP3 ADD SWAP5 SWAP1 SWAP5 MSTORE DUP5 DUP5 AND PUSH1 0x24 DUP3 ADD MSTORE SWAP1 MLOAD PUSH1 0x0 SWAP4 SWAP1 SWAP3 AND SWAP2 PUSH4 0x97D9012 SWAP2 PUSH1 0x44 DUP1 DUP3 ADD SWAP3 PUSH1 0x20 SWAP3 SWAP1 SWAP2 SWAP1 DUP3 SWAP1 SUB ADD DUP2 DUP8 DUP8 DUP1 EXTCODESIZE ISZERO DUP1 ISZERO PUSH2 0x1D1A JUMPI PUSH1 0x0 DUP1 REVERT JUMPDEST POP GAS CALL ISZERO DUP1 ISZERO PUSH2 0x1D2E JUMPI RETURNDATASIZE PUSH1 0x0 DUP1 RETURNDATACOPY RETURNDATASIZE PUSH1 0x0 REVERT JUMPDEST POP POP POP POP PUSH1 0x40 MLOAD RETURNDATASIZE PUSH1 0x20 DUP2 LT ISZERO PUSH2 0x1D44 JUMPI PUSH1 0x0 DUP1 REVERT JUMPDEST POP MLOAD SWAP4 SWAP3 POP POP POP JUMP JUMPDEST PUSH1 0x0 DUP1 PUSH1 0x0 DUP1 PUSH1 0x0 DUP1 PUSH1 0x4 PUSH1 0x0 SWAP1 SLOAD SWAP1 PUSH2 0x100 EXP SWAP1 DIV PUSH1 0x1 PUSH1 0xA0 PUSH1 0x2 EXP SUB AND PUSH1 0x1 PUSH1 0xA0 PUSH1 0x2 EXP SUB AND PUSH4 0xBF18E24E DUP10 DUP10 PUSH1 0x40 MLOAD DUP4 PUSH4 0xFFFFFFFF AND PUSH1 0xE0 PUSH1 0x2 EXP MUL DUP2 MSTORE PUSH1 0x4 ADD DUP1 DUP4 DUP2 MSTORE PUSH1 0x20 ADD DUP3 DUP2 MSTORE PUSH1 0x20 ADD SWAP3 POP POP POP PUSH1 0xC0 PUSH1 0x40 MLOAD DUP1 DUP4 SUB DUP2 PUSH1 0x0 DUP8 DUP1 EXTCODESIZE ISZERO DUP1 ISZERO PUSH2 0x1DBC JUMPI PUSH1 0x0 DUP1 REVERT JUMPDEST POP GAS CALL ISZERO DUP1 ISZERO PUSH2 0x1DD0 JUMPI RETURNDATASIZE PUSH1 0x0 DUP1 RETURNDATACOPY RETURNDATASIZE PUSH1 0x0 REVERT JUMPDEST POP POP POP POP PUSH1 0x40 MLOAD RETURNDATASIZE PUSH1 0xC0 DUP2 LT ISZERO PUSH2 0x1DE6 JUMPI PUSH1 0x0 DUP1 REVERT JUMPDEST POP DUP1 MLOAD PUSH1 0x20 DUP3 ADD MLOAD PUSH1 0x40 DUP4 ADD MLOAD PUSH1 0x60 DUP5 ADD MLOAD PUSH1 0x80 DUP6 ADD MLOAD PUSH1 0xA0 SWAP1 SWAP6 ADD MLOAD SWAP4 SWAP14 SWAP3 SWAP13 POP SWAP1 SWAP11 POP SWAP9 POP SWAP2 SWAP7 POP SWAP5 POP SWAP3 POP POP POP JUMP JUMPDEST PUSH2 0x1E2B DUP4 CALLER PUSH2 0xF8B DUP6 PUSH2 0xFA4 DUP9 CALLER PUSH2 0x2443 JUMP JUMPDEST POP POP POP POP JUMP JUMPDEST PUSH1 0x0 DUP1 PUSH1 0x0 DUP1 PUSH1 0x0 DUP1 PUSH1 0x0 PUSH1 0x4 PUSH1 0x0 SWAP1 SLOAD SWAP1 PUSH2 0x100 EXP SWAP1 DIV PUSH1 0x1 PUSH1 0xA0 PUSH1 0x2 EXP SUB AND PUSH1 0x1 PUSH1 0xA0 PUSH1 0x2 EXP SUB AND PUSH4 0xD09EF241 DUP10 PUSH1 0x40 MLOAD DUP3 PUSH4 0xFFFFFFFF AND PUSH1 0xE0 PUSH1 0x2 EXP MUL DUP2 MSTORE PUSH1 0x4 ADD DUP1 DUP3 DUP2 MSTORE PUSH1 0x20 ADD SWAP2 POP POP PUSH1 0xE0 PUSH1 0x40 MLOAD DUP1 DUP4 SUB DUP2 PUSH1 0x0 DUP8 DUP1 EXTCODESIZE ISZERO DUP1 ISZERO PUSH2 0x1E9A JUMPI PUSH1 0x0 DUP1 REVERT JUMPDEST POP GAS CALL ISZERO DUP1 ISZERO PUSH2 0x1EAE JUMPI RETURNDATASIZE PUSH1 0x0 DUP1 RETURNDATACOPY RETURNDATASIZE PUSH1 0x0 REVERT JUMPDEST POP POP POP POP PUSH1 0x40 MLOAD RETURNDATASIZE PUSH1 0xE0 DUP2 LT ISZERO PUSH2 0x1EC4 JUMPI PUSH1 0x0 DUP1 REVERT JUMPDEST POP DUP1 MLOAD PUSH1 0x20 DUP3 ADD MLOAD PUSH1 0x40 DUP4 ADD MLOAD PUSH1 0x60 DUP5 ADD MLOAD PUSH1 0x80 DUP6 ADD MLOAD PUSH1 0xA0 DUP7 ADD MLOAD PUSH1 0xC0 SWAP1 SWAP7 ADD MLOAD SWAP5 SWAP15 SWAP4 SWAP14 POP SWAP2 SWAP12 POP SWAP10 POP SWAP8 POP SWAP2 SWAP6 POP SWAP4 POP SWAP2 POP POP JUMP JUMPDEST PUSH1 0x0 PUSH2 0x1F06 PUSH2 0x2A6A JUMP JUMPDEST PUSH2 0x1F0E PUSH2 0x2AA6 JUMP JUMPDEST PUSH2 0x1F16 PUSH2 0x1230 JUMP JUMPDEST DUP6 GT ISZERO PUSH2 0x1F22 JUMPI PUSH1 0x0 DUP1 REVERT JUMPDEST PUSH2 0x1F2B DUP6 PUSH2 0x22A9 JUMP JUMPDEST DUP5 GT ISZERO PUSH2 0x1F37 JUMPI PUSH1 0x0 DUP1 REVERT JUMPDEST PUSH2 0x1F40 DUP6 PUSH2 0x1E31 JUMP JUMPDEST ISZERO ISZERO PUSH1 0xC0 DUP10 ADD MSTORE PUSH1 0x1 PUSH1 0xA0 PUSH1 0x2 EXP SUB SWAP1 DUP2 AND PUSH1 0xA0 DUP10 ADD MSTORE SWAP1 ISZERO ISZERO PUSH1 0x80 DUP9 ADD MSTORE PUSH1 0x60 DUP8 ADD SWAP2 SWAP1 SWAP2 MSTORE PUSH1 0x40 DUP7 ADD SWAP2 SWAP1 SWAP2 MSTORE SWAP1 DUP2 AND PUSH1 0x20 DUP6 ADD MSTORE AND DUP3 MSTORE PUSH2 0x1F84 DUP6 DUP6 PUSH2 0x1D4D JUMP JUMPDEST PUSH1 0xA0 DUP8 ADD MSTORE ISZERO ISZERO PUSH1 0x80 DUP7 ADD DUP2 SWAP1 MSTORE SWAP1 ISZERO ISZERO PUSH1 0x60 DUP7 ADD MSTORE PUSH1 0x40 DUP6 ADD SWAP2 SWAP1 SWAP2 MSTORE PUSH1 0x20 DUP5 ADD SWAP2 SWAP1 SWAP2 MSTORE PUSH1 0x1 PUSH1 0xA0 PUSH1 0x2 EXP SUB SWAP1 SWAP2 AND DUP3 MSTORE DUP1 PUSH2 0x1FC3 JUMPI POP DUP1 PUSH1 0x60 ADD MLOAD JUMPDEST DUP1 PUSH2 0x1FE4 JUMPI POP DUP2 PUSH1 0xA0 ADD MLOAD PUSH1 0x1 PUSH1 0xA0 PUSH1 0x2 EXP SUB AND CALLER PUSH1 0x1 PUSH1 0xA0 PUSH1 0x2 EXP SUB AND EQ ISZERO JUMPDEST ISZERO PUSH2 0x1FEE JUMPI PUSH1 0x0 DUP1 REVERT JUMPDEST PUSH2 0x2013 DUP6 DUP6 DUP4 PUSH1 0x0 ADD MLOAD DUP5 PUSH1 0x20 ADD MLOAD DUP6 PUSH1 0x40 ADD MLOAD DUP7 PUSH1 0x60 ADD MLOAD PUSH1 0x1 DUP9 PUSH1 0xA0 ADD MLOAD PUSH2 0x25A2 JUMP JUMPDEST POP DUP2 PUSH1 0x80 ADD MLOAD ISZERO PUSH2 0x214F JUMPI DUP1 MLOAD PUSH1 0x20 DUP1 DUP5 ADD MLOAD SWAP1 DUP4 ADD MLOAD PUSH2 0x203E SWAP3 SWAP2 SWAP1 PUSH2 0x627 SWAP1 PUSH2 0x61B DUP5 DUP5 PUSH2 0x1CA5 JUMP JUMPDEST POP PUSH1 0x20 DUP1 DUP4 ADD MLOAD DUP4 MLOAD DUP4 DUP4 ADD MLOAD PUSH1 0x40 DUP1 MLOAD PUSH1 0x0 DUP1 MLOAD PUSH1 0x20 PUSH2 0x2ADC DUP4 CODECOPY DUP2 MLOAD SWAP2 MSTORE DUP2 MSTORE PUSH1 0x1 PUSH1 0xA0 PUSH1 0x2 EXP SUB SWAP4 DUP5 AND PUSH1 0x4 DUP3 ADD MSTORE PUSH1 0x24 DUP2 ADD SWAP3 SWAP1 SWAP3 MSTORE MLOAD SWAP2 SWAP1 SWAP3 AND SWAP3 PUSH4 0xA9059CBB SWAP3 PUSH1 0x44 DUP1 DUP3 ADD SWAP4 SWAP2 DUP3 SWAP1 SUB ADD DUP2 PUSH1 0x0 DUP8 DUP1 EXTCODESIZE ISZERO DUP1 ISZERO PUSH2 0x20A1 JUMPI PUSH1 0x0 DUP1 REVERT JUMPDEST POP GAS CALL ISZERO DUP1 ISZERO PUSH2 0x20B5 JUMPI RETURNDATASIZE PUSH1 0x0 DUP1 RETURNDATACOPY RETURNDATASIZE PUSH1 0x0 REVERT JUMPDEST POP POP POP POP PUSH1 0x40 MLOAD RETURNDATASIZE PUSH1 0x20 DUP2 LT ISZERO PUSH2 0x20CB JUMPI PUSH1 0x0 DUP1 REVERT JUMPDEST POP POP DUP1 MLOAD DUP3 MLOAD PUSH1 0x20 DUP1 DUP6 ADD MLOAD PUSH1 0x60 DUP1 DUP8 ADD MLOAD DUP4 DUP8 ADD MLOAD PUSH1 0xA0 DUP1 DUP11 ADD MLOAD PUSH1 0x40 DUP1 MLOAD DUP16 DUP2 MSTORE SWAP8 DUP9 ADD DUP15 SWAP1 MSTORE DUP8 DUP2 ADD SWAP5 SWAP1 SWAP5 MSTORE SWAP4 DUP7 ADD SWAP2 SWAP1 SWAP2 MSTORE PUSH1 0x1 PUSH1 0xA0 PUSH1 0x2 EXP SUB SWAP3 DUP4 AND PUSH1 0x80 DUP7 ADD MSTORE SWAP1 MLOAD SWAP6 DUP3 AND SWAP6 SWAP5 DUP3 AND SWAP5 SWAP2 SWAP1 SWAP3 AND SWAP3 PUSH32 0x1F33FCBCE82033CD7B26AE868BA28784C1E405A5A631CB7063527B4ACEB0B5CC SWAP3 SWAP1 DUP3 SWAP1 SUB ADD SWAP1 LOG4 PUSH2 0x227C JUMP JUMPDEST DUP2 MLOAD PUSH1 0x20 DUP1 DUP5 ADD MLOAD SWAP1 DUP4 ADD MLOAD PUSH2 0x216F SWAP3 SWAP2 SWAP1 PUSH2 0x627 SWAP1 PUSH2 0x61B DUP5 DUP5 PUSH2 0x1CA5 JUMP JUMPDEST POP PUSH1 0x20 DUP1 DUP4 ADD MLOAD DUP3 MLOAD DUP4 DUP4 ADD MLOAD PUSH1 0x40 DUP1 MLOAD PUSH1 0x0 DUP1 MLOAD PUSH1 0x20 PUSH2 0x2ADC DUP4 CODECOPY DUP2 MLOAD SWAP2 MSTORE DUP2 MSTORE PUSH1 0x1 PUSH1 0xA0 PUSH1 0x2 EXP SUB SWAP4 DUP5 AND PUSH1 0x4 DUP3 ADD MSTORE PUSH1 0x24 DUP2 ADD SWAP3 SWAP1 SWAP3 MSTORE MLOAD SWAP2 SWAP1 SWAP3 AND SWAP3 PUSH4 0xA9059CBB SWAP3 PUSH1 0x44 DUP1 DUP3 ADD SWAP4 SWAP2 DUP3 SWAP1 SUB ADD DUP2 PUSH1 0x0 DUP8 DUP1 EXTCODESIZE ISZERO DUP1 ISZERO PUSH2 0x21D2 JUMPI PUSH1 0x0 DUP1 REVERT JUMPDEST POP GAS CALL ISZERO DUP1 ISZERO PUSH2 0x21E6 JUMPI RETURNDATASIZE PUSH1 0x0 DUP1 RETURNDATACOPY RETURNDATASIZE PUSH1 0x0 REVERT JUMPDEST POP POP POP POP PUSH1 0x40 MLOAD RETURNDATASIZE PUSH1 0x20 DUP2 LT ISZERO PUSH2 0x21FC JUMPI PUSH1 0x0 DUP1 REVERT JUMPDEST POP POP DUP2 MLOAD DUP2 MLOAD PUSH1 0x20 DUP1 DUP6 ADD MLOAD PUSH1 0x60 DUP1 DUP8 ADD MLOAD DUP4 DUP8 ADD MLOAD PUSH1 0xA0 DUP1 DUP11 ADD MLOAD PUSH1 0x40 DUP1 MLOAD DUP16 DUP2 MSTORE SWAP8 DUP9 ADD DUP15 SWAP1 MSTORE DUP8 DUP2 ADD SWAP5 SWAP1 SWAP5 MSTORE SWAP4 DUP7 ADD SWAP2 SWAP1 SWAP2 MSTORE PUSH1 0x1 PUSH1 0xA0 PUSH1 0x2 EXP SUB SWAP3 DUP4 AND PUSH1 0x80 DUP7 ADD MSTORE SWAP1 MLOAD SWAP6 DUP3 AND SWAP6 SWAP5 DUP3 AND SWAP5 SWAP2 SWAP1 SWAP3 AND SWAP3 PUSH32 0x1F33FCBCE82033CD7B26AE868BA28784C1E405A5A631CB7063527B4ACEB0B5CC SWAP3 SWAP1 DUP3 SWAP1 SUB ADD SWAP1 LOG4 JUMPDEST PUSH2 0x228E DUP3 PUSH1 0x20 ADD MLOAD DUP4 PUSH1 0x60 ADD MLOAD PUSH2 0x29F7 JUMP JUMPDEST POP PUSH1 0x1 SWAP6 SWAP5 POP POP POP POP POP JUMP JUMPDEST PUSH1 0x5 SLOAD PUSH1 0x1 PUSH1 0xA0 PUSH1 0x2 EXP SUB AND DUP2 JUMP JUMPDEST PUSH1 0x4 DUP1 SLOAD PUSH1 0x40 DUP1 MLOAD PUSH32 0xC9EE7C9A00000000000000000000000000000000000000000000000000000000 DUP2 MSTORE SWAP3 DUP4 ADD DUP5 SWAP1 MSTORE MLOAD PUSH1 0x0 SWAP3 PUSH1 0x1 PUSH1 0xA0 PUSH1 0x2 EXP SUB SWAP1 SWAP3 AND SWAP2 PUSH4 0xC9EE7C9A SWAP2 PUSH1 0x24 DUP1 DUP4 ADD SWAP3 PUSH1 0x20 SWAP3 SWAP2 SWAP1 DUP3 SWAP1 SUB ADD DUP2 DUP8 DUP8 DUP1 EXTCODESIZE ISZERO DUP1 ISZERO PUSH2 0x2310 JUMPI PUSH1 0x0 DUP1 REVERT JUMPDEST POP GAS CALL ISZERO DUP1 ISZERO PUSH2 0x2324 JUMPI RETURNDATASIZE PUSH1 0x0 DUP1 RETURNDATACOPY RETURNDATASIZE PUSH1 0x0 REVERT JUMPDEST POP POP POP POP PUSH1 0x40 MLOAD RETURNDATASIZE PUSH1 0x20 DUP2 LT ISZERO PUSH2 0x233A JUMPI PUSH1 0x0 DUP1 REVERT JUMPDEST POP MLOAD SWAP3 SWAP2 POP POP JUMP JUMPDEST PUSH1 0x0 SLOAD PUSH1 0x1 PUSH1 0xA0 PUSH1 0x2 EXP SUB AND CALLER EQ PUSH2 0x2359 JUMPI PUSH1 0x0 DUP1 REVERT JUMPDEST PUSH1 0x1 PUSH1 0xA0 PUSH1 0x2 EXP SUB DUP2 AND ISZERO ISZERO PUSH2 0x236E JUMPI PUSH1 0x0 DUP1 REVERT JUMPDEST PUSH1 0x0 DUP1 SLOAD PUSH1 0x40 MLOAD PUSH1 0x1 PUSH1 0xA0 PUSH1 0x2 EXP SUB DUP1 DUP6 AND SWAP4 SWAP3 AND SWAP2 PUSH32 0x8BE0079C531659141344CD1FD0A4F28419497F9722A3DAAFE3B4186F6B6457E0 SWAP2 LOG3 PUSH1 0x0 DUP1 SLOAD PUSH20 0xFFFFFFFFFFFFFFFFFFFFFFFFFFFFFFFFFFFFFFFF NOT AND PUSH1 0x1 PUSH1 0xA0 PUSH1 0x2 EXP SUB SWAP3 SWAP1 SWAP3 AND SWAP2 SWAP1 SWAP2 OR SWAP1 SSTORE JUMP JUMPDEST PUSH1 0x4 DUP1 SLOAD PUSH1 0x40 DUP1 MLOAD PUSH32 0xC692FC7400000000000000000000000000000000000000000000000000000000 DUP2 MSTORE PUSH1 0x1 PUSH1 0xA0 PUSH1 0x2 EXP SUB DUP6 DUP2 AND SWAP5 DUP3 ADD SWAP5 SWAP1 SWAP5 MSTORE SWAP1 MLOAD PUSH1 0x0 SWAP4 SWAP1 SWAP3 AND SWAP2 PUSH4 0xC692FC74 SWAP2 PUSH1 0x24 DUP1 DUP3 ADD SWAP3 PUSH1 0x20 SWAP3 SWAP1 SWAP2 SWAP1 DUP3 SWAP1 SUB ADD DUP2 DUP8 DUP8 DUP1 EXTCODESIZE ISZERO DUP1 ISZERO PUSH2 0x2310 JUMPI PUSH1 0x0 DUP1 REVERT JUMPDEST PUSH1 0x4 DUP1 SLOAD PUSH1 0x40 DUP1 MLOAD PUSH32 0xD4FAC45D00000000000000000000000000000000000000000000000000000000 DUP2 MSTORE PUSH1 0x1 PUSH1 0xA0 PUSH1 0x2 EXP SUB DUP7 DUP2 AND SWAP5 DUP3 ADD SWAP5 SWAP1 SWAP5 MSTORE DUP5 DUP5 AND PUSH1 0x24 DUP3 ADD MSTORE SWAP1 MLOAD PUSH1 0x0 SWAP4 SWAP1 SWAP3 AND SWAP2 PUSH4 0xD4FAC45D SWAP2 PUSH1 0x44 DUP1 DUP3 ADD SWAP3 PUSH1 0x20 SWAP3 SWAP1 SWAP2 SWAP1 DUP3 SWAP1 SUB ADD DUP2 DUP8 DUP8 DUP1 EXTCODESIZE ISZERO DUP1 ISZERO PUSH2 0x1D1A JUMPI PUSH1 0x0 DUP1 REVERT JUMPDEST PUSH1 0x0 DUP1 PUSH2 0x24C5 CALLER DUP5 PUSH2 0x2443 JUMP JUMPDEST SWAP1 POP DUP1 ISZERO ISZERO PUSH2 0x24D3 JUMPI PUSH1 0x0 DUP1 REVERT JUMPDEST PUSH1 0x40 DUP1 MLOAD PUSH1 0x0 DUP1 MLOAD PUSH1 0x20 PUSH2 0x2ADC DUP4 CODECOPY DUP2 MLOAD SWAP2 MSTORE DUP2 MSTORE CALLER PUSH1 0x4 DUP3 ADD MSTORE PUSH1 0x24 DUP2 ADD DUP4 SWAP1 MSTORE SWAP1 MLOAD PUSH1 0x1 PUSH1 0xA0 PUSH1 0x2 EXP SUB DUP6 AND SWAP2 PUSH4 0xA9059CBB SWAP2 PUSH1 0x44 DUP1 DUP4 ADD SWAP3 PUSH1 0x20 SWAP3 SWAP2 SWAP1 DUP3 SWAP1 SUB ADD DUP2 PUSH1 0x0 DUP8 DUP1 EXTCODESIZE ISZERO DUP1 ISZERO PUSH2 0x2529 JUMPI PUSH1 0x0 DUP1 REVERT JUMPDEST POP GAS CALL ISZERO DUP1 ISZERO PUSH2 0x253D JUMPI RETURNDATASIZE PUSH1 0x0 DUP1 RETURNDATACOPY RETURNDATASIZE PUSH1 0x0 REVERT JUMPDEST POP POP POP POP PUSH1 0x40 MLOAD RETURNDATASIZE PUSH1 0x20 DUP2 LT ISZERO PUSH2 0x2553 JUMPI PUSH1 0x0 DUP1 REVERT JUMPDEST POP PUSH2 0x2562 SWAP1 POP CALLER DUP5 PUSH1 0x0 PUSH2 0x2789 JUMP JUMPDEST POP PUSH1 0x40 MLOAD CALLER SWAP1 PUSH1 0x1 PUSH1 0xA0 PUSH1 0x2 EXP SUB DUP6 AND SWAP1 PUSH32 0xFEE4BD730C5342548069B84E6A6B38C19507A6FE4BBBC4AB6F648B1ED2AD5FC8 SWAP1 PUSH1 0x0 SWAP1 LOG3 POP PUSH1 0x1 SWAP3 SWAP2 POP POP JUMP JUMPDEST PUSH1 0x4 DUP1 SLOAD PUSH1 0x40 DUP1 MLOAD PUSH32 0x4F75847800000000000000000000000000000000000000000000000000000000 DUP2 MSTORE SWAP3 DUP4 ADD DUP12 SWAP1 MSTORE PUSH1 0x24 DUP4 ADD DUP11 SWAP1 MSTORE PUSH1 0x1 PUSH1 0xA0 PUSH1 0x2 EXP SUB DUP10 DUP2 AND PUSH1 0x44 DUP6 ADD MSTORE PUSH1 0x64 DUP5 ADD DUP10 SWAP1 MSTORE PUSH1 0x84 DUP5 ADD DUP9 SWAP1 MSTORE DUP7 ISZERO ISZERO PUSH1 0xA4 DUP6 ADD MSTORE DUP6 ISZERO ISZERO PUSH1 0xC4 DUP6 ADD MSTORE PUSH1 0xE4 DUP5 ADD DUP6 SWAP1 MSTORE SWAP1 MLOAD PUSH1 0x0 SWAP4 SWAP2 SWAP1 SWAP3 AND SWAP2 PUSH4 0x4F758478 SWAP2 PUSH2 0x104 DUP1 DUP3 ADD SWAP3 DUP7 SWAP3 SWAP1 SWAP2 SWAP1 DUP3 SWAP1 SUB ADD DUP2 DUP4 DUP8 DUP1 EXTCODESIZE ISZERO DUP1 ISZERO PUSH2 0x2640 JUMPI PUSH1 0x0 DUP1 REVERT JUMPDEST POP GAS CALL ISZERO DUP1 ISZERO PUSH2 0x2654 JUMPI RETURNDATASIZE PUSH1 0x0 DUP1 RETURNDATACOPY RETURNDATASIZE PUSH1 0x0 REVERT JUMPDEST POP PUSH1 0x1 SWAP13 SWAP12 POP POP POP POP POP POP POP POP POP POP POP POP JUMP JUMPDEST PUSH1 0x0 DUP3 DUP3 GT ISZERO PUSH2 0x2673 JUMPI INVALID JUMPDEST POP SWAP1 SUB SWAP1 JUMP JUMPDEST PUSH1 0x4 DUP1 SLOAD PUSH1 0x40 DUP1 MLOAD PUSH32 0xD04C23AF00000000000000000000000000000000000000000000000000000000 DUP2 MSTORE PUSH1 0x1 PUSH1 0xA0 PUSH1 0x2 EXP SUB DUP8 DUP2 AND SWAP5 DUP3 ADD SWAP5 SWAP1 SWAP5 MSTORE DUP6 DUP5 AND PUSH1 0x24 DUP3 ADD MSTORE PUSH1 0x44 DUP2 ADD DUP6 SWAP1 MSTORE SWAP1 MLOAD PUSH1 0x0 SWAP4 SWAP1 SWAP3 AND SWAP2 PUSH4 0xD04C23AF SWAP2 PUSH1 0x64 DUP1 DUP3 ADD SWAP3 DUP7 SWAP3 SWAP1 SWAP2 SWAP1 DUP3 SWAP1 SUB ADD DUP2 DUP4 DUP8 DUP1 EXTCODESIZE ISZERO DUP1 ISZERO PUSH2 0x26F4 JUMPI PUSH1 0x0 DUP1 REVERT JUMPDEST POP GAS CALL ISZERO DUP1 ISZERO PUSH2 0x2708 JUMPI RETURNDATASIZE PUSH1 0x0 DUP1 RETURNDATACOPY RETURNDATASIZE PUSH1 0x0 REVERT JUMPDEST POP PUSH1 0x1 SWAP8 SWAP7 POP POP POP POP POP POP POP JUMP JUMPDEST PUSH1 0x0 SWAP1 EXTCODESIZE GT SWAP1 JUMP JUMPDEST PUSH1 0x3 SLOAD PUSH1 0x40 DUP1 MLOAD PUSH32 0xFB3551FF00000000000000000000000000000000000000000000000000000000 DUP2 MSTORE PUSH1 0x1 PUSH1 0xA0 PUSH1 0x2 EXP SUB DUP5 DUP2 AND PUSH1 0x4 DUP4 ADD MSTORE SWAP2 MLOAD PUSH1 0x0 SWAP4 SWAP3 SWAP1 SWAP3 AND SWAP2 PUSH4 0xFB3551FF SWAP2 PUSH1 0x24 DUP1 DUP3 ADD SWAP3 PUSH1 0x20 SWAP3 SWAP1 SWAP2 SWAP1 DUP3 SWAP1 SUB ADD DUP2 DUP8 DUP8 DUP1 EXTCODESIZE ISZERO DUP1 ISZERO PUSH2 0x2310 JUMPI PUSH1 0x0 DUP1 REVERT JUMPDEST PUSH1 0x4 DUP1 SLOAD PUSH1 0x40 DUP1 MLOAD PUSH32 0xB5C9CBBE00000000000000000000000000000000000000000000000000000000 DUP2 MSTORE PUSH1 0x1 PUSH1 0xA0 PUSH1 0x2 EXP SUB DUP8 DUP2 AND SWAP5 DUP3 ADD SWAP5 SWAP1 SWAP5 MSTORE DUP6 DUP5 AND PUSH1 0x24 DUP3 ADD MSTORE PUSH1 0x44 DUP2 ADD DUP6 SWAP1 MSTORE SWAP1 MLOAD PUSH1 0x0 SWAP4 SWAP1 SWAP3 AND SWAP2 PUSH4 0xB5C9CBBE SWAP2 PUSH1 0x64 DUP1 DUP3 ADD SWAP3 PUSH1 0x20 SWAP3 SWAP1 SWAP2 SWAP1 DUP3 SWAP1 SUB ADD DUP2 DUP8 DUP8 DUP1 EXTCODESIZE ISZERO DUP1 ISZERO PUSH2 0x2805 JUMPI PUSH1 0x0 DUP1 REVERT JUMPDEST POP GAS CALL ISZERO DUP1 ISZERO PUSH2 0x2819 JUMPI RETURNDATASIZE PUSH1 0x0 DUP1 RETURNDATACOPY RETURNDATASIZE PUSH1 0x0 REVERT JUMPDEST POP POP POP POP PUSH1 0x40 MLOAD RETURNDATASIZE PUSH1 0x20 DUP2 LT ISZERO PUSH2 0x282F JUMPI PUSH1 0x0 DUP1 REVERT JUMPDEST POP MLOAD SWAP5 SWAP4 POP POP POP POP JUMP JUMPDEST PUSH1 0x4 DUP1 SLOAD PUSH1 0x40 DUP1 MLOAD PUSH32 0xB953009100000000000000000000000000000000000000000000000000000000 DUP2 MSTORE SWAP3 DUP4 ADD DUP5 SWAP1 MSTORE MLOAD PUSH1 0x0 SWAP3 PUSH1 0x1 PUSH1 0xA0 PUSH1 0x2 EXP SUB SWAP1 SWAP3 AND SWAP2 PUSH4 0xB9530091 SWAP2 PUSH1 0x24 DUP1 DUP4 ADD SWAP3 DUP7 SWAP3 SWAP2 SWAP1 DUP3 SWAP1 SUB ADD DUP2 DUP4 DUP8 DUP1 EXTCODESIZE ISZERO DUP1 ISZERO PUSH2 0x289F JUMPI PUSH1 0x0 DUP1 REVERT JUMPDEST POP GAS CALL ISZERO DUP1 ISZERO PUSH2 0x228E JUMPI RETURNDATASIZE PUSH1 0x0 DUP1 RETURNDATACOPY RETURNDATASIZE PUSH1 0x0 REVERT JUMPDEST PUSH1 0x4 DUP1 SLOAD PUSH1 0x40 DUP1 MLOAD PUSH32 0x2270FA5E00000000000000000000000000000000000000000000000000000000 DUP2 MSTORE SWAP3 DUP4 ADD DUP12 SWAP1 MSTORE PUSH1 0x1 PUSH1 0xA0 PUSH1 0x2 EXP SUB DUP11 DUP2 AND PUSH1 0x24 DUP6 ADD MSTORE DUP10 DUP2 AND PUSH1 0x44 DUP6 ADD MSTORE PUSH1 0x64 DUP5 ADD DUP10 SWAP1 MSTORE PUSH1 0x84 DUP5 ADD DUP9 SWAP1 MSTORE DUP7 ISZERO ISZERO PUSH1 0xA4 DUP6 ADD MSTORE DUP6 DUP2 AND PUSH1 0xC4 DUP6 ADD MSTORE DUP5 ISZERO ISZERO PUSH1 0xE4 DUP6 ADD MSTORE SWAP1 MLOAD PUSH1 0x0 SWAP4 SWAP2 SWAP1 SWAP3 AND SWAP2 PUSH4 0x2270FA5E SWAP2 PUSH2 0x104 DUP1 DUP3 ADD SWAP3 DUP7 SWAP3 SWAP1 SWAP2 SWAP1 DUP3 SWAP1 SUB ADD DUP2 DUP4 DUP8 DUP1 EXTCODESIZE ISZERO DUP1 ISZERO PUSH2 0x2640 JUMPI PUSH1 0x0 DUP1 REVERT JUMPDEST PUSH1 0x0 DUP3 DUP3 ADD DUP4 DUP2 LT ISZERO PUSH2 0x2962 JUMPI INVALID JUMPDEST SWAP4 SWAP3 POP POP POP JUMP JUMPDEST PUSH1 0x4 DUP1 SLOAD PUSH1 0x40 DUP1 MLOAD PUSH32 0xB12C52CF00000000000000000000000000000000000000000000000000000000 DUP2 MSTORE SWAP3 DUP4 ADD DUP6 SWAP1 MSTORE PUSH1 0x24 DUP4 ADD DUP5 SWAP1 MSTORE MLOAD PUSH1 0x0 SWAP3 PUSH1 0x1 PUSH1 0xA0 PUSH1 0x2 EXP SUB SWAP1 SWAP3 AND SWAP2 PUSH4 0xB12C52CF SWAP2 PUSH1 0x44 DUP1 DUP4 ADD SWAP3 DUP7 SWAP3 SWAP2 SWAP1 DUP3 SWAP1 SUB ADD DUP2 DUP4 DUP8 DUP1 EXTCODESIZE ISZERO DUP1 ISZERO PUSH2 0x29D6 JUMPI PUSH1 0x0 DUP1 REVERT JUMPDEST POP GAS CALL ISZERO DUP1 ISZERO PUSH2 0x29EA JUMPI RETURNDATASIZE PUSH1 0x0 DUP1 RETURNDATACOPY RETURNDATASIZE PUSH1 0x0 REVERT JUMPDEST POP PUSH1 0x1 SWAP7 SWAP6 POP POP POP POP POP POP JUMP JUMPDEST PUSH1 0x4 DUP1 SLOAD PUSH1 0x40 DUP1 MLOAD PUSH32 0x1E7A80100000000000000000000000000000000000000000000000000000000 DUP2 MSTORE PUSH1 0x1 PUSH1 0xA0 PUSH1 0x2 EXP SUB DUP7 DUP2 AND SWAP5 DUP3 ADD SWAP5 SWAP1 SWAP5 MSTORE PUSH1 0x24 DUP2 ADD DUP6 SWAP1 MSTORE SWAP1 MLOAD PUSH1 0x0 SWAP4 SWAP1 SWAP3 AND SWAP2 PUSH4 0x1E7A801 SWAP2 PUSH1 0x44 DUP1 DUP3 ADD SWAP3 DUP7 SWAP3 SWAP1 SWAP2 SWAP1 DUP3 SWAP1 SUB ADD DUP2 DUP4 DUP8 DUP1 EXTCODESIZE ISZERO DUP1 ISZERO PUSH2 0x29D6 JUMPI PUSH1 0x0 DUP1 REVERT JUMPDEST PUSH1 0x40 DUP1 MLOAD PUSH1 0xE0 DUP2 ADD DUP3 MSTORE PUSH1 0x0 DUP1 DUP3 MSTORE PUSH1 0x20 DUP3 ADD DUP2 SWAP1 MSTORE SWAP2 DUP2 ADD DUP3 SWAP1 MSTORE PUSH1 0x60 DUP2 ADD DUP3 SWAP1 MSTORE PUSH1 0x80 DUP2 ADD DUP3 SWAP1 MSTORE PUSH1 0xA0 DUP2 ADD DUP3 SWAP1 MSTORE PUSH1 0xC0 DUP2 ADD SWAP2 SWAP1 SWAP2 MSTORE SWAP1 JUMP JUMPDEST PUSH1 0x40 DUP1 MLOAD PUSH1 0xC0 DUP2 ADD DUP3 MSTORE PUSH1 0x0 DUP1 DUP3 MSTORE PUSH1 0x20 DUP3 ADD DUP2 SWAP1 MSTORE SWAP2 DUP2 ADD DUP3 SWAP1 MSTORE PUSH1 0x60 DUP2 ADD DUP3 SWAP1 MSTORE PUSH1 0x80 DUP2 ADD DUP3 SWAP1 MSTORE PUSH1 0xA0 DUP2 ADD SWAP2 SWAP1 SWAP2 MSTORE SWAP1 JUMP STOP 0xa9 SDIV SWAP13 0xbb STOP STOP STOP STOP STOP STOP STOP STOP STOP STOP STOP STOP STOP STOP STOP STOP STOP STOP STOP STOP STOP STOP STOP STOP STOP STOP STOP STOP 0x2a RETURNDATASIZE 0xe5 SWAP16 STOP STOP STOP STOP STOP STOP STOP STOP STOP STOP STOP STOP STOP STOP STOP STOP STOP STOP STOP STOP STOP STOP STOP STOP STOP STOP STOP STOP LOG1 PUSH6 0x627A7A723058 KECCAK256 LOG2 0xbb 0xb9 0xd1 MLOAD 0xef REVERT STOP CALL PUSH3 0x14F668 0x1e MOD 0xdb 0xde 0xbc GT 0xc4 0xba 0xf5 ORIGIN 0xb7 INVALID 0xde DELEGATECALL 0x4a 0xa5 PC POP 0xe9 STOP 0x29 ",
  "sha1": "ae36380102fed40b61160a951cbf613c844696fc",
  "source": "pragma solidity ^0.4.24;\n\nimport \"./SafeMath.sol\";\nimport \"./Ownable.sol\";\nimport \"./IbetStraightBond.sol\";\nimport \"./ExchangeStorage.sol\";\nimport \"./PaymentGateway.sol\";\nimport \"./PersonalInfo.sol\";\nimport \"./RegulatorService.sol\";\n\n\n/// @title ibet Straight Bond DEX\ncontract IbetStraightBondExchange is Ownable {\n    using SafeMath for uint256;\n\n    /// 約定明細の有効期限\n    /// 現在の設定値は14日で設定している（長期の連休を考慮）\n    uint256 lockingPeriod = 1209600;\n\n    /// ---------------------------------------------------------------\n    /// Event\n    /// ---------------------------------------------------------------\n\n    /// Event：注文\n    event NewOrder(\n        address indexed tokenAddress,\n        uint256 orderId,\n        address indexed accountAddress,\n        bool indexed isBuy,\n        uint256 price,\n        uint256 amount,\n        address agentAddress\n    );\n\n    /// Event：注文取消\n    event CancelOrder(\n        address indexed tokenAddress,\n        uint256 orderId,\n        address indexed accountAddress,\n        bool indexed isBuy,\n        uint256 price,\n        uint256 amount,\n        address agentAddress\n    );\n\n    /// Event：約定\n    event Agree(\n        address indexed tokenAddress,\n        uint256 orderId,\n        uint256 agreementId,\n        address indexed buyAddress,\n        address indexed sellAddress,\n        uint256 price,\n        uint256 amount,\n        address agentAddress\n    );\n\n    /// Event：決済承認\n    event SettlementOK(\n        address indexed tokenAddress,\n        uint256 orderId,\n        uint256 agreementId,\n        address indexed buyAddress,\n        address indexed sellAddress,\n        uint256 price,\n        uint256 amount,\n        address agentAddress\n    );\n\n    /// Event：決済非承認\n    event SettlementNG(\n        address indexed tokenAddress,\n        uint256 orderId,\n        uint256 agreementId,\n        address indexed buyAddress,\n        address indexed sellAddress,\n        uint256 price,\n        uint256 amount,\n        address agentAddress\n    );\n\n    /// Event：全引き出し\n    event Withdrawal(\n        address indexed tokenAddress,\n        address indexed accountAddress\n    );\n\n    // ---------------------------------------------------------------\n    // Constructor\n    // ---------------------------------------------------------------\n    address public personalInfoAddress;\n    address public paymentGatewayAddress;\n    address public storageAddress;\n    address public regulatorServiceAddress;\n\n    /// [CONSTRUCTOR]\n    /// @param _paymentGatewayAddress PaymentGatewayコントラクトアドレス\n    /// @param _personalInfoAddress PersonalInfoコントラクトアドレス\n    /// @param _storageAddress ExchangeStorageコントラクトアドレス\n    /// @param _regulatorServiceAddress RegulatorServiceコントラクトアドレス\n    constructor(\n        address _paymentGatewayAddress,\n        address _personalInfoAddress,\n        address _storageAddress,\n        address _regulatorServiceAddress\n    )\n        public\n    {\n        paymentGatewayAddress = _paymentGatewayAddress;\n        personalInfoAddress = _personalInfoAddress;\n        storageAddress = _storageAddress;\n        regulatorServiceAddress = _regulatorServiceAddress;\n    }\n\n    /// ---------------------------------------------------------------\n    /// Function: Storage\n    /// ---------------------------------------------------------------\n\n    /// 注文情報\n    struct Order {\n        address owner;\n        address token;\n        uint256 amount; // 数量\n        uint256 price; // 価格\n        bool isBuy; // 売買区分（買い：True）\n        address agent; // 決済業者のアドレス\n        bool canceled; // キャンセル済みフラグ\n    }\n\n    /// 約定情報\n    struct Agreement {\n        address counterpart; // 約定相手\n        uint256 amount; // 約定数量\n        uint256 price; // 約定価格\n        bool canceled; // キャンセル済みフラグ\n        bool paid; // 支払い済みフラグ\n        uint256 expiry; // 有効期限（約定から１４日）\n    }\n\n    /// @notice 注文情報取得\n    /// @param _orderId 注文ID\n    /// @return owner 注文実行者\n    /// @return token トークンアドレス\n    /// @return amount 注文数量\n    /// @return price 注文単価\n    /// @return isBuy 売買区分\n    /// @return agent 決済業者のアドレス\n    /// @return canceled キャンセル済み状態\n    function getOrder(uint256 _orderId)\n        public\n        view\n        returns (\n            address owner,\n            address token,\n            uint256 amount,\n            uint256 price,\n            bool isBuy,\n            address agent,\n            bool canceled\n        )\n    {\n        return ExchangeStorage(storageAddress).getOrder(_orderId);\n    }\n\n    /// @notice 注文情報更新\n    /// @param _orderId 注文ID\n    /// @param _owner 注文実行者\n    /// @param _token トークンアドレス\n    /// @param _amount 注文数量\n    /// @param _price 注文単価\n    /// @param _isBuy 売買区分\n    /// @param _agent 決済業者のアドレス\n    /// @param _canceled キャンセル済み状態\n    /// @return 処理結果\n    function setOrder(\n        uint256 _orderId,\n        address _owner,\n        address _token,\n        uint256 _amount,\n        uint256 _price,\n        bool _isBuy,\n        address _agent,\n        bool _canceled\n    )\n        private\n        returns (bool)\n    {\n        ExchangeStorage(storageAddress).setOrder(\n            _orderId,\n            _owner,\n            _token,\n            _amount,\n            _price,\n            _isBuy,\n            _agent,\n            _canceled\n        );\n        return true;\n    }\n\n    /// @notice 約定情報取得\n    /// @param _orderId 注文ID\n    /// @param _agreementId 約定ID\n    /// @return _counterpart 約定相手\n    /// @return _amount 約定数量\n    /// @return _price 約定単価\n    /// @return _canceled キャンセル済み状態\n    /// @return _paid 支払済状態\n    /// @return _expiry 有効期限\n    function getAgreement(uint256 _orderId, uint256 _agreementId)\n        public\n        view\n        returns (\n            address _counterpart,\n            uint256 _amount,\n            uint256 _price,\n            bool _canceled,\n            bool _paid,\n            uint256 _expiry\n        )\n    {\n        return ExchangeStorage(storageAddress).getAgreement(_orderId, _agreementId);\n    }\n\n    /// @notice 約定情報更新\n    /// @param _orderId 注文ID\n    /// @param _agreementId 約定ID\n    /// @param _counterpart 約定相手\n    /// @param _amount 約定数量\n    /// @param _price 約定単価\n    /// @param _canceled キャンセル済み状態\n    /// @param _paid 支払済状態\n    /// @param _expiry 有効期限\n    /// @return 処理結果\n    function setAgreement(\n        uint256 _orderId,\n        uint256 _agreementId,\n        address _counterpart,\n        uint256 _amount,\n        uint256 _price,\n        bool _canceled,\n        bool _paid,\n        uint256 _expiry\n    )\n        private\n        returns (bool)\n    {\n        ExchangeStorage(storageAddress).setAgreement(\n            _orderId,\n            _agreementId,\n            _counterpart,\n            _amount,\n            _price,\n            _canceled,\n            _paid,\n            _expiry\n        );\n        return true;\n    }\n\n    /// @notice 直近注文ID取得\n    /// @return 直近注文ID\n    function latestOrderId()\n        public\n        view\n        returns (uint256)\n    {\n        return ExchangeStorage(storageAddress).getLatestOrderId();\n    }\n\n    /// @notice 直近注文ID更新\n    /// @param _value 更新後の直近注文ID\n    /// @return 処理結果\n    function setLatestOrderId(uint256 _value)\n        private\n        returns (bool)\n    {\n        ExchangeStorage(storageAddress).setLatestOrderId(_value);\n        return true;\n    }\n\n    /// @notice 直近約定ID取得\n    /// @param _orderId 注文ID\n    /// @return 直近約定ID\n    function latestAgreementId(uint256 _orderId)\n        public\n        view\n        returns (uint256)\n    {\n        return ExchangeStorage(storageAddress).getLatestAgreementId(_orderId);\n    }\n\n    /// @notice 直近約定ID更新\n    /// @param _orderId 注文ID\n    /// @param _value 更新後の直近約定ID\n    /// @return 処理結果\n    function setLatestAgreementId(uint256 _orderId, uint256 _value)\n        private\n        returns (bool)\n    {\n        ExchangeStorage(storageAddress).setLatestAgreementId(_orderId, _value);\n        return true;\n    }\n\n    /// @notice 残高参照\n    /// @param _account アカウントアドレス\n    /// @param _token トークンアドレス\n    /// @return 残高数量\n    function balanceOf(address _account, address _token)\n        public\n        view\n        returns (uint256)\n    {\n        return ExchangeStorage(storageAddress).getBalance(\n            _account,\n            _token\n        );\n    }\n\n    /// @notice 残高数量更新\n    /// @param _account アカウントアドレス\n    /// @param _token トークンアドレス\n    /// @param _value 更新後の残高数量\n    /// @return 処理結果\n    function setBalance(address _account, address _token, uint256 _value)\n        private\n        returns (bool)\n    {\n        return ExchangeStorage(storageAddress).setBalance(\n            _account,\n            _token,\n            _value\n        );\n    }\n\n    /// @notice 拘束数量参照\n    /// @param _account アカウントアドレス\n    /// @param _token トークンアドレス\n    /// @return 拘束数量\n    function commitmentOf(address _account, address _token)\n        public\n        view\n        returns (uint256)\n    {\n        return ExchangeStorage(storageAddress).getCommitment(\n            _account,\n            _token\n        );\n    }\n\n    /// @notice 拘束数量更新\n    /// @param _account アカウントアドレス\n    /// @param _token トークンアドレス\n    /// @param _value 更新後の拘束数量\n    /// @return 処理結果\n    function setCommitment(address _account, address _token, uint256 _value)\n        private\n        returns (bool)\n    {\n        ExchangeStorage(storageAddress).setCommitment(\n            _account,\n            _token,\n            _value\n        );\n        return true;\n    }\n\n    /// @notice 現在値参照\n    /// @param _token トークンアドレス\n    /// @return 現在値\n    function lastPrice(address _token)\n        public\n        view\n        returns(uint256)\n    {\n        return ExchangeStorage(storageAddress).getLastPrice(_token);\n    }\n\n    /// @notice 現在値更新\n    /// @param _token トークンアドレス\n    /// @param _value 更新後の現在値\n    /// @return 処理結果\n    function setLastPrice(address _token, uint256 _value)\n        private\n        returns (bool)\n    {\n        ExchangeStorage(storageAddress).setLastPrice(_token, _value);\n        return true;\n    }\n\n    /// ---------------------------------------------------------------\n    /// Function: Logic\n    /// ---------------------------------------------------------------\n\n    /// @notice Make注文\n    /// @param _token トークンアドレス\n    /// @param _amount 注文数量\n    /// @param _price 注文単価\n    /// @param _isBuy 売買区分\n    /// @param _agent 収納代行業者のアドレス\n    /// @return 処理結果\n    function createOrder(\n        address _token,\n        uint256 _amount,\n        uint256 _price,\n        bool _isBuy,\n        address _agent\n    )\n        public\n        returns (bool)\n    {\n        // <CHK>\n        //  取引参加者チェック\n        if (RegulatorService(regulatorServiceAddress).check(msg.sender) != 0) revert();\n\n        if (_isBuy == true) { // 買注文の場合\n            // <CHK>\n            //  1) 注文数量が0の場合\n            //  2) 認可されたアドレスではない場合\n            //  3) 名簿用個人情報が登録されていない場合\n            //  4) 買注文者がコントラクトアドレスの場合\n            //  5) 償還済みフラグがTrueの場合\n            //  6) 取扱ステータスがFalseの場合\n            //  7) 有効な収納代行業者（Agent）を指定していない場合\n            //   -> REVERT\n            if (_amount == 0 ||\n                PaymentGateway(paymentGatewayAddress).accountApproved(msg.sender,_agent) == false ||\n                PersonalInfo(personalInfoAddress).isRegistered(\n                    msg.sender,IbetStraightBond(_token).owner()) == false ||\n                isContract(msg.sender) == true ||\n                IbetStraightBond(_token).isRedeemed() == true ||\n                IbetStraightBond(_token).status() == false ||\n                validateAgent(_agent) == false)\n            {\n                revert();\n            }\n        }\n\n        if (_isBuy == false) { // 売注文の場合\n            // <CHK>\n            //  1) 注文数量が0の場合\n            //  2) 残高数量が発注数量に満たない場合\n            //  3) 認可されたアドレスではない場合\n            //  4) 名簿用個人情報が登録されていない場合\n            //  5) 償還済みフラグがTrueの場合\n            //  6) 取扱ステータスがFalseの場合\n            //  7) 有効な収納代行業者（Agent）を指定していない場合\n            //   -> 更新処理：全ての残高を投資家のアカウントに戻し、falseを返す\n            if (_amount == 0 ||\n                balanceOf(msg.sender, _token) < _amount ||\n                PaymentGateway(paymentGatewayAddress).accountApproved(msg.sender,_agent) == false ||\n                PersonalInfo(personalInfoAddress).isRegistered(\n                    msg.sender,IbetStraightBond(_token).owner()) == false ||\n                IbetStraightBond(_token).isRedeemed() == true ||\n                IbetStraightBond(_token).status() == false ||\n                validateAgent(_agent) == false)\n            {\n                IbetStraightBond(_token).transfer(msg.sender, balanceOf(msg.sender, _token));\n                setBalance(msg.sender, _token, 0);\n                return false;\n            }\n        }\n\n        // 更新処理：注文IDをカウントアップ -> 注文情報を挿入\n        uint256 orderId = latestOrderId() + 1;\n        setLatestOrderId(orderId);\n        setOrder(orderId, msg.sender, _token, _amount, _price, _isBuy, _agent, false);\n\n        // 更新処理：売り注文の場合、預かりを拘束\n        if (!_isBuy) {\n            setBalance(msg.sender, _token, balanceOf(msg.sender, _token).sub(_amount));\n            setCommitment(msg.sender, _token, commitmentOf(msg.sender, _token).add(_amount));\n        }\n\n        // イベント登録：新規注文\n        emit NewOrder(_token, orderId, msg.sender, _isBuy, _price, _amount, _agent);\n\n        return true;\n    }\n\n    /// @notice 注文キャンセル\n    /// @param _orderId 注文ID\n    /// @return 処理結果\n    function cancelOrder(uint256 _orderId)\n        public\n        returns (bool)\n    {\n        // <CHK>\n        //  指定した注文番号が、直近の注文ID以上の場合\n        //   -> REVERT\n        require(_orderId <= latestOrderId());\n\n        Order memory order;\n        (order.owner, order.token, order.amount, order.price, order.isBuy, order.agent, order.canceled) =\n            getOrder(_orderId);\n\n        // <CHK>\n        //  1) 元注文の残注文数量が0の場合\n        //  2) 注文がキャンセル済みの場合\n        //  3) 元注文の発注者と、注文キャンセルの実施者が異なる場合\n        //   -> REVERT\n        if (order.amount == 0 ||\n            order.canceled == true ||\n            order.owner != msg.sender) {\n            revert();\n        }\n\n        // 更新処理：売り注文の場合、注文で拘束している預かりを解放 => 残高を投資家のアカウントに戻す\n        if (!order.isBuy) {\n            setCommitment(msg.sender, order.token, commitmentOf(msg.sender, order.token).sub(order.amount));\n            IbetStraightBond(order.token).transfer(msg.sender,order.amount);\n        }\n\n        // 更新処理：キャンセル済みフラグをキャンセル済み（True）に更新\n        setOrder(_orderId, order.owner, order.token, order.amount, order.price, order.isBuy, order.agent, true);\n\n        // イベント登録：注文キャンセル\n        emit CancelOrder(order.token, _orderId, msg.sender,\n                        order.isBuy, order.price, order.amount, order.agent);\n\n        return true;\n    }\n\n    /// @notice Take注文\n    /// @param _orderId 注文ID\n    /// @param _amount 注文数量\n    /// @param _isBuy 売買区分\n    /// @return 処理結果\n    function executeOrder(uint256 _orderId, uint256 _amount, bool _isBuy)\n        public\n        returns (bool)\n    {\n        // <CHK>\n        //  取引参加者チェック\n        if (RegulatorService(regulatorServiceAddress).check(msg.sender) != 0) revert();\n\n        // <CHK>\n        //  指定した注文IDが直近の注文IDを超えている場合\n        require(_orderId <= latestOrderId());\n\n        Order memory order;\n        (order.owner, order.token, order.amount, order.price, order.isBuy, order.agent, order.canceled) =\n            getOrder(_orderId);\n\n        require(order.owner != 0x0000000000000000000000000000000000000000);\n\n        if (_isBuy == true) { // 買注文の場合\n            // <CHK>\n            //  1) 注文数量が0の場合\n            //  2) 元注文と、発注する注文が同一の売買区分の場合\n            //  3) 元注文の発注者と同一のアドレスからの発注の場合\n            //  4) 元注文がキャンセル済の場合\n            //  5) 認可されたアドレスではない場合\n            //  6) 名簿用個人情報が登録されていない場合\n            //  7) 買注文者がコントラクトアドレスの場合\n            //  8) 償還済みフラグがTrueの場合\n            //  9) 取扱ステータスがFalseの場合\n            //  10) 数量が元注文の残数量を超過している場合\n            //   -> REVERT\n            if (_amount == 0 ||\n                order.isBuy == _isBuy ||\n                msg.sender == order.owner ||\n                order.canceled == true ||\n                PaymentGateway(paymentGatewayAddress).accountApproved(msg.sender,order.agent) == false ||\n                PersonalInfo(personalInfoAddress).isRegistered(\n                    msg.sender,IbetStraightBond(order.token).owner()) == false ||\n                isContract(msg.sender) == true ||\n                IbetStraightBond(order.token).isRedeemed() == true ||\n                IbetStraightBond(order.token).status() == false ||\n                order.amount < _amount )\n            {\n                revert();\n            }\n        }\n\n        if (_isBuy == false) { // 売注文の場合\n            // <CHK>\n            //  1) 注文数量が0の場合\n            //  2) 元注文と、発注する注文が同一の売買区分の場合\n            //  3) 元注文の発注者と同一のアドレスからの発注の場合\n            //  4) 元注文がキャンセル済の場合\n            //  5) 認可されたアドレスではない場合\n            //  6) 名簿用個人情報が登録されていない場合\n            //  7) 償還済みフラグがTrueの場合\n            //  8) 取扱ステータスがFalseの場合\n            //  9) 発注者の残高が発注数量を下回っている場合\n            //  10) 数量が元注文の残数量を超過している場合\n            //   -> 更新処理：残高を投資家のアカウントに全て戻し、falseを返す\n            if (_amount == 0 ||\n                order.isBuy == _isBuy ||\n                msg.sender == order.owner ||\n                order.canceled == true ||\n                PaymentGateway(paymentGatewayAddress).accountApproved(msg.sender,order.agent) == false ||\n                PersonalInfo(personalInfoAddress).isRegistered(\n                    msg.sender,IbetStraightBond(order.token).owner()) == false ||\n                IbetStraightBond(order.token).isRedeemed() == true ||\n                IbetStraightBond(order.token).status() == false ||\n                balanceOf(msg.sender, order.token) < _amount ||\n                order.amount < _amount )\n            {\n                IbetStraightBond(order.token).transfer(msg.sender, balanceOf(msg.sender, order.token));\n                setBalance(msg.sender, order.token, 0);\n                return false;\n            }\n        }\n\n        // 更新処理：約定IDをカウントアップ => 約定情報を挿入する\n        uint256 agreementId = latestAgreementId(_orderId) + 1;\n        setLatestAgreementId(_orderId, agreementId);\n        uint256 expiry = now + lockingPeriod;\n        setAgreement(_orderId, agreementId, msg.sender, _amount, order.price, false, false, expiry);\n\n        // 更新処理：元注文の数量を減らす\n        setOrder(_orderId, order.owner, order.token, order.amount.sub(_amount),\n            order.price, order.isBuy, order.agent, order.canceled);\n\n        if (order.isBuy) {\n            // 更新処理：買い注文に対して売り注文で応じた場合、売りの預かりを拘束\n            setBalance(msg.sender, order.token, balanceOf(msg.sender, order.token).sub(_amount));\n            setCommitment(msg.sender, order.token, commitmentOf(msg.sender, order.token).add(_amount));\n            // イベント登録：約定\n            emit Agree(order.token, _orderId, agreementId, order.owner,\n                msg.sender, order.price, _amount, order.agent);\n        } else {\n            // イベント登録：約定\n            emit Agree(order.token, _orderId, agreementId,\n                msg.sender, order.owner, order.price, _amount, order.agent);\n        }\n\n        return true;\n    }\n\n    /// @notice 決済承認\n    /// @dev 注文時に指定された決済業者のみ実行が可能\n    /// @param _orderId 注文ID\n    /// @param _agreementId 約定ID\n    /// @return 処理結果\n    function confirmAgreement(uint256 _orderId, uint256 _agreementId)\n        public\n        returns (bool)\n    {\n        // <CHK>\n        //  1) 指定した注文番号が、直近の注文ID以上の場合\n        //  2) 指定した約定IDが、直近の約定ID以上の場合\n        //   -> REVERT\n        require(_orderId <= latestOrderId());\n        require(_agreementId <= latestAgreementId(_orderId));\n\n        Order memory order;\n        (order.owner, order.token, order.amount, order.price, order.isBuy,\n            order.agent, order.canceled) =\n                getOrder(_orderId);\n\n        Agreement memory agreement;\n        (agreement.counterpart, agreement.amount, agreement.price,\n            agreement.canceled, agreement.paid, agreement.expiry) =\n                getAgreement(_orderId, _agreementId);\n\n        // <CHK>\n        //  1) すでに決済承認済み（支払い済み）の場合\n        //  2) すでに決済非承認済み（キャンセル済み）の場合\n        //  3) 元注文で指定した決済業者ではない場合\n        //   -> REVERT\n        if (agreement.paid ||\n            agreement.canceled ||\n            msg.sender != order.agent) {\n            revert();\n        }\n\n        // 更新処理：支払い済みフラグを支払い済み（True）に更新する\n        setAgreement(_orderId, _agreementId, agreement.counterpart, agreement.amount, agreement.price,\n            agreement.canceled, true, agreement.expiry);\n\n        if (order.isBuy) {\n            // 更新処理：買注文の場合、突合相手（売り手）から注文者（買い手）へと資産移転を行う\n            setCommitment(\n                agreement.counterpart, order.token,\n                    commitmentOf(agreement.counterpart, order.token).sub(agreement.amount));\n            IbetStraightBond(order.token).transfer(order.owner,agreement.amount);\n            // イベント登録：決済OK\n            emit SettlementOK(order.token, _orderId, _agreementId,\n                order.owner, agreement.counterpart, order.price,\n                agreement.amount, order.agent);\n        } else {\n            // 更新処理：売注文の場合、注文者（売り手）から突合相手（買い手）へと資産移転を行う\n            setCommitment(\n                order.owner, order.token,\n                    commitmentOf(order.owner, order.token).sub(agreement.amount));\n            IbetStraightBond(order.token).transfer(agreement.counterpart, agreement.amount);\n            // イベント登録：決済OK\n            emit SettlementOK(order.token, _orderId, _agreementId,\n                agreement.counterpart, order.owner, order.price,\n                agreement.amount, order.agent);\n        }\n\n        // 更新処理：現在値を更新する\n        setLastPrice(order.token, order.price);\n\n        return true;\n    }\n\n    /// @notice 決済非承認\n    /// @dev 注文時に指定された決済業者から実行が可能、有効期限後はMake注文者も実行が可能\n    /// @param _orderId 注文ID\n    /// @param _agreementId 約定ID\n    /// @return 処理結果\n    function cancelAgreement(uint256 _orderId, uint256 _agreementId)\n        public\n        returns (bool)\n    {\n        // <CHK>\n        //  1) 指定した注文番号が、直近の注文ID以上の場合\n        //  2) 指定した約定IDが、直近の約定ID以上の場合\n        //   -> REVERT\n        require(_orderId <= latestOrderId());\n        require(_agreementId <= latestAgreementId(_orderId));\n\n\n        Order memory order;\n        (order.owner, order.token, order.amount, order.price, order.isBuy,\n            order.agent, order.canceled) =\n                getOrder(_orderId);\n\n        Agreement memory agreement;\n        (agreement.counterpart, agreement.amount, agreement.price,\n            agreement.canceled, agreement.paid, agreement.expiry) =\n                getAgreement(_orderId, _agreementId);\n\n        if (agreement.expiry <= now) { // 約定明細の有効期限を超過している場合\n          // <CHK>\n          //  1) すでに決済承認済み（支払い済み）の場合\n          //  2) すでに決済非承認済み（キャンセル済み）の場合\n          //  3) msg.senderが、 決済代行（agent）、発注者（owner）、約定相手（counterpart）以外の場合\n          //   -> REVERT\n          if (agreement.paid ||\n              agreement.canceled ||\n              (\n                msg.sender != order.agent &&\n                msg.sender != order.owner &&\n                msg.sender != agreement.counterpart\n              )\n          ) {\n              revert();\n          }\n        } else { // 約定明細の有効期限を超過していない場合\n          // <CHK>\n          //  1) すでに支払い済みの場合\n          //  2) すでに決済非承認済み（キャンセル済み）の場合\n          //  3) msg.senderが、決済代行（agent）以外の場合\n          //   -> REVERT\n          if (agreement.paid ||\n              agreement.canceled ||\n              msg.sender != order.agent\n          ) {\n              revert();\n          }\n        }\n\n        // 更新処理：キャンセル済みフラグをキャンセル（True）に更新する\n        setAgreement(_orderId, _agreementId, agreement.counterpart, agreement.amount, agreement.price,\n            true, agreement.paid, agreement.expiry);\n\n        if (order.isBuy) {\n            // 更新処理：買い注文の場合、突合相手（売り手）の預かりを解放 -> 預かりの引き出し\n            // 取り消した注文は無効化する（注文中状態に戻さない）\n            setCommitment(agreement.counterpart, order.token,\n                commitmentOf(agreement.counterpart, order.token).sub(agreement.amount));\n            IbetStraightBond(order.token).transfer(agreement.counterpart, agreement.amount);\n            // イベント登録：決済NG\n            emit SettlementNG(order.token, _orderId, _agreementId,\n                order.owner, agreement.counterpart, order.price,\n                agreement.amount, order.agent);\n        } else {\n            // 更新処理：売り注文の場合、突合相手（買い手）の注文数量だけ注文者（売り手）の預かりを解放\n            //  -> 預かりの引き出し。\n            // 取り消した注文は無効化する（注文中状態に戻さない）\n            setCommitment(order.owner, order.token,\n                commitmentOf(order.owner, order.token).sub(agreement.amount));\n            IbetStraightBond(order.token).transfer(order.owner, agreement.amount);\n            // イベント登録：決済NG\n            emit SettlementNG(order.token, _orderId, _agreementId,\n                agreement.counterpart, order.owner, order.price,\n                agreement.amount, order.agent);\n        }\n\n        return true;\n    }\n\n    /// @notice 全ての残高を引き出しする\n    /// @dev 未売却の預かりに対してのみ引き出しをおこなう。約定済、注文中の預かり（commitments）の引き出しはおこなわない。\n    /// @param _token トークンアドレス\n    /// @return 処理結果\n    function withdrawAll(address _token)\n        public\n        returns (bool)\n    {\n        uint256 balance = balanceOf(msg.sender, _token);\n\n        // <CHK>\n        //  残高がゼロの場合、REVERT\n        if (balance == 0 ) { revert(); }\n\n        // 更新処理：トークン引き出し（送信）\n        IbetStraightBond(_token).transfer(msg.sender, balance);\n        setBalance(msg.sender, _token, 0);\n\n        // イベント登録\n        emit Withdrawal(_token, msg.sender);\n\n        return true;\n    }\n\n    /// @notice Deposit Handler：デポジット処理\n    /// @param _from アカウントアドレス：残高を保有するアドレス\n    /// @param _value デポジット数量\n    function tokenFallback(address _from, uint _value, bytes memory /*_data*/)\n        public\n    {\n        setBalance(\n            _from,\n            msg.sender,\n            balanceOf(_from, msg.sender).add(_value)\n        );\n    }\n\n    /// @notice アドレスがコントラクトアドレスであるかを判定\n    /// @param _addr アドレス\n    /// @return is_contract 判定結果\n    function isContract(address _addr)\n        private\n        view\n        returns (bool is_contract)\n    {\n      uint length;\n      assembly {\n        length := extcodesize(_addr)\n      }\n      return (length>0);\n    }\n\n    /// @notice Agentアドレスが有効なものであることをチェックする\n    /// @param _addr アドレス\n    /// @return 有効状態\n    function validateAgent(address _addr)\n        private\n        view\n        returns (bool)\n    {\n        return PaymentGateway(paymentGatewayAddress).getAgent(_addr);\n    }\n\n}\n",
  "sourcePath": "contracts/IbetStraightBondExchange.sol",
  "type": "contract"
}