{
  "abi": [
    {
      "constant": true,
      "inputs": [],
      "name": "personalInfoAddress",
      "outputs": [
        {
          "name": "",
          "type": "address"
        }
      ],
      "payable": false,
      "stateMutability": "view",
      "type": "function"
    },
    {
      "constant": false,
      "inputs": [
        {
          "name": "_orderId",
          "type": "uint256"
        },
        {
          "name": "_agreementId",
          "type": "uint256"
        }
      ],
      "name": "cancelAgreement",
      "outputs": [
        {
          "name": "",
          "type": "bool"
        }
      ],
      "payable": false,
      "stateMutability": "nonpayable",
      "type": "function"
    },
    {
      "constant": false,
      "inputs": [
        {
          "name": "_orderId",
          "type": "uint256"
        }
      ],
      "name": "cancelOrder",
      "outputs": [
        {
          "name": "",
          "type": "bool"
        }
      ],
      "payable": false,
      "stateMutability": "nonpayable",
      "type": "function"
    },
    {
      "constant": true,
      "inputs": [],
      "name": "paymentGatewayAddress",
      "outputs": [
        {
          "name": "",
          "type": "address"
        }
      ],
      "payable": false,
      "stateMutability": "view",
      "type": "function"
    },
    {
      "constant": true,
      "inputs": [],
      "name": "latestOrderId",
      "outputs": [
        {
          "name": "",
          "type": "uint256"
        }
      ],
      "payable": false,
      "stateMutability": "view",
      "type": "function"
    },
    {
      "constant": false,
      "inputs": [
        {
          "name": "_counterpart",
          "type": "address"
        },
        {
          "name": "_token",
          "type": "address"
        },
        {
          "name": "_amount",
          "type": "uint256"
        },
        {
          "name": "_price",
          "type": "uint256"
        },
        {
          "name": "_agent",
          "type": "address"
        }
      ],
      "name": "createOrder",
      "outputs": [
        {
          "name": "",
          "type": "bool"
        }
      ],
      "payable": false,
      "stateMutability": "nonpayable",
      "type": "function"
    },
    {
      "constant": true,
      "inputs": [],
      "name": "storageAddress",
      "outputs": [
        {
          "name": "",
          "type": "address"
        }
      ],
      "payable": false,
      "stateMutability": "view",
      "type": "function"
    },
    {
      "constant": true,
      "inputs": [],
      "name": "owner",
      "outputs": [
        {
          "name": "",
          "type": "address"
        }
      ],
      "payable": false,
      "stateMutability": "view",
      "type": "function"
    },
    {
      "constant": false,
      "inputs": [
        {
          "name": "_orderId",
          "type": "uint256"
        }
      ],
      "name": "executeOrder",
      "outputs": [
        {
          "name": "",
          "type": "bool"
        }
      ],
      "payable": false,
      "stateMutability": "nonpayable",
      "type": "function"
    },
    {
      "constant": true,
      "inputs": [
        {
          "name": "_account",
          "type": "address"
        },
        {
          "name": "_token",
          "type": "address"
        }
      ],
      "name": "commitmentOf",
      "outputs": [
        {
          "name": "",
          "type": "uint256"
        }
      ],
      "payable": false,
      "stateMutability": "view",
      "type": "function"
    },
    {
      "constant": true,
      "inputs": [
        {
          "name": "_orderId",
          "type": "uint256"
        },
        {
          "name": "_agreementId",
          "type": "uint256"
        }
      ],
      "name": "getAgreement",
      "outputs": [
        {
          "name": "_counterpart",
          "type": "address"
        },
        {
          "name": "_amount",
          "type": "uint256"
        },
        {
          "name": "_price",
          "type": "uint256"
        },
        {
          "name": "_canceled",
          "type": "bool"
        },
        {
          "name": "_paid",
          "type": "bool"
        },
        {
          "name": "_expiry",
          "type": "uint256"
        }
      ],
      "payable": false,
      "stateMutability": "view",
      "type": "function"
    },
    {
      "constant": false,
      "inputs": [
        {
          "name": "_from",
          "type": "address"
        },
        {
          "name": "_value",
          "type": "uint256"
        },
        {
          "name": "",
          "type": "bytes"
        }
      ],
      "name": "tokenFallback",
      "outputs": [],
      "payable": false,
      "stateMutability": "nonpayable",
      "type": "function"
    },
    {
      "constant": true,
      "inputs": [
        {
          "name": "_orderId",
          "type": "uint256"
        }
      ],
      "name": "getOrder",
      "outputs": [
        {
          "name": "_owner",
          "type": "address"
        },
        {
          "name": "_counterpart",
          "type": "address"
        },
        {
          "name": "_token",
          "type": "address"
        },
        {
          "name": "_amount",
          "type": "uint256"
        },
        {
          "name": "_price",
          "type": "uint256"
        },
        {
          "name": "_agent",
          "type": "address"
        },
        {
          "name": "_canceled",
          "type": "bool"
        }
      ],
      "payable": false,
      "stateMutability": "view",
      "type": "function"
    },
    {
      "constant": false,
      "inputs": [
        {
          "name": "_orderId",
          "type": "uint256"
        },
        {
          "name": "_agreementId",
          "type": "uint256"
        }
      ],
      "name": "confirmAgreement",
      "outputs": [
        {
          "name": "",
          "type": "bool"
        }
      ],
      "payable": false,
      "stateMutability": "nonpayable",
      "type": "function"
    },
    {
      "constant": true,
      "inputs": [],
      "name": "regulatorServiceAddress",
      "outputs": [
        {
          "name": "",
          "type": "address"
        }
      ],
      "payable": false,
      "stateMutability": "view",
      "type": "function"
    },
    {
      "constant": true,
      "inputs": [
        {
          "name": "_orderId",
          "type": "uint256"
        }
      ],
      "name": "latestAgreementId",
      "outputs": [
        {
          "name": "",
          "type": "uint256"
        }
      ],
      "payable": false,
      "stateMutability": "view",
      "type": "function"
    },
    {
      "constant": false,
      "inputs": [
        {
          "name": "newOwner",
          "type": "address"
        }
      ],
      "name": "transferOwnership",
      "outputs": [],
      "payable": false,
      "stateMutability": "nonpayable",
      "type": "function"
    },
    {
      "constant": true,
      "inputs": [
        {
          "name": "_account",
          "type": "address"
        },
        {
          "name": "_token",
          "type": "address"
        }
      ],
      "name": "balanceOf",
      "outputs": [
        {
          "name": "",
          "type": "uint256"
        }
      ],
      "payable": false,
      "stateMutability": "view",
      "type": "function"
    },
    {
      "constant": false,
      "inputs": [
        {
          "name": "_token",
          "type": "address"
        }
      ],
      "name": "withdrawAll",
      "outputs": [
        {
          "name": "",
          "type": "bool"
        }
      ],
      "payable": false,
      "stateMutability": "nonpayable",
      "type": "function"
    },
    {
      "inputs": [
        {
          "name": "_paymentGatewayAddress",
          "type": "address"
        },
        {
          "name": "_personalInfoAddress",
          "type": "address"
        },
        {
          "name": "_storageAddress",
          "type": "address"
        },
        {
          "name": "_regulatorServiceAddress",
          "type": "address"
        }
      ],
      "payable": false,
      "stateMutability": "nonpayable",
      "type": "constructor"
    },
    {
      "anonymous": false,
      "inputs": [
        {
          "indexed": true,
          "name": "tokenAddress",
          "type": "address"
        },
        {
          "indexed": false,
          "name": "orderId",
          "type": "uint256"
        },
        {
          "indexed": true,
          "name": "ownerAddress",
          "type": "address"
        },
        {
          "indexed": true,
          "name": "counterpartAddress",
          "type": "address"
        },
        {
          "indexed": false,
          "name": "price",
          "type": "uint256"
        },
        {
          "indexed": false,
          "name": "amount",
          "type": "uint256"
        },
        {
          "indexed": false,
          "name": "agentAddress",
          "type": "address"
        }
      ],
      "name": "NewOrder",
      "type": "event"
    },
    {
      "anonymous": false,
      "inputs": [
        {
          "indexed": true,
          "name": "tokenAddress",
          "type": "address"
        },
        {
          "indexed": false,
          "name": "orderId",
          "type": "uint256"
        },
        {
          "indexed": true,
          "name": "ownerAddress",
          "type": "address"
        },
        {
          "indexed": true,
          "name": "counterpartAddress",
          "type": "address"
        },
        {
          "indexed": false,
          "name": "price",
          "type": "uint256"
        },
        {
          "indexed": false,
          "name": "amount",
          "type": "uint256"
        },
        {
          "indexed": false,
          "name": "agentAddress",
          "type": "address"
        }
      ],
      "name": "CancelOrder",
      "type": "event"
    },
    {
      "anonymous": false,
      "inputs": [
        {
          "indexed": true,
          "name": "tokenAddress",
          "type": "address"
        },
        {
          "indexed": false,
          "name": "orderId",
          "type": "uint256"
        },
        {
          "indexed": false,
          "name": "agreementId",
          "type": "uint256"
        },
        {
          "indexed": true,
          "name": "buyAddress",
          "type": "address"
        },
        {
          "indexed": true,
          "name": "sellAddress",
          "type": "address"
        },
        {
          "indexed": false,
          "name": "price",
          "type": "uint256"
        },
        {
          "indexed": false,
          "name": "amount",
          "type": "uint256"
        },
        {
          "indexed": false,
          "name": "agentAddress",
          "type": "address"
        }
      ],
      "name": "Agree",
      "type": "event"
    },
    {
      "anonymous": false,
      "inputs": [
        {
          "indexed": true,
          "name": "tokenAddress",
          "type": "address"
        },
        {
          "indexed": false,
          "name": "orderId",
          "type": "uint256"
        },
        {
          "indexed": false,
          "name": "agreementId",
          "type": "uint256"
        },
        {
          "indexed": true,
          "name": "buyAddress",
          "type": "address"
        },
        {
          "indexed": true,
          "name": "sellAddress",
          "type": "address"
        },
        {
          "indexed": false,
          "name": "price",
          "type": "uint256"
        },
        {
          "indexed": false,
          "name": "amount",
          "type": "uint256"
        },
        {
          "indexed": false,
          "name": "agentAddress",
          "type": "address"
        }
      ],
      "name": "SettlementOK",
      "type": "event"
    },
    {
      "anonymous": false,
      "inputs": [
        {
          "indexed": true,
          "name": "tokenAddress",
          "type": "address"
        },
        {
          "indexed": false,
          "name": "orderId",
          "type": "uint256"
        },
        {
          "indexed": false,
          "name": "agreementId",
          "type": "uint256"
        },
        {
          "indexed": true,
          "name": "buyAddress",
          "type": "address"
        },
        {
          "indexed": true,
          "name": "sellAddress",
          "type": "address"
        },
        {
          "indexed": false,
          "name": "price",
          "type": "uint256"
        },
        {
          "indexed": false,
          "name": "amount",
          "type": "uint256"
        },
        {
          "indexed": false,
          "name": "agentAddress",
          "type": "address"
        }
      ],
      "name": "SettlementNG",
      "type": "event"
    },
    {
      "anonymous": false,
      "inputs": [
        {
          "indexed": true,
          "name": "tokenAddress",
          "type": "address"
        },
        {
          "indexed": true,
          "name": "accountAddress",
          "type": "address"
        }
      ],
      "name": "Withdrawal",
      "type": "event"
    },
    {
      "anonymous": false,
      "inputs": [
        {
          "indexed": true,
          "name": "previousOwner",
          "type": "address"
        },
        {
          "indexed": true,
          "name": "newOwner",
          "type": "address"
        }
      ],
      "name": "OwnershipTransferred",
      "type": "event"
    }
  ],
  "bytecode": "6080604052621275006001553480156200001857600080fd5b5060405160808062002e2e83398101806040526200003a9190810190620000ad565b6000805433600160a060020a031991821617909155600380548216600160a060020a03968716179055600280548216948616949094179093556004805484169285169290921790915560058054909216921691909117905562000123565b6000620000a6825162000117565b9392505050565b60008060008060808587031215620000c457600080fd5b6000620000d2878762000098565b9450506020620000e58782880162000098565b9350506040620000f88782880162000098565b92505060606200010b8782880162000098565b91505092959194509250565b600160a060020a031690565b612cfb80620001336000396000f3006080604052600436106100ed5763ffffffff60e060020a6000350416630af7eb0f81146100f2578063307f636b1461011d578063514fcac71461014a5780635edada771461016a5780636f3b60d61461017f5780637e6b57c8146101a157806385aa92a7146101c15780638da5cb5b146101d657806394f61134146101eb578063a2ee70431461020b578063bf18e24e1461022b578063c0ee0b8a1461025d578063d09ef2411461027f578063d1a397e5146102b2578063d68eb73d146102d2578063dc01f10b146102e7578063f2fde38b14610307578063f7888aec14610327578063fa09e63014610347575b600080fd5b3480156100fe57600080fd5b50610107610367565b604051610114919061297c565b60405180910390f35b34801561012957600080fd5b5061013d610138366004612811565b610376565b6040516101149190612aaa565b34801561015657600080fd5b5061013d6101653660046127d5565b610868565b34801561017657600080fd5b50610107610b6b565b34801561018b57600080fd5b50610194610b7a565b6040516101149190612ab8565b3480156101ad57600080fd5b5061013d6101bc3660046126a1565b610c0c565b3480156101cd57600080fd5b5061010761107b565b3480156101e257600080fd5b5061010761108a565b3480156101f757600080fd5b5061013d6102063660046127d5565b611099565b34801561021757600080fd5b50610194610226366004612667565b6115cd565b34801561023757600080fd5b5061024b610246366004612811565b611675565b60405161011496959493929190612a50565b34801561026957600080fd5b5061027d610278366004612716565b611754565b005b34801561028b57600080fd5b5061029f61029a3660046127d5565b61176d565b60405161011497969594939291906129a5565b3480156102be57600080fd5b5061013d6102cd366004612811565b611840565b3480156102de57600080fd5b50610107611c13565b3480156102f357600080fd5b506101946103023660046127d5565b611c22565b34801561031357600080fd5b5061027d61032236600461262b565b611cbf565b34801561033357600080fd5b50610194610342366004612667565b611d53565b34801561035357600080fd5b5061013d61036236600461262b565b611da0565b600254600160a060020a031681565b60006103806123dc565b610388612418565b610390610b7a565b85111561039c57600080fd5b6103a585611c22565b8411156103b157600080fd5b60048054604051600080516020612c828339815191528152600160a060020a039091169163d09ef241916103e791899101612ab8565b60e060405180830381600087803b15801561040157600080fd5b505af1158015610415573d6000803e3d6000fd5b505050506040513d601f19601f8201168201806040525061043991908101906127b7565b600480546040517fbf18e24e000000000000000000000000000000000000000000000000000000008152929450600160a060020a03169163bf18e24e91610484918991899101612b18565b60c060405180830381600087803b15801561049e57600080fd5b505af11580156104b2573d6000803e3d6000fd5b505050506040513d601f19601f820116820180604052506104d69190810190612799565b9050428160a001511115156105d3578060800151806104f6575080606001515b8061054257508160a00151600160a060020a031633600160a060020a03161415801561052c57508151600160a060020a03163314155b801561054257508051600160a060020a03163314155b806105c457508160400151600160a060020a031663200d2ed26040518163ffffffff1660e060020a028152600401602060405180830381600087803b15801561058a57600080fd5b505af115801561059e573d6000803e3d6000fd5b505050506040513d601f19601f820116820180604052506105c2919081019061277b565b155b156105ce57600080fd5b610691565b8060800151806105e4575080606001515b8061060557508160a00151600160a060020a031633600160a060020a031614155b8061068757508160400151600160a060020a031663200d2ed26040518163ffffffff1660e060020a028152600401602060405180830381600087803b15801561064d57600080fd5b505af1158015610661573d6000803e3d6000fd5b505050506040513d601f19601f82011682018060405250610685919081019061277b565b155b1561069157600080fd5b600480546040517f9ec2db9c000000000000000000000000000000000000000000000000000000008152600160a060020a0390911691639ec2db9c916106de918991899160019101612b26565b600060405180830381600087803b1580156106f857600080fd5b505af115801561070c573d6000803e3d6000fd5b505083516040850151602085015161074294509192509061073d9061073184846115cd565b9063ffffffff611f1f16565b611f31565b506040808301518351602084015192517fa9059cbb000000000000000000000000000000000000000000000000000000008152600160a060020a039092169263a9059cbb92610795929190600401612a35565b602060405180830381600087803b1580156107af57600080fd5b505af11580156107c3573d6000803e3d6000fd5b505050506040513d601f19601f820116820180604052506107e7919081019061277b565b508160000151600160a060020a03168160000151600160a060020a03168360400151600160a060020a03167fc7065461c527949bffa69924a2264fb3a12540677585393b0f3c3d96dde067518888876080015187602001518960a00151604051610855959493929190612bb5565b60405180910390a4506001949350505050565b60006108726123dc565b61087a610b7a565b83111561088657600080fd5b60048054604051600080516020612c828339815191528152600160a060020a039091169163d09ef241916108bc91879101612ab8565b60e060405180830381600087803b1580156108d657600080fd5b505af11580156108ea573d6000803e3d6000fd5b505050506040513d601f19601f8201168201806040525061090e91908101906127b7565b9050806060015160001480610929575060c081015115156001145b8061093e57508051600160a060020a03163314155b806109c057508060400151600160a060020a031663200d2ed26040518163ffffffff1660e060020a028152600401602060405180830381600087803b15801561098657600080fd5b505af115801561099a573d6000803e3d6000fd5b505050506040513d601f19601f820116820180604052506109be919081019061277b565b155b156109ca57600080fd5b6109e933826040015161073d84606001516107313387604001516115cd565b508060400151600160a060020a031663a9059cbb3383606001516040518363ffffffff1660e060020a028152600401610a23929190612a35565b602060405180830381600087803b158015610a3d57600080fd5b505af1158015610a51573d6000803e3d6000fd5b505050506040513d601f19601f82011682018060405250610a75919081019061277b565b50600480546040517fd4a0ece6000000000000000000000000000000000000000000000000000000008152600160a060020a039091169163d4a0ece691610ac191879160019101612ac6565b600060405180830381600087803b158015610adb57600080fd5b505af1158015610aef573d6000803e3d6000fd5b505050508060200151600160a060020a031633600160a060020a03168260400151600160a060020a03167ffb97207a84503704a5d59d609047590820f2517612834319b990ddb4b9f86dce86856080015186606001518760a00151604051610b5a9493929190612b77565b60405180910390a450600192915050565b600354600160a060020a031681565b6000600460009054906101000a9004600160a060020a0316600160a060020a0316633d7fe9736040518163ffffffff1660e060020a028152600401602060405180830381600087803b158015610bcf57600080fd5b505af1158015610be3573d6000803e3d6000fd5b505050506040513d601f19601f82011682018060405250610c0791908101906127f3565b905090565b6005546000908190600160a060020a031615610d4e57600554604051600080516020612ca28339815191528152600160a060020a039091169063c23697a890610c5990339060040161297c565b602060405180830381600087803b158015610c7357600080fd5b505af1158015610c87573d6000803e3d6000fd5b505050506040513d601f19601f82011682018060405250610cab9190810190612841565b60ff161580610d435750600554604051600080516020612ca28339815191528152600160a060020a039091169063c23697a890610cec908a9060040161297c565b602060405180830381600087803b158015610d0657600080fd5b505af1158015610d1a573d6000803e3d6000fd5b505050506040513d601f19601f82011682018060405250610d3e9190810190612841565b60ff16155b1515610d4e57600080fd5b841580610d63575084610d613388611d53565b105b80610e785750600260009054906101000a9004600160a060020a0316600160a060020a031663d3da927f3388600160a060020a0316638da5cb5b6040518163ffffffff1660e060020a028152600401602060405180830381600087803b158015610dcc57600080fd5b505af1158015610de0573d6000803e3d6000fd5b505050506040513d601f19601f82011682018060405250610e049190810190612649565b6040518363ffffffff1660e060020a028152600401610e2492919061298a565b602060405180830381600087803b158015610e3e57600080fd5b505af1158015610e52573d6000803e3d6000fd5b505050506040513d601f19601f82011682018060405250610e76919081019061277b565b155b80610ef6575085600160a060020a031663200d2ed26040518163ffffffff1660e060020a028152600401602060405180830381600087803b158015610ebc57600080fd5b505af1158015610ed0573d6000803e3d6000fd5b505050506040513d601f19601f82011682018060405250610ef4919081019061277b565b155b80610f075750610f0583611fbe565b155b15610faf5785600160a060020a031663a9059cbb33610f26338a611d53565b6040518363ffffffff1660e060020a028152600401610f46929190612a35565b602060405180830381600087803b158015610f6057600080fd5b505af1158015610f74573d6000803e3d6000fd5b505050506040513d601f19601f82011682018060405250610f98919081019061277b565b50610fa53387600061205a565b5060009150611071565b610fb7610b7a565b6001019050610fc581612103565b50610fd7813389898989896000612188565b50610ff03387610feb88610731338c611d53565b61205a565b50611010338761073d88611004338c6115cd565b9063ffffffff61222e16565b5086600160a060020a031633600160a060020a031687600160a060020a03167f452bcb7610af3944d43f8df1ff64decfc7934a3c4bbbab26bc0bc4fe13c44cb784888a896040516110649493929190612b77565b60405180910390a4600191505b5095945050505050565b600454600160a060020a031681565b600054600160a060020a031681565b60006110a36123dc565b6000806110ae610b7a565b8511156110ba57600080fd5b60048054604051600080516020612c828339815191528152600160a060020a039091169163d09ef241916110f091899101612ab8565b60e060405180830381600087803b15801561110a57600080fd5b505af115801561111e573d6000803e3d6000fd5b505050506040513d601f19601f8201168201806040525061114291908101906127b7565b600554909350600160a060020a03161561128257600554604051600080516020612ca28339815191528152600160a060020a039091169063c23697a89061118d90339060040161297c565b602060405180830381600087803b1580156111a757600080fd5b505af11580156111bb573d6000803e3d6000fd5b505050506040513d601f19601f820116820180604052506111df9190810190612841565b60ff16158061127757506005548351604051600080516020612ca28339815191528152600160a060020a039092169163c23697a8916112209160040161297c565b602060405180830381600087803b15801561123a57600080fd5b505af115801561124e573d6000803e3d6000fd5b505050506040513d601f19601f820116820180604052506112729190810190612841565b60ff16155b151561128257600080fd5b8251600160a060020a03163314806112a657506020830151600160a060020a031633145b806112bd575060a0830151600160a060020a031633145b15156112c857600080fd5b8251600160a060020a03163314806112e6575060c083015115156001145b806113ff5750600260009054906101000a9004600160a060020a0316600160a060020a031663d3da927f338560400151600160a060020a0316638da5cb5b6040518163ffffffff1660e060020a028152600401602060405180830381600087803b15801561135357600080fd5b505af1158015611367573d6000803e3d6000fd5b505050506040513d601f19601f8201168201806040525061138b9190810190612649565b6040518363ffffffff1660e060020a0281526004016113ab92919061298a565b602060405180830381600087803b1580156113c557600080fd5b505af11580156113d9573d6000803e3d6000fd5b505050506040513d601f19601f820116820180604052506113fd919081019061277b565b155b80611414575061140e3361223d565b15156001145b8061149657508260400151600160a060020a031663200d2ed26040518163ffffffff1660e060020a028152600401602060405180830381600087803b15801561145c57600080fd5b505af1158015611470573d6000803e3d6000fd5b505050506040513d601f19601f82011682018060405250611494919081019061277b565b155b806114a357506060830151155b156114ad57600080fd5b6114b685611c22565b60010191506114c58583612245565b50600154420190506114e685833386606001518760800151600080886122cd565b50600480546040517f5116eb02000000000000000000000000000000000000000000000000000000008152600160a060020a0390911691635116eb029161153291899160009101612ae1565b600060405180830381600087803b15801561154c57600080fd5b505af1158015611560573d6000803e3d6000fd5b505050508260000151600160a060020a031633600160a060020a03168460400151600160a060020a03167f8572520837758ee6d544b77e467aa6bb30ea06c0e78c287b0d2a7d106f25d1668886886080015189606001518a60a00151604051610855959493929190612bb5565b600480546040517f097d9012000000000000000000000000000000000000000000000000000000008152600092600160a060020a039092169163097d90129161161a91879187910161298a565b602060405180830381600087803b15801561163457600080fd5b505af1158015611648573d6000803e3d6000fd5b505050506040513d601f19601f8201168201806040525061166c91908101906127f3565b90505b92915050565b600080600080600080611686612418565b600480546040517fbf18e24e000000000000000000000000000000000000000000000000000000008152600160a060020a039091169163bf18e24e916116d0918d918d9101612b18565b60c060405180830381600087803b1580156116ea57600080fd5b505af11580156116fe573d6000803e3d6000fd5b505050506040513d601f19601f820116820180604052506117229190810190612799565b8051602082015160408301516060840151608085015160a090950151939e929d50909b50995091975095509350505050565b6117678333610feb856110048833611d53565b50505050565b60008060008060008060006117806123dc565b60048054604051600080516020612c828339815191528152600160a060020a039091169163d09ef241916117b6918d9101612ab8565b60e060405180830381600087803b1580156117d057600080fd5b505af11580156117e4573d6000803e3d6000fd5b505050506040513d601f19601f8201168201806040525061180891908101906127b7565b8051602082015160408301516060840151608085015160a086015160c090960151949f939e50919c509a509850919650945092505050565b600061184a6123dc565b611852612418565b61185a610b7a565b85111561186657600080fd5b61186f85611c22565b84111561187b57600080fd5b60048054604051600080516020612c828339815191528152600160a060020a039091169163d09ef241916118b191899101612ab8565b60e060405180830381600087803b1580156118cb57600080fd5b505af11580156118df573d6000803e3d6000fd5b505050506040513d601f19601f8201168201806040525061190391908101906127b7565b600480546040517fbf18e24e000000000000000000000000000000000000000000000000000000008152929450600160a060020a03169163bf18e24e9161194e918991899101612b18565b60c060405180830381600087803b15801561196857600080fd5b505af115801561197c573d6000803e3d6000fd5b505050506040513d601f19601f820116820180604052506119a09190810190612799565b90508060800151806119b3575080606001515b806119d457508160a00151600160a060020a031633600160a060020a031614155b80611a5657508160400151600160a060020a031663200d2ed26040518163ffffffff1660e060020a028152600401602060405180830381600087803b158015611a1c57600080fd5b505af1158015611a30573d6000803e3d6000fd5b505050506040513d601f19601f82011682018060405250611a54919081019061277b565b155b15611a6057600080fd5b600480546040517f97d6388d000000000000000000000000000000000000000000000000000000008152600160a060020a03909116916397d6388d91611aad918991899160019101612b26565b600060405180830381600087803b158015611ac757600080fd5b505af1158015611adb573d6000803e3d6000fd5b5050835160408501516020850151611b0094509192509061073d9061073184846115cd565b506040808301518251602084015192517fa9059cbb000000000000000000000000000000000000000000000000000000008152600160a060020a039092169263a9059cbb92611b53929190600401612a35565b602060405180830381600087803b158015611b6d57600080fd5b505af1158015611b81573d6000803e3d6000fd5b505050506040513d601f19601f82011682018060405250611ba5919081019061277b565b508160000151600160a060020a03168160000151600160a060020a03168360400151600160a060020a03167f1f33fcbce82033cd7b26ae868ba28784c1e405a5a631cb7063527b4aceb0b5cc8888876080015187602001518960a00151604051610855959493929190612bb5565b600554600160a060020a031681565b600480546040517fc9ee7c9a000000000000000000000000000000000000000000000000000000008152600092600160a060020a039092169163c9ee7c9a91611c6d91869101612ab8565b602060405180830381600087803b158015611c8757600080fd5b505af1158015611c9b573d6000803e3d6000fd5b505050506040513d601f19601f8201168201806040525061166f91908101906127f3565b600054600160a060020a03163314611cd657600080fd5b600160a060020a0381161515611ceb57600080fd5b60008054604051600160a060020a03808516939216917f8be0079c531659141344cd1fd0a4f28419497f9722a3daafe3b4186f6b6457e091a36000805473ffffffffffffffffffffffffffffffffffffffff1916600160a060020a0392909216919091179055565b600480546040517fd4fac45d000000000000000000000000000000000000000000000000000000008152600092600160a060020a039092169163d4fac45d9161161a91879187910161298a565b600080611dad3384611d53565b9050801580611e2f575082600160a060020a031663200d2ed26040518163ffffffff1660e060020a028152600401602060405180830381600087803b158015611df557600080fd5b505af1158015611e09573d6000803e3d6000fd5b505050506040513d601f19601f82011682018060405250611e2d919081019061277b565b155b15611e3957600080fd5b6040517fa9059cbb000000000000000000000000000000000000000000000000000000008152600160a060020a0384169063a9059cbb90611e809033908590600401612a35565b602060405180830381600087803b158015611e9a57600080fd5b505af1158015611eae573d6000803e3d6000fd5b505050506040513d601f19601f82011682018060405250611ed2919081019061277b565b50611edf3384600061205a565b506040513390600160a060020a038516907ffee4bd730c5342548069b84e6a6b38c19507a6fe4bbbc4ab6f648b1ed2ad5fc890600090a350600192915050565b600082821115611f2b57fe5b50900390565b600480546040517fd04c23af000000000000000000000000000000000000000000000000000000008152600092600160a060020a039092169163d04c23af91611f809188918891889101612a0d565b600060405180830381600087803b158015611f9a57600080fd5b505af1158015611fae573d6000803e3d6000fd5b50505050600190505b9392505050565b6003546040517ffb3551ff000000000000000000000000000000000000000000000000000000008152600091600160a060020a03169063fb3551ff9061200890859060040161297c565b602060405180830381600087803b15801561202257600080fd5b505af1158015612036573d6000803e3d6000fd5b505050506040513d601f19601f8201168201806040525061166f919081019061277b565b600480546040517fb5c9cbbe000000000000000000000000000000000000000000000000000000008152600092600160a060020a039092169163b5c9cbbe916120a99188918891889101612a0d565b602060405180830381600087803b1580156120c357600080fd5b505af11580156120d7573d6000803e3d6000fd5b505050506040513d601f19601f820116820180604052506120fb919081019061277b565b949350505050565b600480546040517fb9530091000000000000000000000000000000000000000000000000000000008152600092600160a060020a039092169163b95300919161214e91869101612ab8565b600060405180830381600087803b15801561216857600080fd5b505af115801561217c573d6000803e3d6000fd5b50600195945050505050565b60006121926123dc565b6121a189898989898989612332565b600480546040517f7658af08000000000000000000000000000000000000000000000000000000008152929350600160a060020a031691637658af08916121ec918e91869101612afc565b600060405180830381600087803b15801561220657600080fd5b505af115801561221a573d6000803e3d6000fd5b5060019d9c50505050505050505050505050565b600082820183811015611fb757fe5b6000903b1190565b600480546040517fb12c52cf000000000000000000000000000000000000000000000000000000008152600092600160a060020a039092169163b12c52cf91612292918791879101612b18565b600060405180830381600087803b1580156122ac57600080fd5b505af11580156122c0573d6000803e3d6000fd5b5060019695505050505050565b60006122d7612418565b6122e588888888888861238d565b600480546040517f951e14b1000000000000000000000000000000000000000000000000000000008152929350600160a060020a03169163951e14b1916121ec918e918e91879101612b4e565b61233a6123dc565b6123426123dc565b50506040805160e081018252600160a060020a0398891681529688166020880152948716948601949094526060850192909252608084015290921660a082015290151560c082015290565b612395612418565b61239d612418565b50506040805160c081018252600160a060020a03979097168752602087019590955293850192909252151560608401521515608083015260a082015290565b6040805160e081018252600080825260208201819052918101829052606081018290526080810182905260a0810182905260c081019190915290565b6040805160c081018252600080825260208201819052918101829052606081018290526080810182905260a081019190915290565b600061166c8235612c50565b600061166c8251612c50565b600061166c8251612c5c565b6000601f8201831361248257600080fd5b813561249561249082612c28565b612c01565b915080825260208301602083018583830111156124b157600080fd5b6124bc838284612c75565b50505092915050565b600060c082840312156124d757600080fd5b6124e160c0612c01565b905060006124ef8484612459565b825250602061250084848301612613565b602083015250604061251484828501612613565b604083015250606061252884828501612465565b606083015250608061253c84828501612465565b60808301525060a061255084828501612613565b60a08301525092915050565b600060e0828403121561256e57600080fd5b61257860e0612c01565b905060006125868484612459565b825250602061259784848301612459565b60208301525060406125ab84828501612459565b60408301525060606125bf84828501612613565b60608301525060806125d384828501612613565b60808301525060a06125e784828501612459565b60a08301525060c06125fb84828501612465565b60c08301525092915050565b600061166c8235612c61565b600061166c8251612c61565b600061166c8251612c64565b60006020828403121561263d57600080fd5b60006120fb848461244d565b60006020828403121561265b57600080fd5b60006120fb8484612459565b6000806040838503121561267a57600080fd5b6000612686858561244d565b92505060206126978582860161244d565b9150509250929050565b600080600080600060a086880312156126b957600080fd5b60006126c5888861244d565b95505060206126d68882890161244d565b94505060406126e788828901612607565b93505060606126f888828901612607565b92505060806127098882890161244d565b9150509295509295909350565b60008060006060848603121561272b57600080fd5b6000612737868661244d565b935050602061274886828701612607565b925050604084013567ffffffffffffffff81111561276557600080fd5b61277186828701612471565b9150509250925092565b60006020828403121561278d57600080fd5b60006120fb8484612465565b600060c082840312156127ab57600080fd5b60006120fb84846124c5565b600060e082840312156127c957600080fd5b60006120fb848461255c565b6000602082840312156127e757600080fd5b60006120fb8484612607565b60006020828403121561280557600080fd5b60006120fb8484612613565b6000806040838503121561282457600080fd5b60006128308585612607565b925050602061269785828601612607565b60006020828403121561285357600080fd5b60006120fb848461261f565b61286881612c50565b82525050565b61286881612c5c565b61286881612c6a565b805160c0830190612891848261285f565b5060208201516128a46020850182612973565b5060408201516128b76040850182612973565b5060608201516128ca606085018261286e565b5060808201516128dd608085018261286e565b5060a082015161176760a0850182612973565b805160e0830190612901848261285f565b506020820151612914602085018261285f565b506040820151612927604085018261285f565b50606082015161293a6060850182612973565b50608082015161294d6080850182612973565b5060a082015161296060a085018261285f565b5060c082015161176760c085018261286e565b61286881612c61565b6020810161166f828461285f565b60408101612998828561285f565b611fb7602083018461285f565b60e081016129b3828a61285f565b6129c0602083018961285f565b6129cd604083018861285f565b6129da6060830187612973565b6129e76080830186612973565b6129f460a083018561285f565b612a0160c083018461286e565b98975050505050505050565b60608101612a1b828661285f565b612a28602083018561285f565b6120fb6040830184612973565b60408101612a43828561285f565b611fb76020830184612973565b60c08101612a5e828961285f565b612a6b6020830188612973565b612a786040830187612973565b612a85606083018661286e565b612a92608083018561286e565b612a9f60a0830184612973565b979650505050505050565b6020810161166f828461286e565b6020810161166f8284612973565b60408101612ad48285612973565b611fb7602083018461286e565b60408101612aef8285612973565b611fb76020830184612877565b6101008101612b0b8285612973565b611fb760208301846128f0565b60408101612a438285612973565b60608101612b348286612973565b612b416020830185612973565b6120fb604083018461286e565b6101008101612b5d8286612973565b612b6a6020830185612973565b6120fb6040830184612880565b60808101612b858287612973565b612b926020830186612973565b612b9f6040830185612973565b612bac606083018461285f565b95945050505050565b60a08101612bc38288612973565b612bd06020830187612973565b612bdd6040830186612973565b612bea6060830185612973565b612bf7608083018461285f565b9695505050505050565b60405181810167ffffffffffffffff81118282101715612c2057600080fd5b604052919050565b600067ffffffffffffffff821115612c3f57600080fd5b506020601f91909101601f19160190565b600160a060020a031690565b151590565b90565b60ff1690565b600061166f82612c61565b828183375060009101525600d09ef24100000000000000000000000000000000000000000000000000000000c23697a800000000000000000000000000000000000000000000000000000000a265627a7a723058208328ca51d1b6f2d3de2783f554d6d8f531992a2e1d5e6b7eccd340d441b258206c6578706572696d656e74616cf50037",
  "bytecodeSha1": "6866c817d2e65bc5b6fc2b397b21021cfea6142c",
  "compiler": {
    "evm_version": "byzantium",
    "optimizer": {
      "enabled": true,
      "runs": 200
    },
    "version": "0.4.25"
  },
  "contractName": "IbetOTCExchange",
  "language": "Solidity",
  "natspec": {
    "methods": {
      "balanceOf(address,address)": {
        "notice": "残高参照",
        "params": {
          "_account": "アカウントアドレス",
          "_token": "トークンアドレス"
        },
        "return": "残高数量"
      },
      "cancelAgreement(uint256,uint256)": {
        "details": "注文時に指定された決済業者から実行が可能、有効期限後はMake注文者も実行が可能",
        "notice": "決済非承認",
        "params": {
          "_agreementId": "約定ID",
          "_orderId": "注文ID"
        },
        "return": "処理結果"
      },
      "cancelOrder(uint256)": {
        "notice": "注文キャンセル",
        "params": {
          "_orderId": "注文ID"
        },
        "return": "処理結果"
      },
      "commitmentOf(address,address)": {
        "notice": "拘束数量参照",
        "params": {
          "_account": "アカウントアドレス",
          "_token": "トークンアドレス"
        },
        "return": "拘束数量"
      },
      "confirmAgreement(uint256,uint256)": {
        "details": "注文時に指定された決済業者のみ実行が可能",
        "notice": "決済承認",
        "params": {
          "_agreementId": "約定ID",
          "_orderId": "注文ID"
        },
        "return": "処理結果"
      },
      "createOrder(address,address,uint256,uint256,address)": {
        "notice": "--------------------------------------------------------------- Function: Logic ---------------------------------------------------------------Make注文",
        "params": {
          "_agent": "収納代行業者のアドレス",
          "_amount": "注文数量",
          "_counterpart": "取引相手（買い手）アドレス",
          "_price": "注文単価",
          "_token": "トークンアドレス"
        },
        "return": "処理結果"
      },
      "executeOrder(uint256)": {
        "details": "約定数量 = 注文数量",
        "notice": "Take注文",
        "params": {
          "_orderId": "注文ID"
        },
        "return": "処理結果"
      },
      "getAgreement(uint256,uint256)": {
        "notice": "約定情報取得",
        "params": {
          "_agreementId": "約定ID",
          "_orderId": "注文ID"
        },
        "return": "_counterpart 約定相手（売り手）アドレス_amount 約定数量_price 約定単価_canceled キャンセル済み状態_paid 支払済状態_expiry 有効期限"
      },
      "getOrder(uint256)": {
        "notice": "------------------------------------------------------------------- Function: getter/setter -------------------------------------------------------------------注文情報取得",
        "params": {
          "_orderId": "注文ID"
        },
        "return": "_owner 注文実行者（売り手）アドレス_counterpart 取引相手（買い手）アドレス_token トークンアドレス_amount 注文数量_price 注文単価_agent 決済業者のアドレス_canceled キャンセル済み状態"
      },
      "latestAgreementId(uint256)": {
        "notice": "直近約定ID取得",
        "params": {
          "_orderId": "注文ID"
        },
        "return": "直近約定ID"
      },
      "latestOrderId()": {
        "notice": "直近注文ID取得",
        "return": "直近注文ID"
      },
      "tokenFallback(address,uint256,bytes)": {
        "notice": "Deposit Handler：デポジット処理",
        "params": {
          "_from": "アカウントアドレス：残高を保有するアドレス",
          "_value": "デポジット数量"
        }
      },
      "transferOwnership(address)": {
        "details": "オーナーのみ実行可能",
        "notice": "オーナー変更",
        "params": {
          "newOwner": "新しいオーナー"
        }
      },
      "withdrawAll(address)": {
        "details": "未売却の預かりに対してのみ引き出しをおこなう。約定済、注文中の預かり（commitments）の引き出しはおこなわない。",
        "notice": "全ての残高を引き出しする",
        "params": {
          "_token": "トークンアドレス"
        },
        "return": "処理結果"
      }
    },
    "title": "ibet OTC DEX"
  },
  "opcodes": "PUSH1 0x80 PUSH1 0x40 MSTORE PUSH1 0x4 CALLDATASIZE LT PUSH2 0xED JUMPI PUSH4 0xFFFFFFFF PUSH1 0xE0 PUSH1 0x2 EXP PUSH1 0x0 CALLDATALOAD DIV AND PUSH4 0xAF7EB0F DUP2 EQ PUSH2 0xF2 JUMPI DUP1 PUSH4 0x307F636B EQ PUSH2 0x11D JUMPI DUP1 PUSH4 0x514FCAC7 EQ PUSH2 0x14A JUMPI DUP1 PUSH4 0x5EDADA77 EQ PUSH2 0x16A JUMPI DUP1 PUSH4 0x6F3B60D6 EQ PUSH2 0x17F JUMPI DUP1 PUSH4 0x7E6B57C8 EQ PUSH2 0x1A1 JUMPI DUP1 PUSH4 0x85AA92A7 EQ PUSH2 0x1C1 JUMPI DUP1 PUSH4 0x8DA5CB5B EQ PUSH2 0x1D6 JUMPI DUP1 PUSH4 0x94F61134 EQ PUSH2 0x1EB JUMPI DUP1 PUSH4 0xA2EE7043 EQ PUSH2 0x20B JUMPI DUP1 PUSH4 0xBF18E24E EQ PUSH2 0x22B JUMPI DUP1 PUSH4 0xC0EE0B8A EQ PUSH2 0x25D JUMPI DUP1 PUSH4 0xD09EF241 EQ PUSH2 0x27F JUMPI DUP1 PUSH4 0xD1A397E5 EQ PUSH2 0x2B2 JUMPI DUP1 PUSH4 0xD68EB73D EQ PUSH2 0x2D2 JUMPI DUP1 PUSH4 0xDC01F10B EQ PUSH2 0x2E7 JUMPI DUP1 PUSH4 0xF2FDE38B EQ PUSH2 0x307 JUMPI DUP1 PUSH4 0xF7888AEC EQ PUSH2 0x327 JUMPI DUP1 PUSH4 0xFA09E630 EQ PUSH2 0x347 JUMPI JUMPDEST PUSH1 0x0 DUP1 REVERT JUMPDEST CALLVALUE DUP1 ISZERO PUSH2 0xFE JUMPI PUSH1 0x0 DUP1 REVERT JUMPDEST POP PUSH2 0x107 PUSH2 0x367 JUMP JUMPDEST PUSH1 0x40 MLOAD PUSH2 0x114 SWAP2 SWAP1 PUSH2 0x297C JUMP JUMPDEST PUSH1 0x40 MLOAD DUP1 SWAP2 SUB SWAP1 RETURN JUMPDEST CALLVALUE DUP1 ISZERO PUSH2 0x129 JUMPI PUSH1 0x0 DUP1 REVERT JUMPDEST POP PUSH2 0x13D PUSH2 0x138 CALLDATASIZE PUSH1 0x4 PUSH2 0x2811 JUMP JUMPDEST PUSH2 0x376 JUMP JUMPDEST PUSH1 0x40 MLOAD PUSH2 0x114 SWAP2 SWAP1 PUSH2 0x2AAA JUMP JUMPDEST CALLVALUE DUP1 ISZERO PUSH2 0x156 JUMPI PUSH1 0x0 DUP1 REVERT JUMPDEST POP PUSH2 0x13D PUSH2 0x165 CALLDATASIZE PUSH1 0x4 PUSH2 0x27D5 JUMP JUMPDEST PUSH2 0x868 JUMP JUMPDEST CALLVALUE DUP1 ISZERO PUSH2 0x176 JUMPI PUSH1 0x0 DUP1 REVERT JUMPDEST POP PUSH2 0x107 PUSH2 0xB6B JUMP JUMPDEST CALLVALUE DUP1 ISZERO PUSH2 0x18B JUMPI PUSH1 0x0 DUP1 REVERT JUMPDEST POP PUSH2 0x194 PUSH2 0xB7A JUMP JUMPDEST PUSH1 0x40 MLOAD PUSH2 0x114 SWAP2 SWAP1 PUSH2 0x2AB8 JUMP JUMPDEST CALLVALUE DUP1 ISZERO PUSH2 0x1AD JUMPI PUSH1 0x0 DUP1 REVERT JUMPDEST POP PUSH2 0x13D PUSH2 0x1BC CALLDATASIZE PUSH1 0x4 PUSH2 0x26A1 JUMP JUMPDEST PUSH2 0xC0C JUMP JUMPDEST CALLVALUE DUP1 ISZERO PUSH2 0x1CD JUMPI PUSH1 0x0 DUP1 REVERT JUMPDEST POP PUSH2 0x107 PUSH2 0x107B JUMP JUMPDEST CALLVALUE DUP1 ISZERO PUSH2 0x1E2 JUMPI PUSH1 0x0 DUP1 REVERT JUMPDEST POP PUSH2 0x107 PUSH2 0x108A JUMP JUMPDEST CALLVALUE DUP1 ISZERO PUSH2 0x1F7 JUMPI PUSH1 0x0 DUP1 REVERT JUMPDEST POP PUSH2 0x13D PUSH2 0x206 CALLDATASIZE PUSH1 0x4 PUSH2 0x27D5 JUMP JUMPDEST PUSH2 0x1099 JUMP JUMPDEST CALLVALUE DUP1 ISZERO PUSH2 0x217 JUMPI PUSH1 0x0 DUP1 REVERT JUMPDEST POP PUSH2 0x194 PUSH2 0x226 CALLDATASIZE PUSH1 0x4 PUSH2 0x2667 JUMP JUMPDEST PUSH2 0x15CD JUMP JUMPDEST CALLVALUE DUP1 ISZERO PUSH2 0x237 JUMPI PUSH1 0x0 DUP1 REVERT JUMPDEST POP PUSH2 0x24B PUSH2 0x246 CALLDATASIZE PUSH1 0x4 PUSH2 0x2811 JUMP JUMPDEST PUSH2 0x1675 JUMP JUMPDEST PUSH1 0x40 MLOAD PUSH2 0x114 SWAP7 SWAP6 SWAP5 SWAP4 SWAP3 SWAP2 SWAP1 PUSH2 0x2A50 JUMP JUMPDEST CALLVALUE DUP1 ISZERO PUSH2 0x269 JUMPI PUSH1 0x0 DUP1 REVERT JUMPDEST POP PUSH2 0x27D PUSH2 0x278 CALLDATASIZE PUSH1 0x4 PUSH2 0x2716 JUMP JUMPDEST PUSH2 0x1754 JUMP JUMPDEST STOP JUMPDEST CALLVALUE DUP1 ISZERO PUSH2 0x28B JUMPI PUSH1 0x0 DUP1 REVERT JUMPDEST POP PUSH2 0x29F PUSH2 0x29A CALLDATASIZE PUSH1 0x4 PUSH2 0x27D5 JUMP JUMPDEST PUSH2 0x176D JUMP JUMPDEST PUSH1 0x40 MLOAD PUSH2 0x114 SWAP8 SWAP7 SWAP6 SWAP5 SWAP4 SWAP3 SWAP2 SWAP1 PUSH2 0x29A5 JUMP JUMPDEST CALLVALUE DUP1 ISZERO PUSH2 0x2BE JUMPI PUSH1 0x0 DUP1 REVERT JUMPDEST POP PUSH2 0x13D PUSH2 0x2CD CALLDATASIZE PUSH1 0x4 PUSH2 0x2811 JUMP JUMPDEST PUSH2 0x1840 JUMP JUMPDEST CALLVALUE DUP1 ISZERO PUSH2 0x2DE JUMPI PUSH1 0x0 DUP1 REVERT JUMPDEST POP PUSH2 0x107 PUSH2 0x1C13 JUMP JUMPDEST CALLVALUE DUP1 ISZERO PUSH2 0x2F3 JUMPI PUSH1 0x0 DUP1 REVERT JUMPDEST POP PUSH2 0x194 PUSH2 0x302 CALLDATASIZE PUSH1 0x4 PUSH2 0x27D5 JUMP JUMPDEST PUSH2 0x1C22 JUMP JUMPDEST CALLVALUE DUP1 ISZERO PUSH2 0x313 JUMPI PUSH1 0x0 DUP1 REVERT JUMPDEST POP PUSH2 0x27D PUSH2 0x322 CALLDATASIZE PUSH1 0x4 PUSH2 0x262B JUMP JUMPDEST PUSH2 0x1CBF JUMP JUMPDEST CALLVALUE DUP1 ISZERO PUSH2 0x333 JUMPI PUSH1 0x0 DUP1 REVERT JUMPDEST POP PUSH2 0x194 PUSH2 0x342 CALLDATASIZE PUSH1 0x4 PUSH2 0x2667 JUMP JUMPDEST PUSH2 0x1D53 JUMP JUMPDEST CALLVALUE DUP1 ISZERO PUSH2 0x353 JUMPI PUSH1 0x0 DUP1 REVERT JUMPDEST POP PUSH2 0x13D PUSH2 0x362 CALLDATASIZE PUSH1 0x4 PUSH2 0x262B JUMP JUMPDEST PUSH2 0x1DA0 JUMP JUMPDEST PUSH1 0x2 SLOAD PUSH1 0x1 PUSH1 0xA0 PUSH1 0x2 EXP SUB AND DUP2 JUMP JUMPDEST PUSH1 0x0 PUSH2 0x380 PUSH2 0x23DC JUMP JUMPDEST PUSH2 0x388 PUSH2 0x2418 JUMP JUMPDEST PUSH2 0x390 PUSH2 0xB7A JUMP JUMPDEST DUP6 GT ISZERO PUSH2 0x39C JUMPI PUSH1 0x0 DUP1 REVERT JUMPDEST PUSH2 0x3A5 DUP6 PUSH2 0x1C22 JUMP JUMPDEST DUP5 GT ISZERO PUSH2 0x3B1 JUMPI PUSH1 0x0 DUP1 REVERT JUMPDEST PUSH1 0x4 DUP1 SLOAD PUSH1 0x40 MLOAD PUSH1 0x0 DUP1 MLOAD PUSH1 0x20 PUSH2 0x2C82 DUP4 CODECOPY DUP2 MLOAD SWAP2 MSTORE DUP2 MSTORE PUSH1 0x1 PUSH1 0xA0 PUSH1 0x2 EXP SUB SWAP1 SWAP2 AND SWAP2 PUSH4 0xD09EF241 SWAP2 PUSH2 0x3E7 SWAP2 DUP10 SWAP2 ADD PUSH2 0x2AB8 JUMP JUMPDEST PUSH1 0xE0 PUSH1 0x40 MLOAD DUP1 DUP4 SUB DUP2 PUSH1 0x0 DUP8 DUP1 EXTCODESIZE ISZERO DUP1 ISZERO PUSH2 0x401 JUMPI PUSH1 0x0 DUP1 REVERT JUMPDEST POP GAS CALL ISZERO DUP1 ISZERO PUSH2 0x415 JUMPI RETURNDATASIZE PUSH1 0x0 DUP1 RETURNDATACOPY RETURNDATASIZE PUSH1 0x0 REVERT JUMPDEST POP POP POP POP PUSH1 0x40 MLOAD RETURNDATASIZE PUSH1 0x1F NOT PUSH1 0x1F DUP3 ADD AND DUP3 ADD DUP1 PUSH1 0x40 MSTORE POP PUSH2 0x439 SWAP2 SWAP1 DUP2 ADD SWAP1 PUSH2 0x27B7 JUMP JUMPDEST PUSH1 0x4 DUP1 SLOAD PUSH1 0x40 MLOAD PUSH32 0xBF18E24E00000000000000000000000000000000000000000000000000000000 DUP2 MSTORE SWAP3 SWAP5 POP PUSH1 0x1 PUSH1 0xA0 PUSH1 0x2 EXP SUB AND SWAP2 PUSH4 0xBF18E24E SWAP2 PUSH2 0x484 SWAP2 DUP10 SWAP2 DUP10 SWAP2 ADD PUSH2 0x2B18 JUMP JUMPDEST PUSH1 0xC0 PUSH1 0x40 MLOAD DUP1 DUP4 SUB DUP2 PUSH1 0x0 DUP8 DUP1 EXTCODESIZE ISZERO DUP1 ISZERO PUSH2 0x49E JUMPI PUSH1 0x0 DUP1 REVERT JUMPDEST POP GAS CALL ISZERO DUP1 ISZERO PUSH2 0x4B2 JUMPI RETURNDATASIZE PUSH1 0x0 DUP1 RETURNDATACOPY RETURNDATASIZE PUSH1 0x0 REVERT JUMPDEST POP POP POP POP PUSH1 0x40 MLOAD RETURNDATASIZE PUSH1 0x1F NOT PUSH1 0x1F DUP3 ADD AND DUP3 ADD DUP1 PUSH1 0x40 MSTORE POP PUSH2 0x4D6 SWAP2 SWAP1 DUP2 ADD SWAP1 PUSH2 0x2799 JUMP JUMPDEST SWAP1 POP TIMESTAMP DUP2 PUSH1 0xA0 ADD MLOAD GT ISZERO ISZERO PUSH2 0x5D3 JUMPI DUP1 PUSH1 0x80 ADD MLOAD DUP1 PUSH2 0x4F6 JUMPI POP DUP1 PUSH1 0x60 ADD MLOAD JUMPDEST DUP1 PUSH2 0x542 JUMPI POP DUP2 PUSH1 0xA0 ADD MLOAD PUSH1 0x1 PUSH1 0xA0 PUSH1 0x2 EXP SUB AND CALLER PUSH1 0x1 PUSH1 0xA0 PUSH1 0x2 EXP SUB AND EQ ISZERO DUP1 ISZERO PUSH2 0x52C JUMPI POP DUP2 MLOAD PUSH1 0x1 PUSH1 0xA0 PUSH1 0x2 EXP SUB AND CALLER EQ ISZERO JUMPDEST DUP1 ISZERO PUSH2 0x542 JUMPI POP DUP1 MLOAD PUSH1 0x1 PUSH1 0xA0 PUSH1 0x2 EXP SUB AND CALLER EQ ISZERO JUMPDEST DUP1 PUSH2 0x5C4 JUMPI POP DUP2 PUSH1 0x40 ADD MLOAD PUSH1 0x1 PUSH1 0xA0 PUSH1 0x2 EXP SUB AND PUSH4 0x200D2ED2 PUSH1 0x40 MLOAD DUP2 PUSH4 0xFFFFFFFF AND PUSH1 0xE0 PUSH1 0x2 EXP MUL DUP2 MSTORE PUSH1 0x4 ADD PUSH1 0x20 PUSH1 0x40 MLOAD DUP1 DUP4 SUB DUP2 PUSH1 0x0 DUP8 DUP1 EXTCODESIZE ISZERO DUP1 ISZERO PUSH2 0x58A JUMPI PUSH1 0x0 DUP1 REVERT JUMPDEST POP GAS CALL ISZERO DUP1 ISZERO PUSH2 0x59E JUMPI RETURNDATASIZE PUSH1 0x0 DUP1 RETURNDATACOPY RETURNDATASIZE PUSH1 0x0 REVERT JUMPDEST POP POP POP POP PUSH1 0x40 MLOAD RETURNDATASIZE PUSH1 0x1F NOT PUSH1 0x1F DUP3 ADD AND DUP3 ADD DUP1 PUSH1 0x40 MSTORE POP PUSH2 0x5C2 SWAP2 SWAP1 DUP2 ADD SWAP1 PUSH2 0x277B JUMP JUMPDEST ISZERO JUMPDEST ISZERO PUSH2 0x5CE JUMPI PUSH1 0x0 DUP1 REVERT JUMPDEST PUSH2 0x691 JUMP JUMPDEST DUP1 PUSH1 0x80 ADD MLOAD DUP1 PUSH2 0x5E4 JUMPI POP DUP1 PUSH1 0x60 ADD MLOAD JUMPDEST DUP1 PUSH2 0x605 JUMPI POP DUP2 PUSH1 0xA0 ADD MLOAD PUSH1 0x1 PUSH1 0xA0 PUSH1 0x2 EXP SUB AND CALLER PUSH1 0x1 PUSH1 0xA0 PUSH1 0x2 EXP SUB AND EQ ISZERO JUMPDEST DUP1 PUSH2 0x687 JUMPI POP DUP2 PUSH1 0x40 ADD MLOAD PUSH1 0x1 PUSH1 0xA0 PUSH1 0x2 EXP SUB AND PUSH4 0x200D2ED2 PUSH1 0x40 MLOAD DUP2 PUSH4 0xFFFFFFFF AND PUSH1 0xE0 PUSH1 0x2 EXP MUL DUP2 MSTORE PUSH1 0x4 ADD PUSH1 0x20 PUSH1 0x40 MLOAD DUP1 DUP4 SUB DUP2 PUSH1 0x0 DUP8 DUP1 EXTCODESIZE ISZERO DUP1 ISZERO PUSH2 0x64D JUMPI PUSH1 0x0 DUP1 REVERT JUMPDEST POP GAS CALL ISZERO DUP1 ISZERO PUSH2 0x661 JUMPI RETURNDATASIZE PUSH1 0x0 DUP1 RETURNDATACOPY RETURNDATASIZE PUSH1 0x0 REVERT JUMPDEST POP POP POP POP PUSH1 0x40 MLOAD RETURNDATASIZE PUSH1 0x1F NOT PUSH1 0x1F DUP3 ADD AND DUP3 ADD DUP1 PUSH1 0x40 MSTORE POP PUSH2 0x685 SWAP2 SWAP1 DUP2 ADD SWAP1 PUSH2 0x277B JUMP JUMPDEST ISZERO JUMPDEST ISZERO PUSH2 0x691 JUMPI PUSH1 0x0 DUP1 REVERT JUMPDEST PUSH1 0x4 DUP1 SLOAD PUSH1 0x40 MLOAD PUSH32 0x9EC2DB9C00000000000000000000000000000000000000000000000000000000 DUP2 MSTORE PUSH1 0x1 PUSH1 0xA0 PUSH1 0x2 EXP SUB SWAP1 SWAP2 AND SWAP2 PUSH4 0x9EC2DB9C SWAP2 PUSH2 0x6DE SWAP2 DUP10 SWAP2 DUP10 SWAP2 PUSH1 0x1 SWAP2 ADD PUSH2 0x2B26 JUMP JUMPDEST PUSH1 0x0 PUSH1 0x40 MLOAD DUP1 DUP4 SUB DUP2 PUSH1 0x0 DUP8 DUP1 EXTCODESIZE ISZERO DUP1 ISZERO PUSH2 0x6F8 JUMPI PUSH1 0x0 DUP1 REVERT JUMPDEST POP GAS CALL ISZERO DUP1 ISZERO PUSH2 0x70C JUMPI RETURNDATASIZE PUSH1 0x0 DUP1 RETURNDATACOPY RETURNDATASIZE PUSH1 0x0 REVERT JUMPDEST POP POP DUP4 MLOAD PUSH1 0x40 DUP6 ADD MLOAD PUSH1 0x20 DUP6 ADD MLOAD PUSH2 0x742 SWAP5 POP SWAP2 SWAP3 POP SWAP1 PUSH2 0x73D SWAP1 PUSH2 0x731 DUP5 DUP5 PUSH2 0x15CD JUMP JUMPDEST SWAP1 PUSH4 0xFFFFFFFF PUSH2 0x1F1F AND JUMP JUMPDEST PUSH2 0x1F31 JUMP JUMPDEST POP PUSH1 0x40 DUP1 DUP4 ADD MLOAD DUP4 MLOAD PUSH1 0x20 DUP5 ADD MLOAD SWAP3 MLOAD PUSH32 0xA9059CBB00000000000000000000000000000000000000000000000000000000 DUP2 MSTORE PUSH1 0x1 PUSH1 0xA0 PUSH1 0x2 EXP SUB SWAP1 SWAP3 AND SWAP3 PUSH4 0xA9059CBB SWAP3 PUSH2 0x795 SWAP3 SWAP2 SWAP1 PUSH1 0x4 ADD PUSH2 0x2A35 JUMP JUMPDEST PUSH1 0x20 PUSH1 0x40 MLOAD DUP1 DUP4 SUB DUP2 PUSH1 0x0 DUP8 DUP1 EXTCODESIZE ISZERO DUP1 ISZERO PUSH2 0x7AF JUMPI PUSH1 0x0 DUP1 REVERT JUMPDEST POP GAS CALL ISZERO DUP1 ISZERO PUSH2 0x7C3 JUMPI RETURNDATASIZE PUSH1 0x0 DUP1 RETURNDATACOPY RETURNDATASIZE PUSH1 0x0 REVERT JUMPDEST POP POP POP POP PUSH1 0x40 MLOAD RETURNDATASIZE PUSH1 0x1F NOT PUSH1 0x1F DUP3 ADD AND DUP3 ADD DUP1 PUSH1 0x40 MSTORE POP PUSH2 0x7E7 SWAP2 SWAP1 DUP2 ADD SWAP1 PUSH2 0x277B JUMP JUMPDEST POP DUP2 PUSH1 0x0 ADD MLOAD PUSH1 0x1 PUSH1 0xA0 PUSH1 0x2 EXP SUB AND DUP2 PUSH1 0x0 ADD MLOAD PUSH1 0x1 PUSH1 0xA0 PUSH1 0x2 EXP SUB AND DUP4 PUSH1 0x40 ADD MLOAD PUSH1 0x1 PUSH1 0xA0 PUSH1 0x2 EXP SUB AND PUSH32 0xC7065461C527949BFFA69924A2264FB3A12540677585393B0F3C3D96DDE06751 DUP9 DUP9 DUP8 PUSH1 0x80 ADD MLOAD DUP8 PUSH1 0x20 ADD MLOAD DUP10 PUSH1 0xA0 ADD MLOAD PUSH1 0x40 MLOAD PUSH2 0x855 SWAP6 SWAP5 SWAP4 SWAP3 SWAP2 SWAP1 PUSH2 0x2BB5 JUMP JUMPDEST PUSH1 0x40 MLOAD DUP1 SWAP2 SUB SWAP1 LOG4 POP PUSH1 0x1 SWAP5 SWAP4 POP POP POP POP JUMP JUMPDEST PUSH1 0x0 PUSH2 0x872 PUSH2 0x23DC JUMP JUMPDEST PUSH2 0x87A PUSH2 0xB7A JUMP JUMPDEST DUP4 GT ISZERO PUSH2 0x886 JUMPI PUSH1 0x0 DUP1 REVERT JUMPDEST PUSH1 0x4 DUP1 SLOAD PUSH1 0x40 MLOAD PUSH1 0x0 DUP1 MLOAD PUSH1 0x20 PUSH2 0x2C82 DUP4 CODECOPY DUP2 MLOAD SWAP2 MSTORE DUP2 MSTORE PUSH1 0x1 PUSH1 0xA0 PUSH1 0x2 EXP SUB SWAP1 SWAP2 AND SWAP2 PUSH4 0xD09EF241 SWAP2 PUSH2 0x8BC SWAP2 DUP8 SWAP2 ADD PUSH2 0x2AB8 JUMP JUMPDEST PUSH1 0xE0 PUSH1 0x40 MLOAD DUP1 DUP4 SUB DUP2 PUSH1 0x0 DUP8 DUP1 EXTCODESIZE ISZERO DUP1 ISZERO PUSH2 0x8D6 JUMPI PUSH1 0x0 DUP1 REVERT JUMPDEST POP GAS CALL ISZERO DUP1 ISZERO PUSH2 0x8EA JUMPI RETURNDATASIZE PUSH1 0x0 DUP1 RETURNDATACOPY RETURNDATASIZE PUSH1 0x0 REVERT JUMPDEST POP POP POP POP PUSH1 0x40 MLOAD RETURNDATASIZE PUSH1 0x1F NOT PUSH1 0x1F DUP3 ADD AND DUP3 ADD DUP1 PUSH1 0x40 MSTORE POP PUSH2 0x90E SWAP2 SWAP1 DUP2 ADD SWAP1 PUSH2 0x27B7 JUMP JUMPDEST SWAP1 POP DUP1 PUSH1 0x60 ADD MLOAD PUSH1 0x0 EQ DUP1 PUSH2 0x929 JUMPI POP PUSH1 0xC0 DUP2 ADD MLOAD ISZERO ISZERO PUSH1 0x1 EQ JUMPDEST DUP1 PUSH2 0x93E JUMPI POP DUP1 MLOAD PUSH1 0x1 PUSH1 0xA0 PUSH1 0x2 EXP SUB AND CALLER EQ ISZERO JUMPDEST DUP1 PUSH2 0x9C0 JUMPI POP DUP1 PUSH1 0x40 ADD MLOAD PUSH1 0x1 PUSH1 0xA0 PUSH1 0x2 EXP SUB AND PUSH4 0x200D2ED2 PUSH1 0x40 MLOAD DUP2 PUSH4 0xFFFFFFFF AND PUSH1 0xE0 PUSH1 0x2 EXP MUL DUP2 MSTORE PUSH1 0x4 ADD PUSH1 0x20 PUSH1 0x40 MLOAD DUP1 DUP4 SUB DUP2 PUSH1 0x0 DUP8 DUP1 EXTCODESIZE ISZERO DUP1 ISZERO PUSH2 0x986 JUMPI PUSH1 0x0 DUP1 REVERT JUMPDEST POP GAS CALL ISZERO DUP1 ISZERO PUSH2 0x99A JUMPI RETURNDATASIZE PUSH1 0x0 DUP1 RETURNDATACOPY RETURNDATASIZE PUSH1 0x0 REVERT JUMPDEST POP POP POP POP PUSH1 0x40 MLOAD RETURNDATASIZE PUSH1 0x1F NOT PUSH1 0x1F DUP3 ADD AND DUP3 ADD DUP1 PUSH1 0x40 MSTORE POP PUSH2 0x9BE SWAP2 SWAP1 DUP2 ADD SWAP1 PUSH2 0x277B JUMP JUMPDEST ISZERO JUMPDEST ISZERO PUSH2 0x9CA JUMPI PUSH1 0x0 DUP1 REVERT JUMPDEST PUSH2 0x9E9 CALLER DUP3 PUSH1 0x40 ADD MLOAD PUSH2 0x73D DUP5 PUSH1 0x60 ADD MLOAD PUSH2 0x731 CALLER DUP8 PUSH1 0x40 ADD MLOAD PUSH2 0x15CD JUMP JUMPDEST POP DUP1 PUSH1 0x40 ADD MLOAD PUSH1 0x1 PUSH1 0xA0 PUSH1 0x2 EXP SUB AND PUSH4 0xA9059CBB CALLER DUP4 PUSH1 0x60 ADD MLOAD PUSH1 0x40 MLOAD DUP4 PUSH4 0xFFFFFFFF AND PUSH1 0xE0 PUSH1 0x2 EXP MUL DUP2 MSTORE PUSH1 0x4 ADD PUSH2 0xA23 SWAP3 SWAP2 SWAP1 PUSH2 0x2A35 JUMP JUMPDEST PUSH1 0x20 PUSH1 0x40 MLOAD DUP1 DUP4 SUB DUP2 PUSH1 0x0 DUP8 DUP1 EXTCODESIZE ISZERO DUP1 ISZERO PUSH2 0xA3D JUMPI PUSH1 0x0 DUP1 REVERT JUMPDEST POP GAS CALL ISZERO DUP1 ISZERO PUSH2 0xA51 JUMPI RETURNDATASIZE PUSH1 0x0 DUP1 RETURNDATACOPY RETURNDATASIZE PUSH1 0x0 REVERT JUMPDEST POP POP POP POP PUSH1 0x40 MLOAD RETURNDATASIZE PUSH1 0x1F NOT PUSH1 0x1F DUP3 ADD AND DUP3 ADD DUP1 PUSH1 0x40 MSTORE POP PUSH2 0xA75 SWAP2 SWAP1 DUP2 ADD SWAP1 PUSH2 0x277B JUMP JUMPDEST POP PUSH1 0x4 DUP1 SLOAD PUSH1 0x40 MLOAD PUSH32 0xD4A0ECE600000000000000000000000000000000000000000000000000000000 DUP2 MSTORE PUSH1 0x1 PUSH1 0xA0 PUSH1 0x2 EXP SUB SWAP1 SWAP2 AND SWAP2 PUSH4 0xD4A0ECE6 SWAP2 PUSH2 0xAC1 SWAP2 DUP8 SWAP2 PUSH1 0x1 SWAP2 ADD PUSH2 0x2AC6 JUMP JUMPDEST PUSH1 0x0 PUSH1 0x40 MLOAD DUP1 DUP4 SUB DUP2 PUSH1 0x0 DUP8 DUP1 EXTCODESIZE ISZERO DUP1 ISZERO PUSH2 0xADB JUMPI PUSH1 0x0 DUP1 REVERT JUMPDEST POP GAS CALL ISZERO DUP1 ISZERO PUSH2 0xAEF JUMPI RETURNDATASIZE PUSH1 0x0 DUP1 RETURNDATACOPY RETURNDATASIZE PUSH1 0x0 REVERT JUMPDEST POP POP POP POP DUP1 PUSH1 0x20 ADD MLOAD PUSH1 0x1 PUSH1 0xA0 PUSH1 0x2 EXP SUB AND CALLER PUSH1 0x1 PUSH1 0xA0 PUSH1 0x2 EXP SUB AND DUP3 PUSH1 0x40 ADD MLOAD PUSH1 0x1 PUSH1 0xA0 PUSH1 0x2 EXP SUB AND PUSH32 0xFB97207A84503704A5D59D609047590820F2517612834319B990DDB4B9F86DCE DUP7 DUP6 PUSH1 0x80 ADD MLOAD DUP7 PUSH1 0x60 ADD MLOAD DUP8 PUSH1 0xA0 ADD MLOAD PUSH1 0x40 MLOAD PUSH2 0xB5A SWAP5 SWAP4 SWAP3 SWAP2 SWAP1 PUSH2 0x2B77 JUMP JUMPDEST PUSH1 0x40 MLOAD DUP1 SWAP2 SUB SWAP1 LOG4 POP PUSH1 0x1 SWAP3 SWAP2 POP POP JUMP JUMPDEST PUSH1 0x3 SLOAD PUSH1 0x1 PUSH1 0xA0 PUSH1 0x2 EXP SUB AND DUP2 JUMP JUMPDEST PUSH1 0x0 PUSH1 0x4 PUSH1 0x0 SWAP1 SLOAD SWAP1 PUSH2 0x100 EXP SWAP1 DIV PUSH1 0x1 PUSH1 0xA0 PUSH1 0x2 EXP SUB AND PUSH1 0x1 PUSH1 0xA0 PUSH1 0x2 EXP SUB AND PUSH4 0x3D7FE973 PUSH1 0x40 MLOAD DUP2 PUSH4 0xFFFFFFFF AND PUSH1 0xE0 PUSH1 0x2 EXP MUL DUP2 MSTORE PUSH1 0x4 ADD PUSH1 0x20 PUSH1 0x40 MLOAD DUP1 DUP4 SUB DUP2 PUSH1 0x0 DUP8 DUP1 EXTCODESIZE ISZERO DUP1 ISZERO PUSH2 0xBCF JUMPI PUSH1 0x0 DUP1 REVERT JUMPDEST POP GAS CALL ISZERO DUP1 ISZERO PUSH2 0xBE3 JUMPI RETURNDATASIZE PUSH1 0x0 DUP1 RETURNDATACOPY RETURNDATASIZE PUSH1 0x0 REVERT JUMPDEST POP POP POP POP PUSH1 0x40 MLOAD RETURNDATASIZE PUSH1 0x1F NOT PUSH1 0x1F DUP3 ADD AND DUP3 ADD DUP1 PUSH1 0x40 MSTORE POP PUSH2 0xC07 SWAP2 SWAP1 DUP2 ADD SWAP1 PUSH2 0x27F3 JUMP JUMPDEST SWAP1 POP SWAP1 JUMP JUMPDEST PUSH1 0x5 SLOAD PUSH1 0x0 SWAP1 DUP2 SWAP1 PUSH1 0x1 PUSH1 0xA0 PUSH1 0x2 EXP SUB AND ISZERO PUSH2 0xD4E JUMPI PUSH1 0x5 SLOAD PUSH1 0x40 MLOAD PUSH1 0x0 DUP1 MLOAD PUSH1 0x20 PUSH2 0x2CA2 DUP4 CODECOPY DUP2 MLOAD SWAP2 MSTORE DUP2 MSTORE PUSH1 0x1 PUSH1 0xA0 PUSH1 0x2 EXP SUB SWAP1 SWAP2 AND SWAP1 PUSH4 0xC23697A8 SWAP1 PUSH2 0xC59 SWAP1 CALLER SWAP1 PUSH1 0x4 ADD PUSH2 0x297C JUMP JUMPDEST PUSH1 0x20 PUSH1 0x40 MLOAD DUP1 DUP4 SUB DUP2 PUSH1 0x0 DUP8 DUP1 EXTCODESIZE ISZERO DUP1 ISZERO PUSH2 0xC73 JUMPI PUSH1 0x0 DUP1 REVERT JUMPDEST POP GAS CALL ISZERO DUP1 ISZERO PUSH2 0xC87 JUMPI RETURNDATASIZE PUSH1 0x0 DUP1 RETURNDATACOPY RETURNDATASIZE PUSH1 0x0 REVERT JUMPDEST POP POP POP POP PUSH1 0x40 MLOAD RETURNDATASIZE PUSH1 0x1F NOT PUSH1 0x1F DUP3 ADD AND DUP3 ADD DUP1 PUSH1 0x40 MSTORE POP PUSH2 0xCAB SWAP2 SWAP1 DUP2 ADD SWAP1 PUSH2 0x2841 JUMP JUMPDEST PUSH1 0xFF AND ISZERO DUP1 PUSH2 0xD43 JUMPI POP PUSH1 0x5 SLOAD PUSH1 0x40 MLOAD PUSH1 0x0 DUP1 MLOAD PUSH1 0x20 PUSH2 0x2CA2 DUP4 CODECOPY DUP2 MLOAD SWAP2 MSTORE DUP2 MSTORE PUSH1 0x1 PUSH1 0xA0 PUSH1 0x2 EXP SUB SWAP1 SWAP2 AND SWAP1 PUSH4 0xC23697A8 SWAP1 PUSH2 0xCEC SWAP1 DUP11 SWAP1 PUSH1 0x4 ADD PUSH2 0x297C JUMP JUMPDEST PUSH1 0x20 PUSH1 0x40 MLOAD DUP1 DUP4 SUB DUP2 PUSH1 0x0 DUP8 DUP1 EXTCODESIZE ISZERO DUP1 ISZERO PUSH2 0xD06 JUMPI PUSH1 0x0 DUP1 REVERT JUMPDEST POP GAS CALL ISZERO DUP1 ISZERO PUSH2 0xD1A JUMPI RETURNDATASIZE PUSH1 0x0 DUP1 RETURNDATACOPY RETURNDATASIZE PUSH1 0x0 REVERT JUMPDEST POP POP POP POP PUSH1 0x40 MLOAD RETURNDATASIZE PUSH1 0x1F NOT PUSH1 0x1F DUP3 ADD AND DUP3 ADD DUP1 PUSH1 0x40 MSTORE POP PUSH2 0xD3E SWAP2 SWAP1 DUP2 ADD SWAP1 PUSH2 0x2841 JUMP JUMPDEST PUSH1 0xFF AND ISZERO JUMPDEST ISZERO ISZERO PUSH2 0xD4E JUMPI PUSH1 0x0 DUP1 REVERT JUMPDEST DUP5 ISZERO DUP1 PUSH2 0xD63 JUMPI POP DUP5 PUSH2 0xD61 CALLER DUP9 PUSH2 0x1D53 JUMP JUMPDEST LT JUMPDEST DUP1 PUSH2 0xE78 JUMPI POP PUSH1 0x2 PUSH1 0x0 SWAP1 SLOAD SWAP1 PUSH2 0x100 EXP SWAP1 DIV PUSH1 0x1 PUSH1 0xA0 PUSH1 0x2 EXP SUB AND PUSH1 0x1 PUSH1 0xA0 PUSH1 0x2 EXP SUB AND PUSH4 0xD3DA927F CALLER DUP9 PUSH1 0x1 PUSH1 0xA0 PUSH1 0x2 EXP SUB AND PUSH4 0x8DA5CB5B PUSH1 0x40 MLOAD DUP2 PUSH4 0xFFFFFFFF AND PUSH1 0xE0 PUSH1 0x2 EXP MUL DUP2 MSTORE PUSH1 0x4 ADD PUSH1 0x20 PUSH1 0x40 MLOAD DUP1 DUP4 SUB DUP2 PUSH1 0x0 DUP8 DUP1 EXTCODESIZE ISZERO DUP1 ISZERO PUSH2 0xDCC JUMPI PUSH1 0x0 DUP1 REVERT JUMPDEST POP GAS CALL ISZERO DUP1 ISZERO PUSH2 0xDE0 JUMPI RETURNDATASIZE PUSH1 0x0 DUP1 RETURNDATACOPY RETURNDATASIZE PUSH1 0x0 REVERT JUMPDEST POP POP POP POP PUSH1 0x40 MLOAD RETURNDATASIZE PUSH1 0x1F NOT PUSH1 0x1F DUP3 ADD AND DUP3 ADD DUP1 PUSH1 0x40 MSTORE POP PUSH2 0xE04 SWAP2 SWAP1 DUP2 ADD SWAP1 PUSH2 0x2649 JUMP JUMPDEST PUSH1 0x40 MLOAD DUP4 PUSH4 0xFFFFFFFF AND PUSH1 0xE0 PUSH1 0x2 EXP MUL DUP2 MSTORE PUSH1 0x4 ADD PUSH2 0xE24 SWAP3 SWAP2 SWAP1 PUSH2 0x298A JUMP JUMPDEST PUSH1 0x20 PUSH1 0x40 MLOAD DUP1 DUP4 SUB DUP2 PUSH1 0x0 DUP8 DUP1 EXTCODESIZE ISZERO DUP1 ISZERO PUSH2 0xE3E JUMPI PUSH1 0x0 DUP1 REVERT JUMPDEST POP GAS CALL ISZERO DUP1 ISZERO PUSH2 0xE52 JUMPI RETURNDATASIZE PUSH1 0x0 DUP1 RETURNDATACOPY RETURNDATASIZE PUSH1 0x0 REVERT JUMPDEST POP POP POP POP PUSH1 0x40 MLOAD RETURNDATASIZE PUSH1 0x1F NOT PUSH1 0x1F DUP3 ADD AND DUP3 ADD DUP1 PUSH1 0x40 MSTORE POP PUSH2 0xE76 SWAP2 SWAP1 DUP2 ADD SWAP1 PUSH2 0x277B JUMP JUMPDEST ISZERO JUMPDEST DUP1 PUSH2 0xEF6 JUMPI POP DUP6 PUSH1 0x1 PUSH1 0xA0 PUSH1 0x2 EXP SUB AND PUSH4 0x200D2ED2 PUSH1 0x40 MLOAD DUP2 PUSH4 0xFFFFFFFF AND PUSH1 0xE0 PUSH1 0x2 EXP MUL DUP2 MSTORE PUSH1 0x4 ADD PUSH1 0x20 PUSH1 0x40 MLOAD DUP1 DUP4 SUB DUP2 PUSH1 0x0 DUP8 DUP1 EXTCODESIZE ISZERO DUP1 ISZERO PUSH2 0xEBC JUMPI PUSH1 0x0 DUP1 REVERT JUMPDEST POP GAS CALL ISZERO DUP1 ISZERO PUSH2 0xED0 JUMPI RETURNDATASIZE PUSH1 0x0 DUP1 RETURNDATACOPY RETURNDATASIZE PUSH1 0x0 REVERT JUMPDEST POP POP POP POP PUSH1 0x40 MLOAD RETURNDATASIZE PUSH1 0x1F NOT PUSH1 0x1F DUP3 ADD AND DUP3 ADD DUP1 PUSH1 0x40 MSTORE POP PUSH2 0xEF4 SWAP2 SWAP1 DUP2 ADD SWAP1 PUSH2 0x277B JUMP JUMPDEST ISZERO JUMPDEST DUP1 PUSH2 0xF07 JUMPI POP PUSH2 0xF05 DUP4 PUSH2 0x1FBE JUMP JUMPDEST ISZERO JUMPDEST ISZERO PUSH2 0xFAF JUMPI DUP6 PUSH1 0x1 PUSH1 0xA0 PUSH1 0x2 EXP SUB AND PUSH4 0xA9059CBB CALLER PUSH2 0xF26 CALLER DUP11 PUSH2 0x1D53 JUMP JUMPDEST PUSH1 0x40 MLOAD DUP4 PUSH4 0xFFFFFFFF AND PUSH1 0xE0 PUSH1 0x2 EXP MUL DUP2 MSTORE PUSH1 0x4 ADD PUSH2 0xF46 SWAP3 SWAP2 SWAP1 PUSH2 0x2A35 JUMP JUMPDEST PUSH1 0x20 PUSH1 0x40 MLOAD DUP1 DUP4 SUB DUP2 PUSH1 0x0 DUP8 DUP1 EXTCODESIZE ISZERO DUP1 ISZERO PUSH2 0xF60 JUMPI PUSH1 0x0 DUP1 REVERT JUMPDEST POP GAS CALL ISZERO DUP1 ISZERO PUSH2 0xF74 JUMPI RETURNDATASIZE PUSH1 0x0 DUP1 RETURNDATACOPY RETURNDATASIZE PUSH1 0x0 REVERT JUMPDEST POP POP POP POP PUSH1 0x40 MLOAD RETURNDATASIZE PUSH1 0x1F NOT PUSH1 0x1F DUP3 ADD AND DUP3 ADD DUP1 PUSH1 0x40 MSTORE POP PUSH2 0xF98 SWAP2 SWAP1 DUP2 ADD SWAP1 PUSH2 0x277B JUMP JUMPDEST POP PUSH2 0xFA5 CALLER DUP8 PUSH1 0x0 PUSH2 0x205A JUMP JUMPDEST POP PUSH1 0x0 SWAP2 POP PUSH2 0x1071 JUMP JUMPDEST PUSH2 0xFB7 PUSH2 0xB7A JUMP JUMPDEST PUSH1 0x1 ADD SWAP1 POP PUSH2 0xFC5 DUP2 PUSH2 0x2103 JUMP JUMPDEST POP PUSH2 0xFD7 DUP2 CALLER DUP10 DUP10 DUP10 DUP10 DUP10 PUSH1 0x0 PUSH2 0x2188 JUMP JUMPDEST POP PUSH2 0xFF0 CALLER DUP8 PUSH2 0xFEB DUP9 PUSH2 0x731 CALLER DUP13 PUSH2 0x1D53 JUMP JUMPDEST PUSH2 0x205A JUMP JUMPDEST POP PUSH2 0x1010 CALLER DUP8 PUSH2 0x73D DUP9 PUSH2 0x1004 CALLER DUP13 PUSH2 0x15CD JUMP JUMPDEST SWAP1 PUSH4 0xFFFFFFFF PUSH2 0x222E AND JUMP JUMPDEST POP DUP7 PUSH1 0x1 PUSH1 0xA0 PUSH1 0x2 EXP SUB AND CALLER PUSH1 0x1 PUSH1 0xA0 PUSH1 0x2 EXP SUB AND DUP8 PUSH1 0x1 PUSH1 0xA0 PUSH1 0x2 EXP SUB AND PUSH32 0x452BCB7610AF3944D43F8DF1FF64DECFC7934A3C4BBBAB26BC0BC4FE13C44CB7 DUP5 DUP9 DUP11 DUP10 PUSH1 0x40 MLOAD PUSH2 0x1064 SWAP5 SWAP4 SWAP3 SWAP2 SWAP1 PUSH2 0x2B77 JUMP JUMPDEST PUSH1 0x40 MLOAD DUP1 SWAP2 SUB SWAP1 LOG4 PUSH1 0x1 SWAP2 POP JUMPDEST POP SWAP6 SWAP5 POP POP POP POP POP JUMP JUMPDEST PUSH1 0x4 SLOAD PUSH1 0x1 PUSH1 0xA0 PUSH1 0x2 EXP SUB AND DUP2 JUMP JUMPDEST PUSH1 0x0 SLOAD PUSH1 0x1 PUSH1 0xA0 PUSH1 0x2 EXP SUB AND DUP2 JUMP JUMPDEST PUSH1 0x0 PUSH2 0x10A3 PUSH2 0x23DC JUMP JUMPDEST PUSH1 0x0 DUP1 PUSH2 0x10AE PUSH2 0xB7A JUMP JUMPDEST DUP6 GT ISZERO PUSH2 0x10BA JUMPI PUSH1 0x0 DUP1 REVERT JUMPDEST PUSH1 0x4 DUP1 SLOAD PUSH1 0x40 MLOAD PUSH1 0x0 DUP1 MLOAD PUSH1 0x20 PUSH2 0x2C82 DUP4 CODECOPY DUP2 MLOAD SWAP2 MSTORE DUP2 MSTORE PUSH1 0x1 PUSH1 0xA0 PUSH1 0x2 EXP SUB SWAP1 SWAP2 AND SWAP2 PUSH4 0xD09EF241 SWAP2 PUSH2 0x10F0 SWAP2 DUP10 SWAP2 ADD PUSH2 0x2AB8 JUMP JUMPDEST PUSH1 0xE0 PUSH1 0x40 MLOAD DUP1 DUP4 SUB DUP2 PUSH1 0x0 DUP8 DUP1 EXTCODESIZE ISZERO DUP1 ISZERO PUSH2 0x110A JUMPI PUSH1 0x0 DUP1 REVERT JUMPDEST POP GAS CALL ISZERO DUP1 ISZERO PUSH2 0x111E JUMPI RETURNDATASIZE PUSH1 0x0 DUP1 RETURNDATACOPY RETURNDATASIZE PUSH1 0x0 REVERT JUMPDEST POP POP POP POP PUSH1 0x40 MLOAD RETURNDATASIZE PUSH1 0x1F NOT PUSH1 0x1F DUP3 ADD AND DUP3 ADD DUP1 PUSH1 0x40 MSTORE POP PUSH2 0x1142 SWAP2 SWAP1 DUP2 ADD SWAP1 PUSH2 0x27B7 JUMP JUMPDEST PUSH1 0x5 SLOAD SWAP1 SWAP4 POP PUSH1 0x1 PUSH1 0xA0 PUSH1 0x2 EXP SUB AND ISZERO PUSH2 0x1282 JUMPI PUSH1 0x5 SLOAD PUSH1 0x40 MLOAD PUSH1 0x0 DUP1 MLOAD PUSH1 0x20 PUSH2 0x2CA2 DUP4 CODECOPY DUP2 MLOAD SWAP2 MSTORE DUP2 MSTORE PUSH1 0x1 PUSH1 0xA0 PUSH1 0x2 EXP SUB SWAP1 SWAP2 AND SWAP1 PUSH4 0xC23697A8 SWAP1 PUSH2 0x118D SWAP1 CALLER SWAP1 PUSH1 0x4 ADD PUSH2 0x297C JUMP JUMPDEST PUSH1 0x20 PUSH1 0x40 MLOAD DUP1 DUP4 SUB DUP2 PUSH1 0x0 DUP8 DUP1 EXTCODESIZE ISZERO DUP1 ISZERO PUSH2 0x11A7 JUMPI PUSH1 0x0 DUP1 REVERT JUMPDEST POP GAS CALL ISZERO DUP1 ISZERO PUSH2 0x11BB JUMPI RETURNDATASIZE PUSH1 0x0 DUP1 RETURNDATACOPY RETURNDATASIZE PUSH1 0x0 REVERT JUMPDEST POP POP POP POP PUSH1 0x40 MLOAD RETURNDATASIZE PUSH1 0x1F NOT PUSH1 0x1F DUP3 ADD AND DUP3 ADD DUP1 PUSH1 0x40 MSTORE POP PUSH2 0x11DF SWAP2 SWAP1 DUP2 ADD SWAP1 PUSH2 0x2841 JUMP JUMPDEST PUSH1 0xFF AND ISZERO DUP1 PUSH2 0x1277 JUMPI POP PUSH1 0x5 SLOAD DUP4 MLOAD PUSH1 0x40 MLOAD PUSH1 0x0 DUP1 MLOAD PUSH1 0x20 PUSH2 0x2CA2 DUP4 CODECOPY DUP2 MLOAD SWAP2 MSTORE DUP2 MSTORE PUSH1 0x1 PUSH1 0xA0 PUSH1 0x2 EXP SUB SWAP1 SWAP3 AND SWAP2 PUSH4 0xC23697A8 SWAP2 PUSH2 0x1220 SWAP2 PUSH1 0x4 ADD PUSH2 0x297C JUMP JUMPDEST PUSH1 0x20 PUSH1 0x40 MLOAD DUP1 DUP4 SUB DUP2 PUSH1 0x0 DUP8 DUP1 EXTCODESIZE ISZERO DUP1 ISZERO PUSH2 0x123A JUMPI PUSH1 0x0 DUP1 REVERT JUMPDEST POP GAS CALL ISZERO DUP1 ISZERO PUSH2 0x124E JUMPI RETURNDATASIZE PUSH1 0x0 DUP1 RETURNDATACOPY RETURNDATASIZE PUSH1 0x0 REVERT JUMPDEST POP POP POP POP PUSH1 0x40 MLOAD RETURNDATASIZE PUSH1 0x1F NOT PUSH1 0x1F DUP3 ADD AND DUP3 ADD DUP1 PUSH1 0x40 MSTORE POP PUSH2 0x1272 SWAP2 SWAP1 DUP2 ADD SWAP1 PUSH2 0x2841 JUMP JUMPDEST PUSH1 0xFF AND ISZERO JUMPDEST ISZERO ISZERO PUSH2 0x1282 JUMPI PUSH1 0x0 DUP1 REVERT JUMPDEST DUP3 MLOAD PUSH1 0x1 PUSH1 0xA0 PUSH1 0x2 EXP SUB AND CALLER EQ DUP1 PUSH2 0x12A6 JUMPI POP PUSH1 0x20 DUP4 ADD MLOAD PUSH1 0x1 PUSH1 0xA0 PUSH1 0x2 EXP SUB AND CALLER EQ JUMPDEST DUP1 PUSH2 0x12BD JUMPI POP PUSH1 0xA0 DUP4 ADD MLOAD PUSH1 0x1 PUSH1 0xA0 PUSH1 0x2 EXP SUB AND CALLER EQ JUMPDEST ISZERO ISZERO PUSH2 0x12C8 JUMPI PUSH1 0x0 DUP1 REVERT JUMPDEST DUP3 MLOAD PUSH1 0x1 PUSH1 0xA0 PUSH1 0x2 EXP SUB AND CALLER EQ DUP1 PUSH2 0x12E6 JUMPI POP PUSH1 0xC0 DUP4 ADD MLOAD ISZERO ISZERO PUSH1 0x1 EQ JUMPDEST DUP1 PUSH2 0x13FF JUMPI POP PUSH1 0x2 PUSH1 0x0 SWAP1 SLOAD SWAP1 PUSH2 0x100 EXP SWAP1 DIV PUSH1 0x1 PUSH1 0xA0 PUSH1 0x2 EXP SUB AND PUSH1 0x1 PUSH1 0xA0 PUSH1 0x2 EXP SUB AND PUSH4 0xD3DA927F CALLER DUP6 PUSH1 0x40 ADD MLOAD PUSH1 0x1 PUSH1 0xA0 PUSH1 0x2 EXP SUB AND PUSH4 0x8DA5CB5B PUSH1 0x40 MLOAD DUP2 PUSH4 0xFFFFFFFF AND PUSH1 0xE0 PUSH1 0x2 EXP MUL DUP2 MSTORE PUSH1 0x4 ADD PUSH1 0x20 PUSH1 0x40 MLOAD DUP1 DUP4 SUB DUP2 PUSH1 0x0 DUP8 DUP1 EXTCODESIZE ISZERO DUP1 ISZERO PUSH2 0x1353 JUMPI PUSH1 0x0 DUP1 REVERT JUMPDEST POP GAS CALL ISZERO DUP1 ISZERO PUSH2 0x1367 JUMPI RETURNDATASIZE PUSH1 0x0 DUP1 RETURNDATACOPY RETURNDATASIZE PUSH1 0x0 REVERT JUMPDEST POP POP POP POP PUSH1 0x40 MLOAD RETURNDATASIZE PUSH1 0x1F NOT PUSH1 0x1F DUP3 ADD AND DUP3 ADD DUP1 PUSH1 0x40 MSTORE POP PUSH2 0x138B SWAP2 SWAP1 DUP2 ADD SWAP1 PUSH2 0x2649 JUMP JUMPDEST PUSH1 0x40 MLOAD DUP4 PUSH4 0xFFFFFFFF AND PUSH1 0xE0 PUSH1 0x2 EXP MUL DUP2 MSTORE PUSH1 0x4 ADD PUSH2 0x13AB SWAP3 SWAP2 SWAP1 PUSH2 0x298A JUMP JUMPDEST PUSH1 0x20 PUSH1 0x40 MLOAD DUP1 DUP4 SUB DUP2 PUSH1 0x0 DUP8 DUP1 EXTCODESIZE ISZERO DUP1 ISZERO PUSH2 0x13C5 JUMPI PUSH1 0x0 DUP1 REVERT JUMPDEST POP GAS CALL ISZERO DUP1 ISZERO PUSH2 0x13D9 JUMPI RETURNDATASIZE PUSH1 0x0 DUP1 RETURNDATACOPY RETURNDATASIZE PUSH1 0x0 REVERT JUMPDEST POP POP POP POP PUSH1 0x40 MLOAD RETURNDATASIZE PUSH1 0x1F NOT PUSH1 0x1F DUP3 ADD AND DUP3 ADD DUP1 PUSH1 0x40 MSTORE POP PUSH2 0x13FD SWAP2 SWAP1 DUP2 ADD SWAP1 PUSH2 0x277B JUMP JUMPDEST ISZERO JUMPDEST DUP1 PUSH2 0x1414 JUMPI POP PUSH2 0x140E CALLER PUSH2 0x223D JUMP JUMPDEST ISZERO ISZERO PUSH1 0x1 EQ JUMPDEST DUP1 PUSH2 0x1496 JUMPI POP DUP3 PUSH1 0x40 ADD MLOAD PUSH1 0x1 PUSH1 0xA0 PUSH1 0x2 EXP SUB AND PUSH4 0x200D2ED2 PUSH1 0x40 MLOAD DUP2 PUSH4 0xFFFFFFFF AND PUSH1 0xE0 PUSH1 0x2 EXP MUL DUP2 MSTORE PUSH1 0x4 ADD PUSH1 0x20 PUSH1 0x40 MLOAD DUP1 DUP4 SUB DUP2 PUSH1 0x0 DUP8 DUP1 EXTCODESIZE ISZERO DUP1 ISZERO PUSH2 0x145C JUMPI PUSH1 0x0 DUP1 REVERT JUMPDEST POP GAS CALL ISZERO DUP1 ISZERO PUSH2 0x1470 JUMPI RETURNDATASIZE PUSH1 0x0 DUP1 RETURNDATACOPY RETURNDATASIZE PUSH1 0x0 REVERT JUMPDEST POP POP POP POP PUSH1 0x40 MLOAD RETURNDATASIZE PUSH1 0x1F NOT PUSH1 0x1F DUP3 ADD AND DUP3 ADD DUP1 PUSH1 0x40 MSTORE POP PUSH2 0x1494 SWAP2 SWAP1 DUP2 ADD SWAP1 PUSH2 0x277B JUMP JUMPDEST ISZERO JUMPDEST DUP1 PUSH2 0x14A3 JUMPI POP PUSH1 0x60 DUP4 ADD MLOAD ISZERO JUMPDEST ISZERO PUSH2 0x14AD JUMPI PUSH1 0x0 DUP1 REVERT JUMPDEST PUSH2 0x14B6 DUP6 PUSH2 0x1C22 JUMP JUMPDEST PUSH1 0x1 ADD SWAP2 POP PUSH2 0x14C5 DUP6 DUP4 PUSH2 0x2245 JUMP JUMPDEST POP PUSH1 0x1 SLOAD TIMESTAMP ADD SWAP1 POP PUSH2 0x14E6 DUP6 DUP4 CALLER DUP7 PUSH1 0x60 ADD MLOAD DUP8 PUSH1 0x80 ADD MLOAD PUSH1 0x0 DUP1 DUP9 PUSH2 0x22CD JUMP JUMPDEST POP PUSH1 0x4 DUP1 SLOAD PUSH1 0x40 MLOAD PUSH32 0x5116EB0200000000000000000000000000000000000000000000000000000000 DUP2 MSTORE PUSH1 0x1 PUSH1 0xA0 PUSH1 0x2 EXP SUB SWAP1 SWAP2 AND SWAP2 PUSH4 0x5116EB02 SWAP2 PUSH2 0x1532 SWAP2 DUP10 SWAP2 PUSH1 0x0 SWAP2 ADD PUSH2 0x2AE1 JUMP JUMPDEST PUSH1 0x0 PUSH1 0x40 MLOAD DUP1 DUP4 SUB DUP2 PUSH1 0x0 DUP8 DUP1 EXTCODESIZE ISZERO DUP1 ISZERO PUSH2 0x154C JUMPI PUSH1 0x0 DUP1 REVERT JUMPDEST POP GAS CALL ISZERO DUP1 ISZERO PUSH2 0x1560 JUMPI RETURNDATASIZE PUSH1 0x0 DUP1 RETURNDATACOPY RETURNDATASIZE PUSH1 0x0 REVERT JUMPDEST POP POP POP POP DUP3 PUSH1 0x0 ADD MLOAD PUSH1 0x1 PUSH1 0xA0 PUSH1 0x2 EXP SUB AND CALLER PUSH1 0x1 PUSH1 0xA0 PUSH1 0x2 EXP SUB AND DUP5 PUSH1 0x40 ADD MLOAD PUSH1 0x1 PUSH1 0xA0 PUSH1 0x2 EXP SUB AND PUSH32 0x8572520837758EE6D544B77E467AA6BB30EA06C0E78C287B0D2A7D106F25D166 DUP9 DUP7 DUP9 PUSH1 0x80 ADD MLOAD DUP10 PUSH1 0x60 ADD MLOAD DUP11 PUSH1 0xA0 ADD MLOAD PUSH1 0x40 MLOAD PUSH2 0x855 SWAP6 SWAP5 SWAP4 SWAP3 SWAP2 SWAP1 PUSH2 0x2BB5 JUMP JUMPDEST PUSH1 0x4 DUP1 SLOAD PUSH1 0x40 MLOAD PUSH32 0x97D901200000000000000000000000000000000000000000000000000000000 DUP2 MSTORE PUSH1 0x0 SWAP3 PUSH1 0x1 PUSH1 0xA0 PUSH1 0x2 EXP SUB SWAP1 SWAP3 AND SWAP2 PUSH4 0x97D9012 SWAP2 PUSH2 0x161A SWAP2 DUP8 SWAP2 DUP8 SWAP2 ADD PUSH2 0x298A JUMP JUMPDEST PUSH1 0x20 PUSH1 0x40 MLOAD DUP1 DUP4 SUB DUP2 PUSH1 0x0 DUP8 DUP1 EXTCODESIZE ISZERO DUP1 ISZERO PUSH2 0x1634 JUMPI PUSH1 0x0 DUP1 REVERT JUMPDEST POP GAS CALL ISZERO DUP1 ISZERO PUSH2 0x1648 JUMPI RETURNDATASIZE PUSH1 0x0 DUP1 RETURNDATACOPY RETURNDATASIZE PUSH1 0x0 REVERT JUMPDEST POP POP POP POP PUSH1 0x40 MLOAD RETURNDATASIZE PUSH1 0x1F NOT PUSH1 0x1F DUP3 ADD AND DUP3 ADD DUP1 PUSH1 0x40 MSTORE POP PUSH2 0x166C SWAP2 SWAP1 DUP2 ADD SWAP1 PUSH2 0x27F3 JUMP JUMPDEST SWAP1 POP JUMPDEST SWAP3 SWAP2 POP POP JUMP JUMPDEST PUSH1 0x0 DUP1 PUSH1 0x0 DUP1 PUSH1 0x0 DUP1 PUSH2 0x1686 PUSH2 0x2418 JUMP JUMPDEST PUSH1 0x4 DUP1 SLOAD PUSH1 0x40 MLOAD PUSH32 0xBF18E24E00000000000000000000000000000000000000000000000000000000 DUP2 MSTORE PUSH1 0x1 PUSH1 0xA0 PUSH1 0x2 EXP SUB SWAP1 SWAP2 AND SWAP2 PUSH4 0xBF18E24E SWAP2 PUSH2 0x16D0 SWAP2 DUP14 SWAP2 DUP14 SWAP2 ADD PUSH2 0x2B18 JUMP JUMPDEST PUSH1 0xC0 PUSH1 0x40 MLOAD DUP1 DUP4 SUB DUP2 PUSH1 0x0 DUP8 DUP1 EXTCODESIZE ISZERO DUP1 ISZERO PUSH2 0x16EA JUMPI PUSH1 0x0 DUP1 REVERT JUMPDEST POP GAS CALL ISZERO DUP1 ISZERO PUSH2 0x16FE JUMPI RETURNDATASIZE PUSH1 0x0 DUP1 RETURNDATACOPY RETURNDATASIZE PUSH1 0x0 REVERT JUMPDEST POP POP POP POP PUSH1 0x40 MLOAD RETURNDATASIZE PUSH1 0x1F NOT PUSH1 0x1F DUP3 ADD AND DUP3 ADD DUP1 PUSH1 0x40 MSTORE POP PUSH2 0x1722 SWAP2 SWAP1 DUP2 ADD SWAP1 PUSH2 0x2799 JUMP JUMPDEST DUP1 MLOAD PUSH1 0x20 DUP3 ADD MLOAD PUSH1 0x40 DUP4 ADD MLOAD PUSH1 0x60 DUP5 ADD MLOAD PUSH1 0x80 DUP6 ADD MLOAD PUSH1 0xA0 SWAP1 SWAP6 ADD MLOAD SWAP4 SWAP15 SWAP3 SWAP14 POP SWAP1 SWAP12 POP SWAP10 POP SWAP2 SWAP8 POP SWAP6 POP SWAP4 POP POP POP POP JUMP JUMPDEST PUSH2 0x1767 DUP4 CALLER PUSH2 0xFEB DUP6 PUSH2 0x1004 DUP9 CALLER PUSH2 0x1D53 JUMP JUMPDEST POP POP POP POP JUMP JUMPDEST PUSH1 0x0 DUP1 PUSH1 0x0 DUP1 PUSH1 0x0 DUP1 PUSH1 0x0 PUSH2 0x1780 PUSH2 0x23DC JUMP JUMPDEST PUSH1 0x4 DUP1 SLOAD PUSH1 0x40 MLOAD PUSH1 0x0 DUP1 MLOAD PUSH1 0x20 PUSH2 0x2C82 DUP4 CODECOPY DUP2 MLOAD SWAP2 MSTORE DUP2 MSTORE PUSH1 0x1 PUSH1 0xA0 PUSH1 0x2 EXP SUB SWAP1 SWAP2 AND SWAP2 PUSH4 0xD09EF241 SWAP2 PUSH2 0x17B6 SWAP2 DUP14 SWAP2 ADD PUSH2 0x2AB8 JUMP JUMPDEST PUSH1 0xE0 PUSH1 0x40 MLOAD DUP1 DUP4 SUB DUP2 PUSH1 0x0 DUP8 DUP1 EXTCODESIZE ISZERO DUP1 ISZERO PUSH2 0x17D0 JUMPI PUSH1 0x0 DUP1 REVERT JUMPDEST POP GAS CALL ISZERO DUP1 ISZERO PUSH2 0x17E4 JUMPI RETURNDATASIZE PUSH1 0x0 DUP1 RETURNDATACOPY RETURNDATASIZE PUSH1 0x0 REVERT JUMPDEST POP POP POP POP PUSH1 0x40 MLOAD RETURNDATASIZE PUSH1 0x1F NOT PUSH1 0x1F DUP3 ADD AND DUP3 ADD DUP1 PUSH1 0x40 MSTORE POP PUSH2 0x1808 SWAP2 SWAP1 DUP2 ADD SWAP1 PUSH2 0x27B7 JUMP JUMPDEST DUP1 MLOAD PUSH1 0x20 DUP3 ADD MLOAD PUSH1 0x40 DUP4 ADD MLOAD PUSH1 0x60 DUP5 ADD MLOAD PUSH1 0x80 DUP6 ADD MLOAD PUSH1 0xA0 DUP7 ADD MLOAD PUSH1 0xC0 SWAP1 SWAP7 ADD MLOAD SWAP5 SWAP16 SWAP4 SWAP15 POP SWAP2 SWAP13 POP SWAP11 POP SWAP9 POP SWAP2 SWAP7 POP SWAP5 POP SWAP3 POP POP POP JUMP JUMPDEST PUSH1 0x0 PUSH2 0x184A PUSH2 0x23DC JUMP JUMPDEST PUSH2 0x1852 PUSH2 0x2418 JUMP JUMPDEST PUSH2 0x185A PUSH2 0xB7A JUMP JUMPDEST DUP6 GT ISZERO PUSH2 0x1866 JUMPI PUSH1 0x0 DUP1 REVERT JUMPDEST PUSH2 0x186F DUP6 PUSH2 0x1C22 JUMP JUMPDEST DUP5 GT ISZERO PUSH2 0x187B JUMPI PUSH1 0x0 DUP1 REVERT JUMPDEST PUSH1 0x4 DUP1 SLOAD PUSH1 0x40 MLOAD PUSH1 0x0 DUP1 MLOAD PUSH1 0x20 PUSH2 0x2C82 DUP4 CODECOPY DUP2 MLOAD SWAP2 MSTORE DUP2 MSTORE PUSH1 0x1 PUSH1 0xA0 PUSH1 0x2 EXP SUB SWAP1 SWAP2 AND SWAP2 PUSH4 0xD09EF241 SWAP2 PUSH2 0x18B1 SWAP2 DUP10 SWAP2 ADD PUSH2 0x2AB8 JUMP JUMPDEST PUSH1 0xE0 PUSH1 0x40 MLOAD DUP1 DUP4 SUB DUP2 PUSH1 0x0 DUP8 DUP1 EXTCODESIZE ISZERO DUP1 ISZERO PUSH2 0x18CB JUMPI PUSH1 0x0 DUP1 REVERT JUMPDEST POP GAS CALL ISZERO DUP1 ISZERO PUSH2 0x18DF JUMPI RETURNDATASIZE PUSH1 0x0 DUP1 RETURNDATACOPY RETURNDATASIZE PUSH1 0x0 REVERT JUMPDEST POP POP POP POP PUSH1 0x40 MLOAD RETURNDATASIZE PUSH1 0x1F NOT PUSH1 0x1F DUP3 ADD AND DUP3 ADD DUP1 PUSH1 0x40 MSTORE POP PUSH2 0x1903 SWAP2 SWAP1 DUP2 ADD SWAP1 PUSH2 0x27B7 JUMP JUMPDEST PUSH1 0x4 DUP1 SLOAD PUSH1 0x40 MLOAD PUSH32 0xBF18E24E00000000000000000000000000000000000000000000000000000000 DUP2 MSTORE SWAP3 SWAP5 POP PUSH1 0x1 PUSH1 0xA0 PUSH1 0x2 EXP SUB AND SWAP2 PUSH4 0xBF18E24E SWAP2 PUSH2 0x194E SWAP2 DUP10 SWAP2 DUP10 SWAP2 ADD PUSH2 0x2B18 JUMP JUMPDEST PUSH1 0xC0 PUSH1 0x40 MLOAD DUP1 DUP4 SUB DUP2 PUSH1 0x0 DUP8 DUP1 EXTCODESIZE ISZERO DUP1 ISZERO PUSH2 0x1968 JUMPI PUSH1 0x0 DUP1 REVERT JUMPDEST POP GAS CALL ISZERO DUP1 ISZERO PUSH2 0x197C JUMPI RETURNDATASIZE PUSH1 0x0 DUP1 RETURNDATACOPY RETURNDATASIZE PUSH1 0x0 REVERT JUMPDEST POP POP POP POP PUSH1 0x40 MLOAD RETURNDATASIZE PUSH1 0x1F NOT PUSH1 0x1F DUP3 ADD AND DUP3 ADD DUP1 PUSH1 0x40 MSTORE POP PUSH2 0x19A0 SWAP2 SWAP1 DUP2 ADD SWAP1 PUSH2 0x2799 JUMP JUMPDEST SWAP1 POP DUP1 PUSH1 0x80 ADD MLOAD DUP1 PUSH2 0x19B3 JUMPI POP DUP1 PUSH1 0x60 ADD MLOAD JUMPDEST DUP1 PUSH2 0x19D4 JUMPI POP DUP2 PUSH1 0xA0 ADD MLOAD PUSH1 0x1 PUSH1 0xA0 PUSH1 0x2 EXP SUB AND CALLER PUSH1 0x1 PUSH1 0xA0 PUSH1 0x2 EXP SUB AND EQ ISZERO JUMPDEST DUP1 PUSH2 0x1A56 JUMPI POP DUP2 PUSH1 0x40 ADD MLOAD PUSH1 0x1 PUSH1 0xA0 PUSH1 0x2 EXP SUB AND PUSH4 0x200D2ED2 PUSH1 0x40 MLOAD DUP2 PUSH4 0xFFFFFFFF AND PUSH1 0xE0 PUSH1 0x2 EXP MUL DUP2 MSTORE PUSH1 0x4 ADD PUSH1 0x20 PUSH1 0x40 MLOAD DUP1 DUP4 SUB DUP2 PUSH1 0x0 DUP8 DUP1 EXTCODESIZE ISZERO DUP1 ISZERO PUSH2 0x1A1C JUMPI PUSH1 0x0 DUP1 REVERT JUMPDEST POP GAS CALL ISZERO DUP1 ISZERO PUSH2 0x1A30 JUMPI RETURNDATASIZE PUSH1 0x0 DUP1 RETURNDATACOPY RETURNDATASIZE PUSH1 0x0 REVERT JUMPDEST POP POP POP POP PUSH1 0x40 MLOAD RETURNDATASIZE PUSH1 0x1F NOT PUSH1 0x1F DUP3 ADD AND DUP3 ADD DUP1 PUSH1 0x40 MSTORE POP PUSH2 0x1A54 SWAP2 SWAP1 DUP2 ADD SWAP1 PUSH2 0x277B JUMP JUMPDEST ISZERO JUMPDEST ISZERO PUSH2 0x1A60 JUMPI PUSH1 0x0 DUP1 REVERT JUMPDEST PUSH1 0x4 DUP1 SLOAD PUSH1 0x40 MLOAD PUSH32 0x97D6388D00000000000000000000000000000000000000000000000000000000 DUP2 MSTORE PUSH1 0x1 PUSH1 0xA0 PUSH1 0x2 EXP SUB SWAP1 SWAP2 AND SWAP2 PUSH4 0x97D6388D SWAP2 PUSH2 0x1AAD SWAP2 DUP10 SWAP2 DUP10 SWAP2 PUSH1 0x1 SWAP2 ADD PUSH2 0x2B26 JUMP JUMPDEST PUSH1 0x0 PUSH1 0x40 MLOAD DUP1 DUP4 SUB DUP2 PUSH1 0x0 DUP8 DUP1 EXTCODESIZE ISZERO DUP1 ISZERO PUSH2 0x1AC7 JUMPI PUSH1 0x0 DUP1 REVERT JUMPDEST POP GAS CALL ISZERO DUP1 ISZERO PUSH2 0x1ADB JUMPI RETURNDATASIZE PUSH1 0x0 DUP1 RETURNDATACOPY RETURNDATASIZE PUSH1 0x0 REVERT JUMPDEST POP POP DUP4 MLOAD PUSH1 0x40 DUP6 ADD MLOAD PUSH1 0x20 DUP6 ADD MLOAD PUSH2 0x1B00 SWAP5 POP SWAP2 SWAP3 POP SWAP1 PUSH2 0x73D SWAP1 PUSH2 0x731 DUP5 DUP5 PUSH2 0x15CD JUMP JUMPDEST POP PUSH1 0x40 DUP1 DUP4 ADD MLOAD DUP3 MLOAD PUSH1 0x20 DUP5 ADD MLOAD SWAP3 MLOAD PUSH32 0xA9059CBB00000000000000000000000000000000000000000000000000000000 DUP2 MSTORE PUSH1 0x1 PUSH1 0xA0 PUSH1 0x2 EXP SUB SWAP1 SWAP3 AND SWAP3 PUSH4 0xA9059CBB SWAP3 PUSH2 0x1B53 SWAP3 SWAP2 SWAP1 PUSH1 0x4 ADD PUSH2 0x2A35 JUMP JUMPDEST PUSH1 0x20 PUSH1 0x40 MLOAD DUP1 DUP4 SUB DUP2 PUSH1 0x0 DUP8 DUP1 EXTCODESIZE ISZERO DUP1 ISZERO PUSH2 0x1B6D JUMPI PUSH1 0x0 DUP1 REVERT JUMPDEST POP GAS CALL ISZERO DUP1 ISZERO PUSH2 0x1B81 JUMPI RETURNDATASIZE PUSH1 0x0 DUP1 RETURNDATACOPY RETURNDATASIZE PUSH1 0x0 REVERT JUMPDEST POP POP POP POP PUSH1 0x40 MLOAD RETURNDATASIZE PUSH1 0x1F NOT PUSH1 0x1F DUP3 ADD AND DUP3 ADD DUP1 PUSH1 0x40 MSTORE POP PUSH2 0x1BA5 SWAP2 SWAP1 DUP2 ADD SWAP1 PUSH2 0x277B JUMP JUMPDEST POP DUP2 PUSH1 0x0 ADD MLOAD PUSH1 0x1 PUSH1 0xA0 PUSH1 0x2 EXP SUB AND DUP2 PUSH1 0x0 ADD MLOAD PUSH1 0x1 PUSH1 0xA0 PUSH1 0x2 EXP SUB AND DUP4 PUSH1 0x40 ADD MLOAD PUSH1 0x1 PUSH1 0xA0 PUSH1 0x2 EXP SUB AND PUSH32 0x1F33FCBCE82033CD7B26AE868BA28784C1E405A5A631CB7063527B4ACEB0B5CC DUP9 DUP9 DUP8 PUSH1 0x80 ADD MLOAD DUP8 PUSH1 0x20 ADD MLOAD DUP10 PUSH1 0xA0 ADD MLOAD PUSH1 0x40 MLOAD PUSH2 0x855 SWAP6 SWAP5 SWAP4 SWAP3 SWAP2 SWAP1 PUSH2 0x2BB5 JUMP JUMPDEST PUSH1 0x5 SLOAD PUSH1 0x1 PUSH1 0xA0 PUSH1 0x2 EXP SUB AND DUP2 JUMP JUMPDEST PUSH1 0x4 DUP1 SLOAD PUSH1 0x40 MLOAD PUSH32 0xC9EE7C9A00000000000000000000000000000000000000000000000000000000 DUP2 MSTORE PUSH1 0x0 SWAP3 PUSH1 0x1 PUSH1 0xA0 PUSH1 0x2 EXP SUB SWAP1 SWAP3 AND SWAP2 PUSH4 0xC9EE7C9A SWAP2 PUSH2 0x1C6D SWAP2 DUP7 SWAP2 ADD PUSH2 0x2AB8 JUMP JUMPDEST PUSH1 0x20 PUSH1 0x40 MLOAD DUP1 DUP4 SUB DUP2 PUSH1 0x0 DUP8 DUP1 EXTCODESIZE ISZERO DUP1 ISZERO PUSH2 0x1C87 JUMPI PUSH1 0x0 DUP1 REVERT JUMPDEST POP GAS CALL ISZERO DUP1 ISZERO PUSH2 0x1C9B JUMPI RETURNDATASIZE PUSH1 0x0 DUP1 RETURNDATACOPY RETURNDATASIZE PUSH1 0x0 REVERT JUMPDEST POP POP POP POP PUSH1 0x40 MLOAD RETURNDATASIZE PUSH1 0x1F NOT PUSH1 0x1F DUP3 ADD AND DUP3 ADD DUP1 PUSH1 0x40 MSTORE POP PUSH2 0x166F SWAP2 SWAP1 DUP2 ADD SWAP1 PUSH2 0x27F3 JUMP JUMPDEST PUSH1 0x0 SLOAD PUSH1 0x1 PUSH1 0xA0 PUSH1 0x2 EXP SUB AND CALLER EQ PUSH2 0x1CD6 JUMPI PUSH1 0x0 DUP1 REVERT JUMPDEST PUSH1 0x1 PUSH1 0xA0 PUSH1 0x2 EXP SUB DUP2 AND ISZERO ISZERO PUSH2 0x1CEB JUMPI PUSH1 0x0 DUP1 REVERT JUMPDEST PUSH1 0x0 DUP1 SLOAD PUSH1 0x40 MLOAD PUSH1 0x1 PUSH1 0xA0 PUSH1 0x2 EXP SUB DUP1 DUP6 AND SWAP4 SWAP3 AND SWAP2 PUSH32 0x8BE0079C531659141344CD1FD0A4F28419497F9722A3DAAFE3B4186F6B6457E0 SWAP2 LOG3 PUSH1 0x0 DUP1 SLOAD PUSH20 0xFFFFFFFFFFFFFFFFFFFFFFFFFFFFFFFFFFFFFFFF NOT AND PUSH1 0x1 PUSH1 0xA0 PUSH1 0x2 EXP SUB SWAP3 SWAP1 SWAP3 AND SWAP2 SWAP1 SWAP2 OR SWAP1 SSTORE JUMP JUMPDEST PUSH1 0x4 DUP1 SLOAD PUSH1 0x40 MLOAD PUSH32 0xD4FAC45D00000000000000000000000000000000000000000000000000000000 DUP2 MSTORE PUSH1 0x0 SWAP3 PUSH1 0x1 PUSH1 0xA0 PUSH1 0x2 EXP SUB SWAP1 SWAP3 AND SWAP2 PUSH4 0xD4FAC45D SWAP2 PUSH2 0x161A SWAP2 DUP8 SWAP2 DUP8 SWAP2 ADD PUSH2 0x298A JUMP JUMPDEST PUSH1 0x0 DUP1 PUSH2 0x1DAD CALLER DUP5 PUSH2 0x1D53 JUMP JUMPDEST SWAP1 POP DUP1 ISZERO DUP1 PUSH2 0x1E2F JUMPI POP DUP3 PUSH1 0x1 PUSH1 0xA0 PUSH1 0x2 EXP SUB AND PUSH4 0x200D2ED2 PUSH1 0x40 MLOAD DUP2 PUSH4 0xFFFFFFFF AND PUSH1 0xE0 PUSH1 0x2 EXP MUL DUP2 MSTORE PUSH1 0x4 ADD PUSH1 0x20 PUSH1 0x40 MLOAD DUP1 DUP4 SUB DUP2 PUSH1 0x0 DUP8 DUP1 EXTCODESIZE ISZERO DUP1 ISZERO PUSH2 0x1DF5 JUMPI PUSH1 0x0 DUP1 REVERT JUMPDEST POP GAS CALL ISZERO DUP1 ISZERO PUSH2 0x1E09 JUMPI RETURNDATASIZE PUSH1 0x0 DUP1 RETURNDATACOPY RETURNDATASIZE PUSH1 0x0 REVERT JUMPDEST POP POP POP POP PUSH1 0x40 MLOAD RETURNDATASIZE PUSH1 0x1F NOT PUSH1 0x1F DUP3 ADD AND DUP3 ADD DUP1 PUSH1 0x40 MSTORE POP PUSH2 0x1E2D SWAP2 SWAP1 DUP2 ADD SWAP1 PUSH2 0x277B JUMP JUMPDEST ISZERO JUMPDEST ISZERO PUSH2 0x1E39 JUMPI PUSH1 0x0 DUP1 REVERT JUMPDEST PUSH1 0x40 MLOAD PUSH32 0xA9059CBB00000000000000000000000000000000000000000000000000000000 DUP2 MSTORE PUSH1 0x1 PUSH1 0xA0 PUSH1 0x2 EXP SUB DUP5 AND SWAP1 PUSH4 0xA9059CBB SWAP1 PUSH2 0x1E80 SWAP1 CALLER SWAP1 DUP6 SWAP1 PUSH1 0x4 ADD PUSH2 0x2A35 JUMP JUMPDEST PUSH1 0x20 PUSH1 0x40 MLOAD DUP1 DUP4 SUB DUP2 PUSH1 0x0 DUP8 DUP1 EXTCODESIZE ISZERO DUP1 ISZERO PUSH2 0x1E9A JUMPI PUSH1 0x0 DUP1 REVERT JUMPDEST POP GAS CALL ISZERO DUP1 ISZERO PUSH2 0x1EAE JUMPI RETURNDATASIZE PUSH1 0x0 DUP1 RETURNDATACOPY RETURNDATASIZE PUSH1 0x0 REVERT JUMPDEST POP POP POP POP PUSH1 0x40 MLOAD RETURNDATASIZE PUSH1 0x1F NOT PUSH1 0x1F DUP3 ADD AND DUP3 ADD DUP1 PUSH1 0x40 MSTORE POP PUSH2 0x1ED2 SWAP2 SWAP1 DUP2 ADD SWAP1 PUSH2 0x277B JUMP JUMPDEST POP PUSH2 0x1EDF CALLER DUP5 PUSH1 0x0 PUSH2 0x205A JUMP JUMPDEST POP PUSH1 0x40 MLOAD CALLER SWAP1 PUSH1 0x1 PUSH1 0xA0 PUSH1 0x2 EXP SUB DUP6 AND SWAP1 PUSH32 0xFEE4BD730C5342548069B84E6A6B38C19507A6FE4BBBC4AB6F648B1ED2AD5FC8 SWAP1 PUSH1 0x0 SWAP1 LOG3 POP PUSH1 0x1 SWAP3 SWAP2 POP POP JUMP JUMPDEST PUSH1 0x0 DUP3 DUP3 GT ISZERO PUSH2 0x1F2B JUMPI INVALID JUMPDEST POP SWAP1 SUB SWAP1 JUMP JUMPDEST PUSH1 0x4 DUP1 SLOAD PUSH1 0x40 MLOAD PUSH32 0xD04C23AF00000000000000000000000000000000000000000000000000000000 DUP2 MSTORE PUSH1 0x0 SWAP3 PUSH1 0x1 PUSH1 0xA0 PUSH1 0x2 EXP SUB SWAP1 SWAP3 AND SWAP2 PUSH4 0xD04C23AF SWAP2 PUSH2 0x1F80 SWAP2 DUP9 SWAP2 DUP9 SWAP2 DUP9 SWAP2 ADD PUSH2 0x2A0D JUMP JUMPDEST PUSH1 0x0 PUSH1 0x40 MLOAD DUP1 DUP4 SUB DUP2 PUSH1 0x0 DUP8 DUP1 EXTCODESIZE ISZERO DUP1 ISZERO PUSH2 0x1F9A JUMPI PUSH1 0x0 DUP1 REVERT JUMPDEST POP GAS CALL ISZERO DUP1 ISZERO PUSH2 0x1FAE JUMPI RETURNDATASIZE PUSH1 0x0 DUP1 RETURNDATACOPY RETURNDATASIZE PUSH1 0x0 REVERT JUMPDEST POP POP POP POP PUSH1 0x1 SWAP1 POP JUMPDEST SWAP4 SWAP3 POP POP POP JUMP JUMPDEST PUSH1 0x3 SLOAD PUSH1 0x40 MLOAD PUSH32 0xFB3551FF00000000000000000000000000000000000000000000000000000000 DUP2 MSTORE PUSH1 0x0 SWAP2 PUSH1 0x1 PUSH1 0xA0 PUSH1 0x2 EXP SUB AND SWAP1 PUSH4 0xFB3551FF SWAP1 PUSH2 0x2008 SWAP1 DUP6 SWAP1 PUSH1 0x4 ADD PUSH2 0x297C JUMP JUMPDEST PUSH1 0x20 PUSH1 0x40 MLOAD DUP1 DUP4 SUB DUP2 PUSH1 0x0 DUP8 DUP1 EXTCODESIZE ISZERO DUP1 ISZERO PUSH2 0x2022 JUMPI PUSH1 0x0 DUP1 REVERT JUMPDEST POP GAS CALL ISZERO DUP1 ISZERO PUSH2 0x2036 JUMPI RETURNDATASIZE PUSH1 0x0 DUP1 RETURNDATACOPY RETURNDATASIZE PUSH1 0x0 REVERT JUMPDEST POP POP POP POP PUSH1 0x40 MLOAD RETURNDATASIZE PUSH1 0x1F NOT PUSH1 0x1F DUP3 ADD AND DUP3 ADD DUP1 PUSH1 0x40 MSTORE POP PUSH2 0x166F SWAP2 SWAP1 DUP2 ADD SWAP1 PUSH2 0x277B JUMP JUMPDEST PUSH1 0x4 DUP1 SLOAD PUSH1 0x40 MLOAD PUSH32 0xB5C9CBBE00000000000000000000000000000000000000000000000000000000 DUP2 MSTORE PUSH1 0x0 SWAP3 PUSH1 0x1 PUSH1 0xA0 PUSH1 0x2 EXP SUB SWAP1 SWAP3 AND SWAP2 PUSH4 0xB5C9CBBE SWAP2 PUSH2 0x20A9 SWAP2 DUP9 SWAP2 DUP9 SWAP2 DUP9 SWAP2 ADD PUSH2 0x2A0D JUMP JUMPDEST PUSH1 0x20 PUSH1 0x40 MLOAD DUP1 DUP4 SUB DUP2 PUSH1 0x0 DUP8 DUP1 EXTCODESIZE ISZERO DUP1 ISZERO PUSH2 0x20C3 JUMPI PUSH1 0x0 DUP1 REVERT JUMPDEST POP GAS CALL ISZERO DUP1 ISZERO PUSH2 0x20D7 JUMPI RETURNDATASIZE PUSH1 0x0 DUP1 RETURNDATACOPY RETURNDATASIZE PUSH1 0x0 REVERT JUMPDEST POP POP POP POP PUSH1 0x40 MLOAD RETURNDATASIZE PUSH1 0x1F NOT PUSH1 0x1F DUP3 ADD AND DUP3 ADD DUP1 PUSH1 0x40 MSTORE POP PUSH2 0x20FB SWAP2 SWAP1 DUP2 ADD SWAP1 PUSH2 0x277B JUMP JUMPDEST SWAP5 SWAP4 POP POP POP POP JUMP JUMPDEST PUSH1 0x4 DUP1 SLOAD PUSH1 0x40 MLOAD PUSH32 0xB953009100000000000000000000000000000000000000000000000000000000 DUP2 MSTORE PUSH1 0x0 SWAP3 PUSH1 0x1 PUSH1 0xA0 PUSH1 0x2 EXP SUB SWAP1 SWAP3 AND SWAP2 PUSH4 0xB9530091 SWAP2 PUSH2 0x214E SWAP2 DUP7 SWAP2 ADD PUSH2 0x2AB8 JUMP JUMPDEST PUSH1 0x0 PUSH1 0x40 MLOAD DUP1 DUP4 SUB DUP2 PUSH1 0x0 DUP8 DUP1 EXTCODESIZE ISZERO DUP1 ISZERO PUSH2 0x2168 JUMPI PUSH1 0x0 DUP1 REVERT JUMPDEST POP GAS CALL ISZERO DUP1 ISZERO PUSH2 0x217C JUMPI RETURNDATASIZE PUSH1 0x0 DUP1 RETURNDATACOPY RETURNDATASIZE PUSH1 0x0 REVERT JUMPDEST POP PUSH1 0x1 SWAP6 SWAP5 POP POP POP POP POP JUMP JUMPDEST PUSH1 0x0 PUSH2 0x2192 PUSH2 0x23DC JUMP JUMPDEST PUSH2 0x21A1 DUP10 DUP10 DUP10 DUP10 DUP10 DUP10 DUP10 PUSH2 0x2332 JUMP JUMPDEST PUSH1 0x4 DUP1 SLOAD PUSH1 0x40 MLOAD PUSH32 0x7658AF0800000000000000000000000000000000000000000000000000000000 DUP2 MSTORE SWAP3 SWAP4 POP PUSH1 0x1 PUSH1 0xA0 PUSH1 0x2 EXP SUB AND SWAP2 PUSH4 0x7658AF08 SWAP2 PUSH2 0x21EC SWAP2 DUP15 SWAP2 DUP7 SWAP2 ADD PUSH2 0x2AFC JUMP JUMPDEST PUSH1 0x0 PUSH1 0x40 MLOAD DUP1 DUP4 SUB DUP2 PUSH1 0x0 DUP8 DUP1 EXTCODESIZE ISZERO DUP1 ISZERO PUSH2 0x2206 JUMPI PUSH1 0x0 DUP1 REVERT JUMPDEST POP GAS CALL ISZERO DUP1 ISZERO PUSH2 0x221A JUMPI RETURNDATASIZE PUSH1 0x0 DUP1 RETURNDATACOPY RETURNDATASIZE PUSH1 0x0 REVERT JUMPDEST POP PUSH1 0x1 SWAP14 SWAP13 POP POP POP POP POP POP POP POP POP POP POP POP POP JUMP JUMPDEST PUSH1 0x0 DUP3 DUP3 ADD DUP4 DUP2 LT ISZERO PUSH2 0x1FB7 JUMPI INVALID JUMPDEST PUSH1 0x0 SWAP1 EXTCODESIZE GT SWAP1 JUMP JUMPDEST PUSH1 0x4 DUP1 SLOAD PUSH1 0x40 MLOAD PUSH32 0xB12C52CF00000000000000000000000000000000000000000000000000000000 DUP2 MSTORE PUSH1 0x0 SWAP3 PUSH1 0x1 PUSH1 0xA0 PUSH1 0x2 EXP SUB SWAP1 SWAP3 AND SWAP2 PUSH4 0xB12C52CF SWAP2 PUSH2 0x2292 SWAP2 DUP8 SWAP2 DUP8 SWAP2 ADD PUSH2 0x2B18 JUMP JUMPDEST PUSH1 0x0 PUSH1 0x40 MLOAD DUP1 DUP4 SUB DUP2 PUSH1 0x0 DUP8 DUP1 EXTCODESIZE ISZERO DUP1 ISZERO PUSH2 0x22AC JUMPI PUSH1 0x0 DUP1 REVERT JUMPDEST POP GAS CALL ISZERO DUP1 ISZERO PUSH2 0x22C0 JUMPI RETURNDATASIZE PUSH1 0x0 DUP1 RETURNDATACOPY RETURNDATASIZE PUSH1 0x0 REVERT JUMPDEST POP PUSH1 0x1 SWAP7 SWAP6 POP POP POP POP POP POP JUMP JUMPDEST PUSH1 0x0 PUSH2 0x22D7 PUSH2 0x2418 JUMP JUMPDEST PUSH2 0x22E5 DUP9 DUP9 DUP9 DUP9 DUP9 DUP9 PUSH2 0x238D JUMP JUMPDEST PUSH1 0x4 DUP1 SLOAD PUSH1 0x40 MLOAD PUSH32 0x951E14B100000000000000000000000000000000000000000000000000000000 DUP2 MSTORE SWAP3 SWAP4 POP PUSH1 0x1 PUSH1 0xA0 PUSH1 0x2 EXP SUB AND SWAP2 PUSH4 0x951E14B1 SWAP2 PUSH2 0x21EC SWAP2 DUP15 SWAP2 DUP15 SWAP2 DUP8 SWAP2 ADD PUSH2 0x2B4E JUMP JUMPDEST PUSH2 0x233A PUSH2 0x23DC JUMP JUMPDEST PUSH2 0x2342 PUSH2 0x23DC JUMP JUMPDEST POP POP PUSH1 0x40 DUP1 MLOAD PUSH1 0xE0 DUP2 ADD DUP3 MSTORE PUSH1 0x1 PUSH1 0xA0 PUSH1 0x2 EXP SUB SWAP9 DUP10 AND DUP2 MSTORE SWAP7 DUP9 AND PUSH1 0x20 DUP9 ADD MSTORE SWAP5 DUP8 AND SWAP5 DUP7 ADD SWAP5 SWAP1 SWAP5 MSTORE PUSH1 0x60 DUP6 ADD SWAP3 SWAP1 SWAP3 MSTORE PUSH1 0x80 DUP5 ADD MSTORE SWAP1 SWAP3 AND PUSH1 0xA0 DUP3 ADD MSTORE SWAP1 ISZERO ISZERO PUSH1 0xC0 DUP3 ADD MSTORE SWAP1 JUMP JUMPDEST PUSH2 0x2395 PUSH2 0x2418 JUMP JUMPDEST PUSH2 0x239D PUSH2 0x2418 JUMP JUMPDEST POP POP PUSH1 0x40 DUP1 MLOAD PUSH1 0xC0 DUP2 ADD DUP3 MSTORE PUSH1 0x1 PUSH1 0xA0 PUSH1 0x2 EXP SUB SWAP8 SWAP1 SWAP8 AND DUP8 MSTORE PUSH1 0x20 DUP8 ADD SWAP6 SWAP1 SWAP6 MSTORE SWAP4 DUP6 ADD SWAP3 SWAP1 SWAP3 MSTORE ISZERO ISZERO PUSH1 0x60 DUP5 ADD MSTORE ISZERO ISZERO PUSH1 0x80 DUP4 ADD MSTORE PUSH1 0xA0 DUP3 ADD MSTORE SWAP1 JUMP JUMPDEST PUSH1 0x40 DUP1 MLOAD PUSH1 0xE0 DUP2 ADD DUP3 MSTORE PUSH1 0x0 DUP1 DUP3 MSTORE PUSH1 0x20 DUP3 ADD DUP2 SWAP1 MSTORE SWAP2 DUP2 ADD DUP3 SWAP1 MSTORE PUSH1 0x60 DUP2 ADD DUP3 SWAP1 MSTORE PUSH1 0x80 DUP2 ADD DUP3 SWAP1 MSTORE PUSH1 0xA0 DUP2 ADD DUP3 SWAP1 MSTORE PUSH1 0xC0 DUP2 ADD SWAP2 SWAP1 SWAP2 MSTORE SWAP1 JUMP JUMPDEST PUSH1 0x40 DUP1 MLOAD PUSH1 0xC0 DUP2 ADD DUP3 MSTORE PUSH1 0x0 DUP1 DUP3 MSTORE PUSH1 0x20 DUP3 ADD DUP2 SWAP1 MSTORE SWAP2 DUP2 ADD DUP3 SWAP1 MSTORE PUSH1 0x60 DUP2 ADD DUP3 SWAP1 MSTORE PUSH1 0x80 DUP2 ADD DUP3 SWAP1 MSTORE PUSH1 0xA0 DUP2 ADD SWAP2 SWAP1 SWAP2 MSTORE SWAP1 JUMP JUMPDEST PUSH1 0x0 PUSH2 0x166C DUP3 CALLDATALOAD PUSH2 0x2C50 JUMP JUMPDEST PUSH1 0x0 PUSH2 0x166C DUP3 MLOAD PUSH2 0x2C50 JUMP JUMPDEST PUSH1 0x0 PUSH2 0x166C DUP3 MLOAD PUSH2 0x2C5C JUMP JUMPDEST PUSH1 0x0 PUSH1 0x1F DUP3 ADD DUP4 SGT PUSH2 0x2482 JUMPI PUSH1 0x0 DUP1 REVERT JUMPDEST DUP2 CALLDATALOAD PUSH2 0x2495 PUSH2 0x2490 DUP3 PUSH2 0x2C28 JUMP JUMPDEST PUSH2 0x2C01 JUMP JUMPDEST SWAP2 POP DUP1 DUP3 MSTORE PUSH1 0x20 DUP4 ADD PUSH1 0x20 DUP4 ADD DUP6 DUP4 DUP4 ADD GT ISZERO PUSH2 0x24B1 JUMPI PUSH1 0x0 DUP1 REVERT JUMPDEST PUSH2 0x24BC DUP4 DUP3 DUP5 PUSH2 0x2C75 JUMP JUMPDEST POP POP POP SWAP3 SWAP2 POP POP JUMP JUMPDEST PUSH1 0x0 PUSH1 0xC0 DUP3 DUP5 SUB SLT ISZERO PUSH2 0x24D7 JUMPI PUSH1 0x0 DUP1 REVERT JUMPDEST PUSH2 0x24E1 PUSH1 0xC0 PUSH2 0x2C01 JUMP JUMPDEST SWAP1 POP PUSH1 0x0 PUSH2 0x24EF DUP5 DUP5 PUSH2 0x2459 JUMP JUMPDEST DUP3 MSTORE POP PUSH1 0x20 PUSH2 0x2500 DUP5 DUP5 DUP4 ADD PUSH2 0x2613 JUMP JUMPDEST PUSH1 0x20 DUP4 ADD MSTORE POP PUSH1 0x40 PUSH2 0x2514 DUP5 DUP3 DUP6 ADD PUSH2 0x2613 JUMP JUMPDEST PUSH1 0x40 DUP4 ADD MSTORE POP PUSH1 0x60 PUSH2 0x2528 DUP5 DUP3 DUP6 ADD PUSH2 0x2465 JUMP JUMPDEST PUSH1 0x60 DUP4 ADD MSTORE POP PUSH1 0x80 PUSH2 0x253C DUP5 DUP3 DUP6 ADD PUSH2 0x2465 JUMP JUMPDEST PUSH1 0x80 DUP4 ADD MSTORE POP PUSH1 0xA0 PUSH2 0x2550 DUP5 DUP3 DUP6 ADD PUSH2 0x2613 JUMP JUMPDEST PUSH1 0xA0 DUP4 ADD MSTORE POP SWAP3 SWAP2 POP POP JUMP JUMPDEST PUSH1 0x0 PUSH1 0xE0 DUP3 DUP5 SUB SLT ISZERO PUSH2 0x256E JUMPI PUSH1 0x0 DUP1 REVERT JUMPDEST PUSH2 0x2578 PUSH1 0xE0 PUSH2 0x2C01 JUMP JUMPDEST SWAP1 POP PUSH1 0x0 PUSH2 0x2586 DUP5 DUP5 PUSH2 0x2459 JUMP JUMPDEST DUP3 MSTORE POP PUSH1 0x20 PUSH2 0x2597 DUP5 DUP5 DUP4 ADD PUSH2 0x2459 JUMP JUMPDEST PUSH1 0x20 DUP4 ADD MSTORE POP PUSH1 0x40 PUSH2 0x25AB DUP5 DUP3 DUP6 ADD PUSH2 0x2459 JUMP JUMPDEST PUSH1 0x40 DUP4 ADD MSTORE POP PUSH1 0x60 PUSH2 0x25BF DUP5 DUP3 DUP6 ADD PUSH2 0x2613 JUMP JUMPDEST PUSH1 0x60 DUP4 ADD MSTORE POP PUSH1 0x80 PUSH2 0x25D3 DUP5 DUP3 DUP6 ADD PUSH2 0x2613 JUMP JUMPDEST PUSH1 0x80 DUP4 ADD MSTORE POP PUSH1 0xA0 PUSH2 0x25E7 DUP5 DUP3 DUP6 ADD PUSH2 0x2459 JUMP JUMPDEST PUSH1 0xA0 DUP4 ADD MSTORE POP PUSH1 0xC0 PUSH2 0x25FB DUP5 DUP3 DUP6 ADD PUSH2 0x2465 JUMP JUMPDEST PUSH1 0xC0 DUP4 ADD MSTORE POP SWAP3 SWAP2 POP POP JUMP JUMPDEST PUSH1 0x0 PUSH2 0x166C DUP3 CALLDATALOAD PUSH2 0x2C61 JUMP JUMPDEST PUSH1 0x0 PUSH2 0x166C DUP3 MLOAD PUSH2 0x2C61 JUMP JUMPDEST PUSH1 0x0 PUSH2 0x166C DUP3 MLOAD PUSH2 0x2C64 JUMP JUMPDEST PUSH1 0x0 PUSH1 0x20 DUP3 DUP5 SUB SLT ISZERO PUSH2 0x263D JUMPI PUSH1 0x0 DUP1 REVERT JUMPDEST PUSH1 0x0 PUSH2 0x20FB DUP5 DUP5 PUSH2 0x244D JUMP JUMPDEST PUSH1 0x0 PUSH1 0x20 DUP3 DUP5 SUB SLT ISZERO PUSH2 0x265B JUMPI PUSH1 0x0 DUP1 REVERT JUMPDEST PUSH1 0x0 PUSH2 0x20FB DUP5 DUP5 PUSH2 0x2459 JUMP JUMPDEST PUSH1 0x0 DUP1 PUSH1 0x40 DUP4 DUP6 SUB SLT ISZERO PUSH2 0x267A JUMPI PUSH1 0x0 DUP1 REVERT JUMPDEST PUSH1 0x0 PUSH2 0x2686 DUP6 DUP6 PUSH2 0x244D JUMP JUMPDEST SWAP3 POP POP PUSH1 0x20 PUSH2 0x2697 DUP6 DUP3 DUP7 ADD PUSH2 0x244D JUMP JUMPDEST SWAP2 POP POP SWAP3 POP SWAP3 SWAP1 POP JUMP JUMPDEST PUSH1 0x0 DUP1 PUSH1 0x0 DUP1 PUSH1 0x0 PUSH1 0xA0 DUP7 DUP9 SUB SLT ISZERO PUSH2 0x26B9 JUMPI PUSH1 0x0 DUP1 REVERT JUMPDEST PUSH1 0x0 PUSH2 0x26C5 DUP9 DUP9 PUSH2 0x244D JUMP JUMPDEST SWAP6 POP POP PUSH1 0x20 PUSH2 0x26D6 DUP9 DUP3 DUP10 ADD PUSH2 0x244D JUMP JUMPDEST SWAP5 POP POP PUSH1 0x40 PUSH2 0x26E7 DUP9 DUP3 DUP10 ADD PUSH2 0x2607 JUMP JUMPDEST SWAP4 POP POP PUSH1 0x60 PUSH2 0x26F8 DUP9 DUP3 DUP10 ADD PUSH2 0x2607 JUMP JUMPDEST SWAP3 POP POP PUSH1 0x80 PUSH2 0x2709 DUP9 DUP3 DUP10 ADD PUSH2 0x244D JUMP JUMPDEST SWAP2 POP POP SWAP3 SWAP6 POP SWAP3 SWAP6 SWAP1 SWAP4 POP JUMP JUMPDEST PUSH1 0x0 DUP1 PUSH1 0x0 PUSH1 0x60 DUP5 DUP7 SUB SLT ISZERO PUSH2 0x272B JUMPI PUSH1 0x0 DUP1 REVERT JUMPDEST PUSH1 0x0 PUSH2 0x2737 DUP7 DUP7 PUSH2 0x244D JUMP JUMPDEST SWAP4 POP POP PUSH1 0x20 PUSH2 0x2748 DUP7 DUP3 DUP8 ADD PUSH2 0x2607 JUMP JUMPDEST SWAP3 POP POP PUSH1 0x40 DUP5 ADD CALLDATALOAD PUSH8 0xFFFFFFFFFFFFFFFF DUP2 GT ISZERO PUSH2 0x2765 JUMPI PUSH1 0x0 DUP1 REVERT JUMPDEST PUSH2 0x2771 DUP7 DUP3 DUP8 ADD PUSH2 0x2471 JUMP JUMPDEST SWAP2 POP POP SWAP3 POP SWAP3 POP SWAP3 JUMP JUMPDEST PUSH1 0x0 PUSH1 0x20 DUP3 DUP5 SUB SLT ISZERO PUSH2 0x278D JUMPI PUSH1 0x0 DUP1 REVERT JUMPDEST PUSH1 0x0 PUSH2 0x20FB DUP5 DUP5 PUSH2 0x2465 JUMP JUMPDEST PUSH1 0x0 PUSH1 0xC0 DUP3 DUP5 SUB SLT ISZERO PUSH2 0x27AB JUMPI PUSH1 0x0 DUP1 REVERT JUMPDEST PUSH1 0x0 PUSH2 0x20FB DUP5 DUP5 PUSH2 0x24C5 JUMP JUMPDEST PUSH1 0x0 PUSH1 0xE0 DUP3 DUP5 SUB SLT ISZERO PUSH2 0x27C9 JUMPI PUSH1 0x0 DUP1 REVERT JUMPDEST PUSH1 0x0 PUSH2 0x20FB DUP5 DUP5 PUSH2 0x255C JUMP JUMPDEST PUSH1 0x0 PUSH1 0x20 DUP3 DUP5 SUB SLT ISZERO PUSH2 0x27E7 JUMPI PUSH1 0x0 DUP1 REVERT JUMPDEST PUSH1 0x0 PUSH2 0x20FB DUP5 DUP5 PUSH2 0x2607 JUMP JUMPDEST PUSH1 0x0 PUSH1 0x20 DUP3 DUP5 SUB SLT ISZERO PUSH2 0x2805 JUMPI PUSH1 0x0 DUP1 REVERT JUMPDEST PUSH1 0x0 PUSH2 0x20FB DUP5 DUP5 PUSH2 0x2613 JUMP JUMPDEST PUSH1 0x0 DUP1 PUSH1 0x40 DUP4 DUP6 SUB SLT ISZERO PUSH2 0x2824 JUMPI PUSH1 0x0 DUP1 REVERT JUMPDEST PUSH1 0x0 PUSH2 0x2830 DUP6 DUP6 PUSH2 0x2607 JUMP JUMPDEST SWAP3 POP POP PUSH1 0x20 PUSH2 0x2697 DUP6 DUP3 DUP7 ADD PUSH2 0x2607 JUMP JUMPDEST PUSH1 0x0 PUSH1 0x20 DUP3 DUP5 SUB SLT ISZERO PUSH2 0x2853 JUMPI PUSH1 0x0 DUP1 REVERT JUMPDEST PUSH1 0x0 PUSH2 0x20FB DUP5 DUP5 PUSH2 0x261F JUMP JUMPDEST PUSH2 0x2868 DUP2 PUSH2 0x2C50 JUMP JUMPDEST DUP3 MSTORE POP POP JUMP JUMPDEST PUSH2 0x2868 DUP2 PUSH2 0x2C5C JUMP JUMPDEST PUSH2 0x2868 DUP2 PUSH2 0x2C6A JUMP JUMPDEST DUP1 MLOAD PUSH1 0xC0 DUP4 ADD SWAP1 PUSH2 0x2891 DUP5 DUP3 PUSH2 0x285F JUMP JUMPDEST POP PUSH1 0x20 DUP3 ADD MLOAD PUSH2 0x28A4 PUSH1 0x20 DUP6 ADD DUP3 PUSH2 0x2973 JUMP JUMPDEST POP PUSH1 0x40 DUP3 ADD MLOAD PUSH2 0x28B7 PUSH1 0x40 DUP6 ADD DUP3 PUSH2 0x2973 JUMP JUMPDEST POP PUSH1 0x60 DUP3 ADD MLOAD PUSH2 0x28CA PUSH1 0x60 DUP6 ADD DUP3 PUSH2 0x286E JUMP JUMPDEST POP PUSH1 0x80 DUP3 ADD MLOAD PUSH2 0x28DD PUSH1 0x80 DUP6 ADD DUP3 PUSH2 0x286E JUMP JUMPDEST POP PUSH1 0xA0 DUP3 ADD MLOAD PUSH2 0x1767 PUSH1 0xA0 DUP6 ADD DUP3 PUSH2 0x2973 JUMP JUMPDEST DUP1 MLOAD PUSH1 0xE0 DUP4 ADD SWAP1 PUSH2 0x2901 DUP5 DUP3 PUSH2 0x285F JUMP JUMPDEST POP PUSH1 0x20 DUP3 ADD MLOAD PUSH2 0x2914 PUSH1 0x20 DUP6 ADD DUP3 PUSH2 0x285F JUMP JUMPDEST POP PUSH1 0x40 DUP3 ADD MLOAD PUSH2 0x2927 PUSH1 0x40 DUP6 ADD DUP3 PUSH2 0x285F JUMP JUMPDEST POP PUSH1 0x60 DUP3 ADD MLOAD PUSH2 0x293A PUSH1 0x60 DUP6 ADD DUP3 PUSH2 0x2973 JUMP JUMPDEST POP PUSH1 0x80 DUP3 ADD MLOAD PUSH2 0x294D PUSH1 0x80 DUP6 ADD DUP3 PUSH2 0x2973 JUMP JUMPDEST POP PUSH1 0xA0 DUP3 ADD MLOAD PUSH2 0x2960 PUSH1 0xA0 DUP6 ADD DUP3 PUSH2 0x285F JUMP JUMPDEST POP PUSH1 0xC0 DUP3 ADD MLOAD PUSH2 0x1767 PUSH1 0xC0 DUP6 ADD DUP3 PUSH2 0x286E JUMP JUMPDEST PUSH2 0x2868 DUP2 PUSH2 0x2C61 JUMP JUMPDEST PUSH1 0x20 DUP2 ADD PUSH2 0x166F DUP3 DUP5 PUSH2 0x285F JUMP JUMPDEST PUSH1 0x40 DUP2 ADD PUSH2 0x2998 DUP3 DUP6 PUSH2 0x285F JUMP JUMPDEST PUSH2 0x1FB7 PUSH1 0x20 DUP4 ADD DUP5 PUSH2 0x285F JUMP JUMPDEST PUSH1 0xE0 DUP2 ADD PUSH2 0x29B3 DUP3 DUP11 PUSH2 0x285F JUMP JUMPDEST PUSH2 0x29C0 PUSH1 0x20 DUP4 ADD DUP10 PUSH2 0x285F JUMP JUMPDEST PUSH2 0x29CD PUSH1 0x40 DUP4 ADD DUP9 PUSH2 0x285F JUMP JUMPDEST PUSH2 0x29DA PUSH1 0x60 DUP4 ADD DUP8 PUSH2 0x2973 JUMP JUMPDEST PUSH2 0x29E7 PUSH1 0x80 DUP4 ADD DUP7 PUSH2 0x2973 JUMP JUMPDEST PUSH2 0x29F4 PUSH1 0xA0 DUP4 ADD DUP6 PUSH2 0x285F JUMP JUMPDEST PUSH2 0x2A01 PUSH1 0xC0 DUP4 ADD DUP5 PUSH2 0x286E JUMP JUMPDEST SWAP9 SWAP8 POP POP POP POP POP POP POP POP JUMP JUMPDEST PUSH1 0x60 DUP2 ADD PUSH2 0x2A1B DUP3 DUP7 PUSH2 0x285F JUMP JUMPDEST PUSH2 0x2A28 PUSH1 0x20 DUP4 ADD DUP6 PUSH2 0x285F JUMP JUMPDEST PUSH2 0x20FB PUSH1 0x40 DUP4 ADD DUP5 PUSH2 0x2973 JUMP JUMPDEST PUSH1 0x40 DUP2 ADD PUSH2 0x2A43 DUP3 DUP6 PUSH2 0x285F JUMP JUMPDEST PUSH2 0x1FB7 PUSH1 0x20 DUP4 ADD DUP5 PUSH2 0x2973 JUMP JUMPDEST PUSH1 0xC0 DUP2 ADD PUSH2 0x2A5E DUP3 DUP10 PUSH2 0x285F JUMP JUMPDEST PUSH2 0x2A6B PUSH1 0x20 DUP4 ADD DUP9 PUSH2 0x2973 JUMP JUMPDEST PUSH2 0x2A78 PUSH1 0x40 DUP4 ADD DUP8 PUSH2 0x2973 JUMP JUMPDEST PUSH2 0x2A85 PUSH1 0x60 DUP4 ADD DUP7 PUSH2 0x286E JUMP JUMPDEST PUSH2 0x2A92 PUSH1 0x80 DUP4 ADD DUP6 PUSH2 0x286E JUMP JUMPDEST PUSH2 0x2A9F PUSH1 0xA0 DUP4 ADD DUP5 PUSH2 0x2973 JUMP JUMPDEST SWAP8 SWAP7 POP POP POP POP POP POP POP JUMP JUMPDEST PUSH1 0x20 DUP2 ADD PUSH2 0x166F DUP3 DUP5 PUSH2 0x286E JUMP JUMPDEST PUSH1 0x20 DUP2 ADD PUSH2 0x166F DUP3 DUP5 PUSH2 0x2973 JUMP JUMPDEST PUSH1 0x40 DUP2 ADD PUSH2 0x2AD4 DUP3 DUP6 PUSH2 0x2973 JUMP JUMPDEST PUSH2 0x1FB7 PUSH1 0x20 DUP4 ADD DUP5 PUSH2 0x286E JUMP JUMPDEST PUSH1 0x40 DUP2 ADD PUSH2 0x2AEF DUP3 DUP6 PUSH2 0x2973 JUMP JUMPDEST PUSH2 0x1FB7 PUSH1 0x20 DUP4 ADD DUP5 PUSH2 0x2877 JUMP JUMPDEST PUSH2 0x100 DUP2 ADD PUSH2 0x2B0B DUP3 DUP6 PUSH2 0x2973 JUMP JUMPDEST PUSH2 0x1FB7 PUSH1 0x20 DUP4 ADD DUP5 PUSH2 0x28F0 JUMP JUMPDEST PUSH1 0x40 DUP2 ADD PUSH2 0x2A43 DUP3 DUP6 PUSH2 0x2973 JUMP JUMPDEST PUSH1 0x60 DUP2 ADD PUSH2 0x2B34 DUP3 DUP7 PUSH2 0x2973 JUMP JUMPDEST PUSH2 0x2B41 PUSH1 0x20 DUP4 ADD DUP6 PUSH2 0x2973 JUMP JUMPDEST PUSH2 0x20FB PUSH1 0x40 DUP4 ADD DUP5 PUSH2 0x286E JUMP JUMPDEST PUSH2 0x100 DUP2 ADD PUSH2 0x2B5D DUP3 DUP7 PUSH2 0x2973 JUMP JUMPDEST PUSH2 0x2B6A PUSH1 0x20 DUP4 ADD DUP6 PUSH2 0x2973 JUMP JUMPDEST PUSH2 0x20FB PUSH1 0x40 DUP4 ADD DUP5 PUSH2 0x2880 JUMP JUMPDEST PUSH1 0x80 DUP2 ADD PUSH2 0x2B85 DUP3 DUP8 PUSH2 0x2973 JUMP JUMPDEST PUSH2 0x2B92 PUSH1 0x20 DUP4 ADD DUP7 PUSH2 0x2973 JUMP JUMPDEST PUSH2 0x2B9F PUSH1 0x40 DUP4 ADD DUP6 PUSH2 0x2973 JUMP JUMPDEST PUSH2 0x2BAC PUSH1 0x60 DUP4 ADD DUP5 PUSH2 0x285F JUMP JUMPDEST SWAP6 SWAP5 POP POP POP POP POP JUMP JUMPDEST PUSH1 0xA0 DUP2 ADD PUSH2 0x2BC3 DUP3 DUP9 PUSH2 0x2973 JUMP JUMPDEST PUSH2 0x2BD0 PUSH1 0x20 DUP4 ADD DUP8 PUSH2 0x2973 JUMP JUMPDEST PUSH2 0x2BDD PUSH1 0x40 DUP4 ADD DUP7 PUSH2 0x2973 JUMP JUMPDEST PUSH2 0x2BEA PUSH1 0x60 DUP4 ADD DUP6 PUSH2 0x2973 JUMP JUMPDEST PUSH2 0x2BF7 PUSH1 0x80 DUP4 ADD DUP5 PUSH2 0x285F JUMP JUMPDEST SWAP7 SWAP6 POP POP POP POP POP POP JUMP JUMPDEST PUSH1 0x40 MLOAD DUP2 DUP2 ADD PUSH8 0xFFFFFFFFFFFFFFFF DUP2 GT DUP3 DUP3 LT OR ISZERO PUSH2 0x2C20 JUMPI PUSH1 0x0 DUP1 REVERT JUMPDEST PUSH1 0x40 MSTORE SWAP2 SWAP1 POP JUMP JUMPDEST PUSH1 0x0 PUSH8 0xFFFFFFFFFFFFFFFF DUP3 GT ISZERO PUSH2 0x2C3F JUMPI PUSH1 0x0 DUP1 REVERT JUMPDEST POP PUSH1 0x20 PUSH1 0x1F SWAP2 SWAP1 SWAP2 ADD PUSH1 0x1F NOT AND ADD SWAP1 JUMP JUMPDEST PUSH1 0x1 PUSH1 0xA0 PUSH1 0x2 EXP SUB AND SWAP1 JUMP JUMPDEST ISZERO ISZERO SWAP1 JUMP JUMPDEST SWAP1 JUMP JUMPDEST PUSH1 0xFF AND SWAP1 JUMP JUMPDEST PUSH1 0x0 PUSH2 0x166F DUP3 PUSH2 0x2C61 JUMP JUMPDEST DUP3 DUP2 DUP4 CALLDATACOPY POP PUSH1 0x0 SWAP2 ADD MSTORE JUMP STOP 0xd0 SWAP15 CALLCODE COINBASE STOP STOP STOP STOP STOP STOP STOP STOP STOP STOP STOP STOP STOP STOP STOP STOP STOP STOP STOP STOP STOP STOP STOP STOP STOP STOP STOP STOP 0xc2 CALLDATASIZE SWAP8 0xa8 STOP STOP STOP STOP STOP STOP STOP STOP STOP STOP STOP STOP STOP STOP STOP STOP STOP STOP STOP STOP STOP STOP STOP STOP STOP STOP STOP STOP LOG2 PUSH6 0x627A7A723058 KECCAK256 DUP4 0x28 0xca MLOAD 0xd1 0xb6 CALLCODE 0xd3 0xde 0x27 DUP4 0xf5 SLOAD 0xd6 0xd8 0xf5 BALANCE SWAP10 0x2a 0x2e SAR 0x5e PUSH12 0x7ECCD340D441B258206C6578 PUSH17 0x6572696D656E74616CF500370000000000 ",
  "sha1": "af92d58632189283c1da7faaf2e59ee7b121249f",
  "source": "pragma solidity ^0.4.24;\npragma experimental ABIEncoderV2;\n\nimport \"./SafeMath.sol\";\nimport \"./Ownable.sol\";\nimport \"../interfaces/IbetStandardTokenInterface.sol\";\nimport \"./OTCExchangeStorageModel.sol\";\nimport \"./OTCExchangeStorage.sol\";\nimport \"./PaymentGateway.sol\";\nimport \"./PersonalInfo.sol\";\nimport \"./RegulatorService.sol\";\n\n\n/// @title ibet OTC DEX\ncontract IbetOTCExchange is Ownable, OTCExchangeStorageModel {\n    using SafeMath for uint256;\n\n    /// 約定明細の有効期限\n    /// 現在の設定値は14日で設定している（長期の連休を考慮）\n    uint256 lockingPeriod = 1209600;\n\n    /// ---------------------------------------------------------------\n    /// Event\n    /// ---------------------------------------------------------------\n\n    /// Event：注文\n    event NewOrder(\n        address indexed tokenAddress,\n        uint256 orderId,\n        address indexed ownerAddress,\n        address indexed counterpartAddress,\n        uint256 price,\n        uint256 amount,\n        address agentAddress\n    );\n\n    /// Event: 注文取消\n    event CancelOrder(\n        address indexed tokenAddress,\n        uint256 orderId,\n        address indexed ownerAddress,\n        address indexed counterpartAddress,\n        uint256 price,\n        uint256 amount,\n        address agentAddress\n    );\n\n    /// Event: 約定\n    event Agree(\n        address indexed tokenAddress,\n        uint256 orderId,\n        uint256 agreementId,\n        address indexed buyAddress,\n        address indexed sellAddress,\n        uint256 price,\n        uint256 amount,\n        address agentAddress\n    );\n\n    /// Event: 決済OK\n    event SettlementOK(\n        address indexed tokenAddress,\n        uint256 orderId,\n        uint256 agreementId,\n        address indexed buyAddress,\n        address indexed sellAddress,\n        uint256 price,\n        uint256 amount,\n        address agentAddress\n    );\n\n    /// Event: 決済NG\n    event SettlementNG(\n        address indexed tokenAddress,\n        uint256 orderId,\n        uint256 agreementId,\n        address indexed buyAddress,\n        address indexed sellAddress,\n        uint256 price,\n        uint256 amount,\n        address agentAddress\n    );\n\n    /// Event: 全引き出し\n    event Withdrawal(\n        address indexed tokenAddress,\n        address indexed accountAddress\n    );\n\n    /// ---------------------------------------------------------------\n    /// Constructor\n    /// ---------------------------------------------------------------\n    address public personalInfoAddress;\n    address public paymentGatewayAddress;\n    address public storageAddress;\n    address public regulatorServiceAddress;\n\n    /// [CONSTRUCTOR]\n    /// @param _paymentGatewayAddress PaymentGatewayコントラクトアドレス\n    /// @param _personalInfoAddress PersonalInfoコントラクトアドレス\n    /// @param _storageAddress OTCExchangeStorageコントラクトアドレス\n    /// @param _regulatorServiceAddress RegulatorServiceコントラクトアドレス\n    constructor(\n        address _paymentGatewayAddress,\n        address _personalInfoAddress,\n        address _storageAddress,\n        address _regulatorServiceAddress\n    )\n        public\n    {\n        paymentGatewayAddress = _paymentGatewayAddress;\n        personalInfoAddress = _personalInfoAddress;\n        storageAddress = _storageAddress;\n        regulatorServiceAddress = _regulatorServiceAddress;\n    }\n\n    /// -------------------------------------------------------------------\n    /// Function: getter/setter\n    /// -------------------------------------------------------------------\n\n    /// @notice 注文情報取得\n    /// @param _orderId 注文ID\n    /// @return _owner 注文実行者（売り手）アドレス\n    /// @return _counterpart 取引相手（買い手）アドレス\n    /// @return _token トークンアドレス\n    /// @return _amount 注文数量\n    /// @return _price 注文単価\n    /// @return _agent 決済業者のアドレス\n    /// @return _canceled キャンセル済み状態\n    function getOrder(uint256 _orderId)\n        public\n        view\n        returns (\n            address _owner,\n            address _counterpart,\n            address _token,\n            uint256 _amount,\n            uint256 _price,\n            address _agent,\n            bool _canceled\n        )\n    {\n        OTCExchangeStorageModel.OTCOrder memory _order = OTCExchangeStorage(storageAddress).getOrder(_orderId);\n\n        return (\n           _order.owner,\n           _order.counterpart,\n           _order.token,\n           _order.amount,\n           _order.price,\n           _order.agent,\n           _order.canceled\n        );\n    }\n\n    /// @notice 注文情報更新\n    /// @param _orderId 注文ID\n    /// @param _owner 注文実行者（売り手）アドレス\n    /// @param _counterpart 取引相手（買い手）アドレス\n    /// @param _token トークンアドレス\n    /// @param _amount 注文数量\n    /// @param _price 注文単価\n    /// @param _agent 決済業者のアドレス\n    /// @param _canceled キャンセル済み状態\n    /// @return 処理結果\n    function setOrder(\n        uint256 _orderId,\n        address _owner,\n        address _counterpart,\n        address _token,\n        uint256 _amount,\n        uint256 _price,\n        address _agent,\n        bool _canceled\n    )\n        private\n        returns (bool)\n    {\n        OTCExchangeStorageModel.OTCOrder memory _order = OTCExchangeStorageModel.mappingOTCOrder(\n            _owner,\n            _counterpart,\n            _token,\n            _amount,\n            _price,\n            _agent,\n            _canceled\n        );\n        OTCExchangeStorage(storageAddress).setOrder(\n            _orderId,\n            _order\n        );\n        return true;\n    }\n\n    /// @notice 約定情報取得\n    /// @param _orderId 注文ID\n    /// @param _agreementId 約定ID\n    /// @return _counterpart 約定相手（売り手）アドレス\n    /// @return _amount 約定数量\n    /// @return _price 約定単価\n    /// @return _canceled キャンセル済み状態\n    /// @return _paid 支払済状態\n    /// @return _expiry 有効期限\n    function getAgreement(uint256 _orderId, uint256 _agreementId)\n        public\n        view\n        returns (\n            address _counterpart,\n            uint256 _amount,\n            uint256 _price,\n            bool _canceled,\n            bool _paid,\n            uint256 _expiry\n        )\n    {\n        OTCExchangeStorageModel.OTCAgreement memory _agreement = OTCExchangeStorage(storageAddress).getAgreement(_orderId, _agreementId);\n        return (\n           _agreement.counterpart,\n           _agreement.amount,\n           _agreement.price,\n           _agreement.canceled,\n           _agreement.paid,\n           _agreement.expiry\n        );\n    }\n\n    /// @notice 約定情報更新\n    /// @param _orderId 注文ID\n    /// @param _agreementId 約定ID\n    /// @param _counterpart 約定相手（売り手）アドレス\n    /// @param _amount 約定数量\n    /// @param _price 約定単価\n    /// @param _canceled キャンセル済み状態\n    /// @param _paid 支払済状態\n    /// @param _expiry 有効期限\n    /// @return 処理結果\n    function setAgreement(\n        uint256 _orderId,\n        uint256 _agreementId,\n        address _counterpart,\n        uint256 _amount,\n        uint256 _price,\n        bool _canceled,\n        bool _paid,\n        uint256 _expiry\n    )\n        private\n        returns (bool)\n    {\n        OTCExchangeStorageModel.OTCAgreement memory _agreement = OTCExchangeStorageModel.mappingOTCAgreement(\n            _counterpart,\n            _amount,\n            _price,\n            _canceled,\n            _paid,\n            _expiry\n         );\n        OTCExchangeStorage(storageAddress).setAgreement(\n            _orderId,\n            _agreementId,\n            _agreement\n        );\n        return true;\n    }\n\n    /// @notice 直近注文ID取得\n    /// @return 直近注文ID\n    function latestOrderId()\n        public\n        view\n        returns (uint256)\n    {\n        return OTCExchangeStorage(storageAddress).getLatestOrderId();\n    }\n\n    /// @notice 直近注文ID更新\n    /// @param _value 更新後の直近注文ID\n    /// @return 処理結果\n    function setLatestOrderId(uint256 _value)\n        private\n        returns (bool)\n    {\n        OTCExchangeStorage(storageAddress).setLatestOrderId(_value);\n        return true;\n    }\n\n    /// @notice 直近約定ID取得\n    /// @param _orderId 注文ID\n    /// @return 直近約定ID\n    function latestAgreementId(uint256 _orderId)\n        public\n        view\n        returns (uint256)\n    {\n        return OTCExchangeStorage(storageAddress).getLatestAgreementId(_orderId);\n    }\n\n    /// @notice 直近約定ID更新\n    /// @param _orderId 注文ID\n    /// @param _value 更新後の直近約定ID\n    /// @return 処理結果\n    function setLatestAgreementId(uint256 _orderId, uint256 _value)\n        private\n        returns (bool)\n    {\n        OTCExchangeStorage(storageAddress).setLatestAgreementId(_orderId, _value);\n        return true;\n    }\n\n    /// @notice 残高参照\n    /// @param _account アカウントアドレス\n    /// @param _token トークンアドレス\n    /// @return 残高数量\n    function balanceOf(address _account, address _token)\n        public\n        view\n        returns (uint256)\n    {\n        return OTCExchangeStorage(storageAddress).getBalance(\n            _account,\n            _token\n        );\n    }\n\n    /// @notice 残高数量更新\n    /// @param _account アカウントアドレス\n    /// @param _token トークンアドレス\n    /// @param _value 更新後の残高数量\n    /// @return 処理結果\n    function setBalance(address _account, address _token, uint256 _value)\n        private\n        returns (bool)\n    {\n        return OTCExchangeStorage(storageAddress).setBalance(\n            _account,\n            _token,\n            _value\n        );\n    }\n\n    /// @notice 拘束数量参照\n    /// @param _account アカウントアドレス\n    /// @param _token トークンアドレス\n    /// @return 拘束数量\n    function commitmentOf(address _account, address _token)\n        public\n        view\n        returns (uint256)\n    {\n        return OTCExchangeStorage(storageAddress).getCommitment(\n            _account,\n            _token\n        );\n    }\n\n    /// @notice 拘束数量更新\n    /// @param _account アカウントアドレス\n    /// @param _token トークンアドレス\n    /// @param _value 更新後の拘束数量\n    /// @return 処理結果\n    function setCommitment(address _account, address _token, uint256 _value)\n        private\n        returns (bool)\n    {\n        OTCExchangeStorage(storageAddress).setCommitment(\n            _account,\n            _token,\n            _value\n        );\n        return true;\n    }\n\n    /// ---------------------------------------------------------------\n    /// Function: Logic\n    /// ---------------------------------------------------------------\n\n    /// @notice Make注文\n    /// @param _counterpart 取引相手（買い手）アドレス\n    /// @param _token トークンアドレス\n    /// @param _amount 注文数量\n    /// @param _price 注文単価\n    /// @param _agent 収納代行業者のアドレス\n    /// @return 処理結果\n    function createOrder(\n        address _counterpart,\n        address _token,\n        uint256 _amount,\n        uint256 _price,\n        address _agent\n    )\n        public\n        returns (bool)\n    {\n        // <CHK>\n        //  取引参加者チェック\n        if (regulatorServiceAddress != address(0)) {\n            require(RegulatorService(regulatorServiceAddress).check(msg.sender) == 0 || RegulatorService(regulatorServiceAddress).check(_counterpart) == 0);\n        }\n\n        // <CHK>\n        //  1) 注文数量が0の場合\n        //  2) 残高数量が発注数量に満たない場合\n        //  3) 名簿用個人情報が登録されていない場合\n        //  4) 取扱ステータスがFalseの場合\n        //  5) 有効な収納代行業者（Agent）を指定していない場合\n        //   -> 更新処理: 全ての残高を投資家のアカウントに戻し、falseを返す\n        if (\n            _amount == 0 ||\n            balanceOf(msg.sender, _token) < _amount ||\n            PersonalInfo(personalInfoAddress).isRegistered(msg.sender, IbetStandardTokenInterface(_token).owner()) == false ||\n            IbetStandardTokenInterface(_token).status() == false ||\n            validateAgent(_agent) == false\n        ) {\n            IbetStandardTokenInterface(_token).transfer(\n                msg.sender,\n                balanceOf(msg.sender, _token)\n            );\n            setBalance(msg.sender, _token, 0);\n            return false;\n        }\n\n        // 更新処理: 注文IDをカウントアップ -> 注文情報を挿入\n        uint256 orderId = latestOrderId() + 1;\n        setLatestOrderId(orderId);\n        setOrder(\n            orderId,\n            msg.sender,\n            _counterpart,\n            _token,\n            _amount,\n            _price,\n            _agent,\n            false\n        );\n\n        // 預かりを拘束\n        setBalance(\n            msg.sender,\n            _token,\n            balanceOf(msg.sender, _token).sub(_amount)\n        );\n        setCommitment(\n            msg.sender,\n            _token,\n            commitmentOf(msg.sender, _token).add(_amount)\n        );\n\n        // イベント登録: 新規注文\n        emit NewOrder(\n            _token,\n            orderId,\n            msg.sender,\n            _counterpart,\n            _price,\n            _amount,\n            _agent\n        );\n\n        return true;\n    }\n\n    /// @notice 注文キャンセル\n    /// @param _orderId 注文ID\n    /// @return 処理結果\n    function cancelOrder(uint256 _orderId)\n        public\n        returns (bool)\n    {\n        // <CHK>\n        //  指定した注文番号が、直近の注文ID以上の場合\n        //   -> REVERT\n        require(_orderId <= latestOrderId());\n\n        OTCExchangeStorageModel.OTCOrder memory order = OTCExchangeStorage(storageAddress).getOrder(_orderId);\n\n        // <CHK>\n        //  1) 元注文の残注文数量が0の場合\n        //  2) 注文がキャンセル済みの場合\n        //  3) 元注文の発注者と、注文キャンセルの実施者が異なる場合\n        //  4) 取扱ステータスがFalseの場合\n        //   -> REVERT\n        if (\n            order.amount == 0 ||\n            order.canceled == true ||\n            order.owner != msg.sender ||\n            IbetStandardTokenInterface(order.token).status() == false\n        ) {\n            revert();\n        }\n\n        // 注文で拘束している預かりを解放 => 残高を投資家のアカウントに戻す\n        setCommitment(\n            msg.sender,\n            order.token,\n            commitmentOf(msg.sender, order.token).sub(order.amount)\n        );\n        IbetStandardTokenInterface(order.token).transfer(\n            msg.sender,\n            order.amount\n        );\n\n        // 更新処理: キャンセル済みフラグをキャンセル済み（True）に更新\n         OTCExchangeStorage(storageAddress).setOrderCanceled(_orderId, true);\n\n        // イベント登録: 注文キャンセル\n        emit CancelOrder(\n            order.token,\n            _orderId,\n            msg.sender,\n            order.counterpart,\n            order.price,\n            order.amount,\n            order.agent\n        );\n\n        return true;\n    }\n\n    /// @notice Take注文\n    /// @dev 約定数量 = 注文数量\n    /// @param _orderId 注文ID\n    /// @return 処理結果\n    function executeOrder(uint256 _orderId)\n        public\n        returns (bool)\n    {\n        // <CHK>\n        //  指定した注文IDが直近の注文IDを超えている場合\n        require(_orderId <= latestOrderId());\n\n        OTCExchangeStorageModel.OTCOrder memory order = OTCExchangeStorage(storageAddress).getOrder(_orderId);\n\n        // <CHK>\n        //  取引参加者チェック\n        if (regulatorServiceAddress != address(0)) {\n            require(\n                RegulatorService(regulatorServiceAddress).check(msg.sender) == 0 ||\n                RegulatorService(regulatorServiceAddress).check(order.owner) == 0\n            );\n        }\n\n        // <CHK>\n        //  取引関係者限定\n        require(\n            order.owner == msg.sender ||\n            order.counterpart == msg.sender ||\n            order.agent == msg.sender\n        );\n\n        // <CHK>\n        //  1) 元注文の発注者と同一のアドレスからの発注の場合\n        //  2) 元注文がキャンセル済の場合\n        //  3) 名簿用個人情報が登録されていない場合\n        //  4) 買注文者がコントラクトアドレスの場合\n        //  5) 取扱ステータスがFalseの場合\n        //  6) 元注文の残注文数量が0の場合\n        //   -> REVERT\n        if (\n            msg.sender == order.owner ||\n            order.canceled == true ||\n            PersonalInfo(personalInfoAddress).isRegistered(msg.sender,IbetStandardTokenInterface(order.token).owner()) == false ||\n            isContract(msg.sender) == true ||\n            IbetStandardTokenInterface(order.token).status() == false ||\n            order.amount == 0\n        ) {\n            revert();\n        }\n\n        // 更新処理: 約定IDをカウントアップ => 約定情報を挿入する\n        uint256 agreementId = latestAgreementId(_orderId) + 1;\n        setLatestAgreementId(_orderId, agreementId);\n        uint256 expiry = now + lockingPeriod;\n        setAgreement(\n            _orderId,\n            agreementId,\n            msg.sender,\n            order.amount,\n            order.price,\n            false,\n            false,\n            expiry\n        );\n\n        // 更新処理: 元注文の数量を0にする\n         OTCExchangeStorage(storageAddress).setOrderAmount(_orderId, 0);\n           \n         // イベント登録: 約定\n        emit Agree(\n            order.token,\n            _orderId,\n            agreementId,\n            msg.sender,\n            order.owner,\n            order.price,\n            order.amount,\n            order.agent\n        );\n        return true;\n    }\n\n    /// @notice 決済承認\n    /// @dev 注文時に指定された決済業者のみ実行が可能\n    /// @param _orderId 注文ID\n    /// @param _agreementId 約定ID\n    /// @return 処理結果\n    function confirmAgreement(uint256 _orderId, uint256 _agreementId)\n        public\n        returns (bool)\n    {\n        // <CHK>\n        //  1) 指定した注文番号が、直近の注文ID以上の場合\n        //  2) 指定した約定IDが、直近の約定ID以上の場合\n        //   -> REVERT\n        require(_orderId <= latestOrderId());\n        require(_agreementId <= latestAgreementId(_orderId));\n\n        OTCExchangeStorageModel.OTCOrder memory order = OTCExchangeStorage(storageAddress).getOrder(_orderId);\n\n        OTCExchangeStorageModel.OTCAgreement memory agreement = OTCExchangeStorage(storageAddress).getAgreement(_orderId, _agreementId);\n\n        // <CHK>\n        //  1) すでに決済承認済み（支払い済み）の場合\n        //  2) すでに決済非承認済み（キャンセル済み）の場合\n        //  3) 元注文で指定した決済業者ではない場合\n        //  4) 取扱ステータスがFalseの場合\n        //   -> REVERT\n        if (\n            agreement.paid ||\n            agreement.canceled ||\n            msg.sender != order.agent ||\n            IbetStandardTokenInterface(order.token).status() == false\n        ) {\n            revert();\n        }\n\n        // 更新処理: 支払い済みフラグを支払い済み（True）に更新する\n        OTCExchangeStorage(storageAddress).setAgreementPaid(_orderId, _agreementId, true);\n\n        // 更新処理: 注文者（売り手）から突合相手（買い手）へと資産移転を行う\n        setCommitment(\n            order.owner,\n            order.token,\n            commitmentOf(order.owner, order.token).sub(agreement.amount)\n        );\n        IbetStandardTokenInterface(order.token).transfer(\n            agreement.counterpart,\n            agreement.amount\n        );\n        // イベント登録: 決済OK\n        emit SettlementOK(\n            order.token,\n            _orderId,\n            _agreementId,\n            agreement.counterpart,\n            order.owner,\n            order.price,\n            agreement.amount,\n            order.agent\n        );\n\n        return true;\n    }\n\n    /// @notice 決済非承認\n    /// @dev 注文時に指定された決済業者から実行が可能、有効期限後はMake注文者も実行が可能\n    /// @param _orderId 注文ID\n    /// @param _agreementId 約定ID\n    /// @return 処理結果\n    function cancelAgreement(uint256 _orderId, uint256 _agreementId)\n        public\n        returns (bool)\n    {\n        // <CHK>\n        //  1) 指定した注文番号が、直近の注文ID以上の場合\n        //  2) 指定した約定IDが、直近の約定ID以上の場合\n        //   -> REVERT\n        require(_orderId <= latestOrderId());\n        require(_agreementId <= latestAgreementId(_orderId));\n\n        OTCExchangeStorageModel.OTCOrder memory order = OTCExchangeStorage(storageAddress).getOrder(_orderId);\n\n        OTCExchangeStorageModel.OTCAgreement memory agreement = OTCExchangeStorage(storageAddress).getAgreement(_orderId, _agreementId);\n\n        if (agreement.expiry <= now) {\n            // 約定明細の有効期限を超過している場合\n            // <CHK>\n            //  1) すでに決済承認済み（支払い済み）の場合\n            //  2) すでに決済非承認済み（キャンセル済み）の場合\n            //  3) msg.senderが、 決済代行（agent）、発注者（owner）、約定相手（counterpart）以外の場合\n            //  4) 取扱ステータスがFalseの場合\n            //   -> REVERT\n            if (\n                agreement.paid ||\n                agreement.canceled ||\n                (msg.sender != order.agent &&\n                    msg.sender != order.owner &&\n                    msg.sender != agreement.counterpart) ||\n                IbetStandardTokenInterface(order.token).status() == false\n            ) {\n                revert();\n            }\n        } else {\n            // 約定明細の有効期限を超過していない場合\n            // <CHK>\n            //  1) すでに支払い済みの場合\n            //  2) すでに決済非承認済み（キャンセル済み）の場合\n            //  3) msg.senderが、決済代行（agent）以外の場合\n            //   -> REVERT\n            if (\n                agreement.paid ||\n                agreement.canceled ||\n                msg.sender != order.agent ||\n                IbetStandardTokenInterface(order.token).status() == false\n            ) {\n                revert();\n            }\n        }\n\n        // 更新処理: キャンセル済みフラグをキャンセル（True）に更新する\n         OTCExchangeStorage(storageAddress).setAgreementCanceled( _orderId, _agreementId, true);\n\n        // 更新処理: 突合相手（買い手）の注文数量だけ注文者（売り手）の預かりを解放\n        //  -> 預かりの引き出し。\n        // 取り消した注文は無効化する（注文中状態に戻さない）\n        setCommitment(\n            order.owner,\n            order.token,\n            commitmentOf(order.owner, order.token).sub(agreement.amount)\n        );\n        IbetStandardTokenInterface(order.token).transfer(\n            order.owner,\n            agreement.amount\n        );\n        // イベント登録: 決済NG\n        emit SettlementNG(\n            order.token,\n            _orderId,\n            _agreementId,\n            agreement.counterpart,\n            order.owner,\n            order.price,\n            agreement.amount,\n            order.agent\n        );\n\n        return true;\n    }\n\n    /// @notice 全ての残高を引き出しする\n    /// @dev 未売却の預かりに対してのみ引き出しをおこなう。約定済、注文中の預かり（commitments）の引き出しはおこなわない。\n    /// @param _token トークンアドレス\n    /// @return 処理結果\n    function withdrawAll(address _token)\n        public\n        returns (bool)\n    {\n        uint256 balance = balanceOf(msg.sender, _token);\n\n        // <CHK>\n        //  1) 残高がゼロの場合、REVERT\n        //  2) 取扱ステータスがFalseの場合\n        if (balance == 0 || IbetStandardTokenInterface(_token).status() == false) {\n            revert();\n        }\n\n        // 更新処理: トークン引き出し（送信）\n        IbetStandardTokenInterface(_token).transfer(msg.sender, balance);\n        setBalance(msg.sender, _token, 0);\n\n        // イベント登録\n        emit Withdrawal(_token, msg.sender);\n\n        return true;\n    }\n\n    /// @notice Deposit Handler：デポジット処理\n    /// @param _from アカウントアドレス：残高を保有するアドレス\n    /// @param _value デポジット数量\n    function tokenFallback(address _from, uint256 _value, bytes memory /*_data*/)\n        public\n    {\n        setBalance(\n            _from,\n            msg.sender,\n            balanceOf(_from, msg.sender).add(_value)\n        );\n    }\n\n    /// @notice アドレスがコントラクトアドレスであるかを判定\n    /// @param _addr アドレス\n    /// @return is_contract 判定結果\n    function isContract(address _addr)\n        private\n        view\n        returns (bool is_contract)\n    {\n        uint256 length;\n        assembly {\n            length := extcodesize(_addr)\n        }\n        return (length > 0);\n    }\n\n    /// @notice Agentアドレスが有効なものであることをチェックする\n    /// @param _addr アドレス\n    /// @return 有効状態\n    function validateAgent(address _addr)\n        private\n        view\n        returns (bool)\n    {\n        return PaymentGateway(paymentGatewayAddress).getAgent(_addr);\n    }\n}\n",
  "sourcePath": "contracts/IbetOTCExchange.sol",
  "type": "contract"
}