{
  "abi": [
    {
      "constant": true,
      "inputs": [
        {
          "name": "_account",
          "type": "address"
        },
        {
          "name": "_token",
          "type": "address"
        }
      ],
      "name": "getCommitment",
      "outputs": [
        {
          "name": "",
          "type": "uint256"
        }
      ],
      "payable": false,
      "stateMutability": "view",
      "type": "function"
    },
    {
      "constant": true,
      "inputs": [
        {
          "name": "",
          "type": "uint256"
        }
      ],
      "name": "latestAgreementIds",
      "outputs": [
        {
          "name": "",
          "type": "uint256"
        }
      ],
      "payable": false,
      "stateMutability": "view",
      "type": "function"
    },
    {
      "constant": true,
      "inputs": [
        {
          "name": "_orderId",
          "type": "uint256"
        }
      ],
      "name": "getOrderPrice",
      "outputs": [
        {
          "name": "",
          "type": "uint256"
        }
      ],
      "payable": false,
      "stateMutability": "view",
      "type": "function"
    },
    {
      "constant": false,
      "inputs": [
        {
          "name": "_orderId",
          "type": "uint256"
        },
        {
          "name": "_agreementId",
          "type": "uint256"
        },
        {
          "name": "_price",
          "type": "uint256"
        }
      ],
      "name": "setAgreementPrice",
      "outputs": [],
      "payable": false,
      "stateMutability": "nonpayable",
      "type": "function"
    },
    {
      "constant": false,
      "inputs": [
        {
          "name": "_orderId",
          "type": "uint256"
        },
        {
          "name": "_agreementId",
          "type": "uint256"
        },
        {
          "name": "_amount",
          "type": "uint256"
        }
      ],
      "name": "setAgreementAmount",
      "outputs": [],
      "payable": false,
      "stateMutability": "nonpayable",
      "type": "function"
    },
    {
      "constant": true,
      "inputs": [
        {
          "name": "_orderId",
          "type": "uint256"
        },
        {
          "name": "_agreementId",
          "type": "uint256"
        }
      ],
      "name": "getAgreementAmount",
      "outputs": [
        {
          "name": "",
          "type": "uint256"
        }
      ],
      "payable": false,
      "stateMutability": "view",
      "type": "function"
    },
    {
      "constant": true,
      "inputs": [
        {
          "name": "_orderId",
          "type": "uint256"
        }
      ],
      "name": "getOrderToken",
      "outputs": [
        {
          "name": "",
          "type": "address"
        }
      ],
      "payable": false,
      "stateMutability": "view",
      "type": "function"
    },
    {
      "constant": false,
      "inputs": [
        {
          "name": "_orderId",
          "type": "uint256"
        },
        {
          "name": "_counterpart",
          "type": "address"
        }
      ],
      "name": "setOrderCounterpart",
      "outputs": [],
      "payable": false,
      "stateMutability": "nonpayable",
      "type": "function"
    },
    {
      "constant": true,
      "inputs": [
        {
          "name": "_orderId",
          "type": "uint256"
        }
      ],
      "name": "getOrderCanceled",
      "outputs": [
        {
          "name": "",
          "type": "bool"
        }
      ],
      "payable": false,
      "stateMutability": "view",
      "type": "function"
    },
    {
      "constant": true,
      "inputs": [],
      "name": "getLatestOrderId",
      "outputs": [
        {
          "name": "",
          "type": "uint256"
        }
      ],
      "payable": false,
      "stateMutability": "view",
      "type": "function"
    },
    {
      "constant": true,
      "inputs": [
        {
          "name": "_orderId",
          "type": "uint256"
        }
      ],
      "name": "getOrderAgent",
      "outputs": [
        {
          "name": "",
          "type": "address"
        }
      ],
      "payable": false,
      "stateMutability": "view",
      "type": "function"
    },
    {
      "constant": false,
      "inputs": [
        {
          "name": "_orderId",
          "type": "uint256"
        },
        {
          "name": "_owner",
          "type": "address"
        }
      ],
      "name": "setOrderOwner",
      "outputs": [],
      "payable": false,
      "stateMutability": "nonpayable",
      "type": "function"
    },
    {
      "constant": false,
      "inputs": [
        {
          "name": "_orderId",
          "type": "uint256"
        },
        {
          "name": "_amount",
          "type": "uint256"
        }
      ],
      "name": "setOrderAmount",
      "outputs": [],
      "payable": false,
      "stateMutability": "nonpayable",
      "type": "function"
    },
    {
      "constant": true,
      "inputs": [
        {
          "name": "_orderId",
          "type": "uint256"
        }
      ],
      "name": "getOrderAmount",
      "outputs": [
        {
          "name": "",
          "type": "uint256"
        }
      ],
      "payable": false,
      "stateMutability": "view",
      "type": "function"
    },
    {
      "constant": true,
      "inputs": [],
      "name": "latestOrderId",
      "outputs": [
        {
          "name": "",
          "type": "uint256"
        }
      ],
      "payable": false,
      "stateMutability": "view",
      "type": "function"
    },
    {
      "constant": false,
      "inputs": [
        {
          "name": "_orderId",
          "type": "uint256"
        },
        {
          "components": [
            {
              "name": "owner",
              "type": "address"
            },
            {
              "name": "counterpart",
              "type": "address"
            },
            {
              "name": "token",
              "type": "address"
            },
            {
              "name": "amount",
              "type": "uint256"
            },
            {
              "name": "price",
              "type": "uint256"
            },
            {
              "name": "agent",
              "type": "address"
            },
            {
              "name": "canceled",
              "type": "bool"
            }
          ],
          "name": "_order",
          "type": "tuple"
        }
      ],
      "name": "setOrder",
      "outputs": [],
      "payable": false,
      "stateMutability": "nonpayable",
      "type": "function"
    },
    {
      "constant": false,
      "inputs": [
        {
          "name": "_orderId",
          "type": "uint256"
        },
        {
          "name": "_token",
          "type": "address"
        }
      ],
      "name": "setOrderToken",
      "outputs": [],
      "payable": false,
      "stateMutability": "nonpayable",
      "type": "function"
    },
    {
      "constant": true,
      "inputs": [
        {
          "name": "_orderId",
          "type": "uint256"
        },
        {
          "name": "_agreementId",
          "type": "uint256"
        }
      ],
      "name": "getAgreementCanceled",
      "outputs": [
        {
          "name": "",
          "type": "bool"
        }
      ],
      "payable": false,
      "stateMutability": "view",
      "type": "function"
    },
    {
      "constant": true,
      "inputs": [
        {
          "name": "_orderId",
          "type": "uint256"
        },
        {
          "name": "_agreementId",
          "type": "uint256"
        }
      ],
      "name": "getAgreementPaid",
      "outputs": [
        {
          "name": "",
          "type": "bool"
        }
      ],
      "payable": false,
      "stateMutability": "view",
      "type": "function"
    },
    {
      "constant": true,
      "inputs": [
        {
          "name": "_orderId",
          "type": "uint256"
        }
      ],
      "name": "getOrderOwner",
      "outputs": [
        {
          "name": "",
          "type": "address"
        }
      ],
      "payable": false,
      "stateMutability": "view",
      "type": "function"
    },
    {
      "constant": true,
      "inputs": [],
      "name": "owner",
      "outputs": [
        {
          "name": "",
          "type": "address"
        }
      ],
      "payable": false,
      "stateMutability": "view",
      "type": "function"
    },
    {
      "constant": false,
      "inputs": [
        {
          "name": "_orderId",
          "type": "uint256"
        },
        {
          "name": "_agreementId",
          "type": "uint256"
        },
        {
          "name": "_expiry",
          "type": "uint256"
        }
      ],
      "name": "setAgreementExpiry",
      "outputs": [],
      "payable": false,
      "stateMutability": "nonpayable",
      "type": "function"
    },
    {
      "constant": false,
      "inputs": [
        {
          "name": "_orderId",
          "type": "uint256"
        },
        {
          "name": "_agreementId",
          "type": "uint256"
        },
        {
          "components": [
            {
              "name": "counterpart",
              "type": "address"
            },
            {
              "name": "amount",
              "type": "uint256"
            },
            {
              "name": "price",
              "type": "uint256"
            },
            {
              "name": "canceled",
              "type": "bool"
            },
            {
              "name": "paid",
              "type": "bool"
            },
            {
              "name": "expiry",
              "type": "uint256"
            }
          ],
          "name": "_agreement",
          "type": "tuple"
        }
      ],
      "name": "setAgreement",
      "outputs": [],
      "payable": false,
      "stateMutability": "nonpayable",
      "type": "function"
    },
    {
      "constant": false,
      "inputs": [
        {
          "name": "_orderId",
          "type": "uint256"
        },
        {
          "name": "_agreementId",
          "type": "uint256"
        },
        {
          "name": "_counterpart",
          "type": "address"
        }
      ],
      "name": "setAgreementCounterpart",
      "outputs": [],
      "payable": false,
      "stateMutability": "nonpayable",
      "type": "function"
    },
    {
      "constant": false,
      "inputs": [
        {
          "name": "_orderId",
          "type": "uint256"
        },
        {
          "name": "_agreementId",
          "type": "uint256"
        },
        {
          "name": "_paid",
          "type": "bool"
        }
      ],
      "name": "setAgreementPaid",
      "outputs": [],
      "payable": false,
      "stateMutability": "nonpayable",
      "type": "function"
    },
    {
      "constant": true,
      "inputs": [
        {
          "name": "_orderId",
          "type": "uint256"
        }
      ],
      "name": "getOrderCounterpart",
      "outputs": [
        {
          "name": "",
          "type": "address"
        }
      ],
      "payable": false,
      "stateMutability": "view",
      "type": "function"
    },
    {
      "constant": false,
      "inputs": [
        {
          "name": "_orderId",
          "type": "uint256"
        },
        {
          "name": "_agreementId",
          "type": "uint256"
        },
        {
          "name": "_canceled",
          "type": "bool"
        }
      ],
      "name": "setAgreementCanceled",
      "outputs": [],
      "payable": false,
      "stateMutability": "nonpayable",
      "type": "function"
    },
    {
      "constant": true,
      "inputs": [
        {
          "name": "_orderId",
          "type": "uint256"
        },
        {
          "name": "_agreementId",
          "type": "uint256"
        }
      ],
      "name": "getAgreementCounterpart",
      "outputs": [
        {
          "name": "",
          "type": "address"
        }
      ],
      "payable": false,
      "stateMutability": "view",
      "type": "function"
    },
    {
      "constant": false,
      "inputs": [
        {
          "name": "_orderId",
          "type": "uint256"
        },
        {
          "name": "_latestAgreementId",
          "type": "uint256"
        }
      ],
      "name": "setLatestAgreementId",
      "outputs": [],
      "payable": false,
      "stateMutability": "nonpayable",
      "type": "function"
    },
    {
      "constant": false,
      "inputs": [
        {
          "name": "_orderId",
          "type": "uint256"
        },
        {
          "name": "_agent",
          "type": "address"
        }
      ],
      "name": "setOrderAgent",
      "outputs": [],
      "payable": false,
      "stateMutability": "nonpayable",
      "type": "function"
    },
    {
      "constant": false,
      "inputs": [
        {
          "name": "_account",
          "type": "address"
        },
        {
          "name": "_token",
          "type": "address"
        },
        {
          "name": "_value",
          "type": "uint256"
        }
      ],
      "name": "setBalance",
      "outputs": [
        {
          "name": "",
          "type": "bool"
        }
      ],
      "payable": false,
      "stateMutability": "nonpayable",
      "type": "function"
    },
    {
      "constant": false,
      "inputs": [
        {
          "name": "_latestOrderId",
          "type": "uint256"
        }
      ],
      "name": "setLatestOrderId",
      "outputs": [],
      "payable": false,
      "stateMutability": "nonpayable",
      "type": "function"
    },
    {
      "constant": true,
      "inputs": [
        {
          "name": "_orderId",
          "type": "uint256"
        },
        {
          "name": "_agreementId",
          "type": "uint256"
        }
      ],
      "name": "getAgreement",
      "outputs": [
        {
          "components": [
            {
              "name": "counterpart",
              "type": "address"
            },
            {
              "name": "amount",
              "type": "uint256"
            },
            {
              "name": "price",
              "type": "uint256"
            },
            {
              "name": "canceled",
              "type": "bool"
            },
            {
              "name": "paid",
              "type": "bool"
            },
            {
              "name": "expiry",
              "type": "uint256"
            }
          ],
          "name": "",
          "type": "tuple"
        }
      ],
      "payable": false,
      "stateMutability": "view",
      "type": "function"
    },
    {
      "constant": true,
      "inputs": [],
      "name": "latestVersion",
      "outputs": [
        {
          "name": "",
          "type": "address"
        }
      ],
      "payable": false,
      "stateMutability": "view",
      "type": "function"
    },
    {
      "constant": false,
      "inputs": [
        {
          "name": "_orderId",
          "type": "uint256"
        },
        {
          "name": "_price",
          "type": "uint256"
        }
      ],
      "name": "setOrderPrice",
      "outputs": [],
      "payable": false,
      "stateMutability": "nonpayable",
      "type": "function"
    },
    {
      "constant": true,
      "inputs": [
        {
          "name": "_orderId",
          "type": "uint256"
        }
      ],
      "name": "getLatestAgreementId",
      "outputs": [
        {
          "name": "",
          "type": "uint256"
        }
      ],
      "payable": false,
      "stateMutability": "view",
      "type": "function"
    },
    {
      "constant": true,
      "inputs": [
        {
          "name": "_orderId",
          "type": "uint256"
        },
        {
          "name": "_agreementId",
          "type": "uint256"
        }
      ],
      "name": "getAgreementPrice",
      "outputs": [
        {
          "name": "",
          "type": "uint256"
        }
      ],
      "payable": false,
      "stateMutability": "view",
      "type": "function"
    },
    {
      "constant": false,
      "inputs": [
        {
          "name": "_account",
          "type": "address"
        },
        {
          "name": "_token",
          "type": "address"
        },
        {
          "name": "_value",
          "type": "uint256"
        }
      ],
      "name": "setCommitment",
      "outputs": [],
      "payable": false,
      "stateMutability": "nonpayable",
      "type": "function"
    },
    {
      "constant": true,
      "inputs": [
        {
          "name": "_orderId",
          "type": "uint256"
        }
      ],
      "name": "getOrder",
      "outputs": [
        {
          "components": [
            {
              "name": "owner",
              "type": "address"
            },
            {
              "name": "counterpart",
              "type": "address"
            },
            {
              "name": "token",
              "type": "address"
            },
            {
              "name": "amount",
              "type": "uint256"
            },
            {
              "name": "price",
              "type": "uint256"
            },
            {
              "name": "agent",
              "type": "address"
            },
            {
              "name": "canceled",
              "type": "bool"
            }
          ],
          "name": "",
          "type": "tuple"
        }
      ],
      "payable": false,
      "stateMutability": "view",
      "type": "function"
    },
    {
      "constant": false,
      "inputs": [
        {
          "name": "_newVersion",
          "type": "address"
        }
      ],
      "name": "upgradeVersion",
      "outputs": [],
      "payable": false,
      "stateMutability": "nonpayable",
      "type": "function"
    },
    {
      "constant": false,
      "inputs": [
        {
          "name": "_orderId",
          "type": "uint256"
        },
        {
          "name": "_canceled",
          "type": "bool"
        }
      ],
      "name": "setOrderCanceled",
      "outputs": [],
      "payable": false,
      "stateMutability": "nonpayable",
      "type": "function"
    },
    {
      "constant": true,
      "inputs": [
        {
          "name": "_account",
          "type": "address"
        },
        {
          "name": "_token",
          "type": "address"
        }
      ],
      "name": "getBalance",
      "outputs": [
        {
          "name": "",
          "type": "uint256"
        }
      ],
      "payable": false,
      "stateMutability": "view",
      "type": "function"
    },
    {
      "constant": true,
      "inputs": [
        {
          "name": "",
          "type": "uint256"
        },
        {
          "name": "",
          "type": "uint256"
        }
      ],
      "name": "agreements",
      "outputs": [
        {
          "name": "counterpart",
          "type": "address"
        },
        {
          "name": "amount",
          "type": "uint256"
        },
        {
          "name": "price",
          "type": "uint256"
        },
        {
          "name": "canceled",
          "type": "bool"
        },
        {
          "name": "paid",
          "type": "bool"
        },
        {
          "name": "expiry",
          "type": "uint256"
        }
      ],
      "payable": false,
      "stateMutability": "view",
      "type": "function"
    },
    {
      "constant": false,
      "inputs": [
        {
          "name": "newOwner",
          "type": "address"
        }
      ],
      "name": "transferOwnership",
      "outputs": [],
      "payable": false,
      "stateMutability": "nonpayable",
      "type": "function"
    },
    {
      "constant": true,
      "inputs": [
        {
          "name": "_orderId",
          "type": "uint256"
        },
        {
          "name": "_agreementId",
          "type": "uint256"
        }
      ],
      "name": "getAgreementExpiry",
      "outputs": [
        {
          "name": "",
          "type": "uint256"
        }
      ],
      "payable": false,
      "stateMutability": "view",
      "type": "function"
    },
    {
      "inputs": [],
      "payable": false,
      "stateMutability": "nonpayable",
      "type": "constructor"
    },
    {
      "anonymous": false,
      "inputs": [
        {
          "indexed": true,
          "name": "previousOwner",
          "type": "address"
        },
        {
          "indexed": true,
          "name": "newOwner",
          "type": "address"
        }
      ],
      "name": "OwnershipTransferred",
      "type": "event"
    }
  ],
  "bytecode": "6080604052600060055534801561001557600080fd5b5060008054600160a060020a03191633179055611891806100376000396000f3006080604052600436106102245763ffffffff7c0100000000000000000000000000000000000000000000000000000000600035041663097d901281146102295780630a786b0c1461025f5780630f2513581461027f5780631abdd3ce1461029f5780632209f472146102c157806327f089ab146102e15780632ac1011e146103015780632ce648f01461032e5780632fb9f11a1461034e5780633d7fe9731461037b5780633db2befc1461039057806344a022ff146103b05780635116eb02146103d057806367bb1fcf146103f05780636f3b60d6146104105780637658af081461042557806379e883d214610445578063820c632614610465578063823ddf63146104855780638cf53d97146104a55780638da5cb5b146104c5578063941ce21a146104da578063951e14b1146104fa57806395a0af751461051a57806397d6388d1461053a57806398df4fe51461055a5780639ec2db9c1461057a578063a7fa7a3b1461059a578063b12c52cf146105ba578063b27eeb16146105da578063b5c9cbbe146105fa578063b95300911461061a578063bf18e24e1461063a578063c07f47d414610667578063c0d1d3c71461067c578063c9ee7c9a1461069c578063cd4747ac146106bc578063d04c23af146106dc578063d09ef241146106fc578063d28eb96314610729578063d4a0ece614610749578063d4fac45d14610769578063e46cdff114610789578063f2fde38b146107bb578063fe597f9e146107db575b600080fd5b34801561023557600080fd5b50610249610244366004611411565b6107fb565b604051610256919061180e565b60405180910390f35b34801561026b57600080fd5b5061024961027a366004611498565b610828565b34801561028b57600080fd5b5061024961029a366004611498565b61083a565b3480156102ab57600080fd5b506102bf6102ba366004611630565b610850565b005b3480156102cd57600080fd5b506102bf6102dc366004611630565b610886565b3480156102ed57600080fd5b506102496102fc366004611536565b6108bc565b34801561030d57600080fd5b5061032161031c366004611498565b6108dc565b604051610256919061177c565b34801561033a57600080fd5b506102bf6103493660046114b6565b6108fa565b34801561035a57600080fd5b5061036e610369366004611498565b610942565b60405161025691906117e4565b34801561038757600080fd5b50610249610972565b34801561039c57600080fd5b506103216103ab366004611498565b610978565b3480156103bc57600080fd5b506102bf6103cb3660046114b6565b610996565b3480156103dc57600080fd5b506102bf6103eb366004611536565b6109db565b3480156103fc57600080fd5b5061024961040b366004611498565b610a07565b34801561041c57600080fd5b50610249610a1c565b34801561043157600080fd5b506102bf610440366004611505565b610a22565b34801561045157600080fd5b506102bf6104603660046114b6565b610afe565b34801561047157600080fd5b5061036e610480366004611536565b610b46565b34801561049157600080fd5b5061036e6104a0366004611536565b610b69565b3480156104b157600080fd5b506103216104c0366004611498565b610b91565b3480156104d157600080fd5b50610321610bac565b3480156104e657600080fd5b506102bf6104f5366004611630565b610bbb565b34801561050657600080fd5b506102bf6105153660046115ec565b610bf1565b34801561052657600080fd5b506102bf610535366004611566565b610c8f565b34801561054657600080fd5b506102bf6105553660046115a9565b610cde565b34801561056657600080fd5b50610321610575366004611498565b610d29565b34801561058657600080fd5b506102bf6105953660046115a9565b610d47565b3480156105a657600080fd5b506103216105b5366004611536565b610d8b565b3480156105c657600080fd5b506102bf6105d5366004611536565b610db1565b3480156105e657600080fd5b506102bf6105f53660046114b6565b610dda565b34801561060657600080fd5b5061036e61061536600461144b565b610e22565b34801561062657600080fd5b506102bf610635366004611498565b610e6c565b34801561064657600080fd5b5061065a610655366004611536565b610e88565b60405161025691906117f2565b34801561067357600080fd5b50610321610f04565b34801561068857600080fd5b506102bf610697366004611536565b610f13565b3480156106a857600080fd5b506102496106b7366004611498565b610f41565b3480156106c857600080fd5b506102496106d7366004611536565b610f53565b3480156106e857600080fd5b506102bf6106f736600461144b565b610f73565b34801561070857600080fd5b5061071c610717366004611498565b610fb6565b6040516102569190611800565b34801561073557600080fd5b506102bf6107443660046113eb565b61104a565b34801561075557600080fd5b506102bf6107643660046114d5565b611083565b34801561077557600080fd5b50610249610784366004611411565b6110ea565b34801561079557600080fd5b506107a96107a4366004611536565b611115565b6040516102569695949392919061178a565b3480156107c757600080fd5b506102bf6107d63660046113eb565b611166565b3480156107e757600080fd5b506102496107f6366004611536565b6111ed565b600160a060020a038083166000908152600360209081526040808320938516835292905220545b92915050565b60076020526000908152604090205481565b6000908152600460208190526040909120015490565b600154600160a060020a0316331461086757600080fd5b6000928352600660209081526040808520938552929052912060020155565b600154600160a060020a0316331461089d57600080fd5b6000928352600660209081526040808520938552929052912060010155565b600091825260066020908152604080842092845291905290206001015490565b600090815260046020526040902060020154600160a060020a031690565b600154600160a060020a0316331461091157600080fd5b6000918252600460205260409091206001018054600160a060020a031916600160a060020a03909216919091179055565b60009081526004602052604090206005015474010000000000000000000000000000000000000000900460ff1690565b60055490565b600090815260046020526040902060050154600160a060020a031690565b600154600160a060020a031633146109ad57600080fd5b6000918252600460205260409091208054600160a060020a031916600160a060020a03909216919091179055565b600154600160a060020a031633146109f257600080fd5b60009182526004602052604090912060030155565b60009081526004602052604090206003015490565b60055481565b600154600160a060020a03163314610a3957600080fd5b60009182526004602081815260409384902083518154600160a060020a0319908116600160a060020a039283161783559285015160018301805485169183169190911790559484015160028201805484169187169190911790556060840151600382015560808401519281019290925560a08301516005909201805460c09094015193909116919093161774ff000000000000000000000000000000000000000019167401000000000000000000000000000000000000000091151591909102179055565b600154600160a060020a03163314610b1557600080fd5b6000918252600460205260409091206002018054600160a060020a031916600160a060020a03909216919091179055565b600091825260066020908152604080842092845291905290206003015460ff1690565b6000918252600660209081526040808420928452919052902060030154610100900460ff1690565b600090815260046020526040902054600160a060020a031690565b600054600160a060020a031681565b600154600160a060020a03163314610bd257600080fd5b6000928352600660209081526040808520938552929052912060040155565b600154600160a060020a03163314610c0857600080fd5b60009283526006602090815260408085209385529281529282902081518154600160a060020a031916600160a060020a039091161781559281015160018401559081015160028301556060810151600383018054608084015160ff199091169215159290921761ff0019166101009215159290920291909117905560a00151600490910155565b600154600160a060020a03163314610ca657600080fd5b600092835260066020908152604080852093855292905291208054600160a060020a031916600160a060020a03909216919091179055565b600154600160a060020a03163314610cf557600080fd5b6000928352600660209081526040808520938552929052912060030180549115156101000261ff0019909216919091179055565b600090815260046020526040902060010154600160a060020a031690565b600154600160a060020a03163314610d5e57600080fd5b60009283526006602090815260408085209385529290529120600301805460ff1916911515919091179055565b6000918252600660209081526040808420928452919052902054600160a060020a031690565b600154600160a060020a03163314610dc857600080fd5b60009182526007602052604090912055565b600154600160a060020a03163314610df157600080fd5b6000918252600460205260409091206005018054600160a060020a031916600160a060020a03909216919091179055565b600154600090600160a060020a03163314610e3c57600080fd5b50600160a060020a0392831660009081526002602090815260408083209490951682529290925291902055600190565b600154600160a060020a03163314610e8357600080fd5b600555565b610e9061120d565b50600091825260066020908152604080842092845291815291819020815160c0810183528154600160a060020a03168152600182015493810193909352600281015491830191909152600381015460ff8082161515606085015261010090910416151560808301526004015460a082015290565b600154600160a060020a031681565b600154600160a060020a03163314610f2a57600080fd5b600091825260046020819052604090922090910155565b60009081526007602052604090205490565b600091825260066020908152604080842092845291905290206002015490565b600154600160a060020a03163314610f8a57600080fd5b600160a060020a0392831660009081526003602090815260408083209490951682529290925291902055565b610fbe611242565b50600090815260046020818152604092839020835160e0810185528154600160a060020a039081168252600183015481169382019390935260028201548316948101949094526003810154606085015291820154608084015260059091015490811660a083015274010000000000000000000000000000000000000000900460ff16151560c082015290565b600054600160a060020a0316331461106157600080fd5b60018054600160a060020a031916600160a060020a0392909216919091179055565b600154600160a060020a0316331461109a57600080fd5b6000918252600460205260409091206005018054911515740100000000000000000000000000000000000000000274ff000000000000000000000000000000000000000019909216919091179055565b600160a060020a03918216600090815260026020908152604080832093909416825291909152205490565b600660209081526000928352604080842090915290825290208054600182015460028301546003840154600490940154600160a060020a03909316939192909160ff80821692610100909204169086565b600054600160a060020a0316331461117d57600080fd5b600160a060020a038116151561119257600080fd5b60008054604051600160a060020a03808516939216917f8be0079c531659141344cd1fd0a4f28419497f9722a3daafe3b4186f6b6457e091a360008054600160a060020a031916600160a060020a0392909216919091179055565b600091825260066020908152604080842092845291905290206004015490565b6040805160c081018252600080825260208201819052918101829052606081018290526080810182905260a081019190915290565b6040805160e081018252600080825260208201819052918101829052606081018290526080810182905260a0810182905260c081019190915290565b600061128a8235611843565b9392505050565b600061128a823561184f565b600060c082840312156112af57600080fd5b6112b960c061181c565b905060006112c7848461127e565b82525060206112d8848483016113df565b60208301525060406112ec848285016113df565b604083015250606061130084828501611291565b606083015250608061131484828501611291565b60808301525060a0611328848285016113df565b60a08301525092915050565b600060e0828403121561134657600080fd5b61135060e061181c565b9050600061135e848461127e565b825250602061136f8484830161127e565b60208301525060406113838482850161127e565b6040830152506060611397848285016113df565b60608301525060806113ab848285016113df565b60808301525060a06113bf8482850161127e565b60a08301525060c06113d384828501611291565b60c08301525092915050565b600061128a8235611854565b6000602082840312156113fd57600080fd5b6000611409848461127e565b949350505050565b6000806040838503121561142457600080fd5b6000611430858561127e565b92505060206114418582860161127e565b9150509250929050565b60008060006060848603121561146057600080fd5b600061146c868661127e565b935050602061147d8682870161127e565b925050604061148e868287016113df565b9150509250925092565b6000602082840312156114aa57600080fd5b600061140984846113df565b600080604083850312156114c957600080fd5b600061143085856113df565b600080604083850312156114e857600080fd5b60006114f485856113df565b925050602061144185828601611291565b600080610100838503121561151957600080fd5b600061152585856113df565b925050602061144185828601611334565b6000806040838503121561154957600080fd5b600061155585856113df565b9250506020611441858286016113df565b60008060006060848603121561157b57600080fd5b600061158786866113df565b9350506020611598868287016113df565b925050604061148e8682870161127e565b6000806000606084860312156115be57600080fd5b60006115ca86866113df565b93505060206115db868287016113df565b925050604061148e86828701611291565b6000806000610100848603121561160257600080fd5b600061160e86866113df565b935050602061161f868287016113df565b925050604061148e8682870161129d565b60008060006060848603121561164557600080fd5b600061165186866113df565b935050602061147d868287016113df565b61166b81611843565b82525050565b61166b8161184f565b805160c083019061168b8482611662565b50602082015161169e6020850182611773565b5060408201516116b16040850182611773565b5060608201516116c46060850182611671565b5060808201516116d76080850182611671565b5060a08201516116ea60a0850182611773565b50505050565b805160e08301906117018482611662565b5060208201516117146020850182611662565b5060408201516117276040850182611662565b50606082015161173a6060850182611773565b50608082015161174d6080850182611773565b5060a082015161176060a0850182611662565b5060c08201516116ea60c0850182611671565b61166b81611854565b602081016108228284611662565b60c081016117988289611662565b6117a56020830188611773565b6117b26040830187611773565b6117bf6060830186611671565b6117cc6080830185611671565b6117d960a0830184611773565b979650505050505050565b602081016108228284611671565b60c08101610822828461167a565b60e0810161082282846116f0565b602081016108228284611773565b60405181810167ffffffffffffffff8111828210171561183b57600080fd5b604052919050565b600160a060020a031690565b151590565b905600a265627a7a72305820daaee5c25491a7bdd2a484f9ec2df08d7bc1764f71bdcb4166341cefc32f8ce96c6578706572696d656e74616cf50037",
  "bytecodeSha1": "64073a843baeeea64bf433d5948981f88608fd4c",
  "compiler": {
    "evm_version": "byzantium",
    "optimizer": {
      "enabled": true,
      "runs": 200
    },
    "version": "0.4.25"
  },
  "contractName": "OTCExchangeStorage",
  "language": "Solidity",
  "natspec": {
    "methods": {
      "getAgreement(uint256,uint256)": {
        "notice": "約定情報の参照",
        "params": {
          "_agreementId": "約定ID",
          "_orderId": "注文ID"
        },
        "return": "約定情報"
      },
      "getAgreementAmount(uint256,uint256)": {
        "notice": "約定情報の参照（約定数量）",
        "params": {
          "_agreementId": "約定ID",
          "_orderId": "注文ID"
        },
        "return": "約定数量"
      },
      "getAgreementCanceled(uint256,uint256)": {
        "notice": "約定情報の参照（キャンセル済み状態）",
        "params": {
          "_agreementId": "約定ID",
          "_orderId": "注文ID"
        },
        "return": "キャンセル済み状態"
      },
      "getAgreementCounterpart(uint256,uint256)": {
        "notice": "約定情報の参照（約定相手EOAアドレス）",
        "params": {
          "_agreementId": "約定ID",
          "_orderId": "注文ID"
        },
        "return": "約定相手EOAアドレス"
      },
      "getAgreementExpiry(uint256,uint256)": {
        "notice": "約定情報の参照（有効期限）",
        "params": {
          "_agreementId": "約定ID",
          "_orderId": "注文ID"
        },
        "return": "有効期限"
      },
      "getAgreementPaid(uint256,uint256)": {
        "notice": "約定情報の参照（支払済状態）",
        "params": {
          "_agreementId": "約定ID",
          "_orderId": "注文ID"
        },
        "return": "支払済状態"
      },
      "getAgreementPrice(uint256,uint256)": {
        "notice": "約定情報の参照（約定単価）",
        "params": {
          "_agreementId": "約定ID",
          "_orderId": "注文ID"
        },
        "return": "約定単価"
      },
      "getBalance(address,address)": {
        "notice": "残高数量の参照",
        "params": {
          "_account": "アドレス",
          "_token": "トークンアドレス"
        },
        "return": "残高数量"
      },
      "getCommitment(address,address)": {
        "notice": "拘束数量の参照",
        "params": {
          "_account": "アドレス",
          "_token": "トークンアドレス"
        },
        "return": "拘束数量"
      },
      "getLatestAgreementId(uint256)": {
        "notice": "直近約定IDの参照",
        "params": {
          "_orderId": "注文ID"
        },
        "return": "直近約定ID"
      },
      "getLatestOrderId()": {
        "notice": "直近注文IDの参照",
        "return": "直近注文ID"
      },
      "getOrder(uint256)": {
        "notice": "注文情報の参照",
        "params": {
          "_orderId": "注文ID"
        },
        "return": "注文情報"
      },
      "getOrderAgent(uint256)": {
        "notice": "注文情報の参照（決済業者のEOAアドレス）",
        "params": {
          "_orderId": "注文ID"
        },
        "return": "決済業者のEOAアドレス"
      },
      "getOrderAmount(uint256)": {
        "notice": "注文情報の参照（注文数量）",
        "params": {
          "_orderId": "注文ID"
        },
        "return": "注文数量"
      },
      "getOrderCanceled(uint256)": {
        "notice": "注文情報の参照（キャンセル済み状態）",
        "params": {
          "_orderId": "注文ID"
        },
        "return": "キャンセル済み状態"
      },
      "getOrderCounterpart(uint256)": {
        "notice": "注文情報の参照（買い手EOAアドレス）",
        "params": {
          "_orderId": "注文ID"
        },
        "return": "買い手EOAアドレス"
      },
      "getOrderOwner(uint256)": {
        "notice": "注文情報の参照（取引実行者EOAアドレス）",
        "params": {
          "_orderId": "注文ID"
        },
        "return": "取引実行者EOAアドレス"
      },
      "getOrderPrice(uint256)": {
        "notice": "注文情報の参照（注文単価）",
        "params": {
          "_orderId": "注文ID"
        },
        "return": "注文単価"
      },
      "getOrderToken(uint256)": {
        "notice": "注文情報の参照（トークンアドレス）",
        "params": {
          "_orderId": "注文ID"
        },
        "return": "トークンアドレス"
      },
      "setAgreement(uint256,uint256,(address,uint256,uint256,bool,bool,uint256))": {
        "details": "最新バージョンのExchangeコントラクトのみ実行が可能",
        "notice": "約定情報の更新",
        "params": {
          "_agreement": "約定情報",
          "_agreementId": "約定ID",
          "_orderId": "注文ID"
        }
      },
      "setAgreementAmount(uint256,uint256,uint256)": {
        "details": "最新バージョンのExchangeコントラクトのみ実行が可能",
        "notice": "約定情報の更新（約定数量）",
        "params": {
          "_agreementId": "約定ID",
          "_amount": "約定数量",
          "_orderId": "注文ID"
        }
      },
      "setAgreementCanceled(uint256,uint256,bool)": {
        "details": "最新バージョンのExchangeコントラクトのみ実行が可能",
        "notice": "約定情報の更新（キャンセル済み状態）",
        "params": {
          "_agreementId": "約定ID",
          "_canceled": "キャンセル済み状態",
          "_orderId": "注文ID"
        }
      },
      "setAgreementCounterpart(uint256,uint256,address)": {
        "details": "最新バージョンのExchangeコントラクトのみ実行が可能",
        "notice": "約定情報の更新（約定相手EOAアドレス）",
        "params": {
          "_agreementId": "約定ID",
          "_counterpart": "約定相手EOAアドレス",
          "_orderId": "注文ID"
        }
      },
      "setAgreementExpiry(uint256,uint256,uint256)": {
        "details": "最新バージョンのExchangeコントラクトのみ実行が可能",
        "notice": "約定情報の更新（有効期限）",
        "params": {
          "_agreementId": "約定ID",
          "_expiry": "有効期限",
          "_orderId": "注文ID"
        }
      },
      "setAgreementPaid(uint256,uint256,bool)": {
        "details": "最新バージョンのExchangeコントラクトのみ実行が可能",
        "notice": "約定情報の更新（支払済状態）",
        "params": {
          "_agreementId": "約定ID",
          "_orderId": "注文ID",
          "_paid": "支払済状態"
        }
      },
      "setAgreementPrice(uint256,uint256,uint256)": {
        "details": "最新バージョンのExchangeコントラクトのみ実行が可能",
        "notice": "約定情報の更新（約定単価）",
        "params": {
          "_agreementId": "約定ID",
          "_orderId": "注文ID",
          "_price": "約定単価"
        }
      },
      "setBalance(address,address,uint256)": {
        "details": "最新バージョンのExchangeコントラクトのみ実行が可能",
        "notice": "残高の更新",
        "params": {
          "_account": "アドレス",
          "_token": "トークンアドレス",
          "_value": "更新後の残高数量"
        },
        "return": "処理結果"
      },
      "setCommitment(address,address,uint256)": {
        "details": "最新バージョンのExchangeコントラクトのみ実行が可能",
        "notice": "拘束数量の更新",
        "params": {
          "_account": "アドレス",
          "_token": "トークンアドレス",
          "_value": "更新後の残高数量"
        }
      },
      "setLatestAgreementId(uint256,uint256)": {
        "details": "最新バージョンのExchangeコントラクトのみ実行が可能",
        "notice": "直近約定IDの更新",
        "params": {
          "_latestAgreementId": "直近約定ID",
          "_orderId": "注文ID"
        }
      },
      "setLatestOrderId(uint256)": {
        "details": "最新バージョンのExchangeコントラクトのみ実行が可能",
        "notice": "直近注文IDの更新",
        "params": {
          "_latestOrderId": "直近注文ID"
        }
      },
      "setOrder(uint256,(address,address,address,uint256,uint256,address,bool))": {
        "details": "最新バージョンのExchangeコントラクトのみ実行が可能",
        "notice": "注文情報の更新",
        "params": {
          "_order": "注文情報",
          "_orderId": "注文ID"
        }
      },
      "setOrderAgent(uint256,address)": {
        "details": "最新バージョンのExchangeコントラクトのみ実行が可能",
        "notice": "注文情報の更新（決済業者のEOAアドレス）",
        "params": {
          "_agent": "決済業者のEOAアドレス",
          "_orderId": "注文ID"
        }
      },
      "setOrderAmount(uint256,uint256)": {
        "details": "最新バージョンのExchangeコントラクトのみ実行が可能",
        "notice": "注文情報の更新（注文数量）",
        "params": {
          "_amount": "注文数量",
          "_orderId": "注文ID"
        }
      },
      "setOrderCanceled(uint256,bool)": {
        "details": "最新バージョンのExchangeコントラクトのみ実行が可能",
        "notice": "注文情報の更新（キャンセル済み状態）",
        "params": {
          "_canceled": "キャンセル済み状態",
          "_orderId": "注文ID"
        }
      },
      "setOrderCounterpart(uint256,address)": {
        "details": "最新バージョンのExchangeコントラクトのみ実行が可能",
        "notice": "注文情報の更新（買い手EOAアドレス）",
        "params": {
          "_counterpart": "買い手EOAアドレス",
          "_orderId": "注文ID"
        }
      },
      "setOrderOwner(uint256,address)": {
        "details": "最新バージョンのExchangeコントラクトのみ実行が可能",
        "notice": "注文情報の更新（取引実行者（売り手）EOAアドレス）",
        "params": {
          "_orderId": "注文ID",
          "_owner": "取引実行者（売り手）EOAアドレス"
        }
      },
      "setOrderPrice(uint256,uint256)": {
        "details": "最新バージョンのExchangeコントラクトのみ実行が可能",
        "notice": "注文情報の更新（注文単価）",
        "params": {
          "_orderId": "注文ID",
          "_price": "注文単価"
        }
      },
      "setOrderToken(uint256,address)": {
        "details": "最新バージョンのExchangeコントラクトのみ実行が可能",
        "notice": "注文情報の更新（トークンアドレス）",
        "params": {
          "_orderId": "注文ID",
          "_token": "トークンアドレス"
        }
      },
      "transferOwnership(address)": {
        "details": "オーナーのみ実行可能",
        "notice": "オーナー変更",
        "params": {
          "newOwner": "新しいオーナー"
        }
      },
      "upgradeVersion(address)": {
        "details": "コントラクトオーナーのみ実行が可能",
        "notice": "Exchangeコントラクトのバージョン更新",
        "params": {
          "_newVersion": "新しいExchangeコントラクトのアドレス"
        }
      }
    },
    "title": "Exchangeコントラクトの取引情報を永続化するためのEternalStorage"
  },
  "opcodes": "PUSH1 0x80 PUSH1 0x40 MSTORE PUSH1 0x4 CALLDATASIZE LT PUSH2 0x224 JUMPI PUSH4 0xFFFFFFFF PUSH29 0x100000000000000000000000000000000000000000000000000000000 PUSH1 0x0 CALLDATALOAD DIV AND PUSH4 0x97D9012 DUP2 EQ PUSH2 0x229 JUMPI DUP1 PUSH4 0xA786B0C EQ PUSH2 0x25F JUMPI DUP1 PUSH4 0xF251358 EQ PUSH2 0x27F JUMPI DUP1 PUSH4 0x1ABDD3CE EQ PUSH2 0x29F JUMPI DUP1 PUSH4 0x2209F472 EQ PUSH2 0x2C1 JUMPI DUP1 PUSH4 0x27F089AB EQ PUSH2 0x2E1 JUMPI DUP1 PUSH4 0x2AC1011E EQ PUSH2 0x301 JUMPI DUP1 PUSH4 0x2CE648F0 EQ PUSH2 0x32E JUMPI DUP1 PUSH4 0x2FB9F11A EQ PUSH2 0x34E JUMPI DUP1 PUSH4 0x3D7FE973 EQ PUSH2 0x37B JUMPI DUP1 PUSH4 0x3DB2BEFC EQ PUSH2 0x390 JUMPI DUP1 PUSH4 0x44A022FF EQ PUSH2 0x3B0 JUMPI DUP1 PUSH4 0x5116EB02 EQ PUSH2 0x3D0 JUMPI DUP1 PUSH4 0x67BB1FCF EQ PUSH2 0x3F0 JUMPI DUP1 PUSH4 0x6F3B60D6 EQ PUSH2 0x410 JUMPI DUP1 PUSH4 0x7658AF08 EQ PUSH2 0x425 JUMPI DUP1 PUSH4 0x79E883D2 EQ PUSH2 0x445 JUMPI DUP1 PUSH4 0x820C6326 EQ PUSH2 0x465 JUMPI DUP1 PUSH4 0x823DDF63 EQ PUSH2 0x485 JUMPI DUP1 PUSH4 0x8CF53D97 EQ PUSH2 0x4A5 JUMPI DUP1 PUSH4 0x8DA5CB5B EQ PUSH2 0x4C5 JUMPI DUP1 PUSH4 0x941CE21A EQ PUSH2 0x4DA JUMPI DUP1 PUSH4 0x951E14B1 EQ PUSH2 0x4FA JUMPI DUP1 PUSH4 0x95A0AF75 EQ PUSH2 0x51A JUMPI DUP1 PUSH4 0x97D6388D EQ PUSH2 0x53A JUMPI DUP1 PUSH4 0x98DF4FE5 EQ PUSH2 0x55A JUMPI DUP1 PUSH4 0x9EC2DB9C EQ PUSH2 0x57A JUMPI DUP1 PUSH4 0xA7FA7A3B EQ PUSH2 0x59A JUMPI DUP1 PUSH4 0xB12C52CF EQ PUSH2 0x5BA JUMPI DUP1 PUSH4 0xB27EEB16 EQ PUSH2 0x5DA JUMPI DUP1 PUSH4 0xB5C9CBBE EQ PUSH2 0x5FA JUMPI DUP1 PUSH4 0xB9530091 EQ PUSH2 0x61A JUMPI DUP1 PUSH4 0xBF18E24E EQ PUSH2 0x63A JUMPI DUP1 PUSH4 0xC07F47D4 EQ PUSH2 0x667 JUMPI DUP1 PUSH4 0xC0D1D3C7 EQ PUSH2 0x67C JUMPI DUP1 PUSH4 0xC9EE7C9A EQ PUSH2 0x69C JUMPI DUP1 PUSH4 0xCD4747AC EQ PUSH2 0x6BC JUMPI DUP1 PUSH4 0xD04C23AF EQ PUSH2 0x6DC JUMPI DUP1 PUSH4 0xD09EF241 EQ PUSH2 0x6FC JUMPI DUP1 PUSH4 0xD28EB963 EQ PUSH2 0x729 JUMPI DUP1 PUSH4 0xD4A0ECE6 EQ PUSH2 0x749 JUMPI DUP1 PUSH4 0xD4FAC45D EQ PUSH2 0x769 JUMPI DUP1 PUSH4 0xE46CDFF1 EQ PUSH2 0x789 JUMPI DUP1 PUSH4 0xF2FDE38B EQ PUSH2 0x7BB JUMPI DUP1 PUSH4 0xFE597F9E EQ PUSH2 0x7DB JUMPI JUMPDEST PUSH1 0x0 DUP1 REVERT JUMPDEST CALLVALUE DUP1 ISZERO PUSH2 0x235 JUMPI PUSH1 0x0 DUP1 REVERT JUMPDEST POP PUSH2 0x249 PUSH2 0x244 CALLDATASIZE PUSH1 0x4 PUSH2 0x1411 JUMP JUMPDEST PUSH2 0x7FB JUMP JUMPDEST PUSH1 0x40 MLOAD PUSH2 0x256 SWAP2 SWAP1 PUSH2 0x180E JUMP JUMPDEST PUSH1 0x40 MLOAD DUP1 SWAP2 SUB SWAP1 RETURN JUMPDEST CALLVALUE DUP1 ISZERO PUSH2 0x26B JUMPI PUSH1 0x0 DUP1 REVERT JUMPDEST POP PUSH2 0x249 PUSH2 0x27A CALLDATASIZE PUSH1 0x4 PUSH2 0x1498 JUMP JUMPDEST PUSH2 0x828 JUMP JUMPDEST CALLVALUE DUP1 ISZERO PUSH2 0x28B JUMPI PUSH1 0x0 DUP1 REVERT JUMPDEST POP PUSH2 0x249 PUSH2 0x29A CALLDATASIZE PUSH1 0x4 PUSH2 0x1498 JUMP JUMPDEST PUSH2 0x83A JUMP JUMPDEST CALLVALUE DUP1 ISZERO PUSH2 0x2AB JUMPI PUSH1 0x0 DUP1 REVERT JUMPDEST POP PUSH2 0x2BF PUSH2 0x2BA CALLDATASIZE PUSH1 0x4 PUSH2 0x1630 JUMP JUMPDEST PUSH2 0x850 JUMP JUMPDEST STOP JUMPDEST CALLVALUE DUP1 ISZERO PUSH2 0x2CD JUMPI PUSH1 0x0 DUP1 REVERT JUMPDEST POP PUSH2 0x2BF PUSH2 0x2DC CALLDATASIZE PUSH1 0x4 PUSH2 0x1630 JUMP JUMPDEST PUSH2 0x886 JUMP JUMPDEST CALLVALUE DUP1 ISZERO PUSH2 0x2ED JUMPI PUSH1 0x0 DUP1 REVERT JUMPDEST POP PUSH2 0x249 PUSH2 0x2FC CALLDATASIZE PUSH1 0x4 PUSH2 0x1536 JUMP JUMPDEST PUSH2 0x8BC JUMP JUMPDEST CALLVALUE DUP1 ISZERO PUSH2 0x30D JUMPI PUSH1 0x0 DUP1 REVERT JUMPDEST POP PUSH2 0x321 PUSH2 0x31C CALLDATASIZE PUSH1 0x4 PUSH2 0x1498 JUMP JUMPDEST PUSH2 0x8DC JUMP JUMPDEST PUSH1 0x40 MLOAD PUSH2 0x256 SWAP2 SWAP1 PUSH2 0x177C JUMP JUMPDEST CALLVALUE DUP1 ISZERO PUSH2 0x33A JUMPI PUSH1 0x0 DUP1 REVERT JUMPDEST POP PUSH2 0x2BF PUSH2 0x349 CALLDATASIZE PUSH1 0x4 PUSH2 0x14B6 JUMP JUMPDEST PUSH2 0x8FA JUMP JUMPDEST CALLVALUE DUP1 ISZERO PUSH2 0x35A JUMPI PUSH1 0x0 DUP1 REVERT JUMPDEST POP PUSH2 0x36E PUSH2 0x369 CALLDATASIZE PUSH1 0x4 PUSH2 0x1498 JUMP JUMPDEST PUSH2 0x942 JUMP JUMPDEST PUSH1 0x40 MLOAD PUSH2 0x256 SWAP2 SWAP1 PUSH2 0x17E4 JUMP JUMPDEST CALLVALUE DUP1 ISZERO PUSH2 0x387 JUMPI PUSH1 0x0 DUP1 REVERT JUMPDEST POP PUSH2 0x249 PUSH2 0x972 JUMP JUMPDEST CALLVALUE DUP1 ISZERO PUSH2 0x39C JUMPI PUSH1 0x0 DUP1 REVERT JUMPDEST POP PUSH2 0x321 PUSH2 0x3AB CALLDATASIZE PUSH1 0x4 PUSH2 0x1498 JUMP JUMPDEST PUSH2 0x978 JUMP JUMPDEST CALLVALUE DUP1 ISZERO PUSH2 0x3BC JUMPI PUSH1 0x0 DUP1 REVERT JUMPDEST POP PUSH2 0x2BF PUSH2 0x3CB CALLDATASIZE PUSH1 0x4 PUSH2 0x14B6 JUMP JUMPDEST PUSH2 0x996 JUMP JUMPDEST CALLVALUE DUP1 ISZERO PUSH2 0x3DC JUMPI PUSH1 0x0 DUP1 REVERT JUMPDEST POP PUSH2 0x2BF PUSH2 0x3EB CALLDATASIZE PUSH1 0x4 PUSH2 0x1536 JUMP JUMPDEST PUSH2 0x9DB JUMP JUMPDEST CALLVALUE DUP1 ISZERO PUSH2 0x3FC JUMPI PUSH1 0x0 DUP1 REVERT JUMPDEST POP PUSH2 0x249 PUSH2 0x40B CALLDATASIZE PUSH1 0x4 PUSH2 0x1498 JUMP JUMPDEST PUSH2 0xA07 JUMP JUMPDEST CALLVALUE DUP1 ISZERO PUSH2 0x41C JUMPI PUSH1 0x0 DUP1 REVERT JUMPDEST POP PUSH2 0x249 PUSH2 0xA1C JUMP JUMPDEST CALLVALUE DUP1 ISZERO PUSH2 0x431 JUMPI PUSH1 0x0 DUP1 REVERT JUMPDEST POP PUSH2 0x2BF PUSH2 0x440 CALLDATASIZE PUSH1 0x4 PUSH2 0x1505 JUMP JUMPDEST PUSH2 0xA22 JUMP JUMPDEST CALLVALUE DUP1 ISZERO PUSH2 0x451 JUMPI PUSH1 0x0 DUP1 REVERT JUMPDEST POP PUSH2 0x2BF PUSH2 0x460 CALLDATASIZE PUSH1 0x4 PUSH2 0x14B6 JUMP JUMPDEST PUSH2 0xAFE JUMP JUMPDEST CALLVALUE DUP1 ISZERO PUSH2 0x471 JUMPI PUSH1 0x0 DUP1 REVERT JUMPDEST POP PUSH2 0x36E PUSH2 0x480 CALLDATASIZE PUSH1 0x4 PUSH2 0x1536 JUMP JUMPDEST PUSH2 0xB46 JUMP JUMPDEST CALLVALUE DUP1 ISZERO PUSH2 0x491 JUMPI PUSH1 0x0 DUP1 REVERT JUMPDEST POP PUSH2 0x36E PUSH2 0x4A0 CALLDATASIZE PUSH1 0x4 PUSH2 0x1536 JUMP JUMPDEST PUSH2 0xB69 JUMP JUMPDEST CALLVALUE DUP1 ISZERO PUSH2 0x4B1 JUMPI PUSH1 0x0 DUP1 REVERT JUMPDEST POP PUSH2 0x321 PUSH2 0x4C0 CALLDATASIZE PUSH1 0x4 PUSH2 0x1498 JUMP JUMPDEST PUSH2 0xB91 JUMP JUMPDEST CALLVALUE DUP1 ISZERO PUSH2 0x4D1 JUMPI PUSH1 0x0 DUP1 REVERT JUMPDEST POP PUSH2 0x321 PUSH2 0xBAC JUMP JUMPDEST CALLVALUE DUP1 ISZERO PUSH2 0x4E6 JUMPI PUSH1 0x0 DUP1 REVERT JUMPDEST POP PUSH2 0x2BF PUSH2 0x4F5 CALLDATASIZE PUSH1 0x4 PUSH2 0x1630 JUMP JUMPDEST PUSH2 0xBBB JUMP JUMPDEST CALLVALUE DUP1 ISZERO PUSH2 0x506 JUMPI PUSH1 0x0 DUP1 REVERT JUMPDEST POP PUSH2 0x2BF PUSH2 0x515 CALLDATASIZE PUSH1 0x4 PUSH2 0x15EC JUMP JUMPDEST PUSH2 0xBF1 JUMP JUMPDEST CALLVALUE DUP1 ISZERO PUSH2 0x526 JUMPI PUSH1 0x0 DUP1 REVERT JUMPDEST POP PUSH2 0x2BF PUSH2 0x535 CALLDATASIZE PUSH1 0x4 PUSH2 0x1566 JUMP JUMPDEST PUSH2 0xC8F JUMP JUMPDEST CALLVALUE DUP1 ISZERO PUSH2 0x546 JUMPI PUSH1 0x0 DUP1 REVERT JUMPDEST POP PUSH2 0x2BF PUSH2 0x555 CALLDATASIZE PUSH1 0x4 PUSH2 0x15A9 JUMP JUMPDEST PUSH2 0xCDE JUMP JUMPDEST CALLVALUE DUP1 ISZERO PUSH2 0x566 JUMPI PUSH1 0x0 DUP1 REVERT JUMPDEST POP PUSH2 0x321 PUSH2 0x575 CALLDATASIZE PUSH1 0x4 PUSH2 0x1498 JUMP JUMPDEST PUSH2 0xD29 JUMP JUMPDEST CALLVALUE DUP1 ISZERO PUSH2 0x586 JUMPI PUSH1 0x0 DUP1 REVERT JUMPDEST POP PUSH2 0x2BF PUSH2 0x595 CALLDATASIZE PUSH1 0x4 PUSH2 0x15A9 JUMP JUMPDEST PUSH2 0xD47 JUMP JUMPDEST CALLVALUE DUP1 ISZERO PUSH2 0x5A6 JUMPI PUSH1 0x0 DUP1 REVERT JUMPDEST POP PUSH2 0x321 PUSH2 0x5B5 CALLDATASIZE PUSH1 0x4 PUSH2 0x1536 JUMP JUMPDEST PUSH2 0xD8B JUMP JUMPDEST CALLVALUE DUP1 ISZERO PUSH2 0x5C6 JUMPI PUSH1 0x0 DUP1 REVERT JUMPDEST POP PUSH2 0x2BF PUSH2 0x5D5 CALLDATASIZE PUSH1 0x4 PUSH2 0x1536 JUMP JUMPDEST PUSH2 0xDB1 JUMP JUMPDEST CALLVALUE DUP1 ISZERO PUSH2 0x5E6 JUMPI PUSH1 0x0 DUP1 REVERT JUMPDEST POP PUSH2 0x2BF PUSH2 0x5F5 CALLDATASIZE PUSH1 0x4 PUSH2 0x14B6 JUMP JUMPDEST PUSH2 0xDDA JUMP JUMPDEST CALLVALUE DUP1 ISZERO PUSH2 0x606 JUMPI PUSH1 0x0 DUP1 REVERT JUMPDEST POP PUSH2 0x36E PUSH2 0x615 CALLDATASIZE PUSH1 0x4 PUSH2 0x144B JUMP JUMPDEST PUSH2 0xE22 JUMP JUMPDEST CALLVALUE DUP1 ISZERO PUSH2 0x626 JUMPI PUSH1 0x0 DUP1 REVERT JUMPDEST POP PUSH2 0x2BF PUSH2 0x635 CALLDATASIZE PUSH1 0x4 PUSH2 0x1498 JUMP JUMPDEST PUSH2 0xE6C JUMP JUMPDEST CALLVALUE DUP1 ISZERO PUSH2 0x646 JUMPI PUSH1 0x0 DUP1 REVERT JUMPDEST POP PUSH2 0x65A PUSH2 0x655 CALLDATASIZE PUSH1 0x4 PUSH2 0x1536 JUMP JUMPDEST PUSH2 0xE88 JUMP JUMPDEST PUSH1 0x40 MLOAD PUSH2 0x256 SWAP2 SWAP1 PUSH2 0x17F2 JUMP JUMPDEST CALLVALUE DUP1 ISZERO PUSH2 0x673 JUMPI PUSH1 0x0 DUP1 REVERT JUMPDEST POP PUSH2 0x321 PUSH2 0xF04 JUMP JUMPDEST CALLVALUE DUP1 ISZERO PUSH2 0x688 JUMPI PUSH1 0x0 DUP1 REVERT JUMPDEST POP PUSH2 0x2BF PUSH2 0x697 CALLDATASIZE PUSH1 0x4 PUSH2 0x1536 JUMP JUMPDEST PUSH2 0xF13 JUMP JUMPDEST CALLVALUE DUP1 ISZERO PUSH2 0x6A8 JUMPI PUSH1 0x0 DUP1 REVERT JUMPDEST POP PUSH2 0x249 PUSH2 0x6B7 CALLDATASIZE PUSH1 0x4 PUSH2 0x1498 JUMP JUMPDEST PUSH2 0xF41 JUMP JUMPDEST CALLVALUE DUP1 ISZERO PUSH2 0x6C8 JUMPI PUSH1 0x0 DUP1 REVERT JUMPDEST POP PUSH2 0x249 PUSH2 0x6D7 CALLDATASIZE PUSH1 0x4 PUSH2 0x1536 JUMP JUMPDEST PUSH2 0xF53 JUMP JUMPDEST CALLVALUE DUP1 ISZERO PUSH2 0x6E8 JUMPI PUSH1 0x0 DUP1 REVERT JUMPDEST POP PUSH2 0x2BF PUSH2 0x6F7 CALLDATASIZE PUSH1 0x4 PUSH2 0x144B JUMP JUMPDEST PUSH2 0xF73 JUMP JUMPDEST CALLVALUE DUP1 ISZERO PUSH2 0x708 JUMPI PUSH1 0x0 DUP1 REVERT JUMPDEST POP PUSH2 0x71C PUSH2 0x717 CALLDATASIZE PUSH1 0x4 PUSH2 0x1498 JUMP JUMPDEST PUSH2 0xFB6 JUMP JUMPDEST PUSH1 0x40 MLOAD PUSH2 0x256 SWAP2 SWAP1 PUSH2 0x1800 JUMP JUMPDEST CALLVALUE DUP1 ISZERO PUSH2 0x735 JUMPI PUSH1 0x0 DUP1 REVERT JUMPDEST POP PUSH2 0x2BF PUSH2 0x744 CALLDATASIZE PUSH1 0x4 PUSH2 0x13EB JUMP JUMPDEST PUSH2 0x104A JUMP JUMPDEST CALLVALUE DUP1 ISZERO PUSH2 0x755 JUMPI PUSH1 0x0 DUP1 REVERT JUMPDEST POP PUSH2 0x2BF PUSH2 0x764 CALLDATASIZE PUSH1 0x4 PUSH2 0x14D5 JUMP JUMPDEST PUSH2 0x1083 JUMP JUMPDEST CALLVALUE DUP1 ISZERO PUSH2 0x775 JUMPI PUSH1 0x0 DUP1 REVERT JUMPDEST POP PUSH2 0x249 PUSH2 0x784 CALLDATASIZE PUSH1 0x4 PUSH2 0x1411 JUMP JUMPDEST PUSH2 0x10EA JUMP JUMPDEST CALLVALUE DUP1 ISZERO PUSH2 0x795 JUMPI PUSH1 0x0 DUP1 REVERT JUMPDEST POP PUSH2 0x7A9 PUSH2 0x7A4 CALLDATASIZE PUSH1 0x4 PUSH2 0x1536 JUMP JUMPDEST PUSH2 0x1115 JUMP JUMPDEST PUSH1 0x40 MLOAD PUSH2 0x256 SWAP7 SWAP6 SWAP5 SWAP4 SWAP3 SWAP2 SWAP1 PUSH2 0x178A JUMP JUMPDEST CALLVALUE DUP1 ISZERO PUSH2 0x7C7 JUMPI PUSH1 0x0 DUP1 REVERT JUMPDEST POP PUSH2 0x2BF PUSH2 0x7D6 CALLDATASIZE PUSH1 0x4 PUSH2 0x13EB JUMP JUMPDEST PUSH2 0x1166 JUMP JUMPDEST CALLVALUE DUP1 ISZERO PUSH2 0x7E7 JUMPI PUSH1 0x0 DUP1 REVERT JUMPDEST POP PUSH2 0x249 PUSH2 0x7F6 CALLDATASIZE PUSH1 0x4 PUSH2 0x1536 JUMP JUMPDEST PUSH2 0x11ED JUMP JUMPDEST PUSH1 0x1 PUSH1 0xA0 PUSH1 0x2 EXP SUB DUP1 DUP4 AND PUSH1 0x0 SWAP1 DUP2 MSTORE PUSH1 0x3 PUSH1 0x20 SWAP1 DUP2 MSTORE PUSH1 0x40 DUP1 DUP4 KECCAK256 SWAP4 DUP6 AND DUP4 MSTORE SWAP3 SWAP1 MSTORE KECCAK256 SLOAD JUMPDEST SWAP3 SWAP2 POP POP JUMP JUMPDEST PUSH1 0x7 PUSH1 0x20 MSTORE PUSH1 0x0 SWAP1 DUP2 MSTORE PUSH1 0x40 SWAP1 KECCAK256 SLOAD DUP2 JUMP JUMPDEST PUSH1 0x0 SWAP1 DUP2 MSTORE PUSH1 0x4 PUSH1 0x20 DUP2 SWAP1 MSTORE PUSH1 0x40 SWAP1 SWAP2 KECCAK256 ADD SLOAD SWAP1 JUMP JUMPDEST PUSH1 0x1 SLOAD PUSH1 0x1 PUSH1 0xA0 PUSH1 0x2 EXP SUB AND CALLER EQ PUSH2 0x867 JUMPI PUSH1 0x0 DUP1 REVERT JUMPDEST PUSH1 0x0 SWAP3 DUP4 MSTORE PUSH1 0x6 PUSH1 0x20 SWAP1 DUP2 MSTORE PUSH1 0x40 DUP1 DUP6 KECCAK256 SWAP4 DUP6 MSTORE SWAP3 SWAP1 MSTORE SWAP2 KECCAK256 PUSH1 0x2 ADD SSTORE JUMP JUMPDEST PUSH1 0x1 SLOAD PUSH1 0x1 PUSH1 0xA0 PUSH1 0x2 EXP SUB AND CALLER EQ PUSH2 0x89D JUMPI PUSH1 0x0 DUP1 REVERT JUMPDEST PUSH1 0x0 SWAP3 DUP4 MSTORE PUSH1 0x6 PUSH1 0x20 SWAP1 DUP2 MSTORE PUSH1 0x40 DUP1 DUP6 KECCAK256 SWAP4 DUP6 MSTORE SWAP3 SWAP1 MSTORE SWAP2 KECCAK256 PUSH1 0x1 ADD SSTORE JUMP JUMPDEST PUSH1 0x0 SWAP2 DUP3 MSTORE PUSH1 0x6 PUSH1 0x20 SWAP1 DUP2 MSTORE PUSH1 0x40 DUP1 DUP5 KECCAK256 SWAP3 DUP5 MSTORE SWAP2 SWAP1 MSTORE SWAP1 KECCAK256 PUSH1 0x1 ADD SLOAD SWAP1 JUMP JUMPDEST PUSH1 0x0 SWAP1 DUP2 MSTORE PUSH1 0x4 PUSH1 0x20 MSTORE PUSH1 0x40 SWAP1 KECCAK256 PUSH1 0x2 ADD SLOAD PUSH1 0x1 PUSH1 0xA0 PUSH1 0x2 EXP SUB AND SWAP1 JUMP JUMPDEST PUSH1 0x1 SLOAD PUSH1 0x1 PUSH1 0xA0 PUSH1 0x2 EXP SUB AND CALLER EQ PUSH2 0x911 JUMPI PUSH1 0x0 DUP1 REVERT JUMPDEST PUSH1 0x0 SWAP2 DUP3 MSTORE PUSH1 0x4 PUSH1 0x20 MSTORE PUSH1 0x40 SWAP1 SWAP2 KECCAK256 PUSH1 0x1 ADD DUP1 SLOAD PUSH1 0x1 PUSH1 0xA0 PUSH1 0x2 EXP SUB NOT AND PUSH1 0x1 PUSH1 0xA0 PUSH1 0x2 EXP SUB SWAP1 SWAP3 AND SWAP2 SWAP1 SWAP2 OR SWAP1 SSTORE JUMP JUMPDEST PUSH1 0x0 SWAP1 DUP2 MSTORE PUSH1 0x4 PUSH1 0x20 MSTORE PUSH1 0x40 SWAP1 KECCAK256 PUSH1 0x5 ADD SLOAD PUSH21 0x10000000000000000000000000000000000000000 SWAP1 DIV PUSH1 0xFF AND SWAP1 JUMP JUMPDEST PUSH1 0x5 SLOAD SWAP1 JUMP JUMPDEST PUSH1 0x0 SWAP1 DUP2 MSTORE PUSH1 0x4 PUSH1 0x20 MSTORE PUSH1 0x40 SWAP1 KECCAK256 PUSH1 0x5 ADD SLOAD PUSH1 0x1 PUSH1 0xA0 PUSH1 0x2 EXP SUB AND SWAP1 JUMP JUMPDEST PUSH1 0x1 SLOAD PUSH1 0x1 PUSH1 0xA0 PUSH1 0x2 EXP SUB AND CALLER EQ PUSH2 0x9AD JUMPI PUSH1 0x0 DUP1 REVERT JUMPDEST PUSH1 0x0 SWAP2 DUP3 MSTORE PUSH1 0x4 PUSH1 0x20 MSTORE PUSH1 0x40 SWAP1 SWAP2 KECCAK256 DUP1 SLOAD PUSH1 0x1 PUSH1 0xA0 PUSH1 0x2 EXP SUB NOT AND PUSH1 0x1 PUSH1 0xA0 PUSH1 0x2 EXP SUB SWAP1 SWAP3 AND SWAP2 SWAP1 SWAP2 OR SWAP1 SSTORE JUMP JUMPDEST PUSH1 0x1 SLOAD PUSH1 0x1 PUSH1 0xA0 PUSH1 0x2 EXP SUB AND CALLER EQ PUSH2 0x9F2 JUMPI PUSH1 0x0 DUP1 REVERT JUMPDEST PUSH1 0x0 SWAP2 DUP3 MSTORE PUSH1 0x4 PUSH1 0x20 MSTORE PUSH1 0x40 SWAP1 SWAP2 KECCAK256 PUSH1 0x3 ADD SSTORE JUMP JUMPDEST PUSH1 0x0 SWAP1 DUP2 MSTORE PUSH1 0x4 PUSH1 0x20 MSTORE PUSH1 0x40 SWAP1 KECCAK256 PUSH1 0x3 ADD SLOAD SWAP1 JUMP JUMPDEST PUSH1 0x5 SLOAD DUP2 JUMP JUMPDEST PUSH1 0x1 SLOAD PUSH1 0x1 PUSH1 0xA0 PUSH1 0x2 EXP SUB AND CALLER EQ PUSH2 0xA39 JUMPI PUSH1 0x0 DUP1 REVERT JUMPDEST PUSH1 0x0 SWAP2 DUP3 MSTORE PUSH1 0x4 PUSH1 0x20 DUP2 DUP2 MSTORE PUSH1 0x40 SWAP4 DUP5 SWAP1 KECCAK256 DUP4 MLOAD DUP2 SLOAD PUSH1 0x1 PUSH1 0xA0 PUSH1 0x2 EXP SUB NOT SWAP1 DUP2 AND PUSH1 0x1 PUSH1 0xA0 PUSH1 0x2 EXP SUB SWAP3 DUP4 AND OR DUP4 SSTORE SWAP3 DUP6 ADD MLOAD PUSH1 0x1 DUP4 ADD DUP1 SLOAD DUP6 AND SWAP2 DUP4 AND SWAP2 SWAP1 SWAP2 OR SWAP1 SSTORE SWAP5 DUP5 ADD MLOAD PUSH1 0x2 DUP3 ADD DUP1 SLOAD DUP5 AND SWAP2 DUP8 AND SWAP2 SWAP1 SWAP2 OR SWAP1 SSTORE PUSH1 0x60 DUP5 ADD MLOAD PUSH1 0x3 DUP3 ADD SSTORE PUSH1 0x80 DUP5 ADD MLOAD SWAP3 DUP2 ADD SWAP3 SWAP1 SWAP3 SSTORE PUSH1 0xA0 DUP4 ADD MLOAD PUSH1 0x5 SWAP1 SWAP3 ADD DUP1 SLOAD PUSH1 0xC0 SWAP1 SWAP5 ADD MLOAD SWAP4 SWAP1 SWAP2 AND SWAP2 SWAP1 SWAP4 AND OR PUSH21 0xFF0000000000000000000000000000000000000000 NOT AND PUSH21 0x10000000000000000000000000000000000000000 SWAP2 ISZERO ISZERO SWAP2 SWAP1 SWAP2 MUL OR SWAP1 SSTORE JUMP JUMPDEST PUSH1 0x1 SLOAD PUSH1 0x1 PUSH1 0xA0 PUSH1 0x2 EXP SUB AND CALLER EQ PUSH2 0xB15 JUMPI PUSH1 0x0 DUP1 REVERT JUMPDEST PUSH1 0x0 SWAP2 DUP3 MSTORE PUSH1 0x4 PUSH1 0x20 MSTORE PUSH1 0x40 SWAP1 SWAP2 KECCAK256 PUSH1 0x2 ADD DUP1 SLOAD PUSH1 0x1 PUSH1 0xA0 PUSH1 0x2 EXP SUB NOT AND PUSH1 0x1 PUSH1 0xA0 PUSH1 0x2 EXP SUB SWAP1 SWAP3 AND SWAP2 SWAP1 SWAP2 OR SWAP1 SSTORE JUMP JUMPDEST PUSH1 0x0 SWAP2 DUP3 MSTORE PUSH1 0x6 PUSH1 0x20 SWAP1 DUP2 MSTORE PUSH1 0x40 DUP1 DUP5 KECCAK256 SWAP3 DUP5 MSTORE SWAP2 SWAP1 MSTORE SWAP1 KECCAK256 PUSH1 0x3 ADD SLOAD PUSH1 0xFF AND SWAP1 JUMP JUMPDEST PUSH1 0x0 SWAP2 DUP3 MSTORE PUSH1 0x6 PUSH1 0x20 SWAP1 DUP2 MSTORE PUSH1 0x40 DUP1 DUP5 KECCAK256 SWAP3 DUP5 MSTORE SWAP2 SWAP1 MSTORE SWAP1 KECCAK256 PUSH1 0x3 ADD SLOAD PUSH2 0x100 SWAP1 DIV PUSH1 0xFF AND SWAP1 JUMP JUMPDEST PUSH1 0x0 SWAP1 DUP2 MSTORE PUSH1 0x4 PUSH1 0x20 MSTORE PUSH1 0x40 SWAP1 KECCAK256 SLOAD PUSH1 0x1 PUSH1 0xA0 PUSH1 0x2 EXP SUB AND SWAP1 JUMP JUMPDEST PUSH1 0x0 SLOAD PUSH1 0x1 PUSH1 0xA0 PUSH1 0x2 EXP SUB AND DUP2 JUMP JUMPDEST PUSH1 0x1 SLOAD PUSH1 0x1 PUSH1 0xA0 PUSH1 0x2 EXP SUB AND CALLER EQ PUSH2 0xBD2 JUMPI PUSH1 0x0 DUP1 REVERT JUMPDEST PUSH1 0x0 SWAP3 DUP4 MSTORE PUSH1 0x6 PUSH1 0x20 SWAP1 DUP2 MSTORE PUSH1 0x40 DUP1 DUP6 KECCAK256 SWAP4 DUP6 MSTORE SWAP3 SWAP1 MSTORE SWAP2 KECCAK256 PUSH1 0x4 ADD SSTORE JUMP JUMPDEST PUSH1 0x1 SLOAD PUSH1 0x1 PUSH1 0xA0 PUSH1 0x2 EXP SUB AND CALLER EQ PUSH2 0xC08 JUMPI PUSH1 0x0 DUP1 REVERT JUMPDEST PUSH1 0x0 SWAP3 DUP4 MSTORE PUSH1 0x6 PUSH1 0x20 SWAP1 DUP2 MSTORE PUSH1 0x40 DUP1 DUP6 KECCAK256 SWAP4 DUP6 MSTORE SWAP3 DUP2 MSTORE SWAP3 DUP3 SWAP1 KECCAK256 DUP2 MLOAD DUP2 SLOAD PUSH1 0x1 PUSH1 0xA0 PUSH1 0x2 EXP SUB NOT AND PUSH1 0x1 PUSH1 0xA0 PUSH1 0x2 EXP SUB SWAP1 SWAP2 AND OR DUP2 SSTORE SWAP3 DUP2 ADD MLOAD PUSH1 0x1 DUP5 ADD SSTORE SWAP1 DUP2 ADD MLOAD PUSH1 0x2 DUP4 ADD SSTORE PUSH1 0x60 DUP2 ADD MLOAD PUSH1 0x3 DUP4 ADD DUP1 SLOAD PUSH1 0x80 DUP5 ADD MLOAD PUSH1 0xFF NOT SWAP1 SWAP2 AND SWAP3 ISZERO ISZERO SWAP3 SWAP1 SWAP3 OR PUSH2 0xFF00 NOT AND PUSH2 0x100 SWAP3 ISZERO ISZERO SWAP3 SWAP1 SWAP3 MUL SWAP2 SWAP1 SWAP2 OR SWAP1 SSTORE PUSH1 0xA0 ADD MLOAD PUSH1 0x4 SWAP1 SWAP2 ADD SSTORE JUMP JUMPDEST PUSH1 0x1 SLOAD PUSH1 0x1 PUSH1 0xA0 PUSH1 0x2 EXP SUB AND CALLER EQ PUSH2 0xCA6 JUMPI PUSH1 0x0 DUP1 REVERT JUMPDEST PUSH1 0x0 SWAP3 DUP4 MSTORE PUSH1 0x6 PUSH1 0x20 SWAP1 DUP2 MSTORE PUSH1 0x40 DUP1 DUP6 KECCAK256 SWAP4 DUP6 MSTORE SWAP3 SWAP1 MSTORE SWAP2 KECCAK256 DUP1 SLOAD PUSH1 0x1 PUSH1 0xA0 PUSH1 0x2 EXP SUB NOT AND PUSH1 0x1 PUSH1 0xA0 PUSH1 0x2 EXP SUB SWAP1 SWAP3 AND SWAP2 SWAP1 SWAP2 OR SWAP1 SSTORE JUMP JUMPDEST PUSH1 0x1 SLOAD PUSH1 0x1 PUSH1 0xA0 PUSH1 0x2 EXP SUB AND CALLER EQ PUSH2 0xCF5 JUMPI PUSH1 0x0 DUP1 REVERT JUMPDEST PUSH1 0x0 SWAP3 DUP4 MSTORE PUSH1 0x6 PUSH1 0x20 SWAP1 DUP2 MSTORE PUSH1 0x40 DUP1 DUP6 KECCAK256 SWAP4 DUP6 MSTORE SWAP3 SWAP1 MSTORE SWAP2 KECCAK256 PUSH1 0x3 ADD DUP1 SLOAD SWAP2 ISZERO ISZERO PUSH2 0x100 MUL PUSH2 0xFF00 NOT SWAP1 SWAP3 AND SWAP2 SWAP1 SWAP2 OR SWAP1 SSTORE JUMP JUMPDEST PUSH1 0x0 SWAP1 DUP2 MSTORE PUSH1 0x4 PUSH1 0x20 MSTORE PUSH1 0x40 SWAP1 KECCAK256 PUSH1 0x1 ADD SLOAD PUSH1 0x1 PUSH1 0xA0 PUSH1 0x2 EXP SUB AND SWAP1 JUMP JUMPDEST PUSH1 0x1 SLOAD PUSH1 0x1 PUSH1 0xA0 PUSH1 0x2 EXP SUB AND CALLER EQ PUSH2 0xD5E JUMPI PUSH1 0x0 DUP1 REVERT JUMPDEST PUSH1 0x0 SWAP3 DUP4 MSTORE PUSH1 0x6 PUSH1 0x20 SWAP1 DUP2 MSTORE PUSH1 0x40 DUP1 DUP6 KECCAK256 SWAP4 DUP6 MSTORE SWAP3 SWAP1 MSTORE SWAP2 KECCAK256 PUSH1 0x3 ADD DUP1 SLOAD PUSH1 0xFF NOT AND SWAP2 ISZERO ISZERO SWAP2 SWAP1 SWAP2 OR SWAP1 SSTORE JUMP JUMPDEST PUSH1 0x0 SWAP2 DUP3 MSTORE PUSH1 0x6 PUSH1 0x20 SWAP1 DUP2 MSTORE PUSH1 0x40 DUP1 DUP5 KECCAK256 SWAP3 DUP5 MSTORE SWAP2 SWAP1 MSTORE SWAP1 KECCAK256 SLOAD PUSH1 0x1 PUSH1 0xA0 PUSH1 0x2 EXP SUB AND SWAP1 JUMP JUMPDEST PUSH1 0x1 SLOAD PUSH1 0x1 PUSH1 0xA0 PUSH1 0x2 EXP SUB AND CALLER EQ PUSH2 0xDC8 JUMPI PUSH1 0x0 DUP1 REVERT JUMPDEST PUSH1 0x0 SWAP2 DUP3 MSTORE PUSH1 0x7 PUSH1 0x20 MSTORE PUSH1 0x40 SWAP1 SWAP2 KECCAK256 SSTORE JUMP JUMPDEST PUSH1 0x1 SLOAD PUSH1 0x1 PUSH1 0xA0 PUSH1 0x2 EXP SUB AND CALLER EQ PUSH2 0xDF1 JUMPI PUSH1 0x0 DUP1 REVERT JUMPDEST PUSH1 0x0 SWAP2 DUP3 MSTORE PUSH1 0x4 PUSH1 0x20 MSTORE PUSH1 0x40 SWAP1 SWAP2 KECCAK256 PUSH1 0x5 ADD DUP1 SLOAD PUSH1 0x1 PUSH1 0xA0 PUSH1 0x2 EXP SUB NOT AND PUSH1 0x1 PUSH1 0xA0 PUSH1 0x2 EXP SUB SWAP1 SWAP3 AND SWAP2 SWAP1 SWAP2 OR SWAP1 SSTORE JUMP JUMPDEST PUSH1 0x1 SLOAD PUSH1 0x0 SWAP1 PUSH1 0x1 PUSH1 0xA0 PUSH1 0x2 EXP SUB AND CALLER EQ PUSH2 0xE3C JUMPI PUSH1 0x0 DUP1 REVERT JUMPDEST POP PUSH1 0x1 PUSH1 0xA0 PUSH1 0x2 EXP SUB SWAP3 DUP4 AND PUSH1 0x0 SWAP1 DUP2 MSTORE PUSH1 0x2 PUSH1 0x20 SWAP1 DUP2 MSTORE PUSH1 0x40 DUP1 DUP4 KECCAK256 SWAP5 SWAP1 SWAP6 AND DUP3 MSTORE SWAP3 SWAP1 SWAP3 MSTORE SWAP2 SWAP1 KECCAK256 SSTORE PUSH1 0x1 SWAP1 JUMP JUMPDEST PUSH1 0x1 SLOAD PUSH1 0x1 PUSH1 0xA0 PUSH1 0x2 EXP SUB AND CALLER EQ PUSH2 0xE83 JUMPI PUSH1 0x0 DUP1 REVERT JUMPDEST PUSH1 0x5 SSTORE JUMP JUMPDEST PUSH2 0xE90 PUSH2 0x120D JUMP JUMPDEST POP PUSH1 0x0 SWAP2 DUP3 MSTORE PUSH1 0x6 PUSH1 0x20 SWAP1 DUP2 MSTORE PUSH1 0x40 DUP1 DUP5 KECCAK256 SWAP3 DUP5 MSTORE SWAP2 DUP2 MSTORE SWAP2 DUP2 SWAP1 KECCAK256 DUP2 MLOAD PUSH1 0xC0 DUP2 ADD DUP4 MSTORE DUP2 SLOAD PUSH1 0x1 PUSH1 0xA0 PUSH1 0x2 EXP SUB AND DUP2 MSTORE PUSH1 0x1 DUP3 ADD SLOAD SWAP4 DUP2 ADD SWAP4 SWAP1 SWAP4 MSTORE PUSH1 0x2 DUP2 ADD SLOAD SWAP2 DUP4 ADD SWAP2 SWAP1 SWAP2 MSTORE PUSH1 0x3 DUP2 ADD SLOAD PUSH1 0xFF DUP1 DUP3 AND ISZERO ISZERO PUSH1 0x60 DUP6 ADD MSTORE PUSH2 0x100 SWAP1 SWAP2 DIV AND ISZERO ISZERO PUSH1 0x80 DUP4 ADD MSTORE PUSH1 0x4 ADD SLOAD PUSH1 0xA0 DUP3 ADD MSTORE SWAP1 JUMP JUMPDEST PUSH1 0x1 SLOAD PUSH1 0x1 PUSH1 0xA0 PUSH1 0x2 EXP SUB AND DUP2 JUMP JUMPDEST PUSH1 0x1 SLOAD PUSH1 0x1 PUSH1 0xA0 PUSH1 0x2 EXP SUB AND CALLER EQ PUSH2 0xF2A JUMPI PUSH1 0x0 DUP1 REVERT JUMPDEST PUSH1 0x0 SWAP2 DUP3 MSTORE PUSH1 0x4 PUSH1 0x20 DUP2 SWAP1 MSTORE PUSH1 0x40 SWAP1 SWAP3 KECCAK256 SWAP1 SWAP2 ADD SSTORE JUMP JUMPDEST PUSH1 0x0 SWAP1 DUP2 MSTORE PUSH1 0x7 PUSH1 0x20 MSTORE PUSH1 0x40 SWAP1 KECCAK256 SLOAD SWAP1 JUMP JUMPDEST PUSH1 0x0 SWAP2 DUP3 MSTORE PUSH1 0x6 PUSH1 0x20 SWAP1 DUP2 MSTORE PUSH1 0x40 DUP1 DUP5 KECCAK256 SWAP3 DUP5 MSTORE SWAP2 SWAP1 MSTORE SWAP1 KECCAK256 PUSH1 0x2 ADD SLOAD SWAP1 JUMP JUMPDEST PUSH1 0x1 SLOAD PUSH1 0x1 PUSH1 0xA0 PUSH1 0x2 EXP SUB AND CALLER EQ PUSH2 0xF8A JUMPI PUSH1 0x0 DUP1 REVERT JUMPDEST PUSH1 0x1 PUSH1 0xA0 PUSH1 0x2 EXP SUB SWAP3 DUP4 AND PUSH1 0x0 SWAP1 DUP2 MSTORE PUSH1 0x3 PUSH1 0x20 SWAP1 DUP2 MSTORE PUSH1 0x40 DUP1 DUP4 KECCAK256 SWAP5 SWAP1 SWAP6 AND DUP3 MSTORE SWAP3 SWAP1 SWAP3 MSTORE SWAP2 SWAP1 KECCAK256 SSTORE JUMP JUMPDEST PUSH2 0xFBE PUSH2 0x1242 JUMP JUMPDEST POP PUSH1 0x0 SWAP1 DUP2 MSTORE PUSH1 0x4 PUSH1 0x20 DUP2 DUP2 MSTORE PUSH1 0x40 SWAP3 DUP4 SWAP1 KECCAK256 DUP4 MLOAD PUSH1 0xE0 DUP2 ADD DUP6 MSTORE DUP2 SLOAD PUSH1 0x1 PUSH1 0xA0 PUSH1 0x2 EXP SUB SWAP1 DUP2 AND DUP3 MSTORE PUSH1 0x1 DUP4 ADD SLOAD DUP2 AND SWAP4 DUP3 ADD SWAP4 SWAP1 SWAP4 MSTORE PUSH1 0x2 DUP3 ADD SLOAD DUP4 AND SWAP5 DUP2 ADD SWAP5 SWAP1 SWAP5 MSTORE PUSH1 0x3 DUP2 ADD SLOAD PUSH1 0x60 DUP6 ADD MSTORE SWAP2 DUP3 ADD SLOAD PUSH1 0x80 DUP5 ADD MSTORE PUSH1 0x5 SWAP1 SWAP2 ADD SLOAD SWAP1 DUP2 AND PUSH1 0xA0 DUP4 ADD MSTORE PUSH21 0x10000000000000000000000000000000000000000 SWAP1 DIV PUSH1 0xFF AND ISZERO ISZERO PUSH1 0xC0 DUP3 ADD MSTORE SWAP1 JUMP JUMPDEST PUSH1 0x0 SLOAD PUSH1 0x1 PUSH1 0xA0 PUSH1 0x2 EXP SUB AND CALLER EQ PUSH2 0x1061 JUMPI PUSH1 0x0 DUP1 REVERT JUMPDEST PUSH1 0x1 DUP1 SLOAD PUSH1 0x1 PUSH1 0xA0 PUSH1 0x2 EXP SUB NOT AND PUSH1 0x1 PUSH1 0xA0 PUSH1 0x2 EXP SUB SWAP3 SWAP1 SWAP3 AND SWAP2 SWAP1 SWAP2 OR SWAP1 SSTORE JUMP JUMPDEST PUSH1 0x1 SLOAD PUSH1 0x1 PUSH1 0xA0 PUSH1 0x2 EXP SUB AND CALLER EQ PUSH2 0x109A JUMPI PUSH1 0x0 DUP1 REVERT JUMPDEST PUSH1 0x0 SWAP2 DUP3 MSTORE PUSH1 0x4 PUSH1 0x20 MSTORE PUSH1 0x40 SWAP1 SWAP2 KECCAK256 PUSH1 0x5 ADD DUP1 SLOAD SWAP2 ISZERO ISZERO PUSH21 0x10000000000000000000000000000000000000000 MUL PUSH21 0xFF0000000000000000000000000000000000000000 NOT SWAP1 SWAP3 AND SWAP2 SWAP1 SWAP2 OR SWAP1 SSTORE JUMP JUMPDEST PUSH1 0x1 PUSH1 0xA0 PUSH1 0x2 EXP SUB SWAP2 DUP3 AND PUSH1 0x0 SWAP1 DUP2 MSTORE PUSH1 0x2 PUSH1 0x20 SWAP1 DUP2 MSTORE PUSH1 0x40 DUP1 DUP4 KECCAK256 SWAP4 SWAP1 SWAP5 AND DUP3 MSTORE SWAP2 SWAP1 SWAP2 MSTORE KECCAK256 SLOAD SWAP1 JUMP JUMPDEST PUSH1 0x6 PUSH1 0x20 SWAP1 DUP2 MSTORE PUSH1 0x0 SWAP3 DUP4 MSTORE PUSH1 0x40 DUP1 DUP5 KECCAK256 SWAP1 SWAP2 MSTORE SWAP1 DUP3 MSTORE SWAP1 KECCAK256 DUP1 SLOAD PUSH1 0x1 DUP3 ADD SLOAD PUSH1 0x2 DUP4 ADD SLOAD PUSH1 0x3 DUP5 ADD SLOAD PUSH1 0x4 SWAP1 SWAP5 ADD SLOAD PUSH1 0x1 PUSH1 0xA0 PUSH1 0x2 EXP SUB SWAP1 SWAP4 AND SWAP4 SWAP2 SWAP3 SWAP1 SWAP2 PUSH1 0xFF DUP1 DUP3 AND SWAP3 PUSH2 0x100 SWAP1 SWAP3 DIV AND SWAP1 DUP7 JUMP JUMPDEST PUSH1 0x0 SLOAD PUSH1 0x1 PUSH1 0xA0 PUSH1 0x2 EXP SUB AND CALLER EQ PUSH2 0x117D JUMPI PUSH1 0x0 DUP1 REVERT JUMPDEST PUSH1 0x1 PUSH1 0xA0 PUSH1 0x2 EXP SUB DUP2 AND ISZERO ISZERO PUSH2 0x1192 JUMPI PUSH1 0x0 DUP1 REVERT JUMPDEST PUSH1 0x0 DUP1 SLOAD PUSH1 0x40 MLOAD PUSH1 0x1 PUSH1 0xA0 PUSH1 0x2 EXP SUB DUP1 DUP6 AND SWAP4 SWAP3 AND SWAP2 PUSH32 0x8BE0079C531659141344CD1FD0A4F28419497F9722A3DAAFE3B4186F6B6457E0 SWAP2 LOG3 PUSH1 0x0 DUP1 SLOAD PUSH1 0x1 PUSH1 0xA0 PUSH1 0x2 EXP SUB NOT AND PUSH1 0x1 PUSH1 0xA0 PUSH1 0x2 EXP SUB SWAP3 SWAP1 SWAP3 AND SWAP2 SWAP1 SWAP2 OR SWAP1 SSTORE JUMP JUMPDEST PUSH1 0x0 SWAP2 DUP3 MSTORE PUSH1 0x6 PUSH1 0x20 SWAP1 DUP2 MSTORE PUSH1 0x40 DUP1 DUP5 KECCAK256 SWAP3 DUP5 MSTORE SWAP2 SWAP1 MSTORE SWAP1 KECCAK256 PUSH1 0x4 ADD SLOAD SWAP1 JUMP JUMPDEST PUSH1 0x40 DUP1 MLOAD PUSH1 0xC0 DUP2 ADD DUP3 MSTORE PUSH1 0x0 DUP1 DUP3 MSTORE PUSH1 0x20 DUP3 ADD DUP2 SWAP1 MSTORE SWAP2 DUP2 ADD DUP3 SWAP1 MSTORE PUSH1 0x60 DUP2 ADD DUP3 SWAP1 MSTORE PUSH1 0x80 DUP2 ADD DUP3 SWAP1 MSTORE PUSH1 0xA0 DUP2 ADD SWAP2 SWAP1 SWAP2 MSTORE SWAP1 JUMP JUMPDEST PUSH1 0x40 DUP1 MLOAD PUSH1 0xE0 DUP2 ADD DUP3 MSTORE PUSH1 0x0 DUP1 DUP3 MSTORE PUSH1 0x20 DUP3 ADD DUP2 SWAP1 MSTORE SWAP2 DUP2 ADD DUP3 SWAP1 MSTORE PUSH1 0x60 DUP2 ADD DUP3 SWAP1 MSTORE PUSH1 0x80 DUP2 ADD DUP3 SWAP1 MSTORE PUSH1 0xA0 DUP2 ADD DUP3 SWAP1 MSTORE PUSH1 0xC0 DUP2 ADD SWAP2 SWAP1 SWAP2 MSTORE SWAP1 JUMP JUMPDEST PUSH1 0x0 PUSH2 0x128A DUP3 CALLDATALOAD PUSH2 0x1843 JUMP JUMPDEST SWAP4 SWAP3 POP POP POP JUMP JUMPDEST PUSH1 0x0 PUSH2 0x128A DUP3 CALLDATALOAD PUSH2 0x184F JUMP JUMPDEST PUSH1 0x0 PUSH1 0xC0 DUP3 DUP5 SUB SLT ISZERO PUSH2 0x12AF JUMPI PUSH1 0x0 DUP1 REVERT JUMPDEST PUSH2 0x12B9 PUSH1 0xC0 PUSH2 0x181C JUMP JUMPDEST SWAP1 POP PUSH1 0x0 PUSH2 0x12C7 DUP5 DUP5 PUSH2 0x127E JUMP JUMPDEST DUP3 MSTORE POP PUSH1 0x20 PUSH2 0x12D8 DUP5 DUP5 DUP4 ADD PUSH2 0x13DF JUMP JUMPDEST PUSH1 0x20 DUP4 ADD MSTORE POP PUSH1 0x40 PUSH2 0x12EC DUP5 DUP3 DUP6 ADD PUSH2 0x13DF JUMP JUMPDEST PUSH1 0x40 DUP4 ADD MSTORE POP PUSH1 0x60 PUSH2 0x1300 DUP5 DUP3 DUP6 ADD PUSH2 0x1291 JUMP JUMPDEST PUSH1 0x60 DUP4 ADD MSTORE POP PUSH1 0x80 PUSH2 0x1314 DUP5 DUP3 DUP6 ADD PUSH2 0x1291 JUMP JUMPDEST PUSH1 0x80 DUP4 ADD MSTORE POP PUSH1 0xA0 PUSH2 0x1328 DUP5 DUP3 DUP6 ADD PUSH2 0x13DF JUMP JUMPDEST PUSH1 0xA0 DUP4 ADD MSTORE POP SWAP3 SWAP2 POP POP JUMP JUMPDEST PUSH1 0x0 PUSH1 0xE0 DUP3 DUP5 SUB SLT ISZERO PUSH2 0x1346 JUMPI PUSH1 0x0 DUP1 REVERT JUMPDEST PUSH2 0x1350 PUSH1 0xE0 PUSH2 0x181C JUMP JUMPDEST SWAP1 POP PUSH1 0x0 PUSH2 0x135E DUP5 DUP5 PUSH2 0x127E JUMP JUMPDEST DUP3 MSTORE POP PUSH1 0x20 PUSH2 0x136F DUP5 DUP5 DUP4 ADD PUSH2 0x127E JUMP JUMPDEST PUSH1 0x20 DUP4 ADD MSTORE POP PUSH1 0x40 PUSH2 0x1383 DUP5 DUP3 DUP6 ADD PUSH2 0x127E JUMP JUMPDEST PUSH1 0x40 DUP4 ADD MSTORE POP PUSH1 0x60 PUSH2 0x1397 DUP5 DUP3 DUP6 ADD PUSH2 0x13DF JUMP JUMPDEST PUSH1 0x60 DUP4 ADD MSTORE POP PUSH1 0x80 PUSH2 0x13AB DUP5 DUP3 DUP6 ADD PUSH2 0x13DF JUMP JUMPDEST PUSH1 0x80 DUP4 ADD MSTORE POP PUSH1 0xA0 PUSH2 0x13BF DUP5 DUP3 DUP6 ADD PUSH2 0x127E JUMP JUMPDEST PUSH1 0xA0 DUP4 ADD MSTORE POP PUSH1 0xC0 PUSH2 0x13D3 DUP5 DUP3 DUP6 ADD PUSH2 0x1291 JUMP JUMPDEST PUSH1 0xC0 DUP4 ADD MSTORE POP SWAP3 SWAP2 POP POP JUMP JUMPDEST PUSH1 0x0 PUSH2 0x128A DUP3 CALLDATALOAD PUSH2 0x1854 JUMP JUMPDEST PUSH1 0x0 PUSH1 0x20 DUP3 DUP5 SUB SLT ISZERO PUSH2 0x13FD JUMPI PUSH1 0x0 DUP1 REVERT JUMPDEST PUSH1 0x0 PUSH2 0x1409 DUP5 DUP5 PUSH2 0x127E JUMP JUMPDEST SWAP5 SWAP4 POP POP POP POP JUMP JUMPDEST PUSH1 0x0 DUP1 PUSH1 0x40 DUP4 DUP6 SUB SLT ISZERO PUSH2 0x1424 JUMPI PUSH1 0x0 DUP1 REVERT JUMPDEST PUSH1 0x0 PUSH2 0x1430 DUP6 DUP6 PUSH2 0x127E JUMP JUMPDEST SWAP3 POP POP PUSH1 0x20 PUSH2 0x1441 DUP6 DUP3 DUP7 ADD PUSH2 0x127E JUMP JUMPDEST SWAP2 POP POP SWAP3 POP SWAP3 SWAP1 POP JUMP JUMPDEST PUSH1 0x0 DUP1 PUSH1 0x0 PUSH1 0x60 DUP5 DUP7 SUB SLT ISZERO PUSH2 0x1460 JUMPI PUSH1 0x0 DUP1 REVERT JUMPDEST PUSH1 0x0 PUSH2 0x146C DUP7 DUP7 PUSH2 0x127E JUMP JUMPDEST SWAP4 POP POP PUSH1 0x20 PUSH2 0x147D DUP7 DUP3 DUP8 ADD PUSH2 0x127E JUMP JUMPDEST SWAP3 POP POP PUSH1 0x40 PUSH2 0x148E DUP7 DUP3 DUP8 ADD PUSH2 0x13DF JUMP JUMPDEST SWAP2 POP POP SWAP3 POP SWAP3 POP SWAP3 JUMP JUMPDEST PUSH1 0x0 PUSH1 0x20 DUP3 DUP5 SUB SLT ISZERO PUSH2 0x14AA JUMPI PUSH1 0x0 DUP1 REVERT JUMPDEST PUSH1 0x0 PUSH2 0x1409 DUP5 DUP5 PUSH2 0x13DF JUMP JUMPDEST PUSH1 0x0 DUP1 PUSH1 0x40 DUP4 DUP6 SUB SLT ISZERO PUSH2 0x14C9 JUMPI PUSH1 0x0 DUP1 REVERT JUMPDEST PUSH1 0x0 PUSH2 0x1430 DUP6 DUP6 PUSH2 0x13DF JUMP JUMPDEST PUSH1 0x0 DUP1 PUSH1 0x40 DUP4 DUP6 SUB SLT ISZERO PUSH2 0x14E8 JUMPI PUSH1 0x0 DUP1 REVERT JUMPDEST PUSH1 0x0 PUSH2 0x14F4 DUP6 DUP6 PUSH2 0x13DF JUMP JUMPDEST SWAP3 POP POP PUSH1 0x20 PUSH2 0x1441 DUP6 DUP3 DUP7 ADD PUSH2 0x1291 JUMP JUMPDEST PUSH1 0x0 DUP1 PUSH2 0x100 DUP4 DUP6 SUB SLT ISZERO PUSH2 0x1519 JUMPI PUSH1 0x0 DUP1 REVERT JUMPDEST PUSH1 0x0 PUSH2 0x1525 DUP6 DUP6 PUSH2 0x13DF JUMP JUMPDEST SWAP3 POP POP PUSH1 0x20 PUSH2 0x1441 DUP6 DUP3 DUP7 ADD PUSH2 0x1334 JUMP JUMPDEST PUSH1 0x0 DUP1 PUSH1 0x40 DUP4 DUP6 SUB SLT ISZERO PUSH2 0x1549 JUMPI PUSH1 0x0 DUP1 REVERT JUMPDEST PUSH1 0x0 PUSH2 0x1555 DUP6 DUP6 PUSH2 0x13DF JUMP JUMPDEST SWAP3 POP POP PUSH1 0x20 PUSH2 0x1441 DUP6 DUP3 DUP7 ADD PUSH2 0x13DF JUMP JUMPDEST PUSH1 0x0 DUP1 PUSH1 0x0 PUSH1 0x60 DUP5 DUP7 SUB SLT ISZERO PUSH2 0x157B JUMPI PUSH1 0x0 DUP1 REVERT JUMPDEST PUSH1 0x0 PUSH2 0x1587 DUP7 DUP7 PUSH2 0x13DF JUMP JUMPDEST SWAP4 POP POP PUSH1 0x20 PUSH2 0x1598 DUP7 DUP3 DUP8 ADD PUSH2 0x13DF JUMP JUMPDEST SWAP3 POP POP PUSH1 0x40 PUSH2 0x148E DUP7 DUP3 DUP8 ADD PUSH2 0x127E JUMP JUMPDEST PUSH1 0x0 DUP1 PUSH1 0x0 PUSH1 0x60 DUP5 DUP7 SUB SLT ISZERO PUSH2 0x15BE JUMPI PUSH1 0x0 DUP1 REVERT JUMPDEST PUSH1 0x0 PUSH2 0x15CA DUP7 DUP7 PUSH2 0x13DF JUMP JUMPDEST SWAP4 POP POP PUSH1 0x20 PUSH2 0x15DB DUP7 DUP3 DUP8 ADD PUSH2 0x13DF JUMP JUMPDEST SWAP3 POP POP PUSH1 0x40 PUSH2 0x148E DUP7 DUP3 DUP8 ADD PUSH2 0x1291 JUMP JUMPDEST PUSH1 0x0 DUP1 PUSH1 0x0 PUSH2 0x100 DUP5 DUP7 SUB SLT ISZERO PUSH2 0x1602 JUMPI PUSH1 0x0 DUP1 REVERT JUMPDEST PUSH1 0x0 PUSH2 0x160E DUP7 DUP7 PUSH2 0x13DF JUMP JUMPDEST SWAP4 POP POP PUSH1 0x20 PUSH2 0x161F DUP7 DUP3 DUP8 ADD PUSH2 0x13DF JUMP JUMPDEST SWAP3 POP POP PUSH1 0x40 PUSH2 0x148E DUP7 DUP3 DUP8 ADD PUSH2 0x129D JUMP JUMPDEST PUSH1 0x0 DUP1 PUSH1 0x0 PUSH1 0x60 DUP5 DUP7 SUB SLT ISZERO PUSH2 0x1645 JUMPI PUSH1 0x0 DUP1 REVERT JUMPDEST PUSH1 0x0 PUSH2 0x1651 DUP7 DUP7 PUSH2 0x13DF JUMP JUMPDEST SWAP4 POP POP PUSH1 0x20 PUSH2 0x147D DUP7 DUP3 DUP8 ADD PUSH2 0x13DF JUMP JUMPDEST PUSH2 0x166B DUP2 PUSH2 0x1843 JUMP JUMPDEST DUP3 MSTORE POP POP JUMP JUMPDEST PUSH2 0x166B DUP2 PUSH2 0x184F JUMP JUMPDEST DUP1 MLOAD PUSH1 0xC0 DUP4 ADD SWAP1 PUSH2 0x168B DUP5 DUP3 PUSH2 0x1662 JUMP JUMPDEST POP PUSH1 0x20 DUP3 ADD MLOAD PUSH2 0x169E PUSH1 0x20 DUP6 ADD DUP3 PUSH2 0x1773 JUMP JUMPDEST POP PUSH1 0x40 DUP3 ADD MLOAD PUSH2 0x16B1 PUSH1 0x40 DUP6 ADD DUP3 PUSH2 0x1773 JUMP JUMPDEST POP PUSH1 0x60 DUP3 ADD MLOAD PUSH2 0x16C4 PUSH1 0x60 DUP6 ADD DUP3 PUSH2 0x1671 JUMP JUMPDEST POP PUSH1 0x80 DUP3 ADD MLOAD PUSH2 0x16D7 PUSH1 0x80 DUP6 ADD DUP3 PUSH2 0x1671 JUMP JUMPDEST POP PUSH1 0xA0 DUP3 ADD MLOAD PUSH2 0x16EA PUSH1 0xA0 DUP6 ADD DUP3 PUSH2 0x1773 JUMP JUMPDEST POP POP POP POP JUMP JUMPDEST DUP1 MLOAD PUSH1 0xE0 DUP4 ADD SWAP1 PUSH2 0x1701 DUP5 DUP3 PUSH2 0x1662 JUMP JUMPDEST POP PUSH1 0x20 DUP3 ADD MLOAD PUSH2 0x1714 PUSH1 0x20 DUP6 ADD DUP3 PUSH2 0x1662 JUMP JUMPDEST POP PUSH1 0x40 DUP3 ADD MLOAD PUSH2 0x1727 PUSH1 0x40 DUP6 ADD DUP3 PUSH2 0x1662 JUMP JUMPDEST POP PUSH1 0x60 DUP3 ADD MLOAD PUSH2 0x173A PUSH1 0x60 DUP6 ADD DUP3 PUSH2 0x1773 JUMP JUMPDEST POP PUSH1 0x80 DUP3 ADD MLOAD PUSH2 0x174D PUSH1 0x80 DUP6 ADD DUP3 PUSH2 0x1773 JUMP JUMPDEST POP PUSH1 0xA0 DUP3 ADD MLOAD PUSH2 0x1760 PUSH1 0xA0 DUP6 ADD DUP3 PUSH2 0x1662 JUMP JUMPDEST POP PUSH1 0xC0 DUP3 ADD MLOAD PUSH2 0x16EA PUSH1 0xC0 DUP6 ADD DUP3 PUSH2 0x1671 JUMP JUMPDEST PUSH2 0x166B DUP2 PUSH2 0x1854 JUMP JUMPDEST PUSH1 0x20 DUP2 ADD PUSH2 0x822 DUP3 DUP5 PUSH2 0x1662 JUMP JUMPDEST PUSH1 0xC0 DUP2 ADD PUSH2 0x1798 DUP3 DUP10 PUSH2 0x1662 JUMP JUMPDEST PUSH2 0x17A5 PUSH1 0x20 DUP4 ADD DUP9 PUSH2 0x1773 JUMP JUMPDEST PUSH2 0x17B2 PUSH1 0x40 DUP4 ADD DUP8 PUSH2 0x1773 JUMP JUMPDEST PUSH2 0x17BF PUSH1 0x60 DUP4 ADD DUP7 PUSH2 0x1671 JUMP JUMPDEST PUSH2 0x17CC PUSH1 0x80 DUP4 ADD DUP6 PUSH2 0x1671 JUMP JUMPDEST PUSH2 0x17D9 PUSH1 0xA0 DUP4 ADD DUP5 PUSH2 0x1773 JUMP JUMPDEST SWAP8 SWAP7 POP POP POP POP POP POP POP JUMP JUMPDEST PUSH1 0x20 DUP2 ADD PUSH2 0x822 DUP3 DUP5 PUSH2 0x1671 JUMP JUMPDEST PUSH1 0xC0 DUP2 ADD PUSH2 0x822 DUP3 DUP5 PUSH2 0x167A JUMP JUMPDEST PUSH1 0xE0 DUP2 ADD PUSH2 0x822 DUP3 DUP5 PUSH2 0x16F0 JUMP JUMPDEST PUSH1 0x20 DUP2 ADD PUSH2 0x822 DUP3 DUP5 PUSH2 0x1773 JUMP JUMPDEST PUSH1 0x40 MLOAD DUP2 DUP2 ADD PUSH8 0xFFFFFFFFFFFFFFFF DUP2 GT DUP3 DUP3 LT OR ISZERO PUSH2 0x183B JUMPI PUSH1 0x0 DUP1 REVERT JUMPDEST PUSH1 0x40 MSTORE SWAP2 SWAP1 POP JUMP JUMPDEST PUSH1 0x1 PUSH1 0xA0 PUSH1 0x2 EXP SUB AND SWAP1 JUMP JUMPDEST ISZERO ISZERO SWAP1 JUMP JUMPDEST SWAP1 JUMP STOP LOG2 PUSH6 0x627A7A723058 KECCAK256 0xda 0xae 0xe5 0xc2 SLOAD SWAP2 0xa7 0xbd 0xd2 LOG4 DUP5 0xf9 0xec 0x2d CREATE DUP14 PUSH28 0xC1764F71BDCB4166341CEFC32F8CE96C6578706572696D656E74616C 0xf5 STOP CALLDATACOPY ",
  "sha1": "a041e8ecd981f7e508a829e03ec5c95cc6733719",
  "source": "pragma solidity ^0.4.24;\npragma experimental ABIEncoderV2;\n\nimport \"./Ownable.sol\";\nimport \"./OTCExchangeStorageModel.sol\";\n\n\n/// @title Exchangeコントラクトの取引情報を永続化するためのEternalStorage\n/// @dev Storageのアクセスは認可したExchangeコントラクト限定\ncontract OTCExchangeStorage is Ownable, OTCExchangeStorageModel {\n\n    constructor() public {}\n\n    /// -------------------------------------------------------------------\n    /// 最新バージョンのExchangeコントラクトアドレス\n    /// -------------------------------------------------------------------\n\n    /// 最新バージョンのExchangeコントラクトアドレス\n    address public latestVersion;\n\n    /// @notice Exchangeコントラクトのバージョン更新\n    /// @dev コントラクトオーナーのみ実行が可能\n    /// @param _newVersion 新しいExchangeコントラクトのアドレス\n    function upgradeVersion(address _newVersion)\n        public\n        onlyOwner()\n    {\n        latestVersion = _newVersion;\n    }\n\n    /// @dev 実行者が最新バージョンのExchangeアドレスであることをチェック\n    modifier onlyLatestVersion() {\n        require(msg.sender == latestVersion);\n        _;\n    }\n\n    /// -------------------------------------------------------------------\n    /// 残高数量\n    /// -------------------------------------------------------------------\n\n    /// 残高情報\n    /// account => token => balance\n    mapping(address => mapping(address => uint256)) private balances;\n\n    /// @notice 残高の更新\n    /// @dev 最新バージョンのExchangeコントラクトのみ実行が可能\n    /// @param _account アドレス\n    /// @param _token トークンアドレス\n    /// @param _value 更新後の残高数量\n    /// @return 処理結果\n    function setBalance(address _account, address _token, uint256 _value)\n        public\n        onlyLatestVersion()\n        returns (bool)\n    {\n        balances[_account][_token] = _value;\n        return true;\n    }\n\n    /// @notice 残高数量の参照\n    /// @param _account アドレス\n    /// @param _token トークンアドレス\n    /// @return 残高数量\n    function getBalance(address _account, address _token)\n        public\n        view\n        returns (uint256)\n    {\n        return balances[_account][_token];\n    }\n\n    /// -------------------------------------------------------------------\n    /// 拘束数量（約定済みの数量）\n    /// -------------------------------------------------------------------\n\n    /// 拘束数量\n    /// account => token => order commitment\n    mapping(address => mapping(address => uint256)) private commitments;\n\n    /// @notice 拘束数量の更新\n    /// @dev 最新バージョンのExchangeコントラクトのみ実行が可能\n    /// @param _account アドレス\n    /// @param _token トークンアドレス\n    /// @param _value 更新後の残高数量\n    function setCommitment(address _account, address _token, uint256 _value)\n        public\n        onlyLatestVersion()\n    {\n        commitments[_account][_token] = _value;\n    }\n\n    /// @notice 拘束数量の参照\n    /// @param _account アドレス\n    /// @param _token トークンアドレス\n    /// @return 拘束数量\n    function getCommitment(address _account, address _token)\n        public\n        view\n        returns (uint256)\n    {\n        return commitments[_account][_token];\n    }\n\n    /// -------------------------------------------------------------------\n    /// 注文情報\n    /// -------------------------------------------------------------------\n\n    /// 注文情報\n    /// orderId => order\n    mapping(uint256 => OTCExchangeStorageModel.OTCOrder) private orderBook;\n\n    /// @notice 注文情報の更新\n    /// @dev 最新バージョンのExchangeコントラクトのみ実行が可能\n    /// @param _orderId 注文ID\n    /// @param _order 注文情報\n    function setOrder(uint256 _orderId, OTCExchangeStorageModel.OTCOrder _order)\n        public\n        onlyLatestVersion()\n    {\n        orderBook[_orderId] = _order;\n    }\n\n    /// @notice 注文情報の更新（取引実行者（売り手）EOAアドレス）\n    /// @dev 最新バージョンのExchangeコントラクトのみ実行が可能\n    /// @param _orderId 注文ID\n    /// @param _owner 取引実行者（売り手）EOAアドレス\n    function setOrderOwner(uint256 _orderId, address _owner)\n        public\n        onlyLatestVersion()\n    {\n        orderBook[_orderId].owner = _owner;\n    }\n\n    /// @notice 注文情報の更新（買い手EOAアドレス）\n    /// @dev 最新バージョンのExchangeコントラクトのみ実行が可能\n    /// @param _orderId 注文ID\n    /// @param _counterpart 買い手EOAアドレス\n    function setOrderCounterpart(uint256 _orderId, address _counterpart)\n        public\n        onlyLatestVersion()\n    {\n        orderBook[_orderId].counterpart = _counterpart;\n    }\n\n    /// @notice 注文情報の更新（トークンアドレス）\n    /// @dev 最新バージョンのExchangeコントラクトのみ実行が可能\n    /// @param _orderId 注文ID\n    /// @param _token トークンアドレス\n    function setOrderToken(uint256 _orderId, address _token)\n        public\n        onlyLatestVersion()\n    {\n        orderBook[_orderId].token = _token;\n    }\n\n    /// @notice 注文情報の更新（注文数量）\n    /// @dev 最新バージョンのExchangeコントラクトのみ実行が可能\n    /// @param _orderId 注文ID\n    /// @param _amount 注文数量\n    function setOrderAmount(uint256 _orderId, uint256 _amount)\n        public\n        onlyLatestVersion()\n    {\n        orderBook[_orderId].amount = _amount;\n    }\n\n    /// @notice 注文情報の更新（注文単価）\n    /// @dev 最新バージョンのExchangeコントラクトのみ実行が可能\n    /// @param _orderId 注文ID\n    /// @param _price 注文単価\n    function setOrderPrice(uint256 _orderId, uint256 _price)\n        public\n        onlyLatestVersion()\n    {\n        orderBook[_orderId].price = _price;\n    }\n\n    /// @notice 注文情報の更新（決済業者のEOAアドレス）\n    /// @dev 最新バージョンのExchangeコントラクトのみ実行が可能\n    /// @param _orderId 注文ID\n    /// @param _agent 決済業者のEOAアドレス\n    function setOrderAgent(uint256 _orderId, address _agent)\n        public\n        onlyLatestVersion()\n    {\n        orderBook[_orderId].agent = _agent;\n    }\n\n    /// @notice 注文情報の更新（キャンセル済み状態）\n    /// @dev 最新バージョンのExchangeコントラクトのみ実行が可能\n    /// @param _orderId 注文ID\n    /// @param _canceled キャンセル済み状態\n    function setOrderCanceled(uint256 _orderId, bool _canceled)\n        public\n        onlyLatestVersion()\n    {\n        orderBook[_orderId].canceled = _canceled;\n    }\n\n    /// @notice 注文情報の参照\n    /// @param _orderId 注文ID\n    /// @return 注文情報\n    function getOrder(uint256 _orderId)\n        public\n        view\n        returns (OTCExchangeStorageModel.OTCOrder)\n    {\n        return orderBook[_orderId];\n    }\n\n    /// @notice 注文情報の参照（取引実行者EOAアドレス）\n    /// @param _orderId 注文ID\n    /// @return 取引実行者EOAアドレス\n    function getOrderOwner(uint256 _orderId)\n        public\n        view\n        returns(address)\n    {\n        return orderBook[_orderId].owner;\n    }\n\n    /// @notice 注文情報の参照（買い手EOAアドレス）\n    /// @param _orderId 注文ID\n    /// @return 買い手EOAアドレス\n    function getOrderCounterpart(uint256 _orderId)\n        public\n        view\n        returns(address)\n    {\n        return orderBook[_orderId].counterpart;\n    }\n\n    /// @notice 注文情報の参照（トークンアドレス）\n    /// @param _orderId 注文ID\n    /// @return トークンアドレス\n    function getOrderToken(uint256 _orderId)\n        public\n        view\n        returns(address)\n    {\n        return orderBook[_orderId].token;\n    }\n\n    /// @notice 注文情報の参照（注文数量）\n    /// @param _orderId 注文ID\n    /// @return 注文数量\n    function getOrderAmount(uint256 _orderId)\n        public\n        view\n        returns(uint256)\n    {\n        return orderBook[_orderId].amount;\n    }\n\n    /// @notice 注文情報の参照（注文単価）\n    /// @param _orderId 注文ID\n    /// @return 注文単価\n    function getOrderPrice(uint256 _orderId)\n        public\n        view\n        returns(uint256)\n    {\n        return orderBook[_orderId].price;\n    }\n\n    /// @notice 注文情報の参照（決済業者のEOAアドレス）\n    /// @param _orderId 注文ID\n    /// @return 決済業者のEOAアドレス\n    function getOrderAgent(uint256 _orderId)\n        public\n        view\n        returns(address)\n    {\n        return orderBook[_orderId].agent;\n    }\n\n    /// @notice 注文情報の参照（キャンセル済み状態）\n    /// @param _orderId 注文ID\n    /// @return キャンセル済み状態\n    function getOrderCanceled(uint256 _orderId)\n        public\n        view\n        returns(bool)\n    {\n        return orderBook[_orderId].canceled;\n    }\n\n    /// -------------------------------------------------------------------\n    /// 直近注文ID\n    /// -------------------------------------------------------------------\n\n    /// 直近注文ID\n    uint256 public latestOrderId = 0;\n\n    /// @notice 直近注文IDの更新\n    /// @dev 最新バージョンのExchangeコントラクトのみ実行が可能\n    /// @param _latestOrderId 直近注文ID\n    function setLatestOrderId(uint256 _latestOrderId)\n        public\n        onlyLatestVersion()\n    {\n        latestOrderId = _latestOrderId;\n    }\n\n    /// @notice 直近注文IDの参照\n    /// @return 直近注文ID\n    function getLatestOrderId()\n        public\n        view\n        returns (uint256)\n    {\n        return latestOrderId;\n    }\n\n    /// -------------------------------------------------------------------\n    /// 約定情報\n    /// -------------------------------------------------------------------\n\n    /// 約定情報\n    /// orderId => agreementId => Agreement\n    mapping(uint256 => mapping(uint256 => OTCExchangeStorageModel.OTCAgreement)) public agreements;\n\n    /// @notice 約定情報の更新\n    /// @dev 最新バージョンのExchangeコントラクトのみ実行が可能\n    /// @param _orderId 注文ID\n    /// @param _agreementId 約定ID\n    /// @param _agreement 約定情報\n    function setAgreement(\n        uint256 _orderId, uint256 _agreementId,\n        OTCExchangeStorageModel.OTCAgreement _agreement\n    )\n        public\n        onlyLatestVersion()\n    {\n        agreements[_orderId][_agreementId] = _agreement;\n    }\n\n    /// @notice 約定情報の更新（約定相手EOAアドレス）\n    /// @dev 最新バージョンのExchangeコントラクトのみ実行が可能\n    /// @param _orderId 注文ID\n    /// @param _agreementId 約定ID\n    /// @param _counterpart 約定相手EOAアドレス\n    function setAgreementCounterpart(\n        uint256 _orderId,\n        uint256 _agreementId,\n        address _counterpart\n    )\n        public\n        onlyLatestVersion()\n    {\n        agreements[_orderId][_agreementId].counterpart = _counterpart;\n    }\n\n    /// @notice 約定情報の更新（約定数量）\n    /// @dev 最新バージョンのExchangeコントラクトのみ実行が可能\n    /// @param _orderId 注文ID\n    /// @param _agreementId 約定ID\n    /// @param _amount 約定数量\n    function setAgreementAmount(\n        uint256 _orderId,\n        uint256 _agreementId,\n        uint256 _amount\n    )\n        public\n        onlyLatestVersion()\n    {\n        agreements[_orderId][_agreementId].amount = _amount;\n    }\n\n    /// @notice 約定情報の更新（約定単価）\n    /// @dev 最新バージョンのExchangeコントラクトのみ実行が可能\n    /// @param _orderId 注文ID\n    /// @param _agreementId 約定ID\n    /// @param _price 約定単価\n    function setAgreementPrice(\n        uint256 _orderId,\n        uint256 _agreementId,\n        uint256 _price\n    )\n        public\n        onlyLatestVersion()\n    {\n        agreements[_orderId][_agreementId].price = _price;\n    }\n\n    /// @notice 約定情報の更新（キャンセル済み状態）\n    /// @dev 最新バージョンのExchangeコントラクトのみ実行が可能\n    /// @param _orderId 注文ID\n    /// @param _agreementId 約定ID\n    /// @param _canceled キャンセル済み状態\n    function setAgreementCanceled(\n        uint256 _orderId,\n        uint256 _agreementId,\n        bool _canceled\n    )\n        public\n        onlyLatestVersion()\n    {\n        agreements[_orderId][_agreementId].canceled = _canceled;\n    }\n\n    /// @notice 約定情報の更新（支払済状態）\n    /// @dev 最新バージョンのExchangeコントラクトのみ実行が可能\n    /// @param _orderId 注文ID\n    /// @param _agreementId 約定ID\n    /// @param _paid 支払済状態\n    function setAgreementPaid(\n        uint256 _orderId,\n        uint256 _agreementId,\n        bool _paid\n    )\n        public\n        onlyLatestVersion()\n    {\n        agreements[_orderId][_agreementId].paid = _paid;\n    }\n\n    /// @notice 約定情報の更新（有効期限）\n    /// @dev 最新バージョンのExchangeコントラクトのみ実行が可能\n    /// @param _orderId 注文ID\n    /// @param _agreementId 約定ID\n    /// @param _expiry 有効期限\n    function setAgreementExpiry(\n        uint256 _orderId,\n        uint256 _agreementId,\n        uint256 _expiry\n    )\n        public\n        onlyLatestVersion()\n    {\n        agreements[_orderId][_agreementId].expiry = _expiry;\n    }\n\n    /// @notice 約定情報の参照\n    /// @param _orderId 注文ID\n    /// @param _agreementId 約定ID\n    /// @return 約定情報\n    function getAgreement(uint256 _orderId, uint256 _agreementId)\n        public\n        view\n        returns (OTCExchangeStorageModel.OTCAgreement)\n    {\n        return agreements[_orderId][_agreementId];\n    }\n\n    /// @notice 約定情報の参照（約定相手EOAアドレス）\n    /// @param _orderId 注文ID\n    /// @param _agreementId 約定ID\n    /// @return 約定相手EOAアドレス\n    function getAgreementCounterpart(uint256 _orderId, uint256 _agreementId)\n        public\n        view\n        returns(address)\n    {\n        return agreements[_orderId][_agreementId].counterpart;\n    }\n\n    /// @notice 約定情報の参照（約定数量）\n    /// @param _orderId 注文ID\n    /// @param _agreementId 約定ID\n    /// @return 約定数量\n    function getAgreementAmount(uint256 _orderId, uint256 _agreementId)\n        public\n        view\n        returns(uint256)\n    {\n        return agreements[_orderId][_agreementId].amount;\n    }\n\n    /// @notice 約定情報の参照（約定単価）\n    /// @param _orderId 注文ID\n    /// @param _agreementId 約定ID\n    /// @return 約定単価\n    function getAgreementPrice(uint256 _orderId, uint256 _agreementId)\n        public\n        view\n        returns(uint256)\n    {\n        return agreements[_orderId][_agreementId].price;\n    }\n\n    /// @notice 約定情報の参照（キャンセル済み状態）\n    /// @param _orderId 注文ID\n    /// @param _agreementId 約定ID\n    /// @return キャンセル済み状態\n    function getAgreementCanceled(uint256 _orderId, uint256 _agreementId)\n        public\n        view\n        returns(bool)\n    {\n        return agreements[_orderId][_agreementId].canceled;\n    }\n\n    /// @notice 約定情報の参照（支払済状態）\n    /// @param _orderId 注文ID\n    /// @param _agreementId 約定ID\n    /// @return 支払済状態\n    function getAgreementPaid(uint256 _orderId, uint256 _agreementId)\n        public\n        view\n        returns(bool)\n    {\n        return agreements[_orderId][_agreementId].paid;\n    }\n\n    /// @notice 約定情報の参照（有効期限）\n    /// @param _orderId 注文ID\n    /// @param _agreementId 約定ID\n    /// @return 有効期限\n    function getAgreementExpiry(uint256 _orderId, uint256 _agreementId)\n        public\n        view\n        returns(uint256)\n    {\n        return agreements[_orderId][_agreementId].expiry;\n    }\n\n    /// -------------------------------------------------------------------\n    /// 直近約定ID\n    ///-------------------------------------------------------------------\n\n    /// 直近約定ID\n    /// orderId => latestAgreementId\n    mapping(uint256 => uint256) public latestAgreementIds;\n\n    /// @notice 直近約定IDの更新\n    /// @dev 最新バージョンのExchangeコントラクトのみ実行が可能\n    /// @param _orderId 注文ID\n    /// @param _latestAgreementId 直近約定ID\n    function setLatestAgreementId(uint256 _orderId, uint256 _latestAgreementId)\n        public\n        onlyLatestVersion()\n    {\n        latestAgreementIds[_orderId] = _latestAgreementId;\n    }\n\n    /// @notice 直近約定IDの参照\n    /// @param _orderId 注文ID\n    /// @return 直近約定ID\n    function getLatestAgreementId(uint256 _orderId)\n        public\n        view\n        returns (uint256)\n    {\n        return latestAgreementIds[_orderId];\n    }\n\n}\n",
  "sourcePath": "contracts/OTCExchangeStorage.sol",
  "type": "contract"
}