{
  "abi": [
    {
      "constant": true,
      "inputs": [
        {
          "name": "_account_address",
          "type": "address"
        },
        {
          "name": "_agent_address",
          "type": "address"
        }
      ],
      "name": "accountApproved",
      "outputs": [
        {
          "name": "",
          "type": "bool"
        }
      ],
      "payable": false,
      "stateMutability": "view",
      "type": "function"
    },
    {
      "constant": false,
      "inputs": [
        {
          "name": "_account_address",
          "type": "address"
        },
        {
          "name": "_encrypted_info",
          "type": "string"
        }
      ],
      "name": "modify",
      "outputs": [
        {
          "name": "",
          "type": "bool"
        }
      ],
      "payable": false,
      "stateMutability": "nonpayable",
      "type": "function"
    },
    {
      "constant": true,
      "inputs": [
        {
          "name": "",
          "type": "address"
        },
        {
          "name": "",
          "type": "address"
        }
      ],
      "name": "payment_accounts",
      "outputs": [
        {
          "name": "account_address",
          "type": "address"
        },
        {
          "name": "agent_address",
          "type": "address"
        },
        {
          "name": "encrypted_info",
          "type": "string"
        },
        {
          "name": "approval_status",
          "type": "uint8"
        }
      ],
      "payable": false,
      "stateMutability": "view",
      "type": "function"
    },
    {
      "constant": false,
      "inputs": [
        {
          "name": "_agent_address",
          "type": "address"
        },
        {
          "name": "_encrypted_info",
          "type": "string"
        }
      ],
      "name": "register",
      "outputs": [
        {
          "name": "",
          "type": "bool"
        }
      ],
      "payable": false,
      "stateMutability": "nonpayable",
      "type": "function"
    },
    {
      "constant": false,
      "inputs": [
        {
          "name": "_agent_address",
          "type": "address"
        }
      ],
      "name": "addAgent",
      "outputs": [],
      "payable": false,
      "stateMutability": "nonpayable",
      "type": "function"
    },
    {
      "constant": true,
      "inputs": [],
      "name": "owner",
      "outputs": [
        {
          "name": "",
          "type": "address"
        }
      ],
      "payable": false,
      "stateMutability": "view",
      "type": "function"
    },
    {
      "constant": false,
      "inputs": [
        {
          "name": "_agent_address",
          "type": "address"
        }
      ],
      "name": "removeAgent",
      "outputs": [],
      "payable": false,
      "stateMutability": "nonpayable",
      "type": "function"
    },
    {
      "constant": false,
      "inputs": [
        {
          "name": "_account_address",
          "type": "address"
        }
      ],
      "name": "ban",
      "outputs": [
        {
          "name": "",
          "type": "bool"
        }
      ],
      "payable": false,
      "stateMutability": "nonpayable",
      "type": "function"
    },
    {
      "constant": false,
      "inputs": [
        {
          "name": "_account_address",
          "type": "address"
        }
      ],
      "name": "approve",
      "outputs": [
        {
          "name": "",
          "type": "bool"
        }
      ],
      "payable": false,
      "stateMutability": "nonpayable",
      "type": "function"
    },
    {
      "constant": false,
      "inputs": [
        {
          "name": "_account_address",
          "type": "address"
        }
      ],
      "name": "warn",
      "outputs": [
        {
          "name": "",
          "type": "bool"
        }
      ],
      "payable": false,
      "stateMutability": "nonpayable",
      "type": "function"
    },
    {
      "constant": false,
      "inputs": [
        {
          "name": "newOwner",
          "type": "address"
        }
      ],
      "name": "transferOwnership",
      "outputs": [],
      "payable": false,
      "stateMutability": "nonpayable",
      "type": "function"
    },
    {
      "constant": true,
      "inputs": [
        {
          "name": "_agent_address",
          "type": "address"
        }
      ],
      "name": "getAgent",
      "outputs": [
        {
          "name": "",
          "type": "bool"
        }
      ],
      "payable": false,
      "stateMutability": "view",
      "type": "function"
    },
    {
      "constant": false,
      "inputs": [
        {
          "name": "_account_address",
          "type": "address"
        }
      ],
      "name": "unapprove",
      "outputs": [
        {
          "name": "",
          "type": "bool"
        }
      ],
      "payable": false,
      "stateMutability": "nonpayable",
      "type": "function"
    },
    {
      "constant": true,
      "inputs": [
        {
          "name": "",
          "type": "address"
        }
      ],
      "name": "agents",
      "outputs": [
        {
          "name": "",
          "type": "bool"
        }
      ],
      "payable": false,
      "stateMutability": "view",
      "type": "function"
    },
    {
      "inputs": [],
      "payable": false,
      "stateMutability": "nonpayable",
      "type": "constructor"
    },
    {
      "anonymous": false,
      "inputs": [
        {
          "indexed": true,
          "name": "agent_address",
          "type": "address"
        }
      ],
      "name": "AddAgent",
      "type": "event"
    },
    {
      "anonymous": false,
      "inputs": [
        {
          "indexed": true,
          "name": "agent_address",
          "type": "address"
        }
      ],
      "name": "RemoveAgent",
      "type": "event"
    },
    {
      "anonymous": false,
      "inputs": [
        {
          "indexed": true,
          "name": "account_address",
          "type": "address"
        },
        {
          "indexed": true,
          "name": "agent_address",
          "type": "address"
        }
      ],
      "name": "Register",
      "type": "event"
    },
    {
      "anonymous": false,
      "inputs": [
        {
          "indexed": true,
          "name": "account_address",
          "type": "address"
        },
        {
          "indexed": true,
          "name": "agent_address",
          "type": "address"
        }
      ],
      "name": "Approve",
      "type": "event"
    },
    {
      "anonymous": false,
      "inputs": [
        {
          "indexed": true,
          "name": "account_address",
          "type": "address"
        },
        {
          "indexed": true,
          "name": "agent_address",
          "type": "address"
        }
      ],
      "name": "Warn",
      "type": "event"
    },
    {
      "anonymous": false,
      "inputs": [
        {
          "indexed": true,
          "name": "account_address",
          "type": "address"
        },
        {
          "indexed": true,
          "name": "agent_address",
          "type": "address"
        }
      ],
      "name": "Unapprove",
      "type": "event"
    },
    {
      "anonymous": false,
      "inputs": [
        {
          "indexed": true,
          "name": "account_address",
          "type": "address"
        },
        {
          "indexed": true,
          "name": "agent_address",
          "type": "address"
        }
      ],
      "name": "Ban",
      "type": "event"
    },
    {
      "anonymous": false,
      "inputs": [
        {
          "indexed": true,
          "name": "account_address",
          "type": "address"
        },
        {
          "indexed": true,
          "name": "agent_address",
          "type": "address"
        }
      ],
      "name": "Modify",
      "type": "event"
    },
    {
      "anonymous": false,
      "inputs": [
        {
          "indexed": true,
          "name": "previousOwner",
          "type": "address"
        },
        {
          "indexed": true,
          "name": "newOwner",
          "type": "address"
        }
      ],
      "name": "OwnershipTransferred",
      "type": "event"
    }
  ],
  "bytecode": "608060405234801561001057600080fd5b5060008054600160a060020a03191633179055610b0e806100326000396000f3006080604052600436106100cf5763ffffffff7c01000000000000000000000000000000000000000000000000000000006000350416632a3de59f81146100d45780632da69e311461010f5780632ea6d4bb1461017657806332434a2e1461025457806384e79842146102bb5780638da5cb5b146102de57806397a6278e1461030f57806397c3ccd814610330578063daea85c514610351578063e53b3f6d14610372578063f2fde38b14610393578063fb3551ff146103b4578063fbf1f78a146103d5578063fd66091e146103f6575b600080fd5b3480156100e057600080fd5b506100fb600160a060020a0360043581169060243516610417565b604080519115158252519081900360200190f35b34801561011b57600080fd5b5060408051602060046024803582810135601f81018590048502860185019096528585526100fb958335600160a060020a03169536956044949193909101919081908401838280828437509497506104739650505050505050565b34801561018257600080fd5b5061019d600160a060020a03600435811690602435166104ff565b6040518085600160a060020a0316600160a060020a0316815260200184600160a060020a0316600160a060020a03168152602001806020018360ff1660ff168152602001828103825284818151815260200191508051906020019080838360005b838110156102165781810151838201526020016101fe565b50505050905090810190601f1680156102435780820380516001836020036101000a031916815260200191505b509550505050505060405180910390f35b34801561026057600080fd5b5060408051602060046024803582810135601f81018590048502860185019096528585526100fb958335600160a060020a03169536956044949193909101919081908401838280828437509497506105c89650505050505050565b3480156102c757600080fd5b506102dc600160a060020a036004351661069a565b005b3480156102ea57600080fd5b506102f3610700565b60408051600160a060020a039092168252519081900360200190f35b34801561031b57600080fd5b506102dc600160a060020a036004351661070f565b34801561033c57600080fd5b506100fb600160a060020a036004351661076f565b34801561035d57600080fd5b506100fb600160a060020a03600435166107f3565b34801561037e57600080fd5b506100fb600160a060020a0360043516610877565b34801561039f57600080fd5b506102dc600160a060020a03600435166108fc565b3480156103c057600080fd5b506100fb600160a060020a0360043516610990565b3480156103e157600080fd5b506100fb600160a060020a03600435166109ae565b34801561040257600080fd5b506100fb600160a060020a0360043516610a32565b600160a060020a0380831660009081526002602090815260408083208585168452909152812080549192909116158015906104595750600381015460ff166002145b15610467576001915061046c565b600091505b5092915050565b600160a060020a03808316600090815260026020908152604080832033845290915281208054919290911615156104a957600080fd5b82516104be9060028301906020860190610a47565b506040513390600160a060020a038616907f30cf834ac139c2468c2c3d0668857dfb51c9565a19b4dd90ac9f7600c753463390600090a35060019392505050565b60026020818152600093845260408085208252928452928290208054600180830154838501805487516101009482161594909402600019011695909504601f8101889004880283018801909652858252600160a060020a03928316969216949293909290918301828280156105b55780601f1061058a576101008083540402835291602001916105b5565b820191906000526020600020905b81548152906001019060200180831161059857829003601f168201915b5050506003909301549192505060ff1684565b336000908152600260209081526040808320600160a060020a03861684529091528120600381015460ff166004141561060057600080fd5b80543373ffffffffffffffffffffffffffffffffffffffff19918216178255600182018054909116600160a060020a038616179055825161064a9060028301906020860190610a47565b5060038101805460ff19166001179055604051600160a060020a0385169033907f98ada70a1cb506dc4591465e1ee9be3fd7a2b6c73ecf3b949009718c9a35151990600090a35060019392505050565b600054600160a060020a031633146106b157600080fd5b600160a060020a0381166000818152600160208190526040808320805460ff1916909217909155517f13380ad6c58c6a2855a70fd3970b4fe598e8b60a683408ec8a5896b680188acd9190a250565b600054600160a060020a031681565b600054600160a060020a0316331461072657600080fd5b600160a060020a038116600081815260016020526040808220805460ff19169055517f7d9ce70f39c0d594d373d4b779781839de1debeda94cbb04501bc0773a1199eb9190a250565b600160a060020a03808216600090815260026020908152604080832033845290915281208054919290911615156107a557600080fd5b60038101805460ff191660041790556040513390600160a060020a038516907fa2e41ba1e2f9fc982da929c3ad5fd34dec5549d93b345c0e05d276e965567d2090600090a350600192915050565b600160a060020a038082166000908152600260209081526040808320338452909152812080549192909116151561082957600080fd5b60038101805460ff191660021790556040513390600160a060020a038516907f3ce2da1daf10aa0a28578b70fe768ed2f390a3da82445358f9346fbc2981f6fd90600090a350600192915050565b600160a060020a03808216600090815260026020908152604080832033845290915281208054919290911615156108ad57600080fd5b6003818101805460ff191690911790556040513390600160a060020a038516907f8f36fb45d3e543b9ad3331c27905990a1a08f4895d6a9debd2659dd744c12f1390600090a350600192915050565b600054600160a060020a0316331461091357600080fd5b600160a060020a038116151561092857600080fd5b60008054604051600160a060020a03808516939216917f8be0079c531659141344cd1fd0a4f28419497f9722a3daafe3b4186f6b6457e091a36000805473ffffffffffffffffffffffffffffffffffffffff1916600160a060020a0392909216919091179055565b600160a060020a031660009081526001602052604090205460ff1690565b600160a060020a03808216600090815260026020908152604080832033845290915281208054919290911615156109e457600080fd5b60038101805460ff191660011790556040513390600160a060020a038516907fb0a24d625a3d04a04108c98b7722db25e9435210d27050369082689178d4f1db90600090a350600192915050565b60016020526000908152604090205460ff1681565b828054600181600116156101000203166002900490600052602060002090601f016020900481019282601f10610a8857805160ff1916838001178555610ab5565b82800160010185558215610ab5579182015b82811115610ab5578251825591602001919060010190610a9a565b50610ac1929150610ac5565b5090565b610adf91905b80821115610ac15760008155600101610acb565b905600a165627a7a7230582001ce85bd5e6c085a2954e6c2f03a5c9066feae575f01b750b1b6a4763b7fc6ee0029",
  "bytecodeSha1": "371c0abad4f51dc9dafe33c6be0e9ec3661549bf",
  "compiler": {
    "evm_version": "byzantium",
    "optimizer": {
      "enabled": true,
      "runs": 200
    },
    "version": "0.4.25"
  },
  "contractName": "PaymentGateway",
  "language": "Solidity",
  "natspec": {
    "methods": {
      "accountApproved(address,address)": {
        "notice": "アカウントの承認状態を返却する",
        "params": {
          "_account_address": "アカウントアドレス",
          "_agent_address": "収納代行業者のアドレス"
        },
        "return": "承認状態"
      },
      "addAgent(address)": {
        "details": "オーナーのみ実行可能",
        "notice": "収納代行業者の追加",
        "params": {
          "_agent_address": "収納代行業者のアドレス"
        }
      },
      "approve(address)": {
        "notice": "支払用口座情報の承認",
        "params": {
          "_account_address": "アカウントアドレス"
        },
        "return": "処理結果"
      },
      "ban(address)": {
        "notice": "支払用口座情報を停止状態にする",
        "params": {
          "_account_address": "アカウントアドレス"
        },
        "return": "処理結果"
      },
      "getAgent(address)": {
        "notice": "収納代行業者の登録状態",
        "params": {
          "_agent_address": "収納代行業者のアドレス"
        },
        "return": "登録状態"
      },
      "modify(address,string)": {
        "details": "収納代行業者による修正。口座登録アカウントによる修正はregister()を使う。 この関数では認可状況の更新は行わない。",
        "notice": "支払用口座情報の修正",
        "params": {
          "_account_address": "銀行口座情報登録アカウントアドレス",
          "_encrypted_info": "銀行口座情報（暗号化済）"
        },
        "return": "処理結果"
      },
      "register(address,string)": {
        "details": "２回目以降は上書き登録を行う",
        "notice": "支払用口座情報の登録",
        "params": {
          "_agent_address": "収納代行業者のアドレス",
          "_encrypted_info": "銀行口座情報（暗号化済）"
        },
        "return": "処理結果"
      },
      "removeAgent(address)": {
        "details": "オーナーのみ実行可能",
        "notice": "収納代行業者の削除",
        "params": {
          "_agent_address": "収納代行業者のアドレス"
        }
      },
      "transferOwnership(address)": {
        "details": "オーナーのみ実行可能",
        "notice": "オーナー変更",
        "params": {
          "newOwner": "新しいオーナー"
        }
      },
      "unapprove(address)": {
        "notice": "支払用口座情報を非承認状態にする",
        "params": {
          "_account_address": "アカウントアドレス"
        },
        "return": "処理結果"
      },
      "warn(address)": {
        "notice": "支払用口座情報を警告状態にする",
        "params": {
          "_account_address": "アカウントアドレス"
        },
        "return": "処理結果"
      }
    },
    "title": "DvP Agent Contract"
  },
  "opcodes": "PUSH1 0x80 PUSH1 0x40 MSTORE PUSH1 0x4 CALLDATASIZE LT PUSH2 0xCF JUMPI PUSH4 0xFFFFFFFF PUSH29 0x100000000000000000000000000000000000000000000000000000000 PUSH1 0x0 CALLDATALOAD DIV AND PUSH4 0x2A3DE59F DUP2 EQ PUSH2 0xD4 JUMPI DUP1 PUSH4 0x2DA69E31 EQ PUSH2 0x10F JUMPI DUP1 PUSH4 0x2EA6D4BB EQ PUSH2 0x176 JUMPI DUP1 PUSH4 0x32434A2E EQ PUSH2 0x254 JUMPI DUP1 PUSH4 0x84E79842 EQ PUSH2 0x2BB JUMPI DUP1 PUSH4 0x8DA5CB5B EQ PUSH2 0x2DE JUMPI DUP1 PUSH4 0x97A6278E EQ PUSH2 0x30F JUMPI DUP1 PUSH4 0x97C3CCD8 EQ PUSH2 0x330 JUMPI DUP1 PUSH4 0xDAEA85C5 EQ PUSH2 0x351 JUMPI DUP1 PUSH4 0xE53B3F6D EQ PUSH2 0x372 JUMPI DUP1 PUSH4 0xF2FDE38B EQ PUSH2 0x393 JUMPI DUP1 PUSH4 0xFB3551FF EQ PUSH2 0x3B4 JUMPI DUP1 PUSH4 0xFBF1F78A EQ PUSH2 0x3D5 JUMPI DUP1 PUSH4 0xFD66091E EQ PUSH2 0x3F6 JUMPI JUMPDEST PUSH1 0x0 DUP1 REVERT JUMPDEST CALLVALUE DUP1 ISZERO PUSH2 0xE0 JUMPI PUSH1 0x0 DUP1 REVERT JUMPDEST POP PUSH2 0xFB PUSH1 0x1 PUSH1 0xA0 PUSH1 0x2 EXP SUB PUSH1 0x4 CALLDATALOAD DUP2 AND SWAP1 PUSH1 0x24 CALLDATALOAD AND PUSH2 0x417 JUMP JUMPDEST PUSH1 0x40 DUP1 MLOAD SWAP2 ISZERO ISZERO DUP3 MSTORE MLOAD SWAP1 DUP2 SWAP1 SUB PUSH1 0x20 ADD SWAP1 RETURN JUMPDEST CALLVALUE DUP1 ISZERO PUSH2 0x11B JUMPI PUSH1 0x0 DUP1 REVERT JUMPDEST POP PUSH1 0x40 DUP1 MLOAD PUSH1 0x20 PUSH1 0x4 PUSH1 0x24 DUP1 CALLDATALOAD DUP3 DUP2 ADD CALLDATALOAD PUSH1 0x1F DUP2 ADD DUP6 SWAP1 DIV DUP6 MUL DUP7 ADD DUP6 ADD SWAP1 SWAP7 MSTORE DUP6 DUP6 MSTORE PUSH2 0xFB SWAP6 DUP4 CALLDATALOAD PUSH1 0x1 PUSH1 0xA0 PUSH1 0x2 EXP SUB AND SWAP6 CALLDATASIZE SWAP6 PUSH1 0x44 SWAP5 SWAP2 SWAP4 SWAP1 SWAP2 ADD SWAP2 SWAP1 DUP2 SWAP1 DUP5 ADD DUP4 DUP3 DUP1 DUP3 DUP5 CALLDATACOPY POP SWAP5 SWAP8 POP PUSH2 0x473 SWAP7 POP POP POP POP POP POP POP JUMP JUMPDEST CALLVALUE DUP1 ISZERO PUSH2 0x182 JUMPI PUSH1 0x0 DUP1 REVERT JUMPDEST POP PUSH2 0x19D PUSH1 0x1 PUSH1 0xA0 PUSH1 0x2 EXP SUB PUSH1 0x4 CALLDATALOAD DUP2 AND SWAP1 PUSH1 0x24 CALLDATALOAD AND PUSH2 0x4FF JUMP JUMPDEST PUSH1 0x40 MLOAD DUP1 DUP6 PUSH1 0x1 PUSH1 0xA0 PUSH1 0x2 EXP SUB AND PUSH1 0x1 PUSH1 0xA0 PUSH1 0x2 EXP SUB AND DUP2 MSTORE PUSH1 0x20 ADD DUP5 PUSH1 0x1 PUSH1 0xA0 PUSH1 0x2 EXP SUB AND PUSH1 0x1 PUSH1 0xA0 PUSH1 0x2 EXP SUB AND DUP2 MSTORE PUSH1 0x20 ADD DUP1 PUSH1 0x20 ADD DUP4 PUSH1 0xFF AND PUSH1 0xFF AND DUP2 MSTORE PUSH1 0x20 ADD DUP3 DUP2 SUB DUP3 MSTORE DUP5 DUP2 DUP2 MLOAD DUP2 MSTORE PUSH1 0x20 ADD SWAP2 POP DUP1 MLOAD SWAP1 PUSH1 0x20 ADD SWAP1 DUP1 DUP4 DUP4 PUSH1 0x0 JUMPDEST DUP4 DUP2 LT ISZERO PUSH2 0x216 JUMPI DUP2 DUP2 ADD MLOAD DUP4 DUP3 ADD MSTORE PUSH1 0x20 ADD PUSH2 0x1FE JUMP JUMPDEST POP POP POP POP SWAP1 POP SWAP1 DUP2 ADD SWAP1 PUSH1 0x1F AND DUP1 ISZERO PUSH2 0x243 JUMPI DUP1 DUP3 SUB DUP1 MLOAD PUSH1 0x1 DUP4 PUSH1 0x20 SUB PUSH2 0x100 EXP SUB NOT AND DUP2 MSTORE PUSH1 0x20 ADD SWAP2 POP JUMPDEST POP SWAP6 POP POP POP POP POP POP PUSH1 0x40 MLOAD DUP1 SWAP2 SUB SWAP1 RETURN JUMPDEST CALLVALUE DUP1 ISZERO PUSH2 0x260 JUMPI PUSH1 0x0 DUP1 REVERT JUMPDEST POP PUSH1 0x40 DUP1 MLOAD PUSH1 0x20 PUSH1 0x4 PUSH1 0x24 DUP1 CALLDATALOAD DUP3 DUP2 ADD CALLDATALOAD PUSH1 0x1F DUP2 ADD DUP6 SWAP1 DIV DUP6 MUL DUP7 ADD DUP6 ADD SWAP1 SWAP7 MSTORE DUP6 DUP6 MSTORE PUSH2 0xFB SWAP6 DUP4 CALLDATALOAD PUSH1 0x1 PUSH1 0xA0 PUSH1 0x2 EXP SUB AND SWAP6 CALLDATASIZE SWAP6 PUSH1 0x44 SWAP5 SWAP2 SWAP4 SWAP1 SWAP2 ADD SWAP2 SWAP1 DUP2 SWAP1 DUP5 ADD DUP4 DUP3 DUP1 DUP3 DUP5 CALLDATACOPY POP SWAP5 SWAP8 POP PUSH2 0x5C8 SWAP7 POP POP POP POP POP POP POP JUMP JUMPDEST CALLVALUE DUP1 ISZERO PUSH2 0x2C7 JUMPI PUSH1 0x0 DUP1 REVERT JUMPDEST POP PUSH2 0x2DC PUSH1 0x1 PUSH1 0xA0 PUSH1 0x2 EXP SUB PUSH1 0x4 CALLDATALOAD AND PUSH2 0x69A JUMP JUMPDEST STOP JUMPDEST CALLVALUE DUP1 ISZERO PUSH2 0x2EA JUMPI PUSH1 0x0 DUP1 REVERT JUMPDEST POP PUSH2 0x2F3 PUSH2 0x700 JUMP JUMPDEST PUSH1 0x40 DUP1 MLOAD PUSH1 0x1 PUSH1 0xA0 PUSH1 0x2 EXP SUB SWAP1 SWAP3 AND DUP3 MSTORE MLOAD SWAP1 DUP2 SWAP1 SUB PUSH1 0x20 ADD SWAP1 RETURN JUMPDEST CALLVALUE DUP1 ISZERO PUSH2 0x31B JUMPI PUSH1 0x0 DUP1 REVERT JUMPDEST POP PUSH2 0x2DC PUSH1 0x1 PUSH1 0xA0 PUSH1 0x2 EXP SUB PUSH1 0x4 CALLDATALOAD AND PUSH2 0x70F JUMP JUMPDEST CALLVALUE DUP1 ISZERO PUSH2 0x33C JUMPI PUSH1 0x0 DUP1 REVERT JUMPDEST POP PUSH2 0xFB PUSH1 0x1 PUSH1 0xA0 PUSH1 0x2 EXP SUB PUSH1 0x4 CALLDATALOAD AND PUSH2 0x76F JUMP JUMPDEST CALLVALUE DUP1 ISZERO PUSH2 0x35D JUMPI PUSH1 0x0 DUP1 REVERT JUMPDEST POP PUSH2 0xFB PUSH1 0x1 PUSH1 0xA0 PUSH1 0x2 EXP SUB PUSH1 0x4 CALLDATALOAD AND PUSH2 0x7F3 JUMP JUMPDEST CALLVALUE DUP1 ISZERO PUSH2 0x37E JUMPI PUSH1 0x0 DUP1 REVERT JUMPDEST POP PUSH2 0xFB PUSH1 0x1 PUSH1 0xA0 PUSH1 0x2 EXP SUB PUSH1 0x4 CALLDATALOAD AND PUSH2 0x877 JUMP JUMPDEST CALLVALUE DUP1 ISZERO PUSH2 0x39F JUMPI PUSH1 0x0 DUP1 REVERT JUMPDEST POP PUSH2 0x2DC PUSH1 0x1 PUSH1 0xA0 PUSH1 0x2 EXP SUB PUSH1 0x4 CALLDATALOAD AND PUSH2 0x8FC JUMP JUMPDEST CALLVALUE DUP1 ISZERO PUSH2 0x3C0 JUMPI PUSH1 0x0 DUP1 REVERT JUMPDEST POP PUSH2 0xFB PUSH1 0x1 PUSH1 0xA0 PUSH1 0x2 EXP SUB PUSH1 0x4 CALLDATALOAD AND PUSH2 0x990 JUMP JUMPDEST CALLVALUE DUP1 ISZERO PUSH2 0x3E1 JUMPI PUSH1 0x0 DUP1 REVERT JUMPDEST POP PUSH2 0xFB PUSH1 0x1 PUSH1 0xA0 PUSH1 0x2 EXP SUB PUSH1 0x4 CALLDATALOAD AND PUSH2 0x9AE JUMP JUMPDEST CALLVALUE DUP1 ISZERO PUSH2 0x402 JUMPI PUSH1 0x0 DUP1 REVERT JUMPDEST POP PUSH2 0xFB PUSH1 0x1 PUSH1 0xA0 PUSH1 0x2 EXP SUB PUSH1 0x4 CALLDATALOAD AND PUSH2 0xA32 JUMP JUMPDEST PUSH1 0x1 PUSH1 0xA0 PUSH1 0x2 EXP SUB DUP1 DUP4 AND PUSH1 0x0 SWAP1 DUP2 MSTORE PUSH1 0x2 PUSH1 0x20 SWAP1 DUP2 MSTORE PUSH1 0x40 DUP1 DUP4 KECCAK256 DUP6 DUP6 AND DUP5 MSTORE SWAP1 SWAP2 MSTORE DUP2 KECCAK256 DUP1 SLOAD SWAP2 SWAP3 SWAP1 SWAP2 AND ISZERO DUP1 ISZERO SWAP1 PUSH2 0x459 JUMPI POP PUSH1 0x3 DUP2 ADD SLOAD PUSH1 0xFF AND PUSH1 0x2 EQ JUMPDEST ISZERO PUSH2 0x467 JUMPI PUSH1 0x1 SWAP2 POP PUSH2 0x46C JUMP JUMPDEST PUSH1 0x0 SWAP2 POP JUMPDEST POP SWAP3 SWAP2 POP POP JUMP JUMPDEST PUSH1 0x1 PUSH1 0xA0 PUSH1 0x2 EXP SUB DUP1 DUP4 AND PUSH1 0x0 SWAP1 DUP2 MSTORE PUSH1 0x2 PUSH1 0x20 SWAP1 DUP2 MSTORE PUSH1 0x40 DUP1 DUP4 KECCAK256 CALLER DUP5 MSTORE SWAP1 SWAP2 MSTORE DUP2 KECCAK256 DUP1 SLOAD SWAP2 SWAP3 SWAP1 SWAP2 AND ISZERO ISZERO PUSH2 0x4A9 JUMPI PUSH1 0x0 DUP1 REVERT JUMPDEST DUP3 MLOAD PUSH2 0x4BE SWAP1 PUSH1 0x2 DUP4 ADD SWAP1 PUSH1 0x20 DUP7 ADD SWAP1 PUSH2 0xA47 JUMP JUMPDEST POP PUSH1 0x40 MLOAD CALLER SWAP1 PUSH1 0x1 PUSH1 0xA0 PUSH1 0x2 EXP SUB DUP7 AND SWAP1 PUSH32 0x30CF834AC139C2468C2C3D0668857DFB51C9565A19B4DD90AC9F7600C7534633 SWAP1 PUSH1 0x0 SWAP1 LOG3 POP PUSH1 0x1 SWAP4 SWAP3 POP POP POP JUMP JUMPDEST PUSH1 0x2 PUSH1 0x20 DUP2 DUP2 MSTORE PUSH1 0x0 SWAP4 DUP5 MSTORE PUSH1 0x40 DUP1 DUP6 KECCAK256 DUP3 MSTORE SWAP3 DUP5 MSTORE SWAP3 DUP3 SWAP1 KECCAK256 DUP1 SLOAD PUSH1 0x1 DUP1 DUP4 ADD SLOAD DUP4 DUP6 ADD DUP1 SLOAD DUP8 MLOAD PUSH2 0x100 SWAP5 DUP3 AND ISZERO SWAP5 SWAP1 SWAP5 MUL PUSH1 0x0 NOT ADD AND SWAP6 SWAP1 SWAP6 DIV PUSH1 0x1F DUP2 ADD DUP9 SWAP1 DIV DUP9 MUL DUP4 ADD DUP9 ADD SWAP1 SWAP7 MSTORE DUP6 DUP3 MSTORE PUSH1 0x1 PUSH1 0xA0 PUSH1 0x2 EXP SUB SWAP3 DUP4 AND SWAP7 SWAP3 AND SWAP5 SWAP3 SWAP4 SWAP1 SWAP3 SWAP1 SWAP2 DUP4 ADD DUP3 DUP3 DUP1 ISZERO PUSH2 0x5B5 JUMPI DUP1 PUSH1 0x1F LT PUSH2 0x58A JUMPI PUSH2 0x100 DUP1 DUP4 SLOAD DIV MUL DUP4 MSTORE SWAP2 PUSH1 0x20 ADD SWAP2 PUSH2 0x5B5 JUMP JUMPDEST DUP3 ADD SWAP2 SWAP1 PUSH1 0x0 MSTORE PUSH1 0x20 PUSH1 0x0 KECCAK256 SWAP1 JUMPDEST DUP2 SLOAD DUP2 MSTORE SWAP1 PUSH1 0x1 ADD SWAP1 PUSH1 0x20 ADD DUP1 DUP4 GT PUSH2 0x598 JUMPI DUP3 SWAP1 SUB PUSH1 0x1F AND DUP3 ADD SWAP2 JUMPDEST POP POP POP PUSH1 0x3 SWAP1 SWAP4 ADD SLOAD SWAP2 SWAP3 POP POP PUSH1 0xFF AND DUP5 JUMP JUMPDEST CALLER PUSH1 0x0 SWAP1 DUP2 MSTORE PUSH1 0x2 PUSH1 0x20 SWAP1 DUP2 MSTORE PUSH1 0x40 DUP1 DUP4 KECCAK256 PUSH1 0x1 PUSH1 0xA0 PUSH1 0x2 EXP SUB DUP7 AND DUP5 MSTORE SWAP1 SWAP2 MSTORE DUP2 KECCAK256 PUSH1 0x3 DUP2 ADD SLOAD PUSH1 0xFF AND PUSH1 0x4 EQ ISZERO PUSH2 0x600 JUMPI PUSH1 0x0 DUP1 REVERT JUMPDEST DUP1 SLOAD CALLER PUSH20 0xFFFFFFFFFFFFFFFFFFFFFFFFFFFFFFFFFFFFFFFF NOT SWAP2 DUP3 AND OR DUP3 SSTORE PUSH1 0x1 DUP3 ADD DUP1 SLOAD SWAP1 SWAP2 AND PUSH1 0x1 PUSH1 0xA0 PUSH1 0x2 EXP SUB DUP7 AND OR SWAP1 SSTORE DUP3 MLOAD PUSH2 0x64A SWAP1 PUSH1 0x2 DUP4 ADD SWAP1 PUSH1 0x20 DUP7 ADD SWAP1 PUSH2 0xA47 JUMP JUMPDEST POP PUSH1 0x3 DUP2 ADD DUP1 SLOAD PUSH1 0xFF NOT AND PUSH1 0x1 OR SWAP1 SSTORE PUSH1 0x40 MLOAD PUSH1 0x1 PUSH1 0xA0 PUSH1 0x2 EXP SUB DUP6 AND SWAP1 CALLER SWAP1 PUSH32 0x98ADA70A1CB506DC4591465E1EE9BE3FD7A2B6C73ECF3B949009718C9A351519 SWAP1 PUSH1 0x0 SWAP1 LOG3 POP PUSH1 0x1 SWAP4 SWAP3 POP POP POP JUMP JUMPDEST PUSH1 0x0 SLOAD PUSH1 0x1 PUSH1 0xA0 PUSH1 0x2 EXP SUB AND CALLER EQ PUSH2 0x6B1 JUMPI PUSH1 0x0 DUP1 REVERT JUMPDEST PUSH1 0x1 PUSH1 0xA0 PUSH1 0x2 EXP SUB DUP2 AND PUSH1 0x0 DUP2 DUP2 MSTORE PUSH1 0x1 PUSH1 0x20 DUP2 SWAP1 MSTORE PUSH1 0x40 DUP1 DUP4 KECCAK256 DUP1 SLOAD PUSH1 0xFF NOT AND SWAP1 SWAP3 OR SWAP1 SWAP2 SSTORE MLOAD PUSH32 0x13380AD6C58C6A2855A70FD3970B4FE598E8B60A683408EC8A5896B680188ACD SWAP2 SWAP1 LOG2 POP JUMP JUMPDEST PUSH1 0x0 SLOAD PUSH1 0x1 PUSH1 0xA0 PUSH1 0x2 EXP SUB AND DUP2 JUMP JUMPDEST PUSH1 0x0 SLOAD PUSH1 0x1 PUSH1 0xA0 PUSH1 0x2 EXP SUB AND CALLER EQ PUSH2 0x726 JUMPI PUSH1 0x0 DUP1 REVERT JUMPDEST PUSH1 0x1 PUSH1 0xA0 PUSH1 0x2 EXP SUB DUP2 AND PUSH1 0x0 DUP2 DUP2 MSTORE PUSH1 0x1 PUSH1 0x20 MSTORE PUSH1 0x40 DUP1 DUP3 KECCAK256 DUP1 SLOAD PUSH1 0xFF NOT AND SWAP1 SSTORE MLOAD PUSH32 0x7D9CE70F39C0D594D373D4B779781839DE1DEBEDA94CBB04501BC0773A1199EB SWAP2 SWAP1 LOG2 POP JUMP JUMPDEST PUSH1 0x1 PUSH1 0xA0 PUSH1 0x2 EXP SUB DUP1 DUP3 AND PUSH1 0x0 SWAP1 DUP2 MSTORE PUSH1 0x2 PUSH1 0x20 SWAP1 DUP2 MSTORE PUSH1 0x40 DUP1 DUP4 KECCAK256 CALLER DUP5 MSTORE SWAP1 SWAP2 MSTORE DUP2 KECCAK256 DUP1 SLOAD SWAP2 SWAP3 SWAP1 SWAP2 AND ISZERO ISZERO PUSH2 0x7A5 JUMPI PUSH1 0x0 DUP1 REVERT JUMPDEST PUSH1 0x3 DUP2 ADD DUP1 SLOAD PUSH1 0xFF NOT AND PUSH1 0x4 OR SWAP1 SSTORE PUSH1 0x40 MLOAD CALLER SWAP1 PUSH1 0x1 PUSH1 0xA0 PUSH1 0x2 EXP SUB DUP6 AND SWAP1 PUSH32 0xA2E41BA1E2F9FC982DA929C3AD5FD34DEC5549D93B345C0E05D276E965567D20 SWAP1 PUSH1 0x0 SWAP1 LOG3 POP PUSH1 0x1 SWAP3 SWAP2 POP POP JUMP JUMPDEST PUSH1 0x1 PUSH1 0xA0 PUSH1 0x2 EXP SUB DUP1 DUP3 AND PUSH1 0x0 SWAP1 DUP2 MSTORE PUSH1 0x2 PUSH1 0x20 SWAP1 DUP2 MSTORE PUSH1 0x40 DUP1 DUP4 KECCAK256 CALLER DUP5 MSTORE SWAP1 SWAP2 MSTORE DUP2 KECCAK256 DUP1 SLOAD SWAP2 SWAP3 SWAP1 SWAP2 AND ISZERO ISZERO PUSH2 0x829 JUMPI PUSH1 0x0 DUP1 REVERT JUMPDEST PUSH1 0x3 DUP2 ADD DUP1 SLOAD PUSH1 0xFF NOT AND PUSH1 0x2 OR SWAP1 SSTORE PUSH1 0x40 MLOAD CALLER SWAP1 PUSH1 0x1 PUSH1 0xA0 PUSH1 0x2 EXP SUB DUP6 AND SWAP1 PUSH32 0x3CE2DA1DAF10AA0A28578B70FE768ED2F390A3DA82445358F9346FBC2981F6FD SWAP1 PUSH1 0x0 SWAP1 LOG3 POP PUSH1 0x1 SWAP3 SWAP2 POP POP JUMP JUMPDEST PUSH1 0x1 PUSH1 0xA0 PUSH1 0x2 EXP SUB DUP1 DUP3 AND PUSH1 0x0 SWAP1 DUP2 MSTORE PUSH1 0x2 PUSH1 0x20 SWAP1 DUP2 MSTORE PUSH1 0x40 DUP1 DUP4 KECCAK256 CALLER DUP5 MSTORE SWAP1 SWAP2 MSTORE DUP2 KECCAK256 DUP1 SLOAD SWAP2 SWAP3 SWAP1 SWAP2 AND ISZERO ISZERO PUSH2 0x8AD JUMPI PUSH1 0x0 DUP1 REVERT JUMPDEST PUSH1 0x3 DUP2 DUP2 ADD DUP1 SLOAD PUSH1 0xFF NOT AND SWAP1 SWAP2 OR SWAP1 SSTORE PUSH1 0x40 MLOAD CALLER SWAP1 PUSH1 0x1 PUSH1 0xA0 PUSH1 0x2 EXP SUB DUP6 AND SWAP1 PUSH32 0x8F36FB45D3E543B9AD3331C27905990A1A08F4895D6A9DEBD2659DD744C12F13 SWAP1 PUSH1 0x0 SWAP1 LOG3 POP PUSH1 0x1 SWAP3 SWAP2 POP POP JUMP JUMPDEST PUSH1 0x0 SLOAD PUSH1 0x1 PUSH1 0xA0 PUSH1 0x2 EXP SUB AND CALLER EQ PUSH2 0x913 JUMPI PUSH1 0x0 DUP1 REVERT JUMPDEST PUSH1 0x1 PUSH1 0xA0 PUSH1 0x2 EXP SUB DUP2 AND ISZERO ISZERO PUSH2 0x928 JUMPI PUSH1 0x0 DUP1 REVERT JUMPDEST PUSH1 0x0 DUP1 SLOAD PUSH1 0x40 MLOAD PUSH1 0x1 PUSH1 0xA0 PUSH1 0x2 EXP SUB DUP1 DUP6 AND SWAP4 SWAP3 AND SWAP2 PUSH32 0x8BE0079C531659141344CD1FD0A4F28419497F9722A3DAAFE3B4186F6B6457E0 SWAP2 LOG3 PUSH1 0x0 DUP1 SLOAD PUSH20 0xFFFFFFFFFFFFFFFFFFFFFFFFFFFFFFFFFFFFFFFF NOT AND PUSH1 0x1 PUSH1 0xA0 PUSH1 0x2 EXP SUB SWAP3 SWAP1 SWAP3 AND SWAP2 SWAP1 SWAP2 OR SWAP1 SSTORE JUMP JUMPDEST PUSH1 0x1 PUSH1 0xA0 PUSH1 0x2 EXP SUB AND PUSH1 0x0 SWAP1 DUP2 MSTORE PUSH1 0x1 PUSH1 0x20 MSTORE PUSH1 0x40 SWAP1 KECCAK256 SLOAD PUSH1 0xFF AND SWAP1 JUMP JUMPDEST PUSH1 0x1 PUSH1 0xA0 PUSH1 0x2 EXP SUB DUP1 DUP3 AND PUSH1 0x0 SWAP1 DUP2 MSTORE PUSH1 0x2 PUSH1 0x20 SWAP1 DUP2 MSTORE PUSH1 0x40 DUP1 DUP4 KECCAK256 CALLER DUP5 MSTORE SWAP1 SWAP2 MSTORE DUP2 KECCAK256 DUP1 SLOAD SWAP2 SWAP3 SWAP1 SWAP2 AND ISZERO ISZERO PUSH2 0x9E4 JUMPI PUSH1 0x0 DUP1 REVERT JUMPDEST PUSH1 0x3 DUP2 ADD DUP1 SLOAD PUSH1 0xFF NOT AND PUSH1 0x1 OR SWAP1 SSTORE PUSH1 0x40 MLOAD CALLER SWAP1 PUSH1 0x1 PUSH1 0xA0 PUSH1 0x2 EXP SUB DUP6 AND SWAP1 PUSH32 0xB0A24D625A3D04A04108C98B7722DB25E9435210D27050369082689178D4F1DB SWAP1 PUSH1 0x0 SWAP1 LOG3 POP PUSH1 0x1 SWAP3 SWAP2 POP POP JUMP JUMPDEST PUSH1 0x1 PUSH1 0x20 MSTORE PUSH1 0x0 SWAP1 DUP2 MSTORE PUSH1 0x40 SWAP1 KECCAK256 SLOAD PUSH1 0xFF AND DUP2 JUMP JUMPDEST DUP3 DUP1 SLOAD PUSH1 0x1 DUP2 PUSH1 0x1 AND ISZERO PUSH2 0x100 MUL SUB AND PUSH1 0x2 SWAP1 DIV SWAP1 PUSH1 0x0 MSTORE PUSH1 0x20 PUSH1 0x0 KECCAK256 SWAP1 PUSH1 0x1F ADD PUSH1 0x20 SWAP1 DIV DUP2 ADD SWAP3 DUP3 PUSH1 0x1F LT PUSH2 0xA88 JUMPI DUP1 MLOAD PUSH1 0xFF NOT AND DUP4 DUP1 ADD OR DUP6 SSTORE PUSH2 0xAB5 JUMP JUMPDEST DUP3 DUP1 ADD PUSH1 0x1 ADD DUP6 SSTORE DUP3 ISZERO PUSH2 0xAB5 JUMPI SWAP2 DUP3 ADD JUMPDEST DUP3 DUP2 GT ISZERO PUSH2 0xAB5 JUMPI DUP3 MLOAD DUP3 SSTORE SWAP2 PUSH1 0x20 ADD SWAP2 SWAP1 PUSH1 0x1 ADD SWAP1 PUSH2 0xA9A JUMP JUMPDEST POP PUSH2 0xAC1 SWAP3 SWAP2 POP PUSH2 0xAC5 JUMP JUMPDEST POP SWAP1 JUMP JUMPDEST PUSH2 0xADF SWAP2 SWAP1 JUMPDEST DUP1 DUP3 GT ISZERO PUSH2 0xAC1 JUMPI PUSH1 0x0 DUP2 SSTORE PUSH1 0x1 ADD PUSH2 0xACB JUMP JUMPDEST SWAP1 JUMP STOP LOG1 PUSH6 0x627A7A723058 KECCAK256 ADD 0xce DUP6 0xbd 0x5e PUSH13 0x85A2954E6C2F03A5C9066FEAE JUMPI 0x5f ADD 0xb7 POP 0xb1 0xb6 LOG4 PUSH23 0x3B7FC6EE00290000000000000000000000000000000000 ",
  "sha1": "9987fcd48e7a25a2ebb3beb1ce7270d64e681a04",
  "source": "pragma solidity ^0.4.24;\n\nimport \"./Ownable.sol\";\n\n\n/// @title DvP Agent Contract\ncontract PaymentGateway is Ownable {\n\n    /// 支払用口座情報\n    struct PaymentAccount {\n        address account_address; // アカウントアドレス\n        address agent_address; // 収納代行業者（Agent）のアドレス\n        string encrypted_info; // 銀行口座情報（暗号化済）\n        uint8 approval_status; // 認可状況（NONE(0)/NG(1)/OK(2)/WARN(3)/BAN(4)）\n    }\n\n    /// 収納代行業者（Agent）\n    /// agent_address => 登録状況\n    mapping(address => bool) public agents;\n\n    ///支払用口座情報\n    /// account_address => agent_address => PaymentAccount\n    mapping(address => mapping(address => PaymentAccount)) public payment_accounts;\n\n    /// イベント：収納代行業者追加\n    event AddAgent(address indexed agent_address);\n\n    /// イベント：収納代行業者削除\n    event RemoveAgent(address indexed agent_address);\n\n    /// イベント：登録\n    event Register(address indexed account_address, address indexed agent_address);\n\n    /// イベント：承認\n    event Approve(address indexed account_address, address indexed agent_address);\n\n    /// イベント：警告\n    event Warn(address indexed account_address, address indexed agent_address);\n\n    /// イベント：非承認\n    event Unapprove(address indexed account_address, address indexed agent_address);\n\n    /// イベント：アカウント停止（BAN）\n    event Ban(address indexed account_address, address indexed agent_address);\n\n    /// イベント：修正\n    event Modify(address indexed account_address, address indexed agent_address);\n\n    /// [CONSTRUCTOR]\n    constructor() public {}\n\n    /// @notice 収納代行業者の追加\n    /// @dev オーナーのみ実行可能\n    /// @param _agent_address 収納代行業者のアドレス\n    function addAgent(address _agent_address)\n        public\n        onlyOwner()\n    {\n        agents[_agent_address] = true;\n        emit AddAgent(_agent_address);\n    }\n\n    /// @notice 収納代行業者の削除\n    /// @dev オーナーのみ実行可能\n    /// @param _agent_address 収納代行業者のアドレス\n    function removeAgent(address _agent_address)\n        public\n        onlyOwner()\n    {\n        agents[_agent_address] = false;\n        emit RemoveAgent(_agent_address);\n    }\n\n    /// @notice 収納代行業者の登録状態\n    /// @param _agent_address 収納代行業者のアドレス\n    /// @return 登録状態\n    function getAgent(address _agent_address)\n        public\n        view\n        returns (bool)\n    {\n        return agents[_agent_address];\n    }\n\n    /// @notice 支払用口座情報の登録\n    /// @dev ２回目以降は上書き登録を行う\n    /// @param _agent_address 収納代行業者のアドレス\n    /// @param _encrypted_info 銀行口座情報（暗号化済）\n    /// @return 処理結果\n    function register(address _agent_address, string memory _encrypted_info)\n        public\n        returns (bool)\n    {\n        PaymentAccount storage payment_account = payment_accounts[msg.sender][_agent_address];\n        require(payment_account.approval_status != 4);\n\n        // 口座情報の登録\n        payment_account.account_address = msg.sender;\n        payment_account.agent_address = _agent_address;\n        payment_account.encrypted_info = _encrypted_info;\n        payment_account.approval_status = 1;\n\n        emit Register(msg.sender, _agent_address);\n        return true;\n    }\n\n    /// @notice 支払用口座情報の承認\n    /// @param _account_address アカウントアドレス\n    /// @return 処理結果\n    function approve(address _account_address)\n        public\n        returns (bool)\n    {\n        PaymentAccount storage payment_account = payment_accounts[_account_address][msg.sender];\n        require(payment_account.account_address != address(0));\n\n        payment_account.approval_status = 2;\n\n        emit Approve(_account_address, msg.sender);\n        return true;\n    }\n\n    /// @notice 支払用口座情報を警告状態にする\n    /// @param _account_address アカウントアドレス\n    /// @return 処理結果\n    function warn(address _account_address)\n        public\n        returns (bool)\n    {\n        PaymentAccount storage payment_account = payment_accounts[_account_address][msg.sender];\n        require(payment_account.account_address != address(0));\n\n        payment_account.approval_status = 3;\n\n        emit Warn(_account_address, msg.sender);\n        return true;\n    }\n\n    /// @notice 支払用口座情報を非承認状態にする\n    /// @param _account_address アカウントアドレス\n    /// @return 処理結果\n    function unapprove(address _account_address)\n        public\n        returns (bool)\n    {\n        PaymentAccount storage payment_account = payment_accounts[_account_address][msg.sender];\n        require(payment_account.account_address != address(0));\n\n        payment_account.approval_status = 1;\n\n        emit Unapprove(_account_address, msg.sender);\n        return true;\n    }\n\n    /// @notice 支払用口座情報を停止状態にする\n    /// @param _account_address アカウントアドレス\n    /// @return 処理結果\n    function ban(address _account_address)\n        public\n        returns (bool)\n    {\n        PaymentAccount storage payment_account = payment_accounts[_account_address][msg.sender];\n        require(payment_account.account_address != address(0));\n\n        payment_account.approval_status = 4;\n\n        emit Ban(_account_address, msg.sender);\n        return true;\n    }\n\n    /// @notice アカウントの承認状態を返却する\n    /// @param _account_address アカウントアドレス\n    /// @param _agent_address 収納代行業者のアドレス\n    /// @return 承認状態\n    function accountApproved(address _account_address, address _agent_address)\n        public\n        view\n        returns (bool)\n    {\n        PaymentAccount storage payment_account = payment_accounts[_account_address][_agent_address];\n        // アカウントが登録済み、かつ承認済みである場合、trueを返す\n        if (payment_account.account_address != address(0) &&\n        payment_account.approval_status == 2)\n        {\n            return true;\n        } else {\n            return false;\n        }\n    }\n\n    /// @notice 支払用口座情報の修正\n    /// @dev 収納代行業者による修正。口座登録アカウントによる修正はregister()を使う。\n    /// この関数では認可状況の更新は行わない。\n    /// @param _account_address 銀行口座情報登録アカウントアドレス\n    /// @param _encrypted_info 銀行口座情報（暗号化済）\n    /// @return 処理結果\n    function modify(address _account_address, string memory _encrypted_info)\n        public\n        returns (bool)\n    {\n        PaymentAccount storage payment_account = payment_accounts[_account_address][msg.sender];\n\n        // 登録済みか確認\n        require(payment_account.account_address != address(0));\n\n        payment_account.encrypted_info = _encrypted_info;\n\n        emit Modify(_account_address, msg.sender);\n        return true;\n    }\n}\n",
  "sourcePath": "contracts/PaymentGateway.sol",
  "type": "contract"
}