{
  "abi": [
    {
      "constant": true,
      "inputs": [
        {
          "name": "",
          "type": "address"
        },
        {
          "name": "",
          "type": "address"
        }
      ],
      "name": "personal_info",
      "outputs": [
        {
          "name": "account_address",
          "type": "address"
        },
        {
          "name": "link_address",
          "type": "address"
        },
        {
          "name": "encrypted_info",
          "type": "string"
        }
      ],
      "payable": false,
      "stateMutability": "view",
      "type": "function"
    },
    {
      "constant": false,
      "inputs": [
        {
          "name": "_account_address",
          "type": "address"
        },
        {
          "name": "_encrypted_info",
          "type": "string"
        }
      ],
      "name": "modify",
      "outputs": [
        {
          "name": "",
          "type": "bool"
        }
      ],
      "payable": false,
      "stateMutability": "nonpayable",
      "type": "function"
    },
    {
      "constant": false,
      "inputs": [
        {
          "name": "_link_address",
          "type": "address"
        },
        {
          "name": "_encrypted_info",
          "type": "string"
        }
      ],
      "name": "register",
      "outputs": [
        {
          "name": "",
          "type": "bool"
        }
      ],
      "payable": false,
      "stateMutability": "nonpayable",
      "type": "function"
    },
    {
      "constant": true,
      "inputs": [
        {
          "name": "_account_address",
          "type": "address"
        },
        {
          "name": "_link_address",
          "type": "address"
        }
      ],
      "name": "isRegistered",
      "outputs": [
        {
          "name": "",
          "type": "bool"
        }
      ],
      "payable": false,
      "stateMutability": "view",
      "type": "function"
    },
    {
      "inputs": [],
      "payable": false,
      "stateMutability": "nonpayable",
      "type": "constructor"
    },
    {
      "anonymous": false,
      "inputs": [
        {
          "indexed": true,
          "name": "account_address",
          "type": "address"
        },
        {
          "indexed": true,
          "name": "link_address",
          "type": "address"
        }
      ],
      "name": "Register",
      "type": "event"
    },
    {
      "anonymous": false,
      "inputs": [
        {
          "indexed": true,
          "name": "account_address",
          "type": "address"
        },
        {
          "indexed": true,
          "name": "link_address",
          "type": "address"
        }
      ],
      "name": "Modify",
      "type": "event"
    }
  ],
  "bytecode": "608060405234801561001057600080fd5b50610559806100206000396000f3006080604052600436106100615763ffffffff7c01000000000000000000000000000000000000000000000000000000006000350416631cd0cb0181146100665780632da69e311461013757806332434a2e146101b2578063d3da927f14610219575b600080fd5b34801561007257600080fd5b5061008d600160a060020a0360043581169060243516610240565b6040518084600160a060020a0316600160a060020a0316815260200183600160a060020a0316600160a060020a0316815260200180602001828103825283818151815260200191508051906020019080838360005b838110156100fa5781810151838201526020016100e2565b50505050905090810190601f1680156101275780820380516001836020036101000a031916815260200191505b5094505050505060405180910390f35b34801561014357600080fd5b5060408051602060046024803582810135601f810185900485028601850190965285855261019e958335600160a060020a03169536956044949193909101919081908401838280828437509497506103009650505050505050565b604080519115158252519081900360200190f35b3480156101be57600080fd5b5060408051602060046024803582810135601f810185900485028601850190965285855261019e958335600160a060020a03169536956044949193909101919081908401838280828437509497506103a59650505050505050565b34801561022557600080fd5b5061019e600160a060020a036004358116906024351661044f565b60006020818152928152604080822084529181528190208054600180830154600280850180548751601f60001996831615610100029690960190911692909204938401889004880282018801909652828152600160a060020a0393841696919093169491908301828280156102f65780601f106102cb576101008083540402835291602001916102f6565b820191906000526020600020905b8154815290600101906020018083116102d957829003601f168201915b5050505050905083565b600160a060020a03808316600081815260208181526040808320338452909152812080549193909291161461033457600080fd5b6001810154600160a060020a0316331461034d57600080fd5b82516103629060028301906020860190610492565b506040513390600160a060020a038616907f30cf834ac139c2468c2c3d0668857dfb51c9565a19b4dd90ac9f7600c753463390600090a3600191505b5092915050565b33600081815260208181526040808320600160a060020a038716808552908352908320805473ffffffffffffffffffffffffffffffffffffffff199081169095178155600181018054909516909117909355835191929161040e91600284019190860190610492565b50604051600160a060020a0385169033907f98ada70a1cb506dc4591465e1ee9be3fd7a2b6c73ecf3b949009718c9a35151990600090a35060019392505050565b600160a060020a0380831660009081526020818152604080832085851684529091528120805491929091161515610489576000915061039e565b6001915061039e565b828054600181600116156101000203166002900490600052602060002090601f016020900481019282601f106104d357805160ff1916838001178555610500565b82800160010185558215610500579182015b828111156105005782518255916020019190600101906104e5565b5061050c929150610510565b5090565b61052a91905b8082111561050c5760008155600101610516565b905600a165627a7a72305820e36b9ec3abc1f22e23097cdf5134d14ee37241f03e3430fe221ab8fa507425600029",
  "bytecodeSha1": "57289ce7b08f9524479af51eab319e1d03a500c1",
  "compiler": {
    "evm_version": "byzantium",
    "optimizer": {
      "enabled": true,
      "runs": 200
    },
    "version": "0.4.25"
  },
  "contractName": "PersonalInfo",
  "language": "Solidity",
  "natspec": {
    "methods": {
      "isRegistered(address,address)": {
        "notice": "登録状況の確認",
        "params": {
          "_account_address": "アカウントアドレス",
          "_link_address": "通知先アドレス"
        },
        "return": "登録状況"
      },
      "modify(address,string)": {
        "details": "個人情報通知先アカウントによる修正。通知元アカウントによる修正はregister()を使う。",
        "notice": "個人情報を修正する。",
        "params": {
          "_account_address": "個人情報通知元アカウントアドレス",
          "_encrypted_info": "暗号化済個人情報"
        },
        "return": "処理結果"
      },
      "register(address,string)": {
        "notice": "個人情報を登録する",
        "params": {
          "_encrypted_info": "暗号化済個人情報",
          "_link_address": "通知先アドレス"
        },
        "return": "処理結果"
      }
    },
    "title": "Personal Information Registry"
  },
  "opcodes": "PUSH1 0x80 PUSH1 0x40 MSTORE PUSH1 0x4 CALLDATASIZE LT PUSH2 0x61 JUMPI PUSH4 0xFFFFFFFF PUSH29 0x100000000000000000000000000000000000000000000000000000000 PUSH1 0x0 CALLDATALOAD DIV AND PUSH4 0x1CD0CB01 DUP2 EQ PUSH2 0x66 JUMPI DUP1 PUSH4 0x2DA69E31 EQ PUSH2 0x137 JUMPI DUP1 PUSH4 0x32434A2E EQ PUSH2 0x1B2 JUMPI DUP1 PUSH4 0xD3DA927F EQ PUSH2 0x219 JUMPI JUMPDEST PUSH1 0x0 DUP1 REVERT JUMPDEST CALLVALUE DUP1 ISZERO PUSH2 0x72 JUMPI PUSH1 0x0 DUP1 REVERT JUMPDEST POP PUSH2 0x8D PUSH1 0x1 PUSH1 0xA0 PUSH1 0x2 EXP SUB PUSH1 0x4 CALLDATALOAD DUP2 AND SWAP1 PUSH1 0x24 CALLDATALOAD AND PUSH2 0x240 JUMP JUMPDEST PUSH1 0x40 MLOAD DUP1 DUP5 PUSH1 0x1 PUSH1 0xA0 PUSH1 0x2 EXP SUB AND PUSH1 0x1 PUSH1 0xA0 PUSH1 0x2 EXP SUB AND DUP2 MSTORE PUSH1 0x20 ADD DUP4 PUSH1 0x1 PUSH1 0xA0 PUSH1 0x2 EXP SUB AND PUSH1 0x1 PUSH1 0xA0 PUSH1 0x2 EXP SUB AND DUP2 MSTORE PUSH1 0x20 ADD DUP1 PUSH1 0x20 ADD DUP3 DUP2 SUB DUP3 MSTORE DUP4 DUP2 DUP2 MLOAD DUP2 MSTORE PUSH1 0x20 ADD SWAP2 POP DUP1 MLOAD SWAP1 PUSH1 0x20 ADD SWAP1 DUP1 DUP4 DUP4 PUSH1 0x0 JUMPDEST DUP4 DUP2 LT ISZERO PUSH2 0xFA JUMPI DUP2 DUP2 ADD MLOAD DUP4 DUP3 ADD MSTORE PUSH1 0x20 ADD PUSH2 0xE2 JUMP JUMPDEST POP POP POP POP SWAP1 POP SWAP1 DUP2 ADD SWAP1 PUSH1 0x1F AND DUP1 ISZERO PUSH2 0x127 JUMPI DUP1 DUP3 SUB DUP1 MLOAD PUSH1 0x1 DUP4 PUSH1 0x20 SUB PUSH2 0x100 EXP SUB NOT AND DUP2 MSTORE PUSH1 0x20 ADD SWAP2 POP JUMPDEST POP SWAP5 POP POP POP POP POP PUSH1 0x40 MLOAD DUP1 SWAP2 SUB SWAP1 RETURN JUMPDEST CALLVALUE DUP1 ISZERO PUSH2 0x143 JUMPI PUSH1 0x0 DUP1 REVERT JUMPDEST POP PUSH1 0x40 DUP1 MLOAD PUSH1 0x20 PUSH1 0x4 PUSH1 0x24 DUP1 CALLDATALOAD DUP3 DUP2 ADD CALLDATALOAD PUSH1 0x1F DUP2 ADD DUP6 SWAP1 DIV DUP6 MUL DUP7 ADD DUP6 ADD SWAP1 SWAP7 MSTORE DUP6 DUP6 MSTORE PUSH2 0x19E SWAP6 DUP4 CALLDATALOAD PUSH1 0x1 PUSH1 0xA0 PUSH1 0x2 EXP SUB AND SWAP6 CALLDATASIZE SWAP6 PUSH1 0x44 SWAP5 SWAP2 SWAP4 SWAP1 SWAP2 ADD SWAP2 SWAP1 DUP2 SWAP1 DUP5 ADD DUP4 DUP3 DUP1 DUP3 DUP5 CALLDATACOPY POP SWAP5 SWAP8 POP PUSH2 0x300 SWAP7 POP POP POP POP POP POP POP JUMP JUMPDEST PUSH1 0x40 DUP1 MLOAD SWAP2 ISZERO ISZERO DUP3 MSTORE MLOAD SWAP1 DUP2 SWAP1 SUB PUSH1 0x20 ADD SWAP1 RETURN JUMPDEST CALLVALUE DUP1 ISZERO PUSH2 0x1BE JUMPI PUSH1 0x0 DUP1 REVERT JUMPDEST POP PUSH1 0x40 DUP1 MLOAD PUSH1 0x20 PUSH1 0x4 PUSH1 0x24 DUP1 CALLDATALOAD DUP3 DUP2 ADD CALLDATALOAD PUSH1 0x1F DUP2 ADD DUP6 SWAP1 DIV DUP6 MUL DUP7 ADD DUP6 ADD SWAP1 SWAP7 MSTORE DUP6 DUP6 MSTORE PUSH2 0x19E SWAP6 DUP4 CALLDATALOAD PUSH1 0x1 PUSH1 0xA0 PUSH1 0x2 EXP SUB AND SWAP6 CALLDATASIZE SWAP6 PUSH1 0x44 SWAP5 SWAP2 SWAP4 SWAP1 SWAP2 ADD SWAP2 SWAP1 DUP2 SWAP1 DUP5 ADD DUP4 DUP3 DUP1 DUP3 DUP5 CALLDATACOPY POP SWAP5 SWAP8 POP PUSH2 0x3A5 SWAP7 POP POP POP POP POP POP POP JUMP JUMPDEST CALLVALUE DUP1 ISZERO PUSH2 0x225 JUMPI PUSH1 0x0 DUP1 REVERT JUMPDEST POP PUSH2 0x19E PUSH1 0x1 PUSH1 0xA0 PUSH1 0x2 EXP SUB PUSH1 0x4 CALLDATALOAD DUP2 AND SWAP1 PUSH1 0x24 CALLDATALOAD AND PUSH2 0x44F JUMP JUMPDEST PUSH1 0x0 PUSH1 0x20 DUP2 DUP2 MSTORE SWAP3 DUP2 MSTORE PUSH1 0x40 DUP1 DUP3 KECCAK256 DUP5 MSTORE SWAP2 DUP2 MSTORE DUP2 SWAP1 KECCAK256 DUP1 SLOAD PUSH1 0x1 DUP1 DUP4 ADD SLOAD PUSH1 0x2 DUP1 DUP6 ADD DUP1 SLOAD DUP8 MLOAD PUSH1 0x1F PUSH1 0x0 NOT SWAP7 DUP4 AND ISZERO PUSH2 0x100 MUL SWAP7 SWAP1 SWAP7 ADD SWAP1 SWAP2 AND SWAP3 SWAP1 SWAP3 DIV SWAP4 DUP5 ADD DUP9 SWAP1 DIV DUP9 MUL DUP3 ADD DUP9 ADD SWAP1 SWAP7 MSTORE DUP3 DUP2 MSTORE PUSH1 0x1 PUSH1 0xA0 PUSH1 0x2 EXP SUB SWAP4 DUP5 AND SWAP7 SWAP2 SWAP1 SWAP4 AND SWAP5 SWAP2 SWAP1 DUP4 ADD DUP3 DUP3 DUP1 ISZERO PUSH2 0x2F6 JUMPI DUP1 PUSH1 0x1F LT PUSH2 0x2CB JUMPI PUSH2 0x100 DUP1 DUP4 SLOAD DIV MUL DUP4 MSTORE SWAP2 PUSH1 0x20 ADD SWAP2 PUSH2 0x2F6 JUMP JUMPDEST DUP3 ADD SWAP2 SWAP1 PUSH1 0x0 MSTORE PUSH1 0x20 PUSH1 0x0 KECCAK256 SWAP1 JUMPDEST DUP2 SLOAD DUP2 MSTORE SWAP1 PUSH1 0x1 ADD SWAP1 PUSH1 0x20 ADD DUP1 DUP4 GT PUSH2 0x2D9 JUMPI DUP3 SWAP1 SUB PUSH1 0x1F AND DUP3 ADD SWAP2 JUMPDEST POP POP POP POP POP SWAP1 POP DUP4 JUMP JUMPDEST PUSH1 0x1 PUSH1 0xA0 PUSH1 0x2 EXP SUB DUP1 DUP4 AND PUSH1 0x0 DUP2 DUP2 MSTORE PUSH1 0x20 DUP2 DUP2 MSTORE PUSH1 0x40 DUP1 DUP4 KECCAK256 CALLER DUP5 MSTORE SWAP1 SWAP2 MSTORE DUP2 KECCAK256 DUP1 SLOAD SWAP2 SWAP4 SWAP1 SWAP3 SWAP2 AND EQ PUSH2 0x334 JUMPI PUSH1 0x0 DUP1 REVERT JUMPDEST PUSH1 0x1 DUP2 ADD SLOAD PUSH1 0x1 PUSH1 0xA0 PUSH1 0x2 EXP SUB AND CALLER EQ PUSH2 0x34D JUMPI PUSH1 0x0 DUP1 REVERT JUMPDEST DUP3 MLOAD PUSH2 0x362 SWAP1 PUSH1 0x2 DUP4 ADD SWAP1 PUSH1 0x20 DUP7 ADD SWAP1 PUSH2 0x492 JUMP JUMPDEST POP PUSH1 0x40 MLOAD CALLER SWAP1 PUSH1 0x1 PUSH1 0xA0 PUSH1 0x2 EXP SUB DUP7 AND SWAP1 PUSH32 0x30CF834AC139C2468C2C3D0668857DFB51C9565A19B4DD90AC9F7600C7534633 SWAP1 PUSH1 0x0 SWAP1 LOG3 PUSH1 0x1 SWAP2 POP JUMPDEST POP SWAP3 SWAP2 POP POP JUMP JUMPDEST CALLER PUSH1 0x0 DUP2 DUP2 MSTORE PUSH1 0x20 DUP2 DUP2 MSTORE PUSH1 0x40 DUP1 DUP4 KECCAK256 PUSH1 0x1 PUSH1 0xA0 PUSH1 0x2 EXP SUB DUP8 AND DUP1 DUP6 MSTORE SWAP1 DUP4 MSTORE SWAP1 DUP4 KECCAK256 DUP1 SLOAD PUSH20 0xFFFFFFFFFFFFFFFFFFFFFFFFFFFFFFFFFFFFFFFF NOT SWAP1 DUP2 AND SWAP1 SWAP6 OR DUP2 SSTORE PUSH1 0x1 DUP2 ADD DUP1 SLOAD SWAP1 SWAP6 AND SWAP1 SWAP2 OR SWAP1 SWAP4 SSTORE DUP4 MLOAD SWAP2 SWAP3 SWAP2 PUSH2 0x40E SWAP2 PUSH1 0x2 DUP5 ADD SWAP2 SWAP1 DUP7 ADD SWAP1 PUSH2 0x492 JUMP JUMPDEST POP PUSH1 0x40 MLOAD PUSH1 0x1 PUSH1 0xA0 PUSH1 0x2 EXP SUB DUP6 AND SWAP1 CALLER SWAP1 PUSH32 0x98ADA70A1CB506DC4591465E1EE9BE3FD7A2B6C73ECF3B949009718C9A351519 SWAP1 PUSH1 0x0 SWAP1 LOG3 POP PUSH1 0x1 SWAP4 SWAP3 POP POP POP JUMP JUMPDEST PUSH1 0x1 PUSH1 0xA0 PUSH1 0x2 EXP SUB DUP1 DUP4 AND PUSH1 0x0 SWAP1 DUP2 MSTORE PUSH1 0x20 DUP2 DUP2 MSTORE PUSH1 0x40 DUP1 DUP4 KECCAK256 DUP6 DUP6 AND DUP5 MSTORE SWAP1 SWAP2 MSTORE DUP2 KECCAK256 DUP1 SLOAD SWAP2 SWAP3 SWAP1 SWAP2 AND ISZERO ISZERO PUSH2 0x489 JUMPI PUSH1 0x0 SWAP2 POP PUSH2 0x39E JUMP JUMPDEST PUSH1 0x1 SWAP2 POP PUSH2 0x39E JUMP JUMPDEST DUP3 DUP1 SLOAD PUSH1 0x1 DUP2 PUSH1 0x1 AND ISZERO PUSH2 0x100 MUL SUB AND PUSH1 0x2 SWAP1 DIV SWAP1 PUSH1 0x0 MSTORE PUSH1 0x20 PUSH1 0x0 KECCAK256 SWAP1 PUSH1 0x1F ADD PUSH1 0x20 SWAP1 DIV DUP2 ADD SWAP3 DUP3 PUSH1 0x1F LT PUSH2 0x4D3 JUMPI DUP1 MLOAD PUSH1 0xFF NOT AND DUP4 DUP1 ADD OR DUP6 SSTORE PUSH2 0x500 JUMP JUMPDEST DUP3 DUP1 ADD PUSH1 0x1 ADD DUP6 SSTORE DUP3 ISZERO PUSH2 0x500 JUMPI SWAP2 DUP3 ADD JUMPDEST DUP3 DUP2 GT ISZERO PUSH2 0x500 JUMPI DUP3 MLOAD DUP3 SSTORE SWAP2 PUSH1 0x20 ADD SWAP2 SWAP1 PUSH1 0x1 ADD SWAP1 PUSH2 0x4E5 JUMP JUMPDEST POP PUSH2 0x50C SWAP3 SWAP2 POP PUSH2 0x510 JUMP JUMPDEST POP SWAP1 JUMP JUMPDEST PUSH2 0x52A SWAP2 SWAP1 JUMPDEST DUP1 DUP3 GT ISZERO PUSH2 0x50C JUMPI PUSH1 0x0 DUP2 SSTORE PUSH1 0x1 ADD PUSH2 0x516 JUMP JUMPDEST SWAP1 JUMP STOP LOG1 PUSH6 0x627A7A723058 KECCAK256 0xe3 PUSH12 0x9EC3ABC1F22E23097CDF5134 0xd1 0x4e 0xe3 PUSH19 0x41F03E3430FE221AB8FA507425600029000000 ",
  "sha1": "95ea52afb4db48cf51818e86d78062e0e4b2e6b2",
  "source": "pragma solidity ^0.4.24;\n\n\n/// @title Personal Information Registry\ncontract PersonalInfo {\n\n    /// 個人情報\n    struct Info {\n        address account_address; // アカウントアドレス\n        address link_address; // 情報を公開する先のアドレス\n        string encrypted_info; // 暗号化済個人情報\n    }\n\n    /// 個人情報\n    /// account_address => link_address => info\n    mapping(address => mapping(address => Info)) public personal_info;\n\n    /// イベント：登録\n    event Register(address indexed account_address, address indexed link_address);\n\n    /// イベント：修正\n    event Modify(address indexed account_address, address indexed link_address);\n\n    /// [CONSTRUCTOR]\n    constructor() public {}\n\n    /// @notice 個人情報を登録する\n    /// @param _link_address 通知先アドレス\n    /// @param _encrypted_info 暗号化済個人情報\n    /// @return 処理結果\n    function register(address _link_address, string memory _encrypted_info)\n        public\n        returns (bool)\n    {\n        Info storage info = personal_info[msg.sender][_link_address];\n\n        info.account_address = msg.sender;\n        info.link_address = _link_address;\n        info.encrypted_info = _encrypted_info;\n\n        emit Register(msg.sender, _link_address);\n\n        return true;\n    }\n\n    /// @notice 登録状況の確認\n    /// @param _account_address アカウントアドレス\n    /// @param _link_address 通知先アドレス\n    /// @return 登録状況\n    function isRegistered(address _account_address, address _link_address)\n        public\n        view returns (bool)\n    {\n        Info storage info = personal_info[_account_address][_link_address];\n        if (info.account_address == 0x0000000000000000000000000000000000000000) {\n            return false;\n        } else {\n            return true;\n        }\n    }\n\n    /// @notice 個人情報を修正する。\n    /// @dev 個人情報通知先アカウントによる修正。通知元アカウントによる修正はregister()を使う。\n    /// @param _account_address 個人情報通知元アカウントアドレス\n    /// @param _encrypted_info 暗号化済個人情報\n    /// @return 処理結果\n    function modify(address _account_address, string memory _encrypted_info)\n        public\n        returns (bool)\n    {\n        Info storage info = personal_info[_account_address][msg.sender];\n\n        // 登録済みか確認\n        require(info.account_address == _account_address);\n        require(info.link_address == msg.sender);\n\n        info.encrypted_info = _encrypted_info;\n\n        emit Modify(_account_address, msg.sender);\n        return true;\n    }\n}\n",
  "sourcePath": "contracts/PersonalInfo.sol",
  "type": "contract"
}